{
	"data": {
		"bytecode": {
			"linkReferences": {},
			"object": "60806040526011805460ff191660011790556200002967016345785d8a0000633b9aca0062000ec6565b620000379060001962000f20565b620000459060001962000ee8565b60135560006017556018805461ffff191690553480156200006557600080fd5b50604051620046d8380380620046d8833981016040819052620000889162000e65565b62000093336200094a565b60135460076000336001600160a01b03166001600160a01b03168152602001908152602001600020819055506001604051806101200160405280600a63ffffffff168152602001600463ffffffff168152602001601463ffffffff168152602001601463ffffffff168152602001602863ffffffff168152602001601063ffffffff168152602001856001600160a01b03168152602001846001600160a01b03168152602001836001600160a01b0316815250908060018154018082558091505060019003906000526020600020906004020160009091909190915060008201518160000160006101000a81548163ffffffff021916908363ffffffff16021790555060208201518160000160046101000a81548163ffffffff021916908363ffffffff16021790555060408201518160000160086101000a81548163ffffffff021916908363ffffffff160217905550606082015181600001600c6101000a81548163ffffffff021916908363ffffffff16021790555060808201518160000160106101000a81548163ffffffff021916908363ffffffff16021790555060a08201518160000160146101000a81548163ffffffff021916908363ffffffff16021790555060c08201518160010160006101000a8154816001600160a01b0302191690836001600160a01b0316021790555060e08201518160020160006101000a8154816001600160a01b0302191690836001600160a01b031602179055506101008201518160030160006101000a8154816001600160a01b0302191690836001600160a01b0316021790555050506001604051806101200160405280601963ffffffff168152602001600463ffffffff168152602001601463ffffffff168152602001601463ffffffff168152602001602863ffffffff168152602001601063ffffffff168152602001856001600160a01b03168152602001846001600160a01b03168152602001836001600160a01b0316815250908060018154018082558091505060019003906000526020600020906004020160009091909190915060008201518160000160006101000a81548163ffffffff021916908363ffffffff16021790555060208201518160000160046101000a81548163ffffffff021916908363ffffffff16021790555060408201518160000160086101000a81548163ffffffff021916908363ffffffff160217905550606082015181600001600c6101000a81548163ffffffff021916908363ffffffff16021790555060808201518160000160106101000a81548163ffffffff021916908363ffffffff16021790555060a08201518160000160146101000a81548163ffffffff021916908363ffffffff16021790555060c08201518160010160006101000a8154816001600160a01b0302191690836001600160a01b0316021790555060e08201518160020160006101000a8154816001600160a01b0302191690836001600160a01b031602179055506101008201518160030160006101000a8154816001600160a01b0302191690836001600160a01b031602179055505050600180815481106200051d576200051d62000f63565b600091825260209182902060049182020180546002805463ffffffff19811663ffffffff93841690811783558454640100000000908190048516026001600160401b031990921617178082558354680100000000000000009081900484160263ffffffff60401b1982168117835584546c010000000000000000000000009081900485160263ffffffff60601b19909116600160401b600160801b031990921691909117178082558354600160801b9081900484160263ffffffff60801b198216811783558454600160a01b9081900490941690930263ffffffff60a01b19909316600160801b600160c01b0319909116179190911781556001820154600380546001600160a01b03199081166001600160a01b03938416178255928401548554841690831617855590920154600580548316919093161790915560158054909116739ac64cc6e4415144c455bd8e4837fea55603e5c39081179091556040805163c45a015560e01b81529051919363c45a015593828101939192829003018186803b158015620006ad57600080fd5b505afa158015620006c2573d6000803e3d6000fd5b505050506040513d601f19601f82011682018060405250810190620006e8919062000e47565b6001600160a01b031663c9c6539630601560009054906101000a90046001600160a01b03166001600160a01b031663ad5c46486040518163ffffffff1660e01b815260040160206040518083038186803b1580156200074657600080fd5b505afa1580156200075b573d6000803e3d6000fd5b505050506040513d601f19601f8201168201806040525081019062000781919062000e47565b6040516001600160e01b031960e085901b1681526001600160a01b03928316600482015291166024820152604401602060405180830381600087803b158015620007ca57600080fd5b505af1158015620007df573d6000803e3d6000fd5b505050506040513d601f19601f8201168201806040525081019062000805919062000e47565b601680546001600160a01b0319166001600160a01b03929092169190911790556200083d67016345785d8a0000633b9aca0062000ec6565b600f5560646200085a67016345785d8a0000633b9aca0062000ec6565b6200086790600262000ec6565b62000873919062000eaf565b601055620008936200088d6000546001600160a01b031690565b6200099a565b6200089e306200099a565b620008bb620008b56000546001600160a01b031690565b62000a0d565b620008c861dead62000a0d565b620008d38362000a0d565b620008de8262000a0d565b620008e98162000a0d565b620008f43062000a0d565b3360007fddf252ad1be2c89b69c2b068fc378daa952ba7f163c4a11628f55a4df523b3ef6200093067016345785d8a0000633b9aca0062000ec6565b60405190815260200160405180910390a350505062000f79565b600080546001600160a01b038381166001600160a01b0319831681178455604051919092169283917f8be0079c531659141344cd1fd0a4f28419497f9722a3daafe3b4186f6b6457e09190a35050565b6000546001600160a01b03163314620009e95760405162461bcd60e51b81526020600482018190526024820152600080516020620046b883398151915260448201526064015b60405180910390fd5b6001600160a01b03166000908152600c60205260409020805460ff19166001179055565b6000546001600160a01b0316331462000a585760405162461bcd60e51b81526020600482018190526024820152600080516020620046b88339815191526044820152606401620009e0565b6001600160a01b0381166000908152600a602052604090205460ff161562000ac35760405162461bcd60e51b815260206004820152601b60248201527f4163636f756e7420697320616c7265616479206578636c7564656400000000006044820152606401620009e0565b6001600160a01b0381166000908152600760205260409020541562000b20576001600160a01b03811660009081526007602052604090205462000b069062000b86565b6001600160a01b0382166000908152600860205260409020555b6001600160a01b03166000818152600a60205260408120805460ff19166001908117909155600b805491820181559091527f0175b7a638427703f0dbe7bb9bbf987a2551717b34e79f33b5b1008d1fa01db90180546001600160a01b0319169091179055565b600060135482111562000bef5760405162461bcd60e51b815260206004820152602a60248201527f416d6f756e74206d757374206265206c657373207468616e20746f74616c207260448201526965666c656374696f6e7360b01b6064820152608401620009e0565b600062000bfb62000c10565b905062000c09818462000eaf565b9392505050565b6000808062000c1e62000c36565b909250905062000c2f818362000eaf565b9250505090565b60135460009081908162000c5767016345785d8a0000633b9aca0062000ec6565b905060005b600b5481101562000dcc578260076000600b848154811062000c825762000c8262000f63565b60009182526020808320909101546001600160a01b03168352820192909252604001902054118062000cf157508160086000600b848154811062000cca5762000cca62000f63565b60009182526020808320909101546001600160a01b03168352820192909252604001902054115b1562000d1d5760135462000d1267016345785d8a0000633b9aca0062000ec6565b945094505050509091565b60076000600b838154811062000d375762000d3762000f63565b60009182526020808320909101546001600160a01b0316835282019290925260400190205462000d68908462000ee8565b925060086000600b838154811062000d845762000d8462000f63565b60009182526020808320909101546001600160a01b0316835282019290925260400190205462000db5908362000ee8565b91508062000dc38162000f02565b91505062000c5c565b5062000de567016345785d8a0000633b9aca0062000ec6565b60135462000df4919062000eaf565b82101562000e215760135462000e1767016345785d8a0000633b9aca0062000ec6565b9350935050509091565b90939092509050565b80516001600160a01b038116811462000e4257600080fd5b919050565b60006020828403121562000e5a57600080fd5b62000c098262000e2a565b60008060006060848603121562000e7b57600080fd5b62000e868462000e2a565b925062000e966020850162000e2a565b915062000ea66040850162000e2a565b90509250925092565b60008262000ec15762000ec162000f4d565b500490565b600081600019048311821515161562000ee35762000ee362000f37565b500290565b60008282101562000efd5762000efd62000f37565b500390565b600060001982141562000f195762000f1962000f37565b5060010190565b60008262000f325762000f3262000f4d565b500690565b634e487b7160e01b600052601160045260246000fd5b634e487b7160e01b600052601260045260246000fd5b634e487b7160e01b600052603260045260246000fd5b61372f8062000f896000396000f3fe60806040526004361061024a5760003560e01c806370d5ae0511610139578063a9059cbb116100b6578063e85455d71161007a578063e85455d71461073e578063ea2f0b3714610777578063ec28438a14610797578063f2fde38b146107b7578063f66895a3146107d7578063fe575a87146107ec57600080fd5b8063a9059cbb14610678578063c29c669a14610698578063d8b60040146106b8578063dd62ed3e146106d8578063e594707e1461071e57600080fd5b80638da5cb5b116100fd5780638da5cb5b146105cc57806395d89b41146105ea578063974df267146106185780639d0014b114610638578063a457c2d71461065857600080fd5b806370d5ae05146104fe578063715018a6146105145780637d1db4a514610529578063864701a51461053f57806388f820201461059357600080fd5b8063313ce567116101c757806349bd5a5e1161018b57806349bd5a5e1461043757806352390c021461046f5780635342acb41461048f57806353bbf6ac146104c857806370a08231146104de57600080fd5b8063313ce5671461039b5780633685d419146103b757806339509351146103d7578063437823ec146103f75780634549b0391461041757600080fd5b806318160ddd1161020e57806318160ddd1461031b57806318a24b5b146103305780631fc9efa11461034557806323b872dd1461035b5780632d8381191461037b57600080fd5b80630445b66714610256578063053ab1821461027a57806306fdde031461029c578063095ea7b3146102d657806313114a9d1461030657600080fd5b3661025157005b600080fd5b34801561026257600080fd5b506006545b6040519081526020015b60405180910390f35b34801561028657600080fd5b5061029a6102953660046133dd565b610825565b005b3480156102a857600080fd5b50604080518082019091526008815267074657374696e67360c41b60208201525b60405161027191906134d4565b3480156102e257600080fd5b506102f66102f13660046133b1565b610915565b6040519015158152602001610271565b34801561031257600080fd5b50601454610267565b34801561032757600080fd5b5061026761092c565b34801561033c57600080fd5b5061029a610949565b34801561035157600080fd5b5061026760105481565b34801561036757600080fd5b506102f661037636600461333b565b610983565b34801561038757600080fd5b506102676103963660046133dd565b610a2d565b3480156103a757600080fd5b5060405160098152602001610271565b3480156103c357600080fd5b5061029a6103d23660046132c8565b610ab1565b3480156103e357600080fd5b506102f66103f23660046133b1565b610c68565b34801561040357600080fd5b5061029a6104123660046132c8565b610ca4565b34801561042357600080fd5b506102676104323660046133f6565b610cf2565b34801561044357600080fd5b50601654610457906001600160a01b031681565b6040516001600160a01b039091168152602001610271565b34801561047b57600080fd5b5061029a61048a3660046132c8565b610d90565b34801561049b57600080fd5b506102f66104aa3660046132c8565b6001600160a01b03166000908152600c602052604090205460ff1690565b3480156104d457600080fd5b5061026760125481565b3480156104ea57600080fd5b506102676104f93660046132c8565b610ee3565b34801561050a57600080fd5b5061045761dead81565b34801561052057600080fd5b5061029a610f42565b34801561053557600080fd5b50610267600f5481565b34801561054b57600080fd5b50610554610f78565b6040805163ffffffff978816815295871660208701529386169385019390935290841660608401528316608083015290911660a082015260c001610271565b34801561059f57600080fd5b506102f66105ae3660046132c8565b6001600160a01b03166000908152600a602052604090205460ff1690565b3480156105d857600080fd5b506000546001600160a01b0316610457565b3480156105f657600080fd5b50604080518082019091526005815264054455354360dc1b60208201526102c9565b34801561062457600080fd5b5061029a610633366004613419565b6110c9565b34801561064457600080fd5b5061029a6106533660046133dd565b6115d9565b34801561066457600080fd5b506102f66106733660046133b1565b611608565b34801561068457600080fd5b506102f66106933660046133b1565b6116a1565b3480156106a457600080fd5b5061029a6106b336600461337c565b6116ae565b3480156106c457600080fd5b5061029a6106d33660046133dd565b61172e565b3480156106e457600080fd5b506102676106f3366004613302565b6001600160a01b03918216600090815260096020908152604080832093909416825291909152205490565b34801561072a57600080fd5b5061029a61073936600461337c565b6117e7565b34801561074a57600080fd5b506102f66107593660046132c8565b6001600160a01b03166000908152600d602052604090205460ff1690565b34801561078357600080fd5b5061029a6107923660046132c8565b61183c565b3480156107a357600080fd5b5061029a6107b23660046133dd565b611887565b3480156107c357600080fd5b5061029a6107d23660046132c8565b611947565b3480156107e357600080fd5b506105546119e2565b3480156107f857600080fd5b506102f66108073660046132c8565b6001600160a01b03166000908152600e602052604090205460ff1690565b336000818152600a602052604090205460ff161561089f5760405162461bcd60e51b815260206004820152602c60248201527f4578636c75646564206164647265737365732063616e6e6f742063616c6c207460448201526b3434b990333ab731ba34b7b760a11b60648201526084015b60405180910390fd5b60006108aa83611b00565b5050506001600160a01b0384166000908152600760205260409020549192506108d591839150613650565b6001600160a01b0383166000908152600760205260409020556013546108fc908290613650565b60135560145461090d9084906135cf565b601455505050565b6000610922338484611b4b565b5060015b92915050565b600061094467016345785d8a0000633b9aca00613631565b905090565b6000546001600160a01b031633146109735760405162461bcd60e51b815260040161089690613529565b6011805460ff1916905542601255565b6000610990848484611c6f565b6001600160a01b038416600090815260096020908152604080832033845290915290205482811015610a155760405162461bcd60e51b815260206004820152602860248201527f45524332303a207472616e7366657220616d6f756e74206578636565647320616044820152676c6c6f77616e636560c01b6064820152608401610896565b610a228533858403611b4b565b506001949350505050565b6000601354821115610a945760405162461bcd60e51b815260206004820152602a60248201527f416d6f756e74206d757374206265206c657373207468616e20746f74616c207260448201526965666c656374696f6e7360b01b6064820152608401610896565b6000610a9e612a2a565b9050610aaa818461360f565b9392505050565b6000546001600160a01b03163314610adb5760405162461bcd60e51b815260040161089690613529565b6001600160a01b0381166000908152600a602052604090205460ff16610b435760405162461bcd60e51b815260206004820152601b60248201527f4163636f756e7420697320616c7265616479206578636c7564656400000000006044820152606401610896565b60005b600b54811015610c6457816001600160a01b0316600b8281548110610b6d57610b6d6136ae565b6000918252602090912001546001600160a01b03161415610c5257600b8054610b9890600190613650565b81548110610ba857610ba86136ae565b600091825260209091200154600b80546001600160a01b039092169183908110610bd457610bd46136ae565b600091825260208083209190910180546001600160a01b0319166001600160a01b039485161790559184168152600882526040808220829055600a90925220805460ff19169055600b805480610c2c57610c2c613698565b600082815260209020810160001990810180546001600160a01b03191690550190555050565b80610c5c81613667565b915050610b46565b5050565b3360008181526009602090815260408083206001600160a01b03871684529091528120549091610922918590610c9f9086906135cf565b611b4b565b6000546001600160a01b03163314610cce5760405162461bcd60e51b815260040161089690613529565b6001600160a01b03166000908152600c60205260409020805460ff19166001179055565b6000610d0a67016345785d8a0000633b9aca00613631565b831115610d595760405162461bcd60e51b815260206004820152601f60248201527f416d6f756e74206d757374206265206c657373207468616e20737570706c79006044820152606401610896565b81610d77576000610d6984611b00565b509294506109269350505050565b6000610d8284611b00565b509194506109269350505050565b6000546001600160a01b03163314610dba5760405162461bcd60e51b815260040161089690613529565b6001600160a01b0381166000908152600a602052604090205460ff1615610e235760405162461bcd60e51b815260206004820152601b60248201527f4163636f756e7420697320616c7265616479206578636c7564656400000000006044820152606401610896565b6001600160a01b03811660009081526007602052604090205415610e7d576001600160a01b038116600090815260076020526040902054610e6390610a2d565b6001600160a01b0382166000908152600860205260409020555b6001600160a01b03166000818152600a60205260408120805460ff19166001908117909155600b805491820181559091527f0175b7a638427703f0dbe7bb9bbf987a2551717b34e79f33b5b1008d1fa01db90180546001600160a01b0319169091179055565b6001600160a01b0381166000908152600a602052604081205460ff1615610f2057506001600160a01b031660009081526008602052604090205490565b6001600160a01b03821660009081526007602052604090205461092690610a2d565b6000546001600160a01b03163314610f6c5760405162461bcd60e51b815260040161089690613529565b610f766000612a4d565b565b6000806000806000806001600081548110610f9557610f956136ae565b600091825260208220600490910201546001805463ffffffff909216929091610fc057610fc06136ae565b906000526020600020906004020160000160049054906101000a900463ffffffff166001600081548110610ff657610ff66136ae565b906000526020600020906004020160000160089054906101000a900463ffffffff16600160008154811061102c5761102c6136ae565b9060005260206000209060040201600001600c9054906101000a900463ffffffff166001600081548110611062576110626136ae565b906000526020600020906004020160000160109054906101000a900463ffffffff166001600081548110611098576110986136ae565b6000918252602090912060049091020154949b939a5091985096509450600160a01b90910463ffffffff1692509050565b6000546001600160a01b031633146110f35760405162461bcd60e51b815260040161089690613529565b6001600160a01b0383161580159061111357506001600160a01b03821615155b801561112757506001600160a01b03811615155b61117f5760405162461bcd60e51b815260206004820152602360248201527f5461782057616c6c6574732061737369676e6564207a65726f2061646472657360448201526273202160e81b6064820152608401610896565b83858761118c8a8c6135e7565b61119691906135e7565b6111a091906135e7565b6111aa91906135e7565b63ffffffff166064146112115760405162461bcd60e51b815260206004820152602960248201527f53706c69742050657263656e746167657320646f6573206e6f742073756d207560448201526870746f20313030202160b81b6064820152608401610896565b8860018b81548110611225576112256136ae565b906000526020600020906004020160000160006101000a81548163ffffffff021916908363ffffffff1602179055508760018b81548110611268576112686136ae565b906000526020600020906004020160000160046101000a81548163ffffffff021916908363ffffffff1602179055508660018b815481106112ab576112ab6136ae565b906000526020600020906004020160000160086101000a81548163ffffffff021916908363ffffffff1602179055508560018b815481106112ee576112ee6136ae565b9060005260206000209060040201600001600c6101000a81548163ffffffff021916908363ffffffff1602179055508460018b81548110611331576113316136ae565b906000526020600020906004020160000160106101000a81548163ffffffff021916908363ffffffff1602179055508360018b81548110611374576113746136ae565b906000526020600020906004020160000160146101000a81548163ffffffff021916908363ffffffff1602179055508260018b815481106113b7576113b76136ae565b906000526020600020906004020160010160006101000a8154816001600160a01b0302191690836001600160a01b031602179055508160018b81548110611400576114006136ae565b906000526020600020906004020160020160006101000a8154816001600160a01b0302191690836001600160a01b031602179055508060018b81548110611449576114496136ae565b906000526020600020906004020160030160006101000a8154816001600160a01b0302191690836001600160a01b0316021790555089600114156115cd5760018a8154811061149a5761149a6136ae565b6000918252602090912060049182020180546002805463ffffffff19811663ffffffff938416908117835584546401000000009081900485160267ffffffffffffffff1990921617178082558354600160401b9081900484160263ffffffff60401b198216811783558454600160601b9081900485160263ffffffff60601b1990911667ffffffffffffffff60401b1990921691909117178082558354600160801b9081900484160263ffffffff60801b198216811783558454600160a01b9081900490941690930263ffffffff60a01b1990931667ffffffffffffffff60801b19909116179190911781556001820154600380546001600160a01b03199081166001600160a01b0393841617825592840154855484169083161790945592909101546005805490921692169190911790555b50505050505050505050565b6000546001600160a01b031633146116035760405162461bcd60e51b815260040161089690613529565b600655565b3360009081526009602090815260408083206001600160a01b03861684529091528120548281101561168a5760405162461bcd60e51b815260206004820152602560248201527f45524332303a2064656372656173656420616c6c6f77616e63652062656c6f77604482015264207a65726f60d81b6064820152608401610896565b6116973385858403611b4b565b5060019392505050565b6000610922338484611c6f565b6000546001600160a01b031633146116d85760405162461bcd60e51b815260040161089690613529565b6001600160a01b0382166000908152600d60205260409020805460ff1916821580159190911790915561171b576018805460ff19166001179055610c6482610d90565b6018805460ff19169055610c6482610ab1565b6000546001600160a01b031633146117585760405162461bcd60e51b815260040161089690613529565b6103e861177167016345785d8a0000633b9aca00613631565b61177b919061360f565b8110156117e25760405162461bcd60e51b815260206004820152602f60248201527f4d617820486f6c6420616d74206d7573742062652061626f766520302e31252060448201526e6f6620746f74616c20737570706c7960881b6064820152608401610896565b601055565b6000546001600160a01b031633146118115760405162461bcd60e51b815260040161089690613529565b6001600160a01b03919091166000908152600e60205260409020805460ff1916911515919091179055565b6000546001600160a01b031633146118665760405162461bcd60e51b815260040161089690613529565b6001600160a01b03166000908152600c60205260409020805460ff19169055565b6000546001600160a01b031633146118b15760405162461bcd60e51b815260040161089690613529565b6103e86118ca67016345785d8a0000633b9aca00613631565b6118d4919061360f565b8110156119425760405162461bcd60e51b815260206004820152603660248201527f4d6178205472616e73616374696f6e20616d74206d7573742062652061626f766044820152756520302e3125206f6620746f74616c20737570706c7960501b6064820152608401610896565b600f55565b6000546001600160a01b031633146119715760405162461bcd60e51b815260040161089690613529565b6001600160a01b0381166119d65760405162461bcd60e51b815260206004820152602660248201527f4f776e61626c653a206e6577206f776e657220697320746865207a65726f206160448201526564647265737360d01b6064820152608401610896565b6119df81612a4d565b50565b600080600080600080600180815481106119fe576119fe6136ae565b60009182526020909120600490910201546001805463ffffffff9092169181908110611a2c57611a2c6136ae565b906000526020600020906004020160000160049054906101000a900463ffffffff1660018081548110611a6157611a616136ae565b906000526020600020906004020160000160089054906101000a900463ffffffff1660018081548110611a9657611a966136ae565b9060005260206000209060040201600001600c9054906101000a900463ffffffff1660018081548110611acb57611acb6136ae565b906000526020600020906004020160000160109054906101000a900463ffffffff1660018081548110611098576110986136ae565b600080611b0b613270565b6000611b15613270565b611b1e86612a9d565b90925090506000611b2d612a2a565b9050611b3a878383612c26565b919750955093505091939590929450565b6001600160a01b038316611bad5760405162461bcd60e51b8152602060048201526024808201527f45524332303a20617070726f76652066726f6d20746865207a65726f206164646044820152637265737360e01b6064820152608401610896565b6001600160a01b038216611c0e5760405162461bcd60e51b815260206004820152602260248201527f45524332303a20617070726f766520746f20746865207a65726f206164647265604482015261737360f01b6064820152608401610896565b6001600160a01b0383811660008181526009602090815260408083209487168084529482529182902085905590518481527f8c5be1e5ebec7d5bd14f71427d1e84f3dd0314c0f7b2291e5b200ac8c7c3b925910160405180910390a3505050565b6001600160a01b038316611cd35760405162461bcd60e51b815260206004820152602560248201527f45524332303a207472616e736665722066726f6d20746865207a65726f206164604482015264647265737360d81b6064820152608401610896565b6001600160a01b038216611d355760405162461bcd60e51b815260206004820152602360248201527f45524332303a207472616e7366657220746f20746865207a65726f206164647260448201526265737360e81b6064820152608401610896565b60115460ff161580611d4e5750611d4c8383612d07565b155b611dab5760405162461bcd60e51b815260206004820152602860248201527f546f6b656e206973204c6f636b656420666f72204c6971756964747920746f20604482015267189948185919195960c21b6064820152608401610896565b601854610100900460ff16158015611dc85750611dc88383612d07565b15611f2657600f54811115611e2f5760405162461bcd60e51b815260206004820152602760248201527f5472616e7366657220616d6f756e74206578636565647320746865206d6178546044820152661e105b5bdd5b9d60ca1b6064820152608401610896565b6001600160a01b0383166000908152600e602052604090205460ff161580611e7057506001600160a01b0382166000908152600e602052604090205460ff16155b611eae5760405162461bcd60e51b815260206004820152600f60248201526e14db9a5c195c8814995a9958dd1959608a1b6044820152606401610896565b60105481611ebb84610ee3565b611ec591906135cf565b1115611f265760405162461bcd60e51b815260206004820152602a60248201527f52656365697665722061646472657373206578636565647320746865206d6178604482015269121bdb19105b5bdd5b9d60b21b6064820152608401610896565b601854610100900460ff1680611f5457506001600160a01b0383166000908152600c602052604090205460ff165b80611f7757506001600160a01b0382166000908152600c602052604090205460ff165b156120f9576000611f86612a2a565b611f909083613631565b6001600160a01b038516600090815260076020526040902054909150611fb7908290613650565b6001600160a01b038086166000908152600760205260408082209390935590851681522054611fe79082906135cf565b6001600160a01b038085166000908152600760209081526040808320949094559187168152600a909152205460ff1615612059576001600160a01b03841660009081526008602052604090205461203f908390613650565b6001600160a01b0385166000908152600860205260409020555b6001600160a01b0383166000908152600a602052604090205460ff16156120b8576001600160a01b03831660009081526008602052604090205461209e9083906135cf565b6001600160a01b0384166000908152600860205260409020555b826001600160a01b0316846001600160a01b03166000805160206136da833981519152846040516120eb91815260200190565b60405180910390a350505050565b6001600160a01b0383166000908152600d602052604090205460ff161561226157600160008154811061212e5761212e6136ae565b6000918252602090912060049182020180546002805463ffffffff19811663ffffffff938416908117835584546401000000009081900485160267ffffffffffffffff1990921617178082558354600160401b9081900484160263ffffffff60401b198216811783558454600160601b9081900485160263ffffffff60601b1990911667ffffffffffffffff60401b1990921691909117178082558354600160801b9081900484160263ffffffff60801b198216811783558454600160a01b9081900490941690930263ffffffff60a01b1990931667ffffffffffffffff60801b19909116179190911781556001820154600380546001600160a01b03199081166001600160a01b0393841617825592840154855484169083161790945592909101546005805490921692169190911790555b60025463ffffffff1615612a2457600080600080600061228086611b00565b6001600160a01b038d166000908152600d60205260409020549499509297509095509350915060ff16156123f457600180815481106122c1576122c16136ae565b6000918252602090912060049182020180546002805463ffffffff19811663ffffffff938416908117835584546401000000009081900485160267ffffffffffffffff1990921617178082558354600160401b9081900484160263ffffffff60401b198216811783558454600160601b9081900485160263ffffffff60601b1990911667ffffffffffffffff60401b1990921691909117178082558354600160801b9081900484160263ffffffff60801b198216811783558454600160a01b9081900490941690930263ffffffff60a01b1990931667ffffffffffffffff60801b19909116179190911781556001820154600380546001600160a01b03199081166001600160a01b0393841617825592840154855484169083161790945592909101546005805490921692169190911790555b6001600160a01b038816600090815260076020526040902054612418908690613650565b6001600160a01b03808a1660009081526007602052604080822093909355908916815220546124489085906135cf565b6001600160a01b038816600090815260076020526040812091909155835161dead82527fb0c2646e02af70b79e3fe9277b98373379f54150e4e26b2b5650139f7a75a65d80549192909161249d9084906135cf565b90915550506001600160a01b0388166000908152600a602052604090205460ff1615612501576001600160a01b0388166000908152600860205260409020546124e7908790613650565b6001600160a01b0389166000908152600860205260409020555b6001600160a01b0387166000908152600a602052604090205460ff1615612560576001600160a01b0387166000908152600860205260409020546125469083906135cf565b6001600160a01b0388166000908152600860205260409020555b61dead600052600a6020527f20677881080440a9b3c87e826370bb5d9c2f74efd4dede686d52d77a6a09f8bb5460ff16156125db57805161dead600090815260086020527f046fee3d77c34a6c5e10c3be6dc4b132c30449dbf4f0bc07684896dd0933429980549091906125d59084906135cf565b90915550505b60185460ff1680156125f55750601854610100900460ff16155b1561270d5782606001518360400151846020015161261391906135cf565b61261d91906135cf565b306000908152600760205260408120805490919061263c9084906135cf565b909155505060608101516040820151602083015161265a91906135cf565b61266491906135cf565b30600090815260086020526040812080549091906126839084906135cf565b909155506000905061269430610ee3565b905061269f81612d51565b4780156126af576126af81612edf565b306001600160a01b03168a6001600160a01b03166000805160206136da8339815191528560600151866040015187602001516126eb91906135cf565b6126f591906135cf565b60405190815260200160405180910390a3505061295f565b6020808401516003546001600160a01b0316600090815260079092526040822080549192909161273e9084906135cf565b90915550506040808401516004546001600160a01b0316600090815260076020529182208054919290916127739084906135cf565b909155505060608301516005546001600160a01b0316600090815260076020526040812080549091906127a79084906135cf565b90915550506003546001600160a01b03166000908152600a602052604090205460ff1615612806576020808201516003546001600160a01b031660009081526008909252604082208054919290916128009084906135cf565b90915550505b6004546001600160a01b03166000908152600a602052604090205460ff161561285f576040808201516004546001600160a01b0316600090815260086020529182208054919290916128599084906135cf565b90915550505b6005546001600160a01b03166000908152600a602052604090205460ff16156128b75760608101516005546001600160a01b0316600090815260086020526040812080549091906128b19084906135cf565b90915550505b6003546020828101516040519081526001600160a01b03928316928b16916000805160206136da833981519152910160405180910390a360045460408281015190519081526001600160a01b03918216918a16906000805160206136da8339815191529060200160405180910390a360055460608201516040519081526001600160a01b03918216918a16906000805160206136da8339815191529060200160405180910390a35b6129ad83608001518260800151836060015184604001518560200151866000015161298a91906135cf565b61299491906135cf565b61299e91906135cf565b6129a891906135cf565b613077565b805160405190815261dead906001600160a01b038a16906000805160206136da8339815191529060200160405180910390a3866001600160a01b0316886001600160a01b03166000805160206136da83398151915284604051612a1291815260200190565b60405180910390a35050505050505050565b6000611f865b6000806000612a3761309d565b9092509050612a46818361360f565b9250505090565b600080546001600160a01b038381166001600160a01b0319831681178455604051919092169283917f8be0079c531659141344cd1fd0a4f28419497f9722a3daafe3b4186f6b6457e09190a35050565b6000612aa7613270565b612aaf613270565b6002546127109063ffffffff6401000000008204811691612ad1911687613631565b612adb9190613631565b612ae5919061360f565b81526002546127109063ffffffff600160401b8204811691612b08911687613631565b612b129190613631565b612b1c919061360f565b60208201526002546127109063ffffffff600160601b8204811691612b42911687613631565b612b4c9190613631565b612b56919061360f565b60408201526002546127109063ffffffff600160801b8204811691612b7c911687613631565b612b869190613631565b612b90919061360f565b60608201526002546127109063ffffffff600160a01b8204811691612bb6911687613631565b612bc09190613631565b612bca919061360f565b60808201819052606082015160408301516020840151845160009493929190612bf3908a613650565b612bfd9190613650565b612c079190613650565b612c119190613650565b612c1b9190613650565b959194509092505050565b600080612c31613270565b6000612c3d8588613631565b9050612c47613270565b8651612c54908790613631565b81526020870151612c66908790613631565b60208201526040870151612c7b908790613631565b60408201526060870151612c90908790613631565b60608201526080870151612ca5908790613631565b60808201819052606082015160408301516020840151845160009493929190612cce9088613650565b612cd89190613650565b612ce29190613650565b612cec9190613650565b612cf69190613650565b929992985090965090945050505050565b600080546001600160a01b03848116911614801590612d3457506000546001600160a01b03838116911614155b8015610aaa57506001600160a01b03821661dead14159392505050565b6018805461ff001916610100179055600654811115612ed1576040805160028082526060820183526000926020830190803683370190505090503081600081518110612d9f57612d9f6136ae565b6001600160a01b03928316602091820292909201810191909152601554604080516315ab88c960e31b81529051919093169263ad5c4648926004808301939192829003018186803b158015612df357600080fd5b505afa158015612e07573d6000803e3d6000fd5b505050506040513d601f19601f82011682018060405250810190612e2b91906132e5565b81600181518110612e3e57612e3e6136ae565b6001600160a01b039283166020918202929092010152601554612e649130911684611b4b565b60155460405163791ac94760e01b81526001600160a01b039091169063791ac94790612e9d90859060009086903090429060040161355e565b600060405180830381600087803b158015612eb757600080fd5b505af1158015612ecb573d6000803e3d6000fd5b50505050505b506018805461ff0019169055565b60025460009063ffffffff600160801b8204811691612f0f91600160601b8204811691600160401b9004166135e7565b612f1991906135e7565b60025463ffffffff91821691612f3791600160401b90041684613631565b612f41919061360f565b60025490915060009063ffffffff600160801b8204811691612f7491600160601b8204811691600160401b9004166135e7565b612f7e91906135e7565b60025463ffffffff91821691612f9c91600160601b90041685613631565b612fa6919061360f565b9050600081612fb58486613650565b612fbf9190613650565b6003546040519192506001600160a01b03169084156108fc029085906000818181858888f19350505050158015612ffa573d6000803e3d6000fd5b506004546040516001600160a01b039091169083156108fc029084906000818181858888f19350505050158015613035573d6000803e3d6000fd5b506005546040516001600160a01b039091169082156108fc029083906000818181858888f19350505050158015613070573d6000803e3d6000fd5b5050505050565b816013546130859190613650565b6013556014546130969082906135cf565b6014555050565b6013546000908190816130bc67016345785d8a0000633b9aca00613631565b905060005b600b54811015613219578260076000600b84815481106130e3576130e36136ae565b60009182526020808320909101546001600160a01b03168352820192909252604001902054118061314e57508160086000600b8481548110613127576131276136ae565b60009182526020808320909101546001600160a01b03168352820192909252604001902054115b156131775760135461316c67016345785d8a0000633b9aca00613631565b945094505050509091565b60076000600b838154811061318e5761318e6136ae565b60009182526020808320909101546001600160a01b031683528201929092526040019020546131bd9084613650565b925060086000600b83815481106131d6576131d66136ae565b60009182526020808320909101546001600160a01b031683528201929092526040019020546132059083613650565b91508061321181613667565b9150506130c1565b5061323067016345785d8a0000633b9aca00613631565b60135461323d919061360f565b8210156132675760135461325d67016345785d8a0000633b9aca00613631565b9350935050509091565b90939092509050565b6040518060a0016040528060008152602001600081526020016000815260200160008152602001600081525090565b803580151581146132af57600080fd5b919050565b803563ffffffff811681146132af57600080fd5b6000602082840312156132da57600080fd5b8135610aaa816136c4565b6000602082840312156132f757600080fd5b8151610aaa816136c4565b6000806040838503121561331557600080fd5b8235613320816136c4565b91506020830135613330816136c4565b809150509250929050565b60008060006060848603121561335057600080fd5b833561335b816136c4565b9250602084013561336b816136c4565b929592945050506040919091013590565b6000806040838503121561338f57600080fd5b823561339a816136c4565b91506133a86020840161329f565b90509250929050565b600080604083850312156133c457600080fd5b82356133cf816136c4565b946020939093013593505050565b6000602082840312156133ef57600080fd5b5035919050565b6000806040838503121561340957600080fd5b823591506133a86020840161329f565b6000806000806000806000806000806101408b8d03121561343957600080fd5b8a35995061344960208c016132b4565b985061345760408c016132b4565b975061346560608c016132b4565b965061347360808c016132b4565b955061348160a08c016132b4565b945061348f60c08c016132b4565b935060e08b013561349f816136c4565b92506101008b01356134b0816136c4565b91506101208b01356134c1816136c4565b809150509295989b9194979a5092959850565b600060208083528351808285015260005b81811015613501578581018301518582016040015282016134e5565b81811115613513576000604083870101525b50601f01601f1916929092016040019392505050565b6020808252818101527f4f776e61626c653a2063616c6c6572206973206e6f7420746865206f776e6572604082015260600190565b600060a082018783526020878185015260a0604085015281875180845260c086019150828901935060005b818110156135ae5784516001600160a01b031683529383019391830191600101613589565b50506001600160a01b03969096166060850152505050608001529392505050565b600082198211156135e2576135e2613682565b500190565b600063ffffffff80831681851680830382111561360657613606613682565b01949350505050565b60008261362c57634e487b7160e01b600052601260045260246000fd5b500490565b600081600019048311821515161561364b5761364b613682565b500290565b60008282101561366257613662613682565b500390565b600060001982141561367b5761367b613682565b5060010190565b634e487b7160e01b600052601160045260246000fd5b634e487b7160e01b600052603160045260246000fd5b634e487b7160e01b600052603260045260246000fd5b6001600160a01b03811681146119df57600080fdfeddf252ad1be2c89b69c2b068fc378daa952ba7f163c4a11628f55a4df523b3efa2646970667358221220bb451daa0b7a56eddd46b1cebc109884b63d1b9d9349d9bfc7b27b70b147772f64736f6c634300080700334f776e61626c653a2063616c6c6572206973206e6f7420746865206f776e6572",
			"opcodes": "PUSH1 0x80 PUSH1 0x40 MSTORE PUSH1 0x11 DUP1 SLOAD PUSH1 0xFF NOT AND PUSH1 0x1 OR SWAP1 SSTORE PUSH3 0x29 PUSH8 0x16345785D8A0000 PUSH4 0x3B9ACA00 PUSH3 0xEC6 JUMP JUMPDEST PUSH3 0x37 SWAP1 PUSH1 0x0 NOT PUSH3 0xF20 JUMP JUMPDEST PUSH3 0x45 SWAP1 PUSH1 0x0 NOT PUSH3 0xEE8 JUMP JUMPDEST PUSH1 0x13 SSTORE PUSH1 0x0 PUSH1 0x17 SSTORE PUSH1 0x18 DUP1 SLOAD PUSH2 0xFFFF NOT AND SWAP1 SSTORE CALLVALUE DUP1 ISZERO PUSH3 0x65 JUMPI PUSH1 0x0 DUP1 REVERT JUMPDEST POP PUSH1 0x40 MLOAD PUSH3 0x46D8 CODESIZE SUB DUP1 PUSH3 0x46D8 DUP4 CODECOPY DUP2 ADD PUSH1 0x40 DUP2 SWAP1 MSTORE PUSH3 0x88 SWAP2 PUSH3 0xE65 JUMP JUMPDEST PUSH3 0x93 CALLER PUSH3 0x94A JUMP JUMPDEST PUSH1 0x13 SLOAD PUSH1 0x7 PUSH1 0x0 CALLER PUSH1 0x1 PUSH1 0x1 PUSH1 0xA0 SHL SUB AND PUSH1 0x1 PUSH1 0x1 PUSH1 0xA0 SHL SUB AND DUP2 MSTORE PUSH1 0x20 ADD SWAP1 DUP2 MSTORE PUSH1 0x20 ADD PUSH1 0x0 KECCAK256 DUP2 SWAP1 SSTORE POP PUSH1 0x1 PUSH1 0x40 MLOAD DUP1 PUSH2 0x120 ADD PUSH1 0x40 MSTORE DUP1 PUSH1 0xA PUSH4 0xFFFFFFFF AND DUP2 MSTORE PUSH1 0x20 ADD PUSH1 0x4 PUSH4 0xFFFFFFFF AND DUP2 MSTORE PUSH1 0x20 ADD PUSH1 0x14 PUSH4 0xFFFFFFFF AND DUP2 MSTORE PUSH1 0x20 ADD PUSH1 0x14 PUSH4 0xFFFFFFFF AND DUP2 MSTORE PUSH1 0x20 ADD PUSH1 0x28 PUSH4 0xFFFFFFFF AND DUP2 MSTORE PUSH1 0x20 ADD PUSH1 0x10 PUSH4 0xFFFFFFFF AND DUP2 MSTORE PUSH1 0x20 ADD DUP6 PUSH1 0x1 PUSH1 0x1 PUSH1 0xA0 SHL SUB AND DUP2 MSTORE PUSH1 0x20 ADD DUP5 PUSH1 0x1 PUSH1 0x1 PUSH1 0xA0 SHL SUB AND DUP2 MSTORE PUSH1 0x20 ADD DUP4 PUSH1 0x1 PUSH1 0x1 PUSH1 0xA0 SHL SUB AND DUP2 MSTORE POP SWAP1 DUP1 PUSH1 0x1 DUP2 SLOAD ADD DUP1 DUP3 SSTORE DUP1 SWAP2 POP POP PUSH1 0x1 SWAP1 SUB SWAP1 PUSH1 0x0 MSTORE PUSH1 0x20 PUSH1 0x0 KECCAK256 SWAP1 PUSH1 0x4 MUL ADD PUSH1 0x0 SWAP1 SWAP2 SWAP1 SWAP2 SWAP1 SWAP2 POP PUSH1 0x0 DUP3 ADD MLOAD DUP2 PUSH1 0x0 ADD PUSH1 0x0 PUSH2 0x100 EXP DUP2 SLOAD DUP2 PUSH4 0xFFFFFFFF MUL NOT AND SWAP1 DUP4 PUSH4 0xFFFFFFFF AND MUL OR SWAP1 SSTORE POP PUSH1 0x20 DUP3 ADD MLOAD DUP2 PUSH1 0x0 ADD PUSH1 0x4 PUSH2 0x100 EXP DUP2 SLOAD DUP2 PUSH4 0xFFFFFFFF MUL NOT AND SWAP1 DUP4 PUSH4 0xFFFFFFFF AND MUL OR SWAP1 SSTORE POP PUSH1 0x40 DUP3 ADD MLOAD DUP2 PUSH1 0x0 ADD PUSH1 0x8 PUSH2 0x100 EXP DUP2 SLOAD DUP2 PUSH4 0xFFFFFFFF MUL NOT AND SWAP1 DUP4 PUSH4 0xFFFFFFFF AND MUL OR SWAP1 SSTORE POP PUSH1 0x60 DUP3 ADD MLOAD DUP2 PUSH1 0x0 ADD PUSH1 0xC PUSH2 0x100 EXP DUP2 SLOAD DUP2 PUSH4 0xFFFFFFFF MUL NOT AND SWAP1 DUP4 PUSH4 0xFFFFFFFF AND MUL OR SWAP1 SSTORE POP PUSH1 0x80 DUP3 ADD MLOAD DUP2 PUSH1 0x0 ADD PUSH1 0x10 PUSH2 0x100 EXP DUP2 SLOAD DUP2 PUSH4 0xFFFFFFFF MUL NOT AND SWAP1 DUP4 PUSH4 0xFFFFFFFF AND MUL OR SWAP1 SSTORE POP PUSH1 0xA0 DUP3 ADD MLOAD DUP2 PUSH1 0x0 ADD PUSH1 0x14 PUSH2 0x100 EXP DUP2 SLOAD DUP2 PUSH4 0xFFFFFFFF MUL NOT AND SWAP1 DUP4 PUSH4 0xFFFFFFFF AND MUL OR SWAP1 SSTORE POP PUSH1 0xC0 DUP3 ADD MLOAD DUP2 PUSH1 0x1 ADD PUSH1 0x0 PUSH2 0x100 EXP DUP2 SLOAD DUP2 PUSH1 0x1 PUSH1 0x1 PUSH1 0xA0 SHL SUB MUL NOT AND SWAP1 DUP4 PUSH1 0x1 PUSH1 0x1 PUSH1 0xA0 SHL SUB AND MUL OR SWAP1 SSTORE POP PUSH1 0xE0 DUP3 ADD MLOAD DUP2 PUSH1 0x2 ADD PUSH1 0x0 PUSH2 0x100 EXP DUP2 SLOAD DUP2 PUSH1 0x1 PUSH1 0x1 PUSH1 0xA0 SHL SUB MUL NOT AND SWAP1 DUP4 PUSH1 0x1 PUSH1 0x1 PUSH1 0xA0 SHL SUB AND MUL OR SWAP1 SSTORE POP PUSH2 0x100 DUP3 ADD MLOAD DUP2 PUSH1 0x3 ADD PUSH1 0x0 PUSH2 0x100 EXP DUP2 SLOAD DUP2 PUSH1 0x1 PUSH1 0x1 PUSH1 0xA0 SHL SUB MUL NOT AND SWAP1 DUP4 PUSH1 0x1 PUSH1 0x1 PUSH1 0xA0 SHL SUB AND MUL OR SWAP1 SSTORE POP POP POP PUSH1 0x1 PUSH1 0x40 MLOAD DUP1 PUSH2 0x120 ADD PUSH1 0x40 MSTORE DUP1 PUSH1 0x19 PUSH4 0xFFFFFFFF AND DUP2 MSTORE PUSH1 0x20 ADD PUSH1 0x4 PUSH4 0xFFFFFFFF AND DUP2 MSTORE PUSH1 0x20 ADD PUSH1 0x14 PUSH4 0xFFFFFFFF AND DUP2 MSTORE PUSH1 0x20 ADD PUSH1 0x14 PUSH4 0xFFFFFFFF AND DUP2 MSTORE PUSH1 0x20 ADD PUSH1 0x28 PUSH4 0xFFFFFFFF AND DUP2 MSTORE PUSH1 0x20 ADD PUSH1 0x10 PUSH4 0xFFFFFFFF AND DUP2 MSTORE PUSH1 0x20 ADD DUP6 PUSH1 0x1 PUSH1 0x1 PUSH1 0xA0 SHL SUB AND DUP2 MSTORE PUSH1 0x20 ADD DUP5 PUSH1 0x1 PUSH1 0x1 PUSH1 0xA0 SHL SUB AND DUP2 MSTORE PUSH1 0x20 ADD DUP4 PUSH1 0x1 PUSH1 0x1 PUSH1 0xA0 SHL SUB AND DUP2 MSTORE POP SWAP1 DUP1 PUSH1 0x1 DUP2 SLOAD ADD DUP1 DUP3 SSTORE DUP1 SWAP2 POP POP PUSH1 0x1 SWAP1 SUB SWAP1 PUSH1 0x0 MSTORE PUSH1 0x20 PUSH1 0x0 KECCAK256 SWAP1 PUSH1 0x4 MUL ADD PUSH1 0x0 SWAP1 SWAP2 SWAP1 SWAP2 SWAP1 SWAP2 POP PUSH1 0x0 DUP3 ADD MLOAD DUP2 PUSH1 0x0 ADD PUSH1 0x0 PUSH2 0x100 EXP DUP2 SLOAD DUP2 PUSH4 0xFFFFFFFF MUL NOT AND SWAP1 DUP4 PUSH4 0xFFFFFFFF AND MUL OR SWAP1 SSTORE POP PUSH1 0x20 DUP3 ADD MLOAD DUP2 PUSH1 0x0 ADD PUSH1 0x4 PUSH2 0x100 EXP DUP2 SLOAD DUP2 PUSH4 0xFFFFFFFF MUL NOT AND SWAP1 DUP4 PUSH4 0xFFFFFFFF AND MUL OR SWAP1 SSTORE POP PUSH1 0x40 DUP3 ADD MLOAD DUP2 PUSH1 0x0 ADD PUSH1 0x8 PUSH2 0x100 EXP DUP2 SLOAD DUP2 PUSH4 0xFFFFFFFF MUL NOT AND SWAP1 DUP4 PUSH4 0xFFFFFFFF AND MUL OR SWAP1 SSTORE POP PUSH1 0x60 DUP3 ADD MLOAD DUP2 PUSH1 0x0 ADD PUSH1 0xC PUSH2 0x100 EXP DUP2 SLOAD DUP2 PUSH4 0xFFFFFFFF MUL NOT AND SWAP1 DUP4 PUSH4 0xFFFFFFFF AND MUL OR SWAP1 SSTORE POP PUSH1 0x80 DUP3 ADD MLOAD DUP2 PUSH1 0x0 ADD PUSH1 0x10 PUSH2 0x100 EXP DUP2 SLOAD DUP2 PUSH4 0xFFFFFFFF MUL NOT AND SWAP1 DUP4 PUSH4 0xFFFFFFFF AND MUL OR SWAP1 SSTORE POP PUSH1 0xA0 DUP3 ADD MLOAD DUP2 PUSH1 0x0 ADD PUSH1 0x14 PUSH2 0x100 EXP DUP2 SLOAD DUP2 PUSH4 0xFFFFFFFF MUL NOT AND SWAP1 DUP4 PUSH4 0xFFFFFFFF AND MUL OR SWAP1 SSTORE POP PUSH1 0xC0 DUP3 ADD MLOAD DUP2 PUSH1 0x1 ADD PUSH1 0x0 PUSH2 0x100 EXP DUP2 SLOAD DUP2 PUSH1 0x1 PUSH1 0x1 PUSH1 0xA0 SHL SUB MUL NOT AND SWAP1 DUP4 PUSH1 0x1 PUSH1 0x1 PUSH1 0xA0 SHL SUB AND MUL OR SWAP1 SSTORE POP PUSH1 0xE0 DUP3 ADD MLOAD DUP2 PUSH1 0x2 ADD PUSH1 0x0 PUSH2 0x100 EXP DUP2 SLOAD DUP2 PUSH1 0x1 PUSH1 0x1 PUSH1 0xA0 SHL SUB MUL NOT AND SWAP1 DUP4 PUSH1 0x1 PUSH1 0x1 PUSH1 0xA0 SHL SUB AND MUL OR SWAP1 SSTORE POP PUSH2 0x100 DUP3 ADD MLOAD DUP2 PUSH1 0x3 ADD PUSH1 0x0 PUSH2 0x100 EXP DUP2 SLOAD DUP2 PUSH1 0x1 PUSH1 0x1 PUSH1 0xA0 SHL SUB MUL NOT AND SWAP1 DUP4 PUSH1 0x1 PUSH1 0x1 PUSH1 0xA0 SHL SUB AND MUL OR SWAP1 SSTORE POP POP POP PUSH1 0x1 DUP1 DUP2 SLOAD DUP2 LT PUSH3 0x51D JUMPI PUSH3 0x51D PUSH3 0xF63 JUMP JUMPDEST PUSH1 0x0 SWAP2 DUP3 MSTORE PUSH1 0x20 SWAP2 DUP3 SWAP1 KECCAK256 PUSH1 0x4 SWAP2 DUP3 MUL ADD DUP1 SLOAD PUSH1 0x2 DUP1 SLOAD PUSH4 0xFFFFFFFF NOT DUP2 AND PUSH4 0xFFFFFFFF SWAP4 DUP5 AND SWAP1 DUP2 OR DUP4 SSTORE DUP5 SLOAD PUSH5 0x100000000 SWAP1 DUP2 SWAP1 DIV DUP6 AND MUL PUSH1 0x1 PUSH1 0x1 PUSH1 0x40 SHL SUB NOT SWAP1 SWAP3 AND OR OR DUP1 DUP3 SSTORE DUP4 SLOAD PUSH9 0x10000000000000000 SWAP1 DUP2 SWAP1 DIV DUP5 AND MUL PUSH4 0xFFFFFFFF PUSH1 0x40 SHL NOT DUP3 AND DUP2 OR DUP4 SSTORE DUP5 SLOAD PUSH13 0x1000000000000000000000000 SWAP1 DUP2 SWAP1 DIV DUP6 AND MUL PUSH4 0xFFFFFFFF PUSH1 0x60 SHL NOT SWAP1 SWAP2 AND PUSH1 0x1 PUSH1 0x40 SHL PUSH1 0x1 PUSH1 0x80 SHL SUB NOT SWAP1 SWAP3 AND SWAP2 SWAP1 SWAP2 OR OR DUP1 DUP3 SSTORE DUP4 SLOAD PUSH1 0x1 PUSH1 0x80 SHL SWAP1 DUP2 SWAP1 DIV DUP5 AND MUL PUSH4 0xFFFFFFFF PUSH1 0x80 SHL NOT DUP3 AND DUP2 OR DUP4 SSTORE DUP5 SLOAD PUSH1 0x1 PUSH1 0xA0 SHL SWAP1 DUP2 SWAP1 DIV SWAP1 SWAP5 AND SWAP1 SWAP4 MUL PUSH4 0xFFFFFFFF PUSH1 0xA0 SHL NOT SWAP1 SWAP4 AND PUSH1 0x1 PUSH1 0x80 SHL PUSH1 0x1 PUSH1 0xC0 SHL SUB NOT SWAP1 SWAP2 AND OR SWAP2 SWAP1 SWAP2 OR DUP2 SSTORE PUSH1 0x1 DUP3 ADD SLOAD PUSH1 0x3 DUP1 SLOAD PUSH1 0x1 PUSH1 0x1 PUSH1 0xA0 SHL SUB NOT SWAP1 DUP2 AND PUSH1 0x1 PUSH1 0x1 PUSH1 0xA0 SHL SUB SWAP4 DUP5 AND OR DUP3 SSTORE SWAP3 DUP5 ADD SLOAD DUP6 SLOAD DUP5 AND SWAP1 DUP4 AND OR DUP6 SSTORE SWAP1 SWAP3 ADD SLOAD PUSH1 0x5 DUP1 SLOAD DUP4 AND SWAP2 SWAP1 SWAP4 AND OR SWAP1 SWAP2 SSTORE PUSH1 0x15 DUP1 SLOAD SWAP1 SWAP2 AND PUSH20 0x9AC64CC6E4415144C455BD8E4837FEA55603E5C3 SWAP1 DUP2 OR SWAP1 SWAP2 SSTORE PUSH1 0x40 DUP1 MLOAD PUSH4 0xC45A0155 PUSH1 0xE0 SHL DUP2 MSTORE SWAP1 MLOAD SWAP2 SWAP4 PUSH4 0xC45A0155 SWAP4 DUP3 DUP2 ADD SWAP4 SWAP2 SWAP3 DUP3 SWAP1 SUB ADD DUP2 DUP7 DUP1 EXTCODESIZE ISZERO DUP1 ISZERO PUSH3 0x6AD JUMPI PUSH1 0x0 DUP1 REVERT JUMPDEST POP GAS STATICCALL ISZERO DUP1 ISZERO PUSH3 0x6C2 JUMPI RETURNDATASIZE PUSH1 0x0 DUP1 RETURNDATACOPY RETURNDATASIZE PUSH1 0x0 REVERT JUMPDEST POP POP POP POP PUSH1 0x40 MLOAD RETURNDATASIZE PUSH1 0x1F NOT PUSH1 0x1F DUP3 ADD AND DUP3 ADD DUP1 PUSH1 0x40 MSTORE POP DUP2 ADD SWAP1 PUSH3 0x6E8 SWAP2 SWAP1 PUSH3 0xE47 JUMP JUMPDEST PUSH1 0x1 PUSH1 0x1 PUSH1 0xA0 SHL SUB AND PUSH4 0xC9C65396 ADDRESS PUSH1 0x15 PUSH1 0x0 SWAP1 SLOAD SWAP1 PUSH2 0x100 EXP SWAP1 DIV PUSH1 0x1 PUSH1 0x1 PUSH1 0xA0 SHL SUB AND PUSH1 0x1 PUSH1 0x1 PUSH1 0xA0 SHL SUB AND PUSH4 0xAD5C4648 PUSH1 0x40 MLOAD DUP2 PUSH4 0xFFFFFFFF AND PUSH1 0xE0 SHL DUP2 MSTORE PUSH1 0x4 ADD PUSH1 0x20 PUSH1 0x40 MLOAD DUP1 DUP4 SUB DUP2 DUP7 DUP1 EXTCODESIZE ISZERO DUP1 ISZERO PUSH3 0x746 JUMPI PUSH1 0x0 DUP1 REVERT JUMPDEST POP GAS STATICCALL ISZERO DUP1 ISZERO PUSH3 0x75B JUMPI RETURNDATASIZE PUSH1 0x0 DUP1 RETURNDATACOPY RETURNDATASIZE PUSH1 0x0 REVERT JUMPDEST POP POP POP POP PUSH1 0x40 MLOAD RETURNDATASIZE PUSH1 0x1F NOT PUSH1 0x1F DUP3 ADD AND DUP3 ADD DUP1 PUSH1 0x40 MSTORE POP DUP2 ADD SWAP1 PUSH3 0x781 SWAP2 SWAP1 PUSH3 0xE47 JUMP JUMPDEST PUSH1 0x40 MLOAD PUSH1 0x1 PUSH1 0x1 PUSH1 0xE0 SHL SUB NOT PUSH1 0xE0 DUP6 SWAP1 SHL AND DUP2 MSTORE PUSH1 0x1 PUSH1 0x1 PUSH1 0xA0 SHL SUB SWAP3 DUP4 AND PUSH1 0x4 DUP3 ADD MSTORE SWAP2 AND PUSH1 0x24 DUP3 ADD MSTORE PUSH1 0x44 ADD PUSH1 0x20 PUSH1 0x40 MLOAD DUP1 DUP4 SUB DUP2 PUSH1 0x0 DUP8 DUP1 EXTCODESIZE ISZERO DUP1 ISZERO PUSH3 0x7CA JUMPI PUSH1 0x0 DUP1 REVERT JUMPDEST POP GAS CALL ISZERO DUP1 ISZERO PUSH3 0x7DF JUMPI RETURNDATASIZE PUSH1 0x0 DUP1 RETURNDATACOPY RETURNDATASIZE PUSH1 0x0 REVERT JUMPDEST POP POP POP POP PUSH1 0x40 MLOAD RETURNDATASIZE PUSH1 0x1F NOT PUSH1 0x1F DUP3 ADD AND DUP3 ADD DUP1 PUSH1 0x40 MSTORE POP DUP2 ADD SWAP1 PUSH3 0x805 SWAP2 SWAP1 PUSH3 0xE47 JUMP JUMPDEST PUSH1 0x16 DUP1 SLOAD PUSH1 0x1 PUSH1 0x1 PUSH1 0xA0 SHL SUB NOT AND PUSH1 0x1 PUSH1 0x1 PUSH1 0xA0 SHL SUB SWAP3 SWAP1 SWAP3 AND SWAP2 SWAP1 SWAP2 OR SWAP1 SSTORE PUSH3 0x83D PUSH8 0x16345785D8A0000 PUSH4 0x3B9ACA00 PUSH3 0xEC6 JUMP JUMPDEST PUSH1 0xF SSTORE PUSH1 0x64 PUSH3 0x85A PUSH8 0x16345785D8A0000 PUSH4 0x3B9ACA00 PUSH3 0xEC6 JUMP JUMPDEST PUSH3 0x867 SWAP1 PUSH1 0x2 PUSH3 0xEC6 JUMP JUMPDEST PUSH3 0x873 SWAP2 SWAP1 PUSH3 0xEAF JUMP JUMPDEST PUSH1 0x10 SSTORE PUSH3 0x893 PUSH3 0x88D PUSH1 0x0 SLOAD PUSH1 0x1 PUSH1 0x1 PUSH1 0xA0 SHL SUB AND SWAP1 JUMP JUMPDEST PUSH3 0x99A JUMP JUMPDEST PUSH3 0x89E ADDRESS PUSH3 0x99A JUMP JUMPDEST PUSH3 0x8BB PUSH3 0x8B5 PUSH1 0x0 SLOAD PUSH1 0x1 PUSH1 0x1 PUSH1 0xA0 SHL SUB AND SWAP1 JUMP JUMPDEST PUSH3 0xA0D JUMP JUMPDEST PUSH3 0x8C8 PUSH2 0xDEAD PUSH3 0xA0D JUMP JUMPDEST PUSH3 0x8D3 DUP4 PUSH3 0xA0D JUMP JUMPDEST PUSH3 0x8DE DUP3 PUSH3 0xA0D JUMP JUMPDEST PUSH3 0x8E9 DUP2 PUSH3 0xA0D JUMP JUMPDEST PUSH3 0x8F4 ADDRESS PUSH3 0xA0D JUMP JUMPDEST CALLER PUSH1 0x0 PUSH32 0xDDF252AD1BE2C89B69C2B068FC378DAA952BA7F163C4A11628F55A4DF523B3EF PUSH3 0x930 PUSH8 0x16345785D8A0000 PUSH4 0x3B9ACA00 PUSH3 0xEC6 JUMP JUMPDEST PUSH1 0x40 MLOAD SWAP1 DUP2 MSTORE PUSH1 0x20 ADD PUSH1 0x40 MLOAD DUP1 SWAP2 SUB SWAP1 LOG3 POP POP POP PUSH3 0xF79 JUMP JUMPDEST PUSH1 0x0 DUP1 SLOAD PUSH1 0x1 PUSH1 0x1 PUSH1 0xA0 SHL SUB DUP4 DUP2 AND PUSH1 0x1 PUSH1 0x1 PUSH1 0xA0 SHL SUB NOT DUP4 AND DUP2 OR DUP5 SSTORE PUSH1 0x40 MLOAD SWAP2 SWAP1 SWAP3 AND SWAP3 DUP4 SWAP2 PUSH32 0x8BE0079C531659141344CD1FD0A4F28419497F9722A3DAAFE3B4186F6B6457E0 SWAP2 SWAP1 LOG3 POP POP JUMP JUMPDEST PUSH1 0x0 SLOAD PUSH1 0x1 PUSH1 0x1 PUSH1 0xA0 SHL SUB AND CALLER EQ PUSH3 0x9E9 JUMPI PUSH1 0x40 MLOAD PUSH3 0x461BCD PUSH1 0xE5 SHL DUP2 MSTORE PUSH1 0x20 PUSH1 0x4 DUP3 ADD DUP2 SWAP1 MSTORE PUSH1 0x24 DUP3 ADD MSTORE PUSH1 0x0 DUP1 MLOAD PUSH1 0x20 PUSH3 0x46B8 DUP4 CODECOPY DUP2 MLOAD SWAP2 MSTORE PUSH1 0x44 DUP3 ADD MSTORE PUSH1 0x64 ADD JUMPDEST PUSH1 0x40 MLOAD DUP1 SWAP2 SUB SWAP1 REVERT JUMPDEST PUSH1 0x1 PUSH1 0x1 PUSH1 0xA0 SHL SUB AND PUSH1 0x0 SWAP1 DUP2 MSTORE PUSH1 0xC PUSH1 0x20 MSTORE PUSH1 0x40 SWAP1 KECCAK256 DUP1 SLOAD PUSH1 0xFF NOT AND PUSH1 0x1 OR SWAP1 SSTORE JUMP JUMPDEST PUSH1 0x0 SLOAD PUSH1 0x1 PUSH1 0x1 PUSH1 0xA0 SHL SUB AND CALLER EQ PUSH3 0xA58 JUMPI PUSH1 0x40 MLOAD PUSH3 0x461BCD PUSH1 0xE5 SHL DUP2 MSTORE PUSH1 0x20 PUSH1 0x4 DUP3 ADD DUP2 SWAP1 MSTORE PUSH1 0x24 DUP3 ADD MSTORE PUSH1 0x0 DUP1 MLOAD PUSH1 0x20 PUSH3 0x46B8 DUP4 CODECOPY DUP2 MLOAD SWAP2 MSTORE PUSH1 0x44 DUP3 ADD MSTORE PUSH1 0x64 ADD PUSH3 0x9E0 JUMP JUMPDEST PUSH1 0x1 PUSH1 0x1 PUSH1 0xA0 SHL SUB DUP2 AND PUSH1 0x0 SWAP1 DUP2 MSTORE PUSH1 0xA PUSH1 0x20 MSTORE PUSH1 0x40 SWAP1 KECCAK256 SLOAD PUSH1 0xFF AND ISZERO PUSH3 0xAC3 JUMPI PUSH1 0x40 MLOAD PUSH3 0x461BCD PUSH1 0xE5 SHL DUP2 MSTORE PUSH1 0x20 PUSH1 0x4 DUP3 ADD MSTORE PUSH1 0x1B PUSH1 0x24 DUP3 ADD MSTORE PUSH32 0x4163636F756E7420697320616C7265616479206578636C756465640000000000 PUSH1 0x44 DUP3 ADD MSTORE PUSH1 0x64 ADD PUSH3 0x9E0 JUMP JUMPDEST PUSH1 0x1 PUSH1 0x1 PUSH1 0xA0 SHL SUB DUP2 AND PUSH1 0x0 SWAP1 DUP2 MSTORE PUSH1 0x7 PUSH1 0x20 MSTORE PUSH1 0x40 SWAP1 KECCAK256 SLOAD ISZERO PUSH3 0xB20 JUMPI PUSH1 0x1 PUSH1 0x1 PUSH1 0xA0 SHL SUB DUP2 AND PUSH1 0x0 SWAP1 DUP2 MSTORE PUSH1 0x7 PUSH1 0x20 MSTORE PUSH1 0x40 SWAP1 KECCAK256 SLOAD PUSH3 0xB06 SWAP1 PUSH3 0xB86 JUMP JUMPDEST PUSH1 0x1 PUSH1 0x1 PUSH1 0xA0 SHL SUB DUP3 AND PUSH1 0x0 SWAP1 DUP2 MSTORE PUSH1 0x8 PUSH1 0x20 MSTORE PUSH1 0x40 SWAP1 KECCAK256 SSTORE JUMPDEST PUSH1 0x1 PUSH1 0x1 PUSH1 0xA0 SHL SUB AND PUSH1 0x0 DUP2 DUP2 MSTORE PUSH1 0xA PUSH1 0x20 MSTORE PUSH1 0x40 DUP2 KECCAK256 DUP1 SLOAD PUSH1 0xFF NOT AND PUSH1 0x1 SWAP1 DUP2 OR SWAP1 SWAP2 SSTORE PUSH1 0xB DUP1 SLOAD SWAP2 DUP3 ADD DUP2 SSTORE SWAP1 SWAP2 MSTORE PUSH32 0x175B7A638427703F0DBE7BB9BBF987A2551717B34E79F33B5B1008D1FA01DB9 ADD DUP1 SLOAD PUSH1 0x1 PUSH1 0x1 PUSH1 0xA0 SHL SUB NOT AND SWAP1 SWAP2 OR SWAP1 SSTORE JUMP JUMPDEST PUSH1 0x0 PUSH1 0x13 SLOAD DUP3 GT ISZERO PUSH3 0xBEF JUMPI PUSH1 0x40 MLOAD PUSH3 0x461BCD PUSH1 0xE5 SHL DUP2 MSTORE PUSH1 0x20 PUSH1 0x4 DUP3 ADD MSTORE PUSH1 0x2A PUSH1 0x24 DUP3 ADD MSTORE PUSH32 0x416D6F756E74206D757374206265206C657373207468616E20746F74616C2072 PUSH1 0x44 DUP3 ADD MSTORE PUSH10 0x65666C656374696F6E73 PUSH1 0xB0 SHL PUSH1 0x64 DUP3 ADD MSTORE PUSH1 0x84 ADD PUSH3 0x9E0 JUMP JUMPDEST PUSH1 0x0 PUSH3 0xBFB PUSH3 0xC10 JUMP JUMPDEST SWAP1 POP PUSH3 0xC09 DUP2 DUP5 PUSH3 0xEAF JUMP JUMPDEST SWAP4 SWAP3 POP POP POP JUMP JUMPDEST PUSH1 0x0 DUP1 DUP1 PUSH3 0xC1E PUSH3 0xC36 JUMP JUMPDEST SWAP1 SWAP3 POP SWAP1 POP PUSH3 0xC2F DUP2 DUP4 PUSH3 0xEAF JUMP JUMPDEST SWAP3 POP POP POP SWAP1 JUMP JUMPDEST PUSH1 0x13 SLOAD PUSH1 0x0 SWAP1 DUP2 SWAP1 DUP2 PUSH3 0xC57 PUSH8 0x16345785D8A0000 PUSH4 0x3B9ACA00 PUSH3 0xEC6 JUMP JUMPDEST SWAP1 POP PUSH1 0x0 JUMPDEST PUSH1 0xB SLOAD DUP2 LT ISZERO PUSH3 0xDCC JUMPI DUP3 PUSH1 0x7 PUSH1 0x0 PUSH1 0xB DUP5 DUP2 SLOAD DUP2 LT PUSH3 0xC82 JUMPI PUSH3 0xC82 PUSH3 0xF63 JUMP JUMPDEST PUSH1 0x0 SWAP2 DUP3 MSTORE PUSH1 0x20 DUP1 DUP4 KECCAK256 SWAP1 SWAP2 ADD SLOAD PUSH1 0x1 PUSH1 0x1 PUSH1 0xA0 SHL SUB AND DUP4 MSTORE DUP3 ADD SWAP3 SWAP1 SWAP3 MSTORE PUSH1 0x40 ADD SWAP1 KECCAK256 SLOAD GT DUP1 PUSH3 0xCF1 JUMPI POP DUP2 PUSH1 0x8 PUSH1 0x0 PUSH1 0xB DUP5 DUP2 SLOAD DUP2 LT PUSH3 0xCCA JUMPI PUSH3 0xCCA PUSH3 0xF63 JUMP JUMPDEST PUSH1 0x0 SWAP2 DUP3 MSTORE PUSH1 0x20 DUP1 DUP4 KECCAK256 SWAP1 SWAP2 ADD SLOAD PUSH1 0x1 PUSH1 0x1 PUSH1 0xA0 SHL SUB AND DUP4 MSTORE DUP3 ADD SWAP3 SWAP1 SWAP3 MSTORE PUSH1 0x40 ADD SWAP1 KECCAK256 SLOAD GT JUMPDEST ISZERO PUSH3 0xD1D JUMPI PUSH1 0x13 SLOAD PUSH3 0xD12 PUSH8 0x16345785D8A0000 PUSH4 0x3B9ACA00 PUSH3 0xEC6 JUMP JUMPDEST SWAP5 POP SWAP5 POP POP POP POP SWAP1 SWAP2 JUMP JUMPDEST PUSH1 0x7 PUSH1 0x0 PUSH1 0xB DUP4 DUP2 SLOAD DUP2 LT PUSH3 0xD37 JUMPI PUSH3 0xD37 PUSH3 0xF63 JUMP JUMPDEST PUSH1 0x0 SWAP2 DUP3 MSTORE PUSH1 0x20 DUP1 DUP4 KECCAK256 SWAP1 SWAP2 ADD SLOAD PUSH1 0x1 PUSH1 0x1 PUSH1 0xA0 SHL SUB AND DUP4 MSTORE DUP3 ADD SWAP3 SWAP1 SWAP3 MSTORE PUSH1 0x40 ADD SWAP1 KECCAK256 SLOAD PUSH3 0xD68 SWAP1 DUP5 PUSH3 0xEE8 JUMP JUMPDEST SWAP3 POP PUSH1 0x8 PUSH1 0x0 PUSH1 0xB DUP4 DUP2 SLOAD DUP2 LT PUSH3 0xD84 JUMPI PUSH3 0xD84 PUSH3 0xF63 JUMP JUMPDEST PUSH1 0x0 SWAP2 DUP3 MSTORE PUSH1 0x20 DUP1 DUP4 KECCAK256 SWAP1 SWAP2 ADD SLOAD PUSH1 0x1 PUSH1 0x1 PUSH1 0xA0 SHL SUB AND DUP4 MSTORE DUP3 ADD SWAP3 SWAP1 SWAP3 MSTORE PUSH1 0x40 ADD SWAP1 KECCAK256 SLOAD PUSH3 0xDB5 SWAP1 DUP4 PUSH3 0xEE8 JUMP JUMPDEST SWAP2 POP DUP1 PUSH3 0xDC3 DUP2 PUSH3 0xF02 JUMP JUMPDEST SWAP2 POP POP PUSH3 0xC5C JUMP JUMPDEST POP PUSH3 0xDE5 PUSH8 0x16345785D8A0000 PUSH4 0x3B9ACA00 PUSH3 0xEC6 JUMP JUMPDEST PUSH1 0x13 SLOAD PUSH3 0xDF4 SWAP2 SWAP1 PUSH3 0xEAF JUMP JUMPDEST DUP3 LT ISZERO PUSH3 0xE21 JUMPI PUSH1 0x13 SLOAD PUSH3 0xE17 PUSH8 0x16345785D8A0000 PUSH4 0x3B9ACA00 PUSH3 0xEC6 JUMP JUMPDEST SWAP4 POP SWAP4 POP POP POP SWAP1 SWAP2 JUMP JUMPDEST SWAP1 SWAP4 SWAP1 SWAP3 POP SWAP1 POP JUMP JUMPDEST DUP1 MLOAD PUSH1 0x1 PUSH1 0x1 PUSH1 0xA0 SHL SUB DUP2 AND DUP2 EQ PUSH3 0xE42 JUMPI PUSH1 0x0 DUP1 REVERT JUMPDEST SWAP2 SWAP1 POP JUMP JUMPDEST PUSH1 0x0 PUSH1 0x20 DUP3 DUP5 SUB SLT ISZERO PUSH3 0xE5A JUMPI PUSH1 0x0 DUP1 REVERT JUMPDEST PUSH3 0xC09 DUP3 PUSH3 0xE2A JUMP JUMPDEST PUSH1 0x0 DUP1 PUSH1 0x0 PUSH1 0x60 DUP5 DUP7 SUB SLT ISZERO PUSH3 0xE7B JUMPI PUSH1 0x0 DUP1 REVERT JUMPDEST PUSH3 0xE86 DUP5 PUSH3 0xE2A JUMP JUMPDEST SWAP3 POP PUSH3 0xE96 PUSH1 0x20 DUP6 ADD PUSH3 0xE2A JUMP JUMPDEST SWAP2 POP PUSH3 0xEA6 PUSH1 0x40 DUP6 ADD PUSH3 0xE2A JUMP JUMPDEST SWAP1 POP SWAP3 POP SWAP3 POP SWAP3 JUMP JUMPDEST PUSH1 0x0 DUP3 PUSH3 0xEC1 JUMPI PUSH3 0xEC1 PUSH3 0xF4D JUMP JUMPDEST POP DIV SWAP1 JUMP JUMPDEST PUSH1 0x0 DUP2 PUSH1 0x0 NOT DIV DUP4 GT DUP3 ISZERO ISZERO AND ISZERO PUSH3 0xEE3 JUMPI PUSH3 0xEE3 PUSH3 0xF37 JUMP JUMPDEST POP MUL SWAP1 JUMP JUMPDEST PUSH1 0x0 DUP3 DUP3 LT ISZERO PUSH3 0xEFD JUMPI PUSH3 0xEFD PUSH3 0xF37 JUMP JUMPDEST POP SUB SWAP1 JUMP JUMPDEST PUSH1 0x0 PUSH1 0x0 NOT DUP3 EQ ISZERO PUSH3 0xF19 JUMPI PUSH3 0xF19 PUSH3 0xF37 JUMP JUMPDEST POP PUSH1 0x1 ADD SWAP1 JUMP JUMPDEST PUSH1 0x0 DUP3 PUSH3 0xF32 JUMPI PUSH3 0xF32 PUSH3 0xF4D JUMP JUMPDEST POP MOD SWAP1 JUMP JUMPDEST PUSH4 0x4E487B71 PUSH1 0xE0 SHL PUSH1 0x0 MSTORE PUSH1 0x11 PUSH1 0x4 MSTORE PUSH1 0x24 PUSH1 0x0 REVERT JUMPDEST PUSH4 0x4E487B71 PUSH1 0xE0 SHL PUSH1 0x0 MSTORE PUSH1 0x12 PUSH1 0x4 MSTORE PUSH1 0x24 PUSH1 0x0 REVERT JUMPDEST PUSH4 0x4E487B71 PUSH1 0xE0 SHL PUSH1 0x0 MSTORE PUSH1 0x32 PUSH1 0x4 MSTORE PUSH1 0x24 PUSH1 0x0 REVERT JUMPDEST PUSH2 0x372F DUP1 PUSH3 0xF89 PUSH1 0x0 CODECOPY PUSH1 0x0 RETURN INVALID PUSH1 0x80 PUSH1 0x40 MSTORE PUSH1 0x4 CALLDATASIZE LT PUSH2 0x24A JUMPI PUSH1 0x0 CALLDATALOAD PUSH1 0xE0 SHR DUP1 PUSH4 0x70D5AE05 GT PUSH2 0x139 JUMPI DUP1 PUSH4 0xA9059CBB GT PUSH2 0xB6 JUMPI DUP1 PUSH4 0xE85455D7 GT PUSH2 0x7A JUMPI DUP1 PUSH4 0xE85455D7 EQ PUSH2 0x73E JUMPI DUP1 PUSH4 0xEA2F0B37 EQ PUSH2 0x777 JUMPI DUP1 PUSH4 0xEC28438A EQ PUSH2 0x797 JUMPI DUP1 PUSH4 0xF2FDE38B EQ PUSH2 0x7B7 JUMPI DUP1 PUSH4 0xF66895A3 EQ PUSH2 0x7D7 JUMPI DUP1 PUSH4 0xFE575A87 EQ PUSH2 0x7EC JUMPI PUSH1 0x0 DUP1 REVERT JUMPDEST DUP1 PUSH4 0xA9059CBB EQ PUSH2 0x678 JUMPI DUP1 PUSH4 0xC29C669A EQ PUSH2 0x698 JUMPI DUP1 PUSH4 0xD8B60040 EQ PUSH2 0x6B8 JUMPI DUP1 PUSH4 0xDD62ED3E EQ PUSH2 0x6D8 JUMPI DUP1 PUSH4 0xE594707E EQ PUSH2 0x71E JUMPI PUSH1 0x0 DUP1 REVERT JUMPDEST DUP1 PUSH4 0x8DA5CB5B GT PUSH2 0xFD JUMPI DUP1 PUSH4 0x8DA5CB5B EQ PUSH2 0x5CC JUMPI DUP1 PUSH4 0x95D89B41 EQ PUSH2 0x5EA JUMPI DUP1 PUSH4 0x974DF267 EQ PUSH2 0x618 JUMPI DUP1 PUSH4 0x9D0014B1 EQ PUSH2 0x638 JUMPI DUP1 PUSH4 0xA457C2D7 EQ PUSH2 0x658 JUMPI PUSH1 0x0 DUP1 REVERT JUMPDEST DUP1 PUSH4 0x70D5AE05 EQ PUSH2 0x4FE JUMPI DUP1 PUSH4 0x715018A6 EQ PUSH2 0x514 JUMPI DUP1 PUSH4 0x7D1DB4A5 EQ PUSH2 0x529 JUMPI DUP1 PUSH4 0x864701A5 EQ PUSH2 0x53F JUMPI DUP1 PUSH4 0x88F82020 EQ PUSH2 0x593 JUMPI PUSH1 0x0 DUP1 REVERT JUMPDEST DUP1 PUSH4 0x313CE567 GT PUSH2 0x1C7 JUMPI DUP1 PUSH4 0x49BD5A5E GT PUSH2 0x18B JUMPI DUP1 PUSH4 0x49BD5A5E EQ PUSH2 0x437 JUMPI DUP1 PUSH4 0x52390C02 EQ PUSH2 0x46F JUMPI DUP1 PUSH4 0x5342ACB4 EQ PUSH2 0x48F JUMPI DUP1 PUSH4 0x53BBF6AC EQ PUSH2 0x4C8 JUMPI DUP1 PUSH4 0x70A08231 EQ PUSH2 0x4DE JUMPI PUSH1 0x0 DUP1 REVERT JUMPDEST DUP1 PUSH4 0x313CE567 EQ PUSH2 0x39B JUMPI DUP1 PUSH4 0x3685D419 EQ PUSH2 0x3B7 JUMPI DUP1 PUSH4 0x39509351 EQ PUSH2 0x3D7 JUMPI DUP1 PUSH4 0x437823EC EQ PUSH2 0x3F7 JUMPI DUP1 PUSH4 0x4549B039 EQ PUSH2 0x417 JUMPI PUSH1 0x0 DUP1 REVERT JUMPDEST DUP1 PUSH4 0x18160DDD GT PUSH2 0x20E JUMPI DUP1 PUSH4 0x18160DDD EQ PUSH2 0x31B JUMPI DUP1 PUSH4 0x18A24B5B EQ PUSH2 0x330 JUMPI DUP1 PUSH4 0x1FC9EFA1 EQ PUSH2 0x345 JUMPI DUP1 PUSH4 0x23B872DD EQ PUSH2 0x35B JUMPI DUP1 PUSH4 0x2D838119 EQ PUSH2 0x37B JUMPI PUSH1 0x0 DUP1 REVERT JUMPDEST DUP1 PUSH4 0x445B667 EQ PUSH2 0x256 JUMPI DUP1 PUSH4 0x53AB182 EQ PUSH2 0x27A JUMPI DUP1 PUSH4 0x6FDDE03 EQ PUSH2 0x29C JUMPI DUP1 PUSH4 0x95EA7B3 EQ PUSH2 0x2D6 JUMPI DUP1 PUSH4 0x13114A9D EQ PUSH2 0x306 JUMPI PUSH1 0x0 DUP1 REVERT JUMPDEST CALLDATASIZE PUSH2 0x251 JUMPI STOP JUMPDEST PUSH1 0x0 DUP1 REVERT JUMPDEST CALLVALUE DUP1 ISZERO PUSH2 0x262 JUMPI PUSH1 0x0 DUP1 REVERT JUMPDEST POP PUSH1 0x6 SLOAD JUMPDEST PUSH1 0x40 MLOAD SWAP1 DUP2 MSTORE PUSH1 0x20 ADD JUMPDEST PUSH1 0x40 MLOAD DUP1 SWAP2 SUB SWAP1 RETURN JUMPDEST CALLVALUE DUP1 ISZERO PUSH2 0x286 JUMPI PUSH1 0x0 DUP1 REVERT JUMPDEST POP PUSH2 0x29A PUSH2 0x295 CALLDATASIZE PUSH1 0x4 PUSH2 0x33DD JUMP JUMPDEST PUSH2 0x825 JUMP JUMPDEST STOP JUMPDEST CALLVALUE DUP1 ISZERO PUSH2 0x2A8 JUMPI PUSH1 0x0 DUP1 REVERT JUMPDEST POP PUSH1 0x40 DUP1 MLOAD DUP1 DUP3 ADD SWAP1 SWAP2 MSTORE PUSH1 0x8 DUP2 MSTORE PUSH8 0x74657374696E673 PUSH1 0xC4 SHL PUSH1 0x20 DUP3 ADD MSTORE JUMPDEST PUSH1 0x40 MLOAD PUSH2 0x271 SWAP2 SWAP1 PUSH2 0x34D4 JUMP JUMPDEST CALLVALUE DUP1 ISZERO PUSH2 0x2E2 JUMPI PUSH1 0x0 DUP1 REVERT JUMPDEST POP PUSH2 0x2F6 PUSH2 0x2F1 CALLDATASIZE PUSH1 0x4 PUSH2 0x33B1 JUMP JUMPDEST PUSH2 0x915 JUMP JUMPDEST PUSH1 0x40 MLOAD SWAP1 ISZERO ISZERO DUP2 MSTORE PUSH1 0x20 ADD PUSH2 0x271 JUMP JUMPDEST CALLVALUE DUP1 ISZERO PUSH2 0x312 JUMPI PUSH1 0x0 DUP1 REVERT JUMPDEST POP PUSH1 0x14 SLOAD PUSH2 0x267 JUMP JUMPDEST CALLVALUE DUP1 ISZERO PUSH2 0x327 JUMPI PUSH1 0x0 DUP1 REVERT JUMPDEST POP PUSH2 0x267 PUSH2 0x92C JUMP JUMPDEST CALLVALUE DUP1 ISZERO PUSH2 0x33C JUMPI PUSH1 0x0 DUP1 REVERT JUMPDEST POP PUSH2 0x29A PUSH2 0x949 JUMP JUMPDEST CALLVALUE DUP1 ISZERO PUSH2 0x351 JUMPI PUSH1 0x0 DUP1 REVERT JUMPDEST POP PUSH2 0x267 PUSH1 0x10 SLOAD DUP2 JUMP JUMPDEST CALLVALUE DUP1 ISZERO PUSH2 0x367 JUMPI PUSH1 0x0 DUP1 REVERT JUMPDEST POP PUSH2 0x2F6 PUSH2 0x376 CALLDATASIZE PUSH1 0x4 PUSH2 0x333B JUMP JUMPDEST PUSH2 0x983 JUMP JUMPDEST CALLVALUE DUP1 ISZERO PUSH2 0x387 JUMPI PUSH1 0x0 DUP1 REVERT JUMPDEST POP PUSH2 0x267 PUSH2 0x396 CALLDATASIZE PUSH1 0x4 PUSH2 0x33DD JUMP JUMPDEST PUSH2 0xA2D JUMP JUMPDEST CALLVALUE DUP1 ISZERO PUSH2 0x3A7 JUMPI PUSH1 0x0 DUP1 REVERT JUMPDEST POP PUSH1 0x40 MLOAD PUSH1 0x9 DUP2 MSTORE PUSH1 0x20 ADD PUSH2 0x271 JUMP JUMPDEST CALLVALUE DUP1 ISZERO PUSH2 0x3C3 JUMPI PUSH1 0x0 DUP1 REVERT JUMPDEST POP PUSH2 0x29A PUSH2 0x3D2 CALLDATASIZE PUSH1 0x4 PUSH2 0x32C8 JUMP JUMPDEST PUSH2 0xAB1 JUMP JUMPDEST CALLVALUE DUP1 ISZERO PUSH2 0x3E3 JUMPI PUSH1 0x0 DUP1 REVERT JUMPDEST POP PUSH2 0x2F6 PUSH2 0x3F2 CALLDATASIZE PUSH1 0x4 PUSH2 0x33B1 JUMP JUMPDEST PUSH2 0xC68 JUMP JUMPDEST CALLVALUE DUP1 ISZERO PUSH2 0x403 JUMPI PUSH1 0x0 DUP1 REVERT JUMPDEST POP PUSH2 0x29A PUSH2 0x412 CALLDATASIZE PUSH1 0x4 PUSH2 0x32C8 JUMP JUMPDEST PUSH2 0xCA4 JUMP JUMPDEST CALLVALUE DUP1 ISZERO PUSH2 0x423 JUMPI PUSH1 0x0 DUP1 REVERT JUMPDEST POP PUSH2 0x267 PUSH2 0x432 CALLDATASIZE PUSH1 0x4 PUSH2 0x33F6 JUMP JUMPDEST PUSH2 0xCF2 JUMP JUMPDEST CALLVALUE DUP1 ISZERO PUSH2 0x443 JUMPI PUSH1 0x0 DUP1 REVERT JUMPDEST POP PUSH1 0x16 SLOAD PUSH2 0x457 SWAP1 PUSH1 0x1 PUSH1 0x1 PUSH1 0xA0 SHL SUB AND DUP2 JUMP JUMPDEST PUSH1 0x40 MLOAD PUSH1 0x1 PUSH1 0x1 PUSH1 0xA0 SHL SUB SWAP1 SWAP2 AND DUP2 MSTORE PUSH1 0x20 ADD PUSH2 0x271 JUMP JUMPDEST CALLVALUE DUP1 ISZERO PUSH2 0x47B JUMPI PUSH1 0x0 DUP1 REVERT JUMPDEST POP PUSH2 0x29A PUSH2 0x48A CALLDATASIZE PUSH1 0x4 PUSH2 0x32C8 JUMP JUMPDEST PUSH2 0xD90 JUMP JUMPDEST CALLVALUE DUP1 ISZERO PUSH2 0x49B JUMPI PUSH1 0x0 DUP1 REVERT JUMPDEST POP PUSH2 0x2F6 PUSH2 0x4AA CALLDATASIZE PUSH1 0x4 PUSH2 0x32C8 JUMP JUMPDEST PUSH1 0x1 PUSH1 0x1 PUSH1 0xA0 SHL SUB AND PUSH1 0x0 SWAP1 DUP2 MSTORE PUSH1 0xC PUSH1 0x20 MSTORE PUSH1 0x40 SWAP1 KECCAK256 SLOAD PUSH1 0xFF AND SWAP1 JUMP JUMPDEST CALLVALUE DUP1 ISZERO PUSH2 0x4D4 JUMPI PUSH1 0x0 DUP1 REVERT JUMPDEST POP PUSH2 0x267 PUSH1 0x12 SLOAD DUP2 JUMP JUMPDEST CALLVALUE DUP1 ISZERO PUSH2 0x4EA JUMPI PUSH1 0x0 DUP1 REVERT JUMPDEST POP PUSH2 0x267 PUSH2 0x4F9 CALLDATASIZE PUSH1 0x4 PUSH2 0x32C8 JUMP JUMPDEST PUSH2 0xEE3 JUMP JUMPDEST CALLVALUE DUP1 ISZERO PUSH2 0x50A JUMPI PUSH1 0x0 DUP1 REVERT JUMPDEST POP PUSH2 0x457 PUSH2 0xDEAD DUP2 JUMP JUMPDEST CALLVALUE DUP1 ISZERO PUSH2 0x520 JUMPI PUSH1 0x0 DUP1 REVERT JUMPDEST POP PUSH2 0x29A PUSH2 0xF42 JUMP JUMPDEST CALLVALUE DUP1 ISZERO PUSH2 0x535 JUMPI PUSH1 0x0 DUP1 REVERT JUMPDEST POP PUSH2 0x267 PUSH1 0xF SLOAD DUP2 JUMP JUMPDEST CALLVALUE DUP1 ISZERO PUSH2 0x54B JUMPI PUSH1 0x0 DUP1 REVERT JUMPDEST POP PUSH2 0x554 PUSH2 0xF78 JUMP JUMPDEST PUSH1 0x40 DUP1 MLOAD PUSH4 0xFFFFFFFF SWAP8 DUP9 AND DUP2 MSTORE SWAP6 DUP8 AND PUSH1 0x20 DUP8 ADD MSTORE SWAP4 DUP7 AND SWAP4 DUP6 ADD SWAP4 SWAP1 SWAP4 MSTORE SWAP1 DUP5 AND PUSH1 0x60 DUP5 ADD MSTORE DUP4 AND PUSH1 0x80 DUP4 ADD MSTORE SWAP1 SWAP2 AND PUSH1 0xA0 DUP3 ADD MSTORE PUSH1 0xC0 ADD PUSH2 0x271 JUMP JUMPDEST CALLVALUE DUP1 ISZERO PUSH2 0x59F JUMPI PUSH1 0x0 DUP1 REVERT JUMPDEST POP PUSH2 0x2F6 PUSH2 0x5AE CALLDATASIZE PUSH1 0x4 PUSH2 0x32C8 JUMP JUMPDEST PUSH1 0x1 PUSH1 0x1 PUSH1 0xA0 SHL SUB AND PUSH1 0x0 SWAP1 DUP2 MSTORE PUSH1 0xA PUSH1 0x20 MSTORE PUSH1 0x40 SWAP1 KECCAK256 SLOAD PUSH1 0xFF AND SWAP1 JUMP JUMPDEST CALLVALUE DUP1 ISZERO PUSH2 0x5D8 JUMPI PUSH1 0x0 DUP1 REVERT JUMPDEST POP PUSH1 0x0 SLOAD PUSH1 0x1 PUSH1 0x1 PUSH1 0xA0 SHL SUB AND PUSH2 0x457 JUMP JUMPDEST CALLVALUE DUP1 ISZERO PUSH2 0x5F6 JUMPI PUSH1 0x0 DUP1 REVERT JUMPDEST POP PUSH1 0x40 DUP1 MLOAD DUP1 DUP3 ADD SWAP1 SWAP2 MSTORE PUSH1 0x5 DUP2 MSTORE PUSH5 0x544553543 PUSH1 0xDC SHL PUSH1 0x20 DUP3 ADD MSTORE PUSH2 0x2C9 JUMP JUMPDEST CALLVALUE DUP1 ISZERO PUSH2 0x624 JUMPI PUSH1 0x0 DUP1 REVERT JUMPDEST POP PUSH2 0x29A PUSH2 0x633 CALLDATASIZE PUSH1 0x4 PUSH2 0x3419 JUMP JUMPDEST PUSH2 0x10C9 JUMP JUMPDEST CALLVALUE DUP1 ISZERO PUSH2 0x644 JUMPI PUSH1 0x0 DUP1 REVERT JUMPDEST POP PUSH2 0x29A PUSH2 0x653 CALLDATASIZE PUSH1 0x4 PUSH2 0x33DD JUMP JUMPDEST PUSH2 0x15D9 JUMP JUMPDEST CALLVALUE DUP1 ISZERO PUSH2 0x664 JUMPI PUSH1 0x0 DUP1 REVERT JUMPDEST POP PUSH2 0x2F6 PUSH2 0x673 CALLDATASIZE PUSH1 0x4 PUSH2 0x33B1 JUMP JUMPDEST PUSH2 0x1608 JUMP JUMPDEST CALLVALUE DUP1 ISZERO PUSH2 0x684 JUMPI PUSH1 0x0 DUP1 REVERT JUMPDEST POP PUSH2 0x2F6 PUSH2 0x693 CALLDATASIZE PUSH1 0x4 PUSH2 0x33B1 JUMP JUMPDEST PUSH2 0x16A1 JUMP JUMPDEST CALLVALUE DUP1 ISZERO PUSH2 0x6A4 JUMPI PUSH1 0x0 DUP1 REVERT JUMPDEST POP PUSH2 0x29A PUSH2 0x6B3 CALLDATASIZE PUSH1 0x4 PUSH2 0x337C JUMP JUMPDEST PUSH2 0x16AE JUMP JUMPDEST CALLVALUE DUP1 ISZERO PUSH2 0x6C4 JUMPI PUSH1 0x0 DUP1 REVERT JUMPDEST POP PUSH2 0x29A PUSH2 0x6D3 CALLDATASIZE PUSH1 0x4 PUSH2 0x33DD JUMP JUMPDEST PUSH2 0x172E JUMP JUMPDEST CALLVALUE DUP1 ISZERO PUSH2 0x6E4 JUMPI PUSH1 0x0 DUP1 REVERT JUMPDEST POP PUSH2 0x267 PUSH2 0x6F3 CALLDATASIZE PUSH1 0x4 PUSH2 0x3302 JUMP JUMPDEST PUSH1 0x1 PUSH1 0x1 PUSH1 0xA0 SHL SUB SWAP2 DUP3 AND PUSH1 0x0 SWAP1 DUP2 MSTORE PUSH1 0x9 PUSH1 0x20 SWAP1 DUP2 MSTORE PUSH1 0x40 DUP1 DUP4 KECCAK256 SWAP4 SWAP1 SWAP5 AND DUP3 MSTORE SWAP2 SWAP1 SWAP2 MSTORE KECCAK256 SLOAD SWAP1 JUMP JUMPDEST CALLVALUE DUP1 ISZERO PUSH2 0x72A JUMPI PUSH1 0x0 DUP1 REVERT JUMPDEST POP PUSH2 0x29A PUSH2 0x739 CALLDATASIZE PUSH1 0x4 PUSH2 0x337C JUMP JUMPDEST PUSH2 0x17E7 JUMP JUMPDEST CALLVALUE DUP1 ISZERO PUSH2 0x74A JUMPI PUSH1 0x0 DUP1 REVERT JUMPDEST POP PUSH2 0x2F6 PUSH2 0x759 CALLDATASIZE PUSH1 0x4 PUSH2 0x32C8 JUMP JUMPDEST PUSH1 0x1 PUSH1 0x1 PUSH1 0xA0 SHL SUB AND PUSH1 0x0 SWAP1 DUP2 MSTORE PUSH1 0xD PUSH1 0x20 MSTORE PUSH1 0x40 SWAP1 KECCAK256 SLOAD PUSH1 0xFF AND SWAP1 JUMP JUMPDEST CALLVALUE DUP1 ISZERO PUSH2 0x783 JUMPI PUSH1 0x0 DUP1 REVERT JUMPDEST POP PUSH2 0x29A PUSH2 0x792 CALLDATASIZE PUSH1 0x4 PUSH2 0x32C8 JUMP JUMPDEST PUSH2 0x183C JUMP JUMPDEST CALLVALUE DUP1 ISZERO PUSH2 0x7A3 JUMPI PUSH1 0x0 DUP1 REVERT JUMPDEST POP PUSH2 0x29A PUSH2 0x7B2 CALLDATASIZE PUSH1 0x4 PUSH2 0x33DD JUMP JUMPDEST PUSH2 0x1887 JUMP JUMPDEST CALLVALUE DUP1 ISZERO PUSH2 0x7C3 JUMPI PUSH1 0x0 DUP1 REVERT JUMPDEST POP PUSH2 0x29A PUSH2 0x7D2 CALLDATASIZE PUSH1 0x4 PUSH2 0x32C8 JUMP JUMPDEST PUSH2 0x1947 JUMP JUMPDEST CALLVALUE DUP1 ISZERO PUSH2 0x7E3 JUMPI PUSH1 0x0 DUP1 REVERT JUMPDEST POP PUSH2 0x554 PUSH2 0x19E2 JUMP JUMPDEST CALLVALUE DUP1 ISZERO PUSH2 0x7F8 JUMPI PUSH1 0x0 DUP1 REVERT JUMPDEST POP PUSH2 0x2F6 PUSH2 0x807 CALLDATASIZE PUSH1 0x4 PUSH2 0x32C8 JUMP JUMPDEST PUSH1 0x1 PUSH1 0x1 PUSH1 0xA0 SHL SUB AND PUSH1 0x0 SWAP1 DUP2 MSTORE PUSH1 0xE PUSH1 0x20 MSTORE PUSH1 0x40 SWAP1 KECCAK256 SLOAD PUSH1 0xFF AND SWAP1 JUMP JUMPDEST CALLER PUSH1 0x0 DUP2 DUP2 MSTORE PUSH1 0xA PUSH1 0x20 MSTORE PUSH1 0x40 SWAP1 KECCAK256 SLOAD PUSH1 0xFF AND ISZERO PUSH2 0x89F JUMPI PUSH1 0x40 MLOAD PUSH3 0x461BCD PUSH1 0xE5 SHL DUP2 MSTORE PUSH1 0x20 PUSH1 0x4 DUP3 ADD MSTORE PUSH1 0x2C PUSH1 0x24 DUP3 ADD MSTORE PUSH32 0x4578636C75646564206164647265737365732063616E6E6F742063616C6C2074 PUSH1 0x44 DUP3 ADD MSTORE PUSH12 0x3434B990333AB731BA34B7B7 PUSH1 0xA1 SHL PUSH1 0x64 DUP3 ADD MSTORE PUSH1 0x84 ADD JUMPDEST PUSH1 0x40 MLOAD DUP1 SWAP2 SUB SWAP1 REVERT JUMPDEST PUSH1 0x0 PUSH2 0x8AA DUP4 PUSH2 0x1B00 JUMP JUMPDEST POP POP POP PUSH1 0x1 PUSH1 0x1 PUSH1 0xA0 SHL SUB DUP5 AND PUSH1 0x0 SWAP1 DUP2 MSTORE PUSH1 0x7 PUSH1 0x20 MSTORE PUSH1 0x40 SWAP1 KECCAK256 SLOAD SWAP2 SWAP3 POP PUSH2 0x8D5 SWAP2 DUP4 SWAP2 POP PUSH2 0x3650 JUMP JUMPDEST PUSH1 0x1 PUSH1 0x1 PUSH1 0xA0 SHL SUB DUP4 AND PUSH1 0x0 SWAP1 DUP2 MSTORE PUSH1 0x7 PUSH1 0x20 MSTORE PUSH1 0x40 SWAP1 KECCAK256 SSTORE PUSH1 0x13 SLOAD PUSH2 0x8FC SWAP1 DUP3 SWAP1 PUSH2 0x3650 JUMP JUMPDEST PUSH1 0x13 SSTORE PUSH1 0x14 SLOAD PUSH2 0x90D SWAP1 DUP5 SWAP1 PUSH2 0x35CF JUMP JUMPDEST PUSH1 0x14 SSTORE POP POP POP JUMP JUMPDEST PUSH1 0x0 PUSH2 0x922 CALLER DUP5 DUP5 PUSH2 0x1B4B JUMP JUMPDEST POP PUSH1 0x1 JUMPDEST SWAP3 SWAP2 POP POP JUMP JUMPDEST PUSH1 0x0 PUSH2 0x944 PUSH8 0x16345785D8A0000 PUSH4 0x3B9ACA00 PUSH2 0x3631 JUMP JUMPDEST SWAP1 POP SWAP1 JUMP JUMPDEST PUSH1 0x0 SLOAD PUSH1 0x1 PUSH1 0x1 PUSH1 0xA0 SHL SUB AND CALLER EQ PUSH2 0x973 JUMPI PUSH1 0x40 MLOAD PUSH3 0x461BCD PUSH1 0xE5 SHL DUP2 MSTORE PUSH1 0x4 ADD PUSH2 0x896 SWAP1 PUSH2 0x3529 JUMP JUMPDEST PUSH1 0x11 DUP1 SLOAD PUSH1 0xFF NOT AND SWAP1 SSTORE TIMESTAMP PUSH1 0x12 SSTORE JUMP JUMPDEST PUSH1 0x0 PUSH2 0x990 DUP5 DUP5 DUP5 PUSH2 0x1C6F JUMP JUMPDEST PUSH1 0x1 PUSH1 0x1 PUSH1 0xA0 SHL SUB DUP5 AND PUSH1 0x0 SWAP1 DUP2 MSTORE PUSH1 0x9 PUSH1 0x20 SWAP1 DUP2 MSTORE PUSH1 0x40 DUP1 DUP4 KECCAK256 CALLER DUP5 MSTORE SWAP1 SWAP2 MSTORE SWAP1 KECCAK256 SLOAD DUP3 DUP2 LT ISZERO PUSH2 0xA15 JUMPI PUSH1 0x40 MLOAD PUSH3 0x461BCD PUSH1 0xE5 SHL DUP2 MSTORE PUSH1 0x20 PUSH1 0x4 DUP3 ADD MSTORE PUSH1 0x28 PUSH1 0x24 DUP3 ADD MSTORE PUSH32 0x45524332303A207472616E7366657220616D6F756E7420657863656564732061 PUSH1 0x44 DUP3 ADD MSTORE PUSH8 0x6C6C6F77616E6365 PUSH1 0xC0 SHL PUSH1 0x64 DUP3 ADD MSTORE PUSH1 0x84 ADD PUSH2 0x896 JUMP JUMPDEST PUSH2 0xA22 DUP6 CALLER DUP6 DUP5 SUB PUSH2 0x1B4B JUMP JUMPDEST POP PUSH1 0x1 SWAP5 SWAP4 POP POP POP POP JUMP JUMPDEST PUSH1 0x0 PUSH1 0x13 SLOAD DUP3 GT ISZERO PUSH2 0xA94 JUMPI PUSH1 0x40 MLOAD PUSH3 0x461BCD PUSH1 0xE5 SHL DUP2 MSTORE PUSH1 0x20 PUSH1 0x4 DUP3 ADD MSTORE PUSH1 0x2A PUSH1 0x24 DUP3 ADD MSTORE PUSH32 0x416D6F756E74206D757374206265206C657373207468616E20746F74616C2072 PUSH1 0x44 DUP3 ADD MSTORE PUSH10 0x65666C656374696F6E73 PUSH1 0xB0 SHL PUSH1 0x64 DUP3 ADD MSTORE PUSH1 0x84 ADD PUSH2 0x896 JUMP JUMPDEST PUSH1 0x0 PUSH2 0xA9E PUSH2 0x2A2A JUMP JUMPDEST SWAP1 POP PUSH2 0xAAA DUP2 DUP5 PUSH2 0x360F JUMP JUMPDEST SWAP4 SWAP3 POP POP POP JUMP JUMPDEST PUSH1 0x0 SLOAD PUSH1 0x1 PUSH1 0x1 PUSH1 0xA0 SHL SUB AND CALLER EQ PUSH2 0xADB JUMPI PUSH1 0x40 MLOAD PUSH3 0x461BCD PUSH1 0xE5 SHL DUP2 MSTORE PUSH1 0x4 ADD PUSH2 0x896 SWAP1 PUSH2 0x3529 JUMP JUMPDEST PUSH1 0x1 PUSH1 0x1 PUSH1 0xA0 SHL SUB DUP2 AND PUSH1 0x0 SWAP1 DUP2 MSTORE PUSH1 0xA PUSH1 0x20 MSTORE PUSH1 0x40 SWAP1 KECCAK256 SLOAD PUSH1 0xFF AND PUSH2 0xB43 JUMPI PUSH1 0x40 MLOAD PUSH3 0x461BCD PUSH1 0xE5 SHL DUP2 MSTORE PUSH1 0x20 PUSH1 0x4 DUP3 ADD MSTORE PUSH1 0x1B PUSH1 0x24 DUP3 ADD MSTORE PUSH32 0x4163636F756E7420697320616C7265616479206578636C756465640000000000 PUSH1 0x44 DUP3 ADD MSTORE PUSH1 0x64 ADD PUSH2 0x896 JUMP JUMPDEST PUSH1 0x0 JUMPDEST PUSH1 0xB SLOAD DUP2 LT ISZERO PUSH2 0xC64 JUMPI DUP2 PUSH1 0x1 PUSH1 0x1 PUSH1 0xA0 SHL SUB AND PUSH1 0xB DUP3 DUP2 SLOAD DUP2 LT PUSH2 0xB6D JUMPI PUSH2 0xB6D PUSH2 0x36AE JUMP JUMPDEST PUSH1 0x0 SWAP2 DUP3 MSTORE PUSH1 0x20 SWAP1 SWAP2 KECCAK256 ADD SLOAD PUSH1 0x1 PUSH1 0x1 PUSH1 0xA0 SHL SUB AND EQ ISZERO PUSH2 0xC52 JUMPI PUSH1 0xB DUP1 SLOAD PUSH2 0xB98 SWAP1 PUSH1 0x1 SWAP1 PUSH2 0x3650 JUMP JUMPDEST DUP2 SLOAD DUP2 LT PUSH2 0xBA8 JUMPI PUSH2 0xBA8 PUSH2 0x36AE JUMP JUMPDEST PUSH1 0x0 SWAP2 DUP3 MSTORE PUSH1 0x20 SWAP1 SWAP2 KECCAK256 ADD SLOAD PUSH1 0xB DUP1 SLOAD PUSH1 0x1 PUSH1 0x1 PUSH1 0xA0 SHL SUB SWAP1 SWAP3 AND SWAP2 DUP4 SWAP1 DUP2 LT PUSH2 0xBD4 JUMPI PUSH2 0xBD4 PUSH2 0x36AE JUMP JUMPDEST PUSH1 0x0 SWAP2 DUP3 MSTORE PUSH1 0x20 DUP1 DUP4 KECCAK256 SWAP2 SWAP1 SWAP2 ADD DUP1 SLOAD PUSH1 0x1 PUSH1 0x1 PUSH1 0xA0 SHL SUB NOT AND PUSH1 0x1 PUSH1 0x1 PUSH1 0xA0 SHL SUB SWAP5 DUP6 AND OR SWAP1 SSTORE SWAP2 DUP5 AND DUP2 MSTORE PUSH1 0x8 DUP3 MSTORE PUSH1 0x40 DUP1 DUP3 KECCAK256 DUP3 SWAP1 SSTORE PUSH1 0xA SWAP1 SWAP3 MSTORE KECCAK256 DUP1 SLOAD PUSH1 0xFF NOT AND SWAP1 SSTORE PUSH1 0xB DUP1 SLOAD DUP1 PUSH2 0xC2C JUMPI PUSH2 0xC2C PUSH2 0x3698 JUMP JUMPDEST PUSH1 0x0 DUP3 DUP2 MSTORE PUSH1 0x20 SWAP1 KECCAK256 DUP2 ADD PUSH1 0x0 NOT SWAP1 DUP2 ADD DUP1 SLOAD PUSH1 0x1 PUSH1 0x1 PUSH1 0xA0 SHL SUB NOT AND SWAP1 SSTORE ADD SWAP1 SSTORE POP POP JUMP JUMPDEST DUP1 PUSH2 0xC5C DUP2 PUSH2 0x3667 JUMP JUMPDEST SWAP2 POP POP PUSH2 0xB46 JUMP JUMPDEST POP POP JUMP JUMPDEST CALLER PUSH1 0x0 DUP2 DUP2 MSTORE PUSH1 0x9 PUSH1 0x20 SWAP1 DUP2 MSTORE PUSH1 0x40 DUP1 DUP4 KECCAK256 PUSH1 0x1 PUSH1 0x1 PUSH1 0xA0 SHL SUB DUP8 AND DUP5 MSTORE SWAP1 SWAP2 MSTORE DUP2 KECCAK256 SLOAD SWAP1 SWAP2 PUSH2 0x922 SWAP2 DUP6 SWAP1 PUSH2 0xC9F SWAP1 DUP7 SWAP1 PUSH2 0x35CF JUMP JUMPDEST PUSH2 0x1B4B JUMP JUMPDEST PUSH1 0x0 SLOAD PUSH1 0x1 PUSH1 0x1 PUSH1 0xA0 SHL SUB AND CALLER EQ PUSH2 0xCCE JUMPI PUSH1 0x40 MLOAD PUSH3 0x461BCD PUSH1 0xE5 SHL DUP2 MSTORE PUSH1 0x4 ADD PUSH2 0x896 SWAP1 PUSH2 0x3529 JUMP JUMPDEST PUSH1 0x1 PUSH1 0x1 PUSH1 0xA0 SHL SUB AND PUSH1 0x0 SWAP1 DUP2 MSTORE PUSH1 0xC PUSH1 0x20 MSTORE PUSH1 0x40 SWAP1 KECCAK256 DUP1 SLOAD PUSH1 0xFF NOT AND PUSH1 0x1 OR SWAP1 SSTORE JUMP JUMPDEST PUSH1 0x0 PUSH2 0xD0A PUSH8 0x16345785D8A0000 PUSH4 0x3B9ACA00 PUSH2 0x3631 JUMP JUMPDEST DUP4 GT ISZERO PUSH2 0xD59 JUMPI PUSH1 0x40 MLOAD PUSH3 0x461BCD PUSH1 0xE5 SHL DUP2 MSTORE PUSH1 0x20 PUSH1 0x4 DUP3 ADD MSTORE PUSH1 0x1F PUSH1 0x24 DUP3 ADD MSTORE PUSH32 0x416D6F756E74206D757374206265206C657373207468616E20737570706C7900 PUSH1 0x44 DUP3 ADD MSTORE PUSH1 0x64 ADD PUSH2 0x896 JUMP JUMPDEST DUP2 PUSH2 0xD77 JUMPI PUSH1 0x0 PUSH2 0xD69 DUP5 PUSH2 0x1B00 JUMP JUMPDEST POP SWAP3 SWAP5 POP PUSH2 0x926 SWAP4 POP POP POP POP JUMP JUMPDEST PUSH1 0x0 PUSH2 0xD82 DUP5 PUSH2 0x1B00 JUMP JUMPDEST POP SWAP2 SWAP5 POP PUSH2 0x926 SWAP4 POP POP POP POP JUMP JUMPDEST PUSH1 0x0 SLOAD PUSH1 0x1 PUSH1 0x1 PUSH1 0xA0 SHL SUB AND CALLER EQ PUSH2 0xDBA JUMPI PUSH1 0x40 MLOAD PUSH3 0x461BCD PUSH1 0xE5 SHL DUP2 MSTORE PUSH1 0x4 ADD PUSH2 0x896 SWAP1 PUSH2 0x3529 JUMP JUMPDEST PUSH1 0x1 PUSH1 0x1 PUSH1 0xA0 SHL SUB DUP2 AND PUSH1 0x0 SWAP1 DUP2 MSTORE PUSH1 0xA PUSH1 0x20 MSTORE PUSH1 0x40 SWAP1 KECCAK256 SLOAD PUSH1 0xFF AND ISZERO PUSH2 0xE23 JUMPI PUSH1 0x40 MLOAD PUSH3 0x461BCD PUSH1 0xE5 SHL DUP2 MSTORE PUSH1 0x20 PUSH1 0x4 DUP3 ADD MSTORE PUSH1 0x1B PUSH1 0x24 DUP3 ADD MSTORE PUSH32 0x4163636F756E7420697320616C7265616479206578636C756465640000000000 PUSH1 0x44 DUP3 ADD MSTORE PUSH1 0x64 ADD PUSH2 0x896 JUMP JUMPDEST PUSH1 0x1 PUSH1 0x1 PUSH1 0xA0 SHL SUB DUP2 AND PUSH1 0x0 SWAP1 DUP2 MSTORE PUSH1 0x7 PUSH1 0x20 MSTORE PUSH1 0x40 SWAP1 KECCAK256 SLOAD ISZERO PUSH2 0xE7D JUMPI PUSH1 0x1 PUSH1 0x1 PUSH1 0xA0 SHL SUB DUP2 AND PUSH1 0x0 SWAP1 DUP2 MSTORE PUSH1 0x7 PUSH1 0x20 MSTORE PUSH1 0x40 SWAP1 KECCAK256 SLOAD PUSH2 0xE63 SWAP1 PUSH2 0xA2D JUMP JUMPDEST PUSH1 0x1 PUSH1 0x1 PUSH1 0xA0 SHL SUB DUP3 AND PUSH1 0x0 SWAP1 DUP2 MSTORE PUSH1 0x8 PUSH1 0x20 MSTORE PUSH1 0x40 SWAP1 KECCAK256 SSTORE JUMPDEST PUSH1 0x1 PUSH1 0x1 PUSH1 0xA0 SHL SUB AND PUSH1 0x0 DUP2 DUP2 MSTORE PUSH1 0xA PUSH1 0x20 MSTORE PUSH1 0x40 DUP2 KECCAK256 DUP1 SLOAD PUSH1 0xFF NOT AND PUSH1 0x1 SWAP1 DUP2 OR SWAP1 SWAP2 SSTORE PUSH1 0xB DUP1 SLOAD SWAP2 DUP3 ADD DUP2 SSTORE SWAP1 SWAP2 MSTORE PUSH32 0x175B7A638427703F0DBE7BB9BBF987A2551717B34E79F33B5B1008D1FA01DB9 ADD DUP1 SLOAD PUSH1 0x1 PUSH1 0x1 PUSH1 0xA0 SHL SUB NOT AND SWAP1 SWAP2 OR SWAP1 SSTORE JUMP JUMPDEST PUSH1 0x1 PUSH1 0x1 PUSH1 0xA0 SHL SUB DUP2 AND PUSH1 0x0 SWAP1 DUP2 MSTORE PUSH1 0xA PUSH1 0x20 MSTORE PUSH1 0x40 DUP2 KECCAK256 SLOAD PUSH1 0xFF AND ISZERO PUSH2 0xF20 JUMPI POP PUSH1 0x1 PUSH1 0x1 PUSH1 0xA0 SHL SUB AND PUSH1 0x0 SWAP1 DUP2 MSTORE PUSH1 0x8 PUSH1 0x20 MSTORE PUSH1 0x40 SWAP1 KECCAK256 SLOAD SWAP1 JUMP JUMPDEST PUSH1 0x1 PUSH1 0x1 PUSH1 0xA0 SHL SUB DUP3 AND PUSH1 0x0 SWAP1 DUP2 MSTORE PUSH1 0x7 PUSH1 0x20 MSTORE PUSH1 0x40 SWAP1 KECCAK256 SLOAD PUSH2 0x926 SWAP1 PUSH2 0xA2D JUMP JUMPDEST PUSH1 0x0 SLOAD PUSH1 0x1 PUSH1 0x1 PUSH1 0xA0 SHL SUB AND CALLER EQ PUSH2 0xF6C JUMPI PUSH1 0x40 MLOAD PUSH3 0x461BCD PUSH1 0xE5 SHL DUP2 MSTORE PUSH1 0x4 ADD PUSH2 0x896 SWAP1 PUSH2 0x3529 JUMP JUMPDEST PUSH2 0xF76 PUSH1 0x0 PUSH2 0x2A4D JUMP JUMPDEST JUMP JUMPDEST PUSH1 0x0 DUP1 PUSH1 0x0 DUP1 PUSH1 0x0 DUP1 PUSH1 0x1 PUSH1 0x0 DUP2 SLOAD DUP2 LT PUSH2 0xF95 JUMPI PUSH2 0xF95 PUSH2 0x36AE JUMP JUMPDEST PUSH1 0x0 SWAP2 DUP3 MSTORE PUSH1 0x20 DUP3 KECCAK256 PUSH1 0x4 SWAP1 SWAP2 MUL ADD SLOAD PUSH1 0x1 DUP1 SLOAD PUSH4 0xFFFFFFFF SWAP1 SWAP3 AND SWAP3 SWAP1 SWAP2 PUSH2 0xFC0 JUMPI PUSH2 0xFC0 PUSH2 0x36AE JUMP JUMPDEST SWAP1 PUSH1 0x0 MSTORE PUSH1 0x20 PUSH1 0x0 KECCAK256 SWAP1 PUSH1 0x4 MUL ADD PUSH1 0x0 ADD PUSH1 0x4 SWAP1 SLOAD SWAP1 PUSH2 0x100 EXP SWAP1 DIV PUSH4 0xFFFFFFFF AND PUSH1 0x1 PUSH1 0x0 DUP2 SLOAD DUP2 LT PUSH2 0xFF6 JUMPI PUSH2 0xFF6 PUSH2 0x36AE JUMP JUMPDEST SWAP1 PUSH1 0x0 MSTORE PUSH1 0x20 PUSH1 0x0 KECCAK256 SWAP1 PUSH1 0x4 MUL ADD PUSH1 0x0 ADD PUSH1 0x8 SWAP1 SLOAD SWAP1 PUSH2 0x100 EXP SWAP1 DIV PUSH4 0xFFFFFFFF AND PUSH1 0x1 PUSH1 0x0 DUP2 SLOAD DUP2 LT PUSH2 0x102C JUMPI PUSH2 0x102C PUSH2 0x36AE JUMP JUMPDEST SWAP1 PUSH1 0x0 MSTORE PUSH1 0x20 PUSH1 0x0 KECCAK256 SWAP1 PUSH1 0x4 MUL ADD PUSH1 0x0 ADD PUSH1 0xC SWAP1 SLOAD SWAP1 PUSH2 0x100 EXP SWAP1 DIV PUSH4 0xFFFFFFFF AND PUSH1 0x1 PUSH1 0x0 DUP2 SLOAD DUP2 LT PUSH2 0x1062 JUMPI PUSH2 0x1062 PUSH2 0x36AE JUMP JUMPDEST SWAP1 PUSH1 0x0 MSTORE PUSH1 0x20 PUSH1 0x0 KECCAK256 SWAP1 PUSH1 0x4 MUL ADD PUSH1 0x0 ADD PUSH1 0x10 SWAP1 SLOAD SWAP1 PUSH2 0x100 EXP SWAP1 DIV PUSH4 0xFFFFFFFF AND PUSH1 0x1 PUSH1 0x0 DUP2 SLOAD DUP2 LT PUSH2 0x1098 JUMPI PUSH2 0x1098 PUSH2 0x36AE JUMP JUMPDEST PUSH1 0x0 SWAP2 DUP3 MSTORE PUSH1 0x20 SWAP1 SWAP2 KECCAK256 PUSH1 0x4 SWAP1 SWAP2 MUL ADD SLOAD SWAP5 SWAP12 SWAP4 SWAP11 POP SWAP2 SWAP9 POP SWAP7 POP SWAP5 POP PUSH1 0x1 PUSH1 0xA0 SHL SWAP1 SWAP2 DIV PUSH4 0xFFFFFFFF AND SWAP3 POP SWAP1 POP JUMP JUMPDEST PUSH1 0x0 SLOAD PUSH1 0x1 PUSH1 0x1 PUSH1 0xA0 SHL SUB AND CALLER EQ PUSH2 0x10F3 JUMPI PUSH1 0x40 MLOAD PUSH3 0x461BCD PUSH1 0xE5 SHL DUP2 MSTORE PUSH1 0x4 ADD PUSH2 0x896 SWAP1 PUSH2 0x3529 JUMP JUMPDEST PUSH1 0x1 PUSH1 0x1 PUSH1 0xA0 SHL SUB DUP4 AND ISZERO DUP1 ISZERO SWAP1 PUSH2 0x1113 JUMPI POP PUSH1 0x1 PUSH1 0x1 PUSH1 0xA0 SHL SUB DUP3 AND ISZERO ISZERO JUMPDEST DUP1 ISZERO PUSH2 0x1127 JUMPI POP PUSH1 0x1 PUSH1 0x1 PUSH1 0xA0 SHL SUB DUP2 AND ISZERO ISZERO JUMPDEST PUSH2 0x117F JUMPI PUSH1 0x40 MLOAD PUSH3 0x461BCD PUSH1 0xE5 SHL DUP2 MSTORE PUSH1 0x20 PUSH1 0x4 DUP3 ADD MSTORE PUSH1 0x23 PUSH1 0x24 DUP3 ADD MSTORE PUSH32 0x5461782057616C6C6574732061737369676E6564207A65726F20616464726573 PUSH1 0x44 DUP3 ADD MSTORE PUSH3 0x732021 PUSH1 0xE8 SHL PUSH1 0x64 DUP3 ADD MSTORE PUSH1 0x84 ADD PUSH2 0x896 JUMP JUMPDEST DUP4 DUP6 DUP8 PUSH2 0x118C DUP11 DUP13 PUSH2 0x35E7 JUMP JUMPDEST PUSH2 0x1196 SWAP2 SWAP1 PUSH2 0x35E7 JUMP JUMPDEST PUSH2 0x11A0 SWAP2 SWAP1 PUSH2 0x35E7 JUMP JUMPDEST PUSH2 0x11AA SWAP2 SWAP1 PUSH2 0x35E7 JUMP JUMPDEST PUSH4 0xFFFFFFFF AND PUSH1 0x64 EQ PUSH2 0x1211 JUMPI PUSH1 0x40 MLOAD PUSH3 0x461BCD PUSH1 0xE5 SHL DUP2 MSTORE PUSH1 0x20 PUSH1 0x4 DUP3 ADD MSTORE PUSH1 0x29 PUSH1 0x24 DUP3 ADD MSTORE PUSH32 0x53706C69742050657263656E746167657320646F6573206E6F742073756D2075 PUSH1 0x44 DUP3 ADD MSTORE PUSH9 0x70746F203130302021 PUSH1 0xB8 SHL PUSH1 0x64 DUP3 ADD MSTORE PUSH1 0x84 ADD PUSH2 0x896 JUMP JUMPDEST DUP9 PUSH1 0x1 DUP12 DUP2 SLOAD DUP2 LT PUSH2 0x1225 JUMPI PUSH2 0x1225 PUSH2 0x36AE JUMP JUMPDEST SWAP1 PUSH1 0x0 MSTORE PUSH1 0x20 PUSH1 0x0 KECCAK256 SWAP1 PUSH1 0x4 MUL ADD PUSH1 0x0 ADD PUSH1 0x0 PUSH2 0x100 EXP DUP2 SLOAD DUP2 PUSH4 0xFFFFFFFF MUL NOT AND SWAP1 DUP4 PUSH4 0xFFFFFFFF AND MUL OR SWAP1 SSTORE POP DUP8 PUSH1 0x1 DUP12 DUP2 SLOAD DUP2 LT PUSH2 0x1268 JUMPI PUSH2 0x1268 PUSH2 0x36AE JUMP JUMPDEST SWAP1 PUSH1 0x0 MSTORE PUSH1 0x20 PUSH1 0x0 KECCAK256 SWAP1 PUSH1 0x4 MUL ADD PUSH1 0x0 ADD PUSH1 0x4 PUSH2 0x100 EXP DUP2 SLOAD DUP2 PUSH4 0xFFFFFFFF MUL NOT AND SWAP1 DUP4 PUSH4 0xFFFFFFFF AND MUL OR SWAP1 SSTORE POP DUP7 PUSH1 0x1 DUP12 DUP2 SLOAD DUP2 LT PUSH2 0x12AB JUMPI PUSH2 0x12AB PUSH2 0x36AE JUMP JUMPDEST SWAP1 PUSH1 0x0 MSTORE PUSH1 0x20 PUSH1 0x0 KECCAK256 SWAP1 PUSH1 0x4 MUL ADD PUSH1 0x0 ADD PUSH1 0x8 PUSH2 0x100 EXP DUP2 SLOAD DUP2 PUSH4 0xFFFFFFFF MUL NOT AND SWAP1 DUP4 PUSH4 0xFFFFFFFF AND MUL OR SWAP1 SSTORE POP DUP6 PUSH1 0x1 DUP12 DUP2 SLOAD DUP2 LT PUSH2 0x12EE JUMPI PUSH2 0x12EE PUSH2 0x36AE JUMP JUMPDEST SWAP1 PUSH1 0x0 MSTORE PUSH1 0x20 PUSH1 0x0 KECCAK256 SWAP1 PUSH1 0x4 MUL ADD PUSH1 0x0 ADD PUSH1 0xC PUSH2 0x100 EXP DUP2 SLOAD DUP2 PUSH4 0xFFFFFFFF MUL NOT AND SWAP1 DUP4 PUSH4 0xFFFFFFFF AND MUL OR SWAP1 SSTORE POP DUP5 PUSH1 0x1 DUP12 DUP2 SLOAD DUP2 LT PUSH2 0x1331 JUMPI PUSH2 0x1331 PUSH2 0x36AE JUMP JUMPDEST SWAP1 PUSH1 0x0 MSTORE PUSH1 0x20 PUSH1 0x0 KECCAK256 SWAP1 PUSH1 0x4 MUL ADD PUSH1 0x0 ADD PUSH1 0x10 PUSH2 0x100 EXP DUP2 SLOAD DUP2 PUSH4 0xFFFFFFFF MUL NOT AND SWAP1 DUP4 PUSH4 0xFFFFFFFF AND MUL OR SWAP1 SSTORE POP DUP4 PUSH1 0x1 DUP12 DUP2 SLOAD DUP2 LT PUSH2 0x1374 JUMPI PUSH2 0x1374 PUSH2 0x36AE JUMP JUMPDEST SWAP1 PUSH1 0x0 MSTORE PUSH1 0x20 PUSH1 0x0 KECCAK256 SWAP1 PUSH1 0x4 MUL ADD PUSH1 0x0 ADD PUSH1 0x14 PUSH2 0x100 EXP DUP2 SLOAD DUP2 PUSH4 0xFFFFFFFF MUL NOT AND SWAP1 DUP4 PUSH4 0xFFFFFFFF AND MUL OR SWAP1 SSTORE POP DUP3 PUSH1 0x1 DUP12 DUP2 SLOAD DUP2 LT PUSH2 0x13B7 JUMPI PUSH2 0x13B7 PUSH2 0x36AE JUMP JUMPDEST SWAP1 PUSH1 0x0 MSTORE PUSH1 0x20 PUSH1 0x0 KECCAK256 SWAP1 PUSH1 0x4 MUL ADD PUSH1 0x1 ADD PUSH1 0x0 PUSH2 0x100 EXP DUP2 SLOAD DUP2 PUSH1 0x1 PUSH1 0x1 PUSH1 0xA0 SHL SUB MUL NOT AND SWAP1 DUP4 PUSH1 0x1 PUSH1 0x1 PUSH1 0xA0 SHL SUB AND MUL OR SWAP1 SSTORE POP DUP2 PUSH1 0x1 DUP12 DUP2 SLOAD DUP2 LT PUSH2 0x1400 JUMPI PUSH2 0x1400 PUSH2 0x36AE JUMP JUMPDEST SWAP1 PUSH1 0x0 MSTORE PUSH1 0x20 PUSH1 0x0 KECCAK256 SWAP1 PUSH1 0x4 MUL ADD PUSH1 0x2 ADD PUSH1 0x0 PUSH2 0x100 EXP DUP2 SLOAD DUP2 PUSH1 0x1 PUSH1 0x1 PUSH1 0xA0 SHL SUB MUL NOT AND SWAP1 DUP4 PUSH1 0x1 PUSH1 0x1 PUSH1 0xA0 SHL SUB AND MUL OR SWAP1 SSTORE POP DUP1 PUSH1 0x1 DUP12 DUP2 SLOAD DUP2 LT PUSH2 0x1449 JUMPI PUSH2 0x1449 PUSH2 0x36AE JUMP JUMPDEST SWAP1 PUSH1 0x0 MSTORE PUSH1 0x20 PUSH1 0x0 KECCAK256 SWAP1 PUSH1 0x4 MUL ADD PUSH1 0x3 ADD PUSH1 0x0 PUSH2 0x100 EXP DUP2 SLOAD DUP2 PUSH1 0x1 PUSH1 0x1 PUSH1 0xA0 SHL SUB MUL NOT AND SWAP1 DUP4 PUSH1 0x1 PUSH1 0x1 PUSH1 0xA0 SHL SUB AND MUL OR SWAP1 SSTORE POP DUP10 PUSH1 0x1 EQ ISZERO PUSH2 0x15CD JUMPI PUSH1 0x1 DUP11 DUP2 SLOAD DUP2 LT PUSH2 0x149A JUMPI PUSH2 0x149A PUSH2 0x36AE JUMP JUMPDEST PUSH1 0x0 SWAP2 DUP3 MSTORE PUSH1 0x20 SWAP1 SWAP2 KECCAK256 PUSH1 0x4 SWAP2 DUP3 MUL ADD DUP1 SLOAD PUSH1 0x2 DUP1 SLOAD PUSH4 0xFFFFFFFF NOT DUP2 AND PUSH4 0xFFFFFFFF SWAP4 DUP5 AND SWAP1 DUP2 OR DUP4 SSTORE DUP5 SLOAD PUSH5 0x100000000 SWAP1 DUP2 SWAP1 DIV DUP6 AND MUL PUSH8 0xFFFFFFFFFFFFFFFF NOT SWAP1 SWAP3 AND OR OR DUP1 DUP3 SSTORE DUP4 SLOAD PUSH1 0x1 PUSH1 0x40 SHL SWAP1 DUP2 SWAP1 DIV DUP5 AND MUL PUSH4 0xFFFFFFFF PUSH1 0x40 SHL NOT DUP3 AND DUP2 OR DUP4 SSTORE DUP5 SLOAD PUSH1 0x1 PUSH1 0x60 SHL SWAP1 DUP2 SWAP1 DIV DUP6 AND MUL PUSH4 0xFFFFFFFF PUSH1 0x60 SHL NOT SWAP1 SWAP2 AND PUSH8 0xFFFFFFFFFFFFFFFF PUSH1 0x40 SHL NOT SWAP1 SWAP3 AND SWAP2 SWAP1 SWAP2 OR OR DUP1 DUP3 SSTORE DUP4 SLOAD PUSH1 0x1 PUSH1 0x80 SHL SWAP1 DUP2 SWAP1 DIV DUP5 AND MUL PUSH4 0xFFFFFFFF PUSH1 0x80 SHL NOT DUP3 AND DUP2 OR DUP4 SSTORE DUP5 SLOAD PUSH1 0x1 PUSH1 0xA0 SHL SWAP1 DUP2 SWAP1 DIV SWAP1 SWAP5 AND SWAP1 SWAP4 MUL PUSH4 0xFFFFFFFF PUSH1 0xA0 SHL NOT SWAP1 SWAP4 AND PUSH8 0xFFFFFFFFFFFFFFFF PUSH1 0x80 SHL NOT SWAP1 SWAP2 AND OR SWAP2 SWAP1 SWAP2 OR DUP2 SSTORE PUSH1 0x1 DUP3 ADD SLOAD PUSH1 0x3 DUP1 SLOAD PUSH1 0x1 PUSH1 0x1 PUSH1 0xA0 SHL SUB NOT SWAP1 DUP2 AND PUSH1 0x1 PUSH1 0x1 PUSH1 0xA0 SHL SUB SWAP4 DUP5 AND OR DUP3 SSTORE SWAP3 DUP5 ADD SLOAD DUP6 SLOAD DUP5 AND SWAP1 DUP4 AND OR SWAP1 SWAP5 SSTORE SWAP3 SWAP1 SWAP2 ADD SLOAD PUSH1 0x5 DUP1 SLOAD SWAP1 SWAP3 AND SWAP3 AND SWAP2 SWAP1 SWAP2 OR SWAP1 SSTORE JUMPDEST POP POP POP POP POP POP POP POP POP POP JUMP JUMPDEST PUSH1 0x0 SLOAD PUSH1 0x1 PUSH1 0x1 PUSH1 0xA0 SHL SUB AND CALLER EQ PUSH2 0x1603 JUMPI PUSH1 0x40 MLOAD PUSH3 0x461BCD PUSH1 0xE5 SHL DUP2 MSTORE PUSH1 0x4 ADD PUSH2 0x896 SWAP1 PUSH2 0x3529 JUMP JUMPDEST PUSH1 0x6 SSTORE JUMP JUMPDEST CALLER PUSH1 0x0 SWAP1 DUP2 MSTORE PUSH1 0x9 PUSH1 0x20 SWAP1 DUP2 MSTORE PUSH1 0x40 DUP1 DUP4 KECCAK256 PUSH1 0x1 PUSH1 0x1 PUSH1 0xA0 SHL SUB DUP7 AND DUP5 MSTORE SWAP1 SWAP2 MSTORE DUP2 KECCAK256 SLOAD DUP3 DUP2 LT ISZERO PUSH2 0x168A JUMPI PUSH1 0x40 MLOAD PUSH3 0x461BCD PUSH1 0xE5 SHL DUP2 MSTORE PUSH1 0x20 PUSH1 0x4 DUP3 ADD MSTORE PUSH1 0x25 PUSH1 0x24 DUP3 ADD MSTORE PUSH32 0x45524332303A2064656372656173656420616C6C6F77616E63652062656C6F77 PUSH1 0x44 DUP3 ADD MSTORE PUSH5 0x207A65726F PUSH1 0xD8 SHL PUSH1 0x64 DUP3 ADD MSTORE PUSH1 0x84 ADD PUSH2 0x896 JUMP JUMPDEST PUSH2 0x1697 CALLER DUP6 DUP6 DUP5 SUB PUSH2 0x1B4B JUMP JUMPDEST POP PUSH1 0x1 SWAP4 SWAP3 POP POP POP JUMP JUMPDEST PUSH1 0x0 PUSH2 0x922 CALLER DUP5 DUP5 PUSH2 0x1C6F JUMP JUMPDEST PUSH1 0x0 SLOAD PUSH1 0x1 PUSH1 0x1 PUSH1 0xA0 SHL SUB AND CALLER EQ PUSH2 0x16D8 JUMPI PUSH1 0x40 MLOAD PUSH3 0x461BCD PUSH1 0xE5 SHL DUP2 MSTORE PUSH1 0x4 ADD PUSH2 0x896 SWAP1 PUSH2 0x3529 JUMP JUMPDEST PUSH1 0x1 PUSH1 0x1 PUSH1 0xA0 SHL SUB DUP3 AND PUSH1 0x0 SWAP1 DUP2 MSTORE PUSH1 0xD PUSH1 0x20 MSTORE PUSH1 0x40 SWAP1 KECCAK256 DUP1 SLOAD PUSH1 0xFF NOT AND DUP3 ISZERO DUP1 ISZERO SWAP2 SWAP1 SWAP2 OR SWAP1 SWAP2 SSTORE PUSH2 0x171B JUMPI PUSH1 0x18 DUP1 SLOAD PUSH1 0xFF NOT AND PUSH1 0x1 OR SWAP1 SSTORE PUSH2 0xC64 DUP3 PUSH2 0xD90 JUMP JUMPDEST PUSH1 0x18 DUP1 SLOAD PUSH1 0xFF NOT AND SWAP1 SSTORE PUSH2 0xC64 DUP3 PUSH2 0xAB1 JUMP JUMPDEST PUSH1 0x0 SLOAD PUSH1 0x1 PUSH1 0x1 PUSH1 0xA0 SHL SUB AND CALLER EQ PUSH2 0x1758 JUMPI PUSH1 0x40 MLOAD PUSH3 0x461BCD PUSH1 0xE5 SHL DUP2 MSTORE PUSH1 0x4 ADD PUSH2 0x896 SWAP1 PUSH2 0x3529 JUMP JUMPDEST PUSH2 0x3E8 PUSH2 0x1771 PUSH8 0x16345785D8A0000 PUSH4 0x3B9ACA00 PUSH2 0x3631 JUMP JUMPDEST PUSH2 0x177B SWAP2 SWAP1 PUSH2 0x360F JUMP JUMPDEST DUP2 LT ISZERO PUSH2 0x17E2 JUMPI PUSH1 0x40 MLOAD PUSH3 0x461BCD PUSH1 0xE5 SHL DUP2 MSTORE PUSH1 0x20 PUSH1 0x4 DUP3 ADD MSTORE PUSH1 0x2F PUSH1 0x24 DUP3 ADD MSTORE PUSH32 0x4D617820486F6C6420616D74206D7573742062652061626F766520302E312520 PUSH1 0x44 DUP3 ADD MSTORE PUSH15 0x6F6620746F74616C20737570706C79 PUSH1 0x88 SHL PUSH1 0x64 DUP3 ADD MSTORE PUSH1 0x84 ADD PUSH2 0x896 JUMP JUMPDEST PUSH1 0x10 SSTORE JUMP JUMPDEST PUSH1 0x0 SLOAD PUSH1 0x1 PUSH1 0x1 PUSH1 0xA0 SHL SUB AND CALLER EQ PUSH2 0x1811 JUMPI PUSH1 0x40 MLOAD PUSH3 0x461BCD PUSH1 0xE5 SHL DUP2 MSTORE PUSH1 0x4 ADD PUSH2 0x896 SWAP1 PUSH2 0x3529 JUMP JUMPDEST PUSH1 0x1 PUSH1 0x1 PUSH1 0xA0 SHL SUB SWAP2 SWAP1 SWAP2 AND PUSH1 0x0 SWAP1 DUP2 MSTORE PUSH1 0xE PUSH1 0x20 MSTORE PUSH1 0x40 SWAP1 KECCAK256 DUP1 SLOAD PUSH1 0xFF NOT AND SWAP2 ISZERO ISZERO SWAP2 SWAP1 SWAP2 OR SWAP1 SSTORE JUMP JUMPDEST PUSH1 0x0 SLOAD PUSH1 0x1 PUSH1 0x1 PUSH1 0xA0 SHL SUB AND CALLER EQ PUSH2 0x1866 JUMPI PUSH1 0x40 MLOAD PUSH3 0x461BCD PUSH1 0xE5 SHL DUP2 MSTORE PUSH1 0x4 ADD PUSH2 0x896 SWAP1 PUSH2 0x3529 JUMP JUMPDEST PUSH1 0x1 PUSH1 0x1 PUSH1 0xA0 SHL SUB AND PUSH1 0x0 SWAP1 DUP2 MSTORE PUSH1 0xC PUSH1 0x20 MSTORE PUSH1 0x40 SWAP1 KECCAK256 DUP1 SLOAD PUSH1 0xFF NOT AND SWAP1 SSTORE JUMP JUMPDEST PUSH1 0x0 SLOAD PUSH1 0x1 PUSH1 0x1 PUSH1 0xA0 SHL SUB AND CALLER EQ PUSH2 0x18B1 JUMPI PUSH1 0x40 MLOAD PUSH3 0x461BCD PUSH1 0xE5 SHL DUP2 MSTORE PUSH1 0x4 ADD PUSH2 0x896 SWAP1 PUSH2 0x3529 JUMP JUMPDEST PUSH2 0x3E8 PUSH2 0x18CA PUSH8 0x16345785D8A0000 PUSH4 0x3B9ACA00 PUSH2 0x3631 JUMP JUMPDEST PUSH2 0x18D4 SWAP2 SWAP1 PUSH2 0x360F JUMP JUMPDEST DUP2 LT ISZERO PUSH2 0x1942 JUMPI PUSH1 0x40 MLOAD PUSH3 0x461BCD PUSH1 0xE5 SHL DUP2 MSTORE PUSH1 0x20 PUSH1 0x4 DUP3 ADD MSTORE PUSH1 0x36 PUSH1 0x24 DUP3 ADD MSTORE PUSH32 0x4D6178205472616E73616374696F6E20616D74206D7573742062652061626F76 PUSH1 0x44 DUP3 ADD MSTORE PUSH22 0x6520302E3125206F6620746F74616C20737570706C79 PUSH1 0x50 SHL PUSH1 0x64 DUP3 ADD MSTORE PUSH1 0x84 ADD PUSH2 0x896 JUMP JUMPDEST PUSH1 0xF SSTORE JUMP JUMPDEST PUSH1 0x0 SLOAD PUSH1 0x1 PUSH1 0x1 PUSH1 0xA0 SHL SUB AND CALLER EQ PUSH2 0x1971 JUMPI PUSH1 0x40 MLOAD PUSH3 0x461BCD PUSH1 0xE5 SHL DUP2 MSTORE PUSH1 0x4 ADD PUSH2 0x896 SWAP1 PUSH2 0x3529 JUMP JUMPDEST PUSH1 0x1 PUSH1 0x1 PUSH1 0xA0 SHL SUB DUP2 AND PUSH2 0x19D6 JUMPI PUSH1 0x40 MLOAD PUSH3 0x461BCD PUSH1 0xE5 SHL DUP2 MSTORE PUSH1 0x20 PUSH1 0x4 DUP3 ADD MSTORE PUSH1 0x26 PUSH1 0x24 DUP3 ADD MSTORE PUSH32 0x4F776E61626C653A206E6577206F776E657220697320746865207A65726F2061 PUSH1 0x44 DUP3 ADD MSTORE PUSH6 0x646472657373 PUSH1 0xD0 SHL PUSH1 0x64 DUP3 ADD MSTORE PUSH1 0x84 ADD PUSH2 0x896 JUMP JUMPDEST PUSH2 0x19DF DUP2 PUSH2 0x2A4D JUMP JUMPDEST POP JUMP JUMPDEST PUSH1 0x0 DUP1 PUSH1 0x0 DUP1 PUSH1 0x0 DUP1 PUSH1 0x1 DUP1 DUP2 SLOAD DUP2 LT PUSH2 0x19FE JUMPI PUSH2 0x19FE PUSH2 0x36AE JUMP JUMPDEST PUSH1 0x0 SWAP2 DUP3 MSTORE PUSH1 0x20 SWAP1 SWAP2 KECCAK256 PUSH1 0x4 SWAP1 SWAP2 MUL ADD SLOAD PUSH1 0x1 DUP1 SLOAD PUSH4 0xFFFFFFFF SWAP1 SWAP3 AND SWAP2 DUP2 SWAP1 DUP2 LT PUSH2 0x1A2C JUMPI PUSH2 0x1A2C PUSH2 0x36AE JUMP JUMPDEST SWAP1 PUSH1 0x0 MSTORE PUSH1 0x20 PUSH1 0x0 KECCAK256 SWAP1 PUSH1 0x4 MUL ADD PUSH1 0x0 ADD PUSH1 0x4 SWAP1 SLOAD SWAP1 PUSH2 0x100 EXP SWAP1 DIV PUSH4 0xFFFFFFFF AND PUSH1 0x1 DUP1 DUP2 SLOAD DUP2 LT PUSH2 0x1A61 JUMPI PUSH2 0x1A61 PUSH2 0x36AE JUMP JUMPDEST SWAP1 PUSH1 0x0 MSTORE PUSH1 0x20 PUSH1 0x0 KECCAK256 SWAP1 PUSH1 0x4 MUL ADD PUSH1 0x0 ADD PUSH1 0x8 SWAP1 SLOAD SWAP1 PUSH2 0x100 EXP SWAP1 DIV PUSH4 0xFFFFFFFF AND PUSH1 0x1 DUP1 DUP2 SLOAD DUP2 LT PUSH2 0x1A96 JUMPI PUSH2 0x1A96 PUSH2 0x36AE JUMP JUMPDEST SWAP1 PUSH1 0x0 MSTORE PUSH1 0x20 PUSH1 0x0 KECCAK256 SWAP1 PUSH1 0x4 MUL ADD PUSH1 0x0 ADD PUSH1 0xC SWAP1 SLOAD SWAP1 PUSH2 0x100 EXP SWAP1 DIV PUSH4 0xFFFFFFFF AND PUSH1 0x1 DUP1 DUP2 SLOAD DUP2 LT PUSH2 0x1ACB JUMPI PUSH2 0x1ACB PUSH2 0x36AE JUMP JUMPDEST SWAP1 PUSH1 0x0 MSTORE PUSH1 0x20 PUSH1 0x0 KECCAK256 SWAP1 PUSH1 0x4 MUL ADD PUSH1 0x0 ADD PUSH1 0x10 SWAP1 SLOAD SWAP1 PUSH2 0x100 EXP SWAP1 DIV PUSH4 0xFFFFFFFF AND PUSH1 0x1 DUP1 DUP2 SLOAD DUP2 LT PUSH2 0x1098 JUMPI PUSH2 0x1098 PUSH2 0x36AE JUMP JUMPDEST PUSH1 0x0 DUP1 PUSH2 0x1B0B PUSH2 0x3270 JUMP JUMPDEST PUSH1 0x0 PUSH2 0x1B15 PUSH2 0x3270 JUMP JUMPDEST PUSH2 0x1B1E DUP7 PUSH2 0x2A9D JUMP JUMPDEST SWAP1 SWAP3 POP SWAP1 POP PUSH1 0x0 PUSH2 0x1B2D PUSH2 0x2A2A JUMP JUMPDEST SWAP1 POP PUSH2 0x1B3A DUP8 DUP4 DUP4 PUSH2 0x2C26 JUMP JUMPDEST SWAP2 SWAP8 POP SWAP6 POP SWAP4 POP POP SWAP2 SWAP4 SWAP6 SWAP1 SWAP3 SWAP5 POP JUMP JUMPDEST PUSH1 0x1 PUSH1 0x1 PUSH1 0xA0 SHL SUB DUP4 AND PUSH2 0x1BAD JUMPI PUSH1 0x40 MLOAD PUSH3 0x461BCD PUSH1 0xE5 SHL DUP2 MSTORE PUSH1 0x20 PUSH1 0x4 DUP3 ADD MSTORE PUSH1 0x24 DUP1 DUP3 ADD MSTORE PUSH32 0x45524332303A20617070726F76652066726F6D20746865207A65726F20616464 PUSH1 0x44 DUP3 ADD MSTORE PUSH4 0x72657373 PUSH1 0xE0 SHL PUSH1 0x64 DUP3 ADD MSTORE PUSH1 0x84 ADD PUSH2 0x896 JUMP JUMPDEST PUSH1 0x1 PUSH1 0x1 PUSH1 0xA0 SHL SUB DUP3 AND PUSH2 0x1C0E JUMPI PUSH1 0x40 MLOAD PUSH3 0x461BCD PUSH1 0xE5 SHL DUP2 MSTORE PUSH1 0x20 PUSH1 0x4 DUP3 ADD MSTORE PUSH1 0x22 PUSH1 0x24 DUP3 ADD MSTORE PUSH32 0x45524332303A20617070726F766520746F20746865207A65726F206164647265 PUSH1 0x44 DUP3 ADD MSTORE PUSH2 0x7373 PUSH1 0xF0 SHL PUSH1 0x64 DUP3 ADD MSTORE PUSH1 0x84 ADD PUSH2 0x896 JUMP JUMPDEST PUSH1 0x1 PUSH1 0x1 PUSH1 0xA0 SHL SUB DUP4 DUP2 AND PUSH1 0x0 DUP2 DUP2 MSTORE PUSH1 0x9 PUSH1 0x20 SWAP1 DUP2 MSTORE PUSH1 0x40 DUP1 DUP4 KECCAK256 SWAP5 DUP8 AND DUP1 DUP5 MSTORE SWAP5 DUP3 MSTORE SWAP2 DUP3 SWAP1 KECCAK256 DUP6 SWAP1 SSTORE SWAP1 MLOAD DUP5 DUP2 MSTORE PUSH32 0x8C5BE1E5EBEC7D5BD14F71427D1E84F3DD0314C0F7B2291E5B200AC8C7C3B925 SWAP2 ADD PUSH1 0x40 MLOAD DUP1 SWAP2 SUB SWAP1 LOG3 POP POP POP JUMP JUMPDEST PUSH1 0x1 PUSH1 0x1 PUSH1 0xA0 SHL SUB DUP4 AND PUSH2 0x1CD3 JUMPI PUSH1 0x40 MLOAD PUSH3 0x461BCD PUSH1 0xE5 SHL DUP2 MSTORE PUSH1 0x20 PUSH1 0x4 DUP3 ADD MSTORE PUSH1 0x25 PUSH1 0x24 DUP3 ADD MSTORE PUSH32 0x45524332303A207472616E736665722066726F6D20746865207A65726F206164 PUSH1 0x44 DUP3 ADD MSTORE PUSH5 0x6472657373 PUSH1 0xD8 SHL PUSH1 0x64 DUP3 ADD MSTORE PUSH1 0x84 ADD PUSH2 0x896 JUMP JUMPDEST PUSH1 0x1 PUSH1 0x1 PUSH1 0xA0 SHL SUB DUP3 AND PUSH2 0x1D35 JUMPI PUSH1 0x40 MLOAD PUSH3 0x461BCD PUSH1 0xE5 SHL DUP2 MSTORE PUSH1 0x20 PUSH1 0x4 DUP3 ADD MSTORE PUSH1 0x23 PUSH1 0x24 DUP3 ADD MSTORE PUSH32 0x45524332303A207472616E7366657220746F20746865207A65726F2061646472 PUSH1 0x44 DUP3 ADD MSTORE PUSH3 0x657373 PUSH1 0xE8 SHL PUSH1 0x64 DUP3 ADD MSTORE PUSH1 0x84 ADD PUSH2 0x896 JUMP JUMPDEST PUSH1 0x11 SLOAD PUSH1 0xFF AND ISZERO DUP1 PUSH2 0x1D4E JUMPI POP PUSH2 0x1D4C DUP4 DUP4 PUSH2 0x2D07 JUMP JUMPDEST ISZERO JUMPDEST PUSH2 0x1DAB JUMPI PUSH1 0x40 MLOAD PUSH3 0x461BCD PUSH1 0xE5 SHL DUP2 MSTORE PUSH1 0x20 PUSH1 0x4 DUP3 ADD MSTORE PUSH1 0x28 PUSH1 0x24 DUP3 ADD MSTORE PUSH32 0x546F6B656E206973204C6F636B656420666F72204C6971756964747920746F20 PUSH1 0x44 DUP3 ADD MSTORE PUSH8 0x1899481859191959 PUSH1 0xC2 SHL PUSH1 0x64 DUP3 ADD MSTORE PUSH1 0x84 ADD PUSH2 0x896 JUMP JUMPDEST PUSH1 0x18 SLOAD PUSH2 0x100 SWAP1 DIV PUSH1 0xFF AND ISZERO DUP1 ISZERO PUSH2 0x1DC8 JUMPI POP PUSH2 0x1DC8 DUP4 DUP4 PUSH2 0x2D07 JUMP JUMPDEST ISZERO PUSH2 0x1F26 JUMPI PUSH1 0xF SLOAD DUP2 GT ISZERO PUSH2 0x1E2F JUMPI PUSH1 0x40 MLOAD PUSH3 0x461BCD PUSH1 0xE5 SHL DUP2 MSTORE PUSH1 0x20 PUSH1 0x4 DUP3 ADD MSTORE PUSH1 0x27 PUSH1 0x24 DUP3 ADD MSTORE PUSH32 0x5472616E7366657220616D6F756E74206578636565647320746865206D617854 PUSH1 0x44 DUP3 ADD MSTORE PUSH7 0x1E105B5BDD5B9D PUSH1 0xCA SHL PUSH1 0x64 DUP3 ADD MSTORE PUSH1 0x84 ADD PUSH2 0x896 JUMP JUMPDEST PUSH1 0x1 PUSH1 0x1 PUSH1 0xA0 SHL SUB DUP4 AND PUSH1 0x0 SWAP1 DUP2 MSTORE PUSH1 0xE PUSH1 0x20 MSTORE PUSH1 0x40 SWAP1 KECCAK256 SLOAD PUSH1 0xFF AND ISZERO DUP1 PUSH2 0x1E70 JUMPI POP PUSH1 0x1 PUSH1 0x1 PUSH1 0xA0 SHL SUB DUP3 AND PUSH1 0x0 SWAP1 DUP2 MSTORE PUSH1 0xE PUSH1 0x20 MSTORE PUSH1 0x40 SWAP1 KECCAK256 SLOAD PUSH1 0xFF AND ISZERO JUMPDEST PUSH2 0x1EAE JUMPI PUSH1 0x40 MLOAD PUSH3 0x461BCD PUSH1 0xE5 SHL DUP2 MSTORE PUSH1 0x20 PUSH1 0x4 DUP3 ADD MSTORE PUSH1 0xF PUSH1 0x24 DUP3 ADD MSTORE PUSH15 0x14DB9A5C195C8814995A9958DD1959 PUSH1 0x8A SHL PUSH1 0x44 DUP3 ADD MSTORE PUSH1 0x64 ADD PUSH2 0x896 JUMP JUMPDEST PUSH1 0x10 SLOAD DUP2 PUSH2 0x1EBB DUP5 PUSH2 0xEE3 JUMP JUMPDEST PUSH2 0x1EC5 SWAP2 SWAP1 PUSH2 0x35CF JUMP JUMPDEST GT ISZERO PUSH2 0x1F26 JUMPI PUSH1 0x40 MLOAD PUSH3 0x461BCD PUSH1 0xE5 SHL DUP2 MSTORE PUSH1 0x20 PUSH1 0x4 DUP3 ADD MSTORE PUSH1 0x2A PUSH1 0x24 DUP3 ADD MSTORE PUSH32 0x52656365697665722061646472657373206578636565647320746865206D6178 PUSH1 0x44 DUP3 ADD MSTORE PUSH10 0x121BDB19105B5BDD5B9D PUSH1 0xB2 SHL PUSH1 0x64 DUP3 ADD MSTORE PUSH1 0x84 ADD PUSH2 0x896 JUMP JUMPDEST PUSH1 0x18 SLOAD PUSH2 0x100 SWAP1 DIV PUSH1 0xFF AND DUP1 PUSH2 0x1F54 JUMPI POP PUSH1 0x1 PUSH1 0x1 PUSH1 0xA0 SHL SUB DUP4 AND PUSH1 0x0 SWAP1 DUP2 MSTORE PUSH1 0xC PUSH1 0x20 MSTORE PUSH1 0x40 SWAP1 KECCAK256 SLOAD PUSH1 0xFF AND JUMPDEST DUP1 PUSH2 0x1F77 JUMPI POP PUSH1 0x1 PUSH1 0x1 PUSH1 0xA0 SHL SUB DUP3 AND PUSH1 0x0 SWAP1 DUP2 MSTORE PUSH1 0xC PUSH1 0x20 MSTORE PUSH1 0x40 SWAP1 KECCAK256 SLOAD PUSH1 0xFF AND JUMPDEST ISZERO PUSH2 0x20F9 JUMPI PUSH1 0x0 PUSH2 0x1F86 PUSH2 0x2A2A JUMP JUMPDEST PUSH2 0x1F90 SWAP1 DUP4 PUSH2 0x3631 JUMP JUMPDEST PUSH1 0x1 PUSH1 0x1 PUSH1 0xA0 SHL SUB DUP6 AND PUSH1 0x0 SWAP1 DUP2 MSTORE PUSH1 0x7 PUSH1 0x20 MSTORE PUSH1 0x40 SWAP1 KECCAK256 SLOAD SWAP1 SWAP2 POP PUSH2 0x1FB7 SWAP1 DUP3 SWAP1 PUSH2 0x3650 JUMP JUMPDEST PUSH1 0x1 PUSH1 0x1 PUSH1 0xA0 SHL SUB DUP1 DUP7 AND PUSH1 0x0 SWAP1 DUP2 MSTORE PUSH1 0x7 PUSH1 0x20 MSTORE PUSH1 0x40 DUP1 DUP3 KECCAK256 SWAP4 SWAP1 SWAP4 SSTORE SWAP1 DUP6 AND DUP2 MSTORE KECCAK256 SLOAD PUSH2 0x1FE7 SWAP1 DUP3 SWAP1 PUSH2 0x35CF JUMP JUMPDEST PUSH1 0x1 PUSH1 0x1 PUSH1 0xA0 SHL SUB DUP1 DUP6 AND PUSH1 0x0 SWAP1 DUP2 MSTORE PUSH1 0x7 PUSH1 0x20 SWAP1 DUP2 MSTORE PUSH1 0x40 DUP1 DUP4 KECCAK256 SWAP5 SWAP1 SWAP5 SSTORE SWAP2 DUP8 AND DUP2 MSTORE PUSH1 0xA SWAP1 SWAP2 MSTORE KECCAK256 SLOAD PUSH1 0xFF AND ISZERO PUSH2 0x2059 JUMPI PUSH1 0x1 PUSH1 0x1 PUSH1 0xA0 SHL SUB DUP5 AND PUSH1 0x0 SWAP1 DUP2 MSTORE PUSH1 0x8 PUSH1 0x20 MSTORE PUSH1 0x40 SWAP1 KECCAK256 SLOAD PUSH2 0x203F SWAP1 DUP4 SWAP1 PUSH2 0x3650 JUMP JUMPDEST PUSH1 0x1 PUSH1 0x1 PUSH1 0xA0 SHL SUB DUP6 AND PUSH1 0x0 SWAP1 DUP2 MSTORE PUSH1 0x8 PUSH1 0x20 MSTORE PUSH1 0x40 SWAP1 KECCAK256 SSTORE JUMPDEST PUSH1 0x1 PUSH1 0x1 PUSH1 0xA0 SHL SUB DUP4 AND PUSH1 0x0 SWAP1 DUP2 MSTORE PUSH1 0xA PUSH1 0x20 MSTORE PUSH1 0x40 SWAP1 KECCAK256 SLOAD PUSH1 0xFF AND ISZERO PUSH2 0x20B8 JUMPI PUSH1 0x1 PUSH1 0x1 PUSH1 0xA0 SHL SUB DUP4 AND PUSH1 0x0 SWAP1 DUP2 MSTORE PUSH1 0x8 PUSH1 0x20 MSTORE PUSH1 0x40 SWAP1 KECCAK256 SLOAD PUSH2 0x209E SWAP1 DUP4 SWAP1 PUSH2 0x35CF JUMP JUMPDEST PUSH1 0x1 PUSH1 0x1 PUSH1 0xA0 SHL SUB DUP5 AND PUSH1 0x0 SWAP1 DUP2 MSTORE PUSH1 0x8 PUSH1 0x20 MSTORE PUSH1 0x40 SWAP1 KECCAK256 SSTORE JUMPDEST DUP3 PUSH1 0x1 PUSH1 0x1 PUSH1 0xA0 SHL SUB AND DUP5 PUSH1 0x1 PUSH1 0x1 PUSH1 0xA0 SHL SUB AND PUSH1 0x0 DUP1 MLOAD PUSH1 0x20 PUSH2 0x36DA DUP4 CODECOPY DUP2 MLOAD SWAP2 MSTORE DUP5 PUSH1 0x40 MLOAD PUSH2 0x20EB SWAP2 DUP2 MSTORE PUSH1 0x20 ADD SWAP1 JUMP JUMPDEST PUSH1 0x40 MLOAD DUP1 SWAP2 SUB SWAP1 LOG3 POP POP POP POP JUMP JUMPDEST PUSH1 0x1 PUSH1 0x1 PUSH1 0xA0 SHL SUB DUP4 AND PUSH1 0x0 SWAP1 DUP2 MSTORE PUSH1 0xD PUSH1 0x20 MSTORE PUSH1 0x40 SWAP1 KECCAK256 SLOAD PUSH1 0xFF AND ISZERO PUSH2 0x2261 JUMPI PUSH1 0x1 PUSH1 0x0 DUP2 SLOAD DUP2 LT PUSH2 0x212E JUMPI PUSH2 0x212E PUSH2 0x36AE JUMP JUMPDEST PUSH1 0x0 SWAP2 DUP3 MSTORE PUSH1 0x20 SWAP1 SWAP2 KECCAK256 PUSH1 0x4 SWAP2 DUP3 MUL ADD DUP1 SLOAD PUSH1 0x2 DUP1 SLOAD PUSH4 0xFFFFFFFF NOT DUP2 AND PUSH4 0xFFFFFFFF SWAP4 DUP5 AND SWAP1 DUP2 OR DUP4 SSTORE DUP5 SLOAD PUSH5 0x100000000 SWAP1 DUP2 SWAP1 DIV DUP6 AND MUL PUSH8 0xFFFFFFFFFFFFFFFF NOT SWAP1 SWAP3 AND OR OR DUP1 DUP3 SSTORE DUP4 SLOAD PUSH1 0x1 PUSH1 0x40 SHL SWAP1 DUP2 SWAP1 DIV DUP5 AND MUL PUSH4 0xFFFFFFFF PUSH1 0x40 SHL NOT DUP3 AND DUP2 OR DUP4 SSTORE DUP5 SLOAD PUSH1 0x1 PUSH1 0x60 SHL SWAP1 DUP2 SWAP1 DIV DUP6 AND MUL PUSH4 0xFFFFFFFF PUSH1 0x60 SHL NOT SWAP1 SWAP2 AND PUSH8 0xFFFFFFFFFFFFFFFF PUSH1 0x40 SHL NOT SWAP1 SWAP3 AND SWAP2 SWAP1 SWAP2 OR OR DUP1 DUP3 SSTORE DUP4 SLOAD PUSH1 0x1 PUSH1 0x80 SHL SWAP1 DUP2 SWAP1 DIV DUP5 AND MUL PUSH4 0xFFFFFFFF PUSH1 0x80 SHL NOT DUP3 AND DUP2 OR DUP4 SSTORE DUP5 SLOAD PUSH1 0x1 PUSH1 0xA0 SHL SWAP1 DUP2 SWAP1 DIV SWAP1 SWAP5 AND SWAP1 SWAP4 MUL PUSH4 0xFFFFFFFF PUSH1 0xA0 SHL NOT SWAP1 SWAP4 AND PUSH8 0xFFFFFFFFFFFFFFFF PUSH1 0x80 SHL NOT SWAP1 SWAP2 AND OR SWAP2 SWAP1 SWAP2 OR DUP2 SSTORE PUSH1 0x1 DUP3 ADD SLOAD PUSH1 0x3 DUP1 SLOAD PUSH1 0x1 PUSH1 0x1 PUSH1 0xA0 SHL SUB NOT SWAP1 DUP2 AND PUSH1 0x1 PUSH1 0x1 PUSH1 0xA0 SHL SUB SWAP4 DUP5 AND OR DUP3 SSTORE SWAP3 DUP5 ADD SLOAD DUP6 SLOAD DUP5 AND SWAP1 DUP4 AND OR SWAP1 SWAP5 SSTORE SWAP3 SWAP1 SWAP2 ADD SLOAD PUSH1 0x5 DUP1 SLOAD SWAP1 SWAP3 AND SWAP3 AND SWAP2 SWAP1 SWAP2 OR SWAP1 SSTORE JUMPDEST PUSH1 0x2 SLOAD PUSH4 0xFFFFFFFF AND ISZERO PUSH2 0x2A24 JUMPI PUSH1 0x0 DUP1 PUSH1 0x0 DUP1 PUSH1 0x0 PUSH2 0x2280 DUP7 PUSH2 0x1B00 JUMP JUMPDEST PUSH1 0x1 PUSH1 0x1 PUSH1 0xA0 SHL SUB DUP14 AND PUSH1 0x0 SWAP1 DUP2 MSTORE PUSH1 0xD PUSH1 0x20 MSTORE PUSH1 0x40 SWAP1 KECCAK256 SLOAD SWAP5 SWAP10 POP SWAP3 SWAP8 POP SWAP1 SWAP6 POP SWAP4 POP SWAP2 POP PUSH1 0xFF AND ISZERO PUSH2 0x23F4 JUMPI PUSH1 0x1 DUP1 DUP2 SLOAD DUP2 LT PUSH2 0x22C1 JUMPI PUSH2 0x22C1 PUSH2 0x36AE JUMP JUMPDEST PUSH1 0x0 SWAP2 DUP3 MSTORE PUSH1 0x20 SWAP1 SWAP2 KECCAK256 PUSH1 0x4 SWAP2 DUP3 MUL ADD DUP1 SLOAD PUSH1 0x2 DUP1 SLOAD PUSH4 0xFFFFFFFF NOT DUP2 AND PUSH4 0xFFFFFFFF SWAP4 DUP5 AND SWAP1 DUP2 OR DUP4 SSTORE DUP5 SLOAD PUSH5 0x100000000 SWAP1 DUP2 SWAP1 DIV DUP6 AND MUL PUSH8 0xFFFFFFFFFFFFFFFF NOT SWAP1 SWAP3 AND OR OR DUP1 DUP3 SSTORE DUP4 SLOAD PUSH1 0x1 PUSH1 0x40 SHL SWAP1 DUP2 SWAP1 DIV DUP5 AND MUL PUSH4 0xFFFFFFFF PUSH1 0x40 SHL NOT DUP3 AND DUP2 OR DUP4 SSTORE DUP5 SLOAD PUSH1 0x1 PUSH1 0x60 SHL SWAP1 DUP2 SWAP1 DIV DUP6 AND MUL PUSH4 0xFFFFFFFF PUSH1 0x60 SHL NOT SWAP1 SWAP2 AND PUSH8 0xFFFFFFFFFFFFFFFF PUSH1 0x40 SHL NOT SWAP1 SWAP3 AND SWAP2 SWAP1 SWAP2 OR OR DUP1 DUP3 SSTORE DUP4 SLOAD PUSH1 0x1 PUSH1 0x80 SHL SWAP1 DUP2 SWAP1 DIV DUP5 AND MUL PUSH4 0xFFFFFFFF PUSH1 0x80 SHL NOT DUP3 AND DUP2 OR DUP4 SSTORE DUP5 SLOAD PUSH1 0x1 PUSH1 0xA0 SHL SWAP1 DUP2 SWAP1 DIV SWAP1 SWAP5 AND SWAP1 SWAP4 MUL PUSH4 0xFFFFFFFF PUSH1 0xA0 SHL NOT SWAP1 SWAP4 AND PUSH8 0xFFFFFFFFFFFFFFFF PUSH1 0x80 SHL NOT SWAP1 SWAP2 AND OR SWAP2 SWAP1 SWAP2 OR DUP2 SSTORE PUSH1 0x1 DUP3 ADD SLOAD PUSH1 0x3 DUP1 SLOAD PUSH1 0x1 PUSH1 0x1 PUSH1 0xA0 SHL SUB NOT SWAP1 DUP2 AND PUSH1 0x1 PUSH1 0x1 PUSH1 0xA0 SHL SUB SWAP4 DUP5 AND OR DUP3 SSTORE SWAP3 DUP5 ADD SLOAD DUP6 SLOAD DUP5 AND SWAP1 DUP4 AND OR SWAP1 SWAP5 SSTORE SWAP3 SWAP1 SWAP2 ADD SLOAD PUSH1 0x5 DUP1 SLOAD SWAP1 SWAP3 AND SWAP3 AND SWAP2 SWAP1 SWAP2 OR SWAP1 SSTORE JUMPDEST PUSH1 0x1 PUSH1 0x1 PUSH1 0xA0 SHL SUB DUP9 AND PUSH1 0x0 SWAP1 DUP2 MSTORE PUSH1 0x7 PUSH1 0x20 MSTORE PUSH1 0x40 SWAP1 KECCAK256 SLOAD PUSH2 0x2418 SWAP1 DUP7 SWAP1 PUSH2 0x3650 JUMP JUMPDEST PUSH1 0x1 PUSH1 0x1 PUSH1 0xA0 SHL SUB DUP1 DUP11 AND PUSH1 0x0 SWAP1 DUP2 MSTORE PUSH1 0x7 PUSH1 0x20 MSTORE PUSH1 0x40 DUP1 DUP3 KECCAK256 SWAP4 SWAP1 SWAP4 SSTORE SWAP1 DUP10 AND DUP2 MSTORE KECCAK256 SLOAD PUSH2 0x2448 SWAP1 DUP6 SWAP1 PUSH2 0x35CF JUMP JUMPDEST PUSH1 0x1 PUSH1 0x1 PUSH1 0xA0 SHL SUB DUP9 AND PUSH1 0x0 SWAP1 DUP2 MSTORE PUSH1 0x7 PUSH1 0x20 MSTORE PUSH1 0x40 DUP2 KECCAK256 SWAP2 SWAP1 SWAP2 SSTORE DUP4 MLOAD PUSH2 0xDEAD DUP3 MSTORE PUSH32 0xB0C2646E02AF70B79E3FE9277B98373379F54150E4E26B2B5650139F7A75A65D DUP1 SLOAD SWAP2 SWAP3 SWAP1 SWAP2 PUSH2 0x249D SWAP1 DUP5 SWAP1 PUSH2 0x35CF JUMP JUMPDEST SWAP1 SWAP2 SSTORE POP POP PUSH1 0x1 PUSH1 0x1 PUSH1 0xA0 SHL SUB DUP9 AND PUSH1 0x0 SWAP1 DUP2 MSTORE PUSH1 0xA PUSH1 0x20 MSTORE PUSH1 0x40 SWAP1 KECCAK256 SLOAD PUSH1 0xFF AND ISZERO PUSH2 0x2501 JUMPI PUSH1 0x1 PUSH1 0x1 PUSH1 0xA0 SHL SUB DUP9 AND PUSH1 0x0 SWAP1 DUP2 MSTORE PUSH1 0x8 PUSH1 0x20 MSTORE PUSH1 0x40 SWAP1 KECCAK256 SLOAD PUSH2 0x24E7 SWAP1 DUP8 SWAP1 PUSH2 0x3650 JUMP JUMPDEST PUSH1 0x1 PUSH1 0x1 PUSH1 0xA0 SHL SUB DUP10 AND PUSH1 0x0 SWAP1 DUP2 MSTORE PUSH1 0x8 PUSH1 0x20 MSTORE PUSH1 0x40 SWAP1 KECCAK256 SSTORE JUMPDEST PUSH1 0x1 PUSH1 0x1 PUSH1 0xA0 SHL SUB DUP8 AND PUSH1 0x0 SWAP1 DUP2 MSTORE PUSH1 0xA PUSH1 0x20 MSTORE PUSH1 0x40 SWAP1 KECCAK256 SLOAD PUSH1 0xFF AND ISZERO PUSH2 0x2560 JUMPI PUSH1 0x1 PUSH1 0x1 PUSH1 0xA0 SHL SUB DUP8 AND PUSH1 0x0 SWAP1 DUP2 MSTORE PUSH1 0x8 PUSH1 0x20 MSTORE PUSH1 0x40 SWAP1 KECCAK256 SLOAD PUSH2 0x2546 SWAP1 DUP4 SWAP1 PUSH2 0x35CF JUMP JUMPDEST PUSH1 0x1 PUSH1 0x1 PUSH1 0xA0 SHL SUB DUP9 AND PUSH1 0x0 SWAP1 DUP2 MSTORE PUSH1 0x8 PUSH1 0x20 MSTORE PUSH1 0x40 SWAP1 KECCAK256 SSTORE JUMPDEST PUSH2 0xDEAD PUSH1 0x0 MSTORE PUSH1 0xA PUSH1 0x20 MSTORE PUSH32 0x20677881080440A9B3C87E826370BB5D9C2F74EFD4DEDE686D52D77A6A09F8BB SLOAD PUSH1 0xFF AND ISZERO PUSH2 0x25DB JUMPI DUP1 MLOAD PUSH2 0xDEAD PUSH1 0x0 SWAP1 DUP2 MSTORE PUSH1 0x8 PUSH1 0x20 MSTORE PUSH32 0x46FEE3D77C34A6C5E10C3BE6DC4B132C30449DBF4F0BC07684896DD09334299 DUP1 SLOAD SWAP1 SWAP2 SWAP1 PUSH2 0x25D5 SWAP1 DUP5 SWAP1 PUSH2 0x35CF JUMP JUMPDEST SWAP1 SWAP2 SSTORE POP POP JUMPDEST PUSH1 0x18 SLOAD PUSH1 0xFF AND DUP1 ISZERO PUSH2 0x25F5 JUMPI POP PUSH1 0x18 SLOAD PUSH2 0x100 SWAP1 DIV PUSH1 0xFF AND ISZERO JUMPDEST ISZERO PUSH2 0x270D JUMPI DUP3 PUSH1 0x60 ADD MLOAD DUP4 PUSH1 0x40 ADD MLOAD DUP5 PUSH1 0x20 ADD MLOAD PUSH2 0x2613 SWAP2 SWAP1 PUSH2 0x35CF JUMP JUMPDEST PUSH2 0x261D SWAP2 SWAP1 PUSH2 0x35CF JUMP JUMPDEST ADDRESS PUSH1 0x0 SWAP1 DUP2 MSTORE PUSH1 0x7 PUSH1 0x20 MSTORE PUSH1 0x40 DUP2 KECCAK256 DUP1 SLOAD SWAP1 SWAP2 SWAP1 PUSH2 0x263C SWAP1 DUP5 SWAP1 PUSH2 0x35CF JUMP JUMPDEST SWAP1 SWAP2 SSTORE POP POP PUSH1 0x60 DUP2 ADD MLOAD PUSH1 0x40 DUP3 ADD MLOAD PUSH1 0x20 DUP4 ADD MLOAD PUSH2 0x265A SWAP2 SWAP1 PUSH2 0x35CF JUMP JUMPDEST PUSH2 0x2664 SWAP2 SWAP1 PUSH2 0x35CF JUMP JUMPDEST ADDRESS PUSH1 0x0 SWAP1 DUP2 MSTORE PUSH1 0x8 PUSH1 0x20 MSTORE PUSH1 0x40 DUP2 KECCAK256 DUP1 SLOAD SWAP1 SWAP2 SWAP1 PUSH2 0x2683 SWAP1 DUP5 SWAP1 PUSH2 0x35CF JUMP JUMPDEST SWAP1 SWAP2 SSTORE POP PUSH1 0x0 SWAP1 POP PUSH2 0x2694 ADDRESS PUSH2 0xEE3 JUMP JUMPDEST SWAP1 POP PUSH2 0x269F DUP2 PUSH2 0x2D51 JUMP JUMPDEST SELFBALANCE DUP1 ISZERO PUSH2 0x26AF JUMPI PUSH2 0x26AF DUP2 PUSH2 0x2EDF JUMP JUMPDEST ADDRESS PUSH1 0x1 PUSH1 0x1 PUSH1 0xA0 SHL SUB AND DUP11 PUSH1 0x1 PUSH1 0x1 PUSH1 0xA0 SHL SUB AND PUSH1 0x0 DUP1 MLOAD PUSH1 0x20 PUSH2 0x36DA DUP4 CODECOPY DUP2 MLOAD SWAP2 MSTORE DUP6 PUSH1 0x60 ADD MLOAD DUP7 PUSH1 0x40 ADD MLOAD DUP8 PUSH1 0x20 ADD MLOAD PUSH2 0x26EB SWAP2 SWAP1 PUSH2 0x35CF JUMP JUMPDEST PUSH2 0x26F5 SWAP2 SWAP1 PUSH2 0x35CF JUMP JUMPDEST PUSH1 0x40 MLOAD SWAP1 DUP2 MSTORE PUSH1 0x20 ADD PUSH1 0x40 MLOAD DUP1 SWAP2 SUB SWAP1 LOG3 POP POP PUSH2 0x295F JUMP JUMPDEST PUSH1 0x20 DUP1 DUP5 ADD MLOAD PUSH1 0x3 SLOAD PUSH1 0x1 PUSH1 0x1 PUSH1 0xA0 SHL SUB AND PUSH1 0x0 SWAP1 DUP2 MSTORE PUSH1 0x7 SWAP1 SWAP3 MSTORE PUSH1 0x40 DUP3 KECCAK256 DUP1 SLOAD SWAP2 SWAP3 SWAP1 SWAP2 PUSH2 0x273E SWAP1 DUP5 SWAP1 PUSH2 0x35CF JUMP JUMPDEST SWAP1 SWAP2 SSTORE POP POP PUSH1 0x40 DUP1 DUP5 ADD MLOAD PUSH1 0x4 SLOAD PUSH1 0x1 PUSH1 0x1 PUSH1 0xA0 SHL SUB AND PUSH1 0x0 SWAP1 DUP2 MSTORE PUSH1 0x7 PUSH1 0x20 MSTORE SWAP2 DUP3 KECCAK256 DUP1 SLOAD SWAP2 SWAP3 SWAP1 SWAP2 PUSH2 0x2773 SWAP1 DUP5 SWAP1 PUSH2 0x35CF JUMP JUMPDEST SWAP1 SWAP2 SSTORE POP POP PUSH1 0x60 DUP4 ADD MLOAD PUSH1 0x5 SLOAD PUSH1 0x1 PUSH1 0x1 PUSH1 0xA0 SHL SUB AND PUSH1 0x0 SWAP1 DUP2 MSTORE PUSH1 0x7 PUSH1 0x20 MSTORE PUSH1 0x40 DUP2 KECCAK256 DUP1 SLOAD SWAP1 SWAP2 SWAP1 PUSH2 0x27A7 SWAP1 DUP5 SWAP1 PUSH2 0x35CF JUMP JUMPDEST SWAP1 SWAP2 SSTORE POP POP PUSH1 0x3 SLOAD PUSH1 0x1 PUSH1 0x1 PUSH1 0xA0 SHL SUB AND PUSH1 0x0 SWAP1 DUP2 MSTORE PUSH1 0xA PUSH1 0x20 MSTORE PUSH1 0x40 SWAP1 KECCAK256 SLOAD PUSH1 0xFF AND ISZERO PUSH2 0x2806 JUMPI PUSH1 0x20 DUP1 DUP3 ADD MLOAD PUSH1 0x3 SLOAD PUSH1 0x1 PUSH1 0x1 PUSH1 0xA0 SHL SUB AND PUSH1 0x0 SWAP1 DUP2 MSTORE PUSH1 0x8 SWAP1 SWAP3 MSTORE PUSH1 0x40 DUP3 KECCAK256 DUP1 SLOAD SWAP2 SWAP3 SWAP1 SWAP2 PUSH2 0x2800 SWAP1 DUP5 SWAP1 PUSH2 0x35CF JUMP JUMPDEST SWAP1 SWAP2 SSTORE POP POP JUMPDEST PUSH1 0x4 SLOAD PUSH1 0x1 PUSH1 0x1 PUSH1 0xA0 SHL SUB AND PUSH1 0x0 SWAP1 DUP2 MSTORE PUSH1 0xA PUSH1 0x20 MSTORE PUSH1 0x40 SWAP1 KECCAK256 SLOAD PUSH1 0xFF AND ISZERO PUSH2 0x285F JUMPI PUSH1 0x40 DUP1 DUP3 ADD MLOAD PUSH1 0x4 SLOAD PUSH1 0x1 PUSH1 0x1 PUSH1 0xA0 SHL SUB AND PUSH1 0x0 SWAP1 DUP2 MSTORE PUSH1 0x8 PUSH1 0x20 MSTORE SWAP2 DUP3 KECCAK256 DUP1 SLOAD SWAP2 SWAP3 SWAP1 SWAP2 PUSH2 0x2859 SWAP1 DUP5 SWAP1 PUSH2 0x35CF JUMP JUMPDEST SWAP1 SWAP2 SSTORE POP POP JUMPDEST PUSH1 0x5 SLOAD PUSH1 0x1 PUSH1 0x1 PUSH1 0xA0 SHL SUB AND PUSH1 0x0 SWAP1 DUP2 MSTORE PUSH1 0xA PUSH1 0x20 MSTORE PUSH1 0x40 SWAP1 KECCAK256 SLOAD PUSH1 0xFF AND ISZERO PUSH2 0x28B7 JUMPI PUSH1 0x60 DUP2 ADD MLOAD PUSH1 0x5 SLOAD PUSH1 0x1 PUSH1 0x1 PUSH1 0xA0 SHL SUB AND PUSH1 0x0 SWAP1 DUP2 MSTORE PUSH1 0x8 PUSH1 0x20 MSTORE PUSH1 0x40 DUP2 KECCAK256 DUP1 SLOAD SWAP1 SWAP2 SWAP1 PUSH2 0x28B1 SWAP1 DUP5 SWAP1 PUSH2 0x35CF JUMP JUMPDEST SWAP1 SWAP2 SSTORE POP POP JUMPDEST PUSH1 0x3 SLOAD PUSH1 0x20 DUP3 DUP2 ADD MLOAD PUSH1 0x40 MLOAD SWAP1 DUP2 MSTORE PUSH1 0x1 PUSH1 0x1 PUSH1 0xA0 SHL SUB SWAP3 DUP4 AND SWAP3 DUP12 AND SWAP2 PUSH1 0x0 DUP1 MLOAD PUSH1 0x20 PUSH2 0x36DA DUP4 CODECOPY DUP2 MLOAD SWAP2 MSTORE SWAP2 ADD PUSH1 0x40 MLOAD DUP1 SWAP2 SUB SWAP1 LOG3 PUSH1 0x4 SLOAD PUSH1 0x40 DUP3 DUP2 ADD MLOAD SWAP1 MLOAD SWAP1 DUP2 MSTORE PUSH1 0x1 PUSH1 0x1 PUSH1 0xA0 SHL SUB SWAP2 DUP3 AND SWAP2 DUP11 AND SWAP1 PUSH1 0x0 DUP1 MLOAD PUSH1 0x20 PUSH2 0x36DA DUP4 CODECOPY DUP2 MLOAD SWAP2 MSTORE SWAP1 PUSH1 0x20 ADD PUSH1 0x40 MLOAD DUP1 SWAP2 SUB SWAP1 LOG3 PUSH1 0x5 SLOAD PUSH1 0x60 DUP3 ADD MLOAD PUSH1 0x40 MLOAD SWAP1 DUP2 MSTORE PUSH1 0x1 PUSH1 0x1 PUSH1 0xA0 SHL SUB SWAP2 DUP3 AND SWAP2 DUP11 AND SWAP1 PUSH1 0x0 DUP1 MLOAD PUSH1 0x20 PUSH2 0x36DA DUP4 CODECOPY DUP2 MLOAD SWAP2 MSTORE SWAP1 PUSH1 0x20 ADD PUSH1 0x40 MLOAD DUP1 SWAP2 SUB SWAP1 LOG3 JUMPDEST PUSH2 0x29AD DUP4 PUSH1 0x80 ADD MLOAD DUP3 PUSH1 0x80 ADD MLOAD DUP4 PUSH1 0x60 ADD MLOAD DUP5 PUSH1 0x40 ADD MLOAD DUP6 PUSH1 0x20 ADD MLOAD DUP7 PUSH1 0x0 ADD MLOAD PUSH2 0x298A SWAP2 SWAP1 PUSH2 0x35CF JUMP JUMPDEST PUSH2 0x2994 SWAP2 SWAP1 PUSH2 0x35CF JUMP JUMPDEST PUSH2 0x299E SWAP2 SWAP1 PUSH2 0x35CF JUMP JUMPDEST PUSH2 0x29A8 SWAP2 SWAP1 PUSH2 0x35CF JUMP JUMPDEST PUSH2 0x3077 JUMP JUMPDEST DUP1 MLOAD PUSH1 0x40 MLOAD SWAP1 DUP2 MSTORE PUSH2 0xDEAD SWAP1 PUSH1 0x1 PUSH1 0x1 PUSH1 0xA0 SHL SUB DUP11 AND SWAP1 PUSH1 0x0 DUP1 MLOAD PUSH1 0x20 PUSH2 0x36DA DUP4 CODECOPY DUP2 MLOAD SWAP2 MSTORE SWAP1 PUSH1 0x20 ADD PUSH1 0x40 MLOAD DUP1 SWAP2 SUB SWAP1 LOG3 DUP7 PUSH1 0x1 PUSH1 0x1 PUSH1 0xA0 SHL SUB AND DUP9 PUSH1 0x1 PUSH1 0x1 PUSH1 0xA0 SHL SUB AND PUSH1 0x0 DUP1 MLOAD PUSH1 0x20 PUSH2 0x36DA DUP4 CODECOPY DUP2 MLOAD SWAP2 MSTORE DUP5 PUSH1 0x40 MLOAD PUSH2 0x2A12 SWAP2 DUP2 MSTORE PUSH1 0x20 ADD SWAP1 JUMP JUMPDEST PUSH1 0x40 MLOAD DUP1 SWAP2 SUB SWAP1 LOG3 POP POP POP POP POP POP POP POP JUMP JUMPDEST PUSH1 0x0 PUSH2 0x1F86 JUMPDEST PUSH1 0x0 DUP1 PUSH1 0x0 PUSH2 0x2A37 PUSH2 0x309D JUMP JUMPDEST SWAP1 SWAP3 POP SWAP1 POP PUSH2 0x2A46 DUP2 DUP4 PUSH2 0x360F JUMP JUMPDEST SWAP3 POP POP POP SWAP1 JUMP JUMPDEST PUSH1 0x0 DUP1 SLOAD PUSH1 0x1 PUSH1 0x1 PUSH1 0xA0 SHL SUB DUP4 DUP2 AND PUSH1 0x1 PUSH1 0x1 PUSH1 0xA0 SHL SUB NOT DUP4 AND DUP2 OR DUP5 SSTORE PUSH1 0x40 MLOAD SWAP2 SWAP1 SWAP3 AND SWAP3 DUP4 SWAP2 PUSH32 0x8BE0079C531659141344CD1FD0A4F28419497F9722A3DAAFE3B4186F6B6457E0 SWAP2 SWAP1 LOG3 POP POP JUMP JUMPDEST PUSH1 0x0 PUSH2 0x2AA7 PUSH2 0x3270 JUMP JUMPDEST PUSH2 0x2AAF PUSH2 0x3270 JUMP JUMPDEST PUSH1 0x2 SLOAD PUSH2 0x2710 SWAP1 PUSH4 0xFFFFFFFF PUSH5 0x100000000 DUP3 DIV DUP2 AND SWAP2 PUSH2 0x2AD1 SWAP2 AND DUP8 PUSH2 0x3631 JUMP JUMPDEST PUSH2 0x2ADB SWAP2 SWAP1 PUSH2 0x3631 JUMP JUMPDEST PUSH2 0x2AE5 SWAP2 SWAP1 PUSH2 0x360F JUMP JUMPDEST DUP2 MSTORE PUSH1 0x2 SLOAD PUSH2 0x2710 SWAP1 PUSH4 0xFFFFFFFF PUSH1 0x1 PUSH1 0x40 SHL DUP3 DIV DUP2 AND SWAP2 PUSH2 0x2B08 SWAP2 AND DUP8 PUSH2 0x3631 JUMP JUMPDEST PUSH2 0x2B12 SWAP2 SWAP1 PUSH2 0x3631 JUMP JUMPDEST PUSH2 0x2B1C SWAP2 SWAP1 PUSH2 0x360F JUMP JUMPDEST PUSH1 0x20 DUP3 ADD MSTORE PUSH1 0x2 SLOAD PUSH2 0x2710 SWAP1 PUSH4 0xFFFFFFFF PUSH1 0x1 PUSH1 0x60 SHL DUP3 DIV DUP2 AND SWAP2 PUSH2 0x2B42 SWAP2 AND DUP8 PUSH2 0x3631 JUMP JUMPDEST PUSH2 0x2B4C SWAP2 SWAP1 PUSH2 0x3631 JUMP JUMPDEST PUSH2 0x2B56 SWAP2 SWAP1 PUSH2 0x360F JUMP JUMPDEST PUSH1 0x40 DUP3 ADD MSTORE PUSH1 0x2 SLOAD PUSH2 0x2710 SWAP1 PUSH4 0xFFFFFFFF PUSH1 0x1 PUSH1 0x80 SHL DUP3 DIV DUP2 AND SWAP2 PUSH2 0x2B7C SWAP2 AND DUP8 PUSH2 0x3631 JUMP JUMPDEST PUSH2 0x2B86 SWAP2 SWAP1 PUSH2 0x3631 JUMP JUMPDEST PUSH2 0x2B90 SWAP2 SWAP1 PUSH2 0x360F JUMP JUMPDEST PUSH1 0x60 DUP3 ADD MSTORE PUSH1 0x2 SLOAD PUSH2 0x2710 SWAP1 PUSH4 0xFFFFFFFF PUSH1 0x1 PUSH1 0xA0 SHL DUP3 DIV DUP2 AND SWAP2 PUSH2 0x2BB6 SWAP2 AND DUP8 PUSH2 0x3631 JUMP JUMPDEST PUSH2 0x2BC0 SWAP2 SWAP1 PUSH2 0x3631 JUMP JUMPDEST PUSH2 0x2BCA SWAP2 SWAP1 PUSH2 0x360F JUMP JUMPDEST PUSH1 0x80 DUP3 ADD DUP2 SWAP1 MSTORE PUSH1 0x60 DUP3 ADD MLOAD PUSH1 0x40 DUP4 ADD MLOAD PUSH1 0x20 DUP5 ADD MLOAD DUP5 MLOAD PUSH1 0x0 SWAP5 SWAP4 SWAP3 SWAP2 SWAP1 PUSH2 0x2BF3 SWAP1 DUP11 PUSH2 0x3650 JUMP JUMPDEST PUSH2 0x2BFD SWAP2 SWAP1 PUSH2 0x3650 JUMP JUMPDEST PUSH2 0x2C07 SWAP2 SWAP1 PUSH2 0x3650 JUMP JUMPDEST PUSH2 0x2C11 SWAP2 SWAP1 PUSH2 0x3650 JUMP JUMPDEST PUSH2 0x2C1B SWAP2 SWAP1 PUSH2 0x3650 JUMP JUMPDEST SWAP6 SWAP2 SWAP5 POP SWAP1 SWAP3 POP POP POP JUMP JUMPDEST PUSH1 0x0 DUP1 PUSH2 0x2C31 PUSH2 0x3270 JUMP JUMPDEST PUSH1 0x0 PUSH2 0x2C3D DUP6 DUP9 PUSH2 0x3631 JUMP JUMPDEST SWAP1 POP PUSH2 0x2C47 PUSH2 0x3270 JUMP JUMPDEST DUP7 MLOAD PUSH2 0x2C54 SWAP1 DUP8 SWAP1 PUSH2 0x3631 JUMP JUMPDEST DUP2 MSTORE PUSH1 0x20 DUP8 ADD MLOAD PUSH2 0x2C66 SWAP1 DUP8 SWAP1 PUSH2 0x3631 JUMP JUMPDEST PUSH1 0x20 DUP3 ADD MSTORE PUSH1 0x40 DUP8 ADD MLOAD PUSH2 0x2C7B SWAP1 DUP8 SWAP1 PUSH2 0x3631 JUMP JUMPDEST PUSH1 0x40 DUP3 ADD MSTORE PUSH1 0x60 DUP8 ADD MLOAD PUSH2 0x2C90 SWAP1 DUP8 SWAP1 PUSH2 0x3631 JUMP JUMPDEST PUSH1 0x60 DUP3 ADD MSTORE PUSH1 0x80 DUP8 ADD MLOAD PUSH2 0x2CA5 SWAP1 DUP8 SWAP1 PUSH2 0x3631 JUMP JUMPDEST PUSH1 0x80 DUP3 ADD DUP2 SWAP1 MSTORE PUSH1 0x60 DUP3 ADD MLOAD PUSH1 0x40 DUP4 ADD MLOAD PUSH1 0x20 DUP5 ADD MLOAD DUP5 MLOAD PUSH1 0x0 SWAP5 SWAP4 SWAP3 SWAP2 SWAP1 PUSH2 0x2CCE SWAP1 DUP9 PUSH2 0x3650 JUMP JUMPDEST PUSH2 0x2CD8 SWAP2 SWAP1 PUSH2 0x3650 JUMP JUMPDEST PUSH2 0x2CE2 SWAP2 SWAP1 PUSH2 0x3650 JUMP JUMPDEST PUSH2 0x2CEC SWAP2 SWAP1 PUSH2 0x3650 JUMP JUMPDEST PUSH2 0x2CF6 SWAP2 SWAP1 PUSH2 0x3650 JUMP JUMPDEST SWAP3 SWAP10 SWAP3 SWAP9 POP SWAP1 SWAP7 POP SWAP1 SWAP5 POP POP POP POP POP JUMP JUMPDEST PUSH1 0x0 DUP1 SLOAD PUSH1 0x1 PUSH1 0x1 PUSH1 0xA0 SHL SUB DUP5 DUP2 AND SWAP2 AND EQ DUP1 ISZERO SWAP1 PUSH2 0x2D34 JUMPI POP PUSH1 0x0 SLOAD PUSH1 0x1 PUSH1 0x1 PUSH1 0xA0 SHL SUB DUP4 DUP2 AND SWAP2 AND EQ ISZERO JUMPDEST DUP1 ISZERO PUSH2 0xAAA JUMPI POP PUSH1 0x1 PUSH1 0x1 PUSH1 0xA0 SHL SUB DUP3 AND PUSH2 0xDEAD EQ ISZERO SWAP4 SWAP3 POP POP POP JUMP JUMPDEST PUSH1 0x18 DUP1 SLOAD PUSH2 0xFF00 NOT AND PUSH2 0x100 OR SWAP1 SSTORE PUSH1 0x6 SLOAD DUP2 GT ISZERO PUSH2 0x2ED1 JUMPI PUSH1 0x40 DUP1 MLOAD PUSH1 0x2 DUP1 DUP3 MSTORE PUSH1 0x60 DUP3 ADD DUP4 MSTORE PUSH1 0x0 SWAP3 PUSH1 0x20 DUP4 ADD SWAP1 DUP1 CALLDATASIZE DUP4 CALLDATACOPY ADD SWAP1 POP POP SWAP1 POP ADDRESS DUP2 PUSH1 0x0 DUP2 MLOAD DUP2 LT PUSH2 0x2D9F JUMPI PUSH2 0x2D9F PUSH2 0x36AE JUMP JUMPDEST PUSH1 0x1 PUSH1 0x1 PUSH1 0xA0 SHL SUB SWAP3 DUP4 AND PUSH1 0x20 SWAP2 DUP3 MUL SWAP3 SWAP1 SWAP3 ADD DUP2 ADD SWAP2 SWAP1 SWAP2 MSTORE PUSH1 0x15 SLOAD PUSH1 0x40 DUP1 MLOAD PUSH4 0x15AB88C9 PUSH1 0xE3 SHL DUP2 MSTORE SWAP1 MLOAD SWAP2 SWAP1 SWAP4 AND SWAP3 PUSH4 0xAD5C4648 SWAP3 PUSH1 0x4 DUP1 DUP4 ADD SWAP4 SWAP2 SWAP3 DUP3 SWAP1 SUB ADD DUP2 DUP7 DUP1 EXTCODESIZE ISZERO DUP1 ISZERO PUSH2 0x2DF3 JUMPI PUSH1 0x0 DUP1 REVERT JUMPDEST POP GAS STATICCALL ISZERO DUP1 ISZERO PUSH2 0x2E07 JUMPI RETURNDATASIZE PUSH1 0x0 DUP1 RETURNDATACOPY RETURNDATASIZE PUSH1 0x0 REVERT JUMPDEST POP POP POP POP PUSH1 0x40 MLOAD RETURNDATASIZE PUSH1 0x1F NOT PUSH1 0x1F DUP3 ADD AND DUP3 ADD DUP1 PUSH1 0x40 MSTORE POP DUP2 ADD SWAP1 PUSH2 0x2E2B SWAP2 SWAP1 PUSH2 0x32E5 JUMP JUMPDEST DUP2 PUSH1 0x1 DUP2 MLOAD DUP2 LT PUSH2 0x2E3E JUMPI PUSH2 0x2E3E PUSH2 0x36AE JUMP JUMPDEST PUSH1 0x1 PUSH1 0x1 PUSH1 0xA0 SHL SUB SWAP3 DUP4 AND PUSH1 0x20 SWAP2 DUP3 MUL SWAP3 SWAP1 SWAP3 ADD ADD MSTORE PUSH1 0x15 SLOAD PUSH2 0x2E64 SWAP2 ADDRESS SWAP2 AND DUP5 PUSH2 0x1B4B JUMP JUMPDEST PUSH1 0x15 SLOAD PUSH1 0x40 MLOAD PUSH4 0x791AC947 PUSH1 0xE0 SHL DUP2 MSTORE PUSH1 0x1 PUSH1 0x1 PUSH1 0xA0 SHL SUB SWAP1 SWAP2 AND SWAP1 PUSH4 0x791AC947 SWAP1 PUSH2 0x2E9D SWAP1 DUP6 SWAP1 PUSH1 0x0 SWAP1 DUP7 SWAP1 ADDRESS SWAP1 TIMESTAMP SWAP1 PUSH1 0x4 ADD PUSH2 0x355E JUMP JUMPDEST PUSH1 0x0 PUSH1 0x40 MLOAD DUP1 DUP4 SUB DUP2 PUSH1 0x0 DUP8 DUP1 EXTCODESIZE ISZERO DUP1 ISZERO PUSH2 0x2EB7 JUMPI PUSH1 0x0 DUP1 REVERT JUMPDEST POP GAS CALL ISZERO DUP1 ISZERO PUSH2 0x2ECB JUMPI RETURNDATASIZE PUSH1 0x0 DUP1 RETURNDATACOPY RETURNDATASIZE PUSH1 0x0 REVERT JUMPDEST POP POP POP POP POP JUMPDEST POP PUSH1 0x18 DUP1 SLOAD PUSH2 0xFF00 NOT AND SWAP1 SSTORE JUMP JUMPDEST PUSH1 0x2 SLOAD PUSH1 0x0 SWAP1 PUSH4 0xFFFFFFFF PUSH1 0x1 PUSH1 0x80 SHL DUP3 DIV DUP2 AND SWAP2 PUSH2 0x2F0F SWAP2 PUSH1 0x1 PUSH1 0x60 SHL DUP3 DIV DUP2 AND SWAP2 PUSH1 0x1 PUSH1 0x40 SHL SWAP1 DIV AND PUSH2 0x35E7 JUMP JUMPDEST PUSH2 0x2F19 SWAP2 SWAP1 PUSH2 0x35E7 JUMP JUMPDEST PUSH1 0x2 SLOAD PUSH4 0xFFFFFFFF SWAP2 DUP3 AND SWAP2 PUSH2 0x2F37 SWAP2 PUSH1 0x1 PUSH1 0x40 SHL SWAP1 DIV AND DUP5 PUSH2 0x3631 JUMP JUMPDEST PUSH2 0x2F41 SWAP2 SWAP1 PUSH2 0x360F JUMP JUMPDEST PUSH1 0x2 SLOAD SWAP1 SWAP2 POP PUSH1 0x0 SWAP1 PUSH4 0xFFFFFFFF PUSH1 0x1 PUSH1 0x80 SHL DUP3 DIV DUP2 AND SWAP2 PUSH2 0x2F74 SWAP2 PUSH1 0x1 PUSH1 0x60 SHL DUP3 DIV DUP2 AND SWAP2 PUSH1 0x1 PUSH1 0x40 SHL SWAP1 DIV AND PUSH2 0x35E7 JUMP JUMPDEST PUSH2 0x2F7E SWAP2 SWAP1 PUSH2 0x35E7 JUMP JUMPDEST PUSH1 0x2 SLOAD PUSH4 0xFFFFFFFF SWAP2 DUP3 AND SWAP2 PUSH2 0x2F9C SWAP2 PUSH1 0x1 PUSH1 0x60 SHL SWAP1 DIV AND DUP6 PUSH2 0x3631 JUMP JUMPDEST PUSH2 0x2FA6 SWAP2 SWAP1 PUSH2 0x360F JUMP JUMPDEST SWAP1 POP PUSH1 0x0 DUP2 PUSH2 0x2FB5 DUP5 DUP7 PUSH2 0x3650 JUMP JUMPDEST PUSH2 0x2FBF SWAP2 SWAP1 PUSH2 0x3650 JUMP JUMPDEST PUSH1 0x3 SLOAD PUSH1 0x40 MLOAD SWAP2 SWAP3 POP PUSH1 0x1 PUSH1 0x1 PUSH1 0xA0 SHL SUB AND SWAP1 DUP5 ISZERO PUSH2 0x8FC MUL SWAP1 DUP6 SWAP1 PUSH1 0x0 DUP2 DUP2 DUP2 DUP6 DUP9 DUP9 CALL SWAP4 POP POP POP POP ISZERO DUP1 ISZERO PUSH2 0x2FFA JUMPI RETURNDATASIZE PUSH1 0x0 DUP1 RETURNDATACOPY RETURNDATASIZE PUSH1 0x0 REVERT JUMPDEST POP PUSH1 0x4 SLOAD PUSH1 0x40 MLOAD PUSH1 0x1 PUSH1 0x1 PUSH1 0xA0 SHL SUB SWAP1 SWAP2 AND SWAP1 DUP4 ISZERO PUSH2 0x8FC MUL SWAP1 DUP5 SWAP1 PUSH1 0x0 DUP2 DUP2 DUP2 DUP6 DUP9 DUP9 CALL SWAP4 POP POP POP POP ISZERO DUP1 ISZERO PUSH2 0x3035 JUMPI RETURNDATASIZE PUSH1 0x0 DUP1 RETURNDATACOPY RETURNDATASIZE PUSH1 0x0 REVERT JUMPDEST POP PUSH1 0x5 SLOAD PUSH1 0x40 MLOAD PUSH1 0x1 PUSH1 0x1 PUSH1 0xA0 SHL SUB SWAP1 SWAP2 AND SWAP1 DUP3 ISZERO PUSH2 0x8FC MUL SWAP1 DUP4 SWAP1 PUSH1 0x0 DUP2 DUP2 DUP2 DUP6 DUP9 DUP9 CALL SWAP4 POP POP POP POP ISZERO DUP1 ISZERO PUSH2 0x3070 JUMPI RETURNDATASIZE PUSH1 0x0 DUP1 RETURNDATACOPY RETURNDATASIZE PUSH1 0x0 REVERT JUMPDEST POP POP POP POP POP JUMP JUMPDEST DUP2 PUSH1 0x13 SLOAD PUSH2 0x3085 SWAP2 SWAP1 PUSH2 0x3650 JUMP JUMPDEST PUSH1 0x13 SSTORE PUSH1 0x14 SLOAD PUSH2 0x3096 SWAP1 DUP3 SWAP1 PUSH2 0x35CF JUMP JUMPDEST PUSH1 0x14 SSTORE POP POP JUMP JUMPDEST PUSH1 0x13 SLOAD PUSH1 0x0 SWAP1 DUP2 SWAP1 DUP2 PUSH2 0x30BC PUSH8 0x16345785D8A0000 PUSH4 0x3B9ACA00 PUSH2 0x3631 JUMP JUMPDEST SWAP1 POP PUSH1 0x0 JUMPDEST PUSH1 0xB SLOAD DUP2 LT ISZERO PUSH2 0x3219 JUMPI DUP3 PUSH1 0x7 PUSH1 0x0 PUSH1 0xB DUP5 DUP2 SLOAD DUP2 LT PUSH2 0x30E3 JUMPI PUSH2 0x30E3 PUSH2 0x36AE JUMP JUMPDEST PUSH1 0x0 SWAP2 DUP3 MSTORE PUSH1 0x20 DUP1 DUP4 KECCAK256 SWAP1 SWAP2 ADD SLOAD PUSH1 0x1 PUSH1 0x1 PUSH1 0xA0 SHL SUB AND DUP4 MSTORE DUP3 ADD SWAP3 SWAP1 SWAP3 MSTORE PUSH1 0x40 ADD SWAP1 KECCAK256 SLOAD GT DUP1 PUSH2 0x314E JUMPI POP DUP2 PUSH1 0x8 PUSH1 0x0 PUSH1 0xB DUP5 DUP2 SLOAD DUP2 LT PUSH2 0x3127 JUMPI PUSH2 0x3127 PUSH2 0x36AE JUMP JUMPDEST PUSH1 0x0 SWAP2 DUP3 MSTORE PUSH1 0x20 DUP1 DUP4 KECCAK256 SWAP1 SWAP2 ADD SLOAD PUSH1 0x1 PUSH1 0x1 PUSH1 0xA0 SHL SUB AND DUP4 MSTORE DUP3 ADD SWAP3 SWAP1 SWAP3 MSTORE PUSH1 0x40 ADD SWAP1 KECCAK256 SLOAD GT JUMPDEST ISZERO PUSH2 0x3177 JUMPI PUSH1 0x13 SLOAD PUSH2 0x316C PUSH8 0x16345785D8A0000 PUSH4 0x3B9ACA00 PUSH2 0x3631 JUMP JUMPDEST SWAP5 POP SWAP5 POP POP POP POP SWAP1 SWAP2 JUMP JUMPDEST PUSH1 0x7 PUSH1 0x0 PUSH1 0xB DUP4 DUP2 SLOAD DUP2 LT PUSH2 0x318E JUMPI PUSH2 0x318E PUSH2 0x36AE JUMP JUMPDEST PUSH1 0x0 SWAP2 DUP3 MSTORE PUSH1 0x20 DUP1 DUP4 KECCAK256 SWAP1 SWAP2 ADD SLOAD PUSH1 0x1 PUSH1 0x1 PUSH1 0xA0 SHL SUB AND DUP4 MSTORE DUP3 ADD SWAP3 SWAP1 SWAP3 MSTORE PUSH1 0x40 ADD SWAP1 KECCAK256 SLOAD PUSH2 0x31BD SWAP1 DUP5 PUSH2 0x3650 JUMP JUMPDEST SWAP3 POP PUSH1 0x8 PUSH1 0x0 PUSH1 0xB DUP4 DUP2 SLOAD DUP2 LT PUSH2 0x31D6 JUMPI PUSH2 0x31D6 PUSH2 0x36AE JUMP JUMPDEST PUSH1 0x0 SWAP2 DUP3 MSTORE PUSH1 0x20 DUP1 DUP4 KECCAK256 SWAP1 SWAP2 ADD SLOAD PUSH1 0x1 PUSH1 0x1 PUSH1 0xA0 SHL SUB AND DUP4 MSTORE DUP3 ADD SWAP3 SWAP1 SWAP3 MSTORE PUSH1 0x40 ADD SWAP1 KECCAK256 SLOAD PUSH2 0x3205 SWAP1 DUP4 PUSH2 0x3650 JUMP JUMPDEST SWAP2 POP DUP1 PUSH2 0x3211 DUP2 PUSH2 0x3667 JUMP JUMPDEST SWAP2 POP POP PUSH2 0x30C1 JUMP JUMPDEST POP PUSH2 0x3230 PUSH8 0x16345785D8A0000 PUSH4 0x3B9ACA00 PUSH2 0x3631 JUMP JUMPDEST PUSH1 0x13 SLOAD PUSH2 0x323D SWAP2 SWAP1 PUSH2 0x360F JUMP JUMPDEST DUP3 LT ISZERO PUSH2 0x3267 JUMPI PUSH1 0x13 SLOAD PUSH2 0x325D PUSH8 0x16345785D8A0000 PUSH4 0x3B9ACA00 PUSH2 0x3631 JUMP JUMPDEST SWAP4 POP SWAP4 POP POP POP SWAP1 SWAP2 JUMP JUMPDEST SWAP1 SWAP4 SWAP1 SWAP3 POP SWAP1 POP JUMP JUMPDEST PUSH1 0x40 MLOAD DUP1 PUSH1 0xA0 ADD PUSH1 0x40 MSTORE DUP1 PUSH1 0x0 DUP2 MSTORE PUSH1 0x20 ADD PUSH1 0x0 DUP2 MSTORE PUSH1 0x20 ADD PUSH1 0x0 DUP2 MSTORE PUSH1 0x20 ADD PUSH1 0x0 DUP2 MSTORE PUSH1 0x20 ADD PUSH1 0x0 DUP2 MSTORE POP SWAP1 JUMP JUMPDEST DUP1 CALLDATALOAD DUP1 ISZERO ISZERO DUP2 EQ PUSH2 0x32AF JUMPI PUSH1 0x0 DUP1 REVERT JUMPDEST SWAP2 SWAP1 POP JUMP JUMPDEST DUP1 CALLDATALOAD PUSH4 0xFFFFFFFF DUP2 AND DUP2 EQ PUSH2 0x32AF JUMPI PUSH1 0x0 DUP1 REVERT JUMPDEST PUSH1 0x0 PUSH1 0x20 DUP3 DUP5 SUB SLT ISZERO PUSH2 0x32DA JUMPI PUSH1 0x0 DUP1 REVERT JUMPDEST DUP2 CALLDATALOAD PUSH2 0xAAA DUP2 PUSH2 0x36C4 JUMP JUMPDEST PUSH1 0x0 PUSH1 0x20 DUP3 DUP5 SUB SLT ISZERO PUSH2 0x32F7 JUMPI PUSH1 0x0 DUP1 REVERT JUMPDEST DUP2 MLOAD PUSH2 0xAAA DUP2 PUSH2 0x36C4 JUMP JUMPDEST PUSH1 0x0 DUP1 PUSH1 0x40 DUP4 DUP6 SUB SLT ISZERO PUSH2 0x3315 JUMPI PUSH1 0x0 DUP1 REVERT JUMPDEST DUP3 CALLDATALOAD PUSH2 0x3320 DUP2 PUSH2 0x36C4 JUMP JUMPDEST SWAP2 POP PUSH1 0x20 DUP4 ADD CALLDATALOAD PUSH2 0x3330 DUP2 PUSH2 0x36C4 JUMP JUMPDEST DUP1 SWAP2 POP POP SWAP3 POP SWAP3 SWAP1 POP JUMP JUMPDEST PUSH1 0x0 DUP1 PUSH1 0x0 PUSH1 0x60 DUP5 DUP7 SUB SLT ISZERO PUSH2 0x3350 JUMPI PUSH1 0x0 DUP1 REVERT JUMPDEST DUP4 CALLDATALOAD PUSH2 0x335B DUP2 PUSH2 0x36C4 JUMP JUMPDEST SWAP3 POP PUSH1 0x20 DUP5 ADD CALLDATALOAD PUSH2 0x336B DUP2 PUSH2 0x36C4 JUMP JUMPDEST SWAP3 SWAP6 SWAP3 SWAP5 POP POP POP PUSH1 0x40 SWAP2 SWAP1 SWAP2 ADD CALLDATALOAD SWAP1 JUMP JUMPDEST PUSH1 0x0 DUP1 PUSH1 0x40 DUP4 DUP6 SUB SLT ISZERO PUSH2 0x338F JUMPI PUSH1 0x0 DUP1 REVERT JUMPDEST DUP3 CALLDATALOAD PUSH2 0x339A DUP2 PUSH2 0x36C4 JUMP JUMPDEST SWAP2 POP PUSH2 0x33A8 PUSH1 0x20 DUP5 ADD PUSH2 0x329F JUMP JUMPDEST SWAP1 POP SWAP3 POP SWAP3 SWAP1 POP JUMP JUMPDEST PUSH1 0x0 DUP1 PUSH1 0x40 DUP4 DUP6 SUB SLT ISZERO PUSH2 0x33C4 JUMPI PUSH1 0x0 DUP1 REVERT JUMPDEST DUP3 CALLDATALOAD PUSH2 0x33CF DUP2 PUSH2 0x36C4 JUMP JUMPDEST SWAP5 PUSH1 0x20 SWAP4 SWAP1 SWAP4 ADD CALLDATALOAD SWAP4 POP POP POP JUMP JUMPDEST PUSH1 0x0 PUSH1 0x20 DUP3 DUP5 SUB SLT ISZERO PUSH2 0x33EF JUMPI PUSH1 0x0 DUP1 REVERT JUMPDEST POP CALLDATALOAD SWAP2 SWAP1 POP JUMP JUMPDEST PUSH1 0x0 DUP1 PUSH1 0x40 DUP4 DUP6 SUB SLT ISZERO PUSH2 0x3409 JUMPI PUSH1 0x0 DUP1 REVERT JUMPDEST DUP3 CALLDATALOAD SWAP2 POP PUSH2 0x33A8 PUSH1 0x20 DUP5 ADD PUSH2 0x329F JUMP JUMPDEST PUSH1 0x0 DUP1 PUSH1 0x0 DUP1 PUSH1 0x0 DUP1 PUSH1 0x0 DUP1 PUSH1 0x0 DUP1 PUSH2 0x140 DUP12 DUP14 SUB SLT ISZERO PUSH2 0x3439 JUMPI PUSH1 0x0 DUP1 REVERT JUMPDEST DUP11 CALLDATALOAD SWAP10 POP PUSH2 0x3449 PUSH1 0x20 DUP13 ADD PUSH2 0x32B4 JUMP JUMPDEST SWAP9 POP PUSH2 0x3457 PUSH1 0x40 DUP13 ADD PUSH2 0x32B4 JUMP JUMPDEST SWAP8 POP PUSH2 0x3465 PUSH1 0x60 DUP13 ADD PUSH2 0x32B4 JUMP JUMPDEST SWAP7 POP PUSH2 0x3473 PUSH1 0x80 DUP13 ADD PUSH2 0x32B4 JUMP JUMPDEST SWAP6 POP PUSH2 0x3481 PUSH1 0xA0 DUP13 ADD PUSH2 0x32B4 JUMP JUMPDEST SWAP5 POP PUSH2 0x348F PUSH1 0xC0 DUP13 ADD PUSH2 0x32B4 JUMP JUMPDEST SWAP4 POP PUSH1 0xE0 DUP12 ADD CALLDATALOAD PUSH2 0x349F DUP2 PUSH2 0x36C4 JUMP JUMPDEST SWAP3 POP PUSH2 0x100 DUP12 ADD CALLDATALOAD PUSH2 0x34B0 DUP2 PUSH2 0x36C4 JUMP JUMPDEST SWAP2 POP PUSH2 0x120 DUP12 ADD CALLDATALOAD PUSH2 0x34C1 DUP2 PUSH2 0x36C4 JUMP JUMPDEST DUP1 SWAP2 POP POP SWAP3 SWAP6 SWAP9 SWAP12 SWAP2 SWAP5 SWAP8 SWAP11 POP SWAP3 SWAP6 SWAP9 POP JUMP JUMPDEST PUSH1 0x0 PUSH1 0x20 DUP1 DUP4 MSTORE DUP4 MLOAD DUP1 DUP3 DUP6 ADD MSTORE PUSH1 0x0 JUMPDEST DUP2 DUP2 LT ISZERO PUSH2 0x3501 JUMPI DUP6 DUP2 ADD DUP4 ADD MLOAD DUP6 DUP3 ADD PUSH1 0x40 ADD MSTORE DUP3 ADD PUSH2 0x34E5 JUMP JUMPDEST DUP2 DUP2 GT ISZERO PUSH2 0x3513 JUMPI PUSH1 0x0 PUSH1 0x40 DUP4 DUP8 ADD ADD MSTORE JUMPDEST POP PUSH1 0x1F ADD PUSH1 0x1F NOT AND SWAP3 SWAP1 SWAP3 ADD PUSH1 0x40 ADD SWAP4 SWAP3 POP POP POP JUMP JUMPDEST PUSH1 0x20 DUP1 DUP3 MSTORE DUP2 DUP2 ADD MSTORE PUSH32 0x4F776E61626C653A2063616C6C6572206973206E6F7420746865206F776E6572 PUSH1 0x40 DUP3 ADD MSTORE PUSH1 0x60 ADD SWAP1 JUMP JUMPDEST PUSH1 0x0 PUSH1 0xA0 DUP3 ADD DUP8 DUP4 MSTORE PUSH1 0x20 DUP8 DUP2 DUP6 ADD MSTORE PUSH1 0xA0 PUSH1 0x40 DUP6 ADD MSTORE DUP2 DUP8 MLOAD DUP1 DUP5 MSTORE PUSH1 0xC0 DUP7 ADD SWAP2 POP DUP3 DUP10 ADD SWAP4 POP PUSH1 0x0 JUMPDEST DUP2 DUP2 LT ISZERO PUSH2 0x35AE JUMPI DUP5 MLOAD PUSH1 0x1 PUSH1 0x1 PUSH1 0xA0 SHL SUB AND DUP4 MSTORE SWAP4 DUP4 ADD SWAP4 SWAP2 DUP4 ADD SWAP2 PUSH1 0x1 ADD PUSH2 0x3589 JUMP JUMPDEST POP POP PUSH1 0x1 PUSH1 0x1 PUSH1 0xA0 SHL SUB SWAP7 SWAP1 SWAP7 AND PUSH1 0x60 DUP6 ADD MSTORE POP POP POP PUSH1 0x80 ADD MSTORE SWAP4 SWAP3 POP POP POP JUMP JUMPDEST PUSH1 0x0 DUP3 NOT DUP3 GT ISZERO PUSH2 0x35E2 JUMPI PUSH2 0x35E2 PUSH2 0x3682 JUMP JUMPDEST POP ADD SWAP1 JUMP JUMPDEST PUSH1 0x0 PUSH4 0xFFFFFFFF DUP1 DUP4 AND DUP2 DUP6 AND DUP1 DUP4 SUB DUP3 GT ISZERO PUSH2 0x3606 JUMPI PUSH2 0x3606 PUSH2 0x3682 JUMP JUMPDEST ADD SWAP5 SWAP4 POP POP POP POP JUMP JUMPDEST PUSH1 0x0 DUP3 PUSH2 0x362C JUMPI PUSH4 0x4E487B71 PUSH1 0xE0 SHL PUSH1 0x0 MSTORE PUSH1 0x12 PUSH1 0x4 MSTORE PUSH1 0x24 PUSH1 0x0 REVERT JUMPDEST POP DIV SWAP1 JUMP JUMPDEST PUSH1 0x0 DUP2 PUSH1 0x0 NOT DIV DUP4 GT DUP3 ISZERO ISZERO AND ISZERO PUSH2 0x364B JUMPI PUSH2 0x364B PUSH2 0x3682 JUMP JUMPDEST POP MUL SWAP1 JUMP JUMPDEST PUSH1 0x0 DUP3 DUP3 LT ISZERO PUSH2 0x3662 JUMPI PUSH2 0x3662 PUSH2 0x3682 JUMP JUMPDEST POP SUB SWAP1 JUMP JUMPDEST PUSH1 0x0 PUSH1 0x0 NOT DUP3 EQ ISZERO PUSH2 0x367B JUMPI PUSH2 0x367B PUSH2 0x3682 JUMP JUMPDEST POP PUSH1 0x1 ADD SWAP1 JUMP JUMPDEST PUSH4 0x4E487B71 PUSH1 0xE0 SHL PUSH1 0x0 MSTORE PUSH1 0x11 PUSH1 0x4 MSTORE PUSH1 0x24 PUSH1 0x0 REVERT JUMPDEST PUSH4 0x4E487B71 PUSH1 0xE0 SHL PUSH1 0x0 MSTORE PUSH1 0x31 PUSH1 0x4 MSTORE PUSH1 0x24 PUSH1 0x0 REVERT JUMPDEST PUSH4 0x4E487B71 PUSH1 0xE0 SHL PUSH1 0x0 MSTORE PUSH1 0x32 PUSH1 0x4 MSTORE PUSH1 0x24 PUSH1 0x0 REVERT JUMPDEST PUSH1 0x1 PUSH1 0x1 PUSH1 0xA0 SHL SUB DUP2 AND DUP2 EQ PUSH2 0x19DF JUMPI PUSH1 0x0 DUP1 REVERT INVALID 0xDD CALLCODE MSTORE 0xAD SHL 0xE2 0xC8 SWAP12 PUSH10 0xC2B068FC378DAA952BA7 CALL PUSH4 0xC4A11628 CREATE2 GAS 0x4D CREATE2 0x23 0xB3 0xEF LOG2 PUSH5 0x6970667358 0x22 SLT KECCAK256 0xBB GASLIMIT SAR 0xAA SIGNEXTEND PUSH27 0x56EDDD46B1CEBC109884B63D1B9D9349D9BFC7B27B70B147772F64 PUSH20 0x6F6C634300080700334F776E61626C653A206361 PUSH13 0x6C6572206973206E6F74207468 PUSH6 0x206F776E6572 "
		},
		"gasEstimates": {
			"creation": {
				"codeDepositCost": "2825400",
				"executionCost": "infinite",
				"totalCost": "infinite"
			},
			"external": {
				"_maxHoldAmount()": "2374",
				"_maxTxAmount()": "2374",
				"_tokenCommenceTime()": "2395",
				"allowance(address,address)": "infinite",
				"approve(address,uint256)": "24704",
				"balanceOf(address)": "infinite",
				"burnAddress()": "262",
				"buyTaxes()": "26696",
				"decimals()": "223",
				"decreaseAllowance(address,uint256)": "27015",
				"excludeFromFee(address)": "26856",
				"excludeFromReward(address)": "infinite",
				"includeInFee(address)": "26804",
				"includeInReward(address)": "infinite",
				"increaseAllowance(address,uint256)": "27019",
				"isBlacklisted(address)": "2697",
				"isExcludedFromFee(address)": "2632",
				"isExcludedFromReward(address)": "2677",
				"isLiquidityPool(address)": "2587",
				"name()": "infinite",
				"owner()": "2376",
				"reflect(uint256)": "infinite",
				"reflectionFromToken(uint256,bool)": "infinite",
				"renounceOwnership()": "28182",
				"sellTaxes()": "26725",
				"setBlacklistAccount(address,bool)": "26991",
				"setLiquidityPool(address,bool)": "infinite",
				"setMaxHoldAmount(uint256)": "24731",
				"setMaxTxAmount(uint256)": "24730",
				"setSwapThreshold(uint256)": "24575",
				"setTaxes(uint256,uint32,uint32,uint32,uint32,uint32,uint32,address,address,address)": "infinite",
				"swapThreshold()": "2317",
				"symbol()": "infinite",
				"tokenFromReflection(uint256)": "infinite",
				"totalFees()": "2416",
				"totalSupply()": "339",
				"transfer(address,uint256)": "infinite",
				"transferFrom(address,address,uint256)": "infinite",
				"transferOwnership(address)": "infinite",
				"uniswapV2Pair()": "2382",
				"unlockToken()": "48675"
			},
			"internal": {
				"_approve(address,address,uint256)": "infinite",
				"_getCurrentSupply()": "infinite",
				"_getRValues(uint256,struct Sample.Fees memory,uint256)": "infinite",
				"_getRate()": "infinite",
				"_getTValues(uint256)": "infinite",
				"_getValues(uint256)": "infinite",
				"_hasLimits(address,address)": "4375",
				"_reflectFee(uint256,uint256)": "48568",
				"_transfer(address,address,uint256)": "infinite",
				"sendETHToWallets(uint256)": "infinite",
				"swapTokensForEth(uint256)": "infinite"
			}
		},
		"methodIdentifiers": {
			"_maxHoldAmount()": "1fc9efa1",
			"_maxTxAmount()": "7d1db4a5",
			"_tokenCommenceTime()": "53bbf6ac",
			"allowance(address,address)": "dd62ed3e",
			"approve(address,uint256)": "095ea7b3",
			"balanceOf(address)": "70a08231",
			"burnAddress()": "70d5ae05",
			"buyTaxes()": "864701a5",
			"decimals()": "313ce567",
			"decreaseAllowance(address,uint256)": "a457c2d7",
			"excludeFromFee(address)": "437823ec",
			"excludeFromReward(address)": "52390c02",
			"includeInFee(address)": "ea2f0b37",
			"includeInReward(address)": "3685d419",
			"increaseAllowance(address,uint256)": "39509351",
			"isBlacklisted(address)": "fe575a87",
			"isExcludedFromFee(address)": "5342acb4",
			"isExcludedFromReward(address)": "88f82020",
			"isLiquidityPool(address)": "e85455d7",
			"name()": "06fdde03",
			"owner()": "8da5cb5b",
			"reflect(uint256)": "053ab182",
			"reflectionFromToken(uint256,bool)": "4549b039",
			"renounceOwnership()": "715018a6",
			"sellTaxes()": "f66895a3",
			"setBlacklistAccount(address,bool)": "e594707e",
			"setLiquidityPool(address,bool)": "c29c669a",
			"setMaxHoldAmount(uint256)": "d8b60040",
			"setMaxTxAmount(uint256)": "ec28438a",
			"setSwapThreshold(uint256)": "9d0014b1",
			"setTaxes(uint256,uint32,uint32,uint32,uint32,uint32,uint32,address,address,address)": "974df267",
			"swapThreshold()": "0445b667",
			"symbol()": "95d89b41",
			"tokenFromReflection(uint256)": "2d838119",
			"totalFees()": "13114a9d",
			"totalSupply()": "18160ddd",
			"transfer(address,uint256)": "a9059cbb",
			"transferFrom(address,address,uint256)": "23b872dd",
			"transferOwnership(address)": "f2fde38b",
			"uniswapV2Pair()": "49bd5a5e",
			"unlockToken()": "18a24b5b"
		}
	},
	"abi": [
		{
			"inputs": [
				{
					"internalType": "address",
					"name": "wallet1_",
					"type": "address"
				},
				{
					"internalType": "address",
					"name": "wallet2_",
					"type": "address"
				},
				{
					"internalType": "address",
					"name": "wallet3_",
					"type": "address"
				}
			],
			"stateMutability": "nonpayable",
			"type": "constructor"
		},
		{
			"anonymous": false,
			"inputs": [
				{
					"indexed": true,
					"internalType": "address",
					"name": "owner",
					"type": "address"
				},
				{
					"indexed": true,
					"internalType": "address",
					"name": "spender",
					"type": "address"
				},
				{
					"indexed": false,
					"internalType": "uint256",
					"name": "value",
					"type": "uint256"
				}
			],
			"name": "Approval",
			"type": "event"
		},
		{
			"anonymous": false,
			"inputs": [
				{
					"indexed": true,
					"internalType": "address",
					"name": "previousOwner",
					"type": "address"
				},
				{
					"indexed": true,
					"internalType": "address",
					"name": "newOwner",
					"type": "address"
				}
			],
			"name": "OwnershipTransferred",
			"type": "event"
		},
		{
			"anonymous": false,
			"inputs": [
				{
					"indexed": false,
					"internalType": "bool",
					"name": "status",
					"type": "bool"
				}
			],
			"name": "SwapTokensForEth",
			"type": "event"
		},
		{
			"anonymous": false,
			"inputs": [
				{
					"indexed": true,
					"internalType": "address",
					"name": "from",
					"type": "address"
				},
				{
					"indexed": true,
					"internalType": "address",
					"name": "to",
					"type": "address"
				},
				{
					"indexed": false,
					"internalType": "uint256",
					"name": "value",
					"type": "uint256"
				}
			],
			"name": "Transfer",
			"type": "event"
		},
		{
			"inputs": [],
			"name": "_maxHoldAmount",
			"outputs": [
				{
					"internalType": "uint256",
					"name": "",
					"type": "uint256"
				}
			],
			"stateMutability": "view",
			"type": "function"
		},
		{
			"inputs": [],
			"name": "_maxTxAmount",
			"outputs": [
				{
					"internalType": "uint256",
					"name": "",
					"type": "uint256"
				}
			],
			"stateMutability": "view",
			"type": "function"
		},
		{
			"inputs": [],
			"name": "_tokenCommenceTime",
			"outputs": [
				{
					"internalType": "uint256",
					"name": "",
					"type": "uint256"
				}
			],
			"stateMutability": "view",
			"type": "function"
		},
		{
			"inputs": [
				{
					"internalType": "address",
					"name": "owner",
					"type": "address"
				},
				{
					"internalType": "address",
					"name": "spender",
					"type": "address"
				}
			],
			"name": "allowance",
			"outputs": [
				{
					"internalType": "uint256",
					"name": "",
					"type": "uint256"
				}
			],
			"stateMutability": "view",
			"type": "function"
		},
		{
			"inputs": [
				{
					"internalType": "address",
					"name": "spender",
					"type": "address"
				},
				{
					"internalType": "uint256",
					"name": "amount",
					"type": "uint256"
				}
			],
			"name": "approve",
			"outputs": [
				{
					"internalType": "bool",
					"name": "",
					"type": "bool"
				}
			],
			"stateMutability": "nonpayable",
			"type": "function"
		},
		{
			"inputs": [
				{
					"internalType": "address",
					"name": "account",
					"type": "address"
				}
			],
			"name": "balanceOf",
			"outputs": [
				{
					"internalType": "uint256",
					"name": "",
					"type": "uint256"
				}
			],
			"stateMutability": "view",
			"type": "function"
		},
		{
			"inputs": [],
			"name": "burnAddress",
			"outputs": [
				{
					"internalType": "address",
					"name": "",
					"type": "address"
				}
			],
			"stateMutability": "view",
			"type": "function"
		},
		{
			"inputs": [],
			"name": "buyTaxes",
			"outputs": [
				{
					"internalType": "uint32",
					"name": "total_Tax_Percent",
					"type": "uint32"
				},
				{
					"internalType": "uint32",
					"name": "burn_Split",
					"type": "uint32"
				},
				{
					"internalType": "uint32",
					"name": "governingSplit_Wallet1",
					"type": "uint32"
				},
				{
					"internalType": "uint32",
					"name": "governingSplit_Wallet2",
					"type": "uint32"
				},
				{
					"internalType": "uint32",
					"name": "governingSplit_Wallet3",
					"type": "uint32"
				},
				{
					"internalType": "uint32",
					"name": "reflect_Split",
					"type": "uint32"
				}
			],
			"stateMutability": "view",
			"type": "function"
		},
		{
			"inputs": [],
			"name": "decimals",
			"outputs": [
				{
					"internalType": "uint8",
					"name": "",
					"type": "uint8"
				}
			],
			"stateMutability": "pure",
			"type": "function"
		},
		{
			"inputs": [
				{
					"internalType": "address",
					"name": "spender",
					"type": "address"
				},
				{
					"internalType": "uint256",
					"name": "subtractedValue",
					"type": "uint256"
				}
			],
			"name": "decreaseAllowance",
			"outputs": [
				{
					"internalType": "bool",
					"name": "",
					"type": "bool"
				}
			],
			"stateMutability": "nonpayable",
			"type": "function"
		},
		{
			"inputs": [
				{
					"internalType": "address",
					"name": "account",
					"type": "address"
				}
			],
			"name": "excludeFromFee",
			"outputs": [],
			"stateMutability": "nonpayable",
			"type": "function"
		},
		{
			"inputs": [
				{
					"internalType": "address",
					"name": "account",
					"type": "address"
				}
			],
			"name": "excludeFromReward",
			"outputs": [],
			"stateMutability": "nonpayable",
			"type": "function"
		},
		{
			"inputs": [
				{
					"internalType": "address",
					"name": "account",
					"type": "address"
				}
			],
			"name": "includeInFee",
			"outputs": [],
			"stateMutability": "nonpayable",
			"type": "function"
		},
		{
			"inputs": [
				{
					"internalType": "address",
					"name": "account",
					"type": "address"
				}
			],
			"name": "includeInReward",
			"outputs": [],
			"stateMutability": "nonpayable",
			"type": "function"
		},
		{
			"inputs": [
				{
					"internalType": "address",
					"name": "spender",
					"type": "address"
				},
				{
					"internalType": "uint256",
					"name": "addedValue",
					"type": "uint256"
				}
			],
			"name": "increaseAllowance",
			"outputs": [
				{
					"internalType": "bool",
					"name": "",
					"type": "bool"
				}
			],
			"stateMutability": "nonpayable",
			"type": "function"
		},
		{
			"inputs": [
				{
					"internalType": "address",
					"name": "account",
					"type": "address"
				}
			],
			"name": "isBlacklisted",
			"outputs": [
				{
					"internalType": "bool",
					"name": "",
					"type": "bool"
				}
			],
			"stateMutability": "view",
			"type": "function"
		},
		{
			"inputs": [
				{
					"internalType": "address",
					"name": "account",
					"type": "address"
				}
			],
			"name": "isExcludedFromFee",
			"outputs": [
				{
					"internalType": "bool",
					"name": "",
					"type": "bool"
				}
			],
			"stateMutability": "view",
			"type": "function"
		},
		{
			"inputs": [
				{
					"internalType": "address",
					"name": "account",
					"type": "address"
				}
			],
			"name": "isExcludedFromReward",
			"outputs": [
				{
					"internalType": "bool",
					"name": "",
					"type": "bool"
				}
			],
			"stateMutability": "view",
			"type": "function"
		},
		{
			"inputs": [
				{
					"internalType": "address",
					"name": "account",
					"type": "address"
				}
			],
			"name": "isLiquidityPool",
			"outputs": [
				{
					"internalType": "bool",
					"name": "",
					"type": "bool"
				}
			],
			"stateMutability": "view",
			"type": "function"
		},
		{
			"inputs": [],
			"name": "name",
			"outputs": [
				{
					"internalType": "string",
					"name": "",
					"type": "string"
				}
			],
			"stateMutability": "pure",
			"type": "function"
		},
		{
			"inputs": [],
			"name": "owner",
			"outputs": [
				{
					"internalType": "address",
					"name": "",
					"type": "address"
				}
			],
			"stateMutability": "view",
			"type": "function"
		},
		{
			"inputs": [
				{
					"internalType": "uint256",
					"name": "tAmount",
					"type": "uint256"
				}
			],
			"name": "reflect",
			"outputs": [],
			"stateMutability": "nonpayable",
			"type": "function"
		},
		{
			"inputs": [
				{
					"internalType": "uint256",
					"name": "tAmount",
					"type": "uint256"
				},
				{
					"internalType": "bool",
					"name": "deductTransferFee",
					"type": "bool"
				}
			],
			"name": "reflectionFromToken",
			"outputs": [
				{
					"internalType": "uint256",
					"name": "",
					"type": "uint256"
				}
			],
			"stateMutability": "view",
			"type": "function"
		},
		{
			"inputs": [],
			"name": "renounceOwnership",
			"outputs": [],
			"stateMutability": "nonpayable",
			"type": "function"
		},
		{
			"inputs": [],
			"name": "sellTaxes",
			"outputs": [
				{
					"internalType": "uint32",
					"name": "total_Tax_Percent",
					"type": "uint32"
				},
				{
					"internalType": "uint32",
					"name": "burn_Split",
					"type": "uint32"
				},
				{
					"internalType": "uint32",
					"name": "governingSplit_Wallet1",
					"type": "uint32"
				},
				{
					"internalType": "uint32",
					"name": "governingSplit_Wallet2",
					"type": "uint32"
				},
				{
					"internalType": "uint32",
					"name": "governingSplit_Wallet3",
					"type": "uint32"
				},
				{
					"internalType": "uint32",
					"name": "reflect_Split",
					"type": "uint32"
				}
			],
			"stateMutability": "view",
			"type": "function"
		},
		{
			"inputs": [
				{
					"internalType": "address",
					"name": "account",
					"type": "address"
				},
				{
					"internalType": "bool",
					"name": "enabled",
					"type": "bool"
				}
			],
			"name": "setBlacklistAccount",
			"outputs": [],
			"stateMutability": "nonpayable",
			"type": "function"
		},
		{
			"inputs": [
				{
					"internalType": "address",
					"name": "account",
					"type": "address"
				},
				{
					"internalType": "bool",
					"name": "enabled",
					"type": "bool"
				}
			],
			"name": "setLiquidityPool",
			"outputs": [],
			"stateMutability": "nonpayable",
			"type": "function"
		},
		{
			"inputs": [
				{
					"internalType": "uint256",
					"name": "maxHoldAmount",
					"type": "uint256"
				}
			],
			"name": "setMaxHoldAmount",
			"outputs": [],
			"stateMutability": "nonpayable",
			"type": "function"
		},
		{
			"inputs": [
				{
					"internalType": "uint256",
					"name": "maxTxAmount",
					"type": "uint256"
				}
			],
			"name": "setMaxTxAmount",
			"outputs": [],
			"stateMutability": "nonpayable",
			"type": "function"
		},
		{
			"inputs": [
				{
					"internalType": "uint256",
					"name": "amount",
					"type": "uint256"
				}
			],
			"name": "setSwapThreshold",
			"outputs": [],
			"stateMutability": "nonpayable",
			"type": "function"
		},
		{
			"inputs": [
				{
					"internalType": "uint256",
					"name": "type_",
					"type": "uint256"
				},
				{
					"internalType": "uint32",
					"name": "totalTaxPercent_",
					"type": "uint32"
				},
				{
					"internalType": "uint32",
					"name": "split0_",
					"type": "uint32"
				},
				{
					"internalType": "uint32",
					"name": "split1_",
					"type": "uint32"
				},
				{
					"internalType": "uint32",
					"name": "split2_",
					"type": "uint32"
				},
				{
					"internalType": "uint32",
					"name": "split3_",
					"type": "uint32"
				},
				{
					"internalType": "uint32",
					"name": "split4_",
					"type": "uint32"
				},
				{
					"internalType": "address",
					"name": "wallet1_",
					"type": "address"
				},
				{
					"internalType": "address",
					"name": "wallet2_",
					"type": "address"
				},
				{
					"internalType": "address",
					"name": "wallet3_",
					"type": "address"
				}
			],
			"name": "setTaxes",
			"outputs": [],
			"stateMutability": "nonpayable",
			"type": "function"
		},
		{
			"inputs": [],
			"name": "swapThreshold",
			"outputs": [
				{
					"internalType": "uint256",
					"name": "",
					"type": "uint256"
				}
			],
			"stateMutability": "view",
			"type": "function"
		},
		{
			"inputs": [],
			"name": "symbol",
			"outputs": [
				{
					"internalType": "string",
					"name": "",
					"type": "string"
				}
			],
			"stateMutability": "pure",
			"type": "function"
		},
		{
			"inputs": [
				{
					"internalType": "uint256",
					"name": "rAmount",
					"type": "uint256"
				}
			],
			"name": "tokenFromReflection",
			"outputs": [
				{
					"internalType": "uint256",
					"name": "",
					"type": "uint256"
				}
			],
			"stateMutability": "view",
			"type": "function"
		},
		{
			"inputs": [],
			"name": "totalFees",
			"outputs": [
				{
					"internalType": "uint256",
					"name": "",
					"type": "uint256"
				}
			],
			"stateMutability": "view",
			"type": "function"
		},
		{
			"inputs": [],
			"name": "totalSupply",
			"outputs": [
				{
					"internalType": "uint256",
					"name": "",
					"type": "uint256"
				}
			],
			"stateMutability": "pure",
			"type": "function"
		},
		{
			"inputs": [
				{
					"internalType": "address",
					"name": "recipient",
					"type": "address"
				},
				{
					"internalType": "uint256",
					"name": "amount",
					"type": "uint256"
				}
			],
			"name": "transfer",
			"outputs": [
				{
					"internalType": "bool",
					"name": "",
					"type": "bool"
				}
			],
			"stateMutability": "nonpayable",
			"type": "function"
		},
		{
			"inputs": [
				{
					"internalType": "address",
					"name": "sender",
					"type": "address"
				},
				{
					"internalType": "address",
					"name": "recipient",
					"type": "address"
				},
				{
					"internalType": "uint256",
					"name": "amount",
					"type": "uint256"
				}
			],
			"name": "transferFrom",
			"outputs": [
				{
					"internalType": "bool",
					"name": "",
					"type": "bool"
				}
			],
			"stateMutability": "nonpayable",
			"type": "function"
		},
		{
			"inputs": [
				{
					"internalType": "address",
					"name": "newOwner",
					"type": "address"
				}
			],
			"name": "transferOwnership",
			"outputs": [],
			"stateMutability": "nonpayable",
			"type": "function"
		},
		{
			"inputs": [],
			"name": "uniswapV2Pair",
			"outputs": [
				{
					"internalType": "address",
					"name": "",
					"type": "address"
				}
			],
			"stateMutability": "view",
			"type": "function"
		},
		{
			"inputs": [],
			"name": "unlockToken",
			"outputs": [],
			"stateMutability": "nonpayable",
			"type": "function"
		},
		{
			"stateMutability": "payable",
			"type": "receive"
		}
	]
}