{
	"data": {
		"bytecode": {
			"linkReferences": {},
			"object": "61016060405260006001819055600855600f805460ff191690553480156200002657600080fd5b5060405162003d5138038062003d5183398101604081905262000049916200032a565b6040518060400160405280601081526020016f536f756c5a204d6f6e6f67617461726960801b81525060405180604001604052806004815260200163534c5a4d60e01b8152508787620000ab620000a56200023060201b60201c565b62000234565b60008111620001185760405162461bcd60e51b815260206004820152602e60248201527f455243373231413a20636f6c6c656374696f6e206d757374206861766520612060448201526d6e6f6e7a65726f20737570706c7960901b60648201526084015b60405180910390fd5b600082116200017a5760405162461bcd60e51b815260206004820152602760248201527f455243373231413a206d61782062617463682073697a65206d757374206265206044820152666e6f6e7a65726f60c81b60648201526084016200010f565b83516200018f90600290602087019062000284565b508251620001a590600390602086019062000284565b5060a0919091526080525050600160095560c086905261012083905261014084905261010082905260e081905284821115620002245760405162461bcd60e51b815260206004820152601d60248201527f6c617267657220636f6c6c656374696f6e2073697a65206e656564656400000060448201526064016200010f565b505050505050620003b2565b3390565b600080546001600160a01b038381166001600160a01b0319831681178455604051919092169283917f8be0079c531659141344cd1fd0a4f28419497f9722a3daafe3b4186f6b6457e09190a35050565b828054620002929062000375565b90600052602060002090601f016020900481019282620002b6576000855562000301565b82601f10620002d157805160ff191683800117855562000301565b8280016001018555821562000301579182015b8281111562000301578251825591602001919060010190620002e4565b506200030f92915062000313565b5090565b5b808211156200030f576000815560010162000314565b60008060008060008060c087890312156200034457600080fd5b865195506020870151945060408701519350606087015192506080870151915060a087015190509295509295509295565b600181811c908216806200038a57607f821691505b60208210811415620003ac57634e487b7160e01b600052602260045260246000fd5b50919050565b60805160a05160c05160e0516101005161012051610140516138f76200045a60003960006113e1015260006119680152600061151b01526000610ec9015260008181610601015281816115d50152611ffe015260008181610f5f01528181610fed015281816110250152818161292f015281816129590152612d1d01526000818161138e0152818161191501528181611fab0152818161269401526126c601526138f76000f3fe6080604052600436106102ae5760003560e01c8063715018a611610175578063a22cb465116100dc578063cf3604dc11610095578063e985e9c51161006f578063e985e9c5146108e0578063f204258914610929578063f2fde38b14610949578063f8a987d81461096957600080fd5b8063cf3604dc1461088a578063d7224ba0146108aa578063dc33e681146108c057600080fd5b8063a22cb465146107db578063ab580700146107fb578063b88d4fde1461081b578063c87b56dd1461083b578063caf8a6d11461085b578063cb91d8b31461087757600080fd5b806390aa0b0f1161012e57806390aa0b0f14610661578063917d009e1461070c5780639231ab2a1461072c57806395d89b41146107795780639b19251a1461078e5780639f984fd6146107bb57600080fd5b8063715018a6146105ab5780637a1c4a56146105c0578063868ff4a2146105dc5780638bc35c2f146105ef5780638da5cb5b14610623578063900280831461064157600080fd5b806342842e0e1161021957806355f804b3116101d257806355f804b3146104fa57806359f369fe1461051a5780635cae01d3146105355780636352211e1461054b5780636ebc56011461056b57806370a082311461058b57600080fd5b806342842e0e1461044d57806343070e971461046d5780634d3554c3146104805780634f6ccce71461049357806351830227146104b357806352c9c209146104cd57600080fd5b806323b872dd1161026b57806323b872dd146103985780632d20fb60146103b85780632f745c59146103d8578063375a069a146103f85780633ccfd60b14610418578063422030ba1461042d57600080fd5b806301ffc9a7146102b357806306fdde03146102e8578063077af4301461030a578063081812fc14610321578063095ea7b31461035957806318160ddd14610379575b600080fd5b3480156102bf57600080fd5b506102d36102ce36600461330c565b61097f565b60405190151581526020015b60405180910390f35b3480156102f457600080fd5b506102fd6109ec565b6040516102df9190613558565b34801561031657600080fd5b5061031f610a7e565b005b34801561032d57600080fd5b5061034161033c3660046133b7565b610ae4565b6040516001600160a01b0390911681526020016102df565b34801561036557600080fd5b5061031f610374366004613201565b610b6f565b34801561038557600080fd5b506001545b6040519081526020016102df565b3480156103a457600080fd5b5061031f6103b33660046130dc565b610c87565b3480156103c457600080fd5b5061031f6103d33660046133b7565b610c92565b3480156103e457600080fd5b5061038a6103f3366004613201565b610d25565b34801561040457600080fd5b5061031f6104133660046133b7565b610e9d565b34801561042457600080fd5b5061031f61105b565b34801561043957600080fd5b506102d36104483660046133f2565b611272565b34801561045957600080fd5b5061031f6104683660046130dc565b611296565b61031f61047b3660046133b7565b6112b1565b61031f61048e3660046133b7565b611496565b34801561049f57600080fd5b5061038a6104ae3660046133b7565b61167a565b3480156104bf57600080fd5b50600f546102d39060ff1681565b3480156104d957600080fd5b5061038a6104e836600461308e565b600d6020526000908152604090205481565b34801561050657600080fd5b5061031f610515366004613346565b6116e3565b34801561052657600080fd5b5061038a66b1a2bc2ec5000081565b34801561054157600080fd5b5061038a61070881565b34801561055757600080fd5b506103416105663660046133b7565b611719565b34801561057757600080fd5b5061031f61058636600461341e565b61172b565b34801561059757600080fd5b5061038a6105a636600461308e565b611771565b3480156105b757600080fd5b5061031f611802565b3480156105cc57600080fd5b5061038a670a688906bd8b000081565b61031f6105ea3660046133b7565b611838565b3480156105fb57600080fd5b5061038a7f000000000000000000000000000000000000000000000000000000000000000081565b34801561062f57600080fd5b506000546001600160a01b0316610341565b34801561064d57600080fd5b5061031f61065c36600461341e565b611a04565b34801561066d57600080fd5b50600a54600b546106be9163ffffffff808216926401000000008304821692600160401b8082048416936001600160401b03600160601b8404811694600160a01b9094048116939081169290041687565b6040805163ffffffff98891681529688166020880152948716948601949094526001600160401b03928316606086015290821660808501521660a083015290911660c082015260e0016102df565b34801561071857600080fd5b5061038a6107273660046133b7565b611a54565b34801561073857600080fd5b5061074c6107473660046133b7565b611ad8565b6040805182516001600160a01b031681526020928301516001600160401b031692810192909252016102df565b34801561078557600080fd5b506102fd611af5565b34801561079a57600080fd5b5061038a6107a936600461308e565b600c6020526000908152604090205481565b3480156107c757600080fd5b5061031f6107d6366004613439565b611b04565b3480156107e757600080fd5b5061031f6107f63660046131d7565b611c15565b34801561080757600080fd5b5061031f61081636600461322b565b611cda565b34801561082757600080fd5b5061031f610836366004613118565b611da0565b34801561084757600080fd5b506102fd6108563660046133b7565b611dd3565b34801561086757600080fd5b5061038a6702c68af0bb14000081565b61031f6108853660046133d0565b611e62565b34801561089657600080fd5b5061031f6108a53660046132f1565b61209c565b3480156108b657600080fd5b5061038a60085481565b3480156108cc57600080fd5b5061038a6108db36600461308e565b6120d9565b3480156108ec57600080fd5b506102d36108fb3660046130a9565b6001600160a01b03918216600090815260076020908152604080832093909416825291909152205460ff1690565b34801561093557600080fd5b5061031f61094436600461322b565b6120e4565b34801561095557600080fd5b5061031f61096436600461308e565b6121aa565b34801561097557600080fd5b5061038a61a8c081565b60006001600160e01b031982166380ac58cd60e01b14806109b057506001600160e01b03198216635b5e139f60e01b145b806109cb57506001600160e01b0319821663780e9d6360e01b145b806109e657506301ffc9a760e01b6001600160e01b03198316145b92915050565b6060600280546109fb906137e9565b80601f0160208091040260200160405190810160405280929190818152602001828054610a27906137e9565b8015610a745780601f10610a4957610100808354040283529160200191610a74565b820191906000526020600020905b815481529060010190602001808311610a5757829003601f168201915b5050505050905090565b6000546001600160a01b03163314610ab15760405162461bcd60e51b8152600401610aa8906135ce565b60405180910390fd5b6040514790339082156108fc029083906000818181858888f19350505050158015610ae0573d6000803e3d6000fd5b5050565b6000610af1826001541190565b610b535760405162461bcd60e51b815260206004820152602d60248201527f455243373231413a20617070726f76656420717565727920666f72206e6f6e6560448201526c3c34b9ba32b73a103a37b5b2b760991b6064820152608401610aa8565b506000908152600660205260409020546001600160a01b031690565b6000610b7a82611719565b9050806001600160a01b0316836001600160a01b03161415610be95760405162461bcd60e51b815260206004820152602260248201527f455243373231413a20617070726f76616c20746f2063757272656e74206f776e60448201526132b960f11b6064820152608401610aa8565b336001600160a01b0382161480610c055750610c0581336108fb565b610c775760405162461bcd60e51b815260206004820152603960248201527f455243373231413a20617070726f76652063616c6c6572206973206e6f74206f60448201527f776e6572206e6f7220617070726f76656420666f7220616c6c000000000000006064820152608401610aa8565b610c82838383612245565b505050565b610c828383836122a1565b6000546001600160a01b03163314610cbc5760405162461bcd60e51b8152600401610aa8906135ce565b60026009541415610d0f5760405162461bcd60e51b815260206004820152601f60248201527f5265656e7472616e637947756172643a207265656e7472616e742063616c6c006044820152606401610aa8565b6002600955610d1d81612623565b506001600955565b6000610d3083611771565b8210610d895760405162461bcd60e51b815260206004820152602260248201527f455243373231413a206f776e657220696e646578206f7574206f6620626f756e604482015261647360f01b6064820152608401610aa8565b6000610d9460015490565b905060008060005b83811015610e3d576000818152600460209081526040918290208251808401909352546001600160a01b038116808452600160a01b9091046001600160401b03169183019190915215610dee57805192505b876001600160a01b0316836001600160a01b03161415610e2a5786841415610e1c575093506109e692505050565b83610e2681613824565b9450505b5080610e3581613824565b915050610d9c565b5060405162461bcd60e51b815260206004820152602e60248201527f455243373231413a20756e61626c6520746f2067657420746f6b656e206f662060448201526d0deeedccae440c4f240d2dcc8caf60931b6064820152608401610aa8565b6000546001600160a01b03163314610ec75760405162461bcd60e51b8152600401610aa8906135ce565b7f000000000000000000000000000000000000000000000000000000000000000081610ef260015490565b610efc919061371c565b1115610f5a5760405162461bcd60e51b815260206004820152602760248201527f746f6f206d616e7920616c7265616479206d696e746564206265666f72652064604482015266195d881b5a5b9d60ca1b6064820152608401610aa8565b610f847f00000000000000000000000000000000000000000000000000000000000000008261383f565b15610fe65760405162461bcd60e51b815260206004820152602c60248201527f63616e206f6e6c79206d696e742061206d756c7469706c65206f66207468652060448201526b6d6178426174636853697a6560a01b6064820152608401610aa8565b60006110127f000000000000000000000000000000000000000000000000000000000000000083613734565b905060005b81811015610c8257611049337f000000000000000000000000000000000000000000000000000000000000000061280c565b8061105381613824565b915050611017565b6000546001600160a01b031633146110855760405162461bcd60e51b8152600401610aa8906135ce565b604080516101008082018352732bc46e31a324ab9a208b3b0fb91958e390dc0797825273897c456868d4888c258528f8660b932804cb694860208084019190915273c0524078b6abc601158bfc328c9a2b64ee376e2383850152738fe4a152939ece65f1fc651e57b8aa84cfc137c26060808501919091527329d54f704a4253b5c3a8ae6cbdfdb0147211971360808086019190915273896babee76dbdf3f6d3b7470ad1e47e8c2016bdb60a08087019190915273e892c48b5cdd20f50dbfdf4a949c649aee9f24da60c0808801919091527324e21ae83ccb58ebae990cf1e014e062f6bb7b1960e08089019190915288519687018952600280885295870195909552600397860188905292850196909652600a90840152603c9483018590528201849052810192909252904760005b600881101561126c5760006111cc6001600861378f565b82146112045760c88483600881106111e6576111e661387f565b60200201516111f59085613748565b6111ff9190613734565b611206565b475b905084826008811061121a5761121a61387f565b60200201516001600160a01b03166108fc829081150290604051600060405180830381858888f19350505050158015611257573d6000803e3d6000fd5b5050808061126490613824565b9150506111b5565b50505050565b6000831580159061128257508215155b801561128e5750814210155b949350505050565b610c8283838360405180602001604052806000815250611da0565b3233146112d05760405162461bcd60e51b8152600401610aa89061356b565b600a54600160a01b90046001600160401b0316806113305760405162461bcd60e51b815260206004820181905260248201527f436f6c6c65637465642073616c6520686173206e6f7420626567756e207965746044820152606401610aa8565b336000908152600d602052604090205461138c5760405162461bcd60e51b815260206004820152601f60248201527f6e6f7420656c696769626c6520666f7220636f6c6c6563746564206d696e74006044820152606401610aa8565b7f00000000000000000000000000000000000000000000000000000000000000006113b660015490565b6113c190600161371c565b11156113df5760405162461bcd60e51b8152600401610aa8906135a2565b7f00000000000000000000000000000000000000000000000000000000000000008261140a336120d9565b611414919061371c565b11156114625760405162461bcd60e51b815260206004820181905260248201527f436f6c6c65637465642063616e206e6f74206d696e742074686973206d616e796044820152606401610aa8565b336000908152600d6020526040812080549161147d836137d2565b919050555061148d33600161280c565b610ae081612826565b3233146114b55760405162461bcd60e51b8152600401610aa89061356b565b600a5463ffffffff1680158015906114cd5750804210155b6115195760405162461bcd60e51b815260206004820152601860248201527f73616c6520686173206e6f7420737461727465642079657400000000000000006044820152606401610aa8565b7f00000000000000000000000000000000000000000000000000000000000000008261154460015490565b61154e919061371c565b11156115d35760405162461bcd60e51b815260206004820152604860248201527f6e6f7420656e6f7567682072656d61696e696e6720726573657276656420666f60448201527f722061756374696f6e20746f20737570706f72742064657369726564206d696e6064820152671d08185b5bdd5b9d60c21b608482015260a401610aa8565b7f0000000000000000000000000000000000000000000000000000000000000000826115fe336120d9565b611608919061371c565b111561164f5760405162461bcd60e51b815260206004820152601660248201527563616e206e6f74206d696e742074686973206d616e7960501b6044820152606401610aa8565b60008261165b83611a54565b6116659190613748565b9050611671338461280c565b610c8281612826565b600061168560015490565b82106116df5760405162461bcd60e51b815260206004820152602360248201527f455243373231413a20676c6f62616c20696e646578206f7574206f6620626f756044820152626e647360e81b6064820152608401610aa8565b5090565b6000546001600160a01b0316331461170d5760405162461bcd60e51b8152600401610aa8906135ce565b610c82600e8383612f3a565b6000611724826128ad565b5192915050565b6000546001600160a01b031633146117555760405162461bcd60e51b8152600401610aa8906135ce565b600a805463ffffffff191663ffffffff92909216919091179055565b60006001600160a01b0382166117dd5760405162461bcd60e51b815260206004820152602b60248201527f455243373231413a2062616c616e636520717565727920666f7220746865207a60448201526a65726f206164647265737360a81b6064820152608401610aa8565b506001600160a01b03166000908152600560205260409020546001600160801b031690565b6000546001600160a01b0316331461182c5760405162461bcd60e51b8152600401610aa8906135ce565b6118366000612a56565b565b3233146118575760405162461bcd60e51b8152600401610aa89061356b565b600a54600160601b90046001600160401b0316806118b75760405162461bcd60e51b815260206004820181905260248201527f77686974656c6973742073616c6520686173206e6f7420626567756e207965746044820152606401610aa8565b336000908152600c60205260409020546119135760405162461bcd60e51b815260206004820152601f60248201527f6e6f7420656c696769626c6520666f722077686974656c697374206d696e74006044820152606401610aa8565b7f000000000000000000000000000000000000000000000000000000000000000061193d60015490565b61194890600161371c565b11156119665760405162461bcd60e51b8152600401610aa8906135a2565b7f000000000000000000000000000000000000000000000000000000000000000082611991336120d9565b61199b919061371c565b11156119e95760405162461bcd60e51b815260206004820152601f60248201527f417363656e6465642063616e206e6f74206d696e742074686973206d616e79006044820152606401610aa8565b336000908152600c6020526040812080549161147d836137d2565b6000546001600160a01b03163314611a2e5760405162461bcd60e51b8152600401610aa8906135ce565b600b805463ffffffff909216600160401b0263ffffffff60401b19909216919091179055565b600081421015611a6d5750670a688906bd8b0000919050565b61a8c0611a7a834261378f565b10611a8e57506702c68af0bb140000919050565b6000610708611a9d844261378f565b611aa79190613734565b9050611aba66b1a2bc2ec5000082613748565b611acc90670a688906bd8b000061378f565b9392505050565b919050565b60408051808201909152600080825260208201526109e6826128ad565b6060600380546109fb906137e9565b6000546001600160a01b03163314611b2e5760405162461bcd60e51b8152600401610aa8906135ce565b6040805160e0810182526000815263ffffffff92831660208201819052948316918101829052928216606084018190526001600160401b03968716608085018190529590961660a08401819052600b8054600160401b80820490951660c0909601869052600a80546bffffffffffffffffffffffff1990811664010000000090990263ffffffff60401b191698909817948602949094176fffffffffffffffffffffffffffffffff60601b1916600160601b90990267ffffffffffffffff60a01b191698909817600160a01b90970296909617909155929094169091179202919091179055565b6001600160a01b038216331415611c6e5760405162461bcd60e51b815260206004820152601a60248201527f455243373231413a20617070726f766520746f2063616c6c65720000000000006044820152606401610aa8565b3360008181526007602090815260408083206001600160a01b03871680855290835292819020805460ff191686151590811790915590519081529192917f17307eab39ab6107e8899845ad3d59bd9653f200f220920489ca2b5937696c31910160405180910390a35050565b6000546001600160a01b03163314611d045760405162461bcd60e51b8152600401610aa8906135ce565b8051825114611d255760405162461bcd60e51b8152600401610aa890613656565b60005b8251811015610c8257818181518110611d4357611d4361387f565b6020026020010151600c6000858481518110611d6157611d6161387f565b60200260200101516001600160a01b03166001600160a01b03168152602001908152602001600020819055508080611d9890613824565b915050611d28565b611dab8484846122a1565b611db784848484612aa6565b61126c5760405162461bcd60e51b8152600401610aa890613603565b600f5460609060ff1615611e34576000611deb612bb3565b90506000815111611e0b5760405180602001604052806000815250611acc565b8083604051602001611e1e9291906134f9565b6040516020818303038152906040529392505050565b611e3c612bb3565b604051602001611e4c91906134ca565b6040516020818303038152906040529050919050565b323314611e815760405162461bcd60e51b8152600401610aa89061356b565b6040805160e081018252600a5463ffffffff8082168352640100000000820481166020840152600160401b80830482169484018590526001600160401b03600160601b840481166060860152600160a01b90930483166080850152600b5492831660a0850181905292041660c083018190529192848314611f525760405162461bcd60e51b815260206004820152602560248201527f63616c6c6564207769746820696e636f7272656374207075626c69632073616c60448201526465206b657960d81b6064820152608401610aa8565b611f5d828483611272565b611fa95760405162461bcd60e51b815260206004820152601d60248201527f7075626c69632073616c6520686173206e6f7420626567756e207965740000006044820152606401610aa8565b7f000000000000000000000000000000000000000000000000000000000000000086611fd460015490565b611fde919061371c565b1115611ffc5760405162461bcd60e51b8152600401610aa8906135a2565b7f000000000000000000000000000000000000000000000000000000000000000086612027336120d9565b612031919061371c565b11156120785760405162461bcd60e51b815260206004820152601660248201527563616e206e6f74206d696e742074686973206d616e7960501b6044820152606401610aa8565b612082338761280c565b61209461208f8784613748565b612826565b505050505050565b6000546001600160a01b031633146120c65760405162461bcd60e51b8152600401610aa8906135ce565b600f805460ff1916911515919091179055565b60006109e682612bc2565b6000546001600160a01b0316331461210e5760405162461bcd60e51b8152600401610aa8906135ce565b805182511461212f5760405162461bcd60e51b8152600401610aa890613656565b60005b8251811015610c825781818151811061214d5761214d61387f565b6020026020010151600d600085848151811061216b5761216b61387f565b60200260200101516001600160a01b03166001600160a01b031681526020019081526020016000208190555080806121a290613824565b915050612132565b6000546001600160a01b031633146121d45760405162461bcd60e51b8152600401610aa8906135ce565b6001600160a01b0381166122395760405162461bcd60e51b815260206004820152602660248201527f4f776e61626c653a206e6577206f776e657220697320746865207a65726f206160448201526564647265737360d01b6064820152608401610aa8565b61224281612a56565b50565b60008281526006602052604080822080546001600160a01b0319166001600160a01b0387811691821790925591518593918516917f8c5be1e5ebec7d5bd14f71427d1e84f3dd0314c0f7b2291e5b200ac8c7c3b92591a4505050565b60006122ac826128ad565b80519091506000906001600160a01b0316336001600160a01b031614806122e35750336122d884610ae4565b6001600160a01b0316145b806122f5575081516122f590336108fb565b90508061235f5760405162461bcd60e51b815260206004820152603260248201527f455243373231413a207472616e736665722063616c6c6572206973206e6f74206044820152711bdddb995c881b9bdc88185c1c1c9bdd995960721b6064820152608401610aa8565b846001600160a01b031682600001516001600160a01b0316146123d35760405162461bcd60e51b815260206004820152602660248201527f455243373231413a207472616e736665722066726f6d20696e636f72726563746044820152651037bbb732b960d11b6064820152608401610aa8565b6001600160a01b0384166124375760405162461bcd60e51b815260206004820152602560248201527f455243373231413a207472616e7366657220746f20746865207a65726f206164604482015264647265737360d81b6064820152608401610aa8565b6124476000848460000151612245565b6001600160a01b03851660009081526005602052604081208054600192906124799084906001600160801b0316613767565b82546101009290920a6001600160801b038181021990931691831602179091556001600160a01b038616600090815260056020526040812080546001945090926124c5918591166136f1565b82546001600160801b039182166101009390930a9283029190920219909116179055506040805180820182526001600160a01b0380871682526001600160401b03428116602080850191825260008981526004909152948520935184549151909216600160a01b026001600160e01b0319909116919092161717905561254c84600161371c565b6000818152600460205260409020549091506001600160a01b03166125dd57612576816001541190565b156125dd5760408051808201825284516001600160a01b0390811682526020808701516001600160401b039081168285019081526000878152600490935294909120925183549451909116600160a01b026001600160e01b03199094169116179190911790555b83856001600160a01b0316876001600160a01b03167fddf252ad1be2c89b69c2b068fc378daa952ba7f163c4a11628f55a4df523b3ef60405160405180910390a4612094565b600854816126735760405162461bcd60e51b815260206004820152601860248201527f7175616e74697479206d757374206265206e6f6e7a65726f00000000000000006044820152606401610aa8565b60006001612681848461371c565b61268b919061378f565b90506126b860017f000000000000000000000000000000000000000000000000000000000000000061378f565b8111156126ed576126ea60017f000000000000000000000000000000000000000000000000000000000000000061378f565b90505b6126f8816001541190565b6127535760405162461bcd60e51b815260206004820152602660248201527f6e6f7420656e6f756768206d696e7465642079657420666f722074686973206360448201526506c65616e75760d41b6064820152608401610aa8565b815b8181116127f8576000818152600460205260409020546001600160a01b03166127e6576000612783826128ad565b60408051808201825282516001600160a01b0390811682526020938401516001600160401b039081168584019081526000888152600490965293909420915182549351909416600160a01b026001600160e01b0319909316931692909217179055505b806127f081613824565b915050612755565b5061280481600161371c565b600855505050565b610ae0828260405180602001604052806000815250612c60565b8034101561286f5760405162461bcd60e51b81526020600482015260166024820152752732b2b2103a379039b2b7321036b7b9329022aa241760511b6044820152606401610aa8565b8034111561224257336108fc612885833461378f565b6040518115909202916000818181858888f19350505050158015610ae0573d6000803e3d6000fd5b60408051808201909152600080825260208201526128cc826001541190565b61292b5760405162461bcd60e51b815260206004820152602a60248201527f455243373231413a206f776e657220717565727920666f72206e6f6e657869736044820152693a32b73a103a37b5b2b760b11b6064820152608401610aa8565b60007f0000000000000000000000000000000000000000000000000000000000000000831061298c5761297e7f00000000000000000000000000000000000000000000000000000000000000008461378f565b61298990600161371c565b90505b825b8181106129f5576000818152600460209081526040918290208251808401909352546001600160a01b038116808452600160a01b9091046001600160401b031691830191909152156129e257949350505050565b50806129ed816137d2565b91505061298e565b5060405162461bcd60e51b815260206004820152602f60248201527f455243373231413a20756e61626c6520746f2064657465726d696e652074686560448201526e1037bbb732b91037b3103a37b5b2b760891b6064820152608401610aa8565b600080546001600160a01b038381166001600160a01b0319831681178455604051919092169283917f8be0079c531659141344cd1fd0a4f28419497f9722a3daafe3b4186f6b6457e09190a35050565b60006001600160a01b0384163b15612ba857604051630a85bd0160e11b81526001600160a01b0385169063150b7a0290612aea90339089908890889060040161351b565b602060405180830381600087803b158015612b0457600080fd5b505af1925050508015612b34575060408051601f3d908101601f19168201909252612b3191810190613329565b60015b612b8e573d808015612b62576040519150601f19603f3d011682016040523d82523d6000602084013e612b67565b606091505b508051612b865760405162461bcd60e51b8152600401610aa890613603565b805181602001fd5b6001600160e01b031916630a85bd0160e11b14905061128e565b506001949350505050565b6060600e80546109fb906137e9565b60006001600160a01b038216612c345760405162461bcd60e51b815260206004820152603160248201527f455243373231413a206e756d626572206d696e74656420717565727920666f7260448201527020746865207a65726f206164647265737360781b6064820152608401610aa8565b506001600160a01b0316600090815260056020526040902054600160801b90046001600160801b031690565b6001546001600160a01b038416612cc35760405162461bcd60e51b815260206004820152602160248201527f455243373231413a206d696e7420746f20746865207a65726f206164647265736044820152607360f81b6064820152608401610aa8565b612cce816001541190565b15612d1b5760405162461bcd60e51b815260206004820152601d60248201527f455243373231413a20746f6b656e20616c7265616479206d696e7465640000006044820152606401610aa8565b7f0000000000000000000000000000000000000000000000000000000000000000831115612d965760405162461bcd60e51b815260206004820152602260248201527f455243373231413a207175616e7469747920746f206d696e7420746f6f2068696044820152610ced60f31b6064820152608401610aa8565b6001600160a01b0384166000908152600560209081526040918290208251808401845290546001600160801b038082168352600160801b9091041691810191909152815180830190925280519091908190612df29087906136f1565b6001600160801b03168152602001858360200151612e1091906136f1565b6001600160801b039081169091526001600160a01b0380881660008181526005602090815260408083208751978301518716600160801b029790961696909617909455845180860186529182526001600160401b034281168386019081528883526004909552948120915182549451909516600160a01b026001600160e01b031990941694909216939093179190911790915582905b85811015612f2f5760405182906001600160a01b038916906000907fddf252ad1be2c89b69c2b068fc378daa952ba7f163c4a11628f55a4df523b3ef908290a4612ef36000888488612aa6565b612f0f5760405162461bcd60e51b8152600401610aa890613603565b81612f1981613824565b9250508080612f2790613824565b915050612ea6565b506001819055612094565b828054612f46906137e9565b90600052602060002090601f016020900481019282612f685760008555612fae565b82601f10612f815782800160ff19823516178555612fae565b82800160010185558215612fae579182015b82811115612fae578235825591602001919060010190612f93565b506116df9291505b808211156116df5760008155600101612fb6565b80356001600160a01b0381168114611ad357600080fd5b600082601f830112612ff257600080fd5b81356020613007613002836136ce565b61369e565b80838252828201915082860187848660051b890101111561302757600080fd5b60005b858110156130465781358452928401929084019060010161302a565b5090979650505050505050565b80358015158114611ad357600080fd5b803563ffffffff81168114611ad357600080fd5b80356001600160401b0381168114611ad357600080fd5b6000602082840312156130a057600080fd5b611acc82612fca565b600080604083850312156130bc57600080fd5b6130c583612fca565b91506130d360208401612fca565b90509250929050565b6000806000606084860312156130f157600080fd5b6130fa84612fca565b925061310860208501612fca565b9150604084013590509250925092565b6000806000806080858703121561312e57600080fd5b61313785612fca565b93506020613146818701612fca565b93506040860135925060608601356001600160401b038082111561316957600080fd5b818801915088601f83011261317d57600080fd5b81358181111561318f5761318f613895565b6131a1601f8201601f1916850161369e565b915080825289848285010111156131b757600080fd5b808484018584013760008482840101525080935050505092959194509250565b600080604083850312156131ea57600080fd5b6131f383612fca565b91506130d360208401613053565b6000806040838503121561321457600080fd5b61321d83612fca565b946020939093013593505050565b6000806040838503121561323e57600080fd5b82356001600160401b038082111561325557600080fd5b818501915085601f83011261326957600080fd5b81356020613279613002836136ce565b8083825282820191508286018a848660051b890101111561329957600080fd5b600096505b848710156132c3576132af81612fca565b83526001969096019591830191830161329e565b50965050860135925050808211156132da57600080fd5b506132e785828601612fe1565b9150509250929050565b60006020828403121561330357600080fd5b611acc82613053565b60006020828403121561331e57600080fd5b8135611acc816138ab565b60006020828403121561333b57600080fd5b8151611acc816138ab565b6000806020838503121561335957600080fd5b82356001600160401b038082111561337057600080fd5b818501915085601f83011261338457600080fd5b81358181111561339357600080fd5b8660208285010111156133a557600080fd5b60209290920196919550909350505050565b6000602082840312156133c957600080fd5b5035919050565b600080604083850312156133e357600080fd5b50508035926020909101359150565b60008060006060848603121561340757600080fd5b505081359360208301359350604090920135919050565b60006020828403121561343057600080fd5b611acc82613063565b600080600080600060a0868803121561345157600080fd5b61345a86613077565b945061346860208701613077565b935061347660408701613063565b925061348460608701613063565b915061349260808701613063565b90509295509295909350565b600081518084526134b68160208601602086016137a6565b601f01601f19169290920160200192915050565b600082516134dc8184602087016137a6565b6a2434b23232b7173539b7b760a91b920191825250600b01919050565b6000835161350b8184602088016137a6565b9190910191825250602001919050565b6001600160a01b038581168252841660208201526040810183905260806060820181905260009061354e9083018461349e565b9695505050505050565b602081526000611acc602083018461349e565b6020808252601e908201527f5468652063616c6c657220697320616e6f7468657220636f6e74726163740000604082015260600190565b60208082526012908201527172656163686564206d617820737570706c7960701b604082015260600190565b6020808252818101527f4f776e61626c653a2063616c6c6572206973206e6f7420746865206f776e6572604082015260600190565b60208082526033908201527f455243373231413a207472616e7366657220746f206e6f6e204552433732315260408201527232b1b2b4bb32b91034b6b83632b6b2b73a32b960691b606082015260800190565b60208082526028908201527f61646472657373657320646f6573206e6f74206d61746368206e756d536c6f746040820152670e640d8cadccee8d60c31b606082015260800190565b604051601f8201601f191681016001600160401b03811182821017156136c6576136c6613895565b604052919050565b60006001600160401b038211156136e7576136e7613895565b5060051b60200190565b60006001600160801b0380831681851680830382111561371357613713613853565b01949350505050565b6000821982111561372f5761372f613853565b500190565b60008261374357613743613869565b500490565b600081600019048311821515161561376257613762613853565b500290565b60006001600160801b038381169083168181101561378757613787613853565b039392505050565b6000828210156137a1576137a1613853565b500390565b60005b838110156137c15781810151838201526020016137a9565b8381111561126c5750506000910152565b6000816137e1576137e1613853565b506000190190565b600181811c908216806137fd57607f821691505b6020821081141561381e57634e487b7160e01b600052602260045260246000fd5b50919050565b600060001982141561383857613838613853565b5060010190565b60008261384e5761384e613869565b500690565b634e487b7160e01b600052601160045260246000fd5b634e487b7160e01b600052601260045260246000fd5b634e487b7160e01b600052603260045260246000fd5b634e487b7160e01b600052604160045260246000fd5b6001600160e01b03198116811461224257600080fdfea264697066735822122043c1ad25821c40c4159735216a10cf49c50680e7526ec27484b833f8de1f901464736f6c63430008070033",
			"opcodes": "PUSH2 0x160 PUSH1 0x40 MSTORE PUSH1 0x0 PUSH1 0x1 DUP2 SWAP1 SSTORE PUSH1 0x8 SSTORE PUSH1 0xF DUP1 SLOAD PUSH1 0xFF NOT AND SWAP1 SSTORE CALLVALUE DUP1 ISZERO PUSH3 0x26 JUMPI PUSH1 0x0 DUP1 REVERT JUMPDEST POP PUSH1 0x40 MLOAD PUSH3 0x3D51 CODESIZE SUB DUP1 PUSH3 0x3D51 DUP4 CODECOPY DUP2 ADD PUSH1 0x40 DUP2 SWAP1 MSTORE PUSH3 0x49 SWAP2 PUSH3 0x32A JUMP JUMPDEST PUSH1 0x40 MLOAD DUP1 PUSH1 0x40 ADD PUSH1 0x40 MSTORE DUP1 PUSH1 0x10 DUP2 MSTORE PUSH1 0x20 ADD PUSH16 0x536F756C5A204D6F6E6F676174617269 PUSH1 0x80 SHL DUP2 MSTORE POP PUSH1 0x40 MLOAD DUP1 PUSH1 0x40 ADD PUSH1 0x40 MSTORE DUP1 PUSH1 0x4 DUP2 MSTORE PUSH1 0x20 ADD PUSH4 0x534C5A4D PUSH1 0xE0 SHL DUP2 MSTORE POP DUP8 DUP8 PUSH3 0xAB PUSH3 0xA5 PUSH3 0x230 PUSH1 0x20 SHL PUSH1 0x20 SHR JUMP JUMPDEST PUSH3 0x234 JUMP JUMPDEST PUSH1 0x0 DUP2 GT PUSH3 0x118 JUMPI PUSH1 0x40 MLOAD PUSH3 0x461BCD PUSH1 0xE5 SHL DUP2 MSTORE PUSH1 0x20 PUSH1 0x4 DUP3 ADD MSTORE PUSH1 0x2E PUSH1 0x24 DUP3 ADD MSTORE PUSH32 0x455243373231413A20636F6C6C656374696F6E206D7573742068617665206120 PUSH1 0x44 DUP3 ADD MSTORE PUSH14 0x6E6F6E7A65726F20737570706C79 PUSH1 0x90 SHL PUSH1 0x64 DUP3 ADD MSTORE PUSH1 0x84 ADD JUMPDEST PUSH1 0x40 MLOAD DUP1 SWAP2 SUB SWAP1 REVERT JUMPDEST PUSH1 0x0 DUP3 GT PUSH3 0x17A JUMPI PUSH1 0x40 MLOAD PUSH3 0x461BCD PUSH1 0xE5 SHL DUP2 MSTORE PUSH1 0x20 PUSH1 0x4 DUP3 ADD MSTORE PUSH1 0x27 PUSH1 0x24 DUP3 ADD MSTORE PUSH32 0x455243373231413A206D61782062617463682073697A65206D75737420626520 PUSH1 0x44 DUP3 ADD MSTORE PUSH7 0x6E6F6E7A65726F PUSH1 0xC8 SHL PUSH1 0x64 DUP3 ADD MSTORE PUSH1 0x84 ADD PUSH3 0x10F JUMP JUMPDEST DUP4 MLOAD PUSH3 0x18F SWAP1 PUSH1 0x2 SWAP1 PUSH1 0x20 DUP8 ADD SWAP1 PUSH3 0x284 JUMP JUMPDEST POP DUP3 MLOAD PUSH3 0x1A5 SWAP1 PUSH1 0x3 SWAP1 PUSH1 0x20 DUP7 ADD SWAP1 PUSH3 0x284 JUMP JUMPDEST POP PUSH1 0xA0 SWAP2 SWAP1 SWAP2 MSTORE PUSH1 0x80 MSTORE POP POP PUSH1 0x1 PUSH1 0x9 SSTORE PUSH1 0xC0 DUP7 SWAP1 MSTORE PUSH2 0x120 DUP4 SWAP1 MSTORE PUSH2 0x140 DUP5 SWAP1 MSTORE PUSH2 0x100 DUP3 SWAP1 MSTORE PUSH1 0xE0 DUP2 SWAP1 MSTORE DUP5 DUP3 GT ISZERO PUSH3 0x224 JUMPI PUSH1 0x40 MLOAD PUSH3 0x461BCD PUSH1 0xE5 SHL DUP2 MSTORE PUSH1 0x20 PUSH1 0x4 DUP3 ADD MSTORE PUSH1 0x1D PUSH1 0x24 DUP3 ADD MSTORE PUSH32 0x6C617267657220636F6C6C656374696F6E2073697A65206E6565646564000000 PUSH1 0x44 DUP3 ADD MSTORE PUSH1 0x64 ADD PUSH3 0x10F JUMP JUMPDEST POP POP POP POP POP POP PUSH3 0x3B2 JUMP JUMPDEST CALLER SWAP1 JUMP JUMPDEST PUSH1 0x0 DUP1 SLOAD PUSH1 0x1 PUSH1 0x1 PUSH1 0xA0 SHL SUB DUP4 DUP2 AND PUSH1 0x1 PUSH1 0x1 PUSH1 0xA0 SHL SUB NOT DUP4 AND DUP2 OR DUP5 SSTORE PUSH1 0x40 MLOAD SWAP2 SWAP1 SWAP3 AND SWAP3 DUP4 SWAP2 PUSH32 0x8BE0079C531659141344CD1FD0A4F28419497F9722A3DAAFE3B4186F6B6457E0 SWAP2 SWAP1 LOG3 POP POP JUMP JUMPDEST DUP3 DUP1 SLOAD PUSH3 0x292 SWAP1 PUSH3 0x375 JUMP JUMPDEST SWAP1 PUSH1 0x0 MSTORE PUSH1 0x20 PUSH1 0x0 KECCAK256 SWAP1 PUSH1 0x1F ADD PUSH1 0x20 SWAP1 DIV DUP2 ADD SWAP3 DUP3 PUSH3 0x2B6 JUMPI PUSH1 0x0 DUP6 SSTORE PUSH3 0x301 JUMP JUMPDEST DUP3 PUSH1 0x1F LT PUSH3 0x2D1 JUMPI DUP1 MLOAD PUSH1 0xFF NOT AND DUP4 DUP1 ADD OR DUP6 SSTORE PUSH3 0x301 JUMP JUMPDEST DUP3 DUP1 ADD PUSH1 0x1 ADD DUP6 SSTORE DUP3 ISZERO PUSH3 0x301 JUMPI SWAP2 DUP3 ADD JUMPDEST DUP3 DUP2 GT ISZERO PUSH3 0x301 JUMPI DUP3 MLOAD DUP3 SSTORE SWAP2 PUSH1 0x20 ADD SWAP2 SWAP1 PUSH1 0x1 ADD SWAP1 PUSH3 0x2E4 JUMP JUMPDEST POP PUSH3 0x30F SWAP3 SWAP2 POP PUSH3 0x313 JUMP JUMPDEST POP SWAP1 JUMP JUMPDEST JUMPDEST DUP1 DUP3 GT ISZERO PUSH3 0x30F JUMPI PUSH1 0x0 DUP2 SSTORE PUSH1 0x1 ADD PUSH3 0x314 JUMP JUMPDEST PUSH1 0x0 DUP1 PUSH1 0x0 DUP1 PUSH1 0x0 DUP1 PUSH1 0xC0 DUP8 DUP10 SUB SLT ISZERO PUSH3 0x344 JUMPI PUSH1 0x0 DUP1 REVERT JUMPDEST DUP7 MLOAD SWAP6 POP PUSH1 0x20 DUP8 ADD MLOAD SWAP5 POP PUSH1 0x40 DUP8 ADD MLOAD SWAP4 POP PUSH1 0x60 DUP8 ADD MLOAD SWAP3 POP PUSH1 0x80 DUP8 ADD MLOAD SWAP2 POP PUSH1 0xA0 DUP8 ADD MLOAD SWAP1 POP SWAP3 SWAP6 POP SWAP3 SWAP6 POP SWAP3 SWAP6 JUMP JUMPDEST PUSH1 0x1 DUP2 DUP2 SHR SWAP1 DUP3 AND DUP1 PUSH3 0x38A JUMPI PUSH1 0x7F DUP3 AND SWAP2 POP JUMPDEST PUSH1 0x20 DUP3 LT DUP2 EQ ISZERO PUSH3 0x3AC JUMPI PUSH4 0x4E487B71 PUSH1 0xE0 SHL PUSH1 0x0 MSTORE PUSH1 0x22 PUSH1 0x4 MSTORE PUSH1 0x24 PUSH1 0x0 REVERT JUMPDEST POP SWAP2 SWAP1 POP JUMP JUMPDEST PUSH1 0x80 MLOAD PUSH1 0xA0 MLOAD PUSH1 0xC0 MLOAD PUSH1 0xE0 MLOAD PUSH2 0x100 MLOAD PUSH2 0x120 MLOAD PUSH2 0x140 MLOAD PUSH2 0x38F7 PUSH3 0x45A PUSH1 0x0 CODECOPY PUSH1 0x0 PUSH2 0x13E1 ADD MSTORE PUSH1 0x0 PUSH2 0x1968 ADD MSTORE PUSH1 0x0 PUSH2 0x151B ADD MSTORE PUSH1 0x0 PUSH2 0xEC9 ADD MSTORE PUSH1 0x0 DUP2 DUP2 PUSH2 0x601 ADD MSTORE DUP2 DUP2 PUSH2 0x15D5 ADD MSTORE PUSH2 0x1FFE ADD MSTORE PUSH1 0x0 DUP2 DUP2 PUSH2 0xF5F ADD MSTORE DUP2 DUP2 PUSH2 0xFED ADD MSTORE DUP2 DUP2 PUSH2 0x1025 ADD MSTORE DUP2 DUP2 PUSH2 0x292F ADD MSTORE DUP2 DUP2 PUSH2 0x2959 ADD MSTORE PUSH2 0x2D1D ADD MSTORE PUSH1 0x0 DUP2 DUP2 PUSH2 0x138E ADD MSTORE DUP2 DUP2 PUSH2 0x1915 ADD MSTORE DUP2 DUP2 PUSH2 0x1FAB ADD MSTORE DUP2 DUP2 PUSH2 0x2694 ADD MSTORE PUSH2 0x26C6 ADD MSTORE PUSH2 0x38F7 PUSH1 0x0 RETURN INVALID PUSH1 0x80 PUSH1 0x40 MSTORE PUSH1 0x4 CALLDATASIZE LT PUSH2 0x2AE JUMPI PUSH1 0x0 CALLDATALOAD PUSH1 0xE0 SHR DUP1 PUSH4 0x715018A6 GT PUSH2 0x175 JUMPI DUP1 PUSH4 0xA22CB465 GT PUSH2 0xDC JUMPI DUP1 PUSH4 0xCF3604DC GT PUSH2 0x95 JUMPI DUP1 PUSH4 0xE985E9C5 GT PUSH2 0x6F JUMPI DUP1 PUSH4 0xE985E9C5 EQ PUSH2 0x8E0 JUMPI DUP1 PUSH4 0xF2042589 EQ PUSH2 0x929 JUMPI DUP1 PUSH4 0xF2FDE38B EQ PUSH2 0x949 JUMPI DUP1 PUSH4 0xF8A987D8 EQ PUSH2 0x969 JUMPI PUSH1 0x0 DUP1 REVERT JUMPDEST DUP1 PUSH4 0xCF3604DC EQ PUSH2 0x88A JUMPI DUP1 PUSH4 0xD7224BA0 EQ PUSH2 0x8AA JUMPI DUP1 PUSH4 0xDC33E681 EQ PUSH2 0x8C0 JUMPI PUSH1 0x0 DUP1 REVERT JUMPDEST DUP1 PUSH4 0xA22CB465 EQ PUSH2 0x7DB JUMPI DUP1 PUSH4 0xAB580700 EQ PUSH2 0x7FB JUMPI DUP1 PUSH4 0xB88D4FDE EQ PUSH2 0x81B JUMPI DUP1 PUSH4 0xC87B56DD EQ PUSH2 0x83B JUMPI DUP1 PUSH4 0xCAF8A6D1 EQ PUSH2 0x85B JUMPI DUP1 PUSH4 0xCB91D8B3 EQ PUSH2 0x877 JUMPI PUSH1 0x0 DUP1 REVERT JUMPDEST DUP1 PUSH4 0x90AA0B0F GT PUSH2 0x12E JUMPI DUP1 PUSH4 0x90AA0B0F EQ PUSH2 0x661 JUMPI DUP1 PUSH4 0x917D009E EQ PUSH2 0x70C JUMPI DUP1 PUSH4 0x9231AB2A EQ PUSH2 0x72C JUMPI DUP1 PUSH4 0x95D89B41 EQ PUSH2 0x779 JUMPI DUP1 PUSH4 0x9B19251A EQ PUSH2 0x78E JUMPI DUP1 PUSH4 0x9F984FD6 EQ PUSH2 0x7BB JUMPI PUSH1 0x0 DUP1 REVERT JUMPDEST DUP1 PUSH4 0x715018A6 EQ PUSH2 0x5AB JUMPI DUP1 PUSH4 0x7A1C4A56 EQ PUSH2 0x5C0 JUMPI DUP1 PUSH4 0x868FF4A2 EQ PUSH2 0x5DC JUMPI DUP1 PUSH4 0x8BC35C2F EQ PUSH2 0x5EF JUMPI DUP1 PUSH4 0x8DA5CB5B EQ PUSH2 0x623 JUMPI DUP1 PUSH4 0x90028083 EQ PUSH2 0x641 JUMPI PUSH1 0x0 DUP1 REVERT JUMPDEST DUP1 PUSH4 0x42842E0E GT PUSH2 0x219 JUMPI DUP1 PUSH4 0x55F804B3 GT PUSH2 0x1D2 JUMPI DUP1 PUSH4 0x55F804B3 EQ PUSH2 0x4FA JUMPI DUP1 PUSH4 0x59F369FE EQ PUSH2 0x51A JUMPI DUP1 PUSH4 0x5CAE01D3 EQ PUSH2 0x535 JUMPI DUP1 PUSH4 0x6352211E EQ PUSH2 0x54B JUMPI DUP1 PUSH4 0x6EBC5601 EQ PUSH2 0x56B JUMPI DUP1 PUSH4 0x70A08231 EQ PUSH2 0x58B JUMPI PUSH1 0x0 DUP1 REVERT JUMPDEST DUP1 PUSH4 0x42842E0E EQ PUSH2 0x44D JUMPI DUP1 PUSH4 0x43070E97 EQ PUSH2 0x46D JUMPI DUP1 PUSH4 0x4D3554C3 EQ PUSH2 0x480 JUMPI DUP1 PUSH4 0x4F6CCCE7 EQ PUSH2 0x493 JUMPI DUP1 PUSH4 0x51830227 EQ PUSH2 0x4B3 JUMPI DUP1 PUSH4 0x52C9C209 EQ PUSH2 0x4CD JUMPI PUSH1 0x0 DUP1 REVERT JUMPDEST DUP1 PUSH4 0x23B872DD GT PUSH2 0x26B JUMPI DUP1 PUSH4 0x23B872DD EQ PUSH2 0x398 JUMPI DUP1 PUSH4 0x2D20FB60 EQ PUSH2 0x3B8 JUMPI DUP1 PUSH4 0x2F745C59 EQ PUSH2 0x3D8 JUMPI DUP1 PUSH4 0x375A069A EQ PUSH2 0x3F8 JUMPI DUP1 PUSH4 0x3CCFD60B EQ PUSH2 0x418 JUMPI DUP1 PUSH4 0x422030BA EQ PUSH2 0x42D JUMPI PUSH1 0x0 DUP1 REVERT JUMPDEST DUP1 PUSH4 0x1FFC9A7 EQ PUSH2 0x2B3 JUMPI DUP1 PUSH4 0x6FDDE03 EQ PUSH2 0x2E8 JUMPI DUP1 PUSH4 0x77AF430 EQ PUSH2 0x30A JUMPI DUP1 PUSH4 0x81812FC EQ PUSH2 0x321 JUMPI DUP1 PUSH4 0x95EA7B3 EQ PUSH2 0x359 JUMPI DUP1 PUSH4 0x18160DDD EQ PUSH2 0x379 JUMPI JUMPDEST PUSH1 0x0 DUP1 REVERT JUMPDEST CALLVALUE DUP1 ISZERO PUSH2 0x2BF JUMPI PUSH1 0x0 DUP1 REVERT JUMPDEST POP PUSH2 0x2D3 PUSH2 0x2CE CALLDATASIZE PUSH1 0x4 PUSH2 0x330C JUMP JUMPDEST PUSH2 0x97F JUMP JUMPDEST PUSH1 0x40 MLOAD SWAP1 ISZERO ISZERO DUP2 MSTORE PUSH1 0x20 ADD JUMPDEST PUSH1 0x40 MLOAD DUP1 SWAP2 SUB SWAP1 RETURN JUMPDEST CALLVALUE DUP1 ISZERO PUSH2 0x2F4 JUMPI PUSH1 0x0 DUP1 REVERT JUMPDEST POP PUSH2 0x2FD PUSH2 0x9EC JUMP JUMPDEST PUSH1 0x40 MLOAD PUSH2 0x2DF SWAP2 SWAP1 PUSH2 0x3558 JUMP JUMPDEST CALLVALUE DUP1 ISZERO PUSH2 0x316 JUMPI PUSH1 0x0 DUP1 REVERT JUMPDEST POP PUSH2 0x31F PUSH2 0xA7E JUMP JUMPDEST STOP JUMPDEST CALLVALUE DUP1 ISZERO PUSH2 0x32D JUMPI PUSH1 0x0 DUP1 REVERT JUMPDEST POP PUSH2 0x341 PUSH2 0x33C CALLDATASIZE PUSH1 0x4 PUSH2 0x33B7 JUMP JUMPDEST PUSH2 0xAE4 JUMP JUMPDEST PUSH1 0x40 MLOAD PUSH1 0x1 PUSH1 0x1 PUSH1 0xA0 SHL SUB SWAP1 SWAP2 AND DUP2 MSTORE PUSH1 0x20 ADD PUSH2 0x2DF JUMP JUMPDEST CALLVALUE DUP1 ISZERO PUSH2 0x365 JUMPI PUSH1 0x0 DUP1 REVERT JUMPDEST POP PUSH2 0x31F PUSH2 0x374 CALLDATASIZE PUSH1 0x4 PUSH2 0x3201 JUMP JUMPDEST PUSH2 0xB6F JUMP JUMPDEST CALLVALUE DUP1 ISZERO PUSH2 0x385 JUMPI PUSH1 0x0 DUP1 REVERT JUMPDEST POP PUSH1 0x1 SLOAD JUMPDEST PUSH1 0x40 MLOAD SWAP1 DUP2 MSTORE PUSH1 0x20 ADD PUSH2 0x2DF JUMP JUMPDEST CALLVALUE DUP1 ISZERO PUSH2 0x3A4 JUMPI PUSH1 0x0 DUP1 REVERT JUMPDEST POP PUSH2 0x31F PUSH2 0x3B3 CALLDATASIZE PUSH1 0x4 PUSH2 0x30DC JUMP JUMPDEST PUSH2 0xC87 JUMP JUMPDEST CALLVALUE DUP1 ISZERO PUSH2 0x3C4 JUMPI PUSH1 0x0 DUP1 REVERT JUMPDEST POP PUSH2 0x31F PUSH2 0x3D3 CALLDATASIZE PUSH1 0x4 PUSH2 0x33B7 JUMP JUMPDEST PUSH2 0xC92 JUMP JUMPDEST CALLVALUE DUP1 ISZERO PUSH2 0x3E4 JUMPI PUSH1 0x0 DUP1 REVERT JUMPDEST POP PUSH2 0x38A PUSH2 0x3F3 CALLDATASIZE PUSH1 0x4 PUSH2 0x3201 JUMP JUMPDEST PUSH2 0xD25 JUMP JUMPDEST CALLVALUE DUP1 ISZERO PUSH2 0x404 JUMPI PUSH1 0x0 DUP1 REVERT JUMPDEST POP PUSH2 0x31F PUSH2 0x413 CALLDATASIZE PUSH1 0x4 PUSH2 0x33B7 JUMP JUMPDEST PUSH2 0xE9D JUMP JUMPDEST CALLVALUE DUP1 ISZERO PUSH2 0x424 JUMPI PUSH1 0x0 DUP1 REVERT JUMPDEST POP PUSH2 0x31F PUSH2 0x105B JUMP JUMPDEST CALLVALUE DUP1 ISZERO PUSH2 0x439 JUMPI PUSH1 0x0 DUP1 REVERT JUMPDEST POP PUSH2 0x2D3 PUSH2 0x448 CALLDATASIZE PUSH1 0x4 PUSH2 0x33F2 JUMP JUMPDEST PUSH2 0x1272 JUMP JUMPDEST CALLVALUE DUP1 ISZERO PUSH2 0x459 JUMPI PUSH1 0x0 DUP1 REVERT JUMPDEST POP PUSH2 0x31F PUSH2 0x468 CALLDATASIZE PUSH1 0x4 PUSH2 0x30DC JUMP JUMPDEST PUSH2 0x1296 JUMP JUMPDEST PUSH2 0x31F PUSH2 0x47B CALLDATASIZE PUSH1 0x4 PUSH2 0x33B7 JUMP JUMPDEST PUSH2 0x12B1 JUMP JUMPDEST PUSH2 0x31F PUSH2 0x48E CALLDATASIZE PUSH1 0x4 PUSH2 0x33B7 JUMP JUMPDEST PUSH2 0x1496 JUMP JUMPDEST CALLVALUE DUP1 ISZERO PUSH2 0x49F JUMPI PUSH1 0x0 DUP1 REVERT JUMPDEST POP PUSH2 0x38A PUSH2 0x4AE CALLDATASIZE PUSH1 0x4 PUSH2 0x33B7 JUMP JUMPDEST PUSH2 0x167A JUMP JUMPDEST CALLVALUE DUP1 ISZERO PUSH2 0x4BF JUMPI PUSH1 0x0 DUP1 REVERT JUMPDEST POP PUSH1 0xF SLOAD PUSH2 0x2D3 SWAP1 PUSH1 0xFF AND DUP2 JUMP JUMPDEST CALLVALUE DUP1 ISZERO PUSH2 0x4D9 JUMPI PUSH1 0x0 DUP1 REVERT JUMPDEST POP PUSH2 0x38A PUSH2 0x4E8 CALLDATASIZE PUSH1 0x4 PUSH2 0x308E JUMP JUMPDEST PUSH1 0xD PUSH1 0x20 MSTORE PUSH1 0x0 SWAP1 DUP2 MSTORE PUSH1 0x40 SWAP1 KECCAK256 SLOAD DUP2 JUMP JUMPDEST CALLVALUE DUP1 ISZERO PUSH2 0x506 JUMPI PUSH1 0x0 DUP1 REVERT JUMPDEST POP PUSH2 0x31F PUSH2 0x515 CALLDATASIZE PUSH1 0x4 PUSH2 0x3346 JUMP JUMPDEST PUSH2 0x16E3 JUMP JUMPDEST CALLVALUE DUP1 ISZERO PUSH2 0x526 JUMPI PUSH1 0x0 DUP1 REVERT JUMPDEST POP PUSH2 0x38A PUSH7 0xB1A2BC2EC50000 DUP2 JUMP JUMPDEST CALLVALUE DUP1 ISZERO PUSH2 0x541 JUMPI PUSH1 0x0 DUP1 REVERT JUMPDEST POP PUSH2 0x38A PUSH2 0x708 DUP2 JUMP JUMPDEST CALLVALUE DUP1 ISZERO PUSH2 0x557 JUMPI PUSH1 0x0 DUP1 REVERT JUMPDEST POP PUSH2 0x341 PUSH2 0x566 CALLDATASIZE PUSH1 0x4 PUSH2 0x33B7 JUMP JUMPDEST PUSH2 0x1719 JUMP JUMPDEST CALLVALUE DUP1 ISZERO PUSH2 0x577 JUMPI PUSH1 0x0 DUP1 REVERT JUMPDEST POP PUSH2 0x31F PUSH2 0x586 CALLDATASIZE PUSH1 0x4 PUSH2 0x341E JUMP JUMPDEST PUSH2 0x172B JUMP JUMPDEST CALLVALUE DUP1 ISZERO PUSH2 0x597 JUMPI PUSH1 0x0 DUP1 REVERT JUMPDEST POP PUSH2 0x38A PUSH2 0x5A6 CALLDATASIZE PUSH1 0x4 PUSH2 0x308E JUMP JUMPDEST PUSH2 0x1771 JUMP JUMPDEST CALLVALUE DUP1 ISZERO PUSH2 0x5B7 JUMPI PUSH1 0x0 DUP1 REVERT JUMPDEST POP PUSH2 0x31F PUSH2 0x1802 JUMP JUMPDEST CALLVALUE DUP1 ISZERO PUSH2 0x5CC JUMPI PUSH1 0x0 DUP1 REVERT JUMPDEST POP PUSH2 0x38A PUSH8 0xA688906BD8B0000 DUP2 JUMP JUMPDEST PUSH2 0x31F PUSH2 0x5EA CALLDATASIZE PUSH1 0x4 PUSH2 0x33B7 JUMP JUMPDEST PUSH2 0x1838 JUMP JUMPDEST CALLVALUE DUP1 ISZERO PUSH2 0x5FB JUMPI PUSH1 0x0 DUP1 REVERT JUMPDEST POP PUSH2 0x38A PUSH32 0x0 DUP2 JUMP JUMPDEST CALLVALUE DUP1 ISZERO PUSH2 0x62F JUMPI PUSH1 0x0 DUP1 REVERT JUMPDEST POP PUSH1 0x0 SLOAD PUSH1 0x1 PUSH1 0x1 PUSH1 0xA0 SHL SUB AND PUSH2 0x341 JUMP JUMPDEST CALLVALUE DUP1 ISZERO PUSH2 0x64D JUMPI PUSH1 0x0 DUP1 REVERT JUMPDEST POP PUSH2 0x31F PUSH2 0x65C CALLDATASIZE PUSH1 0x4 PUSH2 0x341E JUMP JUMPDEST PUSH2 0x1A04 JUMP JUMPDEST CALLVALUE DUP1 ISZERO PUSH2 0x66D JUMPI PUSH1 0x0 DUP1 REVERT JUMPDEST POP PUSH1 0xA SLOAD PUSH1 0xB SLOAD PUSH2 0x6BE SWAP2 PUSH4 0xFFFFFFFF DUP1 DUP3 AND SWAP3 PUSH5 0x100000000 DUP4 DIV DUP3 AND SWAP3 PUSH1 0x1 PUSH1 0x40 SHL DUP1 DUP3 DIV DUP5 AND SWAP4 PUSH1 0x1 PUSH1 0x1 PUSH1 0x40 SHL SUB PUSH1 0x1 PUSH1 0x60 SHL DUP5 DIV DUP2 AND SWAP5 PUSH1 0x1 PUSH1 0xA0 SHL SWAP1 SWAP5 DIV DUP2 AND SWAP4 SWAP1 DUP2 AND SWAP3 SWAP1 DIV AND DUP8 JUMP JUMPDEST PUSH1 0x40 DUP1 MLOAD PUSH4 0xFFFFFFFF SWAP9 DUP10 AND DUP2 MSTORE SWAP7 DUP9 AND PUSH1 0x20 DUP9 ADD MSTORE SWAP5 DUP8 AND SWAP5 DUP7 ADD SWAP5 SWAP1 SWAP5 MSTORE PUSH1 0x1 PUSH1 0x1 PUSH1 0x40 SHL SUB SWAP3 DUP4 AND PUSH1 0x60 DUP7 ADD MSTORE SWAP1 DUP3 AND PUSH1 0x80 DUP6 ADD MSTORE AND PUSH1 0xA0 DUP4 ADD MSTORE SWAP1 SWAP2 AND PUSH1 0xC0 DUP3 ADD MSTORE PUSH1 0xE0 ADD PUSH2 0x2DF JUMP JUMPDEST CALLVALUE DUP1 ISZERO PUSH2 0x718 JUMPI PUSH1 0x0 DUP1 REVERT JUMPDEST POP PUSH2 0x38A PUSH2 0x727 CALLDATASIZE PUSH1 0x4 PUSH2 0x33B7 JUMP JUMPDEST PUSH2 0x1A54 JUMP JUMPDEST CALLVALUE DUP1 ISZERO PUSH2 0x738 JUMPI PUSH1 0x0 DUP1 REVERT JUMPDEST POP PUSH2 0x74C PUSH2 0x747 CALLDATASIZE PUSH1 0x4 PUSH2 0x33B7 JUMP JUMPDEST PUSH2 0x1AD8 JUMP JUMPDEST PUSH1 0x40 DUP1 MLOAD DUP3 MLOAD PUSH1 0x1 PUSH1 0x1 PUSH1 0xA0 SHL SUB AND DUP2 MSTORE PUSH1 0x20 SWAP3 DUP4 ADD MLOAD PUSH1 0x1 PUSH1 0x1 PUSH1 0x40 SHL SUB AND SWAP3 DUP2 ADD SWAP3 SWAP1 SWAP3 MSTORE ADD PUSH2 0x2DF JUMP JUMPDEST CALLVALUE DUP1 ISZERO PUSH2 0x785 JUMPI PUSH1 0x0 DUP1 REVERT JUMPDEST POP PUSH2 0x2FD PUSH2 0x1AF5 JUMP JUMPDEST CALLVALUE DUP1 ISZERO PUSH2 0x79A JUMPI PUSH1 0x0 DUP1 REVERT JUMPDEST POP PUSH2 0x38A PUSH2 0x7A9 CALLDATASIZE PUSH1 0x4 PUSH2 0x308E JUMP JUMPDEST PUSH1 0xC PUSH1 0x20 MSTORE PUSH1 0x0 SWAP1 DUP2 MSTORE PUSH1 0x40 SWAP1 KECCAK256 SLOAD DUP2 JUMP JUMPDEST CALLVALUE DUP1 ISZERO PUSH2 0x7C7 JUMPI PUSH1 0x0 DUP1 REVERT JUMPDEST POP PUSH2 0x31F PUSH2 0x7D6 CALLDATASIZE PUSH1 0x4 PUSH2 0x3439 JUMP JUMPDEST PUSH2 0x1B04 JUMP JUMPDEST CALLVALUE DUP1 ISZERO PUSH2 0x7E7 JUMPI PUSH1 0x0 DUP1 REVERT JUMPDEST POP PUSH2 0x31F PUSH2 0x7F6 CALLDATASIZE PUSH1 0x4 PUSH2 0x31D7 JUMP JUMPDEST PUSH2 0x1C15 JUMP JUMPDEST CALLVALUE DUP1 ISZERO PUSH2 0x807 JUMPI PUSH1 0x0 DUP1 REVERT JUMPDEST POP PUSH2 0x31F PUSH2 0x816 CALLDATASIZE PUSH1 0x4 PUSH2 0x322B JUMP JUMPDEST PUSH2 0x1CDA JUMP JUMPDEST CALLVALUE DUP1 ISZERO PUSH2 0x827 JUMPI PUSH1 0x0 DUP1 REVERT JUMPDEST POP PUSH2 0x31F PUSH2 0x836 CALLDATASIZE PUSH1 0x4 PUSH2 0x3118 JUMP JUMPDEST PUSH2 0x1DA0 JUMP JUMPDEST CALLVALUE DUP1 ISZERO PUSH2 0x847 JUMPI PUSH1 0x0 DUP1 REVERT JUMPDEST POP PUSH2 0x2FD PUSH2 0x856 CALLDATASIZE PUSH1 0x4 PUSH2 0x33B7 JUMP JUMPDEST PUSH2 0x1DD3 JUMP JUMPDEST CALLVALUE DUP1 ISZERO PUSH2 0x867 JUMPI PUSH1 0x0 DUP1 REVERT JUMPDEST POP PUSH2 0x38A PUSH8 0x2C68AF0BB140000 DUP2 JUMP JUMPDEST PUSH2 0x31F PUSH2 0x885 CALLDATASIZE PUSH1 0x4 PUSH2 0x33D0 JUMP JUMPDEST PUSH2 0x1E62 JUMP JUMPDEST CALLVALUE DUP1 ISZERO PUSH2 0x896 JUMPI PUSH1 0x0 DUP1 REVERT JUMPDEST POP PUSH2 0x31F PUSH2 0x8A5 CALLDATASIZE PUSH1 0x4 PUSH2 0x32F1 JUMP JUMPDEST PUSH2 0x209C JUMP JUMPDEST CALLVALUE DUP1 ISZERO PUSH2 0x8B6 JUMPI PUSH1 0x0 DUP1 REVERT JUMPDEST POP PUSH2 0x38A PUSH1 0x8 SLOAD DUP2 JUMP JUMPDEST CALLVALUE DUP1 ISZERO PUSH2 0x8CC JUMPI PUSH1 0x0 DUP1 REVERT JUMPDEST POP PUSH2 0x38A PUSH2 0x8DB CALLDATASIZE PUSH1 0x4 PUSH2 0x308E JUMP JUMPDEST PUSH2 0x20D9 JUMP JUMPDEST CALLVALUE DUP1 ISZERO PUSH2 0x8EC JUMPI PUSH1 0x0 DUP1 REVERT JUMPDEST POP PUSH2 0x2D3 PUSH2 0x8FB CALLDATASIZE PUSH1 0x4 PUSH2 0x30A9 JUMP JUMPDEST PUSH1 0x1 PUSH1 0x1 PUSH1 0xA0 SHL SUB SWAP2 DUP3 AND PUSH1 0x0 SWAP1 DUP2 MSTORE PUSH1 0x7 PUSH1 0x20 SWAP1 DUP2 MSTORE PUSH1 0x40 DUP1 DUP4 KECCAK256 SWAP4 SWAP1 SWAP5 AND DUP3 MSTORE SWAP2 SWAP1 SWAP2 MSTORE KECCAK256 SLOAD PUSH1 0xFF AND SWAP1 JUMP JUMPDEST CALLVALUE DUP1 ISZERO PUSH2 0x935 JUMPI PUSH1 0x0 DUP1 REVERT JUMPDEST POP PUSH2 0x31F PUSH2 0x944 CALLDATASIZE PUSH1 0x4 PUSH2 0x322B JUMP JUMPDEST PUSH2 0x20E4 JUMP JUMPDEST CALLVALUE DUP1 ISZERO PUSH2 0x955 JUMPI PUSH1 0x0 DUP1 REVERT JUMPDEST POP PUSH2 0x31F PUSH2 0x964 CALLDATASIZE PUSH1 0x4 PUSH2 0x308E JUMP JUMPDEST PUSH2 0x21AA JUMP JUMPDEST CALLVALUE DUP1 ISZERO PUSH2 0x975 JUMPI PUSH1 0x0 DUP1 REVERT JUMPDEST POP PUSH2 0x38A PUSH2 0xA8C0 DUP2 JUMP JUMPDEST PUSH1 0x0 PUSH1 0x1 PUSH1 0x1 PUSH1 0xE0 SHL SUB NOT DUP3 AND PUSH4 0x80AC58CD PUSH1 0xE0 SHL EQ DUP1 PUSH2 0x9B0 JUMPI POP PUSH1 0x1 PUSH1 0x1 PUSH1 0xE0 SHL SUB NOT DUP3 AND PUSH4 0x5B5E139F PUSH1 0xE0 SHL EQ JUMPDEST DUP1 PUSH2 0x9CB JUMPI POP PUSH1 0x1 PUSH1 0x1 PUSH1 0xE0 SHL SUB NOT DUP3 AND PUSH4 0x780E9D63 PUSH1 0xE0 SHL EQ JUMPDEST DUP1 PUSH2 0x9E6 JUMPI POP PUSH4 0x1FFC9A7 PUSH1 0xE0 SHL PUSH1 0x1 PUSH1 0x1 PUSH1 0xE0 SHL SUB NOT DUP4 AND EQ JUMPDEST SWAP3 SWAP2 POP POP JUMP JUMPDEST PUSH1 0x60 PUSH1 0x2 DUP1 SLOAD PUSH2 0x9FB SWAP1 PUSH2 0x37E9 JUMP JUMPDEST DUP1 PUSH1 0x1F ADD PUSH1 0x20 DUP1 SWAP2 DIV MUL PUSH1 0x20 ADD PUSH1 0x40 MLOAD SWAP1 DUP2 ADD PUSH1 0x40 MSTORE DUP1 SWAP3 SWAP2 SWAP1 DUP2 DUP2 MSTORE PUSH1 0x20 ADD DUP3 DUP1 SLOAD PUSH2 0xA27 SWAP1 PUSH2 0x37E9 JUMP JUMPDEST DUP1 ISZERO PUSH2 0xA74 JUMPI DUP1 PUSH1 0x1F LT PUSH2 0xA49 JUMPI PUSH2 0x100 DUP1 DUP4 SLOAD DIV MUL DUP4 MSTORE SWAP2 PUSH1 0x20 ADD SWAP2 PUSH2 0xA74 JUMP JUMPDEST DUP3 ADD SWAP2 SWAP1 PUSH1 0x0 MSTORE PUSH1 0x20 PUSH1 0x0 KECCAK256 SWAP1 JUMPDEST DUP2 SLOAD DUP2 MSTORE SWAP1 PUSH1 0x1 ADD SWAP1 PUSH1 0x20 ADD DUP1 DUP4 GT PUSH2 0xA57 JUMPI DUP3 SWAP1 SUB PUSH1 0x1F AND DUP3 ADD SWAP2 JUMPDEST POP POP POP POP POP SWAP1 POP SWAP1 JUMP JUMPDEST PUSH1 0x0 SLOAD PUSH1 0x1 PUSH1 0x1 PUSH1 0xA0 SHL SUB AND CALLER EQ PUSH2 0xAB1 JUMPI PUSH1 0x40 MLOAD PUSH3 0x461BCD PUSH1 0xE5 SHL DUP2 MSTORE PUSH1 0x4 ADD PUSH2 0xAA8 SWAP1 PUSH2 0x35CE JUMP JUMPDEST PUSH1 0x40 MLOAD DUP1 SWAP2 SUB SWAP1 REVERT JUMPDEST PUSH1 0x40 MLOAD SELFBALANCE SWAP1 CALLER SWAP1 DUP3 ISZERO PUSH2 0x8FC MUL SWAP1 DUP4 SWAP1 PUSH1 0x0 DUP2 DUP2 DUP2 DUP6 DUP9 DUP9 CALL SWAP4 POP POP POP POP ISZERO DUP1 ISZERO PUSH2 0xAE0 JUMPI RETURNDATASIZE PUSH1 0x0 DUP1 RETURNDATACOPY RETURNDATASIZE PUSH1 0x0 REVERT JUMPDEST POP POP JUMP JUMPDEST PUSH1 0x0 PUSH2 0xAF1 DUP3 PUSH1 0x1 SLOAD GT SWAP1 JUMP JUMPDEST PUSH2 0xB53 JUMPI PUSH1 0x40 MLOAD PUSH3 0x461BCD PUSH1 0xE5 SHL DUP2 MSTORE PUSH1 0x20 PUSH1 0x4 DUP3 ADD MSTORE PUSH1 0x2D PUSH1 0x24 DUP3 ADD MSTORE PUSH32 0x455243373231413A20617070726F76656420717565727920666F72206E6F6E65 PUSH1 0x44 DUP3 ADD MSTORE PUSH13 0x3C34B9BA32B73A103A37B5B2B7 PUSH1 0x99 SHL PUSH1 0x64 DUP3 ADD MSTORE PUSH1 0x84 ADD PUSH2 0xAA8 JUMP JUMPDEST POP PUSH1 0x0 SWAP1 DUP2 MSTORE PUSH1 0x6 PUSH1 0x20 MSTORE PUSH1 0x40 SWAP1 KECCAK256 SLOAD PUSH1 0x1 PUSH1 0x1 PUSH1 0xA0 SHL SUB AND SWAP1 JUMP JUMPDEST PUSH1 0x0 PUSH2 0xB7A DUP3 PUSH2 0x1719 JUMP JUMPDEST SWAP1 POP DUP1 PUSH1 0x1 PUSH1 0x1 PUSH1 0xA0 SHL SUB AND DUP4 PUSH1 0x1 PUSH1 0x1 PUSH1 0xA0 SHL SUB AND EQ ISZERO PUSH2 0xBE9 JUMPI PUSH1 0x40 MLOAD PUSH3 0x461BCD PUSH1 0xE5 SHL DUP2 MSTORE PUSH1 0x20 PUSH1 0x4 DUP3 ADD MSTORE PUSH1 0x22 PUSH1 0x24 DUP3 ADD MSTORE PUSH32 0x455243373231413A20617070726F76616C20746F2063757272656E74206F776E PUSH1 0x44 DUP3 ADD MSTORE PUSH2 0x32B9 PUSH1 0xF1 SHL PUSH1 0x64 DUP3 ADD MSTORE PUSH1 0x84 ADD PUSH2 0xAA8 JUMP JUMPDEST CALLER PUSH1 0x1 PUSH1 0x1 PUSH1 0xA0 SHL SUB DUP3 AND EQ DUP1 PUSH2 0xC05 JUMPI POP PUSH2 0xC05 DUP2 CALLER PUSH2 0x8FB JUMP JUMPDEST PUSH2 0xC77 JUMPI PUSH1 0x40 MLOAD PUSH3 0x461BCD PUSH1 0xE5 SHL DUP2 MSTORE PUSH1 0x20 PUSH1 0x4 DUP3 ADD MSTORE PUSH1 0x39 PUSH1 0x24 DUP3 ADD MSTORE PUSH32 0x455243373231413A20617070726F76652063616C6C6572206973206E6F74206F PUSH1 0x44 DUP3 ADD MSTORE PUSH32 0x776E6572206E6F7220617070726F76656420666F7220616C6C00000000000000 PUSH1 0x64 DUP3 ADD MSTORE PUSH1 0x84 ADD PUSH2 0xAA8 JUMP JUMPDEST PUSH2 0xC82 DUP4 DUP4 DUP4 PUSH2 0x2245 JUMP JUMPDEST POP POP POP JUMP JUMPDEST PUSH2 0xC82 DUP4 DUP4 DUP4 PUSH2 0x22A1 JUMP JUMPDEST PUSH1 0x0 SLOAD PUSH1 0x1 PUSH1 0x1 PUSH1 0xA0 SHL SUB AND CALLER EQ PUSH2 0xCBC JUMPI PUSH1 0x40 MLOAD PUSH3 0x461BCD PUSH1 0xE5 SHL DUP2 MSTORE PUSH1 0x4 ADD PUSH2 0xAA8 SWAP1 PUSH2 0x35CE JUMP JUMPDEST PUSH1 0x2 PUSH1 0x9 SLOAD EQ ISZERO PUSH2 0xD0F JUMPI PUSH1 0x40 MLOAD PUSH3 0x461BCD PUSH1 0xE5 SHL DUP2 MSTORE PUSH1 0x20 PUSH1 0x4 DUP3 ADD MSTORE PUSH1 0x1F PUSH1 0x24 DUP3 ADD MSTORE PUSH32 0x5265656E7472616E637947756172643A207265656E7472616E742063616C6C00 PUSH1 0x44 DUP3 ADD MSTORE PUSH1 0x64 ADD PUSH2 0xAA8 JUMP JUMPDEST PUSH1 0x2 PUSH1 0x9 SSTORE PUSH2 0xD1D DUP2 PUSH2 0x2623 JUMP JUMPDEST POP PUSH1 0x1 PUSH1 0x9 SSTORE JUMP JUMPDEST PUSH1 0x0 PUSH2 0xD30 DUP4 PUSH2 0x1771 JUMP JUMPDEST DUP3 LT PUSH2 0xD89 JUMPI PUSH1 0x40 MLOAD PUSH3 0x461BCD PUSH1 0xE5 SHL DUP2 MSTORE PUSH1 0x20 PUSH1 0x4 DUP3 ADD MSTORE PUSH1 0x22 PUSH1 0x24 DUP3 ADD MSTORE PUSH32 0x455243373231413A206F776E657220696E646578206F7574206F6620626F756E PUSH1 0x44 DUP3 ADD MSTORE PUSH2 0x6473 PUSH1 0xF0 SHL PUSH1 0x64 DUP3 ADD MSTORE PUSH1 0x84 ADD PUSH2 0xAA8 JUMP JUMPDEST PUSH1 0x0 PUSH2 0xD94 PUSH1 0x1 SLOAD SWAP1 JUMP JUMPDEST SWAP1 POP PUSH1 0x0 DUP1 PUSH1 0x0 JUMPDEST DUP4 DUP2 LT ISZERO PUSH2 0xE3D JUMPI PUSH1 0x0 DUP2 DUP2 MSTORE PUSH1 0x4 PUSH1 0x20 SWAP1 DUP2 MSTORE PUSH1 0x40 SWAP2 DUP3 SWAP1 KECCAK256 DUP3 MLOAD DUP1 DUP5 ADD SWAP1 SWAP4 MSTORE SLOAD PUSH1 0x1 PUSH1 0x1 PUSH1 0xA0 SHL SUB DUP2 AND DUP1 DUP5 MSTORE PUSH1 0x1 PUSH1 0xA0 SHL SWAP1 SWAP2 DIV PUSH1 0x1 PUSH1 0x1 PUSH1 0x40 SHL SUB AND SWAP2 DUP4 ADD SWAP2 SWAP1 SWAP2 MSTORE ISZERO PUSH2 0xDEE JUMPI DUP1 MLOAD SWAP3 POP JUMPDEST DUP8 PUSH1 0x1 PUSH1 0x1 PUSH1 0xA0 SHL SUB AND DUP4 PUSH1 0x1 PUSH1 0x1 PUSH1 0xA0 SHL SUB AND EQ ISZERO PUSH2 0xE2A JUMPI DUP7 DUP5 EQ ISZERO PUSH2 0xE1C JUMPI POP SWAP4 POP PUSH2 0x9E6 SWAP3 POP POP POP JUMP JUMPDEST DUP4 PUSH2 0xE26 DUP2 PUSH2 0x3824 JUMP JUMPDEST SWAP5 POP POP JUMPDEST POP DUP1 PUSH2 0xE35 DUP2 PUSH2 0x3824 JUMP JUMPDEST SWAP2 POP POP PUSH2 0xD9C JUMP JUMPDEST POP PUSH1 0x40 MLOAD PUSH3 0x461BCD PUSH1 0xE5 SHL DUP2 MSTORE PUSH1 0x20 PUSH1 0x4 DUP3 ADD MSTORE PUSH1 0x2E PUSH1 0x24 DUP3 ADD MSTORE PUSH32 0x455243373231413A20756E61626C6520746F2067657420746F6B656E206F6620 PUSH1 0x44 DUP3 ADD MSTORE PUSH14 0xDEEEDCCAE440C4F240D2DCC8CAF PUSH1 0x93 SHL PUSH1 0x64 DUP3 ADD MSTORE PUSH1 0x84 ADD PUSH2 0xAA8 JUMP JUMPDEST PUSH1 0x0 SLOAD PUSH1 0x1 PUSH1 0x1 PUSH1 0xA0 SHL SUB AND CALLER EQ PUSH2 0xEC7 JUMPI PUSH1 0x40 MLOAD PUSH3 0x461BCD PUSH1 0xE5 SHL DUP2 MSTORE PUSH1 0x4 ADD PUSH2 0xAA8 SWAP1 PUSH2 0x35CE JUMP JUMPDEST PUSH32 0x0 DUP2 PUSH2 0xEF2 PUSH1 0x1 SLOAD SWAP1 JUMP JUMPDEST PUSH2 0xEFC SWAP2 SWAP1 PUSH2 0x371C JUMP JUMPDEST GT ISZERO PUSH2 0xF5A JUMPI PUSH1 0x40 MLOAD PUSH3 0x461BCD PUSH1 0xE5 SHL DUP2 MSTORE PUSH1 0x20 PUSH1 0x4 DUP3 ADD MSTORE PUSH1 0x27 PUSH1 0x24 DUP3 ADD MSTORE PUSH32 0x746F6F206D616E7920616C7265616479206D696E746564206265666F72652064 PUSH1 0x44 DUP3 ADD MSTORE PUSH7 0x195D881B5A5B9D PUSH1 0xCA SHL PUSH1 0x64 DUP3 ADD MSTORE PUSH1 0x84 ADD PUSH2 0xAA8 JUMP JUMPDEST PUSH2 0xF84 PUSH32 0x0 DUP3 PUSH2 0x383F JUMP JUMPDEST ISZERO PUSH2 0xFE6 JUMPI PUSH1 0x40 MLOAD PUSH3 0x461BCD PUSH1 0xE5 SHL DUP2 MSTORE PUSH1 0x20 PUSH1 0x4 DUP3 ADD MSTORE PUSH1 0x2C PUSH1 0x24 DUP3 ADD MSTORE PUSH32 0x63616E206F6E6C79206D696E742061206D756C7469706C65206F662074686520 PUSH1 0x44 DUP3 ADD MSTORE PUSH12 0x6D6178426174636853697A65 PUSH1 0xA0 SHL PUSH1 0x64 DUP3 ADD MSTORE PUSH1 0x84 ADD PUSH2 0xAA8 JUMP JUMPDEST PUSH1 0x0 PUSH2 0x1012 PUSH32 0x0 DUP4 PUSH2 0x3734 JUMP JUMPDEST SWAP1 POP PUSH1 0x0 JUMPDEST DUP2 DUP2 LT ISZERO PUSH2 0xC82 JUMPI PUSH2 0x1049 CALLER PUSH32 0x0 PUSH2 0x280C JUMP JUMPDEST DUP1 PUSH2 0x1053 DUP2 PUSH2 0x3824 JUMP JUMPDEST SWAP2 POP POP PUSH2 0x1017 JUMP JUMPDEST PUSH1 0x0 SLOAD PUSH1 0x1 PUSH1 0x1 PUSH1 0xA0 SHL SUB AND CALLER EQ PUSH2 0x1085 JUMPI PUSH1 0x40 MLOAD PUSH3 0x461BCD PUSH1 0xE5 SHL DUP2 MSTORE PUSH1 0x4 ADD PUSH2 0xAA8 SWAP1 PUSH2 0x35CE JUMP JUMPDEST PUSH1 0x40 DUP1 MLOAD PUSH2 0x100 DUP1 DUP3 ADD DUP4 MSTORE PUSH20 0x2BC46E31A324AB9A208B3B0FB91958E390DC0797 DUP3 MSTORE PUSH20 0x897C456868D4888C258528F8660B932804CB6948 PUSH1 0x20 DUP1 DUP5 ADD SWAP2 SWAP1 SWAP2 MSTORE PUSH20 0xC0524078B6ABC601158BFC328C9A2B64EE376E23 DUP4 DUP6 ADD MSTORE PUSH20 0x8FE4A152939ECE65F1FC651E57B8AA84CFC137C2 PUSH1 0x60 DUP1 DUP6 ADD SWAP2 SWAP1 SWAP2 MSTORE PUSH20 0x29D54F704A4253B5C3A8AE6CBDFDB01472119713 PUSH1 0x80 DUP1 DUP7 ADD SWAP2 SWAP1 SWAP2 MSTORE PUSH20 0x896BABEE76DBDF3F6D3B7470AD1E47E8C2016BDB PUSH1 0xA0 DUP1 DUP8 ADD SWAP2 SWAP1 SWAP2 MSTORE PUSH20 0xE892C48B5CDD20F50DBFDF4A949C649AEE9F24DA PUSH1 0xC0 DUP1 DUP9 ADD SWAP2 SWAP1 SWAP2 MSTORE PUSH20 0x24E21AE83CCB58EBAE990CF1E014E062F6BB7B19 PUSH1 0xE0 DUP1 DUP10 ADD SWAP2 SWAP1 SWAP2 MSTORE DUP9 MLOAD SWAP7 DUP8 ADD DUP10 MSTORE PUSH1 0x2 DUP1 DUP9 MSTORE SWAP6 DUP8 ADD SWAP6 SWAP1 SWAP6 MSTORE PUSH1 0x3 SWAP8 DUP7 ADD DUP9 SWAP1 MSTORE SWAP3 DUP6 ADD SWAP7 SWAP1 SWAP7 MSTORE PUSH1 0xA SWAP1 DUP5 ADD MSTORE PUSH1 0x3C SWAP5 DUP4 ADD DUP6 SWAP1 MSTORE DUP3 ADD DUP5 SWAP1 MSTORE DUP2 ADD SWAP3 SWAP1 SWAP3 MSTORE SWAP1 SELFBALANCE PUSH1 0x0 JUMPDEST PUSH1 0x8 DUP2 LT ISZERO PUSH2 0x126C JUMPI PUSH1 0x0 PUSH2 0x11CC PUSH1 0x1 PUSH1 0x8 PUSH2 0x378F JUMP JUMPDEST DUP3 EQ PUSH2 0x1204 JUMPI PUSH1 0xC8 DUP5 DUP4 PUSH1 0x8 DUP2 LT PUSH2 0x11E6 JUMPI PUSH2 0x11E6 PUSH2 0x387F JUMP JUMPDEST PUSH1 0x20 MUL ADD MLOAD PUSH2 0x11F5 SWAP1 DUP6 PUSH2 0x3748 JUMP JUMPDEST PUSH2 0x11FF SWAP2 SWAP1 PUSH2 0x3734 JUMP JUMPDEST PUSH2 0x1206 JUMP JUMPDEST SELFBALANCE JUMPDEST SWAP1 POP DUP5 DUP3 PUSH1 0x8 DUP2 LT PUSH2 0x121A JUMPI PUSH2 0x121A PUSH2 0x387F JUMP JUMPDEST PUSH1 0x20 MUL ADD MLOAD PUSH1 0x1 PUSH1 0x1 PUSH1 0xA0 SHL SUB AND PUSH2 0x8FC DUP3 SWAP1 DUP2 ISZERO MUL SWAP1 PUSH1 0x40 MLOAD PUSH1 0x0 PUSH1 0x40 MLOAD DUP1 DUP4 SUB DUP2 DUP6 DUP9 DUP9 CALL SWAP4 POP POP POP POP ISZERO DUP1 ISZERO PUSH2 0x1257 JUMPI RETURNDATASIZE PUSH1 0x0 DUP1 RETURNDATACOPY RETURNDATASIZE PUSH1 0x0 REVERT JUMPDEST POP POP DUP1 DUP1 PUSH2 0x1264 SWAP1 PUSH2 0x3824 JUMP JUMPDEST SWAP2 POP POP PUSH2 0x11B5 JUMP JUMPDEST POP POP POP POP JUMP JUMPDEST PUSH1 0x0 DUP4 ISZERO DUP1 ISZERO SWAP1 PUSH2 0x1282 JUMPI POP DUP3 ISZERO ISZERO JUMPDEST DUP1 ISZERO PUSH2 0x128E JUMPI POP DUP2 TIMESTAMP LT ISZERO JUMPDEST SWAP5 SWAP4 POP POP POP POP JUMP JUMPDEST PUSH2 0xC82 DUP4 DUP4 DUP4 PUSH1 0x40 MLOAD DUP1 PUSH1 0x20 ADD PUSH1 0x40 MSTORE DUP1 PUSH1 0x0 DUP2 MSTORE POP PUSH2 0x1DA0 JUMP JUMPDEST ORIGIN CALLER EQ PUSH2 0x12D0 JUMPI PUSH1 0x40 MLOAD PUSH3 0x461BCD PUSH1 0xE5 SHL DUP2 MSTORE PUSH1 0x4 ADD PUSH2 0xAA8 SWAP1 PUSH2 0x356B JUMP JUMPDEST PUSH1 0xA SLOAD PUSH1 0x1 PUSH1 0xA0 SHL SWAP1 DIV PUSH1 0x1 PUSH1 0x1 PUSH1 0x40 SHL SUB AND DUP1 PUSH2 0x1330 JUMPI PUSH1 0x40 MLOAD PUSH3 0x461BCD PUSH1 0xE5 SHL DUP2 MSTORE PUSH1 0x20 PUSH1 0x4 DUP3 ADD DUP2 SWAP1 MSTORE PUSH1 0x24 DUP3 ADD MSTORE PUSH32 0x436F6C6C65637465642073616C6520686173206E6F7420626567756E20796574 PUSH1 0x44 DUP3 ADD MSTORE PUSH1 0x64 ADD PUSH2 0xAA8 JUMP JUMPDEST CALLER PUSH1 0x0 SWAP1 DUP2 MSTORE PUSH1 0xD PUSH1 0x20 MSTORE PUSH1 0x40 SWAP1 KECCAK256 SLOAD PUSH2 0x138C JUMPI PUSH1 0x40 MLOAD PUSH3 0x461BCD PUSH1 0xE5 SHL DUP2 MSTORE PUSH1 0x20 PUSH1 0x4 DUP3 ADD MSTORE PUSH1 0x1F PUSH1 0x24 DUP3 ADD MSTORE PUSH32 0x6E6F7420656C696769626C6520666F7220636F6C6C6563746564206D696E7400 PUSH1 0x44 DUP3 ADD MSTORE PUSH1 0x64 ADD PUSH2 0xAA8 JUMP JUMPDEST PUSH32 0x0 PUSH2 0x13B6 PUSH1 0x1 SLOAD SWAP1 JUMP JUMPDEST PUSH2 0x13C1 SWAP1 PUSH1 0x1 PUSH2 0x371C JUMP JUMPDEST GT ISZERO PUSH2 0x13DF JUMPI PUSH1 0x40 MLOAD PUSH3 0x461BCD PUSH1 0xE5 SHL DUP2 MSTORE PUSH1 0x4 ADD PUSH2 0xAA8 SWAP1 PUSH2 0x35A2 JUMP JUMPDEST PUSH32 0x0 DUP3 PUSH2 0x140A CALLER PUSH2 0x20D9 JUMP JUMPDEST PUSH2 0x1414 SWAP2 SWAP1 PUSH2 0x371C JUMP JUMPDEST GT ISZERO PUSH2 0x1462 JUMPI PUSH1 0x40 MLOAD PUSH3 0x461BCD PUSH1 0xE5 SHL DUP2 MSTORE PUSH1 0x20 PUSH1 0x4 DUP3 ADD DUP2 SWAP1 MSTORE PUSH1 0x24 DUP3 ADD MSTORE PUSH32 0x436F6C6C65637465642063616E206E6F74206D696E742074686973206D616E79 PUSH1 0x44 DUP3 ADD MSTORE PUSH1 0x64 ADD PUSH2 0xAA8 JUMP JUMPDEST CALLER PUSH1 0x0 SWAP1 DUP2 MSTORE PUSH1 0xD PUSH1 0x20 MSTORE PUSH1 0x40 DUP2 KECCAK256 DUP1 SLOAD SWAP2 PUSH2 0x147D DUP4 PUSH2 0x37D2 JUMP JUMPDEST SWAP2 SWAP1 POP SSTORE POP PUSH2 0x148D CALLER PUSH1 0x1 PUSH2 0x280C JUMP JUMPDEST PUSH2 0xAE0 DUP2 PUSH2 0x2826 JUMP JUMPDEST ORIGIN CALLER EQ PUSH2 0x14B5 JUMPI PUSH1 0x40 MLOAD PUSH3 0x461BCD PUSH1 0xE5 SHL DUP2 MSTORE PUSH1 0x4 ADD PUSH2 0xAA8 SWAP1 PUSH2 0x356B JUMP JUMPDEST PUSH1 0xA SLOAD PUSH4 0xFFFFFFFF AND DUP1 ISZERO DUP1 ISZERO SWAP1 PUSH2 0x14CD JUMPI POP DUP1 TIMESTAMP LT ISZERO JUMPDEST PUSH2 0x1519 JUMPI PUSH1 0x40 MLOAD PUSH3 0x461BCD PUSH1 0xE5 SHL DUP2 MSTORE PUSH1 0x20 PUSH1 0x4 DUP3 ADD MSTORE PUSH1 0x18 PUSH1 0x24 DUP3 ADD MSTORE PUSH32 0x73616C6520686173206E6F742073746172746564207965740000000000000000 PUSH1 0x44 DUP3 ADD MSTORE PUSH1 0x64 ADD PUSH2 0xAA8 JUMP JUMPDEST PUSH32 0x0 DUP3 PUSH2 0x1544 PUSH1 0x1 SLOAD SWAP1 JUMP JUMPDEST PUSH2 0x154E SWAP2 SWAP1 PUSH2 0x371C JUMP JUMPDEST GT ISZERO PUSH2 0x15D3 JUMPI PUSH1 0x40 MLOAD PUSH3 0x461BCD PUSH1 0xE5 SHL DUP2 MSTORE PUSH1 0x20 PUSH1 0x4 DUP3 ADD MSTORE PUSH1 0x48 PUSH1 0x24 DUP3 ADD MSTORE PUSH32 0x6E6F7420656E6F7567682072656D61696E696E6720726573657276656420666F PUSH1 0x44 DUP3 ADD MSTORE PUSH32 0x722061756374696F6E20746F20737570706F72742064657369726564206D696E PUSH1 0x64 DUP3 ADD MSTORE PUSH8 0x1D08185B5BDD5B9D PUSH1 0xC2 SHL PUSH1 0x84 DUP3 ADD MSTORE PUSH1 0xA4 ADD PUSH2 0xAA8 JUMP JUMPDEST PUSH32 0x0 DUP3 PUSH2 0x15FE CALLER PUSH2 0x20D9 JUMP JUMPDEST PUSH2 0x1608 SWAP2 SWAP1 PUSH2 0x371C JUMP JUMPDEST GT ISZERO PUSH2 0x164F JUMPI PUSH1 0x40 MLOAD PUSH3 0x461BCD PUSH1 0xE5 SHL DUP2 MSTORE PUSH1 0x20 PUSH1 0x4 DUP3 ADD MSTORE PUSH1 0x16 PUSH1 0x24 DUP3 ADD MSTORE PUSH22 0x63616E206E6F74206D696E742074686973206D616E79 PUSH1 0x50 SHL PUSH1 0x44 DUP3 ADD MSTORE PUSH1 0x64 ADD PUSH2 0xAA8 JUMP JUMPDEST PUSH1 0x0 DUP3 PUSH2 0x165B DUP4 PUSH2 0x1A54 JUMP JUMPDEST PUSH2 0x1665 SWAP2 SWAP1 PUSH2 0x3748 JUMP JUMPDEST SWAP1 POP PUSH2 0x1671 CALLER DUP5 PUSH2 0x280C JUMP JUMPDEST PUSH2 0xC82 DUP2 PUSH2 0x2826 JUMP JUMPDEST PUSH1 0x0 PUSH2 0x1685 PUSH1 0x1 SLOAD SWAP1 JUMP JUMPDEST DUP3 LT PUSH2 0x16DF JUMPI PUSH1 0x40 MLOAD PUSH3 0x461BCD PUSH1 0xE5 SHL DUP2 MSTORE PUSH1 0x20 PUSH1 0x4 DUP3 ADD MSTORE PUSH1 0x23 PUSH1 0x24 DUP3 ADD MSTORE PUSH32 0x455243373231413A20676C6F62616C20696E646578206F7574206F6620626F75 PUSH1 0x44 DUP3 ADD MSTORE PUSH3 0x6E6473 PUSH1 0xE8 SHL PUSH1 0x64 DUP3 ADD MSTORE PUSH1 0x84 ADD PUSH2 0xAA8 JUMP JUMPDEST POP SWAP1 JUMP JUMPDEST PUSH1 0x0 SLOAD PUSH1 0x1 PUSH1 0x1 PUSH1 0xA0 SHL SUB AND CALLER EQ PUSH2 0x170D JUMPI PUSH1 0x40 MLOAD PUSH3 0x461BCD PUSH1 0xE5 SHL DUP2 MSTORE PUSH1 0x4 ADD PUSH2 0xAA8 SWAP1 PUSH2 0x35CE JUMP JUMPDEST PUSH2 0xC82 PUSH1 0xE DUP4 DUP4 PUSH2 0x2F3A JUMP JUMPDEST PUSH1 0x0 PUSH2 0x1724 DUP3 PUSH2 0x28AD JUMP JUMPDEST MLOAD SWAP3 SWAP2 POP POP JUMP JUMPDEST PUSH1 0x0 SLOAD PUSH1 0x1 PUSH1 0x1 PUSH1 0xA0 SHL SUB AND CALLER EQ PUSH2 0x1755 JUMPI PUSH1 0x40 MLOAD PUSH3 0x461BCD PUSH1 0xE5 SHL DUP2 MSTORE PUSH1 0x4 ADD PUSH2 0xAA8 SWAP1 PUSH2 0x35CE JUMP JUMPDEST PUSH1 0xA DUP1 SLOAD PUSH4 0xFFFFFFFF NOT AND PUSH4 0xFFFFFFFF SWAP3 SWAP1 SWAP3 AND SWAP2 SWAP1 SWAP2 OR SWAP1 SSTORE JUMP JUMPDEST PUSH1 0x0 PUSH1 0x1 PUSH1 0x1 PUSH1 0xA0 SHL SUB DUP3 AND PUSH2 0x17DD JUMPI PUSH1 0x40 MLOAD PUSH3 0x461BCD PUSH1 0xE5 SHL DUP2 MSTORE PUSH1 0x20 PUSH1 0x4 DUP3 ADD MSTORE PUSH1 0x2B PUSH1 0x24 DUP3 ADD MSTORE PUSH32 0x455243373231413A2062616C616E636520717565727920666F7220746865207A PUSH1 0x44 DUP3 ADD MSTORE PUSH11 0x65726F2061646472657373 PUSH1 0xA8 SHL PUSH1 0x64 DUP3 ADD MSTORE PUSH1 0x84 ADD PUSH2 0xAA8 JUMP JUMPDEST POP PUSH1 0x1 PUSH1 0x1 PUSH1 0xA0 SHL SUB AND PUSH1 0x0 SWAP1 DUP2 MSTORE PUSH1 0x5 PUSH1 0x20 MSTORE PUSH1 0x40 SWAP1 KECCAK256 SLOAD PUSH1 0x1 PUSH1 0x1 PUSH1 0x80 SHL SUB AND SWAP1 JUMP JUMPDEST PUSH1 0x0 SLOAD PUSH1 0x1 PUSH1 0x1 PUSH1 0xA0 SHL SUB AND CALLER EQ PUSH2 0x182C JUMPI PUSH1 0x40 MLOAD PUSH3 0x461BCD PUSH1 0xE5 SHL DUP2 MSTORE PUSH1 0x4 ADD PUSH2 0xAA8 SWAP1 PUSH2 0x35CE JUMP JUMPDEST PUSH2 0x1836 PUSH1 0x0 PUSH2 0x2A56 JUMP JUMPDEST JUMP JUMPDEST ORIGIN CALLER EQ PUSH2 0x1857 JUMPI PUSH1 0x40 MLOAD PUSH3 0x461BCD PUSH1 0xE5 SHL DUP2 MSTORE PUSH1 0x4 ADD PUSH2 0xAA8 SWAP1 PUSH2 0x356B JUMP JUMPDEST PUSH1 0xA SLOAD PUSH1 0x1 PUSH1 0x60 SHL SWAP1 DIV PUSH1 0x1 PUSH1 0x1 PUSH1 0x40 SHL SUB AND DUP1 PUSH2 0x18B7 JUMPI PUSH1 0x40 MLOAD PUSH3 0x461BCD PUSH1 0xE5 SHL DUP2 MSTORE PUSH1 0x20 PUSH1 0x4 DUP3 ADD DUP2 SWAP1 MSTORE PUSH1 0x24 DUP3 ADD MSTORE PUSH32 0x77686974656C6973742073616C6520686173206E6F7420626567756E20796574 PUSH1 0x44 DUP3 ADD MSTORE PUSH1 0x64 ADD PUSH2 0xAA8 JUMP JUMPDEST CALLER PUSH1 0x0 SWAP1 DUP2 MSTORE PUSH1 0xC PUSH1 0x20 MSTORE PUSH1 0x40 SWAP1 KECCAK256 SLOAD PUSH2 0x1913 JUMPI PUSH1 0x40 MLOAD PUSH3 0x461BCD PUSH1 0xE5 SHL DUP2 MSTORE PUSH1 0x20 PUSH1 0x4 DUP3 ADD MSTORE PUSH1 0x1F PUSH1 0x24 DUP3 ADD MSTORE PUSH32 0x6E6F7420656C696769626C6520666F722077686974656C697374206D696E7400 PUSH1 0x44 DUP3 ADD MSTORE PUSH1 0x64 ADD PUSH2 0xAA8 JUMP JUMPDEST PUSH32 0x0 PUSH2 0x193D PUSH1 0x1 SLOAD SWAP1 JUMP JUMPDEST PUSH2 0x1948 SWAP1 PUSH1 0x1 PUSH2 0x371C JUMP JUMPDEST GT ISZERO PUSH2 0x1966 JUMPI PUSH1 0x40 MLOAD PUSH3 0x461BCD PUSH1 0xE5 SHL DUP2 MSTORE PUSH1 0x4 ADD PUSH2 0xAA8 SWAP1 PUSH2 0x35A2 JUMP JUMPDEST PUSH32 0x0 DUP3 PUSH2 0x1991 CALLER PUSH2 0x20D9 JUMP JUMPDEST PUSH2 0x199B SWAP2 SWAP1 PUSH2 0x371C JUMP JUMPDEST GT ISZERO PUSH2 0x19E9 JUMPI PUSH1 0x40 MLOAD PUSH3 0x461BCD PUSH1 0xE5 SHL DUP2 MSTORE PUSH1 0x20 PUSH1 0x4 DUP3 ADD MSTORE PUSH1 0x1F PUSH1 0x24 DUP3 ADD MSTORE PUSH32 0x417363656E6465642063616E206E6F74206D696E742074686973206D616E7900 PUSH1 0x44 DUP3 ADD MSTORE PUSH1 0x64 ADD PUSH2 0xAA8 JUMP JUMPDEST CALLER PUSH1 0x0 SWAP1 DUP2 MSTORE PUSH1 0xC PUSH1 0x20 MSTORE PUSH1 0x40 DUP2 KECCAK256 DUP1 SLOAD SWAP2 PUSH2 0x147D DUP4 PUSH2 0x37D2 JUMP JUMPDEST PUSH1 0x0 SLOAD PUSH1 0x1 PUSH1 0x1 PUSH1 0xA0 SHL SUB AND CALLER EQ PUSH2 0x1A2E JUMPI PUSH1 0x40 MLOAD PUSH3 0x461BCD PUSH1 0xE5 SHL DUP2 MSTORE PUSH1 0x4 ADD PUSH2 0xAA8 SWAP1 PUSH2 0x35CE JUMP JUMPDEST PUSH1 0xB DUP1 SLOAD PUSH4 0xFFFFFFFF SWAP1 SWAP3 AND PUSH1 0x1 PUSH1 0x40 SHL MUL PUSH4 0xFFFFFFFF PUSH1 0x40 SHL NOT SWAP1 SWAP3 AND SWAP2 SWAP1 SWAP2 OR SWAP1 SSTORE JUMP JUMPDEST PUSH1 0x0 DUP2 TIMESTAMP LT ISZERO PUSH2 0x1A6D JUMPI POP PUSH8 0xA688906BD8B0000 SWAP2 SWAP1 POP JUMP JUMPDEST PUSH2 0xA8C0 PUSH2 0x1A7A DUP4 TIMESTAMP PUSH2 0x378F JUMP JUMPDEST LT PUSH2 0x1A8E JUMPI POP PUSH8 0x2C68AF0BB140000 SWAP2 SWAP1 POP JUMP JUMPDEST PUSH1 0x0 PUSH2 0x708 PUSH2 0x1A9D DUP5 TIMESTAMP PUSH2 0x378F JUMP JUMPDEST PUSH2 0x1AA7 SWAP2 SWAP1 PUSH2 0x3734 JUMP JUMPDEST SWAP1 POP PUSH2 0x1ABA PUSH7 0xB1A2BC2EC50000 DUP3 PUSH2 0x3748 JUMP JUMPDEST PUSH2 0x1ACC SWAP1 PUSH8 0xA688906BD8B0000 PUSH2 0x378F JUMP JUMPDEST SWAP4 SWAP3 POP POP POP JUMP JUMPDEST SWAP2 SWAP1 POP JUMP JUMPDEST PUSH1 0x40 DUP1 MLOAD DUP1 DUP3 ADD SWAP1 SWAP2 MSTORE PUSH1 0x0 DUP1 DUP3 MSTORE PUSH1 0x20 DUP3 ADD MSTORE PUSH2 0x9E6 DUP3 PUSH2 0x28AD JUMP JUMPDEST PUSH1 0x60 PUSH1 0x3 DUP1 SLOAD PUSH2 0x9FB SWAP1 PUSH2 0x37E9 JUMP JUMPDEST PUSH1 0x0 SLOAD PUSH1 0x1 PUSH1 0x1 PUSH1 0xA0 SHL SUB AND CALLER EQ PUSH2 0x1B2E JUMPI PUSH1 0x40 MLOAD PUSH3 0x461BCD PUSH1 0xE5 SHL DUP2 MSTORE PUSH1 0x4 ADD PUSH2 0xAA8 SWAP1 PUSH2 0x35CE JUMP JUMPDEST PUSH1 0x40 DUP1 MLOAD PUSH1 0xE0 DUP2 ADD DUP3 MSTORE PUSH1 0x0 DUP2 MSTORE PUSH4 0xFFFFFFFF SWAP3 DUP4 AND PUSH1 0x20 DUP3 ADD DUP2 SWAP1 MSTORE SWAP5 DUP4 AND SWAP2 DUP2 ADD DUP3 SWAP1 MSTORE SWAP3 DUP3 AND PUSH1 0x60 DUP5 ADD DUP2 SWAP1 MSTORE PUSH1 0x1 PUSH1 0x1 PUSH1 0x40 SHL SUB SWAP7 DUP8 AND PUSH1 0x80 DUP6 ADD DUP2 SWAP1 MSTORE SWAP6 SWAP1 SWAP7 AND PUSH1 0xA0 DUP5 ADD DUP2 SWAP1 MSTORE PUSH1 0xB DUP1 SLOAD PUSH1 0x1 PUSH1 0x40 SHL DUP1 DUP3 DIV SWAP1 SWAP6 AND PUSH1 0xC0 SWAP1 SWAP7 ADD DUP7 SWAP1 MSTORE PUSH1 0xA DUP1 SLOAD PUSH12 0xFFFFFFFFFFFFFFFFFFFFFFFF NOT SWAP1 DUP2 AND PUSH5 0x100000000 SWAP1 SWAP10 MUL PUSH4 0xFFFFFFFF PUSH1 0x40 SHL NOT AND SWAP9 SWAP1 SWAP9 OR SWAP5 DUP7 MUL SWAP5 SWAP1 SWAP5 OR PUSH16 0xFFFFFFFFFFFFFFFFFFFFFFFFFFFFFFFF PUSH1 0x60 SHL NOT AND PUSH1 0x1 PUSH1 0x60 SHL SWAP1 SWAP10 MUL PUSH8 0xFFFFFFFFFFFFFFFF PUSH1 0xA0 SHL NOT AND SWAP9 SWAP1 SWAP9 OR PUSH1 0x1 PUSH1 0xA0 SHL SWAP1 SWAP8 MUL SWAP7 SWAP1 SWAP7 OR SWAP1 SWAP2 SSTORE SWAP3 SWAP1 SWAP5 AND SWAP1 SWAP2 OR SWAP3 MUL SWAP2 SWAP1 SWAP2 OR SWAP1 SSTORE JUMP JUMPDEST PUSH1 0x1 PUSH1 0x1 PUSH1 0xA0 SHL SUB DUP3 AND CALLER EQ ISZERO PUSH2 0x1C6E JUMPI PUSH1 0x40 MLOAD PUSH3 0x461BCD PUSH1 0xE5 SHL DUP2 MSTORE PUSH1 0x20 PUSH1 0x4 DUP3 ADD MSTORE PUSH1 0x1A PUSH1 0x24 DUP3 ADD MSTORE PUSH32 0x455243373231413A20617070726F766520746F2063616C6C6572000000000000 PUSH1 0x44 DUP3 ADD MSTORE PUSH1 0x64 ADD PUSH2 0xAA8 JUMP JUMPDEST CALLER PUSH1 0x0 DUP2 DUP2 MSTORE PUSH1 0x7 PUSH1 0x20 SWAP1 DUP2 MSTORE PUSH1 0x40 DUP1 DUP4 KECCAK256 PUSH1 0x1 PUSH1 0x1 PUSH1 0xA0 SHL SUB DUP8 AND DUP1 DUP6 MSTORE SWAP1 DUP4 MSTORE SWAP3 DUP2 SWAP1 KECCAK256 DUP1 SLOAD PUSH1 0xFF NOT AND DUP7 ISZERO ISZERO SWAP1 DUP2 OR SWAP1 SWAP2 SSTORE SWAP1 MLOAD SWAP1 DUP2 MSTORE SWAP2 SWAP3 SWAP2 PUSH32 0x17307EAB39AB6107E8899845AD3D59BD9653F200F220920489CA2B5937696C31 SWAP2 ADD PUSH1 0x40 MLOAD DUP1 SWAP2 SUB SWAP1 LOG3 POP POP JUMP JUMPDEST PUSH1 0x0 SLOAD PUSH1 0x1 PUSH1 0x1 PUSH1 0xA0 SHL SUB AND CALLER EQ PUSH2 0x1D04 JUMPI PUSH1 0x40 MLOAD PUSH3 0x461BCD PUSH1 0xE5 SHL DUP2 MSTORE PUSH1 0x4 ADD PUSH2 0xAA8 SWAP1 PUSH2 0x35CE JUMP JUMPDEST DUP1 MLOAD DUP3 MLOAD EQ PUSH2 0x1D25 JUMPI PUSH1 0x40 MLOAD PUSH3 0x461BCD PUSH1 0xE5 SHL DUP2 MSTORE PUSH1 0x4 ADD PUSH2 0xAA8 SWAP1 PUSH2 0x3656 JUMP JUMPDEST PUSH1 0x0 JUMPDEST DUP3 MLOAD DUP2 LT ISZERO PUSH2 0xC82 JUMPI DUP2 DUP2 DUP2 MLOAD DUP2 LT PUSH2 0x1D43 JUMPI PUSH2 0x1D43 PUSH2 0x387F JUMP JUMPDEST PUSH1 0x20 MUL PUSH1 0x20 ADD ADD MLOAD PUSH1 0xC PUSH1 0x0 DUP6 DUP5 DUP2 MLOAD DUP2 LT PUSH2 0x1D61 JUMPI PUSH2 0x1D61 PUSH2 0x387F JUMP JUMPDEST PUSH1 0x20 MUL PUSH1 0x20 ADD ADD MLOAD PUSH1 0x1 PUSH1 0x1 PUSH1 0xA0 SHL SUB AND PUSH1 0x1 PUSH1 0x1 PUSH1 0xA0 SHL SUB AND DUP2 MSTORE PUSH1 0x20 ADD SWAP1 DUP2 MSTORE PUSH1 0x20 ADD PUSH1 0x0 KECCAK256 DUP2 SWAP1 SSTORE POP DUP1 DUP1 PUSH2 0x1D98 SWAP1 PUSH2 0x3824 JUMP JUMPDEST SWAP2 POP POP PUSH2 0x1D28 JUMP JUMPDEST PUSH2 0x1DAB DUP5 DUP5 DUP5 PUSH2 0x22A1 JUMP JUMPDEST PUSH2 0x1DB7 DUP5 DUP5 DUP5 DUP5 PUSH2 0x2AA6 JUMP JUMPDEST PUSH2 0x126C JUMPI PUSH1 0x40 MLOAD PUSH3 0x461BCD PUSH1 0xE5 SHL DUP2 MSTORE PUSH1 0x4 ADD PUSH2 0xAA8 SWAP1 PUSH2 0x3603 JUMP JUMPDEST PUSH1 0xF SLOAD PUSH1 0x60 SWAP1 PUSH1 0xFF AND ISZERO PUSH2 0x1E34 JUMPI PUSH1 0x0 PUSH2 0x1DEB PUSH2 0x2BB3 JUMP JUMPDEST SWAP1 POP PUSH1 0x0 DUP2 MLOAD GT PUSH2 0x1E0B JUMPI PUSH1 0x40 MLOAD DUP1 PUSH1 0x20 ADD PUSH1 0x40 MSTORE DUP1 PUSH1 0x0 DUP2 MSTORE POP PUSH2 0x1ACC JUMP JUMPDEST DUP1 DUP4 PUSH1 0x40 MLOAD PUSH1 0x20 ADD PUSH2 0x1E1E SWAP3 SWAP2 SWAP1 PUSH2 0x34F9 JUMP JUMPDEST PUSH1 0x40 MLOAD PUSH1 0x20 DUP2 DUP4 SUB SUB DUP2 MSTORE SWAP1 PUSH1 0x40 MSTORE SWAP4 SWAP3 POP POP POP JUMP JUMPDEST PUSH2 0x1E3C PUSH2 0x2BB3 JUMP JUMPDEST PUSH1 0x40 MLOAD PUSH1 0x20 ADD PUSH2 0x1E4C SWAP2 SWAP1 PUSH2 0x34CA JUMP JUMPDEST PUSH1 0x40 MLOAD PUSH1 0x20 DUP2 DUP4 SUB SUB DUP2 MSTORE SWAP1 PUSH1 0x40 MSTORE SWAP1 POP SWAP2 SWAP1 POP JUMP JUMPDEST ORIGIN CALLER EQ PUSH2 0x1E81 JUMPI PUSH1 0x40 MLOAD PUSH3 0x461BCD PUSH1 0xE5 SHL DUP2 MSTORE PUSH1 0x4 ADD PUSH2 0xAA8 SWAP1 PUSH2 0x356B JUMP JUMPDEST PUSH1 0x40 DUP1 MLOAD PUSH1 0xE0 DUP2 ADD DUP3 MSTORE PUSH1 0xA SLOAD PUSH4 0xFFFFFFFF DUP1 DUP3 AND DUP4 MSTORE PUSH5 0x100000000 DUP3 DIV DUP2 AND PUSH1 0x20 DUP5 ADD MSTORE PUSH1 0x1 PUSH1 0x40 SHL DUP1 DUP4 DIV DUP3 AND SWAP5 DUP5 ADD DUP6 SWAP1 MSTORE PUSH1 0x1 PUSH1 0x1 PUSH1 0x40 SHL SUB PUSH1 0x1 PUSH1 0x60 SHL DUP5 DIV DUP2 AND PUSH1 0x60 DUP7 ADD MSTORE PUSH1 0x1 PUSH1 0xA0 SHL SWAP1 SWAP4 DIV DUP4 AND PUSH1 0x80 DUP6 ADD MSTORE PUSH1 0xB SLOAD SWAP3 DUP4 AND PUSH1 0xA0 DUP6 ADD DUP2 SWAP1 MSTORE SWAP3 DIV AND PUSH1 0xC0 DUP4 ADD DUP2 SWAP1 MSTORE SWAP2 SWAP3 DUP5 DUP4 EQ PUSH2 0x1F52 JUMPI PUSH1 0x40 MLOAD PUSH3 0x461BCD PUSH1 0xE5 SHL DUP2 MSTORE PUSH1 0x20 PUSH1 0x4 DUP3 ADD MSTORE PUSH1 0x25 PUSH1 0x24 DUP3 ADD MSTORE PUSH32 0x63616C6C6564207769746820696E636F7272656374207075626C69632073616C PUSH1 0x44 DUP3 ADD MSTORE PUSH5 0x65206B6579 PUSH1 0xD8 SHL PUSH1 0x64 DUP3 ADD MSTORE PUSH1 0x84 ADD PUSH2 0xAA8 JUMP JUMPDEST PUSH2 0x1F5D DUP3 DUP5 DUP4 PUSH2 0x1272 JUMP JUMPDEST PUSH2 0x1FA9 JUMPI PUSH1 0x40 MLOAD PUSH3 0x461BCD PUSH1 0xE5 SHL DUP2 MSTORE PUSH1 0x20 PUSH1 0x4 DUP3 ADD MSTORE PUSH1 0x1D PUSH1 0x24 DUP3 ADD MSTORE PUSH32 0x7075626C69632073616C6520686173206E6F7420626567756E20796574000000 PUSH1 0x44 DUP3 ADD MSTORE PUSH1 0x64 ADD PUSH2 0xAA8 JUMP JUMPDEST PUSH32 0x0 DUP7 PUSH2 0x1FD4 PUSH1 0x1 SLOAD SWAP1 JUMP JUMPDEST PUSH2 0x1FDE SWAP2 SWAP1 PUSH2 0x371C JUMP JUMPDEST GT ISZERO PUSH2 0x1FFC JUMPI PUSH1 0x40 MLOAD PUSH3 0x461BCD PUSH1 0xE5 SHL DUP2 MSTORE PUSH1 0x4 ADD PUSH2 0xAA8 SWAP1 PUSH2 0x35A2 JUMP JUMPDEST PUSH32 0x0 DUP7 PUSH2 0x2027 CALLER PUSH2 0x20D9 JUMP JUMPDEST PUSH2 0x2031 SWAP2 SWAP1 PUSH2 0x371C JUMP JUMPDEST GT ISZERO PUSH2 0x2078 JUMPI PUSH1 0x40 MLOAD PUSH3 0x461BCD PUSH1 0xE5 SHL DUP2 MSTORE PUSH1 0x20 PUSH1 0x4 DUP3 ADD MSTORE PUSH1 0x16 PUSH1 0x24 DUP3 ADD MSTORE PUSH22 0x63616E206E6F74206D696E742074686973206D616E79 PUSH1 0x50 SHL PUSH1 0x44 DUP3 ADD MSTORE PUSH1 0x64 ADD PUSH2 0xAA8 JUMP JUMPDEST PUSH2 0x2082 CALLER DUP8 PUSH2 0x280C JUMP JUMPDEST PUSH2 0x2094 PUSH2 0x208F DUP8 DUP5 PUSH2 0x3748 JUMP JUMPDEST PUSH2 0x2826 JUMP JUMPDEST POP POP POP POP POP POP JUMP JUMPDEST PUSH1 0x0 SLOAD PUSH1 0x1 PUSH1 0x1 PUSH1 0xA0 SHL SUB AND CALLER EQ PUSH2 0x20C6 JUMPI PUSH1 0x40 MLOAD PUSH3 0x461BCD PUSH1 0xE5 SHL DUP2 MSTORE PUSH1 0x4 ADD PUSH2 0xAA8 SWAP1 PUSH2 0x35CE JUMP JUMPDEST PUSH1 0xF DUP1 SLOAD PUSH1 0xFF NOT AND SWAP2 ISZERO ISZERO SWAP2 SWAP1 SWAP2 OR SWAP1 SSTORE JUMP JUMPDEST PUSH1 0x0 PUSH2 0x9E6 DUP3 PUSH2 0x2BC2 JUMP JUMPDEST PUSH1 0x0 SLOAD PUSH1 0x1 PUSH1 0x1 PUSH1 0xA0 SHL SUB AND CALLER EQ PUSH2 0x210E JUMPI PUSH1 0x40 MLOAD PUSH3 0x461BCD PUSH1 0xE5 SHL DUP2 MSTORE PUSH1 0x4 ADD PUSH2 0xAA8 SWAP1 PUSH2 0x35CE JUMP JUMPDEST DUP1 MLOAD DUP3 MLOAD EQ PUSH2 0x212F JUMPI PUSH1 0x40 MLOAD PUSH3 0x461BCD PUSH1 0xE5 SHL DUP2 MSTORE PUSH1 0x4 ADD PUSH2 0xAA8 SWAP1 PUSH2 0x3656 JUMP JUMPDEST PUSH1 0x0 JUMPDEST DUP3 MLOAD DUP2 LT ISZERO PUSH2 0xC82 JUMPI DUP2 DUP2 DUP2 MLOAD DUP2 LT PUSH2 0x214D JUMPI PUSH2 0x214D PUSH2 0x387F JUMP JUMPDEST PUSH1 0x20 MUL PUSH1 0x20 ADD ADD MLOAD PUSH1 0xD PUSH1 0x0 DUP6 DUP5 DUP2 MLOAD DUP2 LT PUSH2 0x216B JUMPI PUSH2 0x216B PUSH2 0x387F JUMP JUMPDEST PUSH1 0x20 MUL PUSH1 0x20 ADD ADD MLOAD PUSH1 0x1 PUSH1 0x1 PUSH1 0xA0 SHL SUB AND PUSH1 0x1 PUSH1 0x1 PUSH1 0xA0 SHL SUB AND DUP2 MSTORE PUSH1 0x20 ADD SWAP1 DUP2 MSTORE PUSH1 0x20 ADD PUSH1 0x0 KECCAK256 DUP2 SWAP1 SSTORE POP DUP1 DUP1 PUSH2 0x21A2 SWAP1 PUSH2 0x3824 JUMP JUMPDEST SWAP2 POP POP PUSH2 0x2132 JUMP JUMPDEST PUSH1 0x0 SLOAD PUSH1 0x1 PUSH1 0x1 PUSH1 0xA0 SHL SUB AND CALLER EQ PUSH2 0x21D4 JUMPI PUSH1 0x40 MLOAD PUSH3 0x461BCD PUSH1 0xE5 SHL DUP2 MSTORE PUSH1 0x4 ADD PUSH2 0xAA8 SWAP1 PUSH2 0x35CE JUMP JUMPDEST PUSH1 0x1 PUSH1 0x1 PUSH1 0xA0 SHL SUB DUP2 AND PUSH2 0x2239 JUMPI PUSH1 0x40 MLOAD PUSH3 0x461BCD PUSH1 0xE5 SHL DUP2 MSTORE PUSH1 0x20 PUSH1 0x4 DUP3 ADD MSTORE PUSH1 0x26 PUSH1 0x24 DUP3 ADD MSTORE PUSH32 0x4F776E61626C653A206E6577206F776E657220697320746865207A65726F2061 PUSH1 0x44 DUP3 ADD MSTORE PUSH6 0x646472657373 PUSH1 0xD0 SHL PUSH1 0x64 DUP3 ADD MSTORE PUSH1 0x84 ADD PUSH2 0xAA8 JUMP JUMPDEST PUSH2 0x2242 DUP2 PUSH2 0x2A56 JUMP JUMPDEST POP JUMP JUMPDEST PUSH1 0x0 DUP3 DUP2 MSTORE PUSH1 0x6 PUSH1 0x20 MSTORE PUSH1 0x40 DUP1 DUP3 KECCAK256 DUP1 SLOAD PUSH1 0x1 PUSH1 0x1 PUSH1 0xA0 SHL SUB NOT AND PUSH1 0x1 PUSH1 0x1 PUSH1 0xA0 SHL SUB DUP8 DUP2 AND SWAP2 DUP3 OR SWAP1 SWAP3 SSTORE SWAP2 MLOAD DUP6 SWAP4 SWAP2 DUP6 AND SWAP2 PUSH32 0x8C5BE1E5EBEC7D5BD14F71427D1E84F3DD0314C0F7B2291E5B200AC8C7C3B925 SWAP2 LOG4 POP POP POP JUMP JUMPDEST PUSH1 0x0 PUSH2 0x22AC DUP3 PUSH2 0x28AD JUMP JUMPDEST DUP1 MLOAD SWAP1 SWAP2 POP PUSH1 0x0 SWAP1 PUSH1 0x1 PUSH1 0x1 PUSH1 0xA0 SHL SUB AND CALLER PUSH1 0x1 PUSH1 0x1 PUSH1 0xA0 SHL SUB AND EQ DUP1 PUSH2 0x22E3 JUMPI POP CALLER PUSH2 0x22D8 DUP5 PUSH2 0xAE4 JUMP JUMPDEST PUSH1 0x1 PUSH1 0x1 PUSH1 0xA0 SHL SUB AND EQ JUMPDEST DUP1 PUSH2 0x22F5 JUMPI POP DUP2 MLOAD PUSH2 0x22F5 SWAP1 CALLER PUSH2 0x8FB JUMP JUMPDEST SWAP1 POP DUP1 PUSH2 0x235F JUMPI PUSH1 0x40 MLOAD PUSH3 0x461BCD PUSH1 0xE5 SHL DUP2 MSTORE PUSH1 0x20 PUSH1 0x4 DUP3 ADD MSTORE PUSH1 0x32 PUSH1 0x24 DUP3 ADD MSTORE PUSH32 0x455243373231413A207472616E736665722063616C6C6572206973206E6F7420 PUSH1 0x44 DUP3 ADD MSTORE PUSH18 0x1BDDDB995C881B9BDC88185C1C1C9BDD9959 PUSH1 0x72 SHL PUSH1 0x64 DUP3 ADD MSTORE PUSH1 0x84 ADD PUSH2 0xAA8 JUMP JUMPDEST DUP5 PUSH1 0x1 PUSH1 0x1 PUSH1 0xA0 SHL SUB AND DUP3 PUSH1 0x0 ADD MLOAD PUSH1 0x1 PUSH1 0x1 PUSH1 0xA0 SHL SUB AND EQ PUSH2 0x23D3 JUMPI PUSH1 0x40 MLOAD PUSH3 0x461BCD PUSH1 0xE5 SHL DUP2 MSTORE PUSH1 0x20 PUSH1 0x4 DUP3 ADD MSTORE PUSH1 0x26 PUSH1 0x24 DUP3 ADD MSTORE PUSH32 0x455243373231413A207472616E736665722066726F6D20696E636F7272656374 PUSH1 0x44 DUP3 ADD MSTORE PUSH6 0x1037BBB732B9 PUSH1 0xD1 SHL PUSH1 0x64 DUP3 ADD MSTORE PUSH1 0x84 ADD PUSH2 0xAA8 JUMP JUMPDEST PUSH1 0x1 PUSH1 0x1 PUSH1 0xA0 SHL SUB DUP5 AND PUSH2 0x2437 JUMPI PUSH1 0x40 MLOAD PUSH3 0x461BCD PUSH1 0xE5 SHL DUP2 MSTORE PUSH1 0x20 PUSH1 0x4 DUP3 ADD MSTORE PUSH1 0x25 PUSH1 0x24 DUP3 ADD MSTORE PUSH32 0x455243373231413A207472616E7366657220746F20746865207A65726F206164 PUSH1 0x44 DUP3 ADD MSTORE PUSH5 0x6472657373 PUSH1 0xD8 SHL PUSH1 0x64 DUP3 ADD MSTORE PUSH1 0x84 ADD PUSH2 0xAA8 JUMP JUMPDEST PUSH2 0x2447 PUSH1 0x0 DUP5 DUP5 PUSH1 0x0 ADD MLOAD PUSH2 0x2245 JUMP JUMPDEST PUSH1 0x1 PUSH1 0x1 PUSH1 0xA0 SHL SUB DUP6 AND PUSH1 0x0 SWAP1 DUP2 MSTORE PUSH1 0x5 PUSH1 0x20 MSTORE PUSH1 0x40 DUP2 KECCAK256 DUP1 SLOAD PUSH1 0x1 SWAP3 SWAP1 PUSH2 0x2479 SWAP1 DUP5 SWAP1 PUSH1 0x1 PUSH1 0x1 PUSH1 0x80 SHL SUB AND PUSH2 0x3767 JUMP JUMPDEST DUP3 SLOAD PUSH2 0x100 SWAP3 SWAP1 SWAP3 EXP PUSH1 0x1 PUSH1 0x1 PUSH1 0x80 SHL SUB DUP2 DUP2 MUL NOT SWAP1 SWAP4 AND SWAP2 DUP4 AND MUL OR SWAP1 SWAP2 SSTORE PUSH1 0x1 PUSH1 0x1 PUSH1 0xA0 SHL SUB DUP7 AND PUSH1 0x0 SWAP1 DUP2 MSTORE PUSH1 0x5 PUSH1 0x20 MSTORE PUSH1 0x40 DUP2 KECCAK256 DUP1 SLOAD PUSH1 0x1 SWAP5 POP SWAP1 SWAP3 PUSH2 0x24C5 SWAP2 DUP6 SWAP2 AND PUSH2 0x36F1 JUMP JUMPDEST DUP3 SLOAD PUSH1 0x1 PUSH1 0x1 PUSH1 0x80 SHL SUB SWAP2 DUP3 AND PUSH2 0x100 SWAP4 SWAP1 SWAP4 EXP SWAP3 DUP4 MUL SWAP2 SWAP1 SWAP3 MUL NOT SWAP1 SWAP2 AND OR SWAP1 SSTORE POP PUSH1 0x40 DUP1 MLOAD DUP1 DUP3 ADD DUP3 MSTORE PUSH1 0x1 PUSH1 0x1 PUSH1 0xA0 SHL SUB DUP1 DUP8 AND DUP3 MSTORE PUSH1 0x1 PUSH1 0x1 PUSH1 0x40 SHL SUB TIMESTAMP DUP2 AND PUSH1 0x20 DUP1 DUP6 ADD SWAP2 DUP3 MSTORE PUSH1 0x0 DUP10 DUP2 MSTORE PUSH1 0x4 SWAP1 SWAP2 MSTORE SWAP5 DUP6 KECCAK256 SWAP4 MLOAD DUP5 SLOAD SWAP2 MLOAD SWAP1 SWAP3 AND PUSH1 0x1 PUSH1 0xA0 SHL MUL PUSH1 0x1 PUSH1 0x1 PUSH1 0xE0 SHL SUB NOT SWAP1 SWAP2 AND SWAP2 SWAP1 SWAP3 AND OR OR SWAP1 SSTORE PUSH2 0x254C DUP5 PUSH1 0x1 PUSH2 0x371C JUMP JUMPDEST PUSH1 0x0 DUP2 DUP2 MSTORE PUSH1 0x4 PUSH1 0x20 MSTORE PUSH1 0x40 SWAP1 KECCAK256 SLOAD SWAP1 SWAP2 POP PUSH1 0x1 PUSH1 0x1 PUSH1 0xA0 SHL SUB AND PUSH2 0x25DD JUMPI PUSH2 0x2576 DUP2 PUSH1 0x1 SLOAD GT SWAP1 JUMP JUMPDEST ISZERO PUSH2 0x25DD JUMPI PUSH1 0x40 DUP1 MLOAD DUP1 DUP3 ADD DUP3 MSTORE DUP5 MLOAD PUSH1 0x1 PUSH1 0x1 PUSH1 0xA0 SHL SUB SWAP1 DUP2 AND DUP3 MSTORE PUSH1 0x20 DUP1 DUP8 ADD MLOAD PUSH1 0x1 PUSH1 0x1 PUSH1 0x40 SHL SUB SWAP1 DUP2 AND DUP3 DUP6 ADD SWAP1 DUP2 MSTORE PUSH1 0x0 DUP8 DUP2 MSTORE PUSH1 0x4 SWAP1 SWAP4 MSTORE SWAP5 SWAP1 SWAP2 KECCAK256 SWAP3 MLOAD DUP4 SLOAD SWAP5 MLOAD SWAP1 SWAP2 AND PUSH1 0x1 PUSH1 0xA0 SHL MUL PUSH1 0x1 PUSH1 0x1 PUSH1 0xE0 SHL SUB NOT SWAP1 SWAP5 AND SWAP2 AND OR SWAP2 SWAP1 SWAP2 OR SWAP1 SSTORE JUMPDEST DUP4 DUP6 PUSH1 0x1 PUSH1 0x1 PUSH1 0xA0 SHL SUB AND DUP8 PUSH1 0x1 PUSH1 0x1 PUSH1 0xA0 SHL SUB AND PUSH32 0xDDF252AD1BE2C89B69C2B068FC378DAA952BA7F163C4A11628F55A4DF523B3EF PUSH1 0x40 MLOAD PUSH1 0x40 MLOAD DUP1 SWAP2 SUB SWAP1 LOG4 PUSH2 0x2094 JUMP JUMPDEST PUSH1 0x8 SLOAD DUP2 PUSH2 0x2673 JUMPI PUSH1 0x40 MLOAD PUSH3 0x461BCD PUSH1 0xE5 SHL DUP2 MSTORE PUSH1 0x20 PUSH1 0x4 DUP3 ADD MSTORE PUSH1 0x18 PUSH1 0x24 DUP3 ADD MSTORE PUSH32 0x7175616E74697479206D757374206265206E6F6E7A65726F0000000000000000 PUSH1 0x44 DUP3 ADD MSTORE PUSH1 0x64 ADD PUSH2 0xAA8 JUMP JUMPDEST PUSH1 0x0 PUSH1 0x1 PUSH2 0x2681 DUP5 DUP5 PUSH2 0x371C JUMP JUMPDEST PUSH2 0x268B SWAP2 SWAP1 PUSH2 0x378F JUMP JUMPDEST SWAP1 POP PUSH2 0x26B8 PUSH1 0x1 PUSH32 0x0 PUSH2 0x378F JUMP JUMPDEST DUP2 GT ISZERO PUSH2 0x26ED JUMPI PUSH2 0x26EA PUSH1 0x1 PUSH32 0x0 PUSH2 0x378F JUMP JUMPDEST SWAP1 POP JUMPDEST PUSH2 0x26F8 DUP2 PUSH1 0x1 SLOAD GT SWAP1 JUMP JUMPDEST PUSH2 0x2753 JUMPI PUSH1 0x40 MLOAD PUSH3 0x461BCD PUSH1 0xE5 SHL DUP2 MSTORE PUSH1 0x20 PUSH1 0x4 DUP3 ADD MSTORE PUSH1 0x26 PUSH1 0x24 DUP3 ADD MSTORE PUSH32 0x6E6F7420656E6F756768206D696E7465642079657420666F7220746869732063 PUSH1 0x44 DUP3 ADD MSTORE PUSH6 0x6C65616E757 PUSH1 0xD4 SHL PUSH1 0x64 DUP3 ADD MSTORE PUSH1 0x84 ADD PUSH2 0xAA8 JUMP JUMPDEST DUP2 JUMPDEST DUP2 DUP2 GT PUSH2 0x27F8 JUMPI PUSH1 0x0 DUP2 DUP2 MSTORE PUSH1 0x4 PUSH1 0x20 MSTORE PUSH1 0x40 SWAP1 KECCAK256 SLOAD PUSH1 0x1 PUSH1 0x1 PUSH1 0xA0 SHL SUB AND PUSH2 0x27E6 JUMPI PUSH1 0x0 PUSH2 0x2783 DUP3 PUSH2 0x28AD JUMP JUMPDEST PUSH1 0x40 DUP1 MLOAD DUP1 DUP3 ADD DUP3 MSTORE DUP3 MLOAD PUSH1 0x1 PUSH1 0x1 PUSH1 0xA0 SHL SUB SWAP1 DUP2 AND DUP3 MSTORE PUSH1 0x20 SWAP4 DUP5 ADD MLOAD PUSH1 0x1 PUSH1 0x1 PUSH1 0x40 SHL SUB SWAP1 DUP2 AND DUP6 DUP5 ADD SWAP1 DUP2 MSTORE PUSH1 0x0 DUP9 DUP2 MSTORE PUSH1 0x4 SWAP1 SWAP7 MSTORE SWAP4 SWAP1 SWAP5 KECCAK256 SWAP2 MLOAD DUP3 SLOAD SWAP4 MLOAD SWAP1 SWAP5 AND PUSH1 0x1 PUSH1 0xA0 SHL MUL PUSH1 0x1 PUSH1 0x1 PUSH1 0xE0 SHL SUB NOT SWAP1 SWAP4 AND SWAP4 AND SWAP3 SWAP1 SWAP3 OR OR SWAP1 SSTORE POP JUMPDEST DUP1 PUSH2 0x27F0 DUP2 PUSH2 0x3824 JUMP JUMPDEST SWAP2 POP POP PUSH2 0x2755 JUMP JUMPDEST POP PUSH2 0x2804 DUP2 PUSH1 0x1 PUSH2 0x371C JUMP JUMPDEST PUSH1 0x8 SSTORE POP POP POP JUMP JUMPDEST PUSH2 0xAE0 DUP3 DUP3 PUSH1 0x40 MLOAD DUP1 PUSH1 0x20 ADD PUSH1 0x40 MSTORE DUP1 PUSH1 0x0 DUP2 MSTORE POP PUSH2 0x2C60 JUMP JUMPDEST DUP1 CALLVALUE LT ISZERO PUSH2 0x286F JUMPI PUSH1 0x40 MLOAD PUSH3 0x461BCD PUSH1 0xE5 SHL DUP2 MSTORE PUSH1 0x20 PUSH1 0x4 DUP3 ADD MSTORE PUSH1 0x16 PUSH1 0x24 DUP3 ADD MSTORE PUSH22 0x2732B2B2103A379039B2B7321036B7B9329022AA2417 PUSH1 0x51 SHL PUSH1 0x44 DUP3 ADD MSTORE PUSH1 0x64 ADD PUSH2 0xAA8 JUMP JUMPDEST DUP1 CALLVALUE GT ISZERO PUSH2 0x2242 JUMPI CALLER PUSH2 0x8FC PUSH2 0x2885 DUP4 CALLVALUE PUSH2 0x378F JUMP JUMPDEST PUSH1 0x40 MLOAD DUP2 ISZERO SWAP1 SWAP3 MUL SWAP2 PUSH1 0x0 DUP2 DUP2 DUP2 DUP6 DUP9 DUP9 CALL SWAP4 POP POP POP POP ISZERO DUP1 ISZERO PUSH2 0xAE0 JUMPI RETURNDATASIZE PUSH1 0x0 DUP1 RETURNDATACOPY RETURNDATASIZE PUSH1 0x0 REVERT JUMPDEST PUSH1 0x40 DUP1 MLOAD DUP1 DUP3 ADD SWAP1 SWAP2 MSTORE PUSH1 0x0 DUP1 DUP3 MSTORE PUSH1 0x20 DUP3 ADD MSTORE PUSH2 0x28CC DUP3 PUSH1 0x1 SLOAD GT SWAP1 JUMP JUMPDEST PUSH2 0x292B JUMPI PUSH1 0x40 MLOAD PUSH3 0x461BCD PUSH1 0xE5 SHL DUP2 MSTORE PUSH1 0x20 PUSH1 0x4 DUP3 ADD MSTORE PUSH1 0x2A PUSH1 0x24 DUP3 ADD MSTORE PUSH32 0x455243373231413A206F776E657220717565727920666F72206E6F6E65786973 PUSH1 0x44 DUP3 ADD MSTORE PUSH10 0x3A32B73A103A37B5B2B7 PUSH1 0xB1 SHL PUSH1 0x64 DUP3 ADD MSTORE PUSH1 0x84 ADD PUSH2 0xAA8 JUMP JUMPDEST PUSH1 0x0 PUSH32 0x0 DUP4 LT PUSH2 0x298C JUMPI PUSH2 0x297E PUSH32 0x0 DUP5 PUSH2 0x378F JUMP JUMPDEST PUSH2 0x2989 SWAP1 PUSH1 0x1 PUSH2 0x371C JUMP JUMPDEST SWAP1 POP JUMPDEST DUP3 JUMPDEST DUP2 DUP2 LT PUSH2 0x29F5 JUMPI PUSH1 0x0 DUP2 DUP2 MSTORE PUSH1 0x4 PUSH1 0x20 SWAP1 DUP2 MSTORE PUSH1 0x40 SWAP2 DUP3 SWAP1 KECCAK256 DUP3 MLOAD DUP1 DUP5 ADD SWAP1 SWAP4 MSTORE SLOAD PUSH1 0x1 PUSH1 0x1 PUSH1 0xA0 SHL SUB DUP2 AND DUP1 DUP5 MSTORE PUSH1 0x1 PUSH1 0xA0 SHL SWAP1 SWAP2 DIV PUSH1 0x1 PUSH1 0x1 PUSH1 0x40 SHL SUB AND SWAP2 DUP4 ADD SWAP2 SWAP1 SWAP2 MSTORE ISZERO PUSH2 0x29E2 JUMPI SWAP5 SWAP4 POP POP POP POP JUMP JUMPDEST POP DUP1 PUSH2 0x29ED DUP2 PUSH2 0x37D2 JUMP JUMPDEST SWAP2 POP POP PUSH2 0x298E JUMP JUMPDEST POP PUSH1 0x40 MLOAD PUSH3 0x461BCD PUSH1 0xE5 SHL DUP2 MSTORE PUSH1 0x20 PUSH1 0x4 DUP3 ADD MSTORE PUSH1 0x2F PUSH1 0x24 DUP3 ADD MSTORE PUSH32 0x455243373231413A20756E61626C6520746F2064657465726D696E6520746865 PUSH1 0x44 DUP3 ADD MSTORE PUSH15 0x1037BBB732B91037B3103A37B5B2B7 PUSH1 0x89 SHL PUSH1 0x64 DUP3 ADD MSTORE PUSH1 0x84 ADD PUSH2 0xAA8 JUMP JUMPDEST PUSH1 0x0 DUP1 SLOAD PUSH1 0x1 PUSH1 0x1 PUSH1 0xA0 SHL SUB DUP4 DUP2 AND PUSH1 0x1 PUSH1 0x1 PUSH1 0xA0 SHL SUB NOT DUP4 AND DUP2 OR DUP5 SSTORE PUSH1 0x40 MLOAD SWAP2 SWAP1 SWAP3 AND SWAP3 DUP4 SWAP2 PUSH32 0x8BE0079C531659141344CD1FD0A4F28419497F9722A3DAAFE3B4186F6B6457E0 SWAP2 SWAP1 LOG3 POP POP JUMP JUMPDEST PUSH1 0x0 PUSH1 0x1 PUSH1 0x1 PUSH1 0xA0 SHL SUB DUP5 AND EXTCODESIZE ISZERO PUSH2 0x2BA8 JUMPI PUSH1 0x40 MLOAD PUSH4 0xA85BD01 PUSH1 0xE1 SHL DUP2 MSTORE PUSH1 0x1 PUSH1 0x1 PUSH1 0xA0 SHL SUB DUP6 AND SWAP1 PUSH4 0x150B7A02 SWAP1 PUSH2 0x2AEA SWAP1 CALLER SWAP1 DUP10 SWAP1 DUP9 SWAP1 DUP9 SWAP1 PUSH1 0x4 ADD PUSH2 0x351B JUMP JUMPDEST PUSH1 0x20 PUSH1 0x40 MLOAD DUP1 DUP4 SUB DUP2 PUSH1 0x0 DUP8 DUP1 EXTCODESIZE ISZERO DUP1 ISZERO PUSH2 0x2B04 JUMPI PUSH1 0x0 DUP1 REVERT JUMPDEST POP GAS CALL SWAP3 POP POP POP DUP1 ISZERO PUSH2 0x2B34 JUMPI POP PUSH1 0x40 DUP1 MLOAD PUSH1 0x1F RETURNDATASIZE SWAP1 DUP2 ADD PUSH1 0x1F NOT AND DUP3 ADD SWAP1 SWAP3 MSTORE PUSH2 0x2B31 SWAP2 DUP2 ADD SWAP1 PUSH2 0x3329 JUMP JUMPDEST PUSH1 0x1 JUMPDEST PUSH2 0x2B8E JUMPI RETURNDATASIZE DUP1 DUP1 ISZERO PUSH2 0x2B62 JUMPI PUSH1 0x40 MLOAD SWAP2 POP PUSH1 0x1F NOT PUSH1 0x3F RETURNDATASIZE ADD AND DUP3 ADD PUSH1 0x40 MSTORE RETURNDATASIZE DUP3 MSTORE RETURNDATASIZE PUSH1 0x0 PUSH1 0x20 DUP5 ADD RETURNDATACOPY PUSH2 0x2B67 JUMP JUMPDEST PUSH1 0x60 SWAP2 POP JUMPDEST POP DUP1 MLOAD PUSH2 0x2B86 JUMPI PUSH1 0x40 MLOAD PUSH3 0x461BCD PUSH1 0xE5 SHL DUP2 MSTORE PUSH1 0x4 ADD PUSH2 0xAA8 SWAP1 PUSH2 0x3603 JUMP JUMPDEST DUP1 MLOAD DUP2 PUSH1 0x20 ADD REVERT JUMPDEST PUSH1 0x1 PUSH1 0x1 PUSH1 0xE0 SHL SUB NOT AND PUSH4 0xA85BD01 PUSH1 0xE1 SHL EQ SWAP1 POP PUSH2 0x128E JUMP JUMPDEST POP PUSH1 0x1 SWAP5 SWAP4 POP POP POP POP JUMP JUMPDEST PUSH1 0x60 PUSH1 0xE DUP1 SLOAD PUSH2 0x9FB SWAP1 PUSH2 0x37E9 JUMP JUMPDEST PUSH1 0x0 PUSH1 0x1 PUSH1 0x1 PUSH1 0xA0 SHL SUB DUP3 AND PUSH2 0x2C34 JUMPI PUSH1 0x40 MLOAD PUSH3 0x461BCD PUSH1 0xE5 SHL DUP2 MSTORE PUSH1 0x20 PUSH1 0x4 DUP3 ADD MSTORE PUSH1 0x31 PUSH1 0x24 DUP3 ADD MSTORE PUSH32 0x455243373231413A206E756D626572206D696E74656420717565727920666F72 PUSH1 0x44 DUP3 ADD MSTORE PUSH17 0x20746865207A65726F2061646472657373 PUSH1 0x78 SHL PUSH1 0x64 DUP3 ADD MSTORE PUSH1 0x84 ADD PUSH2 0xAA8 JUMP JUMPDEST POP PUSH1 0x1 PUSH1 0x1 PUSH1 0xA0 SHL SUB AND PUSH1 0x0 SWAP1 DUP2 MSTORE PUSH1 0x5 PUSH1 0x20 MSTORE PUSH1 0x40 SWAP1 KECCAK256 SLOAD PUSH1 0x1 PUSH1 0x80 SHL SWAP1 DIV PUSH1 0x1 PUSH1 0x1 PUSH1 0x80 SHL SUB AND SWAP1 JUMP JUMPDEST PUSH1 0x1 SLOAD PUSH1 0x1 PUSH1 0x1 PUSH1 0xA0 SHL SUB DUP5 AND PUSH2 0x2CC3 JUMPI PUSH1 0x40 MLOAD PUSH3 0x461BCD PUSH1 0xE5 SHL DUP2 MSTORE PUSH1 0x20 PUSH1 0x4 DUP3 ADD MSTORE PUSH1 0x21 PUSH1 0x24 DUP3 ADD MSTORE PUSH32 0x455243373231413A206D696E7420746F20746865207A65726F20616464726573 PUSH1 0x44 DUP3 ADD MSTORE PUSH1 0x73 PUSH1 0xF8 SHL PUSH1 0x64 DUP3 ADD MSTORE PUSH1 0x84 ADD PUSH2 0xAA8 JUMP JUMPDEST PUSH2 0x2CCE DUP2 PUSH1 0x1 SLOAD GT SWAP1 JUMP JUMPDEST ISZERO PUSH2 0x2D1B JUMPI PUSH1 0x40 MLOAD PUSH3 0x461BCD PUSH1 0xE5 SHL DUP2 MSTORE PUSH1 0x20 PUSH1 0x4 DUP3 ADD MSTORE PUSH1 0x1D PUSH1 0x24 DUP3 ADD MSTORE PUSH32 0x455243373231413A20746F6B656E20616C7265616479206D696E746564000000 PUSH1 0x44 DUP3 ADD MSTORE PUSH1 0x64 ADD PUSH2 0xAA8 JUMP JUMPDEST PUSH32 0x0 DUP4 GT ISZERO PUSH2 0x2D96 JUMPI PUSH1 0x40 MLOAD PUSH3 0x461BCD PUSH1 0xE5 SHL DUP2 MSTORE PUSH1 0x20 PUSH1 0x4 DUP3 ADD MSTORE PUSH1 0x22 PUSH1 0x24 DUP3 ADD MSTORE PUSH32 0x455243373231413A207175616E7469747920746F206D696E7420746F6F206869 PUSH1 0x44 DUP3 ADD MSTORE PUSH2 0xCED PUSH1 0xF3 SHL PUSH1 0x64 DUP3 ADD MSTORE PUSH1 0x84 ADD PUSH2 0xAA8 JUMP JUMPDEST PUSH1 0x1 PUSH1 0x1 PUSH1 0xA0 SHL SUB DUP5 AND PUSH1 0x0 SWAP1 DUP2 MSTORE PUSH1 0x5 PUSH1 0x20 SWAP1 DUP2 MSTORE PUSH1 0x40 SWAP2 DUP3 SWAP1 KECCAK256 DUP3 MLOAD DUP1 DUP5 ADD DUP5 MSTORE SWAP1 SLOAD PUSH1 0x1 PUSH1 0x1 PUSH1 0x80 SHL SUB DUP1 DUP3 AND DUP4 MSTORE PUSH1 0x1 PUSH1 0x80 SHL SWAP1 SWAP2 DIV AND SWAP2 DUP2 ADD SWAP2 SWAP1 SWAP2 MSTORE DUP2 MLOAD DUP1 DUP4 ADD SWAP1 SWAP3 MSTORE DUP1 MLOAD SWAP1 SWAP2 SWAP1 DUP2 SWAP1 PUSH2 0x2DF2 SWAP1 DUP8 SWAP1 PUSH2 0x36F1 JUMP JUMPDEST PUSH1 0x1 PUSH1 0x1 PUSH1 0x80 SHL SUB AND DUP2 MSTORE PUSH1 0x20 ADD DUP6 DUP4 PUSH1 0x20 ADD MLOAD PUSH2 0x2E10 SWAP2 SWAP1 PUSH2 0x36F1 JUMP JUMPDEST PUSH1 0x1 PUSH1 0x1 PUSH1 0x80 SHL SUB SWAP1 DUP2 AND SWAP1 SWAP2 MSTORE PUSH1 0x1 PUSH1 0x1 PUSH1 0xA0 SHL SUB DUP1 DUP9 AND PUSH1 0x0 DUP2 DUP2 MSTORE PUSH1 0x5 PUSH1 0x20 SWAP1 DUP2 MSTORE PUSH1 0x40 DUP1 DUP4 KECCAK256 DUP8 MLOAD SWAP8 DUP4 ADD MLOAD DUP8 AND PUSH1 0x1 PUSH1 0x80 SHL MUL SWAP8 SWAP1 SWAP7 AND SWAP7 SWAP1 SWAP7 OR SWAP1 SWAP5 SSTORE DUP5 MLOAD DUP1 DUP7 ADD DUP7 MSTORE SWAP2 DUP3 MSTORE PUSH1 0x1 PUSH1 0x1 PUSH1 0x40 SHL SUB TIMESTAMP DUP2 AND DUP4 DUP7 ADD SWAP1 DUP2 MSTORE DUP9 DUP4 MSTORE PUSH1 0x4 SWAP1 SWAP6 MSTORE SWAP5 DUP2 KECCAK256 SWAP2 MLOAD DUP3 SLOAD SWAP5 MLOAD SWAP1 SWAP6 AND PUSH1 0x1 PUSH1 0xA0 SHL MUL PUSH1 0x1 PUSH1 0x1 PUSH1 0xE0 SHL SUB NOT SWAP1 SWAP5 AND SWAP5 SWAP1 SWAP3 AND SWAP4 SWAP1 SWAP4 OR SWAP2 SWAP1 SWAP2 OR SWAP1 SWAP2 SSTORE DUP3 SWAP1 JUMPDEST DUP6 DUP2 LT ISZERO PUSH2 0x2F2F JUMPI PUSH1 0x40 MLOAD DUP3 SWAP1 PUSH1 0x1 PUSH1 0x1 PUSH1 0xA0 SHL SUB DUP10 AND SWAP1 PUSH1 0x0 SWAP1 PUSH32 0xDDF252AD1BE2C89B69C2B068FC378DAA952BA7F163C4A11628F55A4DF523B3EF SWAP1 DUP3 SWAP1 LOG4 PUSH2 0x2EF3 PUSH1 0x0 DUP9 DUP5 DUP9 PUSH2 0x2AA6 JUMP JUMPDEST PUSH2 0x2F0F JUMPI PUSH1 0x40 MLOAD PUSH3 0x461BCD PUSH1 0xE5 SHL DUP2 MSTORE PUSH1 0x4 ADD PUSH2 0xAA8 SWAP1 PUSH2 0x3603 JUMP JUMPDEST DUP2 PUSH2 0x2F19 DUP2 PUSH2 0x3824 JUMP JUMPDEST SWAP3 POP POP DUP1 DUP1 PUSH2 0x2F27 SWAP1 PUSH2 0x3824 JUMP JUMPDEST SWAP2 POP POP PUSH2 0x2EA6 JUMP JUMPDEST POP PUSH1 0x1 DUP2 SWAP1 SSTORE PUSH2 0x2094 JUMP JUMPDEST DUP3 DUP1 SLOAD PUSH2 0x2F46 SWAP1 PUSH2 0x37E9 JUMP JUMPDEST SWAP1 PUSH1 0x0 MSTORE PUSH1 0x20 PUSH1 0x0 KECCAK256 SWAP1 PUSH1 0x1F ADD PUSH1 0x20 SWAP1 DIV DUP2 ADD SWAP3 DUP3 PUSH2 0x2F68 JUMPI PUSH1 0x0 DUP6 SSTORE PUSH2 0x2FAE JUMP JUMPDEST DUP3 PUSH1 0x1F LT PUSH2 0x2F81 JUMPI DUP3 DUP1 ADD PUSH1 0xFF NOT DUP3 CALLDATALOAD AND OR DUP6 SSTORE PUSH2 0x2FAE JUMP JUMPDEST DUP3 DUP1 ADD PUSH1 0x1 ADD DUP6 SSTORE DUP3 ISZERO PUSH2 0x2FAE JUMPI SWAP2 DUP3 ADD JUMPDEST DUP3 DUP2 GT ISZERO PUSH2 0x2FAE JUMPI DUP3 CALLDATALOAD DUP3 SSTORE SWAP2 PUSH1 0x20 ADD SWAP2 SWAP1 PUSH1 0x1 ADD SWAP1 PUSH2 0x2F93 JUMP JUMPDEST POP PUSH2 0x16DF SWAP3 SWAP2 POP JUMPDEST DUP1 DUP3 GT ISZERO PUSH2 0x16DF JUMPI PUSH1 0x0 DUP2 SSTORE PUSH1 0x1 ADD PUSH2 0x2FB6 JUMP JUMPDEST DUP1 CALLDATALOAD PUSH1 0x1 PUSH1 0x1 PUSH1 0xA0 SHL SUB DUP2 AND DUP2 EQ PUSH2 0x1AD3 JUMPI PUSH1 0x0 DUP1 REVERT JUMPDEST PUSH1 0x0 DUP3 PUSH1 0x1F DUP4 ADD SLT PUSH2 0x2FF2 JUMPI PUSH1 0x0 DUP1 REVERT JUMPDEST DUP2 CALLDATALOAD PUSH1 0x20 PUSH2 0x3007 PUSH2 0x3002 DUP4 PUSH2 0x36CE JUMP JUMPDEST PUSH2 0x369E JUMP JUMPDEST DUP1 DUP4 DUP3 MSTORE DUP3 DUP3 ADD SWAP2 POP DUP3 DUP7 ADD DUP8 DUP5 DUP7 PUSH1 0x5 SHL DUP10 ADD ADD GT ISZERO PUSH2 0x3027 JUMPI PUSH1 0x0 DUP1 REVERT JUMPDEST PUSH1 0x0 JUMPDEST DUP6 DUP2 LT ISZERO PUSH2 0x3046 JUMPI DUP2 CALLDATALOAD DUP5 MSTORE SWAP3 DUP5 ADD SWAP3 SWAP1 DUP5 ADD SWAP1 PUSH1 0x1 ADD PUSH2 0x302A JUMP JUMPDEST POP SWAP1 SWAP8 SWAP7 POP POP POP POP POP POP POP JUMP JUMPDEST DUP1 CALLDATALOAD DUP1 ISZERO ISZERO DUP2 EQ PUSH2 0x1AD3 JUMPI PUSH1 0x0 DUP1 REVERT JUMPDEST DUP1 CALLDATALOAD PUSH4 0xFFFFFFFF DUP2 AND DUP2 EQ PUSH2 0x1AD3 JUMPI PUSH1 0x0 DUP1 REVERT JUMPDEST DUP1 CALLDATALOAD PUSH1 0x1 PUSH1 0x1 PUSH1 0x40 SHL SUB DUP2 AND DUP2 EQ PUSH2 0x1AD3 JUMPI PUSH1 0x0 DUP1 REVERT JUMPDEST PUSH1 0x0 PUSH1 0x20 DUP3 DUP5 SUB SLT ISZERO PUSH2 0x30A0 JUMPI PUSH1 0x0 DUP1 REVERT JUMPDEST PUSH2 0x1ACC DUP3 PUSH2 0x2FCA JUMP JUMPDEST PUSH1 0x0 DUP1 PUSH1 0x40 DUP4 DUP6 SUB SLT ISZERO PUSH2 0x30BC JUMPI PUSH1 0x0 DUP1 REVERT JUMPDEST PUSH2 0x30C5 DUP4 PUSH2 0x2FCA JUMP JUMPDEST SWAP2 POP PUSH2 0x30D3 PUSH1 0x20 DUP5 ADD PUSH2 0x2FCA JUMP JUMPDEST SWAP1 POP SWAP3 POP SWAP3 SWAP1 POP JUMP JUMPDEST PUSH1 0x0 DUP1 PUSH1 0x0 PUSH1 0x60 DUP5 DUP7 SUB SLT ISZERO PUSH2 0x30F1 JUMPI PUSH1 0x0 DUP1 REVERT JUMPDEST PUSH2 0x30FA DUP5 PUSH2 0x2FCA JUMP JUMPDEST SWAP3 POP PUSH2 0x3108 PUSH1 0x20 DUP6 ADD PUSH2 0x2FCA JUMP JUMPDEST SWAP2 POP PUSH1 0x40 DUP5 ADD CALLDATALOAD SWAP1 POP SWAP3 POP SWAP3 POP SWAP3 JUMP JUMPDEST PUSH1 0x0 DUP1 PUSH1 0x0 DUP1 PUSH1 0x80 DUP6 DUP8 SUB SLT ISZERO PUSH2 0x312E JUMPI PUSH1 0x0 DUP1 REVERT JUMPDEST PUSH2 0x3137 DUP6 PUSH2 0x2FCA JUMP JUMPDEST SWAP4 POP PUSH1 0x20 PUSH2 0x3146 DUP2 DUP8 ADD PUSH2 0x2FCA JUMP JUMPDEST SWAP4 POP PUSH1 0x40 DUP7 ADD CALLDATALOAD SWAP3 POP PUSH1 0x60 DUP7 ADD CALLDATALOAD PUSH1 0x1 PUSH1 0x1 PUSH1 0x40 SHL SUB DUP1 DUP3 GT ISZERO PUSH2 0x3169 JUMPI PUSH1 0x0 DUP1 REVERT JUMPDEST DUP2 DUP9 ADD SWAP2 POP DUP9 PUSH1 0x1F DUP4 ADD SLT PUSH2 0x317D JUMPI PUSH1 0x0 DUP1 REVERT JUMPDEST DUP2 CALLDATALOAD DUP2 DUP2 GT ISZERO PUSH2 0x318F JUMPI PUSH2 0x318F PUSH2 0x3895 JUMP JUMPDEST PUSH2 0x31A1 PUSH1 0x1F DUP3 ADD PUSH1 0x1F NOT AND DUP6 ADD PUSH2 0x369E JUMP JUMPDEST SWAP2 POP DUP1 DUP3 MSTORE DUP10 DUP5 DUP3 DUP6 ADD ADD GT ISZERO PUSH2 0x31B7 JUMPI PUSH1 0x0 DUP1 REVERT JUMPDEST DUP1 DUP5 DUP5 ADD DUP6 DUP5 ADD CALLDATACOPY PUSH1 0x0 DUP5 DUP3 DUP5 ADD ADD MSTORE POP DUP1 SWAP4 POP POP POP POP SWAP3 SWAP6 SWAP2 SWAP5 POP SWAP3 POP JUMP JUMPDEST PUSH1 0x0 DUP1 PUSH1 0x40 DUP4 DUP6 SUB SLT ISZERO PUSH2 0x31EA JUMPI PUSH1 0x0 DUP1 REVERT JUMPDEST PUSH2 0x31F3 DUP4 PUSH2 0x2FCA JUMP JUMPDEST SWAP2 POP PUSH2 0x30D3 PUSH1 0x20 DUP5 ADD PUSH2 0x3053 JUMP JUMPDEST PUSH1 0x0 DUP1 PUSH1 0x40 DUP4 DUP6 SUB SLT ISZERO PUSH2 0x3214 JUMPI PUSH1 0x0 DUP1 REVERT JUMPDEST PUSH2 0x321D DUP4 PUSH2 0x2FCA JUMP JUMPDEST SWAP5 PUSH1 0x20 SWAP4 SWAP1 SWAP4 ADD CALLDATALOAD SWAP4 POP POP POP JUMP JUMPDEST PUSH1 0x0 DUP1 PUSH1 0x40 DUP4 DUP6 SUB SLT ISZERO PUSH2 0x323E JUMPI PUSH1 0x0 DUP1 REVERT JUMPDEST DUP3 CALLDATALOAD PUSH1 0x1 PUSH1 0x1 PUSH1 0x40 SHL SUB DUP1 DUP3 GT ISZERO PUSH2 0x3255 JUMPI PUSH1 0x0 DUP1 REVERT JUMPDEST DUP2 DUP6 ADD SWAP2 POP DUP6 PUSH1 0x1F DUP4 ADD SLT PUSH2 0x3269 JUMPI PUSH1 0x0 DUP1 REVERT JUMPDEST DUP2 CALLDATALOAD PUSH1 0x20 PUSH2 0x3279 PUSH2 0x3002 DUP4 PUSH2 0x36CE JUMP JUMPDEST DUP1 DUP4 DUP3 MSTORE DUP3 DUP3 ADD SWAP2 POP DUP3 DUP7 ADD DUP11 DUP5 DUP7 PUSH1 0x5 SHL DUP10 ADD ADD GT ISZERO PUSH2 0x3299 JUMPI PUSH1 0x0 DUP1 REVERT JUMPDEST PUSH1 0x0 SWAP7 POP JUMPDEST DUP5 DUP8 LT ISZERO PUSH2 0x32C3 JUMPI PUSH2 0x32AF DUP2 PUSH2 0x2FCA JUMP JUMPDEST DUP4 MSTORE PUSH1 0x1 SWAP7 SWAP1 SWAP7 ADD SWAP6 SWAP2 DUP4 ADD SWAP2 DUP4 ADD PUSH2 0x329E JUMP JUMPDEST POP SWAP7 POP POP DUP7 ADD CALLDATALOAD SWAP3 POP POP DUP1 DUP3 GT ISZERO PUSH2 0x32DA JUMPI PUSH1 0x0 DUP1 REVERT JUMPDEST POP PUSH2 0x32E7 DUP6 DUP3 DUP7 ADD PUSH2 0x2FE1 JUMP JUMPDEST SWAP2 POP POP SWAP3 POP SWAP3 SWAP1 POP JUMP JUMPDEST PUSH1 0x0 PUSH1 0x20 DUP3 DUP5 SUB SLT ISZERO PUSH2 0x3303 JUMPI PUSH1 0x0 DUP1 REVERT JUMPDEST PUSH2 0x1ACC DUP3 PUSH2 0x3053 JUMP JUMPDEST PUSH1 0x0 PUSH1 0x20 DUP3 DUP5 SUB SLT ISZERO PUSH2 0x331E JUMPI PUSH1 0x0 DUP1 REVERT JUMPDEST DUP2 CALLDATALOAD PUSH2 0x1ACC DUP2 PUSH2 0x38AB JUMP JUMPDEST PUSH1 0x0 PUSH1 0x20 DUP3 DUP5 SUB SLT ISZERO PUSH2 0x333B JUMPI PUSH1 0x0 DUP1 REVERT JUMPDEST DUP2 MLOAD PUSH2 0x1ACC DUP2 PUSH2 0x38AB JUMP JUMPDEST PUSH1 0x0 DUP1 PUSH1 0x20 DUP4 DUP6 SUB SLT ISZERO PUSH2 0x3359 JUMPI PUSH1 0x0 DUP1 REVERT JUMPDEST DUP3 CALLDATALOAD PUSH1 0x1 PUSH1 0x1 PUSH1 0x40 SHL SUB DUP1 DUP3 GT ISZERO PUSH2 0x3370 JUMPI PUSH1 0x0 DUP1 REVERT JUMPDEST DUP2 DUP6 ADD SWAP2 POP DUP6 PUSH1 0x1F DUP4 ADD SLT PUSH2 0x3384 JUMPI PUSH1 0x0 DUP1 REVERT JUMPDEST DUP2 CALLDATALOAD DUP2 DUP2 GT ISZERO PUSH2 0x3393 JUMPI PUSH1 0x0 DUP1 REVERT JUMPDEST DUP7 PUSH1 0x20 DUP3 DUP6 ADD ADD GT ISZERO PUSH2 0x33A5 JUMPI PUSH1 0x0 DUP1 REVERT JUMPDEST PUSH1 0x20 SWAP3 SWAP1 SWAP3 ADD SWAP7 SWAP2 SWAP6 POP SWAP1 SWAP4 POP POP POP POP JUMP JUMPDEST PUSH1 0x0 PUSH1 0x20 DUP3 DUP5 SUB SLT ISZERO PUSH2 0x33C9 JUMPI PUSH1 0x0 DUP1 REVERT JUMPDEST POP CALLDATALOAD SWAP2 SWAP1 POP JUMP JUMPDEST PUSH1 0x0 DUP1 PUSH1 0x40 DUP4 DUP6 SUB SLT ISZERO PUSH2 0x33E3 JUMPI PUSH1 0x0 DUP1 REVERT JUMPDEST POP POP DUP1 CALLDATALOAD SWAP3 PUSH1 0x20 SWAP1 SWAP2 ADD CALLDATALOAD SWAP2 POP JUMP JUMPDEST PUSH1 0x0 DUP1 PUSH1 0x0 PUSH1 0x60 DUP5 DUP7 SUB SLT ISZERO PUSH2 0x3407 JUMPI PUSH1 0x0 DUP1 REVERT JUMPDEST POP POP DUP2 CALLDATALOAD SWAP4 PUSH1 0x20 DUP4 ADD CALLDATALOAD SWAP4 POP PUSH1 0x40 SWAP1 SWAP3 ADD CALLDATALOAD SWAP2 SWAP1 POP JUMP JUMPDEST PUSH1 0x0 PUSH1 0x20 DUP3 DUP5 SUB SLT ISZERO PUSH2 0x3430 JUMPI PUSH1 0x0 DUP1 REVERT JUMPDEST PUSH2 0x1ACC DUP3 PUSH2 0x3063 JUMP JUMPDEST PUSH1 0x0 DUP1 PUSH1 0x0 DUP1 PUSH1 0x0 PUSH1 0xA0 DUP7 DUP9 SUB SLT ISZERO PUSH2 0x3451 JUMPI PUSH1 0x0 DUP1 REVERT JUMPDEST PUSH2 0x345A DUP7 PUSH2 0x3077 JUMP JUMPDEST SWAP5 POP PUSH2 0x3468 PUSH1 0x20 DUP8 ADD PUSH2 0x3077 JUMP JUMPDEST SWAP4 POP PUSH2 0x3476 PUSH1 0x40 DUP8 ADD PUSH2 0x3063 JUMP JUMPDEST SWAP3 POP PUSH2 0x3484 PUSH1 0x60 DUP8 ADD PUSH2 0x3063 JUMP JUMPDEST SWAP2 POP PUSH2 0x3492 PUSH1 0x80 DUP8 ADD PUSH2 0x3063 JUMP JUMPDEST SWAP1 POP SWAP3 SWAP6 POP SWAP3 SWAP6 SWAP1 SWAP4 POP JUMP JUMPDEST PUSH1 0x0 DUP2 MLOAD DUP1 DUP5 MSTORE PUSH2 0x34B6 DUP2 PUSH1 0x20 DUP7 ADD PUSH1 0x20 DUP7 ADD PUSH2 0x37A6 JUMP JUMPDEST PUSH1 0x1F ADD PUSH1 0x1F NOT AND SWAP3 SWAP1 SWAP3 ADD PUSH1 0x20 ADD SWAP3 SWAP2 POP POP JUMP JUMPDEST PUSH1 0x0 DUP3 MLOAD PUSH2 0x34DC DUP2 DUP5 PUSH1 0x20 DUP8 ADD PUSH2 0x37A6 JUMP JUMPDEST PUSH11 0x2434B23232B7173539B7B7 PUSH1 0xA9 SHL SWAP3 ADD SWAP2 DUP3 MSTORE POP PUSH1 0xB ADD SWAP2 SWAP1 POP JUMP JUMPDEST PUSH1 0x0 DUP4 MLOAD PUSH2 0x350B DUP2 DUP5 PUSH1 0x20 DUP9 ADD PUSH2 0x37A6 JUMP JUMPDEST SWAP2 SWAP1 SWAP2 ADD SWAP2 DUP3 MSTORE POP PUSH1 0x20 ADD SWAP2 SWAP1 POP JUMP JUMPDEST PUSH1 0x1 PUSH1 0x1 PUSH1 0xA0 SHL SUB DUP6 DUP2 AND DUP3 MSTORE DUP5 AND PUSH1 0x20 DUP3 ADD MSTORE PUSH1 0x40 DUP2 ADD DUP4 SWAP1 MSTORE PUSH1 0x80 PUSH1 0x60 DUP3 ADD DUP2 SWAP1 MSTORE PUSH1 0x0 SWAP1 PUSH2 0x354E SWAP1 DUP4 ADD DUP5 PUSH2 0x349E JUMP JUMPDEST SWAP7 SWAP6 POP POP POP POP POP POP JUMP JUMPDEST PUSH1 0x20 DUP2 MSTORE PUSH1 0x0 PUSH2 0x1ACC PUSH1 0x20 DUP4 ADD DUP5 PUSH2 0x349E JUMP JUMPDEST PUSH1 0x20 DUP1 DUP3 MSTORE PUSH1 0x1E SWAP1 DUP3 ADD MSTORE PUSH32 0x5468652063616C6C657220697320616E6F7468657220636F6E74726163740000 PUSH1 0x40 DUP3 ADD MSTORE PUSH1 0x60 ADD SWAP1 JUMP JUMPDEST PUSH1 0x20 DUP1 DUP3 MSTORE PUSH1 0x12 SWAP1 DUP3 ADD MSTORE PUSH18 0x72656163686564206D617820737570706C79 PUSH1 0x70 SHL PUSH1 0x40 DUP3 ADD MSTORE PUSH1 0x60 ADD SWAP1 JUMP JUMPDEST PUSH1 0x20 DUP1 DUP3 MSTORE DUP2 DUP2 ADD MSTORE PUSH32 0x4F776E61626C653A2063616C6C6572206973206E6F7420746865206F776E6572 PUSH1 0x40 DUP3 ADD MSTORE PUSH1 0x60 ADD SWAP1 JUMP JUMPDEST PUSH1 0x20 DUP1 DUP3 MSTORE PUSH1 0x33 SWAP1 DUP3 ADD MSTORE PUSH32 0x455243373231413A207472616E7366657220746F206E6F6E2045524337323152 PUSH1 0x40 DUP3 ADD MSTORE PUSH19 0x32B1B2B4BB32B91034B6B83632B6B2B73A32B9 PUSH1 0x69 SHL PUSH1 0x60 DUP3 ADD MSTORE PUSH1 0x80 ADD SWAP1 JUMP JUMPDEST PUSH1 0x20 DUP1 DUP3 MSTORE PUSH1 0x28 SWAP1 DUP3 ADD MSTORE PUSH32 0x61646472657373657320646F6573206E6F74206D61746368206E756D536C6F74 PUSH1 0x40 DUP3 ADD MSTORE PUSH8 0xE640D8CADCCEE8D PUSH1 0xC3 SHL PUSH1 0x60 DUP3 ADD MSTORE PUSH1 0x80 ADD SWAP1 JUMP JUMPDEST PUSH1 0x40 MLOAD PUSH1 0x1F DUP3 ADD PUSH1 0x1F NOT AND DUP2 ADD PUSH1 0x1 PUSH1 0x1 PUSH1 0x40 SHL SUB DUP2 GT DUP3 DUP3 LT OR ISZERO PUSH2 0x36C6 JUMPI PUSH2 0x36C6 PUSH2 0x3895 JUMP JUMPDEST PUSH1 0x40 MSTORE SWAP2 SWAP1 POP JUMP JUMPDEST PUSH1 0x0 PUSH1 0x1 PUSH1 0x1 PUSH1 0x40 SHL SUB DUP3 GT ISZERO PUSH2 0x36E7 JUMPI PUSH2 0x36E7 PUSH2 0x3895 JUMP JUMPDEST POP PUSH1 0x5 SHL PUSH1 0x20 ADD SWAP1 JUMP JUMPDEST PUSH1 0x0 PUSH1 0x1 PUSH1 0x1 PUSH1 0x80 SHL SUB DUP1 DUP4 AND DUP2 DUP6 AND DUP1 DUP4 SUB DUP3 GT ISZERO PUSH2 0x3713 JUMPI PUSH2 0x3713 PUSH2 0x3853 JUMP JUMPDEST ADD SWAP5 SWAP4 POP POP POP POP JUMP JUMPDEST PUSH1 0x0 DUP3 NOT DUP3 GT ISZERO PUSH2 0x372F JUMPI PUSH2 0x372F PUSH2 0x3853 JUMP JUMPDEST POP ADD SWAP1 JUMP JUMPDEST PUSH1 0x0 DUP3 PUSH2 0x3743 JUMPI PUSH2 0x3743 PUSH2 0x3869 JUMP JUMPDEST POP DIV SWAP1 JUMP JUMPDEST PUSH1 0x0 DUP2 PUSH1 0x0 NOT DIV DUP4 GT DUP3 ISZERO ISZERO AND ISZERO PUSH2 0x3762 JUMPI PUSH2 0x3762 PUSH2 0x3853 JUMP JUMPDEST POP MUL SWAP1 JUMP JUMPDEST PUSH1 0x0 PUSH1 0x1 PUSH1 0x1 PUSH1 0x80 SHL SUB DUP4 DUP2 AND SWAP1 DUP4 AND DUP2 DUP2 LT ISZERO PUSH2 0x3787 JUMPI PUSH2 0x3787 PUSH2 0x3853 JUMP JUMPDEST SUB SWAP4 SWAP3 POP POP POP JUMP JUMPDEST PUSH1 0x0 DUP3 DUP3 LT ISZERO PUSH2 0x37A1 JUMPI PUSH2 0x37A1 PUSH2 0x3853 JUMP JUMPDEST POP SUB SWAP1 JUMP JUMPDEST PUSH1 0x0 JUMPDEST DUP4 DUP2 LT ISZERO PUSH2 0x37C1 JUMPI DUP2 DUP2 ADD MLOAD DUP4 DUP3 ADD MSTORE PUSH1 0x20 ADD PUSH2 0x37A9 JUMP JUMPDEST DUP4 DUP2 GT ISZERO PUSH2 0x126C JUMPI POP POP PUSH1 0x0 SWAP2 ADD MSTORE JUMP JUMPDEST PUSH1 0x0 DUP2 PUSH2 0x37E1 JUMPI PUSH2 0x37E1 PUSH2 0x3853 JUMP JUMPDEST POP PUSH1 0x0 NOT ADD SWAP1 JUMP JUMPDEST PUSH1 0x1 DUP2 DUP2 SHR SWAP1 DUP3 AND DUP1 PUSH2 0x37FD JUMPI PUSH1 0x7F DUP3 AND SWAP2 POP JUMPDEST PUSH1 0x20 DUP3 LT DUP2 EQ ISZERO PUSH2 0x381E JUMPI PUSH4 0x4E487B71 PUSH1 0xE0 SHL PUSH1 0x0 MSTORE PUSH1 0x22 PUSH1 0x4 MSTORE PUSH1 0x24 PUSH1 0x0 REVERT JUMPDEST POP SWAP2 SWAP1 POP JUMP JUMPDEST PUSH1 0x0 PUSH1 0x0 NOT DUP3 EQ ISZERO PUSH2 0x3838 JUMPI PUSH2 0x3838 PUSH2 0x3853 JUMP JUMPDEST POP PUSH1 0x1 ADD SWAP1 JUMP JUMPDEST PUSH1 0x0 DUP3 PUSH2 0x384E JUMPI PUSH2 0x384E PUSH2 0x3869 JUMP JUMPDEST POP MOD SWAP1 JUMP JUMPDEST PUSH4 0x4E487B71 PUSH1 0xE0 SHL PUSH1 0x0 MSTORE PUSH1 0x11 PUSH1 0x4 MSTORE PUSH1 0x24 PUSH1 0x0 REVERT JUMPDEST PUSH4 0x4E487B71 PUSH1 0xE0 SHL PUSH1 0x0 MSTORE PUSH1 0x12 PUSH1 0x4 MSTORE PUSH1 0x24 PUSH1 0x0 REVERT JUMPDEST PUSH4 0x4E487B71 PUSH1 0xE0 SHL PUSH1 0x0 MSTORE PUSH1 0x32 PUSH1 0x4 MSTORE PUSH1 0x24 PUSH1 0x0 REVERT JUMPDEST PUSH4 0x4E487B71 PUSH1 0xE0 SHL PUSH1 0x0 MSTORE PUSH1 0x41 PUSH1 0x4 MSTORE PUSH1 0x24 PUSH1 0x0 REVERT JUMPDEST PUSH1 0x1 PUSH1 0x1 PUSH1 0xE0 SHL SUB NOT DUP2 AND DUP2 EQ PUSH2 0x2242 JUMPI PUSH1 0x0 DUP1 REVERT INVALID LOG2 PUSH5 0x6970667358 0x22 SLT KECCAK256 NUMBER 0xC1 0xAD 0x25 DUP3 SHR BLOCKHASH 0xC4 ISZERO SWAP8 CALLDATALOAD 0x21 PUSH11 0x10CF49C50680E7526EC274 DUP5 0xB8 CALLER 0xF8 0xDE 0x1F SWAP1 EQ PUSH5 0x736F6C6343 STOP ADDMOD SMOD STOP CALLER "
		},
		"gasEstimates": {
			"creation": {
				"codeDepositCost": "2916600",
				"executionCost": "infinite",
				"totalCost": "infinite"
			},
			"external": {
				"AUCTION_DROP_INTERVAL()": "284",
				"AUCTION_DROP_PER_STEP()": "262",
				"AUCTION_END_PRICE()": "328",
				"AUCTION_PRICE_CURVE_LENGTH()": "327",
				"AUCTION_START_PRICE()": "263",
				"approve(address,uint256)": "infinite",
				"auctionMint(uint256)": "infinite",
				"balanceOf(address)": "2762",
				"changeRevealed(bool)": "26736",
				"collectedlist(address)": "2675",
				"collectedlistMint(uint256)": "infinite",
				"devMint(uint256)": "infinite",
				"endAuctionAndSetupNonAuctionSaleInfo(uint64,uint64,uint32,uint32,uint32)": "infinite",
				"getApproved(uint256)": "4745",
				"getAuctionPrice(uint256)": "infinite",
				"getOwnershipData(uint256)": "infinite",
				"isApprovedForAll(address,address)": "infinite",
				"isPublicSaleOn(uint256,uint256,uint256)": "565",
				"maxPerAddressDuringMint()": "infinite",
				"name()": "infinite",
				"nextOwnerToExplicitlySet()": "2384",
				"numberMinted(address)": "2775",
				"owner()": "2465",
				"ownerOf(uint256)": "infinite",
				"publicSaleMint(uint256,uint256)": "infinite",
				"renounceOwnership()": "28160",
				"revealed()": "2433",
				"safeTransferFrom(address,address,uint256)": "infinite",
				"safeTransferFrom(address,address,uint256,bytes)": "infinite",
				"saleConfig()": "4777",
				"seedCollectedlist(address[],uint256[])": "infinite",
				"seedWhitelist(address[],uint256[])": "infinite",
				"setApprovalForAll(address,bool)": "infinite",
				"setAuctionSaleStartTime(uint32)": "26808",
				"setBaseURI(string)": "infinite",
				"setOwnersExplicit(uint256)": "infinite",
				"setPublicSaleKey(uint32)": "26854",
				"supportsInterface(bytes4)": "612",
				"symbol()": "infinite",
				"tokenByIndex(uint256)": "2605",
				"tokenOfOwnerByIndex(address,uint256)": "infinite",
				"tokenURI(uint256)": "infinite",
				"totalSupply()": "2438",
				"transferFrom(address,address,uint256)": "infinite",
				"transferOwnership(address)": "28419",
				"whitelist(address)": "2652",
				"whitelistMint(uint256)": "infinite",
				"withdraw()": "infinite",
				"withdrawToSender()": "infinite"
			},
			"internal": {
				"_baseURI()": "infinite",
				"refundIfOver(uint256)": "infinite"
			}
		},
		"methodIdentifiers": {
			"AUCTION_DROP_INTERVAL()": "5cae01d3",
			"AUCTION_DROP_PER_STEP()": "59f369fe",
			"AUCTION_END_PRICE()": "caf8a6d1",
			"AUCTION_PRICE_CURVE_LENGTH()": "f8a987d8",
			"AUCTION_START_PRICE()": "7a1c4a56",
			"approve(address,uint256)": "095ea7b3",
			"auctionMint(uint256)": "4d3554c3",
			"balanceOf(address)": "70a08231",
			"changeRevealed(bool)": "cf3604dc",
			"collectedlist(address)": "52c9c209",
			"collectedlistMint(uint256)": "43070e97",
			"devMint(uint256)": "375a069a",
			"endAuctionAndSetupNonAuctionSaleInfo(uint64,uint64,uint32,uint32,uint32)": "9f984fd6",
			"getApproved(uint256)": "081812fc",
			"getAuctionPrice(uint256)": "917d009e",
			"getOwnershipData(uint256)": "9231ab2a",
			"isApprovedForAll(address,address)": "e985e9c5",
			"isPublicSaleOn(uint256,uint256,uint256)": "422030ba",
			"maxPerAddressDuringMint()": "8bc35c2f",
			"name()": "06fdde03",
			"nextOwnerToExplicitlySet()": "d7224ba0",
			"numberMinted(address)": "dc33e681",
			"owner()": "8da5cb5b",
			"ownerOf(uint256)": "6352211e",
			"publicSaleMint(uint256,uint256)": "cb91d8b3",
			"renounceOwnership()": "715018a6",
			"revealed()": "51830227",
			"safeTransferFrom(address,address,uint256)": "42842e0e",
			"safeTransferFrom(address,address,uint256,bytes)": "b88d4fde",
			"saleConfig()": "90aa0b0f",
			"seedCollectedlist(address[],uint256[])": "f2042589",
			"seedWhitelist(address[],uint256[])": "ab580700",
			"setApprovalForAll(address,bool)": "a22cb465",
			"setAuctionSaleStartTime(uint32)": "6ebc5601",
			"setBaseURI(string)": "55f804b3",
			"setOwnersExplicit(uint256)": "2d20fb60",
			"setPublicSaleKey(uint32)": "90028083",
			"supportsInterface(bytes4)": "01ffc9a7",
			"symbol()": "95d89b41",
			"tokenByIndex(uint256)": "4f6ccce7",
			"tokenOfOwnerByIndex(address,uint256)": "2f745c59",
			"tokenURI(uint256)": "c87b56dd",
			"totalSupply()": "18160ddd",
			"transferFrom(address,address,uint256)": "23b872dd",
			"transferOwnership(address)": "f2fde38b",
			"whitelist(address)": "9b19251a",
			"whitelistMint(uint256)": "868ff4a2",
			"withdraw()": "3ccfd60b",
			"withdrawToSender()": "077af430"
		}
	},
	"abi": [
		{
			"inputs": [
				{
					"internalType": "uint256",
					"name": "maxBatchSize_",
					"type": "uint256"
				},
				{
					"internalType": "uint256",
					"name": "collectionSize_",
					"type": "uint256"
				},
				{
					"internalType": "uint256",
					"name": "collectedlistBatchSize_",
					"type": "uint256"
				},
				{
					"internalType": "uint256",
					"name": "whitelistBatchSize_",
					"type": "uint256"
				},
				{
					"internalType": "uint256",
					"name": "amountForAuctionAndDev_",
					"type": "uint256"
				},
				{
					"internalType": "uint256",
					"name": "amountForDevs_",
					"type": "uint256"
				}
			],
			"stateMutability": "nonpayable",
			"type": "constructor"
		},
		{
			"anonymous": false,
			"inputs": [
				{
					"indexed": true,
					"internalType": "address",
					"name": "owner",
					"type": "address"
				},
				{
					"indexed": true,
					"internalType": "address",
					"name": "approved",
					"type": "address"
				},
				{
					"indexed": true,
					"internalType": "uint256",
					"name": "tokenId",
					"type": "uint256"
				}
			],
			"name": "Approval",
			"type": "event"
		},
		{
			"anonymous": false,
			"inputs": [
				{
					"indexed": true,
					"internalType": "address",
					"name": "owner",
					"type": "address"
				},
				{
					"indexed": true,
					"internalType": "address",
					"name": "operator",
					"type": "address"
				},
				{
					"indexed": false,
					"internalType": "bool",
					"name": "approved",
					"type": "bool"
				}
			],
			"name": "ApprovalForAll",
			"type": "event"
		},
		{
			"anonymous": false,
			"inputs": [
				{
					"indexed": true,
					"internalType": "address",
					"name": "previousOwner",
					"type": "address"
				},
				{
					"indexed": true,
					"internalType": "address",
					"name": "newOwner",
					"type": "address"
				}
			],
			"name": "OwnershipTransferred",
			"type": "event"
		},
		{
			"anonymous": false,
			"inputs": [
				{
					"indexed": true,
					"internalType": "address",
					"name": "from",
					"type": "address"
				},
				{
					"indexed": true,
					"internalType": "address",
					"name": "to",
					"type": "address"
				},
				{
					"indexed": true,
					"internalType": "uint256",
					"name": "tokenId",
					"type": "uint256"
				}
			],
			"name": "Transfer",
			"type": "event"
		},
		{
			"inputs": [],
			"name": "AUCTION_DROP_INTERVAL",
			"outputs": [
				{
					"internalType": "uint256",
					"name": "",
					"type": "uint256"
				}
			],
			"stateMutability": "view",
			"type": "function"
		},
		{
			"inputs": [],
			"name": "AUCTION_DROP_PER_STEP",
			"outputs": [
				{
					"internalType": "uint256",
					"name": "",
					"type": "uint256"
				}
			],
			"stateMutability": "view",
			"type": "function"
		},
		{
			"inputs": [],
			"name": "AUCTION_END_PRICE",
			"outputs": [
				{
					"internalType": "uint256",
					"name": "",
					"type": "uint256"
				}
			],
			"stateMutability": "view",
			"type": "function"
		},
		{
			"inputs": [],
			"name": "AUCTION_PRICE_CURVE_LENGTH",
			"outputs": [
				{
					"internalType": "uint256",
					"name": "",
					"type": "uint256"
				}
			],
			"stateMutability": "view",
			"type": "function"
		},
		{
			"inputs": [],
			"name": "AUCTION_START_PRICE",
			"outputs": [
				{
					"internalType": "uint256",
					"name": "",
					"type": "uint256"
				}
			],
			"stateMutability": "view",
			"type": "function"
		},
		{
			"inputs": [
				{
					"internalType": "address",
					"name": "to",
					"type": "address"
				},
				{
					"internalType": "uint256",
					"name": "tokenId",
					"type": "uint256"
				}
			],
			"name": "approve",
			"outputs": [],
			"stateMutability": "nonpayable",
			"type": "function"
		},
		{
			"inputs": [
				{
					"internalType": "uint256",
					"name": "quantity",
					"type": "uint256"
				}
			],
			"name": "auctionMint",
			"outputs": [],
			"stateMutability": "payable",
			"type": "function"
		},
		{
			"inputs": [
				{
					"internalType": "address",
					"name": "owner",
					"type": "address"
				}
			],
			"name": "balanceOf",
			"outputs": [
				{
					"internalType": "uint256",
					"name": "",
					"type": "uint256"
				}
			],
			"stateMutability": "view",
			"type": "function"
		},
		{
			"inputs": [
				{
					"internalType": "bool",
					"name": "_revealed",
					"type": "bool"
				}
			],
			"name": "changeRevealed",
			"outputs": [],
			"stateMutability": "nonpayable",
			"type": "function"
		},
		{
			"inputs": [
				{
					"internalType": "address",
					"name": "",
					"type": "address"
				}
			],
			"name": "collectedlist",
			"outputs": [
				{
					"internalType": "uint256",
					"name": "",
					"type": "uint256"
				}
			],
			"stateMutability": "view",
			"type": "function"
		},
		{
			"inputs": [
				{
					"internalType": "uint256",
					"name": "quantity",
					"type": "uint256"
				}
			],
			"name": "collectedlistMint",
			"outputs": [],
			"stateMutability": "payable",
			"type": "function"
		},
		{
			"inputs": [
				{
					"internalType": "uint256",
					"name": "quantity",
					"type": "uint256"
				}
			],
			"name": "devMint",
			"outputs": [],
			"stateMutability": "nonpayable",
			"type": "function"
		},
		{
			"inputs": [
				{
					"internalType": "uint64",
					"name": "whitelistPriceWei",
					"type": "uint64"
				},
				{
					"internalType": "uint64",
					"name": "publicPriceWei",
					"type": "uint64"
				},
				{
					"internalType": "uint32",
					"name": "whitelistSaleStartTime",
					"type": "uint32"
				},
				{
					"internalType": "uint32",
					"name": "collectedlistSaleStartTime",
					"type": "uint32"
				},
				{
					"internalType": "uint32",
					"name": "publicSaleStartTime",
					"type": "uint32"
				}
			],
			"name": "endAuctionAndSetupNonAuctionSaleInfo",
			"outputs": [],
			"stateMutability": "nonpayable",
			"type": "function"
		},
		{
			"inputs": [
				{
					"internalType": "uint256",
					"name": "tokenId",
					"type": "uint256"
				}
			],
			"name": "getApproved",
			"outputs": [
				{
					"internalType": "address",
					"name": "",
					"type": "address"
				}
			],
			"stateMutability": "view",
			"type": "function"
		},
		{
			"inputs": [
				{
					"internalType": "uint256",
					"name": "_saleStartTime",
					"type": "uint256"
				}
			],
			"name": "getAuctionPrice",
			"outputs": [
				{
					"internalType": "uint256",
					"name": "",
					"type": "uint256"
				}
			],
			"stateMutability": "view",
			"type": "function"
		},
		{
			"inputs": [
				{
					"internalType": "uint256",
					"name": "tokenId",
					"type": "uint256"
				}
			],
			"name": "getOwnershipData",
			"outputs": [
				{
					"components": [
						{
							"internalType": "address",
							"name": "addr",
							"type": "address"
						},
						{
							"internalType": "uint64",
							"name": "startTimestamp",
							"type": "uint64"
						}
					],
					"internalType": "struct ERC721A.TokenOwnership",
					"name": "",
					"type": "tuple"
				}
			],
			"stateMutability": "view",
			"type": "function"
		},
		{
			"inputs": [
				{
					"internalType": "address",
					"name": "owner",
					"type": "address"
				},
				{
					"internalType": "address",
					"name": "operator",
					"type": "address"
				}
			],
			"name": "isApprovedForAll",
			"outputs": [
				{
					"internalType": "bool",
					"name": "",
					"type": "bool"
				}
			],
			"stateMutability": "view",
			"type": "function"
		},
		{
			"inputs": [
				{
					"internalType": "uint256",
					"name": "publicPriceWei",
					"type": "uint256"
				},
				{
					"internalType": "uint256",
					"name": "publicSaleKey",
					"type": "uint256"
				},
				{
					"internalType": "uint256",
					"name": "publicSaleStartTime",
					"type": "uint256"
				}
			],
			"name": "isPublicSaleOn",
			"outputs": [
				{
					"internalType": "bool",
					"name": "",
					"type": "bool"
				}
			],
			"stateMutability": "view",
			"type": "function"
		},
		{
			"inputs": [],
			"name": "maxPerAddressDuringMint",
			"outputs": [
				{
					"internalType": "uint256",
					"name": "",
					"type": "uint256"
				}
			],
			"stateMutability": "view",
			"type": "function"
		},
		{
			"inputs": [],
			"name": "name",
			"outputs": [
				{
					"internalType": "string",
					"name": "",
					"type": "string"
				}
			],
			"stateMutability": "view",
			"type": "function"
		},
		{
			"inputs": [],
			"name": "nextOwnerToExplicitlySet",
			"outputs": [
				{
					"internalType": "uint256",
					"name": "",
					"type": "uint256"
				}
			],
			"stateMutability": "view",
			"type": "function"
		},
		{
			"inputs": [
				{
					"internalType": "address",
					"name": "owner",
					"type": "address"
				}
			],
			"name": "numberMinted",
			"outputs": [
				{
					"internalType": "uint256",
					"name": "",
					"type": "uint256"
				}
			],
			"stateMutability": "view",
			"type": "function"
		},
		{
			"inputs": [],
			"name": "owner",
			"outputs": [
				{
					"internalType": "address",
					"name": "",
					"type": "address"
				}
			],
			"stateMutability": "view",
			"type": "function"
		},
		{
			"inputs": [
				{
					"internalType": "uint256",
					"name": "tokenId",
					"type": "uint256"
				}
			],
			"name": "ownerOf",
			"outputs": [
				{
					"internalType": "address",
					"name": "",
					"type": "address"
				}
			],
			"stateMutability": "view",
			"type": "function"
		},
		{
			"inputs": [
				{
					"internalType": "uint256",
					"name": "quantity",
					"type": "uint256"
				},
				{
					"internalType": "uint256",
					"name": "callerPublicSaleKey",
					"type": "uint256"
				}
			],
			"name": "publicSaleMint",
			"outputs": [],
			"stateMutability": "payable",
			"type": "function"
		},
		{
			"inputs": [],
			"name": "renounceOwnership",
			"outputs": [],
			"stateMutability": "nonpayable",
			"type": "function"
		},
		{
			"inputs": [],
			"name": "revealed",
			"outputs": [
				{
					"internalType": "bool",
					"name": "",
					"type": "bool"
				}
			],
			"stateMutability": "view",
			"type": "function"
		},
		{
			"inputs": [
				{
					"internalType": "address",
					"name": "from",
					"type": "address"
				},
				{
					"internalType": "address",
					"name": "to",
					"type": "address"
				},
				{
					"internalType": "uint256",
					"name": "tokenId",
					"type": "uint256"
				}
			],
			"name": "safeTransferFrom",
			"outputs": [],
			"stateMutability": "nonpayable",
			"type": "function"
		},
		{
			"inputs": [
				{
					"internalType": "address",
					"name": "from",
					"type": "address"
				},
				{
					"internalType": "address",
					"name": "to",
					"type": "address"
				},
				{
					"internalType": "uint256",
					"name": "tokenId",
					"type": "uint256"
				},
				{
					"internalType": "bytes",
					"name": "_data",
					"type": "bytes"
				}
			],
			"name": "safeTransferFrom",
			"outputs": [],
			"stateMutability": "nonpayable",
			"type": "function"
		},
		{
			"inputs": [],
			"name": "saleConfig",
			"outputs": [
				{
					"internalType": "uint32",
					"name": "auctionSaleStartTime",
					"type": "uint32"
				},
				{
					"internalType": "uint32",
					"name": "whitelistSalesTime",
					"type": "uint32"
				},
				{
					"internalType": "uint32",
					"name": "publicSaleStartTime",
					"type": "uint32"
				},
				{
					"internalType": "uint64",
					"name": "whitelistPrice",
					"type": "uint64"
				},
				{
					"internalType": "uint64",
					"name": "collectedlistPrice",
					"type": "uint64"
				},
				{
					"internalType": "uint64",
					"name": "publicPrice",
					"type": "uint64"
				},
				{
					"internalType": "uint32",
					"name": "publicSaleKey",
					"type": "uint32"
				}
			],
			"stateMutability": "view",
			"type": "function"
		},
		{
			"inputs": [
				{
					"internalType": "address[]",
					"name": "addresses",
					"type": "address[]"
				},
				{
					"internalType": "uint256[]",
					"name": "numSlots",
					"type": "uint256[]"
				}
			],
			"name": "seedCollectedlist",
			"outputs": [],
			"stateMutability": "nonpayable",
			"type": "function"
		},
		{
			"inputs": [
				{
					"internalType": "address[]",
					"name": "addresses",
					"type": "address[]"
				},
				{
					"internalType": "uint256[]",
					"name": "numSlots",
					"type": "uint256[]"
				}
			],
			"name": "seedWhitelist",
			"outputs": [],
			"stateMutability": "nonpayable",
			"type": "function"
		},
		{
			"inputs": [
				{
					"internalType": "address",
					"name": "operator",
					"type": "address"
				},
				{
					"internalType": "bool",
					"name": "approved",
					"type": "bool"
				}
			],
			"name": "setApprovalForAll",
			"outputs": [],
			"stateMutability": "nonpayable",
			"type": "function"
		},
		{
			"inputs": [
				{
					"internalType": "uint32",
					"name": "timestamp",
					"type": "uint32"
				}
			],
			"name": "setAuctionSaleStartTime",
			"outputs": [],
			"stateMutability": "nonpayable",
			"type": "function"
		},
		{
			"inputs": [
				{
					"internalType": "string",
					"name": "baseURI",
					"type": "string"
				}
			],
			"name": "setBaseURI",
			"outputs": [],
			"stateMutability": "nonpayable",
			"type": "function"
		},
		{
			"inputs": [
				{
					"internalType": "uint256",
					"name": "quantity",
					"type": "uint256"
				}
			],
			"name": "setOwnersExplicit",
			"outputs": [],
			"stateMutability": "nonpayable",
			"type": "function"
		},
		{
			"inputs": [
				{
					"internalType": "uint32",
					"name": "key",
					"type": "uint32"
				}
			],
			"name": "setPublicSaleKey",
			"outputs": [],
			"stateMutability": "nonpayable",
			"type": "function"
		},
		{
			"inputs": [
				{
					"internalType": "bytes4",
					"name": "interfaceId",
					"type": "bytes4"
				}
			],
			"name": "supportsInterface",
			"outputs": [
				{
					"internalType": "bool",
					"name": "",
					"type": "bool"
				}
			],
			"stateMutability": "view",
			"type": "function"
		},
		{
			"inputs": [],
			"name": "symbol",
			"outputs": [
				{
					"internalType": "string",
					"name": "",
					"type": "string"
				}
			],
			"stateMutability": "view",
			"type": "function"
		},
		{
			"inputs": [
				{
					"internalType": "uint256",
					"name": "index",
					"type": "uint256"
				}
			],
			"name": "tokenByIndex",
			"outputs": [
				{
					"internalType": "uint256",
					"name": "",
					"type": "uint256"
				}
			],
			"stateMutability": "view",
			"type": "function"
		},
		{
			"inputs": [
				{
					"internalType": "address",
					"name": "owner",
					"type": "address"
				},
				{
					"internalType": "uint256",
					"name": "index",
					"type": "uint256"
				}
			],
			"name": "tokenOfOwnerByIndex",
			"outputs": [
				{
					"internalType": "uint256",
					"name": "",
					"type": "uint256"
				}
			],
			"stateMutability": "view",
			"type": "function"
		},
		{
			"inputs": [
				{
					"internalType": "uint256",
					"name": "tokenid",
					"type": "uint256"
				}
			],
			"name": "tokenURI",
			"outputs": [
				{
					"internalType": "string",
					"name": "",
					"type": "string"
				}
			],
			"stateMutability": "view",
			"type": "function"
		},
		{
			"inputs": [],
			"name": "totalSupply",
			"outputs": [
				{
					"internalType": "uint256",
					"name": "",
					"type": "uint256"
				}
			],
			"stateMutability": "view",
			"type": "function"
		},
		{
			"inputs": [
				{
					"internalType": "address",
					"name": "from",
					"type": "address"
				},
				{
					"internalType": "address",
					"name": "to",
					"type": "address"
				},
				{
					"internalType": "uint256",
					"name": "tokenId",
					"type": "uint256"
				}
			],
			"name": "transferFrom",
			"outputs": [],
			"stateMutability": "nonpayable",
			"type": "function"
		},
		{
			"inputs": [
				{
					"internalType": "address",
					"name": "newOwner",
					"type": "address"
				}
			],
			"name": "transferOwnership",
			"outputs": [],
			"stateMutability": "nonpayable",
			"type": "function"
		},
		{
			"inputs": [
				{
					"internalType": "address",
					"name": "",
					"type": "address"
				}
			],
			"name": "whitelist",
			"outputs": [
				{
					"internalType": "uint256",
					"name": "",
					"type": "uint256"
				}
			],
			"stateMutability": "view",
			"type": "function"
		},
		{
			"inputs": [
				{
					"internalType": "uint256",
					"name": "quantity",
					"type": "uint256"
				}
			],
			"name": "whitelistMint",
			"outputs": [],
			"stateMutability": "payable",
			"type": "function"
		},
		{
			"inputs": [],
			"name": "withdraw",
			"outputs": [],
			"stateMutability": "nonpayable",
			"type": "function"
		},
		{
			"inputs": [],
			"name": "withdrawToSender",
			"outputs": [],
			"stateMutability": "nonpayable",
			"type": "function"
		}
	]
}