{
	"data": {
		"bytecode": {
			"linkReferences": {},
			"object": "6080604052600f805460ff191660011790556200002967016345785d8a0000633b9aca0062000d7d565b620000379060001962000dd7565b620000459060001962000d9f565b60115560006015556016805461ffff191690553480156200006557600080fd5b506040516200427238038062004272833981016040819052620000889162000d2e565b620000933362000813565b60115460056000336001600160a01b03166001600160a01b031681526020019081526020016000208190555060016040518060e00160405280600a63ffffffff168152602001600463ffffffff168152602001602863ffffffff168152602001602863ffffffff168152602001601063ffffffff168152602001846001600160a01b03168152602001836001600160a01b0316815250908060018154018082558091505060019003906000526020600020906003020160009091909190915060008201518160000160006101000a81548163ffffffff021916908363ffffffff16021790555060208201518160000160046101000a81548163ffffffff021916908363ffffffff16021790555060408201518160000160086101000a81548163ffffffff021916908363ffffffff160217905550606082015181600001600c6101000a81548163ffffffff021916908363ffffffff16021790555060808201518160000160106101000a81548163ffffffff021916908363ffffffff16021790555060a08201518160010160006101000a8154816001600160a01b0302191690836001600160a01b0316021790555060c08201518160020160006101000a8154816001600160a01b0302191690836001600160a01b03160217905550505060016040518060e00160405280601963ffffffff168152602001600463ffffffff168152602001602863ffffffff168152602001602863ffffffff168152602001601063ffffffff168152602001846001600160a01b03168152602001836001600160a01b0316815250908060018154018082558091505060019003906000526020600020906003020160009091909190915060008201518160000160006101000a81548163ffffffff021916908363ffffffff16021790555060208201518160000160046101000a81548163ffffffff021916908363ffffffff16021790555060408201518160000160086101000a81548163ffffffff021916908363ffffffff160217905550606082015181600001600c6101000a81548163ffffffff021916908363ffffffff16021790555060808201518160000160106101000a81548163ffffffff021916908363ffffffff16021790555060a08201518160010160006101000a8154816001600160a01b0302191690836001600160a01b0316021790555060c08201518160020160006101000a8154816001600160a01b0302191690836001600160a01b0316021790555050506001808154811062000439576200043962000e1a565b600091825260209182902060039182020180546002805463ffffffff92831663ffffffff1982168117835584546001600160401b03199092161764010000000091829004841690910217808255835463ffffffff60401b1982166801000000000000000091829004851690910290811783558454600160401b600160801b031990921663ffffffff60601b19909116176c0100000000000000000000000091829004841690910217808255835463ffffffff60801b19909116600160801b9182900490931602919091178155600182015483546001600160a01b039182166001600160a01b031991821617909455910154600480549190921690831617815560138054739ac64cc6e4415144c455bd8e4837fea55603e5c39316831790556040805163c45a015560e01b81529051929363c45a015593828401939192909190829003018186803b1580156200058d57600080fd5b505afa158015620005a2573d6000803e3d6000fd5b505050506040513d601f19601f82011682018060405250810190620005c8919062000d10565b6001600160a01b031663c9c6539630601360009054906101000a90046001600160a01b03166001600160a01b031663ad5c46486040518163ffffffff1660e01b815260040160206040518083038186803b1580156200062657600080fd5b505afa1580156200063b573d6000803e3d6000fd5b505050506040513d601f19601f8201168201806040525081019062000661919062000d10565b6040516001600160e01b031960e085901b1681526001600160a01b03928316600482015291166024820152604401602060405180830381600087803b158015620006aa57600080fd5b505af1158015620006bf573d6000803e3d6000fd5b505050506040513d601f19601f82011682018060405250810190620006e5919062000d10565b601480546001600160a01b0319166001600160a01b03929092169190911790556200071d67016345785d8a0000633b9aca0062000d7d565b600d5560646200073a67016345785d8a0000633b9aca0062000d7d565b6200074790600262000d7d565b62000753919062000d66565b600e55620007736200076d6000546001600160a01b031690565b62000863565b620007906200078a6000546001600160a01b031690565b620008d6565b6200079d61dead620008d6565b620007a882620008d6565b620007b381620008d6565b620007be30620008d6565b3360007fddf252ad1be2c89b69c2b068fc378daa952ba7f163c4a11628f55a4df523b3ef620007fa67016345785d8a0000633b9aca0062000d7d565b60405190815260200160405180910390a3505062000e30565b600080546001600160a01b038381166001600160a01b0319831681178455604051919092169283917f8be0079c531659141344cd1fd0a4f28419497f9722a3daafe3b4186f6b6457e09190a35050565b6000546001600160a01b03163314620008b25760405162461bcd60e51b815260206004820181905260248201526000805160206200425283398151915260448201526064015b60405180910390fd5b6001600160a01b03166000908152600a60205260409020805460ff19166001179055565b6000546001600160a01b03163314620009215760405162461bcd60e51b81526020600482018190526024820152600080516020620042528339815191526044820152606401620008a9565b6001600160a01b03811660009081526008602052604090205460ff16156200098c5760405162461bcd60e51b815260206004820152601b60248201527f4163636f756e7420697320616c7265616479206578636c7564656400000000006044820152606401620008a9565b6001600160a01b03811660009081526005602052604090205415620009e9576001600160a01b038116600090815260056020526040902054620009cf9062000a4f565b6001600160a01b0382166000908152600660205260409020555b6001600160a01b03166000818152600860205260408120805460ff191660019081179091556009805491820181559091527f6e1540171b6c0c960b71a7020d9f60077f6af931a8bbf590da0223dacf75c7af0180546001600160a01b0319169091179055565b600060115482111562000ab85760405162461bcd60e51b815260206004820152602a60248201527f416d6f756e74206d757374206265206c657373207468616e20746f74616c207260448201526965666c656374696f6e7360b01b6064820152608401620008a9565b600062000ac462000ad9565b905062000ad2818462000d66565b9392505050565b6000808062000ae762000aff565b909250905062000af8818362000d66565b9250505090565b60115460009081908162000b2067016345785d8a0000633b9aca0062000d7d565b905060005b60095481101562000c955782600560006009848154811062000b4b5762000b4b62000e1a565b60009182526020808320909101546001600160a01b03168352820192909252604001902054118062000bba575081600660006009848154811062000b935762000b9362000e1a565b60009182526020808320909101546001600160a01b03168352820192909252604001902054115b1562000be65760115462000bdb67016345785d8a0000633b9aca0062000d7d565b945094505050509091565b600560006009838154811062000c005762000c0062000e1a565b60009182526020808320909101546001600160a01b0316835282019290925260400190205462000c31908462000d9f565b9250600660006009838154811062000c4d5762000c4d62000e1a565b60009182526020808320909101546001600160a01b0316835282019290925260400190205462000c7e908362000d9f565b91508062000c8c8162000db9565b91505062000b25565b5062000cae67016345785d8a0000633b9aca0062000d7d565b60115462000cbd919062000d66565b82101562000cea5760115462000ce067016345785d8a0000633b9aca0062000d7d565b9350935050509091565b90939092509050565b80516001600160a01b038116811462000d0b57600080fd5b919050565b60006020828403121562000d2357600080fd5b62000ad28262000cf3565b6000806040838503121562000d4257600080fd5b62000d4d8362000cf3565b915062000d5d6020840162000cf3565b90509250929050565b60008262000d785762000d7862000e04565b500490565b600081600019048311821515161562000d9a5762000d9a62000dee565b500290565b60008282101562000db45762000db462000dee565b500390565b600060001982141562000dd05762000dd062000dee565b5060010190565b60008262000de95762000de962000e04565b500690565b634e487b7160e01b600052601160045260246000fd5b634e487b7160e01b600052601260045260246000fd5b634e487b7160e01b600052603260045260246000fd5b6134128062000e406000396000f3fe6080604052600436106102345760003560e01c806370d5ae051161012e578063c29c669a116100ab578063ea2f0b371161006f578063ea2f0b3714610728578063ec28438a14610748578063f2fde38b14610768578063f66895a314610788578063fe575a871461079d57600080fd5b8063c29c669a14610649578063d8b6004014610669578063dd62ed3e14610689578063e594707e146106cf578063e85455d7146106ef57600080fd5b80638da5cb5b116100f25780638da5cb5b1461059d5780638f265a5b146105bb57806395d89b41146105db578063a457c2d714610609578063a9059cbb1461062957600080fd5b806370d5ae05146104d7578063715018a6146104ed5780637d1db4a514610502578063864701a51461051857806388f820201461056457600080fd5b8063313ce567116101bc57806349bd5a5e1161018057806349bd5a5e1461041057806352390c02146104485780635342acb41461046857806353bbf6ac146104a157806370a08231146104b757600080fd5b8063313ce567146103745780633685d4191461039057806339509351146103b0578063437823ec146103d05780634549b039146103f057600080fd5b806318160ddd1161020357806318160ddd146102f457806318a24b5b146103095780631fc9efa11461031e57806323b872dd146103345780632d8381191461035457600080fd5b8063053ab1821461024057806306fdde0314610262578063095ea7b3146102a557806313114a9d146102d557600080fd5b3661023b57005b600080fd5b34801561024c57600080fd5b5061026061025b3660046130cf565b6107d6565b005b34801561026e57600080fd5b50604080518082019091526008815267074657374696e67360c41b60208201525b60405161029c91906131a1565b60405180910390f35b3480156102b157600080fd5b506102c56102c0366004612fde565b6108c6565b604051901515815260200161029c565b3480156102e157600080fd5b506012545b60405190815260200161029c565b34801561030057600080fd5b506102e66108dd565b34801561031557600080fd5b506102606108fa565b34801561032a57600080fd5b506102e6600e5481565b34801561034057600080fd5b506102c561034f366004612f68565b610934565b34801561036057600080fd5b506102e661036f3660046130cf565b6109de565b34801561038057600080fd5b506040516009815260200161029c565b34801561039c57600080fd5b506102606103ab366004612ef5565b610a62565b3480156103bc57600080fd5b506102c56103cb366004612fde565b610c19565b3480156103dc57600080fd5b506102606103eb366004612ef5565b610c55565b3480156103fc57600080fd5b506102e661040b3660046130e8565b610ca3565b34801561041c57600080fd5b50601454610430906001600160a01b031681565b6040516001600160a01b03909116815260200161029c565b34801561045457600080fd5b50610260610463366004612ef5565b610d41565b34801561047457600080fd5b506102c5610483366004612ef5565b6001600160a01b03166000908152600a602052604090205460ff1690565b3480156104ad57600080fd5b506102e660105481565b3480156104c357600080fd5b506102e66104d2366004612ef5565b610e94565b3480156104e357600080fd5b5061043061dead81565b3480156104f957600080fd5b50610260610ef3565b34801561050e57600080fd5b506102e6600d5481565b34801561052457600080fd5b5061052d610f29565b6040805163ffffffff968716815294861660208601529285169284019290925283166060830152909116608082015260a00161029c565b34801561057057600080fd5b506102c561057f366004612ef5565b6001600160a01b031660009081526008602052604090205460ff1690565b3480156105a957600080fd5b506000546001600160a01b0316610430565b3480156105c757600080fd5b506102606105d636600461310b565b611045565b3480156105e757600080fd5b50604080518082019091526005815264054455354360dc1b602082015261028f565b34801561061557600080fd5b506102c5610624366004612fde565b611465565b34801561063557600080fd5b506102c5610644366004612fde565b6114fe565b34801561065557600080fd5b50610260610664366004612fa9565b61150b565b34801561067557600080fd5b506102606106843660046130cf565b61158b565b34801561069557600080fd5b506102e66106a4366004612f2f565b6001600160a01b03918216600090815260076020908152604080832093909416825291909152205490565b3480156106db57600080fd5b506102606106ea366004612fa9565b611644565b3480156106fb57600080fd5b506102c561070a366004612ef5565b6001600160a01b03166000908152600b602052604090205460ff1690565b34801561073457600080fd5b50610260610743366004612ef5565b611699565b34801561075457600080fd5b506102606107633660046130cf565b6116e4565b34801561077457600080fd5b50610260610783366004612ef5565b6117a4565b34801561079457600080fd5b5061052d61183f565b3480156107a957600080fd5b506102c56107b8366004612ef5565b6001600160a01b03166000908152600c602052604090205460ff1690565b3360008181526008602052604090205460ff16156108505760405162461bcd60e51b815260206004820152602c60248201527f4578636c75646564206164647265737365732063616e6e6f742063616c6c207460448201526b3434b990333ab731ba34b7b760a11b60648201526084015b60405180910390fd5b600061085b83611927565b5050506001600160a01b0384166000908152600560205260409020549192506108869183915061331d565b6001600160a01b0383166000908152600560205260409020556011546108ad90829061331d565b6011556012546108be90849061329c565b601255505050565b60006108d33384846119b8565b5060015b92915050565b60006108f567016345785d8a0000633b9aca006132fe565b905090565b6000546001600160a01b031633146109245760405162461bcd60e51b8152600401610847906131f6565b600f805460ff1916905542601055565b6000610941848484611adc565b6001600160a01b0384166000908152600760209081526040808320338452909152902054828110156109c65760405162461bcd60e51b815260206004820152602860248201527f45524332303a207472616e7366657220616d6f756e74206578636565647320616044820152676c6c6f77616e636560c01b6064820152608401610847565b6109d385338584036119b8565b506001949350505050565b6000601154821115610a455760405162461bcd60e51b815260206004820152602a60248201527f416d6f756e74206d757374206265206c657373207468616e20746f74616c207260448201526965666c656374696f6e7360b01b6064820152608401610847565b6000610a4f61270f565b9050610a5b81846132dc565b9392505050565b6000546001600160a01b03163314610a8c5760405162461bcd60e51b8152600401610847906131f6565b6001600160a01b03811660009081526008602052604090205460ff16610af45760405162461bcd60e51b815260206004820152601b60248201527f4163636f756e7420697320616c7265616479206578636c7564656400000000006044820152606401610847565b60005b600954811015610c1557816001600160a01b031660098281548110610b1e57610b1e61337b565b6000918252602090912001546001600160a01b03161415610c035760098054610b499060019061331d565b81548110610b5957610b5961337b565b600091825260209091200154600980546001600160a01b039092169183908110610b8557610b8561337b565b600091825260208083209190910180546001600160a01b0319166001600160a01b039485161790559184168152600682526040808220829055600890925220805460ff191690556009805480610bdd57610bdd613365565b600082815260209020810160001990810180546001600160a01b03191690550190555050565b80610c0d81613334565b915050610af7565b5050565b3360008181526007602090815260408083206001600160a01b038716845290915281205490916108d3918590610c5090869061329c565b6119b8565b6000546001600160a01b03163314610c7f5760405162461bcd60e51b8152600401610847906131f6565b6001600160a01b03166000908152600a60205260409020805460ff19166001179055565b6000610cbb67016345785d8a0000633b9aca006132fe565b831115610d0a5760405162461bcd60e51b815260206004820152601f60248201527f416d6f756e74206d757374206265206c657373207468616e20737570706c79006044820152606401610847565b81610d28576000610d1a84611927565b509294506108d79350505050565b6000610d3384611927565b509194506108d79350505050565b6000546001600160a01b03163314610d6b5760405162461bcd60e51b8152600401610847906131f6565b6001600160a01b03811660009081526008602052604090205460ff1615610dd45760405162461bcd60e51b815260206004820152601b60248201527f4163636f756e7420697320616c7265616479206578636c7564656400000000006044820152606401610847565b6001600160a01b03811660009081526005602052604090205415610e2e576001600160a01b038116600090815260056020526040902054610e14906109de565b6001600160a01b0382166000908152600660205260409020555b6001600160a01b03166000818152600860205260408120805460ff191660019081179091556009805491820181559091527f6e1540171b6c0c960b71a7020d9f60077f6af931a8bbf590da0223dacf75c7af0180546001600160a01b0319169091179055565b6001600160a01b03811660009081526008602052604081205460ff1615610ed157506001600160a01b031660009081526006602052604090205490565b6001600160a01b0382166000908152600560205260409020546108d7906109de565b6000546001600160a01b03163314610f1d5760405162461bcd60e51b8152600401610847906131f6565b610f276000612732565b565b60008060008060006001600081548110610f4557610f4561337b565b600091825260208220600390910201546001805463ffffffff909216929091610f7057610f7061337b565b906000526020600020906003020160000160049054906101000a900463ffffffff166001600081548110610fa657610fa661337b565b906000526020600020906003020160000160089054906101000a900463ffffffff166001600081548110610fdc57610fdc61337b565b9060005260206000209060030201600001600c9054906101000a900463ffffffff1660016000815481106110125761101261337b565b906000526020600020906003020160000160109054906101000a900463ffffffff16945094509450945094509091929394565b6000546001600160a01b0316331461106f5760405162461bcd60e51b8152600401610847906131f6565b6001600160a01b0382161580159061108f57506001600160a01b03811615155b6110e75760405162461bcd60e51b815260206004820152602360248201527f5461782057616c6c6574732061737369676e6564207a65726f2061646472657360448201526273202160e81b6064820152608401610847565b82846110f387896132b4565b6110fd91906132b4565b61110791906132b4565b63ffffffff1660641461116e5760405162461bcd60e51b815260206004820152602960248201527f53706c69742050657263656e746167657320646f6573206e6f742073756d207560448201526870746f20313030202160b81b6064820152608401610847565b86600189815481106111825761118261337b565b906000526020600020906003020160000160006101000a81548163ffffffff021916908363ffffffff16021790555085600189815481106111c5576111c561337b565b906000526020600020906003020160000160046101000a81548163ffffffff021916908363ffffffff16021790555084600189815481106112085761120861337b565b906000526020600020906003020160000160086101000a81548163ffffffff021916908363ffffffff160217905550836001898154811061124b5761124b61337b565b9060005260206000209060030201600001600c6101000a81548163ffffffff021916908363ffffffff160217905550826001898154811061128e5761128e61337b565b906000526020600020906003020160000160106101000a81548163ffffffff021916908363ffffffff16021790555081600189815481106112d1576112d161337b565b906000526020600020906003020160010160006101000a8154816001600160a01b0302191690836001600160a01b03160217905550806001898154811061131a5761131a61337b565b906000526020600020906003020160020160006101000a8154816001600160a01b0302191690836001600160a01b03160217905550876001141561145b576001888154811061136b5761136b61337b565b6000918252602090912060039182020180546002805463ffffffff19811663ffffffff938416908117835584546401000000009081900485160267ffffffffffffffff1990921617178082558354600160401b9081900484160263ffffffff60401b198216811783558454600160601b9081900485160263ffffffff60601b1990911667ffffffffffffffff60401b1990921691909117178082558354600160801b9081900490931690920263ffffffff60801b19909216919091178155600182015483546001600160a01b03199081166001600160a01b03928316179094559101546004805490931691161790555b5050505050505050565b3360009081526007602090815260408083206001600160a01b0386168452909152812054828110156114e75760405162461bcd60e51b815260206004820152602560248201527f45524332303a2064656372656173656420616c6c6f77616e63652062656c6f77604482015264207a65726f60d81b6064820152608401610847565b6114f433858584036119b8565b5060019392505050565b60006108d3338484611adc565b6000546001600160a01b031633146115355760405162461bcd60e51b8152600401610847906131f6565b6001600160a01b0382166000908152600b60205260409020805460ff19168215801591909117909155611578576016805460ff19166001179055610c1582610d41565b6016805460ff19169055610c1582610a62565b6000546001600160a01b031633146115b55760405162461bcd60e51b8152600401610847906131f6565b6103e86115ce67016345785d8a0000633b9aca006132fe565b6115d891906132dc565b81101561163f5760405162461bcd60e51b815260206004820152602f60248201527f4d617820486f6c6420616d74206d7573742062652061626f766520302e31252060448201526e6f6620746f74616c20737570706c7960881b6064820152608401610847565b600e55565b6000546001600160a01b0316331461166e5760405162461bcd60e51b8152600401610847906131f6565b6001600160a01b03919091166000908152600c60205260409020805460ff1916911515919091179055565b6000546001600160a01b031633146116c35760405162461bcd60e51b8152600401610847906131f6565b6001600160a01b03166000908152600a60205260409020805460ff19169055565b6000546001600160a01b0316331461170e5760405162461bcd60e51b8152600401610847906131f6565b6103e861172767016345785d8a0000633b9aca006132fe565b61173191906132dc565b81101561179f5760405162461bcd60e51b815260206004820152603660248201527f4d6178205472616e73616374696f6e20616d74206d7573742062652061626f766044820152756520302e3125206f6620746f74616c20737570706c7960501b6064820152608401610847565b600d55565b6000546001600160a01b031633146117ce5760405162461bcd60e51b8152600401610847906131f6565b6001600160a01b0381166118335760405162461bcd60e51b815260206004820152602660248201527f4f776e61626c653a206e6577206f776e657220697320746865207a65726f206160448201526564647265737360d01b6064820152608401610847565b61183c81612732565b50565b60008060008060006001808154811061185a5761185a61337b565b60009182526020909120600390910201546001805463ffffffff90921691819081106118885761188861337b565b906000526020600020906003020160000160049054906101000a900463ffffffff16600180815481106118bd576118bd61337b565b906000526020600020906003020160000160089054906101000a900463ffffffff16600180815481106118f2576118f261337b565b9060005260206000209060030201600001600c9054906101000a900463ffffffff16600180815481106110125761101261337b565b6000806119556040518060800160405280600081526020016000815260200160008152602001600081525090565b60006119826040518060800160405280600081526020016000815260200160008152602001600081525090565b61198b86612782565b9092509050600061199a61270f565b90506119a7878383612907565b919750955093505091939590929450565b6001600160a01b038316611a1a5760405162461bcd60e51b8152602060048201526024808201527f45524332303a20617070726f76652066726f6d20746865207a65726f206164646044820152637265737360e01b6064820152608401610847565b6001600160a01b038216611a7b5760405162461bcd60e51b815260206004820152602260248201527f45524332303a20617070726f766520746f20746865207a65726f206164647265604482015261737360f01b6064820152608401610847565b6001600160a01b0383811660008181526007602090815260408083209487168084529482529182902085905590518481527f8c5be1e5ebec7d5bd14f71427d1e84f3dd0314c0f7b2291e5b200ac8c7c3b925910160405180910390a3505050565b6001600160a01b038316611b405760405162461bcd60e51b815260206004820152602560248201527f45524332303a207472616e736665722066726f6d20746865207a65726f206164604482015264647265737360d81b6064820152608401610847565b6001600160a01b038216611ba25760405162461bcd60e51b815260206004820152602360248201527f45524332303a207472616e7366657220746f20746865207a65726f206164647260448201526265737360e81b6064820152608401610847565b600f5460ff161580611bbb5750611bb98383612a09565b155b611c185760405162461bcd60e51b815260206004820152602860248201527f546f6b656e206973204c6f636b656420666f72204c6971756964747920746f20604482015267189948185919195960c21b6064820152608401610847565b601654610100900460ff16158015611c355750611c358383612a09565b15611d9357600d54811115611c9c5760405162461bcd60e51b815260206004820152602760248201527f5472616e7366657220616d6f756e74206578636565647320746865206d6178546044820152661e105b5bdd5b9d60ca1b6064820152608401610847565b6001600160a01b0383166000908152600c602052604090205460ff161580611cdd57506001600160a01b0382166000908152600c602052604090205460ff16155b611d1b5760405162461bcd60e51b815260206004820152600f60248201526e14db9a5c195c8814995a9958dd1959608a1b6044820152606401610847565b600e5481611d2884610e94565b611d32919061329c565b1115611d935760405162461bcd60e51b815260206004820152602a60248201527f52656365697665722061646472657373206578636565647320746865206d6178604482015269121bdb19105b5bdd5b9d60b21b6064820152608401610847565b601654610100900460ff1680611dc157506001600160a01b0383166000908152600a602052604090205460ff165b80611de457506001600160a01b0382166000908152600a602052604090205460ff165b15611f66576000611df361270f565b611dfd90836132fe565b6001600160a01b038516600090815260056020526040902054909150611e2490829061331d565b6001600160a01b038086166000908152600560205260408082209390935590851681522054611e5490829061329c565b6001600160a01b0380851660009081526005602090815260408083209490945591871681526008909152205460ff1615611ec6576001600160a01b038416600090815260066020526040902054611eac90839061331d565b6001600160a01b0385166000908152600660205260409020555b6001600160a01b03831660009081526008602052604090205460ff1615611f25576001600160a01b038316600090815260066020526040902054611f0b90839061329c565b6001600160a01b0384166000908152600660205260409020555b826001600160a01b0316846001600160a01b03166000805160206133bd83398151915284604051611f5891815260200190565b60405180910390a350505050565b6001600160a01b0383166000908152600b602052604090205460ff161561208b576001600081548110611f9b57611f9b61337b565b6000918252602090912060039182020180546002805463ffffffff19811663ffffffff938416908117835584546401000000009081900485160267ffffffffffffffff1990921617178082558354600160401b9081900484160263ffffffff60401b198216811783558454600160601b9081900485160263ffffffff60601b1990911667ffffffffffffffff60401b1990921691909117178082558354600160801b9081900490931690920263ffffffff60801b19909216919091178155600182015483546001600160a01b03199081166001600160a01b03928316179094559101546004805490931691161790555b60025463ffffffff16156127095760008060008060006120aa86611927565b6001600160a01b038d166000908152600b60205260409020549499509297509095509350915060ff16156121dc5760016000815481106120ec576120ec61337b565b6000918252602090912060039182020180546002805463ffffffff19811663ffffffff938416908117835584546401000000009081900485160267ffffffffffffffff1990921617178082558354600160401b9081900484160263ffffffff60401b198216811783558454600160601b9081900485160263ffffffff60601b1990911667ffffffffffffffff60401b1990921691909117178082558354600160801b9081900490931690920263ffffffff60801b19909216919091178155600182015483546001600160a01b03199081166001600160a01b03928316179094559101546004805490931691161790555b6001600160a01b03881660009081526005602052604090205461220090869061331d565b6001600160a01b03808a16600090815260056020526040808220939093559089168152205461223090859061329c565b6001600160a01b038816600090815260056020526040812091909155835161dead82527f7d509c07f0d4edcc2dd1b53aae68677132eb562dcba78e36381b63ccaf66e6ba80549192909161228590849061329c565b90915550506001600160a01b03881660009081526008602052604090205460ff16156122e9576001600160a01b0388166000908152600660205260409020546122cf90879061331d565b6001600160a01b0389166000908152600660205260409020555b6001600160a01b03871660009081526008602052604090205460ff1615612348576001600160a01b03871660009081526006602052604090205461232e90839061329c565b6001600160a01b0388166000908152600660205260409020555b61dead60005260086020527f046fee3d77c34a6c5e10c3be6dc4b132c30449dbf4f0bc07684896dd093342995460ff16156123c357805161dead600090815260066020527f1aecba4ebe7a4e0673e4891b2b092b2228e4322380b579fb494fad3da8586e2280549091906123bd90849061329c565b90915550505b60165460ff1680156123dd5750601654610100900460ff16155b156124c557826040015183602001516123f6919061329c565b306000908152600560205260408120805490919061241590849061329c565b90915550506040810151602082015161242e919061329c565b306000908152600660205260408120805490919061244d90849061329c565b90915550506040810151602082015130916001600160a01b038b16916000805160206133bd833981519152916124829161329c565b60405190815260200160405180910390a36124af816040015182602001516124aa919061329c565b612a53565b4780156124bf576124bf81612bfb565b50612653565b6020808401516003546001600160a01b031660009081526005909252604082208054919290916124f690849061329c565b90915550506040808401516004546001600160a01b03166000908152600560205291822080549192909161252b90849061329c565b90915550506003546001600160a01b031660009081526008602052604090205460ff161561258a576020808201516003546001600160a01b0316600090815260069092526040822080549192909161258490849061329c565b90915550505b6004546001600160a01b031660009081526008602052604090205460ff16156125e3576040808201516004546001600160a01b0316600090815260066020529182208054919290916125dd90849061329c565b90915550505b6003546020828101516040519081526001600160a01b03928316928b16916000805160206133bd833981519152910160405180910390a360045460408281015190519081526001600160a01b03918216918a16906000805160206133bd8339815191529060200160405180910390a35b61269283606001518260600151836040015184602001518560000151612679919061329c565b612683919061329c565b61268d919061329c565b612cd3565b805160405190815261dead906001600160a01b038a16906000805160206133bd8339815191529060200160405180910390a3866001600160a01b0316886001600160a01b03166000805160206133bd833981519152846040516126f791815260200190565b60405180910390a35050505050505050565b6000611df35b600080600061271c612cf9565b909250905061272b81836132dc565b9250505090565b600080546001600160a01b038381166001600160a01b0319831681178455604051919092169283917f8be0079c531659141344cd1fd0a4f28419497f9722a3daafe3b4186f6b6457e09190a35050565b60006127af6040518060800160405280600081526020016000815260200160008152602001600081525090565b6127da6040518060800160405280600081526020016000815260200160008152602001600081525090565b6002546127109063ffffffff64010000000082048116916127fc9116876132fe565b61280691906132fe565b61281091906132dc565b81526002546127109063ffffffff600160401b82048116916128339116876132fe565b61283d91906132fe565b61284791906132dc565b60208201526002546127109063ffffffff600160601b820481169161286d9116876132fe565b61287791906132fe565b61288191906132dc565b60408201526002546127109063ffffffff600160801b82048116916128a79116876132fe565b6128b191906132fe565b6128bb91906132dc565b606082018190526040820151602083015183516000939291906128de908961331d565b6128e8919061331d565b6128f2919061331d565b6128fc919061331d565b959194509092505050565b6000806129356040518060800160405280600081526020016000815260200160008152602001600081525090565b600061294185886132fe565b905061296e6040518060800160405280600081526020016000815260200160008152602001600081525090565b865161297b9087906132fe565b8152602087015161298d9087906132fe565b602082015260408701516129a29087906132fe565b604082015260608701516129b79087906132fe565b606082018190526040820151602083015183516000939291906129da908761331d565b6129e4919061331d565b6129ee919061331d565b6129f8919061331d565b929992985090965090945050505050565b600080546001600160a01b03848116911614801590612a3657506000546001600160a01b03838116911614155b8015610a5b57506001600160a01b03821661dead14159392505050565b6016805461ff0019166101001790556040805160028082526060820183526000926020830190803683370190505090503081600081518110612a9757612a9761337b565b6001600160a01b03928316602091820292909201810191909152601354604080516315ab88c960e31b81529051919093169263ad5c4648926004808301939192829003018186803b158015612aeb57600080fd5b505afa158015612aff573d6000803e3d6000fd5b505050506040513d601f19601f82011682018060405250810190612b239190612f12565b81600181518110612b3657612b3661337b565b6001600160a01b039283166020918202929092010152601354612b5c91309116846119b8565b6013546040516318cbafe560e01b81526001600160a01b03909116906318cbafe590612b9590859060009086903090429060040161322b565b600060405180830381600087803b158015612baf57600080fd5b505af1158015612bc3573d6000803e3d6000fd5b505050506040513d6000823e601f3d908101601f19168201604052612beb919081019061300a565b50506016805461ff001916905550565b600254600090612c219063ffffffff600160801b8204811691600160601b9004166132b4565b60025463ffffffff91821691612c3f91600160601b900416846132fe565b612c4991906132dc565b90506000612c57828461331d565b6003546040519192506001600160a01b03169083156108fc029084906000818181858888f19350505050158015612c92573d6000803e3d6000fd5b506004546040516001600160a01b039091169082156108fc029083906000818181858888f19350505050158015612ccd573d6000803e3d6000fd5b50505050565b81601154612ce1919061331d565b601155601254612cf290829061329c565b6012555050565b601154600090819081612d1867016345785d8a0000633b9aca006132fe565b905060005b600954811015612e7557826005600060098481548110612d3f57612d3f61337b565b60009182526020808320909101546001600160a01b031683528201929092526040019020541180612daa5750816006600060098481548110612d8357612d8361337b565b60009182526020808320909101546001600160a01b03168352820192909252604001902054115b15612dd357601154612dc867016345785d8a0000633b9aca006132fe565b945094505050509091565b6005600060098381548110612dea57612dea61337b565b60009182526020808320909101546001600160a01b03168352820192909252604001902054612e19908461331d565b92506006600060098381548110612e3257612e3261337b565b60009182526020808320909101546001600160a01b03168352820192909252604001902054612e61908361331d565b915080612e6d81613334565b915050612d1d565b50612e8c67016345785d8a0000633b9aca006132fe565b601154612e9991906132dc565b821015612ec357601154612eb967016345785d8a0000633b9aca006132fe565b9350935050509091565b90939092509050565b80358015158114612edc57600080fd5b919050565b803563ffffffff81168114612edc57600080fd5b600060208284031215612f0757600080fd5b8135610a5b816133a7565b600060208284031215612f2457600080fd5b8151610a5b816133a7565b60008060408385031215612f4257600080fd5b8235612f4d816133a7565b91506020830135612f5d816133a7565b809150509250929050565b600080600060608486031215612f7d57600080fd5b8335612f88816133a7565b92506020840135612f98816133a7565b929592945050506040919091013590565b60008060408385031215612fbc57600080fd5b8235612fc7816133a7565b9150612fd560208401612ecc565b90509250929050565b60008060408385031215612ff157600080fd5b8235612ffc816133a7565b946020939093013593505050565b6000602080838503121561301d57600080fd5b825167ffffffffffffffff8082111561303557600080fd5b818501915085601f83011261304957600080fd5b81518181111561305b5761305b613391565b8060051b604051601f19603f8301168101818110858211171561308057613080613391565b604052828152858101935084860182860187018a101561309f57600080fd5b600095505b838610156130c25780518552600195909501949386019386016130a4565b5098975050505050505050565b6000602082840312156130e157600080fd5b5035919050565b600080604083850312156130fb57600080fd5b82359150612fd560208401612ecc565b600080600080600080600080610100898b03121561312857600080fd5b8835975061313860208a01612ee1565b965061314660408a01612ee1565b955061315460608a01612ee1565b945061316260808a01612ee1565b935061317060a08a01612ee1565b925060c0890135613180816133a7565b915060e0890135613190816133a7565b809150509295985092959890939650565b600060208083528351808285015260005b818110156131ce578581018301518582016040015282016131b2565b818111156131e0576000604083870101525b50601f01601f1916929092016040019392505050565b6020808252818101527f4f776e61626c653a2063616c6c6572206973206e6f7420746865206f776e6572604082015260600190565b600060a082018783526020878185015260a0604085015281875180845260c086019150828901935060005b8181101561327b5784516001600160a01b031683529383019391830191600101613256565b50506001600160a01b03969096166060850152505050608001529392505050565b600082198211156132af576132af61334f565b500190565b600063ffffffff8083168185168083038211156132d3576132d361334f565b01949350505050565b6000826132f957634e487b7160e01b600052601260045260246000fd5b500490565b60008160001904831182151516156133185761331861334f565b500290565b60008282101561332f5761332f61334f565b500390565b60006000198214156133485761334861334f565b5060010190565b634e487b7160e01b600052601160045260246000fd5b634e487b7160e01b600052603160045260246000fd5b634e487b7160e01b600052603260045260246000fd5b634e487b7160e01b600052604160045260246000fd5b6001600160a01b038116811461183c57600080fdfeddf252ad1be2c89b69c2b068fc378daa952ba7f163c4a11628f55a4df523b3efa2646970667358221220ad1ae4102b1cd7f84b6c9a8a70495073186c1d2e6794e61da35f317e139b4fac64736f6c634300080700334f776e61626c653a2063616c6c6572206973206e6f7420746865206f776e6572",
			"opcodes": "PUSH1 0x80 PUSH1 0x40 MSTORE PUSH1 0xF DUP1 SLOAD PUSH1 0xFF NOT AND PUSH1 0x1 OR SWAP1 SSTORE PUSH3 0x29 PUSH8 0x16345785D8A0000 PUSH4 0x3B9ACA00 PUSH3 0xD7D JUMP JUMPDEST PUSH3 0x37 SWAP1 PUSH1 0x0 NOT PUSH3 0xDD7 JUMP JUMPDEST PUSH3 0x45 SWAP1 PUSH1 0x0 NOT PUSH3 0xD9F JUMP JUMPDEST PUSH1 0x11 SSTORE PUSH1 0x0 PUSH1 0x15 SSTORE PUSH1 0x16 DUP1 SLOAD PUSH2 0xFFFF NOT AND SWAP1 SSTORE CALLVALUE DUP1 ISZERO PUSH3 0x65 JUMPI PUSH1 0x0 DUP1 REVERT JUMPDEST POP PUSH1 0x40 MLOAD PUSH3 0x4272 CODESIZE SUB DUP1 PUSH3 0x4272 DUP4 CODECOPY DUP2 ADD PUSH1 0x40 DUP2 SWAP1 MSTORE PUSH3 0x88 SWAP2 PUSH3 0xD2E JUMP JUMPDEST PUSH3 0x93 CALLER PUSH3 0x813 JUMP JUMPDEST PUSH1 0x11 SLOAD PUSH1 0x5 PUSH1 0x0 CALLER PUSH1 0x1 PUSH1 0x1 PUSH1 0xA0 SHL SUB AND PUSH1 0x1 PUSH1 0x1 PUSH1 0xA0 SHL SUB AND DUP2 MSTORE PUSH1 0x20 ADD SWAP1 DUP2 MSTORE PUSH1 0x20 ADD PUSH1 0x0 KECCAK256 DUP2 SWAP1 SSTORE POP PUSH1 0x1 PUSH1 0x40 MLOAD DUP1 PUSH1 0xE0 ADD PUSH1 0x40 MSTORE DUP1 PUSH1 0xA PUSH4 0xFFFFFFFF AND DUP2 MSTORE PUSH1 0x20 ADD PUSH1 0x4 PUSH4 0xFFFFFFFF AND DUP2 MSTORE PUSH1 0x20 ADD PUSH1 0x28 PUSH4 0xFFFFFFFF AND DUP2 MSTORE PUSH1 0x20 ADD PUSH1 0x28 PUSH4 0xFFFFFFFF AND DUP2 MSTORE PUSH1 0x20 ADD PUSH1 0x10 PUSH4 0xFFFFFFFF AND DUP2 MSTORE PUSH1 0x20 ADD DUP5 PUSH1 0x1 PUSH1 0x1 PUSH1 0xA0 SHL SUB AND DUP2 MSTORE PUSH1 0x20 ADD DUP4 PUSH1 0x1 PUSH1 0x1 PUSH1 0xA0 SHL SUB AND DUP2 MSTORE POP SWAP1 DUP1 PUSH1 0x1 DUP2 SLOAD ADD DUP1 DUP3 SSTORE DUP1 SWAP2 POP POP PUSH1 0x1 SWAP1 SUB SWAP1 PUSH1 0x0 MSTORE PUSH1 0x20 PUSH1 0x0 KECCAK256 SWAP1 PUSH1 0x3 MUL ADD PUSH1 0x0 SWAP1 SWAP2 SWAP1 SWAP2 SWAP1 SWAP2 POP PUSH1 0x0 DUP3 ADD MLOAD DUP2 PUSH1 0x0 ADD PUSH1 0x0 PUSH2 0x100 EXP DUP2 SLOAD DUP2 PUSH4 0xFFFFFFFF MUL NOT AND SWAP1 DUP4 PUSH4 0xFFFFFFFF AND MUL OR SWAP1 SSTORE POP PUSH1 0x20 DUP3 ADD MLOAD DUP2 PUSH1 0x0 ADD PUSH1 0x4 PUSH2 0x100 EXP DUP2 SLOAD DUP2 PUSH4 0xFFFFFFFF MUL NOT AND SWAP1 DUP4 PUSH4 0xFFFFFFFF AND MUL OR SWAP1 SSTORE POP PUSH1 0x40 DUP3 ADD MLOAD DUP2 PUSH1 0x0 ADD PUSH1 0x8 PUSH2 0x100 EXP DUP2 SLOAD DUP2 PUSH4 0xFFFFFFFF MUL NOT AND SWAP1 DUP4 PUSH4 0xFFFFFFFF AND MUL OR SWAP1 SSTORE POP PUSH1 0x60 DUP3 ADD MLOAD DUP2 PUSH1 0x0 ADD PUSH1 0xC PUSH2 0x100 EXP DUP2 SLOAD DUP2 PUSH4 0xFFFFFFFF MUL NOT AND SWAP1 DUP4 PUSH4 0xFFFFFFFF AND MUL OR SWAP1 SSTORE POP PUSH1 0x80 DUP3 ADD MLOAD DUP2 PUSH1 0x0 ADD PUSH1 0x10 PUSH2 0x100 EXP DUP2 SLOAD DUP2 PUSH4 0xFFFFFFFF MUL NOT AND SWAP1 DUP4 PUSH4 0xFFFFFFFF AND MUL OR SWAP1 SSTORE POP PUSH1 0xA0 DUP3 ADD MLOAD DUP2 PUSH1 0x1 ADD PUSH1 0x0 PUSH2 0x100 EXP DUP2 SLOAD DUP2 PUSH1 0x1 PUSH1 0x1 PUSH1 0xA0 SHL SUB MUL NOT AND SWAP1 DUP4 PUSH1 0x1 PUSH1 0x1 PUSH1 0xA0 SHL SUB AND MUL OR SWAP1 SSTORE POP PUSH1 0xC0 DUP3 ADD MLOAD DUP2 PUSH1 0x2 ADD PUSH1 0x0 PUSH2 0x100 EXP DUP2 SLOAD DUP2 PUSH1 0x1 PUSH1 0x1 PUSH1 0xA0 SHL SUB MUL NOT AND SWAP1 DUP4 PUSH1 0x1 PUSH1 0x1 PUSH1 0xA0 SHL SUB AND MUL OR SWAP1 SSTORE POP POP POP PUSH1 0x1 PUSH1 0x40 MLOAD DUP1 PUSH1 0xE0 ADD PUSH1 0x40 MSTORE DUP1 PUSH1 0x19 PUSH4 0xFFFFFFFF AND DUP2 MSTORE PUSH1 0x20 ADD PUSH1 0x4 PUSH4 0xFFFFFFFF AND DUP2 MSTORE PUSH1 0x20 ADD PUSH1 0x28 PUSH4 0xFFFFFFFF AND DUP2 MSTORE PUSH1 0x20 ADD PUSH1 0x28 PUSH4 0xFFFFFFFF AND DUP2 MSTORE PUSH1 0x20 ADD PUSH1 0x10 PUSH4 0xFFFFFFFF AND DUP2 MSTORE PUSH1 0x20 ADD DUP5 PUSH1 0x1 PUSH1 0x1 PUSH1 0xA0 SHL SUB AND DUP2 MSTORE PUSH1 0x20 ADD DUP4 PUSH1 0x1 PUSH1 0x1 PUSH1 0xA0 SHL SUB AND DUP2 MSTORE POP SWAP1 DUP1 PUSH1 0x1 DUP2 SLOAD ADD DUP1 DUP3 SSTORE DUP1 SWAP2 POP POP PUSH1 0x1 SWAP1 SUB SWAP1 PUSH1 0x0 MSTORE PUSH1 0x20 PUSH1 0x0 KECCAK256 SWAP1 PUSH1 0x3 MUL ADD PUSH1 0x0 SWAP1 SWAP2 SWAP1 SWAP2 SWAP1 SWAP2 POP PUSH1 0x0 DUP3 ADD MLOAD DUP2 PUSH1 0x0 ADD PUSH1 0x0 PUSH2 0x100 EXP DUP2 SLOAD DUP2 PUSH4 0xFFFFFFFF MUL NOT AND SWAP1 DUP4 PUSH4 0xFFFFFFFF AND MUL OR SWAP1 SSTORE POP PUSH1 0x20 DUP3 ADD MLOAD DUP2 PUSH1 0x0 ADD PUSH1 0x4 PUSH2 0x100 EXP DUP2 SLOAD DUP2 PUSH4 0xFFFFFFFF MUL NOT AND SWAP1 DUP4 PUSH4 0xFFFFFFFF AND MUL OR SWAP1 SSTORE POP PUSH1 0x40 DUP3 ADD MLOAD DUP2 PUSH1 0x0 ADD PUSH1 0x8 PUSH2 0x100 EXP DUP2 SLOAD DUP2 PUSH4 0xFFFFFFFF MUL NOT AND SWAP1 DUP4 PUSH4 0xFFFFFFFF AND MUL OR SWAP1 SSTORE POP PUSH1 0x60 DUP3 ADD MLOAD DUP2 PUSH1 0x0 ADD PUSH1 0xC PUSH2 0x100 EXP DUP2 SLOAD DUP2 PUSH4 0xFFFFFFFF MUL NOT AND SWAP1 DUP4 PUSH4 0xFFFFFFFF AND MUL OR SWAP1 SSTORE POP PUSH1 0x80 DUP3 ADD MLOAD DUP2 PUSH1 0x0 ADD PUSH1 0x10 PUSH2 0x100 EXP DUP2 SLOAD DUP2 PUSH4 0xFFFFFFFF MUL NOT AND SWAP1 DUP4 PUSH4 0xFFFFFFFF AND MUL OR SWAP1 SSTORE POP PUSH1 0xA0 DUP3 ADD MLOAD DUP2 PUSH1 0x1 ADD PUSH1 0x0 PUSH2 0x100 EXP DUP2 SLOAD DUP2 PUSH1 0x1 PUSH1 0x1 PUSH1 0xA0 SHL SUB MUL NOT AND SWAP1 DUP4 PUSH1 0x1 PUSH1 0x1 PUSH1 0xA0 SHL SUB AND MUL OR SWAP1 SSTORE POP PUSH1 0xC0 DUP3 ADD MLOAD DUP2 PUSH1 0x2 ADD PUSH1 0x0 PUSH2 0x100 EXP DUP2 SLOAD DUP2 PUSH1 0x1 PUSH1 0x1 PUSH1 0xA0 SHL SUB MUL NOT AND SWAP1 DUP4 PUSH1 0x1 PUSH1 0x1 PUSH1 0xA0 SHL SUB AND MUL OR SWAP1 SSTORE POP POP POP PUSH1 0x1 DUP1 DUP2 SLOAD DUP2 LT PUSH3 0x439 JUMPI PUSH3 0x439 PUSH3 0xE1A JUMP JUMPDEST PUSH1 0x0 SWAP2 DUP3 MSTORE PUSH1 0x20 SWAP2 DUP3 SWAP1 KECCAK256 PUSH1 0x3 SWAP2 DUP3 MUL ADD DUP1 SLOAD PUSH1 0x2 DUP1 SLOAD PUSH4 0xFFFFFFFF SWAP3 DUP4 AND PUSH4 0xFFFFFFFF NOT DUP3 AND DUP2 OR DUP4 SSTORE DUP5 SLOAD PUSH1 0x1 PUSH1 0x1 PUSH1 0x40 SHL SUB NOT SWAP1 SWAP3 AND OR PUSH5 0x100000000 SWAP2 DUP3 SWAP1 DIV DUP5 AND SWAP1 SWAP2 MUL OR DUP1 DUP3 SSTORE DUP4 SLOAD PUSH4 0xFFFFFFFF PUSH1 0x40 SHL NOT DUP3 AND PUSH9 0x10000000000000000 SWAP2 DUP3 SWAP1 DIV DUP6 AND SWAP1 SWAP2 MUL SWAP1 DUP2 OR DUP4 SSTORE DUP5 SLOAD PUSH1 0x1 PUSH1 0x40 SHL PUSH1 0x1 PUSH1 0x80 SHL SUB NOT SWAP1 SWAP3 AND PUSH4 0xFFFFFFFF PUSH1 0x60 SHL NOT SWAP1 SWAP2 AND OR PUSH13 0x1000000000000000000000000 SWAP2 DUP3 SWAP1 DIV DUP5 AND SWAP1 SWAP2 MUL OR DUP1 DUP3 SSTORE DUP4 SLOAD PUSH4 0xFFFFFFFF PUSH1 0x80 SHL NOT SWAP1 SWAP2 AND PUSH1 0x1 PUSH1 0x80 SHL SWAP2 DUP3 SWAP1 DIV SWAP1 SWAP4 AND MUL SWAP2 SWAP1 SWAP2 OR DUP2 SSTORE PUSH1 0x1 DUP3 ADD SLOAD DUP4 SLOAD PUSH1 0x1 PUSH1 0x1 PUSH1 0xA0 SHL SUB SWAP2 DUP3 AND PUSH1 0x1 PUSH1 0x1 PUSH1 0xA0 SHL SUB NOT SWAP2 DUP3 AND OR SWAP1 SWAP5 SSTORE SWAP2 ADD SLOAD PUSH1 0x4 DUP1 SLOAD SWAP2 SWAP1 SWAP3 AND SWAP1 DUP4 AND OR DUP2 SSTORE PUSH1 0x13 DUP1 SLOAD PUSH20 0x9AC64CC6E4415144C455BD8E4837FEA55603E5C3 SWAP4 AND DUP4 OR SWAP1 SSTORE PUSH1 0x40 DUP1 MLOAD PUSH4 0xC45A0155 PUSH1 0xE0 SHL DUP2 MSTORE SWAP1 MLOAD SWAP3 SWAP4 PUSH4 0xC45A0155 SWAP4 DUP3 DUP5 ADD SWAP4 SWAP2 SWAP3 SWAP1 SWAP2 SWAP1 DUP3 SWAP1 SUB ADD DUP2 DUP7 DUP1 EXTCODESIZE ISZERO DUP1 ISZERO PUSH3 0x58D JUMPI PUSH1 0x0 DUP1 REVERT JUMPDEST POP GAS STATICCALL ISZERO DUP1 ISZERO PUSH3 0x5A2 JUMPI RETURNDATASIZE PUSH1 0x0 DUP1 RETURNDATACOPY RETURNDATASIZE PUSH1 0x0 REVERT JUMPDEST POP POP POP POP PUSH1 0x40 MLOAD RETURNDATASIZE PUSH1 0x1F NOT PUSH1 0x1F DUP3 ADD AND DUP3 ADD DUP1 PUSH1 0x40 MSTORE POP DUP2 ADD SWAP1 PUSH3 0x5C8 SWAP2 SWAP1 PUSH3 0xD10 JUMP JUMPDEST PUSH1 0x1 PUSH1 0x1 PUSH1 0xA0 SHL SUB AND PUSH4 0xC9C65396 ADDRESS PUSH1 0x13 PUSH1 0x0 SWAP1 SLOAD SWAP1 PUSH2 0x100 EXP SWAP1 DIV PUSH1 0x1 PUSH1 0x1 PUSH1 0xA0 SHL SUB AND PUSH1 0x1 PUSH1 0x1 PUSH1 0xA0 SHL SUB AND PUSH4 0xAD5C4648 PUSH1 0x40 MLOAD DUP2 PUSH4 0xFFFFFFFF AND PUSH1 0xE0 SHL DUP2 MSTORE PUSH1 0x4 ADD PUSH1 0x20 PUSH1 0x40 MLOAD DUP1 DUP4 SUB DUP2 DUP7 DUP1 EXTCODESIZE ISZERO DUP1 ISZERO PUSH3 0x626 JUMPI PUSH1 0x0 DUP1 REVERT JUMPDEST POP GAS STATICCALL ISZERO DUP1 ISZERO PUSH3 0x63B JUMPI RETURNDATASIZE PUSH1 0x0 DUP1 RETURNDATACOPY RETURNDATASIZE PUSH1 0x0 REVERT JUMPDEST POP POP POP POP PUSH1 0x40 MLOAD RETURNDATASIZE PUSH1 0x1F NOT PUSH1 0x1F DUP3 ADD AND DUP3 ADD DUP1 PUSH1 0x40 MSTORE POP DUP2 ADD SWAP1 PUSH3 0x661 SWAP2 SWAP1 PUSH3 0xD10 JUMP JUMPDEST PUSH1 0x40 MLOAD PUSH1 0x1 PUSH1 0x1 PUSH1 0xE0 SHL SUB NOT PUSH1 0xE0 DUP6 SWAP1 SHL AND DUP2 MSTORE PUSH1 0x1 PUSH1 0x1 PUSH1 0xA0 SHL SUB SWAP3 DUP4 AND PUSH1 0x4 DUP3 ADD MSTORE SWAP2 AND PUSH1 0x24 DUP3 ADD MSTORE PUSH1 0x44 ADD PUSH1 0x20 PUSH1 0x40 MLOAD DUP1 DUP4 SUB DUP2 PUSH1 0x0 DUP8 DUP1 EXTCODESIZE ISZERO DUP1 ISZERO PUSH3 0x6AA JUMPI PUSH1 0x0 DUP1 REVERT JUMPDEST POP GAS CALL ISZERO DUP1 ISZERO PUSH3 0x6BF JUMPI RETURNDATASIZE PUSH1 0x0 DUP1 RETURNDATACOPY RETURNDATASIZE PUSH1 0x0 REVERT JUMPDEST POP POP POP POP PUSH1 0x40 MLOAD RETURNDATASIZE PUSH1 0x1F NOT PUSH1 0x1F DUP3 ADD AND DUP3 ADD DUP1 PUSH1 0x40 MSTORE POP DUP2 ADD SWAP1 PUSH3 0x6E5 SWAP2 SWAP1 PUSH3 0xD10 JUMP JUMPDEST PUSH1 0x14 DUP1 SLOAD PUSH1 0x1 PUSH1 0x1 PUSH1 0xA0 SHL SUB NOT AND PUSH1 0x1 PUSH1 0x1 PUSH1 0xA0 SHL SUB SWAP3 SWAP1 SWAP3 AND SWAP2 SWAP1 SWAP2 OR SWAP1 SSTORE PUSH3 0x71D PUSH8 0x16345785D8A0000 PUSH4 0x3B9ACA00 PUSH3 0xD7D JUMP JUMPDEST PUSH1 0xD SSTORE PUSH1 0x64 PUSH3 0x73A PUSH8 0x16345785D8A0000 PUSH4 0x3B9ACA00 PUSH3 0xD7D JUMP JUMPDEST PUSH3 0x747 SWAP1 PUSH1 0x2 PUSH3 0xD7D JUMP JUMPDEST PUSH3 0x753 SWAP2 SWAP1 PUSH3 0xD66 JUMP JUMPDEST PUSH1 0xE SSTORE PUSH3 0x773 PUSH3 0x76D PUSH1 0x0 SLOAD PUSH1 0x1 PUSH1 0x1 PUSH1 0xA0 SHL SUB AND SWAP1 JUMP JUMPDEST PUSH3 0x863 JUMP JUMPDEST PUSH3 0x790 PUSH3 0x78A PUSH1 0x0 SLOAD PUSH1 0x1 PUSH1 0x1 PUSH1 0xA0 SHL SUB AND SWAP1 JUMP JUMPDEST PUSH3 0x8D6 JUMP JUMPDEST PUSH3 0x79D PUSH2 0xDEAD PUSH3 0x8D6 JUMP JUMPDEST PUSH3 0x7A8 DUP3 PUSH3 0x8D6 JUMP JUMPDEST PUSH3 0x7B3 DUP2 PUSH3 0x8D6 JUMP JUMPDEST PUSH3 0x7BE ADDRESS PUSH3 0x8D6 JUMP JUMPDEST CALLER PUSH1 0x0 PUSH32 0xDDF252AD1BE2C89B69C2B068FC378DAA952BA7F163C4A11628F55A4DF523B3EF PUSH3 0x7FA PUSH8 0x16345785D8A0000 PUSH4 0x3B9ACA00 PUSH3 0xD7D JUMP JUMPDEST PUSH1 0x40 MLOAD SWAP1 DUP2 MSTORE PUSH1 0x20 ADD PUSH1 0x40 MLOAD DUP1 SWAP2 SUB SWAP1 LOG3 POP POP PUSH3 0xE30 JUMP JUMPDEST PUSH1 0x0 DUP1 SLOAD PUSH1 0x1 PUSH1 0x1 PUSH1 0xA0 SHL SUB DUP4 DUP2 AND PUSH1 0x1 PUSH1 0x1 PUSH1 0xA0 SHL SUB NOT DUP4 AND DUP2 OR DUP5 SSTORE PUSH1 0x40 MLOAD SWAP2 SWAP1 SWAP3 AND SWAP3 DUP4 SWAP2 PUSH32 0x8BE0079C531659141344CD1FD0A4F28419497F9722A3DAAFE3B4186F6B6457E0 SWAP2 SWAP1 LOG3 POP POP JUMP JUMPDEST PUSH1 0x0 SLOAD PUSH1 0x1 PUSH1 0x1 PUSH1 0xA0 SHL SUB AND CALLER EQ PUSH3 0x8B2 JUMPI PUSH1 0x40 MLOAD PUSH3 0x461BCD PUSH1 0xE5 SHL DUP2 MSTORE PUSH1 0x20 PUSH1 0x4 DUP3 ADD DUP2 SWAP1 MSTORE PUSH1 0x24 DUP3 ADD MSTORE PUSH1 0x0 DUP1 MLOAD PUSH1 0x20 PUSH3 0x4252 DUP4 CODECOPY DUP2 MLOAD SWAP2 MSTORE PUSH1 0x44 DUP3 ADD MSTORE PUSH1 0x64 ADD JUMPDEST PUSH1 0x40 MLOAD DUP1 SWAP2 SUB SWAP1 REVERT JUMPDEST PUSH1 0x1 PUSH1 0x1 PUSH1 0xA0 SHL SUB AND PUSH1 0x0 SWAP1 DUP2 MSTORE PUSH1 0xA PUSH1 0x20 MSTORE PUSH1 0x40 SWAP1 KECCAK256 DUP1 SLOAD PUSH1 0xFF NOT AND PUSH1 0x1 OR SWAP1 SSTORE JUMP JUMPDEST PUSH1 0x0 SLOAD PUSH1 0x1 PUSH1 0x1 PUSH1 0xA0 SHL SUB AND CALLER EQ PUSH3 0x921 JUMPI PUSH1 0x40 MLOAD PUSH3 0x461BCD PUSH1 0xE5 SHL DUP2 MSTORE PUSH1 0x20 PUSH1 0x4 DUP3 ADD DUP2 SWAP1 MSTORE PUSH1 0x24 DUP3 ADD MSTORE PUSH1 0x0 DUP1 MLOAD PUSH1 0x20 PUSH3 0x4252 DUP4 CODECOPY DUP2 MLOAD SWAP2 MSTORE PUSH1 0x44 DUP3 ADD MSTORE PUSH1 0x64 ADD PUSH3 0x8A9 JUMP JUMPDEST PUSH1 0x1 PUSH1 0x1 PUSH1 0xA0 SHL SUB DUP2 AND PUSH1 0x0 SWAP1 DUP2 MSTORE PUSH1 0x8 PUSH1 0x20 MSTORE PUSH1 0x40 SWAP1 KECCAK256 SLOAD PUSH1 0xFF AND ISZERO PUSH3 0x98C JUMPI PUSH1 0x40 MLOAD PUSH3 0x461BCD PUSH1 0xE5 SHL DUP2 MSTORE PUSH1 0x20 PUSH1 0x4 DUP3 ADD MSTORE PUSH1 0x1B PUSH1 0x24 DUP3 ADD MSTORE PUSH32 0x4163636F756E7420697320616C7265616479206578636C756465640000000000 PUSH1 0x44 DUP3 ADD MSTORE PUSH1 0x64 ADD PUSH3 0x8A9 JUMP JUMPDEST PUSH1 0x1 PUSH1 0x1 PUSH1 0xA0 SHL SUB DUP2 AND PUSH1 0x0 SWAP1 DUP2 MSTORE PUSH1 0x5 PUSH1 0x20 MSTORE PUSH1 0x40 SWAP1 KECCAK256 SLOAD ISZERO PUSH3 0x9E9 JUMPI PUSH1 0x1 PUSH1 0x1 PUSH1 0xA0 SHL SUB DUP2 AND PUSH1 0x0 SWAP1 DUP2 MSTORE PUSH1 0x5 PUSH1 0x20 MSTORE PUSH1 0x40 SWAP1 KECCAK256 SLOAD PUSH3 0x9CF SWAP1 PUSH3 0xA4F JUMP JUMPDEST PUSH1 0x1 PUSH1 0x1 PUSH1 0xA0 SHL SUB DUP3 AND PUSH1 0x0 SWAP1 DUP2 MSTORE PUSH1 0x6 PUSH1 0x20 MSTORE PUSH1 0x40 SWAP1 KECCAK256 SSTORE JUMPDEST PUSH1 0x1 PUSH1 0x1 PUSH1 0xA0 SHL SUB AND PUSH1 0x0 DUP2 DUP2 MSTORE PUSH1 0x8 PUSH1 0x20 MSTORE PUSH1 0x40 DUP2 KECCAK256 DUP1 SLOAD PUSH1 0xFF NOT AND PUSH1 0x1 SWAP1 DUP2 OR SWAP1 SWAP2 SSTORE PUSH1 0x9 DUP1 SLOAD SWAP2 DUP3 ADD DUP2 SSTORE SWAP1 SWAP2 MSTORE PUSH32 0x6E1540171B6C0C960B71A7020D9F60077F6AF931A8BBF590DA0223DACF75C7AF ADD DUP1 SLOAD PUSH1 0x1 PUSH1 0x1 PUSH1 0xA0 SHL SUB NOT AND SWAP1 SWAP2 OR SWAP1 SSTORE JUMP JUMPDEST PUSH1 0x0 PUSH1 0x11 SLOAD DUP3 GT ISZERO PUSH3 0xAB8 JUMPI PUSH1 0x40 MLOAD PUSH3 0x461BCD PUSH1 0xE5 SHL DUP2 MSTORE PUSH1 0x20 PUSH1 0x4 DUP3 ADD MSTORE PUSH1 0x2A PUSH1 0x24 DUP3 ADD MSTORE PUSH32 0x416D6F756E74206D757374206265206C657373207468616E20746F74616C2072 PUSH1 0x44 DUP3 ADD MSTORE PUSH10 0x65666C656374696F6E73 PUSH1 0xB0 SHL PUSH1 0x64 DUP3 ADD MSTORE PUSH1 0x84 ADD PUSH3 0x8A9 JUMP JUMPDEST PUSH1 0x0 PUSH3 0xAC4 PUSH3 0xAD9 JUMP JUMPDEST SWAP1 POP PUSH3 0xAD2 DUP2 DUP5 PUSH3 0xD66 JUMP JUMPDEST SWAP4 SWAP3 POP POP POP JUMP JUMPDEST PUSH1 0x0 DUP1 DUP1 PUSH3 0xAE7 PUSH3 0xAFF JUMP JUMPDEST SWAP1 SWAP3 POP SWAP1 POP PUSH3 0xAF8 DUP2 DUP4 PUSH3 0xD66 JUMP JUMPDEST SWAP3 POP POP POP SWAP1 JUMP JUMPDEST PUSH1 0x11 SLOAD PUSH1 0x0 SWAP1 DUP2 SWAP1 DUP2 PUSH3 0xB20 PUSH8 0x16345785D8A0000 PUSH4 0x3B9ACA00 PUSH3 0xD7D JUMP JUMPDEST SWAP1 POP PUSH1 0x0 JUMPDEST PUSH1 0x9 SLOAD DUP2 LT ISZERO PUSH3 0xC95 JUMPI DUP3 PUSH1 0x5 PUSH1 0x0 PUSH1 0x9 DUP5 DUP2 SLOAD DUP2 LT PUSH3 0xB4B JUMPI PUSH3 0xB4B PUSH3 0xE1A JUMP JUMPDEST PUSH1 0x0 SWAP2 DUP3 MSTORE PUSH1 0x20 DUP1 DUP4 KECCAK256 SWAP1 SWAP2 ADD SLOAD PUSH1 0x1 PUSH1 0x1 PUSH1 0xA0 SHL SUB AND DUP4 MSTORE DUP3 ADD SWAP3 SWAP1 SWAP3 MSTORE PUSH1 0x40 ADD SWAP1 KECCAK256 SLOAD GT DUP1 PUSH3 0xBBA JUMPI POP DUP2 PUSH1 0x6 PUSH1 0x0 PUSH1 0x9 DUP5 DUP2 SLOAD DUP2 LT PUSH3 0xB93 JUMPI PUSH3 0xB93 PUSH3 0xE1A JUMP JUMPDEST PUSH1 0x0 SWAP2 DUP3 MSTORE PUSH1 0x20 DUP1 DUP4 KECCAK256 SWAP1 SWAP2 ADD SLOAD PUSH1 0x1 PUSH1 0x1 PUSH1 0xA0 SHL SUB AND DUP4 MSTORE DUP3 ADD SWAP3 SWAP1 SWAP3 MSTORE PUSH1 0x40 ADD SWAP1 KECCAK256 SLOAD GT JUMPDEST ISZERO PUSH3 0xBE6 JUMPI PUSH1 0x11 SLOAD PUSH3 0xBDB PUSH8 0x16345785D8A0000 PUSH4 0x3B9ACA00 PUSH3 0xD7D JUMP JUMPDEST SWAP5 POP SWAP5 POP POP POP POP SWAP1 SWAP2 JUMP JUMPDEST PUSH1 0x5 PUSH1 0x0 PUSH1 0x9 DUP4 DUP2 SLOAD DUP2 LT PUSH3 0xC00 JUMPI PUSH3 0xC00 PUSH3 0xE1A JUMP JUMPDEST PUSH1 0x0 SWAP2 DUP3 MSTORE PUSH1 0x20 DUP1 DUP4 KECCAK256 SWAP1 SWAP2 ADD SLOAD PUSH1 0x1 PUSH1 0x1 PUSH1 0xA0 SHL SUB AND DUP4 MSTORE DUP3 ADD SWAP3 SWAP1 SWAP3 MSTORE PUSH1 0x40 ADD SWAP1 KECCAK256 SLOAD PUSH3 0xC31 SWAP1 DUP5 PUSH3 0xD9F JUMP JUMPDEST SWAP3 POP PUSH1 0x6 PUSH1 0x0 PUSH1 0x9 DUP4 DUP2 SLOAD DUP2 LT PUSH3 0xC4D JUMPI PUSH3 0xC4D PUSH3 0xE1A JUMP JUMPDEST PUSH1 0x0 SWAP2 DUP3 MSTORE PUSH1 0x20 DUP1 DUP4 KECCAK256 SWAP1 SWAP2 ADD SLOAD PUSH1 0x1 PUSH1 0x1 PUSH1 0xA0 SHL SUB AND DUP4 MSTORE DUP3 ADD SWAP3 SWAP1 SWAP3 MSTORE PUSH1 0x40 ADD SWAP1 KECCAK256 SLOAD PUSH3 0xC7E SWAP1 DUP4 PUSH3 0xD9F JUMP JUMPDEST SWAP2 POP DUP1 PUSH3 0xC8C DUP2 PUSH3 0xDB9 JUMP JUMPDEST SWAP2 POP POP PUSH3 0xB25 JUMP JUMPDEST POP PUSH3 0xCAE PUSH8 0x16345785D8A0000 PUSH4 0x3B9ACA00 PUSH3 0xD7D JUMP JUMPDEST PUSH1 0x11 SLOAD PUSH3 0xCBD SWAP2 SWAP1 PUSH3 0xD66 JUMP JUMPDEST DUP3 LT ISZERO PUSH3 0xCEA JUMPI PUSH1 0x11 SLOAD PUSH3 0xCE0 PUSH8 0x16345785D8A0000 PUSH4 0x3B9ACA00 PUSH3 0xD7D JUMP JUMPDEST SWAP4 POP SWAP4 POP POP POP SWAP1 SWAP2 JUMP JUMPDEST SWAP1 SWAP4 SWAP1 SWAP3 POP SWAP1 POP JUMP JUMPDEST DUP1 MLOAD PUSH1 0x1 PUSH1 0x1 PUSH1 0xA0 SHL SUB DUP2 AND DUP2 EQ PUSH3 0xD0B JUMPI PUSH1 0x0 DUP1 REVERT JUMPDEST SWAP2 SWAP1 POP JUMP JUMPDEST PUSH1 0x0 PUSH1 0x20 DUP3 DUP5 SUB SLT ISZERO PUSH3 0xD23 JUMPI PUSH1 0x0 DUP1 REVERT JUMPDEST PUSH3 0xAD2 DUP3 PUSH3 0xCF3 JUMP JUMPDEST PUSH1 0x0 DUP1 PUSH1 0x40 DUP4 DUP6 SUB SLT ISZERO PUSH3 0xD42 JUMPI PUSH1 0x0 DUP1 REVERT JUMPDEST PUSH3 0xD4D DUP4 PUSH3 0xCF3 JUMP JUMPDEST SWAP2 POP PUSH3 0xD5D PUSH1 0x20 DUP5 ADD PUSH3 0xCF3 JUMP JUMPDEST SWAP1 POP SWAP3 POP SWAP3 SWAP1 POP JUMP JUMPDEST PUSH1 0x0 DUP3 PUSH3 0xD78 JUMPI PUSH3 0xD78 PUSH3 0xE04 JUMP JUMPDEST POP DIV SWAP1 JUMP JUMPDEST PUSH1 0x0 DUP2 PUSH1 0x0 NOT DIV DUP4 GT DUP3 ISZERO ISZERO AND ISZERO PUSH3 0xD9A JUMPI PUSH3 0xD9A PUSH3 0xDEE JUMP JUMPDEST POP MUL SWAP1 JUMP JUMPDEST PUSH1 0x0 DUP3 DUP3 LT ISZERO PUSH3 0xDB4 JUMPI PUSH3 0xDB4 PUSH3 0xDEE JUMP JUMPDEST POP SUB SWAP1 JUMP JUMPDEST PUSH1 0x0 PUSH1 0x0 NOT DUP3 EQ ISZERO PUSH3 0xDD0 JUMPI PUSH3 0xDD0 PUSH3 0xDEE JUMP JUMPDEST POP PUSH1 0x1 ADD SWAP1 JUMP JUMPDEST PUSH1 0x0 DUP3 PUSH3 0xDE9 JUMPI PUSH3 0xDE9 PUSH3 0xE04 JUMP JUMPDEST POP MOD SWAP1 JUMP JUMPDEST PUSH4 0x4E487B71 PUSH1 0xE0 SHL PUSH1 0x0 MSTORE PUSH1 0x11 PUSH1 0x4 MSTORE PUSH1 0x24 PUSH1 0x0 REVERT JUMPDEST PUSH4 0x4E487B71 PUSH1 0xE0 SHL PUSH1 0x0 MSTORE PUSH1 0x12 PUSH1 0x4 MSTORE PUSH1 0x24 PUSH1 0x0 REVERT JUMPDEST PUSH4 0x4E487B71 PUSH1 0xE0 SHL PUSH1 0x0 MSTORE PUSH1 0x32 PUSH1 0x4 MSTORE PUSH1 0x24 PUSH1 0x0 REVERT JUMPDEST PUSH2 0x3412 DUP1 PUSH3 0xE40 PUSH1 0x0 CODECOPY PUSH1 0x0 RETURN INVALID PUSH1 0x80 PUSH1 0x40 MSTORE PUSH1 0x4 CALLDATASIZE LT PUSH2 0x234 JUMPI PUSH1 0x0 CALLDATALOAD PUSH1 0xE0 SHR DUP1 PUSH4 0x70D5AE05 GT PUSH2 0x12E JUMPI DUP1 PUSH4 0xC29C669A GT PUSH2 0xAB JUMPI DUP1 PUSH4 0xEA2F0B37 GT PUSH2 0x6F JUMPI DUP1 PUSH4 0xEA2F0B37 EQ PUSH2 0x728 JUMPI DUP1 PUSH4 0xEC28438A EQ PUSH2 0x748 JUMPI DUP1 PUSH4 0xF2FDE38B EQ PUSH2 0x768 JUMPI DUP1 PUSH4 0xF66895A3 EQ PUSH2 0x788 JUMPI DUP1 PUSH4 0xFE575A87 EQ PUSH2 0x79D JUMPI PUSH1 0x0 DUP1 REVERT JUMPDEST DUP1 PUSH4 0xC29C669A EQ PUSH2 0x649 JUMPI DUP1 PUSH4 0xD8B60040 EQ PUSH2 0x669 JUMPI DUP1 PUSH4 0xDD62ED3E EQ PUSH2 0x689 JUMPI DUP1 PUSH4 0xE594707E EQ PUSH2 0x6CF JUMPI DUP1 PUSH4 0xE85455D7 EQ PUSH2 0x6EF JUMPI PUSH1 0x0 DUP1 REVERT JUMPDEST DUP1 PUSH4 0x8DA5CB5B GT PUSH2 0xF2 JUMPI DUP1 PUSH4 0x8DA5CB5B EQ PUSH2 0x59D JUMPI DUP1 PUSH4 0x8F265A5B EQ PUSH2 0x5BB JUMPI DUP1 PUSH4 0x95D89B41 EQ PUSH2 0x5DB JUMPI DUP1 PUSH4 0xA457C2D7 EQ PUSH2 0x609 JUMPI DUP1 PUSH4 0xA9059CBB EQ PUSH2 0x629 JUMPI PUSH1 0x0 DUP1 REVERT JUMPDEST DUP1 PUSH4 0x70D5AE05 EQ PUSH2 0x4D7 JUMPI DUP1 PUSH4 0x715018A6 EQ PUSH2 0x4ED JUMPI DUP1 PUSH4 0x7D1DB4A5 EQ PUSH2 0x502 JUMPI DUP1 PUSH4 0x864701A5 EQ PUSH2 0x518 JUMPI DUP1 PUSH4 0x88F82020 EQ PUSH2 0x564 JUMPI PUSH1 0x0 DUP1 REVERT JUMPDEST DUP1 PUSH4 0x313CE567 GT PUSH2 0x1BC JUMPI DUP1 PUSH4 0x49BD5A5E GT PUSH2 0x180 JUMPI DUP1 PUSH4 0x49BD5A5E EQ PUSH2 0x410 JUMPI DUP1 PUSH4 0x52390C02 EQ PUSH2 0x448 JUMPI DUP1 PUSH4 0x5342ACB4 EQ PUSH2 0x468 JUMPI DUP1 PUSH4 0x53BBF6AC EQ PUSH2 0x4A1 JUMPI DUP1 PUSH4 0x70A08231 EQ PUSH2 0x4B7 JUMPI PUSH1 0x0 DUP1 REVERT JUMPDEST DUP1 PUSH4 0x313CE567 EQ PUSH2 0x374 JUMPI DUP1 PUSH4 0x3685D419 EQ PUSH2 0x390 JUMPI DUP1 PUSH4 0x39509351 EQ PUSH2 0x3B0 JUMPI DUP1 PUSH4 0x437823EC EQ PUSH2 0x3D0 JUMPI DUP1 PUSH4 0x4549B039 EQ PUSH2 0x3F0 JUMPI PUSH1 0x0 DUP1 REVERT JUMPDEST DUP1 PUSH4 0x18160DDD GT PUSH2 0x203 JUMPI DUP1 PUSH4 0x18160DDD EQ PUSH2 0x2F4 JUMPI DUP1 PUSH4 0x18A24B5B EQ PUSH2 0x309 JUMPI DUP1 PUSH4 0x1FC9EFA1 EQ PUSH2 0x31E JUMPI DUP1 PUSH4 0x23B872DD EQ PUSH2 0x334 JUMPI DUP1 PUSH4 0x2D838119 EQ PUSH2 0x354 JUMPI PUSH1 0x0 DUP1 REVERT JUMPDEST DUP1 PUSH4 0x53AB182 EQ PUSH2 0x240 JUMPI DUP1 PUSH4 0x6FDDE03 EQ PUSH2 0x262 JUMPI DUP1 PUSH4 0x95EA7B3 EQ PUSH2 0x2A5 JUMPI DUP1 PUSH4 0x13114A9D EQ PUSH2 0x2D5 JUMPI PUSH1 0x0 DUP1 REVERT JUMPDEST CALLDATASIZE PUSH2 0x23B JUMPI STOP JUMPDEST PUSH1 0x0 DUP1 REVERT JUMPDEST CALLVALUE DUP1 ISZERO PUSH2 0x24C JUMPI PUSH1 0x0 DUP1 REVERT JUMPDEST POP PUSH2 0x260 PUSH2 0x25B CALLDATASIZE PUSH1 0x4 PUSH2 0x30CF JUMP JUMPDEST PUSH2 0x7D6 JUMP JUMPDEST STOP JUMPDEST CALLVALUE DUP1 ISZERO PUSH2 0x26E JUMPI PUSH1 0x0 DUP1 REVERT JUMPDEST POP PUSH1 0x40 DUP1 MLOAD DUP1 DUP3 ADD SWAP1 SWAP2 MSTORE PUSH1 0x8 DUP2 MSTORE PUSH8 0x74657374696E673 PUSH1 0xC4 SHL PUSH1 0x20 DUP3 ADD MSTORE JUMPDEST PUSH1 0x40 MLOAD PUSH2 0x29C SWAP2 SWAP1 PUSH2 0x31A1 JUMP JUMPDEST PUSH1 0x40 MLOAD DUP1 SWAP2 SUB SWAP1 RETURN JUMPDEST CALLVALUE DUP1 ISZERO PUSH2 0x2B1 JUMPI PUSH1 0x0 DUP1 REVERT JUMPDEST POP PUSH2 0x2C5 PUSH2 0x2C0 CALLDATASIZE PUSH1 0x4 PUSH2 0x2FDE JUMP JUMPDEST PUSH2 0x8C6 JUMP JUMPDEST PUSH1 0x40 MLOAD SWAP1 ISZERO ISZERO DUP2 MSTORE PUSH1 0x20 ADD PUSH2 0x29C JUMP JUMPDEST CALLVALUE DUP1 ISZERO PUSH2 0x2E1 JUMPI PUSH1 0x0 DUP1 REVERT JUMPDEST POP PUSH1 0x12 SLOAD JUMPDEST PUSH1 0x40 MLOAD SWAP1 DUP2 MSTORE PUSH1 0x20 ADD PUSH2 0x29C JUMP JUMPDEST CALLVALUE DUP1 ISZERO PUSH2 0x300 JUMPI PUSH1 0x0 DUP1 REVERT JUMPDEST POP PUSH2 0x2E6 PUSH2 0x8DD JUMP JUMPDEST CALLVALUE DUP1 ISZERO PUSH2 0x315 JUMPI PUSH1 0x0 DUP1 REVERT JUMPDEST POP PUSH2 0x260 PUSH2 0x8FA JUMP JUMPDEST CALLVALUE DUP1 ISZERO PUSH2 0x32A JUMPI PUSH1 0x0 DUP1 REVERT JUMPDEST POP PUSH2 0x2E6 PUSH1 0xE SLOAD DUP2 JUMP JUMPDEST CALLVALUE DUP1 ISZERO PUSH2 0x340 JUMPI PUSH1 0x0 DUP1 REVERT JUMPDEST POP PUSH2 0x2C5 PUSH2 0x34F CALLDATASIZE PUSH1 0x4 PUSH2 0x2F68 JUMP JUMPDEST PUSH2 0x934 JUMP JUMPDEST CALLVALUE DUP1 ISZERO PUSH2 0x360 JUMPI PUSH1 0x0 DUP1 REVERT JUMPDEST POP PUSH2 0x2E6 PUSH2 0x36F CALLDATASIZE PUSH1 0x4 PUSH2 0x30CF JUMP JUMPDEST PUSH2 0x9DE JUMP JUMPDEST CALLVALUE DUP1 ISZERO PUSH2 0x380 JUMPI PUSH1 0x0 DUP1 REVERT JUMPDEST POP PUSH1 0x40 MLOAD PUSH1 0x9 DUP2 MSTORE PUSH1 0x20 ADD PUSH2 0x29C JUMP JUMPDEST CALLVALUE DUP1 ISZERO PUSH2 0x39C JUMPI PUSH1 0x0 DUP1 REVERT JUMPDEST POP PUSH2 0x260 PUSH2 0x3AB CALLDATASIZE PUSH1 0x4 PUSH2 0x2EF5 JUMP JUMPDEST PUSH2 0xA62 JUMP JUMPDEST CALLVALUE DUP1 ISZERO PUSH2 0x3BC JUMPI PUSH1 0x0 DUP1 REVERT JUMPDEST POP PUSH2 0x2C5 PUSH2 0x3CB CALLDATASIZE PUSH1 0x4 PUSH2 0x2FDE JUMP JUMPDEST PUSH2 0xC19 JUMP JUMPDEST CALLVALUE DUP1 ISZERO PUSH2 0x3DC JUMPI PUSH1 0x0 DUP1 REVERT JUMPDEST POP PUSH2 0x260 PUSH2 0x3EB CALLDATASIZE PUSH1 0x4 PUSH2 0x2EF5 JUMP JUMPDEST PUSH2 0xC55 JUMP JUMPDEST CALLVALUE DUP1 ISZERO PUSH2 0x3FC JUMPI PUSH1 0x0 DUP1 REVERT JUMPDEST POP PUSH2 0x2E6 PUSH2 0x40B CALLDATASIZE PUSH1 0x4 PUSH2 0x30E8 JUMP JUMPDEST PUSH2 0xCA3 JUMP JUMPDEST CALLVALUE DUP1 ISZERO PUSH2 0x41C JUMPI PUSH1 0x0 DUP1 REVERT JUMPDEST POP PUSH1 0x14 SLOAD PUSH2 0x430 SWAP1 PUSH1 0x1 PUSH1 0x1 PUSH1 0xA0 SHL SUB AND DUP2 JUMP JUMPDEST PUSH1 0x40 MLOAD PUSH1 0x1 PUSH1 0x1 PUSH1 0xA0 SHL SUB SWAP1 SWAP2 AND DUP2 MSTORE PUSH1 0x20 ADD PUSH2 0x29C JUMP JUMPDEST CALLVALUE DUP1 ISZERO PUSH2 0x454 JUMPI PUSH1 0x0 DUP1 REVERT JUMPDEST POP PUSH2 0x260 PUSH2 0x463 CALLDATASIZE PUSH1 0x4 PUSH2 0x2EF5 JUMP JUMPDEST PUSH2 0xD41 JUMP JUMPDEST CALLVALUE DUP1 ISZERO PUSH2 0x474 JUMPI PUSH1 0x0 DUP1 REVERT JUMPDEST POP PUSH2 0x2C5 PUSH2 0x483 CALLDATASIZE PUSH1 0x4 PUSH2 0x2EF5 JUMP JUMPDEST PUSH1 0x1 PUSH1 0x1 PUSH1 0xA0 SHL SUB AND PUSH1 0x0 SWAP1 DUP2 MSTORE PUSH1 0xA PUSH1 0x20 MSTORE PUSH1 0x40 SWAP1 KECCAK256 SLOAD PUSH1 0xFF AND SWAP1 JUMP JUMPDEST CALLVALUE DUP1 ISZERO PUSH2 0x4AD JUMPI PUSH1 0x0 DUP1 REVERT JUMPDEST POP PUSH2 0x2E6 PUSH1 0x10 SLOAD DUP2 JUMP JUMPDEST CALLVALUE DUP1 ISZERO PUSH2 0x4C3 JUMPI PUSH1 0x0 DUP1 REVERT JUMPDEST POP PUSH2 0x2E6 PUSH2 0x4D2 CALLDATASIZE PUSH1 0x4 PUSH2 0x2EF5 JUMP JUMPDEST PUSH2 0xE94 JUMP JUMPDEST CALLVALUE DUP1 ISZERO PUSH2 0x4E3 JUMPI PUSH1 0x0 DUP1 REVERT JUMPDEST POP PUSH2 0x430 PUSH2 0xDEAD DUP2 JUMP JUMPDEST CALLVALUE DUP1 ISZERO PUSH2 0x4F9 JUMPI PUSH1 0x0 DUP1 REVERT JUMPDEST POP PUSH2 0x260 PUSH2 0xEF3 JUMP JUMPDEST CALLVALUE DUP1 ISZERO PUSH2 0x50E JUMPI PUSH1 0x0 DUP1 REVERT JUMPDEST POP PUSH2 0x2E6 PUSH1 0xD SLOAD DUP2 JUMP JUMPDEST CALLVALUE DUP1 ISZERO PUSH2 0x524 JUMPI PUSH1 0x0 DUP1 REVERT JUMPDEST POP PUSH2 0x52D PUSH2 0xF29 JUMP JUMPDEST PUSH1 0x40 DUP1 MLOAD PUSH4 0xFFFFFFFF SWAP7 DUP8 AND DUP2 MSTORE SWAP5 DUP7 AND PUSH1 0x20 DUP7 ADD MSTORE SWAP3 DUP6 AND SWAP3 DUP5 ADD SWAP3 SWAP1 SWAP3 MSTORE DUP4 AND PUSH1 0x60 DUP4 ADD MSTORE SWAP1 SWAP2 AND PUSH1 0x80 DUP3 ADD MSTORE PUSH1 0xA0 ADD PUSH2 0x29C JUMP JUMPDEST CALLVALUE DUP1 ISZERO PUSH2 0x570 JUMPI PUSH1 0x0 DUP1 REVERT JUMPDEST POP PUSH2 0x2C5 PUSH2 0x57F CALLDATASIZE PUSH1 0x4 PUSH2 0x2EF5 JUMP JUMPDEST PUSH1 0x1 PUSH1 0x1 PUSH1 0xA0 SHL SUB AND PUSH1 0x0 SWAP1 DUP2 MSTORE PUSH1 0x8 PUSH1 0x20 MSTORE PUSH1 0x40 SWAP1 KECCAK256 SLOAD PUSH1 0xFF AND SWAP1 JUMP JUMPDEST CALLVALUE DUP1 ISZERO PUSH2 0x5A9 JUMPI PUSH1 0x0 DUP1 REVERT JUMPDEST POP PUSH1 0x0 SLOAD PUSH1 0x1 PUSH1 0x1 PUSH1 0xA0 SHL SUB AND PUSH2 0x430 JUMP JUMPDEST CALLVALUE DUP1 ISZERO PUSH2 0x5C7 JUMPI PUSH1 0x0 DUP1 REVERT JUMPDEST POP PUSH2 0x260 PUSH2 0x5D6 CALLDATASIZE PUSH1 0x4 PUSH2 0x310B JUMP JUMPDEST PUSH2 0x1045 JUMP JUMPDEST CALLVALUE DUP1 ISZERO PUSH2 0x5E7 JUMPI PUSH1 0x0 DUP1 REVERT JUMPDEST POP PUSH1 0x40 DUP1 MLOAD DUP1 DUP3 ADD SWAP1 SWAP2 MSTORE PUSH1 0x5 DUP2 MSTORE PUSH5 0x544553543 PUSH1 0xDC SHL PUSH1 0x20 DUP3 ADD MSTORE PUSH2 0x28F JUMP JUMPDEST CALLVALUE DUP1 ISZERO PUSH2 0x615 JUMPI PUSH1 0x0 DUP1 REVERT JUMPDEST POP PUSH2 0x2C5 PUSH2 0x624 CALLDATASIZE PUSH1 0x4 PUSH2 0x2FDE JUMP JUMPDEST PUSH2 0x1465 JUMP JUMPDEST CALLVALUE DUP1 ISZERO PUSH2 0x635 JUMPI PUSH1 0x0 DUP1 REVERT JUMPDEST POP PUSH2 0x2C5 PUSH2 0x644 CALLDATASIZE PUSH1 0x4 PUSH2 0x2FDE JUMP JUMPDEST PUSH2 0x14FE JUMP JUMPDEST CALLVALUE DUP1 ISZERO PUSH2 0x655 JUMPI PUSH1 0x0 DUP1 REVERT JUMPDEST POP PUSH2 0x260 PUSH2 0x664 CALLDATASIZE PUSH1 0x4 PUSH2 0x2FA9 JUMP JUMPDEST PUSH2 0x150B JUMP JUMPDEST CALLVALUE DUP1 ISZERO PUSH2 0x675 JUMPI PUSH1 0x0 DUP1 REVERT JUMPDEST POP PUSH2 0x260 PUSH2 0x684 CALLDATASIZE PUSH1 0x4 PUSH2 0x30CF JUMP JUMPDEST PUSH2 0x158B JUMP JUMPDEST CALLVALUE DUP1 ISZERO PUSH2 0x695 JUMPI PUSH1 0x0 DUP1 REVERT JUMPDEST POP PUSH2 0x2E6 PUSH2 0x6A4 CALLDATASIZE PUSH1 0x4 PUSH2 0x2F2F JUMP JUMPDEST PUSH1 0x1 PUSH1 0x1 PUSH1 0xA0 SHL SUB SWAP2 DUP3 AND PUSH1 0x0 SWAP1 DUP2 MSTORE PUSH1 0x7 PUSH1 0x20 SWAP1 DUP2 MSTORE PUSH1 0x40 DUP1 DUP4 KECCAK256 SWAP4 SWAP1 SWAP5 AND DUP3 MSTORE SWAP2 SWAP1 SWAP2 MSTORE KECCAK256 SLOAD SWAP1 JUMP JUMPDEST CALLVALUE DUP1 ISZERO PUSH2 0x6DB JUMPI PUSH1 0x0 DUP1 REVERT JUMPDEST POP PUSH2 0x260 PUSH2 0x6EA CALLDATASIZE PUSH1 0x4 PUSH2 0x2FA9 JUMP JUMPDEST PUSH2 0x1644 JUMP JUMPDEST CALLVALUE DUP1 ISZERO PUSH2 0x6FB JUMPI PUSH1 0x0 DUP1 REVERT JUMPDEST POP PUSH2 0x2C5 PUSH2 0x70A CALLDATASIZE PUSH1 0x4 PUSH2 0x2EF5 JUMP JUMPDEST PUSH1 0x1 PUSH1 0x1 PUSH1 0xA0 SHL SUB AND PUSH1 0x0 SWAP1 DUP2 MSTORE PUSH1 0xB PUSH1 0x20 MSTORE PUSH1 0x40 SWAP1 KECCAK256 SLOAD PUSH1 0xFF AND SWAP1 JUMP JUMPDEST CALLVALUE DUP1 ISZERO PUSH2 0x734 JUMPI PUSH1 0x0 DUP1 REVERT JUMPDEST POP PUSH2 0x260 PUSH2 0x743 CALLDATASIZE PUSH1 0x4 PUSH2 0x2EF5 JUMP JUMPDEST PUSH2 0x1699 JUMP JUMPDEST CALLVALUE DUP1 ISZERO PUSH2 0x754 JUMPI PUSH1 0x0 DUP1 REVERT JUMPDEST POP PUSH2 0x260 PUSH2 0x763 CALLDATASIZE PUSH1 0x4 PUSH2 0x30CF JUMP JUMPDEST PUSH2 0x16E4 JUMP JUMPDEST CALLVALUE DUP1 ISZERO PUSH2 0x774 JUMPI PUSH1 0x0 DUP1 REVERT JUMPDEST POP PUSH2 0x260 PUSH2 0x783 CALLDATASIZE PUSH1 0x4 PUSH2 0x2EF5 JUMP JUMPDEST PUSH2 0x17A4 JUMP JUMPDEST CALLVALUE DUP1 ISZERO PUSH2 0x794 JUMPI PUSH1 0x0 DUP1 REVERT JUMPDEST POP PUSH2 0x52D PUSH2 0x183F JUMP JUMPDEST CALLVALUE DUP1 ISZERO PUSH2 0x7A9 JUMPI PUSH1 0x0 DUP1 REVERT JUMPDEST POP PUSH2 0x2C5 PUSH2 0x7B8 CALLDATASIZE PUSH1 0x4 PUSH2 0x2EF5 JUMP JUMPDEST PUSH1 0x1 PUSH1 0x1 PUSH1 0xA0 SHL SUB AND PUSH1 0x0 SWAP1 DUP2 MSTORE PUSH1 0xC PUSH1 0x20 MSTORE PUSH1 0x40 SWAP1 KECCAK256 SLOAD PUSH1 0xFF AND SWAP1 JUMP JUMPDEST CALLER PUSH1 0x0 DUP2 DUP2 MSTORE PUSH1 0x8 PUSH1 0x20 MSTORE PUSH1 0x40 SWAP1 KECCAK256 SLOAD PUSH1 0xFF AND ISZERO PUSH2 0x850 JUMPI PUSH1 0x40 MLOAD PUSH3 0x461BCD PUSH1 0xE5 SHL DUP2 MSTORE PUSH1 0x20 PUSH1 0x4 DUP3 ADD MSTORE PUSH1 0x2C PUSH1 0x24 DUP3 ADD MSTORE PUSH32 0x4578636C75646564206164647265737365732063616E6E6F742063616C6C2074 PUSH1 0x44 DUP3 ADD MSTORE PUSH12 0x3434B990333AB731BA34B7B7 PUSH1 0xA1 SHL PUSH1 0x64 DUP3 ADD MSTORE PUSH1 0x84 ADD JUMPDEST PUSH1 0x40 MLOAD DUP1 SWAP2 SUB SWAP1 REVERT JUMPDEST PUSH1 0x0 PUSH2 0x85B DUP4 PUSH2 0x1927 JUMP JUMPDEST POP POP POP PUSH1 0x1 PUSH1 0x1 PUSH1 0xA0 SHL SUB DUP5 AND PUSH1 0x0 SWAP1 DUP2 MSTORE PUSH1 0x5 PUSH1 0x20 MSTORE PUSH1 0x40 SWAP1 KECCAK256 SLOAD SWAP2 SWAP3 POP PUSH2 0x886 SWAP2 DUP4 SWAP2 POP PUSH2 0x331D JUMP JUMPDEST PUSH1 0x1 PUSH1 0x1 PUSH1 0xA0 SHL SUB DUP4 AND PUSH1 0x0 SWAP1 DUP2 MSTORE PUSH1 0x5 PUSH1 0x20 MSTORE PUSH1 0x40 SWAP1 KECCAK256 SSTORE PUSH1 0x11 SLOAD PUSH2 0x8AD SWAP1 DUP3 SWAP1 PUSH2 0x331D JUMP JUMPDEST PUSH1 0x11 SSTORE PUSH1 0x12 SLOAD PUSH2 0x8BE SWAP1 DUP5 SWAP1 PUSH2 0x329C JUMP JUMPDEST PUSH1 0x12 SSTORE POP POP POP JUMP JUMPDEST PUSH1 0x0 PUSH2 0x8D3 CALLER DUP5 DUP5 PUSH2 0x19B8 JUMP JUMPDEST POP PUSH1 0x1 JUMPDEST SWAP3 SWAP2 POP POP JUMP JUMPDEST PUSH1 0x0 PUSH2 0x8F5 PUSH8 0x16345785D8A0000 PUSH4 0x3B9ACA00 PUSH2 0x32FE JUMP JUMPDEST SWAP1 POP SWAP1 JUMP JUMPDEST PUSH1 0x0 SLOAD PUSH1 0x1 PUSH1 0x1 PUSH1 0xA0 SHL SUB AND CALLER EQ PUSH2 0x924 JUMPI PUSH1 0x40 MLOAD PUSH3 0x461BCD PUSH1 0xE5 SHL DUP2 MSTORE PUSH1 0x4 ADD PUSH2 0x847 SWAP1 PUSH2 0x31F6 JUMP JUMPDEST PUSH1 0xF DUP1 SLOAD PUSH1 0xFF NOT AND SWAP1 SSTORE TIMESTAMP PUSH1 0x10 SSTORE JUMP JUMPDEST PUSH1 0x0 PUSH2 0x941 DUP5 DUP5 DUP5 PUSH2 0x1ADC JUMP JUMPDEST PUSH1 0x1 PUSH1 0x1 PUSH1 0xA0 SHL SUB DUP5 AND PUSH1 0x0 SWAP1 DUP2 MSTORE PUSH1 0x7 PUSH1 0x20 SWAP1 DUP2 MSTORE PUSH1 0x40 DUP1 DUP4 KECCAK256 CALLER DUP5 MSTORE SWAP1 SWAP2 MSTORE SWAP1 KECCAK256 SLOAD DUP3 DUP2 LT ISZERO PUSH2 0x9C6 JUMPI PUSH1 0x40 MLOAD PUSH3 0x461BCD PUSH1 0xE5 SHL DUP2 MSTORE PUSH1 0x20 PUSH1 0x4 DUP3 ADD MSTORE PUSH1 0x28 PUSH1 0x24 DUP3 ADD MSTORE PUSH32 0x45524332303A207472616E7366657220616D6F756E7420657863656564732061 PUSH1 0x44 DUP3 ADD MSTORE PUSH8 0x6C6C6F77616E6365 PUSH1 0xC0 SHL PUSH1 0x64 DUP3 ADD MSTORE PUSH1 0x84 ADD PUSH2 0x847 JUMP JUMPDEST PUSH2 0x9D3 DUP6 CALLER DUP6 DUP5 SUB PUSH2 0x19B8 JUMP JUMPDEST POP PUSH1 0x1 SWAP5 SWAP4 POP POP POP POP JUMP JUMPDEST PUSH1 0x0 PUSH1 0x11 SLOAD DUP3 GT ISZERO PUSH2 0xA45 JUMPI PUSH1 0x40 MLOAD PUSH3 0x461BCD PUSH1 0xE5 SHL DUP2 MSTORE PUSH1 0x20 PUSH1 0x4 DUP3 ADD MSTORE PUSH1 0x2A PUSH1 0x24 DUP3 ADD MSTORE PUSH32 0x416D6F756E74206D757374206265206C657373207468616E20746F74616C2072 PUSH1 0x44 DUP3 ADD MSTORE PUSH10 0x65666C656374696F6E73 PUSH1 0xB0 SHL PUSH1 0x64 DUP3 ADD MSTORE PUSH1 0x84 ADD PUSH2 0x847 JUMP JUMPDEST PUSH1 0x0 PUSH2 0xA4F PUSH2 0x270F JUMP JUMPDEST SWAP1 POP PUSH2 0xA5B DUP2 DUP5 PUSH2 0x32DC JUMP JUMPDEST SWAP4 SWAP3 POP POP POP JUMP JUMPDEST PUSH1 0x0 SLOAD PUSH1 0x1 PUSH1 0x1 PUSH1 0xA0 SHL SUB AND CALLER EQ PUSH2 0xA8C JUMPI PUSH1 0x40 MLOAD PUSH3 0x461BCD PUSH1 0xE5 SHL DUP2 MSTORE PUSH1 0x4 ADD PUSH2 0x847 SWAP1 PUSH2 0x31F6 JUMP JUMPDEST PUSH1 0x1 PUSH1 0x1 PUSH1 0xA0 SHL SUB DUP2 AND PUSH1 0x0 SWAP1 DUP2 MSTORE PUSH1 0x8 PUSH1 0x20 MSTORE PUSH1 0x40 SWAP1 KECCAK256 SLOAD PUSH1 0xFF AND PUSH2 0xAF4 JUMPI PUSH1 0x40 MLOAD PUSH3 0x461BCD PUSH1 0xE5 SHL DUP2 MSTORE PUSH1 0x20 PUSH1 0x4 DUP3 ADD MSTORE PUSH1 0x1B PUSH1 0x24 DUP3 ADD MSTORE PUSH32 0x4163636F756E7420697320616C7265616479206578636C756465640000000000 PUSH1 0x44 DUP3 ADD MSTORE PUSH1 0x64 ADD PUSH2 0x847 JUMP JUMPDEST PUSH1 0x0 JUMPDEST PUSH1 0x9 SLOAD DUP2 LT ISZERO PUSH2 0xC15 JUMPI DUP2 PUSH1 0x1 PUSH1 0x1 PUSH1 0xA0 SHL SUB AND PUSH1 0x9 DUP3 DUP2 SLOAD DUP2 LT PUSH2 0xB1E JUMPI PUSH2 0xB1E PUSH2 0x337B JUMP JUMPDEST PUSH1 0x0 SWAP2 DUP3 MSTORE PUSH1 0x20 SWAP1 SWAP2 KECCAK256 ADD SLOAD PUSH1 0x1 PUSH1 0x1 PUSH1 0xA0 SHL SUB AND EQ ISZERO PUSH2 0xC03 JUMPI PUSH1 0x9 DUP1 SLOAD PUSH2 0xB49 SWAP1 PUSH1 0x1 SWAP1 PUSH2 0x331D JUMP JUMPDEST DUP2 SLOAD DUP2 LT PUSH2 0xB59 JUMPI PUSH2 0xB59 PUSH2 0x337B JUMP JUMPDEST PUSH1 0x0 SWAP2 DUP3 MSTORE PUSH1 0x20 SWAP1 SWAP2 KECCAK256 ADD SLOAD PUSH1 0x9 DUP1 SLOAD PUSH1 0x1 PUSH1 0x1 PUSH1 0xA0 SHL SUB SWAP1 SWAP3 AND SWAP2 DUP4 SWAP1 DUP2 LT PUSH2 0xB85 JUMPI PUSH2 0xB85 PUSH2 0x337B JUMP JUMPDEST PUSH1 0x0 SWAP2 DUP3 MSTORE PUSH1 0x20 DUP1 DUP4 KECCAK256 SWAP2 SWAP1 SWAP2 ADD DUP1 SLOAD PUSH1 0x1 PUSH1 0x1 PUSH1 0xA0 SHL SUB NOT AND PUSH1 0x1 PUSH1 0x1 PUSH1 0xA0 SHL SUB SWAP5 DUP6 AND OR SWAP1 SSTORE SWAP2 DUP5 AND DUP2 MSTORE PUSH1 0x6 DUP3 MSTORE PUSH1 0x40 DUP1 DUP3 KECCAK256 DUP3 SWAP1 SSTORE PUSH1 0x8 SWAP1 SWAP3 MSTORE KECCAK256 DUP1 SLOAD PUSH1 0xFF NOT AND SWAP1 SSTORE PUSH1 0x9 DUP1 SLOAD DUP1 PUSH2 0xBDD JUMPI PUSH2 0xBDD PUSH2 0x3365 JUMP JUMPDEST PUSH1 0x0 DUP3 DUP2 MSTORE PUSH1 0x20 SWAP1 KECCAK256 DUP2 ADD PUSH1 0x0 NOT SWAP1 DUP2 ADD DUP1 SLOAD PUSH1 0x1 PUSH1 0x1 PUSH1 0xA0 SHL SUB NOT AND SWAP1 SSTORE ADD SWAP1 SSTORE POP POP JUMP JUMPDEST DUP1 PUSH2 0xC0D DUP2 PUSH2 0x3334 JUMP JUMPDEST SWAP2 POP POP PUSH2 0xAF7 JUMP JUMPDEST POP POP JUMP JUMPDEST CALLER PUSH1 0x0 DUP2 DUP2 MSTORE PUSH1 0x7 PUSH1 0x20 SWAP1 DUP2 MSTORE PUSH1 0x40 DUP1 DUP4 KECCAK256 PUSH1 0x1 PUSH1 0x1 PUSH1 0xA0 SHL SUB DUP8 AND DUP5 MSTORE SWAP1 SWAP2 MSTORE DUP2 KECCAK256 SLOAD SWAP1 SWAP2 PUSH2 0x8D3 SWAP2 DUP6 SWAP1 PUSH2 0xC50 SWAP1 DUP7 SWAP1 PUSH2 0x329C JUMP JUMPDEST PUSH2 0x19B8 JUMP JUMPDEST PUSH1 0x0 SLOAD PUSH1 0x1 PUSH1 0x1 PUSH1 0xA0 SHL SUB AND CALLER EQ PUSH2 0xC7F JUMPI PUSH1 0x40 MLOAD PUSH3 0x461BCD PUSH1 0xE5 SHL DUP2 MSTORE PUSH1 0x4 ADD PUSH2 0x847 SWAP1 PUSH2 0x31F6 JUMP JUMPDEST PUSH1 0x1 PUSH1 0x1 PUSH1 0xA0 SHL SUB AND PUSH1 0x0 SWAP1 DUP2 MSTORE PUSH1 0xA PUSH1 0x20 MSTORE PUSH1 0x40 SWAP1 KECCAK256 DUP1 SLOAD PUSH1 0xFF NOT AND PUSH1 0x1 OR SWAP1 SSTORE JUMP JUMPDEST PUSH1 0x0 PUSH2 0xCBB PUSH8 0x16345785D8A0000 PUSH4 0x3B9ACA00 PUSH2 0x32FE JUMP JUMPDEST DUP4 GT ISZERO PUSH2 0xD0A JUMPI PUSH1 0x40 MLOAD PUSH3 0x461BCD PUSH1 0xE5 SHL DUP2 MSTORE PUSH1 0x20 PUSH1 0x4 DUP3 ADD MSTORE PUSH1 0x1F PUSH1 0x24 DUP3 ADD MSTORE PUSH32 0x416D6F756E74206D757374206265206C657373207468616E20737570706C7900 PUSH1 0x44 DUP3 ADD MSTORE PUSH1 0x64 ADD PUSH2 0x847 JUMP JUMPDEST DUP2 PUSH2 0xD28 JUMPI PUSH1 0x0 PUSH2 0xD1A DUP5 PUSH2 0x1927 JUMP JUMPDEST POP SWAP3 SWAP5 POP PUSH2 0x8D7 SWAP4 POP POP POP POP JUMP JUMPDEST PUSH1 0x0 PUSH2 0xD33 DUP5 PUSH2 0x1927 JUMP JUMPDEST POP SWAP2 SWAP5 POP PUSH2 0x8D7 SWAP4 POP POP POP POP JUMP JUMPDEST PUSH1 0x0 SLOAD PUSH1 0x1 PUSH1 0x1 PUSH1 0xA0 SHL SUB AND CALLER EQ PUSH2 0xD6B JUMPI PUSH1 0x40 MLOAD PUSH3 0x461BCD PUSH1 0xE5 SHL DUP2 MSTORE PUSH1 0x4 ADD PUSH2 0x847 SWAP1 PUSH2 0x31F6 JUMP JUMPDEST PUSH1 0x1 PUSH1 0x1 PUSH1 0xA0 SHL SUB DUP2 AND PUSH1 0x0 SWAP1 DUP2 MSTORE PUSH1 0x8 PUSH1 0x20 MSTORE PUSH1 0x40 SWAP1 KECCAK256 SLOAD PUSH1 0xFF AND ISZERO PUSH2 0xDD4 JUMPI PUSH1 0x40 MLOAD PUSH3 0x461BCD PUSH1 0xE5 SHL DUP2 MSTORE PUSH1 0x20 PUSH1 0x4 DUP3 ADD MSTORE PUSH1 0x1B PUSH1 0x24 DUP3 ADD MSTORE PUSH32 0x4163636F756E7420697320616C7265616479206578636C756465640000000000 PUSH1 0x44 DUP3 ADD MSTORE PUSH1 0x64 ADD PUSH2 0x847 JUMP JUMPDEST PUSH1 0x1 PUSH1 0x1 PUSH1 0xA0 SHL SUB DUP2 AND PUSH1 0x0 SWAP1 DUP2 MSTORE PUSH1 0x5 PUSH1 0x20 MSTORE PUSH1 0x40 SWAP1 KECCAK256 SLOAD ISZERO PUSH2 0xE2E JUMPI PUSH1 0x1 PUSH1 0x1 PUSH1 0xA0 SHL SUB DUP2 AND PUSH1 0x0 SWAP1 DUP2 MSTORE PUSH1 0x5 PUSH1 0x20 MSTORE PUSH1 0x40 SWAP1 KECCAK256 SLOAD PUSH2 0xE14 SWAP1 PUSH2 0x9DE JUMP JUMPDEST PUSH1 0x1 PUSH1 0x1 PUSH1 0xA0 SHL SUB DUP3 AND PUSH1 0x0 SWAP1 DUP2 MSTORE PUSH1 0x6 PUSH1 0x20 MSTORE PUSH1 0x40 SWAP1 KECCAK256 SSTORE JUMPDEST PUSH1 0x1 PUSH1 0x1 PUSH1 0xA0 SHL SUB AND PUSH1 0x0 DUP2 DUP2 MSTORE PUSH1 0x8 PUSH1 0x20 MSTORE PUSH1 0x40 DUP2 KECCAK256 DUP1 SLOAD PUSH1 0xFF NOT AND PUSH1 0x1 SWAP1 DUP2 OR SWAP1 SWAP2 SSTORE PUSH1 0x9 DUP1 SLOAD SWAP2 DUP3 ADD DUP2 SSTORE SWAP1 SWAP2 MSTORE PUSH32 0x6E1540171B6C0C960B71A7020D9F60077F6AF931A8BBF590DA0223DACF75C7AF ADD DUP1 SLOAD PUSH1 0x1 PUSH1 0x1 PUSH1 0xA0 SHL SUB NOT AND SWAP1 SWAP2 OR SWAP1 SSTORE JUMP JUMPDEST PUSH1 0x1 PUSH1 0x1 PUSH1 0xA0 SHL SUB DUP2 AND PUSH1 0x0 SWAP1 DUP2 MSTORE PUSH1 0x8 PUSH1 0x20 MSTORE PUSH1 0x40 DUP2 KECCAK256 SLOAD PUSH1 0xFF AND ISZERO PUSH2 0xED1 JUMPI POP PUSH1 0x1 PUSH1 0x1 PUSH1 0xA0 SHL SUB AND PUSH1 0x0 SWAP1 DUP2 MSTORE PUSH1 0x6 PUSH1 0x20 MSTORE PUSH1 0x40 SWAP1 KECCAK256 SLOAD SWAP1 JUMP JUMPDEST PUSH1 0x1 PUSH1 0x1 PUSH1 0xA0 SHL SUB DUP3 AND PUSH1 0x0 SWAP1 DUP2 MSTORE PUSH1 0x5 PUSH1 0x20 MSTORE PUSH1 0x40 SWAP1 KECCAK256 SLOAD PUSH2 0x8D7 SWAP1 PUSH2 0x9DE JUMP JUMPDEST PUSH1 0x0 SLOAD PUSH1 0x1 PUSH1 0x1 PUSH1 0xA0 SHL SUB AND CALLER EQ PUSH2 0xF1D JUMPI PUSH1 0x40 MLOAD PUSH3 0x461BCD PUSH1 0xE5 SHL DUP2 MSTORE PUSH1 0x4 ADD PUSH2 0x847 SWAP1 PUSH2 0x31F6 JUMP JUMPDEST PUSH2 0xF27 PUSH1 0x0 PUSH2 0x2732 JUMP JUMPDEST JUMP JUMPDEST PUSH1 0x0 DUP1 PUSH1 0x0 DUP1 PUSH1 0x0 PUSH1 0x1 PUSH1 0x0 DUP2 SLOAD DUP2 LT PUSH2 0xF45 JUMPI PUSH2 0xF45 PUSH2 0x337B JUMP JUMPDEST PUSH1 0x0 SWAP2 DUP3 MSTORE PUSH1 0x20 DUP3 KECCAK256 PUSH1 0x3 SWAP1 SWAP2 MUL ADD SLOAD PUSH1 0x1 DUP1 SLOAD PUSH4 0xFFFFFFFF SWAP1 SWAP3 AND SWAP3 SWAP1 SWAP2 PUSH2 0xF70 JUMPI PUSH2 0xF70 PUSH2 0x337B JUMP JUMPDEST SWAP1 PUSH1 0x0 MSTORE PUSH1 0x20 PUSH1 0x0 KECCAK256 SWAP1 PUSH1 0x3 MUL ADD PUSH1 0x0 ADD PUSH1 0x4 SWAP1 SLOAD SWAP1 PUSH2 0x100 EXP SWAP1 DIV PUSH4 0xFFFFFFFF AND PUSH1 0x1 PUSH1 0x0 DUP2 SLOAD DUP2 LT PUSH2 0xFA6 JUMPI PUSH2 0xFA6 PUSH2 0x337B JUMP JUMPDEST SWAP1 PUSH1 0x0 MSTORE PUSH1 0x20 PUSH1 0x0 KECCAK256 SWAP1 PUSH1 0x3 MUL ADD PUSH1 0x0 ADD PUSH1 0x8 SWAP1 SLOAD SWAP1 PUSH2 0x100 EXP SWAP1 DIV PUSH4 0xFFFFFFFF AND PUSH1 0x1 PUSH1 0x0 DUP2 SLOAD DUP2 LT PUSH2 0xFDC JUMPI PUSH2 0xFDC PUSH2 0x337B JUMP JUMPDEST SWAP1 PUSH1 0x0 MSTORE PUSH1 0x20 PUSH1 0x0 KECCAK256 SWAP1 PUSH1 0x3 MUL ADD PUSH1 0x0 ADD PUSH1 0xC SWAP1 SLOAD SWAP1 PUSH2 0x100 EXP SWAP1 DIV PUSH4 0xFFFFFFFF AND PUSH1 0x1 PUSH1 0x0 DUP2 SLOAD DUP2 LT PUSH2 0x1012 JUMPI PUSH2 0x1012 PUSH2 0x337B JUMP JUMPDEST SWAP1 PUSH1 0x0 MSTORE PUSH1 0x20 PUSH1 0x0 KECCAK256 SWAP1 PUSH1 0x3 MUL ADD PUSH1 0x0 ADD PUSH1 0x10 SWAP1 SLOAD SWAP1 PUSH2 0x100 EXP SWAP1 DIV PUSH4 0xFFFFFFFF AND SWAP5 POP SWAP5 POP SWAP5 POP SWAP5 POP SWAP5 POP SWAP1 SWAP2 SWAP3 SWAP4 SWAP5 JUMP JUMPDEST PUSH1 0x0 SLOAD PUSH1 0x1 PUSH1 0x1 PUSH1 0xA0 SHL SUB AND CALLER EQ PUSH2 0x106F JUMPI PUSH1 0x40 MLOAD PUSH3 0x461BCD PUSH1 0xE5 SHL DUP2 MSTORE PUSH1 0x4 ADD PUSH2 0x847 SWAP1 PUSH2 0x31F6 JUMP JUMPDEST PUSH1 0x1 PUSH1 0x1 PUSH1 0xA0 SHL SUB DUP3 AND ISZERO DUP1 ISZERO SWAP1 PUSH2 0x108F JUMPI POP PUSH1 0x1 PUSH1 0x1 PUSH1 0xA0 SHL SUB DUP2 AND ISZERO ISZERO JUMPDEST PUSH2 0x10E7 JUMPI PUSH1 0x40 MLOAD PUSH3 0x461BCD PUSH1 0xE5 SHL DUP2 MSTORE PUSH1 0x20 PUSH1 0x4 DUP3 ADD MSTORE PUSH1 0x23 PUSH1 0x24 DUP3 ADD MSTORE PUSH32 0x5461782057616C6C6574732061737369676E6564207A65726F20616464726573 PUSH1 0x44 DUP3 ADD MSTORE PUSH3 0x732021 PUSH1 0xE8 SHL PUSH1 0x64 DUP3 ADD MSTORE PUSH1 0x84 ADD PUSH2 0x847 JUMP JUMPDEST DUP3 DUP5 PUSH2 0x10F3 DUP8 DUP10 PUSH2 0x32B4 JUMP JUMPDEST PUSH2 0x10FD SWAP2 SWAP1 PUSH2 0x32B4 JUMP JUMPDEST PUSH2 0x1107 SWAP2 SWAP1 PUSH2 0x32B4 JUMP JUMPDEST PUSH4 0xFFFFFFFF AND PUSH1 0x64 EQ PUSH2 0x116E JUMPI PUSH1 0x40 MLOAD PUSH3 0x461BCD PUSH1 0xE5 SHL DUP2 MSTORE PUSH1 0x20 PUSH1 0x4 DUP3 ADD MSTORE PUSH1 0x29 PUSH1 0x24 DUP3 ADD MSTORE PUSH32 0x53706C69742050657263656E746167657320646F6573206E6F742073756D2075 PUSH1 0x44 DUP3 ADD MSTORE PUSH9 0x70746F203130302021 PUSH1 0xB8 SHL PUSH1 0x64 DUP3 ADD MSTORE PUSH1 0x84 ADD PUSH2 0x847 JUMP JUMPDEST DUP7 PUSH1 0x1 DUP10 DUP2 SLOAD DUP2 LT PUSH2 0x1182 JUMPI PUSH2 0x1182 PUSH2 0x337B JUMP JUMPDEST SWAP1 PUSH1 0x0 MSTORE PUSH1 0x20 PUSH1 0x0 KECCAK256 SWAP1 PUSH1 0x3 MUL ADD PUSH1 0x0 ADD PUSH1 0x0 PUSH2 0x100 EXP DUP2 SLOAD DUP2 PUSH4 0xFFFFFFFF MUL NOT AND SWAP1 DUP4 PUSH4 0xFFFFFFFF AND MUL OR SWAP1 SSTORE POP DUP6 PUSH1 0x1 DUP10 DUP2 SLOAD DUP2 LT PUSH2 0x11C5 JUMPI PUSH2 0x11C5 PUSH2 0x337B JUMP JUMPDEST SWAP1 PUSH1 0x0 MSTORE PUSH1 0x20 PUSH1 0x0 KECCAK256 SWAP1 PUSH1 0x3 MUL ADD PUSH1 0x0 ADD PUSH1 0x4 PUSH2 0x100 EXP DUP2 SLOAD DUP2 PUSH4 0xFFFFFFFF MUL NOT AND SWAP1 DUP4 PUSH4 0xFFFFFFFF AND MUL OR SWAP1 SSTORE POP DUP5 PUSH1 0x1 DUP10 DUP2 SLOAD DUP2 LT PUSH2 0x1208 JUMPI PUSH2 0x1208 PUSH2 0x337B JUMP JUMPDEST SWAP1 PUSH1 0x0 MSTORE PUSH1 0x20 PUSH1 0x0 KECCAK256 SWAP1 PUSH1 0x3 MUL ADD PUSH1 0x0 ADD PUSH1 0x8 PUSH2 0x100 EXP DUP2 SLOAD DUP2 PUSH4 0xFFFFFFFF MUL NOT AND SWAP1 DUP4 PUSH4 0xFFFFFFFF AND MUL OR SWAP1 SSTORE POP DUP4 PUSH1 0x1 DUP10 DUP2 SLOAD DUP2 LT PUSH2 0x124B JUMPI PUSH2 0x124B PUSH2 0x337B JUMP JUMPDEST SWAP1 PUSH1 0x0 MSTORE PUSH1 0x20 PUSH1 0x0 KECCAK256 SWAP1 PUSH1 0x3 MUL ADD PUSH1 0x0 ADD PUSH1 0xC PUSH2 0x100 EXP DUP2 SLOAD DUP2 PUSH4 0xFFFFFFFF MUL NOT AND SWAP1 DUP4 PUSH4 0xFFFFFFFF AND MUL OR SWAP1 SSTORE POP DUP3 PUSH1 0x1 DUP10 DUP2 SLOAD DUP2 LT PUSH2 0x128E JUMPI PUSH2 0x128E PUSH2 0x337B JUMP JUMPDEST SWAP1 PUSH1 0x0 MSTORE PUSH1 0x20 PUSH1 0x0 KECCAK256 SWAP1 PUSH1 0x3 MUL ADD PUSH1 0x0 ADD PUSH1 0x10 PUSH2 0x100 EXP DUP2 SLOAD DUP2 PUSH4 0xFFFFFFFF MUL NOT AND SWAP1 DUP4 PUSH4 0xFFFFFFFF AND MUL OR SWAP1 SSTORE POP DUP2 PUSH1 0x1 DUP10 DUP2 SLOAD DUP2 LT PUSH2 0x12D1 JUMPI PUSH2 0x12D1 PUSH2 0x337B JUMP JUMPDEST SWAP1 PUSH1 0x0 MSTORE PUSH1 0x20 PUSH1 0x0 KECCAK256 SWAP1 PUSH1 0x3 MUL ADD PUSH1 0x1 ADD PUSH1 0x0 PUSH2 0x100 EXP DUP2 SLOAD DUP2 PUSH1 0x1 PUSH1 0x1 PUSH1 0xA0 SHL SUB MUL NOT AND SWAP1 DUP4 PUSH1 0x1 PUSH1 0x1 PUSH1 0xA0 SHL SUB AND MUL OR SWAP1 SSTORE POP DUP1 PUSH1 0x1 DUP10 DUP2 SLOAD DUP2 LT PUSH2 0x131A JUMPI PUSH2 0x131A PUSH2 0x337B JUMP JUMPDEST SWAP1 PUSH1 0x0 MSTORE PUSH1 0x20 PUSH1 0x0 KECCAK256 SWAP1 PUSH1 0x3 MUL ADD PUSH1 0x2 ADD PUSH1 0x0 PUSH2 0x100 EXP DUP2 SLOAD DUP2 PUSH1 0x1 PUSH1 0x1 PUSH1 0xA0 SHL SUB MUL NOT AND SWAP1 DUP4 PUSH1 0x1 PUSH1 0x1 PUSH1 0xA0 SHL SUB AND MUL OR SWAP1 SSTORE POP DUP8 PUSH1 0x1 EQ ISZERO PUSH2 0x145B JUMPI PUSH1 0x1 DUP9 DUP2 SLOAD DUP2 LT PUSH2 0x136B JUMPI PUSH2 0x136B PUSH2 0x337B JUMP JUMPDEST PUSH1 0x0 SWAP2 DUP3 MSTORE PUSH1 0x20 SWAP1 SWAP2 KECCAK256 PUSH1 0x3 SWAP2 DUP3 MUL ADD DUP1 SLOAD PUSH1 0x2 DUP1 SLOAD PUSH4 0xFFFFFFFF NOT DUP2 AND PUSH4 0xFFFFFFFF SWAP4 DUP5 AND SWAP1 DUP2 OR DUP4 SSTORE DUP5 SLOAD PUSH5 0x100000000 SWAP1 DUP2 SWAP1 DIV DUP6 AND MUL PUSH8 0xFFFFFFFFFFFFFFFF NOT SWAP1 SWAP3 AND OR OR DUP1 DUP3 SSTORE DUP4 SLOAD PUSH1 0x1 PUSH1 0x40 SHL SWAP1 DUP2 SWAP1 DIV DUP5 AND MUL PUSH4 0xFFFFFFFF PUSH1 0x40 SHL NOT DUP3 AND DUP2 OR DUP4 SSTORE DUP5 SLOAD PUSH1 0x1 PUSH1 0x60 SHL SWAP1 DUP2 SWAP1 DIV DUP6 AND MUL PUSH4 0xFFFFFFFF PUSH1 0x60 SHL NOT SWAP1 SWAP2 AND PUSH8 0xFFFFFFFFFFFFFFFF PUSH1 0x40 SHL NOT SWAP1 SWAP3 AND SWAP2 SWAP1 SWAP2 OR OR DUP1 DUP3 SSTORE DUP4 SLOAD PUSH1 0x1 PUSH1 0x80 SHL SWAP1 DUP2 SWAP1 DIV SWAP1 SWAP4 AND SWAP1 SWAP3 MUL PUSH4 0xFFFFFFFF PUSH1 0x80 SHL NOT SWAP1 SWAP3 AND SWAP2 SWAP1 SWAP2 OR DUP2 SSTORE PUSH1 0x1 DUP3 ADD SLOAD DUP4 SLOAD PUSH1 0x1 PUSH1 0x1 PUSH1 0xA0 SHL SUB NOT SWAP1 DUP2 AND PUSH1 0x1 PUSH1 0x1 PUSH1 0xA0 SHL SUB SWAP3 DUP4 AND OR SWAP1 SWAP5 SSTORE SWAP2 ADD SLOAD PUSH1 0x4 DUP1 SLOAD SWAP1 SWAP4 AND SWAP2 AND OR SWAP1 SSTORE JUMPDEST POP POP POP POP POP POP POP POP JUMP JUMPDEST CALLER PUSH1 0x0 SWAP1 DUP2 MSTORE PUSH1 0x7 PUSH1 0x20 SWAP1 DUP2 MSTORE PUSH1 0x40 DUP1 DUP4 KECCAK256 PUSH1 0x1 PUSH1 0x1 PUSH1 0xA0 SHL SUB DUP7 AND DUP5 MSTORE SWAP1 SWAP2 MSTORE DUP2 KECCAK256 SLOAD DUP3 DUP2 LT ISZERO PUSH2 0x14E7 JUMPI PUSH1 0x40 MLOAD PUSH3 0x461BCD PUSH1 0xE5 SHL DUP2 MSTORE PUSH1 0x20 PUSH1 0x4 DUP3 ADD MSTORE PUSH1 0x25 PUSH1 0x24 DUP3 ADD MSTORE PUSH32 0x45524332303A2064656372656173656420616C6C6F77616E63652062656C6F77 PUSH1 0x44 DUP3 ADD MSTORE PUSH5 0x207A65726F PUSH1 0xD8 SHL PUSH1 0x64 DUP3 ADD MSTORE PUSH1 0x84 ADD PUSH2 0x847 JUMP JUMPDEST PUSH2 0x14F4 CALLER DUP6 DUP6 DUP5 SUB PUSH2 0x19B8 JUMP JUMPDEST POP PUSH1 0x1 SWAP4 SWAP3 POP POP POP JUMP JUMPDEST PUSH1 0x0 PUSH2 0x8D3 CALLER DUP5 DUP5 PUSH2 0x1ADC JUMP JUMPDEST PUSH1 0x0 SLOAD PUSH1 0x1 PUSH1 0x1 PUSH1 0xA0 SHL SUB AND CALLER EQ PUSH2 0x1535 JUMPI PUSH1 0x40 MLOAD PUSH3 0x461BCD PUSH1 0xE5 SHL DUP2 MSTORE PUSH1 0x4 ADD PUSH2 0x847 SWAP1 PUSH2 0x31F6 JUMP JUMPDEST PUSH1 0x1 PUSH1 0x1 PUSH1 0xA0 SHL SUB DUP3 AND PUSH1 0x0 SWAP1 DUP2 MSTORE PUSH1 0xB PUSH1 0x20 MSTORE PUSH1 0x40 SWAP1 KECCAK256 DUP1 SLOAD PUSH1 0xFF NOT AND DUP3 ISZERO DUP1 ISZERO SWAP2 SWAP1 SWAP2 OR SWAP1 SWAP2 SSTORE PUSH2 0x1578 JUMPI PUSH1 0x16 DUP1 SLOAD PUSH1 0xFF NOT AND PUSH1 0x1 OR SWAP1 SSTORE PUSH2 0xC15 DUP3 PUSH2 0xD41 JUMP JUMPDEST PUSH1 0x16 DUP1 SLOAD PUSH1 0xFF NOT AND SWAP1 SSTORE PUSH2 0xC15 DUP3 PUSH2 0xA62 JUMP JUMPDEST PUSH1 0x0 SLOAD PUSH1 0x1 PUSH1 0x1 PUSH1 0xA0 SHL SUB AND CALLER EQ PUSH2 0x15B5 JUMPI PUSH1 0x40 MLOAD PUSH3 0x461BCD PUSH1 0xE5 SHL DUP2 MSTORE PUSH1 0x4 ADD PUSH2 0x847 SWAP1 PUSH2 0x31F6 JUMP JUMPDEST PUSH2 0x3E8 PUSH2 0x15CE PUSH8 0x16345785D8A0000 PUSH4 0x3B9ACA00 PUSH2 0x32FE JUMP JUMPDEST PUSH2 0x15D8 SWAP2 SWAP1 PUSH2 0x32DC JUMP JUMPDEST DUP2 LT ISZERO PUSH2 0x163F JUMPI PUSH1 0x40 MLOAD PUSH3 0x461BCD PUSH1 0xE5 SHL DUP2 MSTORE PUSH1 0x20 PUSH1 0x4 DUP3 ADD MSTORE PUSH1 0x2F PUSH1 0x24 DUP3 ADD MSTORE PUSH32 0x4D617820486F6C6420616D74206D7573742062652061626F766520302E312520 PUSH1 0x44 DUP3 ADD MSTORE PUSH15 0x6F6620746F74616C20737570706C79 PUSH1 0x88 SHL PUSH1 0x64 DUP3 ADD MSTORE PUSH1 0x84 ADD PUSH2 0x847 JUMP JUMPDEST PUSH1 0xE SSTORE JUMP JUMPDEST PUSH1 0x0 SLOAD PUSH1 0x1 PUSH1 0x1 PUSH1 0xA0 SHL SUB AND CALLER EQ PUSH2 0x166E JUMPI PUSH1 0x40 MLOAD PUSH3 0x461BCD PUSH1 0xE5 SHL DUP2 MSTORE PUSH1 0x4 ADD PUSH2 0x847 SWAP1 PUSH2 0x31F6 JUMP JUMPDEST PUSH1 0x1 PUSH1 0x1 PUSH1 0xA0 SHL SUB SWAP2 SWAP1 SWAP2 AND PUSH1 0x0 SWAP1 DUP2 MSTORE PUSH1 0xC PUSH1 0x20 MSTORE PUSH1 0x40 SWAP1 KECCAK256 DUP1 SLOAD PUSH1 0xFF NOT AND SWAP2 ISZERO ISZERO SWAP2 SWAP1 SWAP2 OR SWAP1 SSTORE JUMP JUMPDEST PUSH1 0x0 SLOAD PUSH1 0x1 PUSH1 0x1 PUSH1 0xA0 SHL SUB AND CALLER EQ PUSH2 0x16C3 JUMPI PUSH1 0x40 MLOAD PUSH3 0x461BCD PUSH1 0xE5 SHL DUP2 MSTORE PUSH1 0x4 ADD PUSH2 0x847 SWAP1 PUSH2 0x31F6 JUMP JUMPDEST PUSH1 0x1 PUSH1 0x1 PUSH1 0xA0 SHL SUB AND PUSH1 0x0 SWAP1 DUP2 MSTORE PUSH1 0xA PUSH1 0x20 MSTORE PUSH1 0x40 SWAP1 KECCAK256 DUP1 SLOAD PUSH1 0xFF NOT AND SWAP1 SSTORE JUMP JUMPDEST PUSH1 0x0 SLOAD PUSH1 0x1 PUSH1 0x1 PUSH1 0xA0 SHL SUB AND CALLER EQ PUSH2 0x170E JUMPI PUSH1 0x40 MLOAD PUSH3 0x461BCD PUSH1 0xE5 SHL DUP2 MSTORE PUSH1 0x4 ADD PUSH2 0x847 SWAP1 PUSH2 0x31F6 JUMP JUMPDEST PUSH2 0x3E8 PUSH2 0x1727 PUSH8 0x16345785D8A0000 PUSH4 0x3B9ACA00 PUSH2 0x32FE JUMP JUMPDEST PUSH2 0x1731 SWAP2 SWAP1 PUSH2 0x32DC JUMP JUMPDEST DUP2 LT ISZERO PUSH2 0x179F JUMPI PUSH1 0x40 MLOAD PUSH3 0x461BCD PUSH1 0xE5 SHL DUP2 MSTORE PUSH1 0x20 PUSH1 0x4 DUP3 ADD MSTORE PUSH1 0x36 PUSH1 0x24 DUP3 ADD MSTORE PUSH32 0x4D6178205472616E73616374696F6E20616D74206D7573742062652061626F76 PUSH1 0x44 DUP3 ADD MSTORE PUSH22 0x6520302E3125206F6620746F74616C20737570706C79 PUSH1 0x50 SHL PUSH1 0x64 DUP3 ADD MSTORE PUSH1 0x84 ADD PUSH2 0x847 JUMP JUMPDEST PUSH1 0xD SSTORE JUMP JUMPDEST PUSH1 0x0 SLOAD PUSH1 0x1 PUSH1 0x1 PUSH1 0xA0 SHL SUB AND CALLER EQ PUSH2 0x17CE JUMPI PUSH1 0x40 MLOAD PUSH3 0x461BCD PUSH1 0xE5 SHL DUP2 MSTORE PUSH1 0x4 ADD PUSH2 0x847 SWAP1 PUSH2 0x31F6 JUMP JUMPDEST PUSH1 0x1 PUSH1 0x1 PUSH1 0xA0 SHL SUB DUP2 AND PUSH2 0x1833 JUMPI PUSH1 0x40 MLOAD PUSH3 0x461BCD PUSH1 0xE5 SHL DUP2 MSTORE PUSH1 0x20 PUSH1 0x4 DUP3 ADD MSTORE PUSH1 0x26 PUSH1 0x24 DUP3 ADD MSTORE PUSH32 0x4F776E61626C653A206E6577206F776E657220697320746865207A65726F2061 PUSH1 0x44 DUP3 ADD MSTORE PUSH6 0x646472657373 PUSH1 0xD0 SHL PUSH1 0x64 DUP3 ADD MSTORE PUSH1 0x84 ADD PUSH2 0x847 JUMP JUMPDEST PUSH2 0x183C DUP2 PUSH2 0x2732 JUMP JUMPDEST POP JUMP JUMPDEST PUSH1 0x0 DUP1 PUSH1 0x0 DUP1 PUSH1 0x0 PUSH1 0x1 DUP1 DUP2 SLOAD DUP2 LT PUSH2 0x185A JUMPI PUSH2 0x185A PUSH2 0x337B JUMP JUMPDEST PUSH1 0x0 SWAP2 DUP3 MSTORE PUSH1 0x20 SWAP1 SWAP2 KECCAK256 PUSH1 0x3 SWAP1 SWAP2 MUL ADD SLOAD PUSH1 0x1 DUP1 SLOAD PUSH4 0xFFFFFFFF SWAP1 SWAP3 AND SWAP2 DUP2 SWAP1 DUP2 LT PUSH2 0x1888 JUMPI PUSH2 0x1888 PUSH2 0x337B JUMP JUMPDEST SWAP1 PUSH1 0x0 MSTORE PUSH1 0x20 PUSH1 0x0 KECCAK256 SWAP1 PUSH1 0x3 MUL ADD PUSH1 0x0 ADD PUSH1 0x4 SWAP1 SLOAD SWAP1 PUSH2 0x100 EXP SWAP1 DIV PUSH4 0xFFFFFFFF AND PUSH1 0x1 DUP1 DUP2 SLOAD DUP2 LT PUSH2 0x18BD JUMPI PUSH2 0x18BD PUSH2 0x337B JUMP JUMPDEST SWAP1 PUSH1 0x0 MSTORE PUSH1 0x20 PUSH1 0x0 KECCAK256 SWAP1 PUSH1 0x3 MUL ADD PUSH1 0x0 ADD PUSH1 0x8 SWAP1 SLOAD SWAP1 PUSH2 0x100 EXP SWAP1 DIV PUSH4 0xFFFFFFFF AND PUSH1 0x1 DUP1 DUP2 SLOAD DUP2 LT PUSH2 0x18F2 JUMPI PUSH2 0x18F2 PUSH2 0x337B JUMP JUMPDEST SWAP1 PUSH1 0x0 MSTORE PUSH1 0x20 PUSH1 0x0 KECCAK256 SWAP1 PUSH1 0x3 MUL ADD PUSH1 0x0 ADD PUSH1 0xC SWAP1 SLOAD SWAP1 PUSH2 0x100 EXP SWAP1 DIV PUSH4 0xFFFFFFFF AND PUSH1 0x1 DUP1 DUP2 SLOAD DUP2 LT PUSH2 0x1012 JUMPI PUSH2 0x1012 PUSH2 0x337B JUMP JUMPDEST PUSH1 0x0 DUP1 PUSH2 0x1955 PUSH1 0x40 MLOAD DUP1 PUSH1 0x80 ADD PUSH1 0x40 MSTORE DUP1 PUSH1 0x0 DUP2 MSTORE PUSH1 0x20 ADD PUSH1 0x0 DUP2 MSTORE PUSH1 0x20 ADD PUSH1 0x0 DUP2 MSTORE PUSH1 0x20 ADD PUSH1 0x0 DUP2 MSTORE POP SWAP1 JUMP JUMPDEST PUSH1 0x0 PUSH2 0x1982 PUSH1 0x40 MLOAD DUP1 PUSH1 0x80 ADD PUSH1 0x40 MSTORE DUP1 PUSH1 0x0 DUP2 MSTORE PUSH1 0x20 ADD PUSH1 0x0 DUP2 MSTORE PUSH1 0x20 ADD PUSH1 0x0 DUP2 MSTORE PUSH1 0x20 ADD PUSH1 0x0 DUP2 MSTORE POP SWAP1 JUMP JUMPDEST PUSH2 0x198B DUP7 PUSH2 0x2782 JUMP JUMPDEST SWAP1 SWAP3 POP SWAP1 POP PUSH1 0x0 PUSH2 0x199A PUSH2 0x270F JUMP JUMPDEST SWAP1 POP PUSH2 0x19A7 DUP8 DUP4 DUP4 PUSH2 0x2907 JUMP JUMPDEST SWAP2 SWAP8 POP SWAP6 POP SWAP4 POP POP SWAP2 SWAP4 SWAP6 SWAP1 SWAP3 SWAP5 POP JUMP JUMPDEST PUSH1 0x1 PUSH1 0x1 PUSH1 0xA0 SHL SUB DUP4 AND PUSH2 0x1A1A JUMPI PUSH1 0x40 MLOAD PUSH3 0x461BCD PUSH1 0xE5 SHL DUP2 MSTORE PUSH1 0x20 PUSH1 0x4 DUP3 ADD MSTORE PUSH1 0x24 DUP1 DUP3 ADD MSTORE PUSH32 0x45524332303A20617070726F76652066726F6D20746865207A65726F20616464 PUSH1 0x44 DUP3 ADD MSTORE PUSH4 0x72657373 PUSH1 0xE0 SHL PUSH1 0x64 DUP3 ADD MSTORE PUSH1 0x84 ADD PUSH2 0x847 JUMP JUMPDEST PUSH1 0x1 PUSH1 0x1 PUSH1 0xA0 SHL SUB DUP3 AND PUSH2 0x1A7B JUMPI PUSH1 0x40 MLOAD PUSH3 0x461BCD PUSH1 0xE5 SHL DUP2 MSTORE PUSH1 0x20 PUSH1 0x4 DUP3 ADD MSTORE PUSH1 0x22 PUSH1 0x24 DUP3 ADD MSTORE PUSH32 0x45524332303A20617070726F766520746F20746865207A65726F206164647265 PUSH1 0x44 DUP3 ADD MSTORE PUSH2 0x7373 PUSH1 0xF0 SHL PUSH1 0x64 DUP3 ADD MSTORE PUSH1 0x84 ADD PUSH2 0x847 JUMP JUMPDEST PUSH1 0x1 PUSH1 0x1 PUSH1 0xA0 SHL SUB DUP4 DUP2 AND PUSH1 0x0 DUP2 DUP2 MSTORE PUSH1 0x7 PUSH1 0x20 SWAP1 DUP2 MSTORE PUSH1 0x40 DUP1 DUP4 KECCAK256 SWAP5 DUP8 AND DUP1 DUP5 MSTORE SWAP5 DUP3 MSTORE SWAP2 DUP3 SWAP1 KECCAK256 DUP6 SWAP1 SSTORE SWAP1 MLOAD DUP5 DUP2 MSTORE PUSH32 0x8C5BE1E5EBEC7D5BD14F71427D1E84F3DD0314C0F7B2291E5B200AC8C7C3B925 SWAP2 ADD PUSH1 0x40 MLOAD DUP1 SWAP2 SUB SWAP1 LOG3 POP POP POP JUMP JUMPDEST PUSH1 0x1 PUSH1 0x1 PUSH1 0xA0 SHL SUB DUP4 AND PUSH2 0x1B40 JUMPI PUSH1 0x40 MLOAD PUSH3 0x461BCD PUSH1 0xE5 SHL DUP2 MSTORE PUSH1 0x20 PUSH1 0x4 DUP3 ADD MSTORE PUSH1 0x25 PUSH1 0x24 DUP3 ADD MSTORE PUSH32 0x45524332303A207472616E736665722066726F6D20746865207A65726F206164 PUSH1 0x44 DUP3 ADD MSTORE PUSH5 0x6472657373 PUSH1 0xD8 SHL PUSH1 0x64 DUP3 ADD MSTORE PUSH1 0x84 ADD PUSH2 0x847 JUMP JUMPDEST PUSH1 0x1 PUSH1 0x1 PUSH1 0xA0 SHL SUB DUP3 AND PUSH2 0x1BA2 JUMPI PUSH1 0x40 MLOAD PUSH3 0x461BCD PUSH1 0xE5 SHL DUP2 MSTORE PUSH1 0x20 PUSH1 0x4 DUP3 ADD MSTORE PUSH1 0x23 PUSH1 0x24 DUP3 ADD MSTORE PUSH32 0x45524332303A207472616E7366657220746F20746865207A65726F2061646472 PUSH1 0x44 DUP3 ADD MSTORE PUSH3 0x657373 PUSH1 0xE8 SHL PUSH1 0x64 DUP3 ADD MSTORE PUSH1 0x84 ADD PUSH2 0x847 JUMP JUMPDEST PUSH1 0xF SLOAD PUSH1 0xFF AND ISZERO DUP1 PUSH2 0x1BBB JUMPI POP PUSH2 0x1BB9 DUP4 DUP4 PUSH2 0x2A09 JUMP JUMPDEST ISZERO JUMPDEST PUSH2 0x1C18 JUMPI PUSH1 0x40 MLOAD PUSH3 0x461BCD PUSH1 0xE5 SHL DUP2 MSTORE PUSH1 0x20 PUSH1 0x4 DUP3 ADD MSTORE PUSH1 0x28 PUSH1 0x24 DUP3 ADD MSTORE PUSH32 0x546F6B656E206973204C6F636B656420666F72204C6971756964747920746F20 PUSH1 0x44 DUP3 ADD MSTORE PUSH8 0x1899481859191959 PUSH1 0xC2 SHL PUSH1 0x64 DUP3 ADD MSTORE PUSH1 0x84 ADD PUSH2 0x847 JUMP JUMPDEST PUSH1 0x16 SLOAD PUSH2 0x100 SWAP1 DIV PUSH1 0xFF AND ISZERO DUP1 ISZERO PUSH2 0x1C35 JUMPI POP PUSH2 0x1C35 DUP4 DUP4 PUSH2 0x2A09 JUMP JUMPDEST ISZERO PUSH2 0x1D93 JUMPI PUSH1 0xD SLOAD DUP2 GT ISZERO PUSH2 0x1C9C JUMPI PUSH1 0x40 MLOAD PUSH3 0x461BCD PUSH1 0xE5 SHL DUP2 MSTORE PUSH1 0x20 PUSH1 0x4 DUP3 ADD MSTORE PUSH1 0x27 PUSH1 0x24 DUP3 ADD MSTORE PUSH32 0x5472616E7366657220616D6F756E74206578636565647320746865206D617854 PUSH1 0x44 DUP3 ADD MSTORE PUSH7 0x1E105B5BDD5B9D PUSH1 0xCA SHL PUSH1 0x64 DUP3 ADD MSTORE PUSH1 0x84 ADD PUSH2 0x847 JUMP JUMPDEST PUSH1 0x1 PUSH1 0x1 PUSH1 0xA0 SHL SUB DUP4 AND PUSH1 0x0 SWAP1 DUP2 MSTORE PUSH1 0xC PUSH1 0x20 MSTORE PUSH1 0x40 SWAP1 KECCAK256 SLOAD PUSH1 0xFF AND ISZERO DUP1 PUSH2 0x1CDD JUMPI POP PUSH1 0x1 PUSH1 0x1 PUSH1 0xA0 SHL SUB DUP3 AND PUSH1 0x0 SWAP1 DUP2 MSTORE PUSH1 0xC PUSH1 0x20 MSTORE PUSH1 0x40 SWAP1 KECCAK256 SLOAD PUSH1 0xFF AND ISZERO JUMPDEST PUSH2 0x1D1B JUMPI PUSH1 0x40 MLOAD PUSH3 0x461BCD PUSH1 0xE5 SHL DUP2 MSTORE PUSH1 0x20 PUSH1 0x4 DUP3 ADD MSTORE PUSH1 0xF PUSH1 0x24 DUP3 ADD MSTORE PUSH15 0x14DB9A5C195C8814995A9958DD1959 PUSH1 0x8A SHL PUSH1 0x44 DUP3 ADD MSTORE PUSH1 0x64 ADD PUSH2 0x847 JUMP JUMPDEST PUSH1 0xE SLOAD DUP2 PUSH2 0x1D28 DUP5 PUSH2 0xE94 JUMP JUMPDEST PUSH2 0x1D32 SWAP2 SWAP1 PUSH2 0x329C JUMP JUMPDEST GT ISZERO PUSH2 0x1D93 JUMPI PUSH1 0x40 MLOAD PUSH3 0x461BCD PUSH1 0xE5 SHL DUP2 MSTORE PUSH1 0x20 PUSH1 0x4 DUP3 ADD MSTORE PUSH1 0x2A PUSH1 0x24 DUP3 ADD MSTORE PUSH32 0x52656365697665722061646472657373206578636565647320746865206D6178 PUSH1 0x44 DUP3 ADD MSTORE PUSH10 0x121BDB19105B5BDD5B9D PUSH1 0xB2 SHL PUSH1 0x64 DUP3 ADD MSTORE PUSH1 0x84 ADD PUSH2 0x847 JUMP JUMPDEST PUSH1 0x16 SLOAD PUSH2 0x100 SWAP1 DIV PUSH1 0xFF AND DUP1 PUSH2 0x1DC1 JUMPI POP PUSH1 0x1 PUSH1 0x1 PUSH1 0xA0 SHL SUB DUP4 AND PUSH1 0x0 SWAP1 DUP2 MSTORE PUSH1 0xA PUSH1 0x20 MSTORE PUSH1 0x40 SWAP1 KECCAK256 SLOAD PUSH1 0xFF AND JUMPDEST DUP1 PUSH2 0x1DE4 JUMPI POP PUSH1 0x1 PUSH1 0x1 PUSH1 0xA0 SHL SUB DUP3 AND PUSH1 0x0 SWAP1 DUP2 MSTORE PUSH1 0xA PUSH1 0x20 MSTORE PUSH1 0x40 SWAP1 KECCAK256 SLOAD PUSH1 0xFF AND JUMPDEST ISZERO PUSH2 0x1F66 JUMPI PUSH1 0x0 PUSH2 0x1DF3 PUSH2 0x270F JUMP JUMPDEST PUSH2 0x1DFD SWAP1 DUP4 PUSH2 0x32FE JUMP JUMPDEST PUSH1 0x1 PUSH1 0x1 PUSH1 0xA0 SHL SUB DUP6 AND PUSH1 0x0 SWAP1 DUP2 MSTORE PUSH1 0x5 PUSH1 0x20 MSTORE PUSH1 0x40 SWAP1 KECCAK256 SLOAD SWAP1 SWAP2 POP PUSH2 0x1E24 SWAP1 DUP3 SWAP1 PUSH2 0x331D JUMP JUMPDEST PUSH1 0x1 PUSH1 0x1 PUSH1 0xA0 SHL SUB DUP1 DUP7 AND PUSH1 0x0 SWAP1 DUP2 MSTORE PUSH1 0x5 PUSH1 0x20 MSTORE PUSH1 0x40 DUP1 DUP3 KECCAK256 SWAP4 SWAP1 SWAP4 SSTORE SWAP1 DUP6 AND DUP2 MSTORE KECCAK256 SLOAD PUSH2 0x1E54 SWAP1 DUP3 SWAP1 PUSH2 0x329C JUMP JUMPDEST PUSH1 0x1 PUSH1 0x1 PUSH1 0xA0 SHL SUB DUP1 DUP6 AND PUSH1 0x0 SWAP1 DUP2 MSTORE PUSH1 0x5 PUSH1 0x20 SWAP1 DUP2 MSTORE PUSH1 0x40 DUP1 DUP4 KECCAK256 SWAP5 SWAP1 SWAP5 SSTORE SWAP2 DUP8 AND DUP2 MSTORE PUSH1 0x8 SWAP1 SWAP2 MSTORE KECCAK256 SLOAD PUSH1 0xFF AND ISZERO PUSH2 0x1EC6 JUMPI PUSH1 0x1 PUSH1 0x1 PUSH1 0xA0 SHL SUB DUP5 AND PUSH1 0x0 SWAP1 DUP2 MSTORE PUSH1 0x6 PUSH1 0x20 MSTORE PUSH1 0x40 SWAP1 KECCAK256 SLOAD PUSH2 0x1EAC SWAP1 DUP4 SWAP1 PUSH2 0x331D JUMP JUMPDEST PUSH1 0x1 PUSH1 0x1 PUSH1 0xA0 SHL SUB DUP6 AND PUSH1 0x0 SWAP1 DUP2 MSTORE PUSH1 0x6 PUSH1 0x20 MSTORE PUSH1 0x40 SWAP1 KECCAK256 SSTORE JUMPDEST PUSH1 0x1 PUSH1 0x1 PUSH1 0xA0 SHL SUB DUP4 AND PUSH1 0x0 SWAP1 DUP2 MSTORE PUSH1 0x8 PUSH1 0x20 MSTORE PUSH1 0x40 SWAP1 KECCAK256 SLOAD PUSH1 0xFF AND ISZERO PUSH2 0x1F25 JUMPI PUSH1 0x1 PUSH1 0x1 PUSH1 0xA0 SHL SUB DUP4 AND PUSH1 0x0 SWAP1 DUP2 MSTORE PUSH1 0x6 PUSH1 0x20 MSTORE PUSH1 0x40 SWAP1 KECCAK256 SLOAD PUSH2 0x1F0B SWAP1 DUP4 SWAP1 PUSH2 0x329C JUMP JUMPDEST PUSH1 0x1 PUSH1 0x1 PUSH1 0xA0 SHL SUB DUP5 AND PUSH1 0x0 SWAP1 DUP2 MSTORE PUSH1 0x6 PUSH1 0x20 MSTORE PUSH1 0x40 SWAP1 KECCAK256 SSTORE JUMPDEST DUP3 PUSH1 0x1 PUSH1 0x1 PUSH1 0xA0 SHL SUB AND DUP5 PUSH1 0x1 PUSH1 0x1 PUSH1 0xA0 SHL SUB AND PUSH1 0x0 DUP1 MLOAD PUSH1 0x20 PUSH2 0x33BD DUP4 CODECOPY DUP2 MLOAD SWAP2 MSTORE DUP5 PUSH1 0x40 MLOAD PUSH2 0x1F58 SWAP2 DUP2 MSTORE PUSH1 0x20 ADD SWAP1 JUMP JUMPDEST PUSH1 0x40 MLOAD DUP1 SWAP2 SUB SWAP1 LOG3 POP POP POP POP JUMP JUMPDEST PUSH1 0x1 PUSH1 0x1 PUSH1 0xA0 SHL SUB DUP4 AND PUSH1 0x0 SWAP1 DUP2 MSTORE PUSH1 0xB PUSH1 0x20 MSTORE PUSH1 0x40 SWAP1 KECCAK256 SLOAD PUSH1 0xFF AND ISZERO PUSH2 0x208B JUMPI PUSH1 0x1 PUSH1 0x0 DUP2 SLOAD DUP2 LT PUSH2 0x1F9B JUMPI PUSH2 0x1F9B PUSH2 0x337B JUMP JUMPDEST PUSH1 0x0 SWAP2 DUP3 MSTORE PUSH1 0x20 SWAP1 SWAP2 KECCAK256 PUSH1 0x3 SWAP2 DUP3 MUL ADD DUP1 SLOAD PUSH1 0x2 DUP1 SLOAD PUSH4 0xFFFFFFFF NOT DUP2 AND PUSH4 0xFFFFFFFF SWAP4 DUP5 AND SWAP1 DUP2 OR DUP4 SSTORE DUP5 SLOAD PUSH5 0x100000000 SWAP1 DUP2 SWAP1 DIV DUP6 AND MUL PUSH8 0xFFFFFFFFFFFFFFFF NOT SWAP1 SWAP3 AND OR OR DUP1 DUP3 SSTORE DUP4 SLOAD PUSH1 0x1 PUSH1 0x40 SHL SWAP1 DUP2 SWAP1 DIV DUP5 AND MUL PUSH4 0xFFFFFFFF PUSH1 0x40 SHL NOT DUP3 AND DUP2 OR DUP4 SSTORE DUP5 SLOAD PUSH1 0x1 PUSH1 0x60 SHL SWAP1 DUP2 SWAP1 DIV DUP6 AND MUL PUSH4 0xFFFFFFFF PUSH1 0x60 SHL NOT SWAP1 SWAP2 AND PUSH8 0xFFFFFFFFFFFFFFFF PUSH1 0x40 SHL NOT SWAP1 SWAP3 AND SWAP2 SWAP1 SWAP2 OR OR DUP1 DUP3 SSTORE DUP4 SLOAD PUSH1 0x1 PUSH1 0x80 SHL SWAP1 DUP2 SWAP1 DIV SWAP1 SWAP4 AND SWAP1 SWAP3 MUL PUSH4 0xFFFFFFFF PUSH1 0x80 SHL NOT SWAP1 SWAP3 AND SWAP2 SWAP1 SWAP2 OR DUP2 SSTORE PUSH1 0x1 DUP3 ADD SLOAD DUP4 SLOAD PUSH1 0x1 PUSH1 0x1 PUSH1 0xA0 SHL SUB NOT SWAP1 DUP2 AND PUSH1 0x1 PUSH1 0x1 PUSH1 0xA0 SHL SUB SWAP3 DUP4 AND OR SWAP1 SWAP5 SSTORE SWAP2 ADD SLOAD PUSH1 0x4 DUP1 SLOAD SWAP1 SWAP4 AND SWAP2 AND OR SWAP1 SSTORE JUMPDEST PUSH1 0x2 SLOAD PUSH4 0xFFFFFFFF AND ISZERO PUSH2 0x2709 JUMPI PUSH1 0x0 DUP1 PUSH1 0x0 DUP1 PUSH1 0x0 PUSH2 0x20AA DUP7 PUSH2 0x1927 JUMP JUMPDEST PUSH1 0x1 PUSH1 0x1 PUSH1 0xA0 SHL SUB DUP14 AND PUSH1 0x0 SWAP1 DUP2 MSTORE PUSH1 0xB PUSH1 0x20 MSTORE PUSH1 0x40 SWAP1 KECCAK256 SLOAD SWAP5 SWAP10 POP SWAP3 SWAP8 POP SWAP1 SWAP6 POP SWAP4 POP SWAP2 POP PUSH1 0xFF AND ISZERO PUSH2 0x21DC JUMPI PUSH1 0x1 PUSH1 0x0 DUP2 SLOAD DUP2 LT PUSH2 0x20EC JUMPI PUSH2 0x20EC PUSH2 0x337B JUMP JUMPDEST PUSH1 0x0 SWAP2 DUP3 MSTORE PUSH1 0x20 SWAP1 SWAP2 KECCAK256 PUSH1 0x3 SWAP2 DUP3 MUL ADD DUP1 SLOAD PUSH1 0x2 DUP1 SLOAD PUSH4 0xFFFFFFFF NOT DUP2 AND PUSH4 0xFFFFFFFF SWAP4 DUP5 AND SWAP1 DUP2 OR DUP4 SSTORE DUP5 SLOAD PUSH5 0x100000000 SWAP1 DUP2 SWAP1 DIV DUP6 AND MUL PUSH8 0xFFFFFFFFFFFFFFFF NOT SWAP1 SWAP3 AND OR OR DUP1 DUP3 SSTORE DUP4 SLOAD PUSH1 0x1 PUSH1 0x40 SHL SWAP1 DUP2 SWAP1 DIV DUP5 AND MUL PUSH4 0xFFFFFFFF PUSH1 0x40 SHL NOT DUP3 AND DUP2 OR DUP4 SSTORE DUP5 SLOAD PUSH1 0x1 PUSH1 0x60 SHL SWAP1 DUP2 SWAP1 DIV DUP6 AND MUL PUSH4 0xFFFFFFFF PUSH1 0x60 SHL NOT SWAP1 SWAP2 AND PUSH8 0xFFFFFFFFFFFFFFFF PUSH1 0x40 SHL NOT SWAP1 SWAP3 AND SWAP2 SWAP1 SWAP2 OR OR DUP1 DUP3 SSTORE DUP4 SLOAD PUSH1 0x1 PUSH1 0x80 SHL SWAP1 DUP2 SWAP1 DIV SWAP1 SWAP4 AND SWAP1 SWAP3 MUL PUSH4 0xFFFFFFFF PUSH1 0x80 SHL NOT SWAP1 SWAP3 AND SWAP2 SWAP1 SWAP2 OR DUP2 SSTORE PUSH1 0x1 DUP3 ADD SLOAD DUP4 SLOAD PUSH1 0x1 PUSH1 0x1 PUSH1 0xA0 SHL SUB NOT SWAP1 DUP2 AND PUSH1 0x1 PUSH1 0x1 PUSH1 0xA0 SHL SUB SWAP3 DUP4 AND OR SWAP1 SWAP5 SSTORE SWAP2 ADD SLOAD PUSH1 0x4 DUP1 SLOAD SWAP1 SWAP4 AND SWAP2 AND OR SWAP1 SSTORE JUMPDEST PUSH1 0x1 PUSH1 0x1 PUSH1 0xA0 SHL SUB DUP9 AND PUSH1 0x0 SWAP1 DUP2 MSTORE PUSH1 0x5 PUSH1 0x20 MSTORE PUSH1 0x40 SWAP1 KECCAK256 SLOAD PUSH2 0x2200 SWAP1 DUP7 SWAP1 PUSH2 0x331D JUMP JUMPDEST PUSH1 0x1 PUSH1 0x1 PUSH1 0xA0 SHL SUB DUP1 DUP11 AND PUSH1 0x0 SWAP1 DUP2 MSTORE PUSH1 0x5 PUSH1 0x20 MSTORE PUSH1 0x40 DUP1 DUP3 KECCAK256 SWAP4 SWAP1 SWAP4 SSTORE SWAP1 DUP10 AND DUP2 MSTORE KECCAK256 SLOAD PUSH2 0x2230 SWAP1 DUP6 SWAP1 PUSH2 0x329C JUMP JUMPDEST PUSH1 0x1 PUSH1 0x1 PUSH1 0xA0 SHL SUB DUP9 AND PUSH1 0x0 SWAP1 DUP2 MSTORE PUSH1 0x5 PUSH1 0x20 MSTORE PUSH1 0x40 DUP2 KECCAK256 SWAP2 SWAP1 SWAP2 SSTORE DUP4 MLOAD PUSH2 0xDEAD DUP3 MSTORE PUSH32 0x7D509C07F0D4EDCC2DD1B53AAE68677132EB562DCBA78E36381B63CCAF66E6BA DUP1 SLOAD SWAP2 SWAP3 SWAP1 SWAP2 PUSH2 0x2285 SWAP1 DUP5 SWAP1 PUSH2 0x329C JUMP JUMPDEST SWAP1 SWAP2 SSTORE POP POP PUSH1 0x1 PUSH1 0x1 PUSH1 0xA0 SHL SUB DUP9 AND PUSH1 0x0 SWAP1 DUP2 MSTORE PUSH1 0x8 PUSH1 0x20 MSTORE PUSH1 0x40 SWAP1 KECCAK256 SLOAD PUSH1 0xFF AND ISZERO PUSH2 0x22E9 JUMPI PUSH1 0x1 PUSH1 0x1 PUSH1 0xA0 SHL SUB DUP9 AND PUSH1 0x0 SWAP1 DUP2 MSTORE PUSH1 0x6 PUSH1 0x20 MSTORE PUSH1 0x40 SWAP1 KECCAK256 SLOAD PUSH2 0x22CF SWAP1 DUP8 SWAP1 PUSH2 0x331D JUMP JUMPDEST PUSH1 0x1 PUSH1 0x1 PUSH1 0xA0 SHL SUB DUP10 AND PUSH1 0x0 SWAP1 DUP2 MSTORE PUSH1 0x6 PUSH1 0x20 MSTORE PUSH1 0x40 SWAP1 KECCAK256 SSTORE JUMPDEST PUSH1 0x1 PUSH1 0x1 PUSH1 0xA0 SHL SUB DUP8 AND PUSH1 0x0 SWAP1 DUP2 MSTORE PUSH1 0x8 PUSH1 0x20 MSTORE PUSH1 0x40 SWAP1 KECCAK256 SLOAD PUSH1 0xFF AND ISZERO PUSH2 0x2348 JUMPI PUSH1 0x1 PUSH1 0x1 PUSH1 0xA0 SHL SUB DUP8 AND PUSH1 0x0 SWAP1 DUP2 MSTORE PUSH1 0x6 PUSH1 0x20 MSTORE PUSH1 0x40 SWAP1 KECCAK256 SLOAD PUSH2 0x232E SWAP1 DUP4 SWAP1 PUSH2 0x329C JUMP JUMPDEST PUSH1 0x1 PUSH1 0x1 PUSH1 0xA0 SHL SUB DUP9 AND PUSH1 0x0 SWAP1 DUP2 MSTORE PUSH1 0x6 PUSH1 0x20 MSTORE PUSH1 0x40 SWAP1 KECCAK256 SSTORE JUMPDEST PUSH2 0xDEAD PUSH1 0x0 MSTORE PUSH1 0x8 PUSH1 0x20 MSTORE PUSH32 0x46FEE3D77C34A6C5E10C3BE6DC4B132C30449DBF4F0BC07684896DD09334299 SLOAD PUSH1 0xFF AND ISZERO PUSH2 0x23C3 JUMPI DUP1 MLOAD PUSH2 0xDEAD PUSH1 0x0 SWAP1 DUP2 MSTORE PUSH1 0x6 PUSH1 0x20 MSTORE PUSH32 0x1AECBA4EBE7A4E0673E4891B2B092B2228E4322380B579FB494FAD3DA8586E22 DUP1 SLOAD SWAP1 SWAP2 SWAP1 PUSH2 0x23BD SWAP1 DUP5 SWAP1 PUSH2 0x329C JUMP JUMPDEST SWAP1 SWAP2 SSTORE POP POP JUMPDEST PUSH1 0x16 SLOAD PUSH1 0xFF AND DUP1 ISZERO PUSH2 0x23DD JUMPI POP PUSH1 0x16 SLOAD PUSH2 0x100 SWAP1 DIV PUSH1 0xFF AND ISZERO JUMPDEST ISZERO PUSH2 0x24C5 JUMPI DUP3 PUSH1 0x40 ADD MLOAD DUP4 PUSH1 0x20 ADD MLOAD PUSH2 0x23F6 SWAP2 SWAP1 PUSH2 0x329C JUMP JUMPDEST ADDRESS PUSH1 0x0 SWAP1 DUP2 MSTORE PUSH1 0x5 PUSH1 0x20 MSTORE PUSH1 0x40 DUP2 KECCAK256 DUP1 SLOAD SWAP1 SWAP2 SWAP1 PUSH2 0x2415 SWAP1 DUP5 SWAP1 PUSH2 0x329C JUMP JUMPDEST SWAP1 SWAP2 SSTORE POP POP PUSH1 0x40 DUP2 ADD MLOAD PUSH1 0x20 DUP3 ADD MLOAD PUSH2 0x242E SWAP2 SWAP1 PUSH2 0x329C JUMP JUMPDEST ADDRESS PUSH1 0x0 SWAP1 DUP2 MSTORE PUSH1 0x6 PUSH1 0x20 MSTORE PUSH1 0x40 DUP2 KECCAK256 DUP1 SLOAD SWAP1 SWAP2 SWAP1 PUSH2 0x244D SWAP1 DUP5 SWAP1 PUSH2 0x329C JUMP JUMPDEST SWAP1 SWAP2 SSTORE POP POP PUSH1 0x40 DUP2 ADD MLOAD PUSH1 0x20 DUP3 ADD MLOAD ADDRESS SWAP2 PUSH1 0x1 PUSH1 0x1 PUSH1 0xA0 SHL SUB DUP12 AND SWAP2 PUSH1 0x0 DUP1 MLOAD PUSH1 0x20 PUSH2 0x33BD DUP4 CODECOPY DUP2 MLOAD SWAP2 MSTORE SWAP2 PUSH2 0x2482 SWAP2 PUSH2 0x329C JUMP JUMPDEST PUSH1 0x40 MLOAD SWAP1 DUP2 MSTORE PUSH1 0x20 ADD PUSH1 0x40 MLOAD DUP1 SWAP2 SUB SWAP1 LOG3 PUSH2 0x24AF DUP2 PUSH1 0x40 ADD MLOAD DUP3 PUSH1 0x20 ADD MLOAD PUSH2 0x24AA SWAP2 SWAP1 PUSH2 0x329C JUMP JUMPDEST PUSH2 0x2A53 JUMP JUMPDEST SELFBALANCE DUP1 ISZERO PUSH2 0x24BF JUMPI PUSH2 0x24BF DUP2 PUSH2 0x2BFB JUMP JUMPDEST POP PUSH2 0x2653 JUMP JUMPDEST PUSH1 0x20 DUP1 DUP5 ADD MLOAD PUSH1 0x3 SLOAD PUSH1 0x1 PUSH1 0x1 PUSH1 0xA0 SHL SUB AND PUSH1 0x0 SWAP1 DUP2 MSTORE PUSH1 0x5 SWAP1 SWAP3 MSTORE PUSH1 0x40 DUP3 KECCAK256 DUP1 SLOAD SWAP2 SWAP3 SWAP1 SWAP2 PUSH2 0x24F6 SWAP1 DUP5 SWAP1 PUSH2 0x329C JUMP JUMPDEST SWAP1 SWAP2 SSTORE POP POP PUSH1 0x40 DUP1 DUP5 ADD MLOAD PUSH1 0x4 SLOAD PUSH1 0x1 PUSH1 0x1 PUSH1 0xA0 SHL SUB AND PUSH1 0x0 SWAP1 DUP2 MSTORE PUSH1 0x5 PUSH1 0x20 MSTORE SWAP2 DUP3 KECCAK256 DUP1 SLOAD SWAP2 SWAP3 SWAP1 SWAP2 PUSH2 0x252B SWAP1 DUP5 SWAP1 PUSH2 0x329C JUMP JUMPDEST SWAP1 SWAP2 SSTORE POP POP PUSH1 0x3 SLOAD PUSH1 0x1 PUSH1 0x1 PUSH1 0xA0 SHL SUB AND PUSH1 0x0 SWAP1 DUP2 MSTORE PUSH1 0x8 PUSH1 0x20 MSTORE PUSH1 0x40 SWAP1 KECCAK256 SLOAD PUSH1 0xFF AND ISZERO PUSH2 0x258A JUMPI PUSH1 0x20 DUP1 DUP3 ADD MLOAD PUSH1 0x3 SLOAD PUSH1 0x1 PUSH1 0x1 PUSH1 0xA0 SHL SUB AND PUSH1 0x0 SWAP1 DUP2 MSTORE PUSH1 0x6 SWAP1 SWAP3 MSTORE PUSH1 0x40 DUP3 KECCAK256 DUP1 SLOAD SWAP2 SWAP3 SWAP1 SWAP2 PUSH2 0x2584 SWAP1 DUP5 SWAP1 PUSH2 0x329C JUMP JUMPDEST SWAP1 SWAP2 SSTORE POP POP JUMPDEST PUSH1 0x4 SLOAD PUSH1 0x1 PUSH1 0x1 PUSH1 0xA0 SHL SUB AND PUSH1 0x0 SWAP1 DUP2 MSTORE PUSH1 0x8 PUSH1 0x20 MSTORE PUSH1 0x40 SWAP1 KECCAK256 SLOAD PUSH1 0xFF AND ISZERO PUSH2 0x25E3 JUMPI PUSH1 0x40 DUP1 DUP3 ADD MLOAD PUSH1 0x4 SLOAD PUSH1 0x1 PUSH1 0x1 PUSH1 0xA0 SHL SUB AND PUSH1 0x0 SWAP1 DUP2 MSTORE PUSH1 0x6 PUSH1 0x20 MSTORE SWAP2 DUP3 KECCAK256 DUP1 SLOAD SWAP2 SWAP3 SWAP1 SWAP2 PUSH2 0x25DD SWAP1 DUP5 SWAP1 PUSH2 0x329C JUMP JUMPDEST SWAP1 SWAP2 SSTORE POP POP JUMPDEST PUSH1 0x3 SLOAD PUSH1 0x20 DUP3 DUP2 ADD MLOAD PUSH1 0x40 MLOAD SWAP1 DUP2 MSTORE PUSH1 0x1 PUSH1 0x1 PUSH1 0xA0 SHL SUB SWAP3 DUP4 AND SWAP3 DUP12 AND SWAP2 PUSH1 0x0 DUP1 MLOAD PUSH1 0x20 PUSH2 0x33BD DUP4 CODECOPY DUP2 MLOAD SWAP2 MSTORE SWAP2 ADD PUSH1 0x40 MLOAD DUP1 SWAP2 SUB SWAP1 LOG3 PUSH1 0x4 SLOAD PUSH1 0x40 DUP3 DUP2 ADD MLOAD SWAP1 MLOAD SWAP1 DUP2 MSTORE PUSH1 0x1 PUSH1 0x1 PUSH1 0xA0 SHL SUB SWAP2 DUP3 AND SWAP2 DUP11 AND SWAP1 PUSH1 0x0 DUP1 MLOAD PUSH1 0x20 PUSH2 0x33BD DUP4 CODECOPY DUP2 MLOAD SWAP2 MSTORE SWAP1 PUSH1 0x20 ADD PUSH1 0x40 MLOAD DUP1 SWAP2 SUB SWAP1 LOG3 JUMPDEST PUSH2 0x2692 DUP4 PUSH1 0x60 ADD MLOAD DUP3 PUSH1 0x60 ADD MLOAD DUP4 PUSH1 0x40 ADD MLOAD DUP5 PUSH1 0x20 ADD MLOAD DUP6 PUSH1 0x0 ADD MLOAD PUSH2 0x2679 SWAP2 SWAP1 PUSH2 0x329C JUMP JUMPDEST PUSH2 0x2683 SWAP2 SWAP1 PUSH2 0x329C JUMP JUMPDEST PUSH2 0x268D SWAP2 SWAP1 PUSH2 0x329C JUMP JUMPDEST PUSH2 0x2CD3 JUMP JUMPDEST DUP1 MLOAD PUSH1 0x40 MLOAD SWAP1 DUP2 MSTORE PUSH2 0xDEAD SWAP1 PUSH1 0x1 PUSH1 0x1 PUSH1 0xA0 SHL SUB DUP11 AND SWAP1 PUSH1 0x0 DUP1 MLOAD PUSH1 0x20 PUSH2 0x33BD DUP4 CODECOPY DUP2 MLOAD SWAP2 MSTORE SWAP1 PUSH1 0x20 ADD PUSH1 0x40 MLOAD DUP1 SWAP2 SUB SWAP1 LOG3 DUP7 PUSH1 0x1 PUSH1 0x1 PUSH1 0xA0 SHL SUB AND DUP9 PUSH1 0x1 PUSH1 0x1 PUSH1 0xA0 SHL SUB AND PUSH1 0x0 DUP1 MLOAD PUSH1 0x20 PUSH2 0x33BD DUP4 CODECOPY DUP2 MLOAD SWAP2 MSTORE DUP5 PUSH1 0x40 MLOAD PUSH2 0x26F7 SWAP2 DUP2 MSTORE PUSH1 0x20 ADD SWAP1 JUMP JUMPDEST PUSH1 0x40 MLOAD DUP1 SWAP2 SUB SWAP1 LOG3 POP POP POP POP POP POP POP POP JUMP JUMPDEST PUSH1 0x0 PUSH2 0x1DF3 JUMPDEST PUSH1 0x0 DUP1 PUSH1 0x0 PUSH2 0x271C PUSH2 0x2CF9 JUMP JUMPDEST SWAP1 SWAP3 POP SWAP1 POP PUSH2 0x272B DUP2 DUP4 PUSH2 0x32DC JUMP JUMPDEST SWAP3 POP POP POP SWAP1 JUMP JUMPDEST PUSH1 0x0 DUP1 SLOAD PUSH1 0x1 PUSH1 0x1 PUSH1 0xA0 SHL SUB DUP4 DUP2 AND PUSH1 0x1 PUSH1 0x1 PUSH1 0xA0 SHL SUB NOT DUP4 AND DUP2 OR DUP5 SSTORE PUSH1 0x40 MLOAD SWAP2 SWAP1 SWAP3 AND SWAP3 DUP4 SWAP2 PUSH32 0x8BE0079C531659141344CD1FD0A4F28419497F9722A3DAAFE3B4186F6B6457E0 SWAP2 SWAP1 LOG3 POP POP JUMP JUMPDEST PUSH1 0x0 PUSH2 0x27AF PUSH1 0x40 MLOAD DUP1 PUSH1 0x80 ADD PUSH1 0x40 MSTORE DUP1 PUSH1 0x0 DUP2 MSTORE PUSH1 0x20 ADD PUSH1 0x0 DUP2 MSTORE PUSH1 0x20 ADD PUSH1 0x0 DUP2 MSTORE PUSH1 0x20 ADD PUSH1 0x0 DUP2 MSTORE POP SWAP1 JUMP JUMPDEST PUSH2 0x27DA PUSH1 0x40 MLOAD DUP1 PUSH1 0x80 ADD PUSH1 0x40 MSTORE DUP1 PUSH1 0x0 DUP2 MSTORE PUSH1 0x20 ADD PUSH1 0x0 DUP2 MSTORE PUSH1 0x20 ADD PUSH1 0x0 DUP2 MSTORE PUSH1 0x20 ADD PUSH1 0x0 DUP2 MSTORE POP SWAP1 JUMP JUMPDEST PUSH1 0x2 SLOAD PUSH2 0x2710 SWAP1 PUSH4 0xFFFFFFFF PUSH5 0x100000000 DUP3 DIV DUP2 AND SWAP2 PUSH2 0x27FC SWAP2 AND DUP8 PUSH2 0x32FE JUMP JUMPDEST PUSH2 0x2806 SWAP2 SWAP1 PUSH2 0x32FE JUMP JUMPDEST PUSH2 0x2810 SWAP2 SWAP1 PUSH2 0x32DC JUMP JUMPDEST DUP2 MSTORE PUSH1 0x2 SLOAD PUSH2 0x2710 SWAP1 PUSH4 0xFFFFFFFF PUSH1 0x1 PUSH1 0x40 SHL DUP3 DIV DUP2 AND SWAP2 PUSH2 0x2833 SWAP2 AND DUP8 PUSH2 0x32FE JUMP JUMPDEST PUSH2 0x283D SWAP2 SWAP1 PUSH2 0x32FE JUMP JUMPDEST PUSH2 0x2847 SWAP2 SWAP1 PUSH2 0x32DC JUMP JUMPDEST PUSH1 0x20 DUP3 ADD MSTORE PUSH1 0x2 SLOAD PUSH2 0x2710 SWAP1 PUSH4 0xFFFFFFFF PUSH1 0x1 PUSH1 0x60 SHL DUP3 DIV DUP2 AND SWAP2 PUSH2 0x286D SWAP2 AND DUP8 PUSH2 0x32FE JUMP JUMPDEST PUSH2 0x2877 SWAP2 SWAP1 PUSH2 0x32FE JUMP JUMPDEST PUSH2 0x2881 SWAP2 SWAP1 PUSH2 0x32DC JUMP JUMPDEST PUSH1 0x40 DUP3 ADD MSTORE PUSH1 0x2 SLOAD PUSH2 0x2710 SWAP1 PUSH4 0xFFFFFFFF PUSH1 0x1 PUSH1 0x80 SHL DUP3 DIV DUP2 AND SWAP2 PUSH2 0x28A7 SWAP2 AND DUP8 PUSH2 0x32FE JUMP JUMPDEST PUSH2 0x28B1 SWAP2 SWAP1 PUSH2 0x32FE JUMP JUMPDEST PUSH2 0x28BB SWAP2 SWAP1 PUSH2 0x32DC JUMP JUMPDEST PUSH1 0x60 DUP3 ADD DUP2 SWAP1 MSTORE PUSH1 0x40 DUP3 ADD MLOAD PUSH1 0x20 DUP4 ADD MLOAD DUP4 MLOAD PUSH1 0x0 SWAP4 SWAP3 SWAP2 SWAP1 PUSH2 0x28DE SWAP1 DUP10 PUSH2 0x331D JUMP JUMPDEST PUSH2 0x28E8 SWAP2 SWAP1 PUSH2 0x331D JUMP JUMPDEST PUSH2 0x28F2 SWAP2 SWAP1 PUSH2 0x331D JUMP JUMPDEST PUSH2 0x28FC SWAP2 SWAP1 PUSH2 0x331D JUMP JUMPDEST SWAP6 SWAP2 SWAP5 POP SWAP1 SWAP3 POP POP POP JUMP JUMPDEST PUSH1 0x0 DUP1 PUSH2 0x2935 PUSH1 0x40 MLOAD DUP1 PUSH1 0x80 ADD PUSH1 0x40 MSTORE DUP1 PUSH1 0x0 DUP2 MSTORE PUSH1 0x20 ADD PUSH1 0x0 DUP2 MSTORE PUSH1 0x20 ADD PUSH1 0x0 DUP2 MSTORE PUSH1 0x20 ADD PUSH1 0x0 DUP2 MSTORE POP SWAP1 JUMP JUMPDEST PUSH1 0x0 PUSH2 0x2941 DUP6 DUP9 PUSH2 0x32FE JUMP JUMPDEST SWAP1 POP PUSH2 0x296E PUSH1 0x40 MLOAD DUP1 PUSH1 0x80 ADD PUSH1 0x40 MSTORE DUP1 PUSH1 0x0 DUP2 MSTORE PUSH1 0x20 ADD PUSH1 0x0 DUP2 MSTORE PUSH1 0x20 ADD PUSH1 0x0 DUP2 MSTORE PUSH1 0x20 ADD PUSH1 0x0 DUP2 MSTORE POP SWAP1 JUMP JUMPDEST DUP7 MLOAD PUSH2 0x297B SWAP1 DUP8 SWAP1 PUSH2 0x32FE JUMP JUMPDEST DUP2 MSTORE PUSH1 0x20 DUP8 ADD MLOAD PUSH2 0x298D SWAP1 DUP8 SWAP1 PUSH2 0x32FE JUMP JUMPDEST PUSH1 0x20 DUP3 ADD MSTORE PUSH1 0x40 DUP8 ADD MLOAD PUSH2 0x29A2 SWAP1 DUP8 SWAP1 PUSH2 0x32FE JUMP JUMPDEST PUSH1 0x40 DUP3 ADD MSTORE PUSH1 0x60 DUP8 ADD MLOAD PUSH2 0x29B7 SWAP1 DUP8 SWAP1 PUSH2 0x32FE JUMP JUMPDEST PUSH1 0x60 DUP3 ADD DUP2 SWAP1 MSTORE PUSH1 0x40 DUP3 ADD MLOAD PUSH1 0x20 DUP4 ADD MLOAD DUP4 MLOAD PUSH1 0x0 SWAP4 SWAP3 SWAP2 SWAP1 PUSH2 0x29DA SWAP1 DUP8 PUSH2 0x331D JUMP JUMPDEST PUSH2 0x29E4 SWAP2 SWAP1 PUSH2 0x331D JUMP JUMPDEST PUSH2 0x29EE SWAP2 SWAP1 PUSH2 0x331D JUMP JUMPDEST PUSH2 0x29F8 SWAP2 SWAP1 PUSH2 0x331D JUMP JUMPDEST SWAP3 SWAP10 SWAP3 SWAP9 POP SWAP1 SWAP7 POP SWAP1 SWAP5 POP POP POP POP POP JUMP JUMPDEST PUSH1 0x0 DUP1 SLOAD PUSH1 0x1 PUSH1 0x1 PUSH1 0xA0 SHL SUB DUP5 DUP2 AND SWAP2 AND EQ DUP1 ISZERO SWAP1 PUSH2 0x2A36 JUMPI POP PUSH1 0x0 SLOAD PUSH1 0x1 PUSH1 0x1 PUSH1 0xA0 SHL SUB DUP4 DUP2 AND SWAP2 AND EQ ISZERO JUMPDEST DUP1 ISZERO PUSH2 0xA5B JUMPI POP PUSH1 0x1 PUSH1 0x1 PUSH1 0xA0 SHL SUB DUP3 AND PUSH2 0xDEAD EQ ISZERO SWAP4 SWAP3 POP POP POP JUMP JUMPDEST PUSH1 0x16 DUP1 SLOAD PUSH2 0xFF00 NOT AND PUSH2 0x100 OR SWAP1 SSTORE PUSH1 0x40 DUP1 MLOAD PUSH1 0x2 DUP1 DUP3 MSTORE PUSH1 0x60 DUP3 ADD DUP4 MSTORE PUSH1 0x0 SWAP3 PUSH1 0x20 DUP4 ADD SWAP1 DUP1 CALLDATASIZE DUP4 CALLDATACOPY ADD SWAP1 POP POP SWAP1 POP ADDRESS DUP2 PUSH1 0x0 DUP2 MLOAD DUP2 LT PUSH2 0x2A97 JUMPI PUSH2 0x2A97 PUSH2 0x337B JUMP JUMPDEST PUSH1 0x1 PUSH1 0x1 PUSH1 0xA0 SHL SUB SWAP3 DUP4 AND PUSH1 0x20 SWAP2 DUP3 MUL SWAP3 SWAP1 SWAP3 ADD DUP2 ADD SWAP2 SWAP1 SWAP2 MSTORE PUSH1 0x13 SLOAD PUSH1 0x40 DUP1 MLOAD PUSH4 0x15AB88C9 PUSH1 0xE3 SHL DUP2 MSTORE SWAP1 MLOAD SWAP2 SWAP1 SWAP4 AND SWAP3 PUSH4 0xAD5C4648 SWAP3 PUSH1 0x4 DUP1 DUP4 ADD SWAP4 SWAP2 SWAP3 DUP3 SWAP1 SUB ADD DUP2 DUP7 DUP1 EXTCODESIZE ISZERO DUP1 ISZERO PUSH2 0x2AEB JUMPI PUSH1 0x0 DUP1 REVERT JUMPDEST POP GAS STATICCALL ISZERO DUP1 ISZERO PUSH2 0x2AFF JUMPI RETURNDATASIZE PUSH1 0x0 DUP1 RETURNDATACOPY RETURNDATASIZE PUSH1 0x0 REVERT JUMPDEST POP POP POP POP PUSH1 0x40 MLOAD RETURNDATASIZE PUSH1 0x1F NOT PUSH1 0x1F DUP3 ADD AND DUP3 ADD DUP1 PUSH1 0x40 MSTORE POP DUP2 ADD SWAP1 PUSH2 0x2B23 SWAP2 SWAP1 PUSH2 0x2F12 JUMP JUMPDEST DUP2 PUSH1 0x1 DUP2 MLOAD DUP2 LT PUSH2 0x2B36 JUMPI PUSH2 0x2B36 PUSH2 0x337B JUMP JUMPDEST PUSH1 0x1 PUSH1 0x1 PUSH1 0xA0 SHL SUB SWAP3 DUP4 AND PUSH1 0x20 SWAP2 DUP3 MUL SWAP3 SWAP1 SWAP3 ADD ADD MSTORE PUSH1 0x13 SLOAD PUSH2 0x2B5C SWAP2 ADDRESS SWAP2 AND DUP5 PUSH2 0x19B8 JUMP JUMPDEST PUSH1 0x13 SLOAD PUSH1 0x40 MLOAD PUSH4 0x18CBAFE5 PUSH1 0xE0 SHL DUP2 MSTORE PUSH1 0x1 PUSH1 0x1 PUSH1 0xA0 SHL SUB SWAP1 SWAP2 AND SWAP1 PUSH4 0x18CBAFE5 SWAP1 PUSH2 0x2B95 SWAP1 DUP6 SWAP1 PUSH1 0x0 SWAP1 DUP7 SWAP1 ADDRESS SWAP1 TIMESTAMP SWAP1 PUSH1 0x4 ADD PUSH2 0x322B JUMP JUMPDEST PUSH1 0x0 PUSH1 0x40 MLOAD DUP1 DUP4 SUB DUP2 PUSH1 0x0 DUP8 DUP1 EXTCODESIZE ISZERO DUP1 ISZERO PUSH2 0x2BAF JUMPI PUSH1 0x0 DUP1 REVERT JUMPDEST POP GAS CALL ISZERO DUP1 ISZERO PUSH2 0x2BC3 JUMPI RETURNDATASIZE PUSH1 0x0 DUP1 RETURNDATACOPY RETURNDATASIZE PUSH1 0x0 REVERT JUMPDEST POP POP POP POP PUSH1 0x40 MLOAD RETURNDATASIZE PUSH1 0x0 DUP3 RETURNDATACOPY PUSH1 0x1F RETURNDATASIZE SWAP1 DUP2 ADD PUSH1 0x1F NOT AND DUP3 ADD PUSH1 0x40 MSTORE PUSH2 0x2BEB SWAP2 SWAP1 DUP2 ADD SWAP1 PUSH2 0x300A JUMP JUMPDEST POP POP PUSH1 0x16 DUP1 SLOAD PUSH2 0xFF00 NOT AND SWAP1 SSTORE POP JUMP JUMPDEST PUSH1 0x2 SLOAD PUSH1 0x0 SWAP1 PUSH2 0x2C21 SWAP1 PUSH4 0xFFFFFFFF PUSH1 0x1 PUSH1 0x80 SHL DUP3 DIV DUP2 AND SWAP2 PUSH1 0x1 PUSH1 0x60 SHL SWAP1 DIV AND PUSH2 0x32B4 JUMP JUMPDEST PUSH1 0x2 SLOAD PUSH4 0xFFFFFFFF SWAP2 DUP3 AND SWAP2 PUSH2 0x2C3F SWAP2 PUSH1 0x1 PUSH1 0x60 SHL SWAP1 DIV AND DUP5 PUSH2 0x32FE JUMP JUMPDEST PUSH2 0x2C49 SWAP2 SWAP1 PUSH2 0x32DC JUMP JUMPDEST SWAP1 POP PUSH1 0x0 PUSH2 0x2C57 DUP3 DUP5 PUSH2 0x331D JUMP JUMPDEST PUSH1 0x3 SLOAD PUSH1 0x40 MLOAD SWAP2 SWAP3 POP PUSH1 0x1 PUSH1 0x1 PUSH1 0xA0 SHL SUB AND SWAP1 DUP4 ISZERO PUSH2 0x8FC MUL SWAP1 DUP5 SWAP1 PUSH1 0x0 DUP2 DUP2 DUP2 DUP6 DUP9 DUP9 CALL SWAP4 POP POP POP POP ISZERO DUP1 ISZERO PUSH2 0x2C92 JUMPI RETURNDATASIZE PUSH1 0x0 DUP1 RETURNDATACOPY RETURNDATASIZE PUSH1 0x0 REVERT JUMPDEST POP PUSH1 0x4 SLOAD PUSH1 0x40 MLOAD PUSH1 0x1 PUSH1 0x1 PUSH1 0xA0 SHL SUB SWAP1 SWAP2 AND SWAP1 DUP3 ISZERO PUSH2 0x8FC MUL SWAP1 DUP4 SWAP1 PUSH1 0x0 DUP2 DUP2 DUP2 DUP6 DUP9 DUP9 CALL SWAP4 POP POP POP POP ISZERO DUP1 ISZERO PUSH2 0x2CCD JUMPI RETURNDATASIZE PUSH1 0x0 DUP1 RETURNDATACOPY RETURNDATASIZE PUSH1 0x0 REVERT JUMPDEST POP POP POP POP JUMP JUMPDEST DUP2 PUSH1 0x11 SLOAD PUSH2 0x2CE1 SWAP2 SWAP1 PUSH2 0x331D JUMP JUMPDEST PUSH1 0x11 SSTORE PUSH1 0x12 SLOAD PUSH2 0x2CF2 SWAP1 DUP3 SWAP1 PUSH2 0x329C JUMP JUMPDEST PUSH1 0x12 SSTORE POP POP JUMP JUMPDEST PUSH1 0x11 SLOAD PUSH1 0x0 SWAP1 DUP2 SWAP1 DUP2 PUSH2 0x2D18 PUSH8 0x16345785D8A0000 PUSH4 0x3B9ACA00 PUSH2 0x32FE JUMP JUMPDEST SWAP1 POP PUSH1 0x0 JUMPDEST PUSH1 0x9 SLOAD DUP2 LT ISZERO PUSH2 0x2E75 JUMPI DUP3 PUSH1 0x5 PUSH1 0x0 PUSH1 0x9 DUP5 DUP2 SLOAD DUP2 LT PUSH2 0x2D3F JUMPI PUSH2 0x2D3F PUSH2 0x337B JUMP JUMPDEST PUSH1 0x0 SWAP2 DUP3 MSTORE PUSH1 0x20 DUP1 DUP4 KECCAK256 SWAP1 SWAP2 ADD SLOAD PUSH1 0x1 PUSH1 0x1 PUSH1 0xA0 SHL SUB AND DUP4 MSTORE DUP3 ADD SWAP3 SWAP1 SWAP3 MSTORE PUSH1 0x40 ADD SWAP1 KECCAK256 SLOAD GT DUP1 PUSH2 0x2DAA JUMPI POP DUP2 PUSH1 0x6 PUSH1 0x0 PUSH1 0x9 DUP5 DUP2 SLOAD DUP2 LT PUSH2 0x2D83 JUMPI PUSH2 0x2D83 PUSH2 0x337B JUMP JUMPDEST PUSH1 0x0 SWAP2 DUP3 MSTORE PUSH1 0x20 DUP1 DUP4 KECCAK256 SWAP1 SWAP2 ADD SLOAD PUSH1 0x1 PUSH1 0x1 PUSH1 0xA0 SHL SUB AND DUP4 MSTORE DUP3 ADD SWAP3 SWAP1 SWAP3 MSTORE PUSH1 0x40 ADD SWAP1 KECCAK256 SLOAD GT JUMPDEST ISZERO PUSH2 0x2DD3 JUMPI PUSH1 0x11 SLOAD PUSH2 0x2DC8 PUSH8 0x16345785D8A0000 PUSH4 0x3B9ACA00 PUSH2 0x32FE JUMP JUMPDEST SWAP5 POP SWAP5 POP POP POP POP SWAP1 SWAP2 JUMP JUMPDEST PUSH1 0x5 PUSH1 0x0 PUSH1 0x9 DUP4 DUP2 SLOAD DUP2 LT PUSH2 0x2DEA JUMPI PUSH2 0x2DEA PUSH2 0x337B JUMP JUMPDEST PUSH1 0x0 SWAP2 DUP3 MSTORE PUSH1 0x20 DUP1 DUP4 KECCAK256 SWAP1 SWAP2 ADD SLOAD PUSH1 0x1 PUSH1 0x1 PUSH1 0xA0 SHL SUB AND DUP4 MSTORE DUP3 ADD SWAP3 SWAP1 SWAP3 MSTORE PUSH1 0x40 ADD SWAP1 KECCAK256 SLOAD PUSH2 0x2E19 SWAP1 DUP5 PUSH2 0x331D JUMP JUMPDEST SWAP3 POP PUSH1 0x6 PUSH1 0x0 PUSH1 0x9 DUP4 DUP2 SLOAD DUP2 LT PUSH2 0x2E32 JUMPI PUSH2 0x2E32 PUSH2 0x337B JUMP JUMPDEST PUSH1 0x0 SWAP2 DUP3 MSTORE PUSH1 0x20 DUP1 DUP4 KECCAK256 SWAP1 SWAP2 ADD SLOAD PUSH1 0x1 PUSH1 0x1 PUSH1 0xA0 SHL SUB AND DUP4 MSTORE DUP3 ADD SWAP3 SWAP1 SWAP3 MSTORE PUSH1 0x40 ADD SWAP1 KECCAK256 SLOAD PUSH2 0x2E61 SWAP1 DUP4 PUSH2 0x331D JUMP JUMPDEST SWAP2 POP DUP1 PUSH2 0x2E6D DUP2 PUSH2 0x3334 JUMP JUMPDEST SWAP2 POP POP PUSH2 0x2D1D JUMP JUMPDEST POP PUSH2 0x2E8C PUSH8 0x16345785D8A0000 PUSH4 0x3B9ACA00 PUSH2 0x32FE JUMP JUMPDEST PUSH1 0x11 SLOAD PUSH2 0x2E99 SWAP2 SWAP1 PUSH2 0x32DC JUMP JUMPDEST DUP3 LT ISZERO PUSH2 0x2EC3 JUMPI PUSH1 0x11 SLOAD PUSH2 0x2EB9 PUSH8 0x16345785D8A0000 PUSH4 0x3B9ACA00 PUSH2 0x32FE JUMP JUMPDEST SWAP4 POP SWAP4 POP POP POP SWAP1 SWAP2 JUMP JUMPDEST SWAP1 SWAP4 SWAP1 SWAP3 POP SWAP1 POP JUMP JUMPDEST DUP1 CALLDATALOAD DUP1 ISZERO ISZERO DUP2 EQ PUSH2 0x2EDC JUMPI PUSH1 0x0 DUP1 REVERT JUMPDEST SWAP2 SWAP1 POP JUMP JUMPDEST DUP1 CALLDATALOAD PUSH4 0xFFFFFFFF DUP2 AND DUP2 EQ PUSH2 0x2EDC JUMPI PUSH1 0x0 DUP1 REVERT JUMPDEST PUSH1 0x0 PUSH1 0x20 DUP3 DUP5 SUB SLT ISZERO PUSH2 0x2F07 JUMPI PUSH1 0x0 DUP1 REVERT JUMPDEST DUP2 CALLDATALOAD PUSH2 0xA5B DUP2 PUSH2 0x33A7 JUMP JUMPDEST PUSH1 0x0 PUSH1 0x20 DUP3 DUP5 SUB SLT ISZERO PUSH2 0x2F24 JUMPI PUSH1 0x0 DUP1 REVERT JUMPDEST DUP2 MLOAD PUSH2 0xA5B DUP2 PUSH2 0x33A7 JUMP JUMPDEST PUSH1 0x0 DUP1 PUSH1 0x40 DUP4 DUP6 SUB SLT ISZERO PUSH2 0x2F42 JUMPI PUSH1 0x0 DUP1 REVERT JUMPDEST DUP3 CALLDATALOAD PUSH2 0x2F4D DUP2 PUSH2 0x33A7 JUMP JUMPDEST SWAP2 POP PUSH1 0x20 DUP4 ADD CALLDATALOAD PUSH2 0x2F5D DUP2 PUSH2 0x33A7 JUMP JUMPDEST DUP1 SWAP2 POP POP SWAP3 POP SWAP3 SWAP1 POP JUMP JUMPDEST PUSH1 0x0 DUP1 PUSH1 0x0 PUSH1 0x60 DUP5 DUP7 SUB SLT ISZERO PUSH2 0x2F7D JUMPI PUSH1 0x0 DUP1 REVERT JUMPDEST DUP4 CALLDATALOAD PUSH2 0x2F88 DUP2 PUSH2 0x33A7 JUMP JUMPDEST SWAP3 POP PUSH1 0x20 DUP5 ADD CALLDATALOAD PUSH2 0x2F98 DUP2 PUSH2 0x33A7 JUMP JUMPDEST SWAP3 SWAP6 SWAP3 SWAP5 POP POP POP PUSH1 0x40 SWAP2 SWAP1 SWAP2 ADD CALLDATALOAD SWAP1 JUMP JUMPDEST PUSH1 0x0 DUP1 PUSH1 0x40 DUP4 DUP6 SUB SLT ISZERO PUSH2 0x2FBC JUMPI PUSH1 0x0 DUP1 REVERT JUMPDEST DUP3 CALLDATALOAD PUSH2 0x2FC7 DUP2 PUSH2 0x33A7 JUMP JUMPDEST SWAP2 POP PUSH2 0x2FD5 PUSH1 0x20 DUP5 ADD PUSH2 0x2ECC JUMP JUMPDEST SWAP1 POP SWAP3 POP SWAP3 SWAP1 POP JUMP JUMPDEST PUSH1 0x0 DUP1 PUSH1 0x40 DUP4 DUP6 SUB SLT ISZERO PUSH2 0x2FF1 JUMPI PUSH1 0x0 DUP1 REVERT JUMPDEST DUP3 CALLDATALOAD PUSH2 0x2FFC DUP2 PUSH2 0x33A7 JUMP JUMPDEST SWAP5 PUSH1 0x20 SWAP4 SWAP1 SWAP4 ADD CALLDATALOAD SWAP4 POP POP POP JUMP JUMPDEST PUSH1 0x0 PUSH1 0x20 DUP1 DUP4 DUP6 SUB SLT ISZERO PUSH2 0x301D JUMPI PUSH1 0x0 DUP1 REVERT JUMPDEST DUP3 MLOAD PUSH8 0xFFFFFFFFFFFFFFFF DUP1 DUP3 GT ISZERO PUSH2 0x3035 JUMPI PUSH1 0x0 DUP1 REVERT JUMPDEST DUP2 DUP6 ADD SWAP2 POP DUP6 PUSH1 0x1F DUP4 ADD SLT PUSH2 0x3049 JUMPI PUSH1 0x0 DUP1 REVERT JUMPDEST DUP2 MLOAD DUP2 DUP2 GT ISZERO PUSH2 0x305B JUMPI PUSH2 0x305B PUSH2 0x3391 JUMP JUMPDEST DUP1 PUSH1 0x5 SHL PUSH1 0x40 MLOAD PUSH1 0x1F NOT PUSH1 0x3F DUP4 ADD AND DUP2 ADD DUP2 DUP2 LT DUP6 DUP3 GT OR ISZERO PUSH2 0x3080 JUMPI PUSH2 0x3080 PUSH2 0x3391 JUMP JUMPDEST PUSH1 0x40 MSTORE DUP3 DUP2 MSTORE DUP6 DUP2 ADD SWAP4 POP DUP5 DUP7 ADD DUP3 DUP7 ADD DUP8 ADD DUP11 LT ISZERO PUSH2 0x309F JUMPI PUSH1 0x0 DUP1 REVERT JUMPDEST PUSH1 0x0 SWAP6 POP JUMPDEST DUP4 DUP7 LT ISZERO PUSH2 0x30C2 JUMPI DUP1 MLOAD DUP6 MSTORE PUSH1 0x1 SWAP6 SWAP1 SWAP6 ADD SWAP5 SWAP4 DUP7 ADD SWAP4 DUP7 ADD PUSH2 0x30A4 JUMP JUMPDEST POP SWAP9 SWAP8 POP POP POP POP POP POP POP POP JUMP JUMPDEST PUSH1 0x0 PUSH1 0x20 DUP3 DUP5 SUB SLT ISZERO PUSH2 0x30E1 JUMPI PUSH1 0x0 DUP1 REVERT JUMPDEST POP CALLDATALOAD SWAP2 SWAP1 POP JUMP JUMPDEST PUSH1 0x0 DUP1 PUSH1 0x40 DUP4 DUP6 SUB SLT ISZERO PUSH2 0x30FB JUMPI PUSH1 0x0 DUP1 REVERT JUMPDEST DUP3 CALLDATALOAD SWAP2 POP PUSH2 0x2FD5 PUSH1 0x20 DUP5 ADD PUSH2 0x2ECC JUMP JUMPDEST PUSH1 0x0 DUP1 PUSH1 0x0 DUP1 PUSH1 0x0 DUP1 PUSH1 0x0 DUP1 PUSH2 0x100 DUP10 DUP12 SUB SLT ISZERO PUSH2 0x3128 JUMPI PUSH1 0x0 DUP1 REVERT JUMPDEST DUP9 CALLDATALOAD SWAP8 POP PUSH2 0x3138 PUSH1 0x20 DUP11 ADD PUSH2 0x2EE1 JUMP JUMPDEST SWAP7 POP PUSH2 0x3146 PUSH1 0x40 DUP11 ADD PUSH2 0x2EE1 JUMP JUMPDEST SWAP6 POP PUSH2 0x3154 PUSH1 0x60 DUP11 ADD PUSH2 0x2EE1 JUMP JUMPDEST SWAP5 POP PUSH2 0x3162 PUSH1 0x80 DUP11 ADD PUSH2 0x2EE1 JUMP JUMPDEST SWAP4 POP PUSH2 0x3170 PUSH1 0xA0 DUP11 ADD PUSH2 0x2EE1 JUMP JUMPDEST SWAP3 POP PUSH1 0xC0 DUP10 ADD CALLDATALOAD PUSH2 0x3180 DUP2 PUSH2 0x33A7 JUMP JUMPDEST SWAP2 POP PUSH1 0xE0 DUP10 ADD CALLDATALOAD PUSH2 0x3190 DUP2 PUSH2 0x33A7 JUMP JUMPDEST DUP1 SWAP2 POP POP SWAP3 SWAP6 SWAP9 POP SWAP3 SWAP6 SWAP9 SWAP1 SWAP4 SWAP7 POP JUMP JUMPDEST PUSH1 0x0 PUSH1 0x20 DUP1 DUP4 MSTORE DUP4 MLOAD DUP1 DUP3 DUP6 ADD MSTORE PUSH1 0x0 JUMPDEST DUP2 DUP2 LT ISZERO PUSH2 0x31CE JUMPI DUP6 DUP2 ADD DUP4 ADD MLOAD DUP6 DUP3 ADD PUSH1 0x40 ADD MSTORE DUP3 ADD PUSH2 0x31B2 JUMP JUMPDEST DUP2 DUP2 GT ISZERO PUSH2 0x31E0 JUMPI PUSH1 0x0 PUSH1 0x40 DUP4 DUP8 ADD ADD MSTORE JUMPDEST POP PUSH1 0x1F ADD PUSH1 0x1F NOT AND SWAP3 SWAP1 SWAP3 ADD PUSH1 0x40 ADD SWAP4 SWAP3 POP POP POP JUMP JUMPDEST PUSH1 0x20 DUP1 DUP3 MSTORE DUP2 DUP2 ADD MSTORE PUSH32 0x4F776E61626C653A2063616C6C6572206973206E6F7420746865206F776E6572 PUSH1 0x40 DUP3 ADD MSTORE PUSH1 0x60 ADD SWAP1 JUMP JUMPDEST PUSH1 0x0 PUSH1 0xA0 DUP3 ADD DUP8 DUP4 MSTORE PUSH1 0x20 DUP8 DUP2 DUP6 ADD MSTORE PUSH1 0xA0 PUSH1 0x40 DUP6 ADD MSTORE DUP2 DUP8 MLOAD DUP1 DUP5 MSTORE PUSH1 0xC0 DUP7 ADD SWAP2 POP DUP3 DUP10 ADD SWAP4 POP PUSH1 0x0 JUMPDEST DUP2 DUP2 LT ISZERO PUSH2 0x327B JUMPI DUP5 MLOAD PUSH1 0x1 PUSH1 0x1 PUSH1 0xA0 SHL SUB AND DUP4 MSTORE SWAP4 DUP4 ADD SWAP4 SWAP2 DUP4 ADD SWAP2 PUSH1 0x1 ADD PUSH2 0x3256 JUMP JUMPDEST POP POP PUSH1 0x1 PUSH1 0x1 PUSH1 0xA0 SHL SUB SWAP7 SWAP1 SWAP7 AND PUSH1 0x60 DUP6 ADD MSTORE POP POP POP PUSH1 0x80 ADD MSTORE SWAP4 SWAP3 POP POP POP JUMP JUMPDEST PUSH1 0x0 DUP3 NOT DUP3 GT ISZERO PUSH2 0x32AF JUMPI PUSH2 0x32AF PUSH2 0x334F JUMP JUMPDEST POP ADD SWAP1 JUMP JUMPDEST PUSH1 0x0 PUSH4 0xFFFFFFFF DUP1 DUP4 AND DUP2 DUP6 AND DUP1 DUP4 SUB DUP3 GT ISZERO PUSH2 0x32D3 JUMPI PUSH2 0x32D3 PUSH2 0x334F JUMP JUMPDEST ADD SWAP5 SWAP4 POP POP POP POP JUMP JUMPDEST PUSH1 0x0 DUP3 PUSH2 0x32F9 JUMPI PUSH4 0x4E487B71 PUSH1 0xE0 SHL PUSH1 0x0 MSTORE PUSH1 0x12 PUSH1 0x4 MSTORE PUSH1 0x24 PUSH1 0x0 REVERT JUMPDEST POP DIV SWAP1 JUMP JUMPDEST PUSH1 0x0 DUP2 PUSH1 0x0 NOT DIV DUP4 GT DUP3 ISZERO ISZERO AND ISZERO PUSH2 0x3318 JUMPI PUSH2 0x3318 PUSH2 0x334F JUMP JUMPDEST POP MUL SWAP1 JUMP JUMPDEST PUSH1 0x0 DUP3 DUP3 LT ISZERO PUSH2 0x332F JUMPI PUSH2 0x332F PUSH2 0x334F JUMP JUMPDEST POP SUB SWAP1 JUMP JUMPDEST PUSH1 0x0 PUSH1 0x0 NOT DUP3 EQ ISZERO PUSH2 0x3348 JUMPI PUSH2 0x3348 PUSH2 0x334F JUMP JUMPDEST POP PUSH1 0x1 ADD SWAP1 JUMP JUMPDEST PUSH4 0x4E487B71 PUSH1 0xE0 SHL PUSH1 0x0 MSTORE PUSH1 0x11 PUSH1 0x4 MSTORE PUSH1 0x24 PUSH1 0x0 REVERT JUMPDEST PUSH4 0x4E487B71 PUSH1 0xE0 SHL PUSH1 0x0 MSTORE PUSH1 0x31 PUSH1 0x4 MSTORE PUSH1 0x24 PUSH1 0x0 REVERT JUMPDEST PUSH4 0x4E487B71 PUSH1 0xE0 SHL PUSH1 0x0 MSTORE PUSH1 0x32 PUSH1 0x4 MSTORE PUSH1 0x24 PUSH1 0x0 REVERT JUMPDEST PUSH4 0x4E487B71 PUSH1 0xE0 SHL PUSH1 0x0 MSTORE PUSH1 0x41 PUSH1 0x4 MSTORE PUSH1 0x24 PUSH1 0x0 REVERT JUMPDEST PUSH1 0x1 PUSH1 0x1 PUSH1 0xA0 SHL SUB DUP2 AND DUP2 EQ PUSH2 0x183C JUMPI PUSH1 0x0 DUP1 REVERT INVALID 0xDD CALLCODE MSTORE 0xAD SHL 0xE2 0xC8 SWAP12 PUSH10 0xC2B068FC378DAA952BA7 CALL PUSH4 0xC4A11628 CREATE2 GAS 0x4D CREATE2 0x23 0xB3 0xEF LOG2 PUSH5 0x6970667358 0x22 SLT KECCAK256 0xAD BYTE 0xE4 LT 0x2B SHR 0xD7 0xF8 0x4B PUSH13 0x9A8A70495073186C1D2E6794E6 SAR LOG3 0x5F BALANCE PUSH31 0x139B4FAC64736F6C634300080700334F776E61626C653A2063616C6C657220 PUSH10 0x73206E6F742074686520 PUSH16 0x776E6572000000000000000000000000 "
		},
		"gasEstimates": {
			"creation": {
				"codeDepositCost": "2666000",
				"executionCost": "infinite",
				"totalCost": "infinite"
			},
			"external": {
				"_maxHoldAmount()": "2385",
				"_maxTxAmount()": "2385",
				"_tokenCommenceTime()": "2406",
				"allowance(address,address)": "infinite",
				"approve(address,uint256)": "24682",
				"balanceOf(address)": "infinite",
				"burnAddress()": "262",
				"buyTaxes()": "22338",
				"decimals()": "223",
				"decreaseAllowance(address,uint256)": "26993",
				"excludeFromFee(address)": "26856",
				"excludeFromReward(address)": "infinite",
				"includeInFee(address)": "26782",
				"includeInReward(address)": "infinite",
				"increaseAllowance(address,uint256)": "27019",
				"isBlacklisted(address)": "2675",
				"isExcludedFromFee(address)": "2632",
				"isExcludedFromReward(address)": "2677",
				"isLiquidityPool(address)": "2676",
				"name()": "infinite",
				"owner()": "2376",
				"reflect(uint256)": "infinite",
				"reflectionFromToken(uint256,bool)": "infinite",
				"renounceOwnership()": "28182",
				"sellTaxes()": "22345",
				"setBlacklistAccount(address,bool)": "26969",
				"setLiquidityPool(address,bool)": "infinite",
				"setMaxHoldAmount(uint256)": "24709",
				"setMaxTxAmount(uint256)": "24708",
				"setTaxes(uint256,uint32,uint32,uint32,uint32,uint32,address,address)": "infinite",
				"symbol()": "infinite",
				"tokenFromReflection(uint256)": "infinite",
				"totalFees()": "2394",
				"totalSupply()": "350",
				"transfer(address,uint256)": "infinite",
				"transferFrom(address,address,uint256)": "infinite",
				"transferOwnership(address)": "infinite",
				"uniswapV2Pair()": "2382",
				"unlockToken()": "48675"
			},
			"internal": {
				"_approve(address,address,uint256)": "infinite",
				"_getCurrentSupply()": "infinite",
				"_getRValues(uint256,struct YeagerInu.Fees memory,uint256)": "infinite",
				"_getRate()": "infinite",
				"_getTValues(uint256)": "infinite",
				"_getValues(uint256)": "infinite",
				"_hasLimits(address,address)": "4375",
				"_reflectFee(uint256,uint256)": "48568",
				"_transfer(address,address,uint256)": "infinite",
				"sendETHToWallets(uint256)": "infinite",
				"swapTokensForEth(uint256)": "infinite"
			}
		},
		"methodIdentifiers": {
			"_maxHoldAmount()": "1fc9efa1",
			"_maxTxAmount()": "7d1db4a5",
			"_tokenCommenceTime()": "53bbf6ac",
			"allowance(address,address)": "dd62ed3e",
			"approve(address,uint256)": "095ea7b3",
			"balanceOf(address)": "70a08231",
			"burnAddress()": "70d5ae05",
			"buyTaxes()": "864701a5",
			"decimals()": "313ce567",
			"decreaseAllowance(address,uint256)": "a457c2d7",
			"excludeFromFee(address)": "437823ec",
			"excludeFromReward(address)": "52390c02",
			"includeInFee(address)": "ea2f0b37",
			"includeInReward(address)": "3685d419",
			"increaseAllowance(address,uint256)": "39509351",
			"isBlacklisted(address)": "fe575a87",
			"isExcludedFromFee(address)": "5342acb4",
			"isExcludedFromReward(address)": "88f82020",
			"isLiquidityPool(address)": "e85455d7",
			"name()": "06fdde03",
			"owner()": "8da5cb5b",
			"reflect(uint256)": "053ab182",
			"reflectionFromToken(uint256,bool)": "4549b039",
			"renounceOwnership()": "715018a6",
			"sellTaxes()": "f66895a3",
			"setBlacklistAccount(address,bool)": "e594707e",
			"setLiquidityPool(address,bool)": "c29c669a",
			"setMaxHoldAmount(uint256)": "d8b60040",
			"setMaxTxAmount(uint256)": "ec28438a",
			"setTaxes(uint256,uint32,uint32,uint32,uint32,uint32,address,address)": "8f265a5b",
			"symbol()": "95d89b41",
			"tokenFromReflection(uint256)": "2d838119",
			"totalFees()": "13114a9d",
			"totalSupply()": "18160ddd",
			"transfer(address,uint256)": "a9059cbb",
			"transferFrom(address,address,uint256)": "23b872dd",
			"transferOwnership(address)": "f2fde38b",
			"uniswapV2Pair()": "49bd5a5e",
			"unlockToken()": "18a24b5b"
		}
	},
	"abi": [
		{
			"inputs": [
				{
					"internalType": "address",
					"name": "wallet1_",
					"type": "address"
				},
				{
					"internalType": "address",
					"name": "wallet2_",
					"type": "address"
				}
			],
			"stateMutability": "nonpayable",
			"type": "constructor"
		},
		{
			"anonymous": false,
			"inputs": [
				{
					"indexed": true,
					"internalType": "address",
					"name": "owner",
					"type": "address"
				},
				{
					"indexed": true,
					"internalType": "address",
					"name": "spender",
					"type": "address"
				},
				{
					"indexed": false,
					"internalType": "uint256",
					"name": "value",
					"type": "uint256"
				}
			],
			"name": "Approval",
			"type": "event"
		},
		{
			"anonymous": false,
			"inputs": [
				{
					"indexed": true,
					"internalType": "address",
					"name": "previousOwner",
					"type": "address"
				},
				{
					"indexed": true,
					"internalType": "address",
					"name": "newOwner",
					"type": "address"
				}
			],
			"name": "OwnershipTransferred",
			"type": "event"
		},
		{
			"anonymous": false,
			"inputs": [
				{
					"indexed": true,
					"internalType": "address",
					"name": "from",
					"type": "address"
				},
				{
					"indexed": true,
					"internalType": "address",
					"name": "to",
					"type": "address"
				},
				{
					"indexed": false,
					"internalType": "uint256",
					"name": "value",
					"type": "uint256"
				}
			],
			"name": "Transfer",
			"type": "event"
		},
		{
			"inputs": [],
			"name": "_maxHoldAmount",
			"outputs": [
				{
					"internalType": "uint256",
					"name": "",
					"type": "uint256"
				}
			],
			"stateMutability": "view",
			"type": "function"
		},
		{
			"inputs": [],
			"name": "_maxTxAmount",
			"outputs": [
				{
					"internalType": "uint256",
					"name": "",
					"type": "uint256"
				}
			],
			"stateMutability": "view",
			"type": "function"
		},
		{
			"inputs": [],
			"name": "_tokenCommenceTime",
			"outputs": [
				{
					"internalType": "uint256",
					"name": "",
					"type": "uint256"
				}
			],
			"stateMutability": "view",
			"type": "function"
		},
		{
			"inputs": [
				{
					"internalType": "address",
					"name": "owner",
					"type": "address"
				},
				{
					"internalType": "address",
					"name": "spender",
					"type": "address"
				}
			],
			"name": "allowance",
			"outputs": [
				{
					"internalType": "uint256",
					"name": "",
					"type": "uint256"
				}
			],
			"stateMutability": "view",
			"type": "function"
		},
		{
			"inputs": [
				{
					"internalType": "address",
					"name": "spender",
					"type": "address"
				},
				{
					"internalType": "uint256",
					"name": "amount",
					"type": "uint256"
				}
			],
			"name": "approve",
			"outputs": [
				{
					"internalType": "bool",
					"name": "",
					"type": "bool"
				}
			],
			"stateMutability": "nonpayable",
			"type": "function"
		},
		{
			"inputs": [
				{
					"internalType": "address",
					"name": "account",
					"type": "address"
				}
			],
			"name": "balanceOf",
			"outputs": [
				{
					"internalType": "uint256",
					"name": "",
					"type": "uint256"
				}
			],
			"stateMutability": "view",
			"type": "function"
		},
		{
			"inputs": [],
			"name": "burnAddress",
			"outputs": [
				{
					"internalType": "address",
					"name": "",
					"type": "address"
				}
			],
			"stateMutability": "view",
			"type": "function"
		},
		{
			"inputs": [],
			"name": "buyTaxes",
			"outputs": [
				{
					"internalType": "uint32",
					"name": "total_Tax_Percent",
					"type": "uint32"
				},
				{
					"internalType": "uint32",
					"name": "burn_Split",
					"type": "uint32"
				},
				{
					"internalType": "uint32",
					"name": "governingSplit_Wallet1",
					"type": "uint32"
				},
				{
					"internalType": "uint32",
					"name": "governingSplit_Wallet2",
					"type": "uint32"
				},
				{
					"internalType": "uint32",
					"name": "reflect_Split",
					"type": "uint32"
				}
			],
			"stateMutability": "view",
			"type": "function"
		},
		{
			"inputs": [],
			"name": "decimals",
			"outputs": [
				{
					"internalType": "uint8",
					"name": "",
					"type": "uint8"
				}
			],
			"stateMutability": "pure",
			"type": "function"
		},
		{
			"inputs": [
				{
					"internalType": "address",
					"name": "spender",
					"type": "address"
				},
				{
					"internalType": "uint256",
					"name": "subtractedValue",
					"type": "uint256"
				}
			],
			"name": "decreaseAllowance",
			"outputs": [
				{
					"internalType": "bool",
					"name": "",
					"type": "bool"
				}
			],
			"stateMutability": "nonpayable",
			"type": "function"
		},
		{
			"inputs": [
				{
					"internalType": "address",
					"name": "account",
					"type": "address"
				}
			],
			"name": "excludeFromFee",
			"outputs": [],
			"stateMutability": "nonpayable",
			"type": "function"
		},
		{
			"inputs": [
				{
					"internalType": "address",
					"name": "account",
					"type": "address"
				}
			],
			"name": "excludeFromReward",
			"outputs": [],
			"stateMutability": "nonpayable",
			"type": "function"
		},
		{
			"inputs": [
				{
					"internalType": "address",
					"name": "account",
					"type": "address"
				}
			],
			"name": "includeInFee",
			"outputs": [],
			"stateMutability": "nonpayable",
			"type": "function"
		},
		{
			"inputs": [
				{
					"internalType": "address",
					"name": "account",
					"type": "address"
				}
			],
			"name": "includeInReward",
			"outputs": [],
			"stateMutability": "nonpayable",
			"type": "function"
		},
		{
			"inputs": [
				{
					"internalType": "address",
					"name": "spender",
					"type": "address"
				},
				{
					"internalType": "uint256",
					"name": "addedValue",
					"type": "uint256"
				}
			],
			"name": "increaseAllowance",
			"outputs": [
				{
					"internalType": "bool",
					"name": "",
					"type": "bool"
				}
			],
			"stateMutability": "nonpayable",
			"type": "function"
		},
		{
			"inputs": [
				{
					"internalType": "address",
					"name": "account",
					"type": "address"
				}
			],
			"name": "isBlacklisted",
			"outputs": [
				{
					"internalType": "bool",
					"name": "",
					"type": "bool"
				}
			],
			"stateMutability": "view",
			"type": "function"
		},
		{
			"inputs": [
				{
					"internalType": "address",
					"name": "account",
					"type": "address"
				}
			],
			"name": "isExcludedFromFee",
			"outputs": [
				{
					"internalType": "bool",
					"name": "",
					"type": "bool"
				}
			],
			"stateMutability": "view",
			"type": "function"
		},
		{
			"inputs": [
				{
					"internalType": "address",
					"name": "account",
					"type": "address"
				}
			],
			"name": "isExcludedFromReward",
			"outputs": [
				{
					"internalType": "bool",
					"name": "",
					"type": "bool"
				}
			],
			"stateMutability": "view",
			"type": "function"
		},
		{
			"inputs": [
				{
					"internalType": "address",
					"name": "account",
					"type": "address"
				}
			],
			"name": "isLiquidityPool",
			"outputs": [
				{
					"internalType": "bool",
					"name": "",
					"type": "bool"
				}
			],
			"stateMutability": "view",
			"type": "function"
		},
		{
			"inputs": [],
			"name": "name",
			"outputs": [
				{
					"internalType": "string",
					"name": "",
					"type": "string"
				}
			],
			"stateMutability": "pure",
			"type": "function"
		},
		{
			"inputs": [],
			"name": "owner",
			"outputs": [
				{
					"internalType": "address",
					"name": "",
					"type": "address"
				}
			],
			"stateMutability": "view",
			"type": "function"
		},
		{
			"inputs": [
				{
					"internalType": "uint256",
					"name": "tAmount",
					"type": "uint256"
				}
			],
			"name": "reflect",
			"outputs": [],
			"stateMutability": "nonpayable",
			"type": "function"
		},
		{
			"inputs": [
				{
					"internalType": "uint256",
					"name": "tAmount",
					"type": "uint256"
				},
				{
					"internalType": "bool",
					"name": "deductTransferFee",
					"type": "bool"
				}
			],
			"name": "reflectionFromToken",
			"outputs": [
				{
					"internalType": "uint256",
					"name": "",
					"type": "uint256"
				}
			],
			"stateMutability": "view",
			"type": "function"
		},
		{
			"inputs": [],
			"name": "renounceOwnership",
			"outputs": [],
			"stateMutability": "nonpayable",
			"type": "function"
		},
		{
			"inputs": [],
			"name": "sellTaxes",
			"outputs": [
				{
					"internalType": "uint32",
					"name": "total_Tax_Percent",
					"type": "uint32"
				},
				{
					"internalType": "uint32",
					"name": "burn_Split",
					"type": "uint32"
				},
				{
					"internalType": "uint32",
					"name": "governingSplit_Wallet1",
					"type": "uint32"
				},
				{
					"internalType": "uint32",
					"name": "governingSplit_Wallet2",
					"type": "uint32"
				},
				{
					"internalType": "uint32",
					"name": "reflect_Split",
					"type": "uint32"
				}
			],
			"stateMutability": "view",
			"type": "function"
		},
		{
			"inputs": [
				{
					"internalType": "address",
					"name": "account",
					"type": "address"
				},
				{
					"internalType": "bool",
					"name": "enabled",
					"type": "bool"
				}
			],
			"name": "setBlacklistAccount",
			"outputs": [],
			"stateMutability": "nonpayable",
			"type": "function"
		},
		{
			"inputs": [
				{
					"internalType": "address",
					"name": "account",
					"type": "address"
				},
				{
					"internalType": "bool",
					"name": "enabled",
					"type": "bool"
				}
			],
			"name": "setLiquidityPool",
			"outputs": [],
			"stateMutability": "nonpayable",
			"type": "function"
		},
		{
			"inputs": [
				{
					"internalType": "uint256",
					"name": "maxHoldAmount",
					"type": "uint256"
				}
			],
			"name": "setMaxHoldAmount",
			"outputs": [],
			"stateMutability": "nonpayable",
			"type": "function"
		},
		{
			"inputs": [
				{
					"internalType": "uint256",
					"name": "maxTxAmount",
					"type": "uint256"
				}
			],
			"name": "setMaxTxAmount",
			"outputs": [],
			"stateMutability": "nonpayable",
			"type": "function"
		},
		{
			"inputs": [
				{
					"internalType": "uint256",
					"name": "type_",
					"type": "uint256"
				},
				{
					"internalType": "uint32",
					"name": "totalTaxPercent_",
					"type": "uint32"
				},
				{
					"internalType": "uint32",
					"name": "split0_",
					"type": "uint32"
				},
				{
					"internalType": "uint32",
					"name": "split1_",
					"type": "uint32"
				},
				{
					"internalType": "uint32",
					"name": "split2_",
					"type": "uint32"
				},
				{
					"internalType": "uint32",
					"name": "split3_",
					"type": "uint32"
				},
				{
					"internalType": "address",
					"name": "wallet1_",
					"type": "address"
				},
				{
					"internalType": "address",
					"name": "wallet2_",
					"type": "address"
				}
			],
			"name": "setTaxes",
			"outputs": [],
			"stateMutability": "nonpayable",
			"type": "function"
		},
		{
			"inputs": [],
			"name": "symbol",
			"outputs": [
				{
					"internalType": "string",
					"name": "",
					"type": "string"
				}
			],
			"stateMutability": "pure",
			"type": "function"
		},
		{
			"inputs": [
				{
					"internalType": "uint256",
					"name": "rAmount",
					"type": "uint256"
				}
			],
			"name": "tokenFromReflection",
			"outputs": [
				{
					"internalType": "uint256",
					"name": "",
					"type": "uint256"
				}
			],
			"stateMutability": "view",
			"type": "function"
		},
		{
			"inputs": [],
			"name": "totalFees",
			"outputs": [
				{
					"internalType": "uint256",
					"name": "",
					"type": "uint256"
				}
			],
			"stateMutability": "view",
			"type": "function"
		},
		{
			"inputs": [],
			"name": "totalSupply",
			"outputs": [
				{
					"internalType": "uint256",
					"name": "",
					"type": "uint256"
				}
			],
			"stateMutability": "pure",
			"type": "function"
		},
		{
			"inputs": [
				{
					"internalType": "address",
					"name": "recipient",
					"type": "address"
				},
				{
					"internalType": "uint256",
					"name": "amount",
					"type": "uint256"
				}
			],
			"name": "transfer",
			"outputs": [
				{
					"internalType": "bool",
					"name": "",
					"type": "bool"
				}
			],
			"stateMutability": "nonpayable",
			"type": "function"
		},
		{
			"inputs": [
				{
					"internalType": "address",
					"name": "sender",
					"type": "address"
				},
				{
					"internalType": "address",
					"name": "recipient",
					"type": "address"
				},
				{
					"internalType": "uint256",
					"name": "amount",
					"type": "uint256"
				}
			],
			"name": "transferFrom",
			"outputs": [
				{
					"internalType": "bool",
					"name": "",
					"type": "bool"
				}
			],
			"stateMutability": "nonpayable",
			"type": "function"
		},
		{
			"inputs": [
				{
					"internalType": "address",
					"name": "newOwner",
					"type": "address"
				}
			],
			"name": "transferOwnership",
			"outputs": [],
			"stateMutability": "nonpayable",
			"type": "function"
		},
		{
			"inputs": [],
			"name": "uniswapV2Pair",
			"outputs": [
				{
					"internalType": "address",
					"name": "",
					"type": "address"
				}
			],
			"stateMutability": "view",
			"type": "function"
		},
		{
			"inputs": [],
			"name": "unlockToken",
			"outputs": [],
			"stateMutability": "nonpayable",
			"type": "function"
		},
		{
			"stateMutability": "payable",
			"type": "receive"
		}
	]
}