{
	"data": {
		"bytecode": {
			"linkReferences": {},
			"object": "60806040526200001c67016345785d8a0000633b9aca0062000b58565b6200002a9060001962000bb2565b620000389060001962000b7a565b600955600c805461ffff60a81b191690556200006167016345785d8a0000633b9aca0062000b58565b600d556200007c67016345785d8a0000633b9aca0062000b58565b600e553480156200008c57600080fd5b506040516200436338038062004363833981016040819052620000af9162000af7565b620000ba33620005fa565b6001604051806101200160405280600a63ffffffff168152602001600463ffffffff168152602001601463ffffffff168152602001601463ffffffff168152602001602863ffffffff168152602001601063ffffffff168152602001856001600160a01b03168152602001846001600160a01b03168152602001836001600160a01b0316815250908060018154018082558091505060019003906000526020600020906004020160009091909190915060008201518160000160006101000a81548163ffffffff021916908363ffffffff16021790555060208201518160000160046101000a81548163ffffffff021916908363ffffffff16021790555060408201518160000160086101000a81548163ffffffff021916908363ffffffff160217905550606082015181600001600c6101000a81548163ffffffff021916908363ffffffff16021790555060808201518160000160106101000a81548163ffffffff021916908363ffffffff16021790555060a08201518160000160146101000a81548163ffffffff021916908363ffffffff16021790555060c08201518160010160006101000a8154816001600160a01b0302191690836001600160a01b0316021790555060e08201518160020160006101000a8154816001600160a01b0302191690836001600160a01b031602179055506101008201518160030160006101000a8154816001600160a01b0302191690836001600160a01b0316021790555050506001604051806101200160405280601963ffffffff168152602001600463ffffffff168152602001601463ffffffff168152602001601463ffffffff168152602001602863ffffffff168152602001601063ffffffff168152602001856001600160a01b03168152602001846001600160a01b03168152602001836001600160a01b0316815250908060018154018082558091505060019003906000526020600020906004020160009091909190915060008201518160000160006101000a81548163ffffffff021916908363ffffffff16021790555060208201518160000160046101000a81548163ffffffff021916908363ffffffff16021790555060408201518160000160086101000a81548163ffffffff021916908363ffffffff160217905550606082015181600001600c6101000a81548163ffffffff021916908363ffffffff16021790555060808201518160000160106101000a81548163ffffffff021916908363ffffffff16021790555060a08201518160000160146101000a81548163ffffffff021916908363ffffffff16021790555060c08201518160010160006101000a8154816001600160a01b0302191690836001600160a01b0316021790555060e08201518160020160006101000a8154816001600160a01b0302191690836001600160a01b031602179055506101008201518160030160006101000a8154816001600160a01b0302191690836001600160a01b0316021790555050506009546002600062000519620005f660201b60201c565b6001600160a01b031681526020810191909152604001600020556200054b67016345785d8a0000633b9aca0062000b58565b600d556200056b620005656000546001600160a01b031690565b6200064a565b62000588620005826000546001600160a01b031690565b620006bd565b6200059561dead620006bd565b620005a030620006bd565b3360007fddf252ad1be2c89b69c2b068fc378daa952ba7f163c4a11628f55a4df523b3ef620005dc67016345785d8a0000633b9aca0062000b58565b60405190815260200160405180910390a350505062000c0b565b3390565b600080546001600160a01b038381166001600160a01b0319831681178455604051919092169283917f8be0079c531659141344cd1fd0a4f28419497f9722a3daafe3b4186f6b6457e09190a35050565b6000546001600160a01b03163314620006995760405162461bcd60e51b815260206004820181905260248201526000805160206200434383398151915260448201526064015b60405180910390fd5b6001600160a01b03166000908152600760205260409020805460ff19166001179055565b6000546001600160a01b03163314620007085760405162461bcd60e51b8152602060048201819052602482015260008051602062004343833981519152604482015260640162000690565b6001600160a01b03811660009081526005602052604090205460ff1615620007735760405162461bcd60e51b815260206004820152601b60248201527f4163636f756e7420697320616c7265616479206578636c756465640000000000604482015260640162000690565b6001600160a01b03811660009081526002602052604090205415620007d0576001600160a01b038116600090815260026020526040902054620007b69062000836565b6001600160a01b0382166000908152600360205260409020555b6001600160a01b03166000818152600560205260408120805460ff191660019081179091556006805491820181559091527ff652222313e28459528d920b65115c16c04f3efc82aaedc97be59f3f377c0d3f0180546001600160a01b0319169091179055565b60006009548211156200089f5760405162461bcd60e51b815260206004820152602a60248201527f416d6f756e74206d757374206265206c657373207468616e20746f74616c207260448201526965666c656374696f6e7360b01b606482015260840162000690565b6000620008ab620008c0565b9050620008b9818462000b41565b9392505050565b60008080620008ce620008e6565b9092509050620008df818362000b41565b9250505090565b6009546000908190816200090767016345785d8a0000633b9aca0062000b58565b905060005b60065481101562000a7c5782600260006006848154811062000932576200093262000bf5565b60009182526020808320909101546001600160a01b031683528201929092526040019020541180620009a157508160036000600684815481106200097a576200097a62000bf5565b60009182526020808320909101546001600160a01b03168352820192909252604001902054115b15620009cd57600954620009c267016345785d8a0000633b9aca0062000b58565b945094505050509091565b6002600060068381548110620009e757620009e762000bf5565b60009182526020808320909101546001600160a01b0316835282019290925260400190205462000a18908462000b7a565b9250600360006006838154811062000a345762000a3462000bf5565b60009182526020808320909101546001600160a01b0316835282019290925260400190205462000a65908362000b7a565b91508062000a738162000b94565b9150506200090c565b5062000a9567016345785d8a0000633b9aca0062000b58565b60095462000aa4919062000b41565b82101562000ad15760095462000ac767016345785d8a0000633b9aca0062000b58565b9350935050509091565b90939092509050565b80516001600160a01b038116811462000af257600080fd5b919050565b60008060006060848603121562000b0d57600080fd5b62000b188462000ada565b925062000b286020850162000ada565b915062000b386040850162000ada565b90509250925092565b60008262000b535762000b5362000bdf565b500490565b600081600019048311821515161562000b755762000b7562000bc9565b500290565b60008282101562000b8f5762000b8f62000bc9565b500390565b600060001982141562000bab5762000bab62000bc9565b5060010190565b60008262000bc45762000bc462000bdf565b500690565b634e487b7160e01b600052601160045260246000fd5b634e487b7160e01b600052601260045260246000fd5b634e487b7160e01b600052603260045260246000fd5b6137288062000c1b6000396000f3fe60806040526004361061023f5760003560e01c8063864701a51161012e578063d5aed6bf116100ab578063ec28438a1161006f578063ec28438a14610740578063f2fde38b14610760578063f66895a314610780578063fe575a8714610795578063ff872602146107ce57600080fd5b8063d5aed6bf1461067a578063d8b600401461069a578063dd62ed3e146106ba578063e594707e14610700578063ea2f0b371461072057600080fd5b80639d0014b1116100f25780639d0014b1146105f0578063a457c2d714610610578063a9059cbb14610630578063c3c8cd8014610650578063c9567bf91461066557600080fd5b8063864701a5146104fa57806388f820201461054e5780638da5cb5b1461058757806395d89b41146105a5578063974df267146105d057600080fd5b80633685d419116101bc5780635342acb4116101805780635342acb41461044857806370a082311461048157806370d5ae05146104a1578063715018a6146104cf5780637d1db4a5146104e457600080fd5b80633685d419146103a857806339509351146103c8578063437823ec146103e85780634549b0391461040857806352390c021461042857600080fd5b80631ad34a4f116102035780631ad34a4f146103165780631fc9efa11461033657806323b872dd1461034c5780632d8381191461036c578063313ce5671461038c57600080fd5b8063053ab1821461024b57806306fdde031461026d578063095ea7b3146102ad5780630e5a9231146102dd57806318160ddd1461030157600080fd5b3661024657005b600080fd5b34801561025757600080fd5b5061026b6102663660046132b7565b6107e3565b005b34801561027957600080fd5b50604080518082019091526005815264054657374360dc1b60208201525b6040516102a491906133de565b60405180910390f35b3480156102b957600080fd5b506102cd6102c836600461326e565b6108d5565b60405190151581526020016102a4565b3480156102e957600080fd5b506102f3600f5481565b6040519081526020016102a4565b34801561030d57600080fd5b506102f36108ec565b34801561032257600080fd5b5061026b6103313660046132b7565b610909565b34801561034257600080fd5b506102f3600e5481565b34801561035857600080fd5b506102cd6103673660046131ff565b610942565b34801561037857600080fd5b506102f36103873660046132b7565b6109ec565b34801561039857600080fd5b50604051600981526020016102a4565b3480156103b457600080fd5b5061026b6103c336600461318c565b610a70565b3480156103d457600080fd5b506102cd6103e336600461326e565b610c23565b3480156103f457600080fd5b5061026b61040336600461318c565b610c5f565b34801561041457600080fd5b506102f36104233660046132d0565b610cad565b34801561043457600080fd5b5061026b61044336600461318c565b610d4f565b34801561045457600080fd5b506102cd61046336600461318c565b6001600160a01b031660009081526007602052604090205460ff1690565b34801561048d57600080fd5b506102f361049c36600461318c565b610ea2565b3480156104ad57600080fd5b506104b761dead81565b6040516001600160a01b0390911681526020016102a4565b3480156104db57600080fd5b5061026b610f01565b3480156104f057600080fd5b506102f3600d5481565b34801561050657600080fd5b5061050f610f37565b6040805163ffffffff978816815295871660208701529386169385019390935290841660608401528316608083015290911660a082015260c0016102a4565b34801561055a57600080fd5b506102cd61056936600461318c565b6001600160a01b031660009081526005602052604090205460ff1690565b34801561059357600080fd5b506000546001600160a01b03166104b7565b3480156105b157600080fd5b50604080518082019091526002815261054360f41b6020820152610297565b3480156105dc57600080fd5b5061026b6105eb366004613323565b611088565b3480156105fc57600080fd5b5061026b61060b3660046132b7565b611449565b34801561061c57600080fd5b506102cd61062b36600461326e565b611478565b34801561063c57600080fd5b506102cd61064b36600461326e565b611511565b34801561065c57600080fd5b5061026b61151e565b34801561067157600080fd5b5061026b611561565b34801561068657600080fd5b5061026b61069536600461318c565b61191d565b3480156106a657600080fd5b5061026b6106b53660046132b7565b611969565b3480156106c657600080fd5b506102f36106d53660046131c6565b6001600160a01b03918216600090815260046020908152604080832093909416825291909152205490565b34801561070c57600080fd5b5061026b61071b366004613240565b611a22565b34801561072c57600080fd5b5061026b61073b36600461318c565b611a77565b34801561074c57600080fd5b5061026b61075b3660046132b7565b611ac2565b34801561076c57600080fd5b5061026b61077b36600461318c565b611b82565b34801561078c57600080fd5b5061050f611c1a565b3480156107a157600080fd5b506102cd6107b036600461318c565b6001600160a01b031660009081526010602052604090205460ff1690565b3480156107da57600080fd5b5061026b611d38565b3360008181526005602052604090205460ff161561085d5760405162461bcd60e51b815260206004820152602c60248201527f4578636c75646564206164647265737365732063616e6e6f742063616c6c207460448201526b3434b990333ab731ba34b7b760a11b60648201526084015b60405180910390fd5b600061086a836001611d71565b5050506001600160a01b0384166000908152600260205260409020549192506108959183915061355a565b6001600160a01b0383166000908152600260205260409020556009546108bc90829061355a565b600955600a546108cd9084906134d9565b600a55505050565b60006108e2338484611dbf565b5060015b92915050565b600061090467016345785d8a0000633b9aca0061353b565b905090565b6000546001600160a01b031633146109335760405162461bcd60e51b815260040161085490613433565b4761093e8183611ee3565b5050565b600061094f848484612107565b6001600160a01b0384166000908152600460209081526040808320338452909152902054828110156109d45760405162461bcd60e51b815260206004820152602860248201527f45524332303a207472616e7366657220616d6f756e74206578636565647320616044820152676c6c6f77616e636560c01b6064820152608401610854565b6109e18533858403611dbf565b506001949350505050565b6000600954821115610a535760405162461bcd60e51b815260206004820152602a60248201527f416d6f756e74206d757374206265206c657373207468616e20746f74616c207260448201526965666c656374696f6e7360b01b6064820152608401610854565b6000610a5d6124a3565b9050610a698184613519565b9392505050565b6000546001600160a01b03163314610a9a5760405162461bcd60e51b815260040161085490613433565b6001600160a01b03811660009081526005602052604090205460ff16610b025760405162461bcd60e51b815260206004820152601b60248201527f4163636f756e7420697320616c7265616479206578636c7564656400000000006044820152606401610854565b60005b60065481101561093e57816001600160a01b031660068281548110610b2c57610b2c6135f3565b6000918252602090912001546001600160a01b03161415610c115760068054610b579060019061355a565b81548110610b6757610b676135f3565b600091825260209091200154600680546001600160a01b039092169183908110610b9357610b936135f3565b600091825260208083209190910180546001600160a01b0319166001600160a01b039485161790559184168152600382526040808220829055600590925220805460ff191690556006805480610beb57610beb6135dd565b600082815260209020810160001990810180546001600160a01b03191690550190555050565b80610c1b816135ac565b915050610b05565b3360008181526004602090815260408083206001600160a01b038716845290915281205490916108e2918590610c5a9086906134d9565b611dbf565b6000546001600160a01b03163314610c895760405162461bcd60e51b815260040161085490613433565b6001600160a01b03166000908152600760205260409020805460ff19166001179055565b6000610cc567016345785d8a0000633b9aca0061353b565b831115610d145760405162461bcd60e51b815260206004820152601f60248201527f416d6f756e74206d757374206265206c657373207468616e20737570706c79006044820152606401610854565b81610d34576000610d26846001611d71565b509294506108e69350505050565b6000610d41846001611d71565b509194506108e69350505050565b6000546001600160a01b03163314610d795760405162461bcd60e51b815260040161085490613433565b6001600160a01b03811660009081526005602052604090205460ff1615610de25760405162461bcd60e51b815260206004820152601b60248201527f4163636f756e7420697320616c7265616479206578636c7564656400000000006044820152606401610854565b6001600160a01b03811660009081526002602052604090205415610e3c576001600160a01b038116600090815260026020526040902054610e22906109ec565b6001600160a01b0382166000908152600360205260409020555b6001600160a01b03166000818152600560205260408120805460ff191660019081179091556006805491820181559091527ff652222313e28459528d920b65115c16c04f3efc82aaedc97be59f3f377c0d3f0180546001600160a01b0319169091179055565b6001600160a01b03811660009081526005602052604081205460ff1615610edf57506001600160a01b031660009081526003602052604090205490565b6001600160a01b0382166000908152600260205260409020546108e6906109ec565b6000546001600160a01b03163314610f2b5760405162461bcd60e51b815260040161085490613433565b610f3560006124c6565b565b6000806000806000806001600081548110610f5457610f546135f3565b600091825260208220600490910201546001805463ffffffff909216929091610f7f57610f7f6135f3565b906000526020600020906004020160000160049054906101000a900463ffffffff166001600081548110610fb557610fb56135f3565b906000526020600020906004020160000160089054906101000a900463ffffffff166001600081548110610feb57610feb6135f3565b9060005260206000209060040201600001600c9054906101000a900463ffffffff166001600081548110611021576110216135f3565b906000526020600020906004020160000160109054906101000a900463ffffffff166001600081548110611057576110576135f3565b6000918252602090912060049091020154949b939a5091985096509450600160a01b90910463ffffffff1692509050565b6000546001600160a01b031633146110b25760405162461bcd60e51b815260040161085490613433565b6001600160a01b038316158015906110d257506001600160a01b03821615155b80156110e657506001600160a01b03811615155b61113e5760405162461bcd60e51b815260206004820152602360248201527f5461782057616c6c6574732061737369676e6564207a65726f2061646472657360448201526273202160e81b6064820152608401610854565b83858761114b8a8c6134f1565b61115591906134f1565b61115f91906134f1565b61116991906134f1565b63ffffffff166064146111d05760405162461bcd60e51b815260206004820152602960248201527f53706c69742050657263656e746167657320646f6573206e6f742073756d207560448201526870746f20313030202160b81b6064820152608401610854565b8860018b815481106111e4576111e46135f3565b906000526020600020906004020160000160006101000a81548163ffffffff021916908363ffffffff1602179055508760018b81548110611227576112276135f3565b906000526020600020906004020160000160046101000a81548163ffffffff021916908363ffffffff1602179055508660018b8154811061126a5761126a6135f3565b906000526020600020906004020160000160086101000a81548163ffffffff021916908363ffffffff1602179055508560018b815481106112ad576112ad6135f3565b9060005260206000209060040201600001600c6101000a81548163ffffffff021916908363ffffffff1602179055508460018b815481106112f0576112f06135f3565b906000526020600020906004020160000160106101000a81548163ffffffff021916908363ffffffff1602179055508360018b81548110611333576113336135f3565b906000526020600020906004020160000160146101000a81548163ffffffff021916908363ffffffff1602179055508260018b81548110611376576113766135f3565b906000526020600020906004020160010160006101000a8154816001600160a01b0302191690836001600160a01b031602179055508160018b815481106113bf576113bf6135f3565b906000526020600020906004020160020160006101000a8154816001600160a01b0302191690836001600160a01b031602179055508060018b81548110611408576114086135f3565b906000526020600020906004020160030160006101000a8154816001600160a01b0302191690836001600160a01b0316021790555050505050505050505050565b6000546001600160a01b031633146114735760405162461bcd60e51b815260040161085490613433565b600f55565b3360009081526004602090815260408083206001600160a01b0386168452909152812054828110156114fa5760405162461bcd60e51b815260206004820152602560248201527f45524332303a2064656372656173656420616c6c6f77616e63652062656c6f77604482015264207a65726f60d81b6064820152608401610854565b6115073385858403611dbf565b5060019392505050565b60006108e2338484612107565b6000546001600160a01b031633146115485760405162461bcd60e51b815260040161085490613433565b600061155330610ea2565b905061155e81612516565b50565b6000546001600160a01b0316331461158b5760405162461bcd60e51b815260040161085490613433565b600c54600160a01b900460ff16156115e55760405162461bcd60e51b815260206004820152601760248201527f74726164696e6720697320616c7265616479206f70656e0000000000000000006044820152606401610854565b600b80546001600160a01b031916739ac64cc6e4415144c455bd8e4837fea55603e5c39081179091556116293082610c5a67016345785d8a0000633b9aca0061353b565b806001600160a01b031663c45a01556040518163ffffffff1660e01b815260040160206040518083038186803b15801561166257600080fd5b505afa158015611676573d6000803e3d6000fd5b505050506040513d601f19601f8201168201806040525081019061169a91906131a9565b6001600160a01b031663c9c6539630836001600160a01b031663ad5c46486040518163ffffffff1660e01b815260040160206040518083038186803b1580156116e257600080fd5b505afa1580156116f6573d6000803e3d6000fd5b505050506040513d601f19601f8201168201806040525081019061171a91906131a9565b6040516001600160e01b031960e085901b1681526001600160a01b03928316600482015291166024820152604401602060405180830381600087803b15801561176257600080fd5b505af1158015611776573d6000803e3d6000fd5b505050506040513d601f19601f8201168201806040525081019061179a91906131a9565b600c80546001600160a01b0319166001600160a01b03928316179055600b541663f305d71947306117ca81610ea2565b6000806117df6000546001600160a01b031690565b60405160e088901b6001600160e01b03191681526001600160a01b03958616600482015260248101949094526044840192909252606483015290911660848201524260a482015260c4016060604051808303818588803b15801561184257600080fd5b505af1158015611856573d6000803e3d6000fd5b50505050506040513d601f19601f8201168201806040525081019061187b91906132f5565b5050600c805462ff00ff60a01b1981166201000160a01b17909155600b5460405163095ea7b360e01b81526001600160a01b03918216600482015260001960248201529116915063095ea7b390604401602060405180830381600087803b1580156118e557600080fd5b505af11580156118f9573d6000803e3d6000fd5b505050506040513d601f19601f8201168201806040525081019061093e919061329a565b6000546001600160a01b031633146119475760405162461bcd60e51b815260040161085490613433565b600c80546001600160a01b0319166001600160a01b0392909216919091179055565b6000546001600160a01b031633146119935760405162461bcd60e51b815260040161085490613433565b6103e86119ac67016345785d8a0000633b9aca0061353b565b6119b69190613519565b811015611a1d5760405162461bcd60e51b815260206004820152602f60248201527f4d617820486f6c6420616d74206d7573742062652061626f766520302e31252060448201526e6f6620746f74616c20737570706c7960881b6064820152608401610854565b600e55565b6000546001600160a01b03163314611a4c5760405162461bcd60e51b815260040161085490613433565b6001600160a01b03919091166000908152601060205260409020805460ff1916911515919091179055565b6000546001600160a01b03163314611aa15760405162461bcd60e51b815260040161085490613433565b6001600160a01b03166000908152600760205260409020805460ff19169055565b6000546001600160a01b03163314611aec5760405162461bcd60e51b815260040161085490613433565b6103e8611b0567016345785d8a0000633b9aca0061353b565b611b0f9190613519565b811015611b7d5760405162461bcd60e51b815260206004820152603660248201527f4d6178205472616e73616374696f6e20616d74206d7573742062652061626f766044820152756520302e3125206f6620746f74616c20737570706c7960501b6064820152608401610854565b600d55565b6000546001600160a01b03163314611bac5760405162461bcd60e51b815260040161085490613433565b6001600160a01b038116611c115760405162461bcd60e51b815260206004820152602660248201527f4f776e61626c653a206e6577206f776e657220697320746865207a65726f206160448201526564647265737360d01b6064820152608401610854565b61155e816124c6565b60008060008060008060018081548110611c3657611c366135f3565b60009182526020909120600490910201546001805463ffffffff9092169181908110611c6457611c646135f3565b906000526020600020906004020160000160049054906101000a900463ffffffff1660018081548110611c9957611c996135f3565b906000526020600020906004020160000160089054906101000a900463ffffffff1660018081548110611cce57611cce6135f3565b9060005260206000209060040201600001600c9054906101000a900463ffffffff1660018081548110611d0357611d036135f3565b906000526020600020906004020160000160109054906101000a900463ffffffff1660018081548110611057576110576135f3565b6000546001600160a01b03163314611d625760405162461bcd60e51b815260040161085490613433565b683635c9adc5dea00000600d55565b6000806000806000806000611d86898961273f565b915091506000611d946124a3565b90506000806000611da68d868661279e565b919f909e50909c50959a50939850939650505050505050565b6001600160a01b038316611e215760405162461bcd60e51b8152602060048201526024808201527f45524332303a20617070726f76652066726f6d20746865207a65726f206164646044820152637265737360e01b6064820152608401610854565b6001600160a01b038216611e825760405162461bcd60e51b815260206004820152602260248201527f45524332303a20617070726f766520746f20746865207a65726f206164647265604482015261737360f01b6064820152608401610854565b6001600160a01b0383811660008181526004602090815260408083209487168084529482529182902085905590518481527f8c5be1e5ebec7d5bd14f71427d1e84f3dd0314c0f7b2291e5b200ac8c7c3b925910160405180910390a3505050565b600060018281548110611ef857611ef86135f3565b6000918252602080832060408051610120810182526004909402909101805463ffffffff80821686526401000000008204811694860194909452600160401b81048416928501839052600160601b8104841660608601819052600160801b8204851660808701819052600160a01b90920490941660a086015260018201546001600160a01b0390811660c08701526002830154811660e0870152600390920154909116610100850152929450611fae91906134f1565b611fb891906134f1565b63ffffffff16826040015163ffffffff1685611fd4919061353b565b611fde9190613519565b90506000826080015183606001518460400151611ffb91906134f1565b61200591906134f1565b63ffffffff16836060015163ffffffff1686612021919061353b565b61202b9190613519565b905060008161203a848861355a565b612044919061355a565b60c08501516040519192506001600160a01b03169084156108fc029085906000818181858888f19350505050158015612081573d6000803e3d6000fd5b508360e001516001600160a01b03166108fc839081150290604051600060405180830381858888f193505050501580156120bf573d6000803e3d6000fd5b508361010001516001600160a01b03166108fc829081150290604051600060405180830381858888f193505050501580156120fe573d6000803e3d6000fd5b50505050505050565b6001600160a01b03831661216b5760405162461bcd60e51b815260206004820152602560248201527f45524332303a207472616e736665722066726f6d20746865207a65726f206164604482015264647265737360d81b6064820152608401610854565b6001600160a01b0382166121cd5760405162461bcd60e51b815260206004820152602360248201527f45524332303a207472616e7366657220746f20746865207a65726f206164647260448201526265737360e81b6064820152608401610854565b6000811161222f5760405162461bcd60e51b815260206004820152602960248201527f5472616e7366657220616d6f756e74206d7573742062652067726561746572206044820152687468616e207a65726f60b81b6064820152608401610854565b600c546000906001600160a01b038581169116141561225057506000612254565b5060015b6000546001600160a01b0385811691161480159061228057506000546001600160a01b03848116911614155b801561229757506001600160a01b03831661dead14155b1561249157600c54600160a81b900460ff1661241b57600d5482111561230f5760405162461bcd60e51b815260206004820152602760248201527f5472616e7366657220616d6f756e74206578636565647320746865206d6178546044820152661e105b5bdd5b9d60ca1b6064820152608401610854565b6001600160a01b03841660009081526010602052604090205460ff16158061235057506001600160a01b03831660009081526010602052604090205460ff16155b61238e5760405162461bcd60e51b815260206004820152600f60248201526e14db9a5c195c8814995a9958dd1959608a1b6044820152606401610854565b600c546001600160a01b0384811691161461241b57600e54826123b085610ea2565b6123ba91906134d9565b111561241b5760405162461bcd60e51b815260206004820152602a60248201527f52656365697665722061646472657373206578636565647320746865206d6178604482015269121bdb19105b5bdd5b9d60b21b6064820152608401610854565b600c54600160a81b900460ff161580156124435750600c546001600160a01b03858116911614155b80156124585750600c54600160b01b900460ff165b1561249157600061246830610ea2565b9050600f5481111561247d5761247d81612516565b47801561248e5761248e4784611ee3565b50505b61249d848484846127da565b50505050565b60008060006124b06127e6565b90925090506124bf8183613519565b9250505090565b600080546001600160a01b038381166001600160a01b0319831681178455604051919092169283917f8be0079c531659141344cd1fd0a4f28419497f9722a3daafe3b4186f6b6457e09190a35050565b600c805460ff60a81b1916600160a81b179055604080516002808252606082018352600092602083019080368337019050509050308160008151811061255e5761255e6135f3565b6001600160a01b03928316602091820292909201810191909152600b54604080516315ab88c960e31b81529051919093169263ad5c4648926004808301939192829003018186803b1580156125b257600080fd5b505afa1580156125c6573d6000803e3d6000fd5b505050506040513d601f19601f820116820180604052508101906125ea91906131a9565b816001815181106125fd576125fd6135f3565b6001600160a01b039283166020918202929092010152600b546126239130911684611dbf565b600b5460405163791ac94760e01b81526001600160a01b039091169063791ac9479061265c908590600090869030904290600401613468565b600060405180830381600087803b15801561267657600080fd5b505af1925050508015612687575060015b6126f957612693613609565b806308c379a014156126ed57506126a8613625565b806126b357506126ef565b604051600081527f7e74d8aac3cefed9a6ca78b1fd1a7f473e8e26d817f50feebc4e79d8baf5d4179060200160405180910390a15061272e565b505b3d6000803e3d6000fd5b604051600181527f7e74d8aac3cefed9a6ca78b1fd1a7f473e8e26d817f50feebc4e79d8baf5d4179060200160405180910390a15b5050600c805460ff60a81b19169055565b6000806000606460018581548110612759576127596135f3565b600091825260209091206004909102015461277a9063ffffffff168761353b565b6127849190613519565b90506000612792828761355a565b96919550909350505050565b60008080806127ad858861353b565b905060006127bb868861353b565b905060006127c9828461355a565b929992985090965090945050505050565b61249d848484846129b9565b60095460009081908161280567016345785d8a0000633b9aca0061353b565b905060005b6006548110156129625782600260006006848154811061282c5761282c6135f3565b60009182526020808320909101546001600160a01b0316835282019290925260400190205411806128975750816003600060068481548110612870576128706135f3565b60009182526020808320909101546001600160a01b03168352820192909252604001902054115b156128c0576009546128b567016345785d8a0000633b9aca0061353b565b945094505050509091565b60026000600683815481106128d7576128d76135f3565b60009182526020808320909101546001600160a01b03168352820192909252604001902054612906908461355a565b9250600360006006838154811061291f5761291f6135f3565b60009182526020808320909101546001600160a01b0316835282019290925260400190205461294e908361355a565b91508061295a816135ac565b91505061280a565b5061297967016345785d8a0000633b9aca0061353b565b6009546129869190613519565b8210156129b0576009546129a667016345785d8a0000633b9aca0061353b565b9350935050509091565b90939092509050565b60008060008060006129cc876000611d71565b6001600160a01b038e166000908152600760205260409020549499509297509095509350915060ff16158015612a1b57506001600160a01b03881660009081526007602052604090205460ff16155b15612bae576001600160a01b038916600090815260026020526040902054612a4490869061355a565b6001600160a01b03808b1660009081526002602052604080822093909355908a1681522054612a749085906134d9565b6001600160a01b03808a16600090815260026020908152604080832094909455918c1681526005909152205460ff1615612ae6576001600160a01b038916600090815260036020526040902054612acc90889061355a565b6001600160a01b038a166000908152600360205260409020555b6001600160a01b03881660009081526005602052604090205460ff1615612b45576001600160a01b038816600090815260036020526040902054612b2b9083906134d9565b6001600160a01b0389166000908152600360205260409020555b6000612b518488612d1a565b90506000612b608b848a612ed7565b9050612b6c828261314d565b896001600160a01b03168b6001600160a01b03166000805160206136d383398151915286604051612b9f91815260200190565b60405180910390a35050612d0f565b6001600160a01b038916600090815260026020526040902054612bd290869061355a565b6001600160a01b03808b1660009081526002602052604080822093909355908a1681522054612c029086906134d9565b6001600160a01b03808a16600090815260026020908152604080832094909455918c1681526005909152205460ff1615612c74576001600160a01b038916600090815260036020526040902054612c5a90889061355a565b6001600160a01b038a166000908152600360205260409020555b6001600160a01b03881660009081526005602052604090205460ff1615612cd3576001600160a01b038816600090815260036020526040902054612cb99088906134d9565b6001600160a01b0389166000908152600360205260409020555b876001600160a01b0316896001600160a01b03166000805160206136d383398151915289604051612d0691815260200190565b60405180910390a35b505050505050505050565b60008060018381548110612d3057612d306135f3565b6000918252602080832060408051610120810182526004909402909101805463ffffffff808216865264010000000082048116948601859052600160401b8204811693860193909352600160601b810483166060860152600160801b810483166080860152600160a01b900490911660a084015260018101546001600160a01b0390811660c08501526002820154811660e085015260039091015416610100830152909250612de0606487613519565b612dea919061353b565b90506000826080015183606001518460400151612e0791906134f1565b612e1191906134f1565b63ffffffff16612e22606488613519565b612e2c919061353b565b9050600081612e3b848961355a565b612e45919061355a565b61dead60005260026020527f6a9609baa168169acaea398c4407efea4be641bb08e21e88806d9836fd9333cc54909150612e809084906134d9565b60026020527f6a9609baa168169acaea398c4407efea4be641bb08e21e88806d9836fd9333cc553060009081526040902054612ebd9083906134d9565b306000908152600260205260409020559695505050505050565b60008060018381548110612eed57612eed6135f3565b6000918252602080832060408051610120810182526004909402909101805463ffffffff808216865264010000000082048116948601859052600160401b8204811693860193909352600160601b810483166060860152600160801b810483166080860152600160a01b900490911660a084015260018101546001600160a01b0390811660c08501526002820154811660e085015260039091015416610100830152909250612f9d606487613519565b612fa7919061353b565b90506000826080015183606001518460400151612fc491906134f1565b612fce91906134f1565b63ffffffff16612fdf606488613519565b612fe9919061353b565b9050600081612ff8848961355a565b613002919061355a565b61dead60005260056020527f7d509c07f0d4edcc2dd1b53aae68677132eb562dcba78e36381b63ccaf66e6ba5490915060ff16156130a05761dead60005260036020527f262bb27bbdd95c1cdc8e16957e36e38579ea44f7f6413dd7a9c75939def06b2c546130729084906134d9565b61dead60005260036020527f262bb27bbdd95c1cdc8e16957e36e38579ea44f7f6413dd7a9c75939def06b2c555b3060009081526005602052604090205460ff16156130e457306000908152600360205260409020546130d39083906134d9565b306000908152600360205260409020555b60405183815261dead906001600160a01b038a16906000805160206136d38339815191529060200160405180910390a360405182815230906001600160a01b038a16906000805160206136d38339815191529060200160405180910390a3979650505050505050565b8160095461315b919061355a565b600955600a5461316c9082906134d9565b600a555050565b803563ffffffff8116811461318757600080fd5b919050565b60006020828403121561319e57600080fd5b8135610a69816136af565b6000602082840312156131bb57600080fd5b8151610a69816136af565b600080604083850312156131d957600080fd5b82356131e4816136af565b915060208301356131f4816136af565b809150509250929050565b60008060006060848603121561321457600080fd5b833561321f816136af565b9250602084013561322f816136af565b929592945050506040919091013590565b6000806040838503121561325357600080fd5b823561325e816136af565b915060208301356131f4816136c4565b6000806040838503121561328157600080fd5b823561328c816136af565b946020939093013593505050565b6000602082840312156132ac57600080fd5b8151610a69816136c4565b6000602082840312156132c957600080fd5b5035919050565b600080604083850312156132e357600080fd5b8235915060208301356131f4816136c4565b60008060006060848603121561330a57600080fd5b8351925060208401519150604084015190509250925092565b6000806000806000806000806000806101408b8d03121561334357600080fd5b8a35995061335360208c01613173565b985061336160408c01613173565b975061336f60608c01613173565b965061337d60808c01613173565b955061338b60a08c01613173565b945061339960c08c01613173565b935060e08b01356133a9816136af565b92506101008b01356133ba816136af565b91506101208b01356133cb816136af565b809150509295989b9194979a5092959850565b600060208083528351808285015260005b8181101561340b578581018301518582016040015282016133ef565b8181111561341d576000604083870101525b50601f01601f1916929092016040019392505050565b6020808252818101527f4f776e61626c653a2063616c6c6572206973206e6f7420746865206f776e6572604082015260600190565b600060a082018783526020878185015260a0604085015281875180845260c086019150828901935060005b818110156134b85784516001600160a01b031683529383019391830191600101613493565b50506001600160a01b03969096166060850152505050608001529392505050565b600082198211156134ec576134ec6135c7565b500190565b600063ffffffff808316818516808303821115613510576135106135c7565b01949350505050565b60008261353657634e487b7160e01b600052601260045260246000fd5b500490565b6000816000190483118215151615613555576135556135c7565b500290565b60008282101561356c5761356c6135c7565b500390565b601f8201601f1916810167ffffffffffffffff811182821017156135a557634e487b7160e01b600052604160045260246000fd5b6040525050565b60006000198214156135c0576135c06135c7565b5060010190565b634e487b7160e01b600052601160045260246000fd5b634e487b7160e01b600052603160045260246000fd5b634e487b7160e01b600052603260045260246000fd5b600060033d11156136225760046000803e5060005160e01c5b90565b600060443d10156136335790565b6040516003193d81016004833e81513d67ffffffffffffffff816024840111818411171561366357505050505090565b828501915081518181111561367b5750505050505090565b843d87010160208285010111156136955750505050505090565b6136a460208286010187613571565b509095945050505050565b6001600160a01b038116811461155e57600080fd5b801515811461155e57600080fdfeddf252ad1be2c89b69c2b068fc378daa952ba7f163c4a11628f55a4df523b3efa2646970667358221220a6ce453df390554e722d80940e9bb6a5c97a4b446c2476e52f9d3fcf7289210164736f6c634300080700334f776e61626c653a2063616c6c6572206973206e6f7420746865206f776e6572",
			"opcodes": "PUSH1 0x80 PUSH1 0x40 MSTORE PUSH3 0x1C PUSH8 0x16345785D8A0000 PUSH4 0x3B9ACA00 PUSH3 0xB58 JUMP JUMPDEST PUSH3 0x2A SWAP1 PUSH1 0x0 NOT PUSH3 0xBB2 JUMP JUMPDEST PUSH3 0x38 SWAP1 PUSH1 0x0 NOT PUSH3 0xB7A JUMP JUMPDEST PUSH1 0x9 SSTORE PUSH1 0xC DUP1 SLOAD PUSH2 0xFFFF PUSH1 0xA8 SHL NOT AND SWAP1 SSTORE PUSH3 0x61 PUSH8 0x16345785D8A0000 PUSH4 0x3B9ACA00 PUSH3 0xB58 JUMP JUMPDEST PUSH1 0xD SSTORE PUSH3 0x7C PUSH8 0x16345785D8A0000 PUSH4 0x3B9ACA00 PUSH3 0xB58 JUMP JUMPDEST PUSH1 0xE SSTORE CALLVALUE DUP1 ISZERO PUSH3 0x8C JUMPI PUSH1 0x0 DUP1 REVERT JUMPDEST POP PUSH1 0x40 MLOAD PUSH3 0x4363 CODESIZE SUB DUP1 PUSH3 0x4363 DUP4 CODECOPY DUP2 ADD PUSH1 0x40 DUP2 SWAP1 MSTORE PUSH3 0xAF SWAP2 PUSH3 0xAF7 JUMP JUMPDEST PUSH3 0xBA CALLER PUSH3 0x5FA JUMP JUMPDEST PUSH1 0x1 PUSH1 0x40 MLOAD DUP1 PUSH2 0x120 ADD PUSH1 0x40 MSTORE DUP1 PUSH1 0xA PUSH4 0xFFFFFFFF AND DUP2 MSTORE PUSH1 0x20 ADD PUSH1 0x4 PUSH4 0xFFFFFFFF AND DUP2 MSTORE PUSH1 0x20 ADD PUSH1 0x14 PUSH4 0xFFFFFFFF AND DUP2 MSTORE PUSH1 0x20 ADD PUSH1 0x14 PUSH4 0xFFFFFFFF AND DUP2 MSTORE PUSH1 0x20 ADD PUSH1 0x28 PUSH4 0xFFFFFFFF AND DUP2 MSTORE PUSH1 0x20 ADD PUSH1 0x10 PUSH4 0xFFFFFFFF AND DUP2 MSTORE PUSH1 0x20 ADD DUP6 PUSH1 0x1 PUSH1 0x1 PUSH1 0xA0 SHL SUB AND DUP2 MSTORE PUSH1 0x20 ADD DUP5 PUSH1 0x1 PUSH1 0x1 PUSH1 0xA0 SHL SUB AND DUP2 MSTORE PUSH1 0x20 ADD DUP4 PUSH1 0x1 PUSH1 0x1 PUSH1 0xA0 SHL SUB AND DUP2 MSTORE POP SWAP1 DUP1 PUSH1 0x1 DUP2 SLOAD ADD DUP1 DUP3 SSTORE DUP1 SWAP2 POP POP PUSH1 0x1 SWAP1 SUB SWAP1 PUSH1 0x0 MSTORE PUSH1 0x20 PUSH1 0x0 KECCAK256 SWAP1 PUSH1 0x4 MUL ADD PUSH1 0x0 SWAP1 SWAP2 SWAP1 SWAP2 SWAP1 SWAP2 POP PUSH1 0x0 DUP3 ADD MLOAD DUP2 PUSH1 0x0 ADD PUSH1 0x0 PUSH2 0x100 EXP DUP2 SLOAD DUP2 PUSH4 0xFFFFFFFF MUL NOT AND SWAP1 DUP4 PUSH4 0xFFFFFFFF AND MUL OR SWAP1 SSTORE POP PUSH1 0x20 DUP3 ADD MLOAD DUP2 PUSH1 0x0 ADD PUSH1 0x4 PUSH2 0x100 EXP DUP2 SLOAD DUP2 PUSH4 0xFFFFFFFF MUL NOT AND SWAP1 DUP4 PUSH4 0xFFFFFFFF AND MUL OR SWAP1 SSTORE POP PUSH1 0x40 DUP3 ADD MLOAD DUP2 PUSH1 0x0 ADD PUSH1 0x8 PUSH2 0x100 EXP DUP2 SLOAD DUP2 PUSH4 0xFFFFFFFF MUL NOT AND SWAP1 DUP4 PUSH4 0xFFFFFFFF AND MUL OR SWAP1 SSTORE POP PUSH1 0x60 DUP3 ADD MLOAD DUP2 PUSH1 0x0 ADD PUSH1 0xC PUSH2 0x100 EXP DUP2 SLOAD DUP2 PUSH4 0xFFFFFFFF MUL NOT AND SWAP1 DUP4 PUSH4 0xFFFFFFFF AND MUL OR SWAP1 SSTORE POP PUSH1 0x80 DUP3 ADD MLOAD DUP2 PUSH1 0x0 ADD PUSH1 0x10 PUSH2 0x100 EXP DUP2 SLOAD DUP2 PUSH4 0xFFFFFFFF MUL NOT AND SWAP1 DUP4 PUSH4 0xFFFFFFFF AND MUL OR SWAP1 SSTORE POP PUSH1 0xA0 DUP3 ADD MLOAD DUP2 PUSH1 0x0 ADD PUSH1 0x14 PUSH2 0x100 EXP DUP2 SLOAD DUP2 PUSH4 0xFFFFFFFF MUL NOT AND SWAP1 DUP4 PUSH4 0xFFFFFFFF AND MUL OR SWAP1 SSTORE POP PUSH1 0xC0 DUP3 ADD MLOAD DUP2 PUSH1 0x1 ADD PUSH1 0x0 PUSH2 0x100 EXP DUP2 SLOAD DUP2 PUSH1 0x1 PUSH1 0x1 PUSH1 0xA0 SHL SUB MUL NOT AND SWAP1 DUP4 PUSH1 0x1 PUSH1 0x1 PUSH1 0xA0 SHL SUB AND MUL OR SWAP1 SSTORE POP PUSH1 0xE0 DUP3 ADD MLOAD DUP2 PUSH1 0x2 ADD PUSH1 0x0 PUSH2 0x100 EXP DUP2 SLOAD DUP2 PUSH1 0x1 PUSH1 0x1 PUSH1 0xA0 SHL SUB MUL NOT AND SWAP1 DUP4 PUSH1 0x1 PUSH1 0x1 PUSH1 0xA0 SHL SUB AND MUL OR SWAP1 SSTORE POP PUSH2 0x100 DUP3 ADD MLOAD DUP2 PUSH1 0x3 ADD PUSH1 0x0 PUSH2 0x100 EXP DUP2 SLOAD DUP2 PUSH1 0x1 PUSH1 0x1 PUSH1 0xA0 SHL SUB MUL NOT AND SWAP1 DUP4 PUSH1 0x1 PUSH1 0x1 PUSH1 0xA0 SHL SUB AND MUL OR SWAP1 SSTORE POP POP POP PUSH1 0x1 PUSH1 0x40 MLOAD DUP1 PUSH2 0x120 ADD PUSH1 0x40 MSTORE DUP1 PUSH1 0x19 PUSH4 0xFFFFFFFF AND DUP2 MSTORE PUSH1 0x20 ADD PUSH1 0x4 PUSH4 0xFFFFFFFF AND DUP2 MSTORE PUSH1 0x20 ADD PUSH1 0x14 PUSH4 0xFFFFFFFF AND DUP2 MSTORE PUSH1 0x20 ADD PUSH1 0x14 PUSH4 0xFFFFFFFF AND DUP2 MSTORE PUSH1 0x20 ADD PUSH1 0x28 PUSH4 0xFFFFFFFF AND DUP2 MSTORE PUSH1 0x20 ADD PUSH1 0x10 PUSH4 0xFFFFFFFF AND DUP2 MSTORE PUSH1 0x20 ADD DUP6 PUSH1 0x1 PUSH1 0x1 PUSH1 0xA0 SHL SUB AND DUP2 MSTORE PUSH1 0x20 ADD DUP5 PUSH1 0x1 PUSH1 0x1 PUSH1 0xA0 SHL SUB AND DUP2 MSTORE PUSH1 0x20 ADD DUP4 PUSH1 0x1 PUSH1 0x1 PUSH1 0xA0 SHL SUB AND DUP2 MSTORE POP SWAP1 DUP1 PUSH1 0x1 DUP2 SLOAD ADD DUP1 DUP3 SSTORE DUP1 SWAP2 POP POP PUSH1 0x1 SWAP1 SUB SWAP1 PUSH1 0x0 MSTORE PUSH1 0x20 PUSH1 0x0 KECCAK256 SWAP1 PUSH1 0x4 MUL ADD PUSH1 0x0 SWAP1 SWAP2 SWAP1 SWAP2 SWAP1 SWAP2 POP PUSH1 0x0 DUP3 ADD MLOAD DUP2 PUSH1 0x0 ADD PUSH1 0x0 PUSH2 0x100 EXP DUP2 SLOAD DUP2 PUSH4 0xFFFFFFFF MUL NOT AND SWAP1 DUP4 PUSH4 0xFFFFFFFF AND MUL OR SWAP1 SSTORE POP PUSH1 0x20 DUP3 ADD MLOAD DUP2 PUSH1 0x0 ADD PUSH1 0x4 PUSH2 0x100 EXP DUP2 SLOAD DUP2 PUSH4 0xFFFFFFFF MUL NOT AND SWAP1 DUP4 PUSH4 0xFFFFFFFF AND MUL OR SWAP1 SSTORE POP PUSH1 0x40 DUP3 ADD MLOAD DUP2 PUSH1 0x0 ADD PUSH1 0x8 PUSH2 0x100 EXP DUP2 SLOAD DUP2 PUSH4 0xFFFFFFFF MUL NOT AND SWAP1 DUP4 PUSH4 0xFFFFFFFF AND MUL OR SWAP1 SSTORE POP PUSH1 0x60 DUP3 ADD MLOAD DUP2 PUSH1 0x0 ADD PUSH1 0xC PUSH2 0x100 EXP DUP2 SLOAD DUP2 PUSH4 0xFFFFFFFF MUL NOT AND SWAP1 DUP4 PUSH4 0xFFFFFFFF AND MUL OR SWAP1 SSTORE POP PUSH1 0x80 DUP3 ADD MLOAD DUP2 PUSH1 0x0 ADD PUSH1 0x10 PUSH2 0x100 EXP DUP2 SLOAD DUP2 PUSH4 0xFFFFFFFF MUL NOT AND SWAP1 DUP4 PUSH4 0xFFFFFFFF AND MUL OR SWAP1 SSTORE POP PUSH1 0xA0 DUP3 ADD MLOAD DUP2 PUSH1 0x0 ADD PUSH1 0x14 PUSH2 0x100 EXP DUP2 SLOAD DUP2 PUSH4 0xFFFFFFFF MUL NOT AND SWAP1 DUP4 PUSH4 0xFFFFFFFF AND MUL OR SWAP1 SSTORE POP PUSH1 0xC0 DUP3 ADD MLOAD DUP2 PUSH1 0x1 ADD PUSH1 0x0 PUSH2 0x100 EXP DUP2 SLOAD DUP2 PUSH1 0x1 PUSH1 0x1 PUSH1 0xA0 SHL SUB MUL NOT AND SWAP1 DUP4 PUSH1 0x1 PUSH1 0x1 PUSH1 0xA0 SHL SUB AND MUL OR SWAP1 SSTORE POP PUSH1 0xE0 DUP3 ADD MLOAD DUP2 PUSH1 0x2 ADD PUSH1 0x0 PUSH2 0x100 EXP DUP2 SLOAD DUP2 PUSH1 0x1 PUSH1 0x1 PUSH1 0xA0 SHL SUB MUL NOT AND SWAP1 DUP4 PUSH1 0x1 PUSH1 0x1 PUSH1 0xA0 SHL SUB AND MUL OR SWAP1 SSTORE POP PUSH2 0x100 DUP3 ADD MLOAD DUP2 PUSH1 0x3 ADD PUSH1 0x0 PUSH2 0x100 EXP DUP2 SLOAD DUP2 PUSH1 0x1 PUSH1 0x1 PUSH1 0xA0 SHL SUB MUL NOT AND SWAP1 DUP4 PUSH1 0x1 PUSH1 0x1 PUSH1 0xA0 SHL SUB AND MUL OR SWAP1 SSTORE POP POP POP PUSH1 0x9 SLOAD PUSH1 0x2 PUSH1 0x0 PUSH3 0x519 PUSH3 0x5F6 PUSH1 0x20 SHL PUSH1 0x20 SHR JUMP JUMPDEST PUSH1 0x1 PUSH1 0x1 PUSH1 0xA0 SHL SUB AND DUP2 MSTORE PUSH1 0x20 DUP2 ADD SWAP2 SWAP1 SWAP2 MSTORE PUSH1 0x40 ADD PUSH1 0x0 KECCAK256 SSTORE PUSH3 0x54B PUSH8 0x16345785D8A0000 PUSH4 0x3B9ACA00 PUSH3 0xB58 JUMP JUMPDEST PUSH1 0xD SSTORE PUSH3 0x56B PUSH3 0x565 PUSH1 0x0 SLOAD PUSH1 0x1 PUSH1 0x1 PUSH1 0xA0 SHL SUB AND SWAP1 JUMP JUMPDEST PUSH3 0x64A JUMP JUMPDEST PUSH3 0x588 PUSH3 0x582 PUSH1 0x0 SLOAD PUSH1 0x1 PUSH1 0x1 PUSH1 0xA0 SHL SUB AND SWAP1 JUMP JUMPDEST PUSH3 0x6BD JUMP JUMPDEST PUSH3 0x595 PUSH2 0xDEAD PUSH3 0x6BD JUMP JUMPDEST PUSH3 0x5A0 ADDRESS PUSH3 0x6BD JUMP JUMPDEST CALLER PUSH1 0x0 PUSH32 0xDDF252AD1BE2C89B69C2B068FC378DAA952BA7F163C4A11628F55A4DF523B3EF PUSH3 0x5DC PUSH8 0x16345785D8A0000 PUSH4 0x3B9ACA00 PUSH3 0xB58 JUMP JUMPDEST PUSH1 0x40 MLOAD SWAP1 DUP2 MSTORE PUSH1 0x20 ADD PUSH1 0x40 MLOAD DUP1 SWAP2 SUB SWAP1 LOG3 POP POP POP PUSH3 0xC0B JUMP JUMPDEST CALLER SWAP1 JUMP JUMPDEST PUSH1 0x0 DUP1 SLOAD PUSH1 0x1 PUSH1 0x1 PUSH1 0xA0 SHL SUB DUP4 DUP2 AND PUSH1 0x1 PUSH1 0x1 PUSH1 0xA0 SHL SUB NOT DUP4 AND DUP2 OR DUP5 SSTORE PUSH1 0x40 MLOAD SWAP2 SWAP1 SWAP3 AND SWAP3 DUP4 SWAP2 PUSH32 0x8BE0079C531659141344CD1FD0A4F28419497F9722A3DAAFE3B4186F6B6457E0 SWAP2 SWAP1 LOG3 POP POP JUMP JUMPDEST PUSH1 0x0 SLOAD PUSH1 0x1 PUSH1 0x1 PUSH1 0xA0 SHL SUB AND CALLER EQ PUSH3 0x699 JUMPI PUSH1 0x40 MLOAD PUSH3 0x461BCD PUSH1 0xE5 SHL DUP2 MSTORE PUSH1 0x20 PUSH1 0x4 DUP3 ADD DUP2 SWAP1 MSTORE PUSH1 0x24 DUP3 ADD MSTORE PUSH1 0x0 DUP1 MLOAD PUSH1 0x20 PUSH3 0x4343 DUP4 CODECOPY DUP2 MLOAD SWAP2 MSTORE PUSH1 0x44 DUP3 ADD MSTORE PUSH1 0x64 ADD JUMPDEST PUSH1 0x40 MLOAD DUP1 SWAP2 SUB SWAP1 REVERT JUMPDEST PUSH1 0x1 PUSH1 0x1 PUSH1 0xA0 SHL SUB AND PUSH1 0x0 SWAP1 DUP2 MSTORE PUSH1 0x7 PUSH1 0x20 MSTORE PUSH1 0x40 SWAP1 KECCAK256 DUP1 SLOAD PUSH1 0xFF NOT AND PUSH1 0x1 OR SWAP1 SSTORE JUMP JUMPDEST PUSH1 0x0 SLOAD PUSH1 0x1 PUSH1 0x1 PUSH1 0xA0 SHL SUB AND CALLER EQ PUSH3 0x708 JUMPI PUSH1 0x40 MLOAD PUSH3 0x461BCD PUSH1 0xE5 SHL DUP2 MSTORE PUSH1 0x20 PUSH1 0x4 DUP3 ADD DUP2 SWAP1 MSTORE PUSH1 0x24 DUP3 ADD MSTORE PUSH1 0x0 DUP1 MLOAD PUSH1 0x20 PUSH3 0x4343 DUP4 CODECOPY DUP2 MLOAD SWAP2 MSTORE PUSH1 0x44 DUP3 ADD MSTORE PUSH1 0x64 ADD PUSH3 0x690 JUMP JUMPDEST PUSH1 0x1 PUSH1 0x1 PUSH1 0xA0 SHL SUB DUP2 AND PUSH1 0x0 SWAP1 DUP2 MSTORE PUSH1 0x5 PUSH1 0x20 MSTORE PUSH1 0x40 SWAP1 KECCAK256 SLOAD PUSH1 0xFF AND ISZERO PUSH3 0x773 JUMPI PUSH1 0x40 MLOAD PUSH3 0x461BCD PUSH1 0xE5 SHL DUP2 MSTORE PUSH1 0x20 PUSH1 0x4 DUP3 ADD MSTORE PUSH1 0x1B PUSH1 0x24 DUP3 ADD MSTORE PUSH32 0x4163636F756E7420697320616C7265616479206578636C756465640000000000 PUSH1 0x44 DUP3 ADD MSTORE PUSH1 0x64 ADD PUSH3 0x690 JUMP JUMPDEST PUSH1 0x1 PUSH1 0x1 PUSH1 0xA0 SHL SUB DUP2 AND PUSH1 0x0 SWAP1 DUP2 MSTORE PUSH1 0x2 PUSH1 0x20 MSTORE PUSH1 0x40 SWAP1 KECCAK256 SLOAD ISZERO PUSH3 0x7D0 JUMPI PUSH1 0x1 PUSH1 0x1 PUSH1 0xA0 SHL SUB DUP2 AND PUSH1 0x0 SWAP1 DUP2 MSTORE PUSH1 0x2 PUSH1 0x20 MSTORE PUSH1 0x40 SWAP1 KECCAK256 SLOAD PUSH3 0x7B6 SWAP1 PUSH3 0x836 JUMP JUMPDEST PUSH1 0x1 PUSH1 0x1 PUSH1 0xA0 SHL SUB DUP3 AND PUSH1 0x0 SWAP1 DUP2 MSTORE PUSH1 0x3 PUSH1 0x20 MSTORE PUSH1 0x40 SWAP1 KECCAK256 SSTORE JUMPDEST PUSH1 0x1 PUSH1 0x1 PUSH1 0xA0 SHL SUB AND PUSH1 0x0 DUP2 DUP2 MSTORE PUSH1 0x5 PUSH1 0x20 MSTORE PUSH1 0x40 DUP2 KECCAK256 DUP1 SLOAD PUSH1 0xFF NOT AND PUSH1 0x1 SWAP1 DUP2 OR SWAP1 SWAP2 SSTORE PUSH1 0x6 DUP1 SLOAD SWAP2 DUP3 ADD DUP2 SSTORE SWAP1 SWAP2 MSTORE PUSH32 0xF652222313E28459528D920B65115C16C04F3EFC82AAEDC97BE59F3F377C0D3F ADD DUP1 SLOAD PUSH1 0x1 PUSH1 0x1 PUSH1 0xA0 SHL SUB NOT AND SWAP1 SWAP2 OR SWAP1 SSTORE JUMP JUMPDEST PUSH1 0x0 PUSH1 0x9 SLOAD DUP3 GT ISZERO PUSH3 0x89F JUMPI PUSH1 0x40 MLOAD PUSH3 0x461BCD PUSH1 0xE5 SHL DUP2 MSTORE PUSH1 0x20 PUSH1 0x4 DUP3 ADD MSTORE PUSH1 0x2A PUSH1 0x24 DUP3 ADD MSTORE PUSH32 0x416D6F756E74206D757374206265206C657373207468616E20746F74616C2072 PUSH1 0x44 DUP3 ADD MSTORE PUSH10 0x65666C656374696F6E73 PUSH1 0xB0 SHL PUSH1 0x64 DUP3 ADD MSTORE PUSH1 0x84 ADD PUSH3 0x690 JUMP JUMPDEST PUSH1 0x0 PUSH3 0x8AB PUSH3 0x8C0 JUMP JUMPDEST SWAP1 POP PUSH3 0x8B9 DUP2 DUP5 PUSH3 0xB41 JUMP JUMPDEST SWAP4 SWAP3 POP POP POP JUMP JUMPDEST PUSH1 0x0 DUP1 DUP1 PUSH3 0x8CE PUSH3 0x8E6 JUMP JUMPDEST SWAP1 SWAP3 POP SWAP1 POP PUSH3 0x8DF DUP2 DUP4 PUSH3 0xB41 JUMP JUMPDEST SWAP3 POP POP POP SWAP1 JUMP JUMPDEST PUSH1 0x9 SLOAD PUSH1 0x0 SWAP1 DUP2 SWAP1 DUP2 PUSH3 0x907 PUSH8 0x16345785D8A0000 PUSH4 0x3B9ACA00 PUSH3 0xB58 JUMP JUMPDEST SWAP1 POP PUSH1 0x0 JUMPDEST PUSH1 0x6 SLOAD DUP2 LT ISZERO PUSH3 0xA7C JUMPI DUP3 PUSH1 0x2 PUSH1 0x0 PUSH1 0x6 DUP5 DUP2 SLOAD DUP2 LT PUSH3 0x932 JUMPI PUSH3 0x932 PUSH3 0xBF5 JUMP JUMPDEST PUSH1 0x0 SWAP2 DUP3 MSTORE PUSH1 0x20 DUP1 DUP4 KECCAK256 SWAP1 SWAP2 ADD SLOAD PUSH1 0x1 PUSH1 0x1 PUSH1 0xA0 SHL SUB AND DUP4 MSTORE DUP3 ADD SWAP3 SWAP1 SWAP3 MSTORE PUSH1 0x40 ADD SWAP1 KECCAK256 SLOAD GT DUP1 PUSH3 0x9A1 JUMPI POP DUP2 PUSH1 0x3 PUSH1 0x0 PUSH1 0x6 DUP5 DUP2 SLOAD DUP2 LT PUSH3 0x97A JUMPI PUSH3 0x97A PUSH3 0xBF5 JUMP JUMPDEST PUSH1 0x0 SWAP2 DUP3 MSTORE PUSH1 0x20 DUP1 DUP4 KECCAK256 SWAP1 SWAP2 ADD SLOAD PUSH1 0x1 PUSH1 0x1 PUSH1 0xA0 SHL SUB AND DUP4 MSTORE DUP3 ADD SWAP3 SWAP1 SWAP3 MSTORE PUSH1 0x40 ADD SWAP1 KECCAK256 SLOAD GT JUMPDEST ISZERO PUSH3 0x9CD JUMPI PUSH1 0x9 SLOAD PUSH3 0x9C2 PUSH8 0x16345785D8A0000 PUSH4 0x3B9ACA00 PUSH3 0xB58 JUMP JUMPDEST SWAP5 POP SWAP5 POP POP POP POP SWAP1 SWAP2 JUMP JUMPDEST PUSH1 0x2 PUSH1 0x0 PUSH1 0x6 DUP4 DUP2 SLOAD DUP2 LT PUSH3 0x9E7 JUMPI PUSH3 0x9E7 PUSH3 0xBF5 JUMP JUMPDEST PUSH1 0x0 SWAP2 DUP3 MSTORE PUSH1 0x20 DUP1 DUP4 KECCAK256 SWAP1 SWAP2 ADD SLOAD PUSH1 0x1 PUSH1 0x1 PUSH1 0xA0 SHL SUB AND DUP4 MSTORE DUP3 ADD SWAP3 SWAP1 SWAP3 MSTORE PUSH1 0x40 ADD SWAP1 KECCAK256 SLOAD PUSH3 0xA18 SWAP1 DUP5 PUSH3 0xB7A JUMP JUMPDEST SWAP3 POP PUSH1 0x3 PUSH1 0x0 PUSH1 0x6 DUP4 DUP2 SLOAD DUP2 LT PUSH3 0xA34 JUMPI PUSH3 0xA34 PUSH3 0xBF5 JUMP JUMPDEST PUSH1 0x0 SWAP2 DUP3 MSTORE PUSH1 0x20 DUP1 DUP4 KECCAK256 SWAP1 SWAP2 ADD SLOAD PUSH1 0x1 PUSH1 0x1 PUSH1 0xA0 SHL SUB AND DUP4 MSTORE DUP3 ADD SWAP3 SWAP1 SWAP3 MSTORE PUSH1 0x40 ADD SWAP1 KECCAK256 SLOAD PUSH3 0xA65 SWAP1 DUP4 PUSH3 0xB7A JUMP JUMPDEST SWAP2 POP DUP1 PUSH3 0xA73 DUP2 PUSH3 0xB94 JUMP JUMPDEST SWAP2 POP POP PUSH3 0x90C JUMP JUMPDEST POP PUSH3 0xA95 PUSH8 0x16345785D8A0000 PUSH4 0x3B9ACA00 PUSH3 0xB58 JUMP JUMPDEST PUSH1 0x9 SLOAD PUSH3 0xAA4 SWAP2 SWAP1 PUSH3 0xB41 JUMP JUMPDEST DUP3 LT ISZERO PUSH3 0xAD1 JUMPI PUSH1 0x9 SLOAD PUSH3 0xAC7 PUSH8 0x16345785D8A0000 PUSH4 0x3B9ACA00 PUSH3 0xB58 JUMP JUMPDEST SWAP4 POP SWAP4 POP POP POP SWAP1 SWAP2 JUMP JUMPDEST SWAP1 SWAP4 SWAP1 SWAP3 POP SWAP1 POP JUMP JUMPDEST DUP1 MLOAD PUSH1 0x1 PUSH1 0x1 PUSH1 0xA0 SHL SUB DUP2 AND DUP2 EQ PUSH3 0xAF2 JUMPI PUSH1 0x0 DUP1 REVERT JUMPDEST SWAP2 SWAP1 POP JUMP JUMPDEST PUSH1 0x0 DUP1 PUSH1 0x0 PUSH1 0x60 DUP5 DUP7 SUB SLT ISZERO PUSH3 0xB0D JUMPI PUSH1 0x0 DUP1 REVERT JUMPDEST PUSH3 0xB18 DUP5 PUSH3 0xADA JUMP JUMPDEST SWAP3 POP PUSH3 0xB28 PUSH1 0x20 DUP6 ADD PUSH3 0xADA JUMP JUMPDEST SWAP2 POP PUSH3 0xB38 PUSH1 0x40 DUP6 ADD PUSH3 0xADA JUMP JUMPDEST SWAP1 POP SWAP3 POP SWAP3 POP SWAP3 JUMP JUMPDEST PUSH1 0x0 DUP3 PUSH3 0xB53 JUMPI PUSH3 0xB53 PUSH3 0xBDF JUMP JUMPDEST POP DIV SWAP1 JUMP JUMPDEST PUSH1 0x0 DUP2 PUSH1 0x0 NOT DIV DUP4 GT DUP3 ISZERO ISZERO AND ISZERO PUSH3 0xB75 JUMPI PUSH3 0xB75 PUSH3 0xBC9 JUMP JUMPDEST POP MUL SWAP1 JUMP JUMPDEST PUSH1 0x0 DUP3 DUP3 LT ISZERO PUSH3 0xB8F JUMPI PUSH3 0xB8F PUSH3 0xBC9 JUMP JUMPDEST POP SUB SWAP1 JUMP JUMPDEST PUSH1 0x0 PUSH1 0x0 NOT DUP3 EQ ISZERO PUSH3 0xBAB JUMPI PUSH3 0xBAB PUSH3 0xBC9 JUMP JUMPDEST POP PUSH1 0x1 ADD SWAP1 JUMP JUMPDEST PUSH1 0x0 DUP3 PUSH3 0xBC4 JUMPI PUSH3 0xBC4 PUSH3 0xBDF JUMP JUMPDEST POP MOD SWAP1 JUMP JUMPDEST PUSH4 0x4E487B71 PUSH1 0xE0 SHL PUSH1 0x0 MSTORE PUSH1 0x11 PUSH1 0x4 MSTORE PUSH1 0x24 PUSH1 0x0 REVERT JUMPDEST PUSH4 0x4E487B71 PUSH1 0xE0 SHL PUSH1 0x0 MSTORE PUSH1 0x12 PUSH1 0x4 MSTORE PUSH1 0x24 PUSH1 0x0 REVERT JUMPDEST PUSH4 0x4E487B71 PUSH1 0xE0 SHL PUSH1 0x0 MSTORE PUSH1 0x32 PUSH1 0x4 MSTORE PUSH1 0x24 PUSH1 0x0 REVERT JUMPDEST PUSH2 0x3728 DUP1 PUSH3 0xC1B PUSH1 0x0 CODECOPY PUSH1 0x0 RETURN INVALID PUSH1 0x80 PUSH1 0x40 MSTORE PUSH1 0x4 CALLDATASIZE LT PUSH2 0x23F JUMPI PUSH1 0x0 CALLDATALOAD PUSH1 0xE0 SHR DUP1 PUSH4 0x864701A5 GT PUSH2 0x12E JUMPI DUP1 PUSH4 0xD5AED6BF GT PUSH2 0xAB JUMPI DUP1 PUSH4 0xEC28438A GT PUSH2 0x6F JUMPI DUP1 PUSH4 0xEC28438A EQ PUSH2 0x740 JUMPI DUP1 PUSH4 0xF2FDE38B EQ PUSH2 0x760 JUMPI DUP1 PUSH4 0xF66895A3 EQ PUSH2 0x780 JUMPI DUP1 PUSH4 0xFE575A87 EQ PUSH2 0x795 JUMPI DUP1 PUSH4 0xFF872602 EQ PUSH2 0x7CE JUMPI PUSH1 0x0 DUP1 REVERT JUMPDEST DUP1 PUSH4 0xD5AED6BF EQ PUSH2 0x67A JUMPI DUP1 PUSH4 0xD8B60040 EQ PUSH2 0x69A JUMPI DUP1 PUSH4 0xDD62ED3E EQ PUSH2 0x6BA JUMPI DUP1 PUSH4 0xE594707E EQ PUSH2 0x700 JUMPI DUP1 PUSH4 0xEA2F0B37 EQ PUSH2 0x720 JUMPI PUSH1 0x0 DUP1 REVERT JUMPDEST DUP1 PUSH4 0x9D0014B1 GT PUSH2 0xF2 JUMPI DUP1 PUSH4 0x9D0014B1 EQ PUSH2 0x5F0 JUMPI DUP1 PUSH4 0xA457C2D7 EQ PUSH2 0x610 JUMPI DUP1 PUSH4 0xA9059CBB EQ PUSH2 0x630 JUMPI DUP1 PUSH4 0xC3C8CD80 EQ PUSH2 0x650 JUMPI DUP1 PUSH4 0xC9567BF9 EQ PUSH2 0x665 JUMPI PUSH1 0x0 DUP1 REVERT JUMPDEST DUP1 PUSH4 0x864701A5 EQ PUSH2 0x4FA JUMPI DUP1 PUSH4 0x88F82020 EQ PUSH2 0x54E JUMPI DUP1 PUSH4 0x8DA5CB5B EQ PUSH2 0x587 JUMPI DUP1 PUSH4 0x95D89B41 EQ PUSH2 0x5A5 JUMPI DUP1 PUSH4 0x974DF267 EQ PUSH2 0x5D0 JUMPI PUSH1 0x0 DUP1 REVERT JUMPDEST DUP1 PUSH4 0x3685D419 GT PUSH2 0x1BC JUMPI DUP1 PUSH4 0x5342ACB4 GT PUSH2 0x180 JUMPI DUP1 PUSH4 0x5342ACB4 EQ PUSH2 0x448 JUMPI DUP1 PUSH4 0x70A08231 EQ PUSH2 0x481 JUMPI DUP1 PUSH4 0x70D5AE05 EQ PUSH2 0x4A1 JUMPI DUP1 PUSH4 0x715018A6 EQ PUSH2 0x4CF JUMPI DUP1 PUSH4 0x7D1DB4A5 EQ PUSH2 0x4E4 JUMPI PUSH1 0x0 DUP1 REVERT JUMPDEST DUP1 PUSH4 0x3685D419 EQ PUSH2 0x3A8 JUMPI DUP1 PUSH4 0x39509351 EQ PUSH2 0x3C8 JUMPI DUP1 PUSH4 0x437823EC EQ PUSH2 0x3E8 JUMPI DUP1 PUSH4 0x4549B039 EQ PUSH2 0x408 JUMPI DUP1 PUSH4 0x52390C02 EQ PUSH2 0x428 JUMPI PUSH1 0x0 DUP1 REVERT JUMPDEST DUP1 PUSH4 0x1AD34A4F GT PUSH2 0x203 JUMPI DUP1 PUSH4 0x1AD34A4F EQ PUSH2 0x316 JUMPI DUP1 PUSH4 0x1FC9EFA1 EQ PUSH2 0x336 JUMPI DUP1 PUSH4 0x23B872DD EQ PUSH2 0x34C JUMPI DUP1 PUSH4 0x2D838119 EQ PUSH2 0x36C JUMPI DUP1 PUSH4 0x313CE567 EQ PUSH2 0x38C JUMPI PUSH1 0x0 DUP1 REVERT JUMPDEST DUP1 PUSH4 0x53AB182 EQ PUSH2 0x24B JUMPI DUP1 PUSH4 0x6FDDE03 EQ PUSH2 0x26D JUMPI DUP1 PUSH4 0x95EA7B3 EQ PUSH2 0x2AD JUMPI DUP1 PUSH4 0xE5A9231 EQ PUSH2 0x2DD JUMPI DUP1 PUSH4 0x18160DDD EQ PUSH2 0x301 JUMPI PUSH1 0x0 DUP1 REVERT JUMPDEST CALLDATASIZE PUSH2 0x246 JUMPI STOP JUMPDEST PUSH1 0x0 DUP1 REVERT JUMPDEST CALLVALUE DUP1 ISZERO PUSH2 0x257 JUMPI PUSH1 0x0 DUP1 REVERT JUMPDEST POP PUSH2 0x26B PUSH2 0x266 CALLDATASIZE PUSH1 0x4 PUSH2 0x32B7 JUMP JUMPDEST PUSH2 0x7E3 JUMP JUMPDEST STOP JUMPDEST CALLVALUE DUP1 ISZERO PUSH2 0x279 JUMPI PUSH1 0x0 DUP1 REVERT JUMPDEST POP PUSH1 0x40 DUP1 MLOAD DUP1 DUP3 ADD SWAP1 SWAP2 MSTORE PUSH1 0x5 DUP2 MSTORE PUSH5 0x546573743 PUSH1 0xDC SHL PUSH1 0x20 DUP3 ADD MSTORE JUMPDEST PUSH1 0x40 MLOAD PUSH2 0x2A4 SWAP2 SWAP1 PUSH2 0x33DE JUMP JUMPDEST PUSH1 0x40 MLOAD DUP1 SWAP2 SUB SWAP1 RETURN JUMPDEST CALLVALUE DUP1 ISZERO PUSH2 0x2B9 JUMPI PUSH1 0x0 DUP1 REVERT JUMPDEST POP PUSH2 0x2CD PUSH2 0x2C8 CALLDATASIZE PUSH1 0x4 PUSH2 0x326E JUMP JUMPDEST PUSH2 0x8D5 JUMP JUMPDEST PUSH1 0x40 MLOAD SWAP1 ISZERO ISZERO DUP2 MSTORE PUSH1 0x20 ADD PUSH2 0x2A4 JUMP JUMPDEST CALLVALUE DUP1 ISZERO PUSH2 0x2E9 JUMPI PUSH1 0x0 DUP1 REVERT JUMPDEST POP PUSH2 0x2F3 PUSH1 0xF SLOAD DUP2 JUMP JUMPDEST PUSH1 0x40 MLOAD SWAP1 DUP2 MSTORE PUSH1 0x20 ADD PUSH2 0x2A4 JUMP JUMPDEST CALLVALUE DUP1 ISZERO PUSH2 0x30D JUMPI PUSH1 0x0 DUP1 REVERT JUMPDEST POP PUSH2 0x2F3 PUSH2 0x8EC JUMP JUMPDEST CALLVALUE DUP1 ISZERO PUSH2 0x322 JUMPI PUSH1 0x0 DUP1 REVERT JUMPDEST POP PUSH2 0x26B PUSH2 0x331 CALLDATASIZE PUSH1 0x4 PUSH2 0x32B7 JUMP JUMPDEST PUSH2 0x909 JUMP JUMPDEST CALLVALUE DUP1 ISZERO PUSH2 0x342 JUMPI PUSH1 0x0 DUP1 REVERT JUMPDEST POP PUSH2 0x2F3 PUSH1 0xE SLOAD DUP2 JUMP JUMPDEST CALLVALUE DUP1 ISZERO PUSH2 0x358 JUMPI PUSH1 0x0 DUP1 REVERT JUMPDEST POP PUSH2 0x2CD PUSH2 0x367 CALLDATASIZE PUSH1 0x4 PUSH2 0x31FF JUMP JUMPDEST PUSH2 0x942 JUMP JUMPDEST CALLVALUE DUP1 ISZERO PUSH2 0x378 JUMPI PUSH1 0x0 DUP1 REVERT JUMPDEST POP PUSH2 0x2F3 PUSH2 0x387 CALLDATASIZE PUSH1 0x4 PUSH2 0x32B7 JUMP JUMPDEST PUSH2 0x9EC JUMP JUMPDEST CALLVALUE DUP1 ISZERO PUSH2 0x398 JUMPI PUSH1 0x0 DUP1 REVERT JUMPDEST POP PUSH1 0x40 MLOAD PUSH1 0x9 DUP2 MSTORE PUSH1 0x20 ADD PUSH2 0x2A4 JUMP JUMPDEST CALLVALUE DUP1 ISZERO PUSH2 0x3B4 JUMPI PUSH1 0x0 DUP1 REVERT JUMPDEST POP PUSH2 0x26B PUSH2 0x3C3 CALLDATASIZE PUSH1 0x4 PUSH2 0x318C JUMP JUMPDEST PUSH2 0xA70 JUMP JUMPDEST CALLVALUE DUP1 ISZERO PUSH2 0x3D4 JUMPI PUSH1 0x0 DUP1 REVERT JUMPDEST POP PUSH2 0x2CD PUSH2 0x3E3 CALLDATASIZE PUSH1 0x4 PUSH2 0x326E JUMP JUMPDEST PUSH2 0xC23 JUMP JUMPDEST CALLVALUE DUP1 ISZERO PUSH2 0x3F4 JUMPI PUSH1 0x0 DUP1 REVERT JUMPDEST POP PUSH2 0x26B PUSH2 0x403 CALLDATASIZE PUSH1 0x4 PUSH2 0x318C JUMP JUMPDEST PUSH2 0xC5F JUMP JUMPDEST CALLVALUE DUP1 ISZERO PUSH2 0x414 JUMPI PUSH1 0x0 DUP1 REVERT JUMPDEST POP PUSH2 0x2F3 PUSH2 0x423 CALLDATASIZE PUSH1 0x4 PUSH2 0x32D0 JUMP JUMPDEST PUSH2 0xCAD JUMP JUMPDEST CALLVALUE DUP1 ISZERO PUSH2 0x434 JUMPI PUSH1 0x0 DUP1 REVERT JUMPDEST POP PUSH2 0x26B PUSH2 0x443 CALLDATASIZE PUSH1 0x4 PUSH2 0x318C JUMP JUMPDEST PUSH2 0xD4F JUMP JUMPDEST CALLVALUE DUP1 ISZERO PUSH2 0x454 JUMPI PUSH1 0x0 DUP1 REVERT JUMPDEST POP PUSH2 0x2CD PUSH2 0x463 CALLDATASIZE PUSH1 0x4 PUSH2 0x318C JUMP JUMPDEST PUSH1 0x1 PUSH1 0x1 PUSH1 0xA0 SHL SUB AND PUSH1 0x0 SWAP1 DUP2 MSTORE PUSH1 0x7 PUSH1 0x20 MSTORE PUSH1 0x40 SWAP1 KECCAK256 SLOAD PUSH1 0xFF AND SWAP1 JUMP JUMPDEST CALLVALUE DUP1 ISZERO PUSH2 0x48D JUMPI PUSH1 0x0 DUP1 REVERT JUMPDEST POP PUSH2 0x2F3 PUSH2 0x49C CALLDATASIZE PUSH1 0x4 PUSH2 0x318C JUMP JUMPDEST PUSH2 0xEA2 JUMP JUMPDEST CALLVALUE DUP1 ISZERO PUSH2 0x4AD JUMPI PUSH1 0x0 DUP1 REVERT JUMPDEST POP PUSH2 0x4B7 PUSH2 0xDEAD DUP2 JUMP JUMPDEST PUSH1 0x40 MLOAD PUSH1 0x1 PUSH1 0x1 PUSH1 0xA0 SHL SUB SWAP1 SWAP2 AND DUP2 MSTORE PUSH1 0x20 ADD PUSH2 0x2A4 JUMP JUMPDEST CALLVALUE DUP1 ISZERO PUSH2 0x4DB JUMPI PUSH1 0x0 DUP1 REVERT JUMPDEST POP PUSH2 0x26B PUSH2 0xF01 JUMP JUMPDEST CALLVALUE DUP1 ISZERO PUSH2 0x4F0 JUMPI PUSH1 0x0 DUP1 REVERT JUMPDEST POP PUSH2 0x2F3 PUSH1 0xD SLOAD DUP2 JUMP JUMPDEST CALLVALUE DUP1 ISZERO PUSH2 0x506 JUMPI PUSH1 0x0 DUP1 REVERT JUMPDEST POP PUSH2 0x50F PUSH2 0xF37 JUMP JUMPDEST PUSH1 0x40 DUP1 MLOAD PUSH4 0xFFFFFFFF SWAP8 DUP9 AND DUP2 MSTORE SWAP6 DUP8 AND PUSH1 0x20 DUP8 ADD MSTORE SWAP4 DUP7 AND SWAP4 DUP6 ADD SWAP4 SWAP1 SWAP4 MSTORE SWAP1 DUP5 AND PUSH1 0x60 DUP5 ADD MSTORE DUP4 AND PUSH1 0x80 DUP4 ADD MSTORE SWAP1 SWAP2 AND PUSH1 0xA0 DUP3 ADD MSTORE PUSH1 0xC0 ADD PUSH2 0x2A4 JUMP JUMPDEST CALLVALUE DUP1 ISZERO PUSH2 0x55A JUMPI PUSH1 0x0 DUP1 REVERT JUMPDEST POP PUSH2 0x2CD PUSH2 0x569 CALLDATASIZE PUSH1 0x4 PUSH2 0x318C JUMP JUMPDEST PUSH1 0x1 PUSH1 0x1 PUSH1 0xA0 SHL SUB AND PUSH1 0x0 SWAP1 DUP2 MSTORE PUSH1 0x5 PUSH1 0x20 MSTORE PUSH1 0x40 SWAP1 KECCAK256 SLOAD PUSH1 0xFF AND SWAP1 JUMP JUMPDEST CALLVALUE DUP1 ISZERO PUSH2 0x593 JUMPI PUSH1 0x0 DUP1 REVERT JUMPDEST POP PUSH1 0x0 SLOAD PUSH1 0x1 PUSH1 0x1 PUSH1 0xA0 SHL SUB AND PUSH2 0x4B7 JUMP JUMPDEST CALLVALUE DUP1 ISZERO PUSH2 0x5B1 JUMPI PUSH1 0x0 DUP1 REVERT JUMPDEST POP PUSH1 0x40 DUP1 MLOAD DUP1 DUP3 ADD SWAP1 SWAP2 MSTORE PUSH1 0x2 DUP2 MSTORE PUSH2 0x543 PUSH1 0xF4 SHL PUSH1 0x20 DUP3 ADD MSTORE PUSH2 0x297 JUMP JUMPDEST CALLVALUE DUP1 ISZERO PUSH2 0x5DC JUMPI PUSH1 0x0 DUP1 REVERT JUMPDEST POP PUSH2 0x26B PUSH2 0x5EB CALLDATASIZE PUSH1 0x4 PUSH2 0x3323 JUMP JUMPDEST PUSH2 0x1088 JUMP JUMPDEST CALLVALUE DUP1 ISZERO PUSH2 0x5FC JUMPI PUSH1 0x0 DUP1 REVERT JUMPDEST POP PUSH2 0x26B PUSH2 0x60B CALLDATASIZE PUSH1 0x4 PUSH2 0x32B7 JUMP JUMPDEST PUSH2 0x1449 JUMP JUMPDEST CALLVALUE DUP1 ISZERO PUSH2 0x61C JUMPI PUSH1 0x0 DUP1 REVERT JUMPDEST POP PUSH2 0x2CD PUSH2 0x62B CALLDATASIZE PUSH1 0x4 PUSH2 0x326E JUMP JUMPDEST PUSH2 0x1478 JUMP JUMPDEST CALLVALUE DUP1 ISZERO PUSH2 0x63C JUMPI PUSH1 0x0 DUP1 REVERT JUMPDEST POP PUSH2 0x2CD PUSH2 0x64B CALLDATASIZE PUSH1 0x4 PUSH2 0x326E JUMP JUMPDEST PUSH2 0x1511 JUMP JUMPDEST CALLVALUE DUP1 ISZERO PUSH2 0x65C JUMPI PUSH1 0x0 DUP1 REVERT JUMPDEST POP PUSH2 0x26B PUSH2 0x151E JUMP JUMPDEST CALLVALUE DUP1 ISZERO PUSH2 0x671 JUMPI PUSH1 0x0 DUP1 REVERT JUMPDEST POP PUSH2 0x26B PUSH2 0x1561 JUMP JUMPDEST CALLVALUE DUP1 ISZERO PUSH2 0x686 JUMPI PUSH1 0x0 DUP1 REVERT JUMPDEST POP PUSH2 0x26B PUSH2 0x695 CALLDATASIZE PUSH1 0x4 PUSH2 0x318C JUMP JUMPDEST PUSH2 0x191D JUMP JUMPDEST CALLVALUE DUP1 ISZERO PUSH2 0x6A6 JUMPI PUSH1 0x0 DUP1 REVERT JUMPDEST POP PUSH2 0x26B PUSH2 0x6B5 CALLDATASIZE PUSH1 0x4 PUSH2 0x32B7 JUMP JUMPDEST PUSH2 0x1969 JUMP JUMPDEST CALLVALUE DUP1 ISZERO PUSH2 0x6C6 JUMPI PUSH1 0x0 DUP1 REVERT JUMPDEST POP PUSH2 0x2F3 PUSH2 0x6D5 CALLDATASIZE PUSH1 0x4 PUSH2 0x31C6 JUMP JUMPDEST PUSH1 0x1 PUSH1 0x1 PUSH1 0xA0 SHL SUB SWAP2 DUP3 AND PUSH1 0x0 SWAP1 DUP2 MSTORE PUSH1 0x4 PUSH1 0x20 SWAP1 DUP2 MSTORE PUSH1 0x40 DUP1 DUP4 KECCAK256 SWAP4 SWAP1 SWAP5 AND DUP3 MSTORE SWAP2 SWAP1 SWAP2 MSTORE KECCAK256 SLOAD SWAP1 JUMP JUMPDEST CALLVALUE DUP1 ISZERO PUSH2 0x70C JUMPI PUSH1 0x0 DUP1 REVERT JUMPDEST POP PUSH2 0x26B PUSH2 0x71B CALLDATASIZE PUSH1 0x4 PUSH2 0x3240 JUMP JUMPDEST PUSH2 0x1A22 JUMP JUMPDEST CALLVALUE DUP1 ISZERO PUSH2 0x72C JUMPI PUSH1 0x0 DUP1 REVERT JUMPDEST POP PUSH2 0x26B PUSH2 0x73B CALLDATASIZE PUSH1 0x4 PUSH2 0x318C JUMP JUMPDEST PUSH2 0x1A77 JUMP JUMPDEST CALLVALUE DUP1 ISZERO PUSH2 0x74C JUMPI PUSH1 0x0 DUP1 REVERT JUMPDEST POP PUSH2 0x26B PUSH2 0x75B CALLDATASIZE PUSH1 0x4 PUSH2 0x32B7 JUMP JUMPDEST PUSH2 0x1AC2 JUMP JUMPDEST CALLVALUE DUP1 ISZERO PUSH2 0x76C JUMPI PUSH1 0x0 DUP1 REVERT JUMPDEST POP PUSH2 0x26B PUSH2 0x77B CALLDATASIZE PUSH1 0x4 PUSH2 0x318C JUMP JUMPDEST PUSH2 0x1B82 JUMP JUMPDEST CALLVALUE DUP1 ISZERO PUSH2 0x78C JUMPI PUSH1 0x0 DUP1 REVERT JUMPDEST POP PUSH2 0x50F PUSH2 0x1C1A JUMP JUMPDEST CALLVALUE DUP1 ISZERO PUSH2 0x7A1 JUMPI PUSH1 0x0 DUP1 REVERT JUMPDEST POP PUSH2 0x2CD PUSH2 0x7B0 CALLDATASIZE PUSH1 0x4 PUSH2 0x318C JUMP JUMPDEST PUSH1 0x1 PUSH1 0x1 PUSH1 0xA0 SHL SUB AND PUSH1 0x0 SWAP1 DUP2 MSTORE PUSH1 0x10 PUSH1 0x20 MSTORE PUSH1 0x40 SWAP1 KECCAK256 SLOAD PUSH1 0xFF AND SWAP1 JUMP JUMPDEST CALLVALUE DUP1 ISZERO PUSH2 0x7DA JUMPI PUSH1 0x0 DUP1 REVERT JUMPDEST POP PUSH2 0x26B PUSH2 0x1D38 JUMP JUMPDEST CALLER PUSH1 0x0 DUP2 DUP2 MSTORE PUSH1 0x5 PUSH1 0x20 MSTORE PUSH1 0x40 SWAP1 KECCAK256 SLOAD PUSH1 0xFF AND ISZERO PUSH2 0x85D JUMPI PUSH1 0x40 MLOAD PUSH3 0x461BCD PUSH1 0xE5 SHL DUP2 MSTORE PUSH1 0x20 PUSH1 0x4 DUP3 ADD MSTORE PUSH1 0x2C PUSH1 0x24 DUP3 ADD MSTORE PUSH32 0x4578636C75646564206164647265737365732063616E6E6F742063616C6C2074 PUSH1 0x44 DUP3 ADD MSTORE PUSH12 0x3434B990333AB731BA34B7B7 PUSH1 0xA1 SHL PUSH1 0x64 DUP3 ADD MSTORE PUSH1 0x84 ADD JUMPDEST PUSH1 0x40 MLOAD DUP1 SWAP2 SUB SWAP1 REVERT JUMPDEST PUSH1 0x0 PUSH2 0x86A DUP4 PUSH1 0x1 PUSH2 0x1D71 JUMP JUMPDEST POP POP POP PUSH1 0x1 PUSH1 0x1 PUSH1 0xA0 SHL SUB DUP5 AND PUSH1 0x0 SWAP1 DUP2 MSTORE PUSH1 0x2 PUSH1 0x20 MSTORE PUSH1 0x40 SWAP1 KECCAK256 SLOAD SWAP2 SWAP3 POP PUSH2 0x895 SWAP2 DUP4 SWAP2 POP PUSH2 0x355A JUMP JUMPDEST PUSH1 0x1 PUSH1 0x1 PUSH1 0xA0 SHL SUB DUP4 AND PUSH1 0x0 SWAP1 DUP2 MSTORE PUSH1 0x2 PUSH1 0x20 MSTORE PUSH1 0x40 SWAP1 KECCAK256 SSTORE PUSH1 0x9 SLOAD PUSH2 0x8BC SWAP1 DUP3 SWAP1 PUSH2 0x355A JUMP JUMPDEST PUSH1 0x9 SSTORE PUSH1 0xA SLOAD PUSH2 0x8CD SWAP1 DUP5 SWAP1 PUSH2 0x34D9 JUMP JUMPDEST PUSH1 0xA SSTORE POP POP POP JUMP JUMPDEST PUSH1 0x0 PUSH2 0x8E2 CALLER DUP5 DUP5 PUSH2 0x1DBF JUMP JUMPDEST POP PUSH1 0x1 JUMPDEST SWAP3 SWAP2 POP POP JUMP JUMPDEST PUSH1 0x0 PUSH2 0x904 PUSH8 0x16345785D8A0000 PUSH4 0x3B9ACA00 PUSH2 0x353B JUMP JUMPDEST SWAP1 POP SWAP1 JUMP JUMPDEST PUSH1 0x0 SLOAD PUSH1 0x1 PUSH1 0x1 PUSH1 0xA0 SHL SUB AND CALLER EQ PUSH2 0x933 JUMPI PUSH1 0x40 MLOAD PUSH3 0x461BCD PUSH1 0xE5 SHL DUP2 MSTORE PUSH1 0x4 ADD PUSH2 0x854 SWAP1 PUSH2 0x3433 JUMP JUMPDEST SELFBALANCE PUSH2 0x93E DUP2 DUP4 PUSH2 0x1EE3 JUMP JUMPDEST POP POP JUMP JUMPDEST PUSH1 0x0 PUSH2 0x94F DUP5 DUP5 DUP5 PUSH2 0x2107 JUMP JUMPDEST PUSH1 0x1 PUSH1 0x1 PUSH1 0xA0 SHL SUB DUP5 AND PUSH1 0x0 SWAP1 DUP2 MSTORE PUSH1 0x4 PUSH1 0x20 SWAP1 DUP2 MSTORE PUSH1 0x40 DUP1 DUP4 KECCAK256 CALLER DUP5 MSTORE SWAP1 SWAP2 MSTORE SWAP1 KECCAK256 SLOAD DUP3 DUP2 LT ISZERO PUSH2 0x9D4 JUMPI PUSH1 0x40 MLOAD PUSH3 0x461BCD PUSH1 0xE5 SHL DUP2 MSTORE PUSH1 0x20 PUSH1 0x4 DUP3 ADD MSTORE PUSH1 0x28 PUSH1 0x24 DUP3 ADD MSTORE PUSH32 0x45524332303A207472616E7366657220616D6F756E7420657863656564732061 PUSH1 0x44 DUP3 ADD MSTORE PUSH8 0x6C6C6F77616E6365 PUSH1 0xC0 SHL PUSH1 0x64 DUP3 ADD MSTORE PUSH1 0x84 ADD PUSH2 0x854 JUMP JUMPDEST PUSH2 0x9E1 DUP6 CALLER DUP6 DUP5 SUB PUSH2 0x1DBF JUMP JUMPDEST POP PUSH1 0x1 SWAP5 SWAP4 POP POP POP POP JUMP JUMPDEST PUSH1 0x0 PUSH1 0x9 SLOAD DUP3 GT ISZERO PUSH2 0xA53 JUMPI PUSH1 0x40 MLOAD PUSH3 0x461BCD PUSH1 0xE5 SHL DUP2 MSTORE PUSH1 0x20 PUSH1 0x4 DUP3 ADD MSTORE PUSH1 0x2A PUSH1 0x24 DUP3 ADD MSTORE PUSH32 0x416D6F756E74206D757374206265206C657373207468616E20746F74616C2072 PUSH1 0x44 DUP3 ADD MSTORE PUSH10 0x65666C656374696F6E73 PUSH1 0xB0 SHL PUSH1 0x64 DUP3 ADD MSTORE PUSH1 0x84 ADD PUSH2 0x854 JUMP JUMPDEST PUSH1 0x0 PUSH2 0xA5D PUSH2 0x24A3 JUMP JUMPDEST SWAP1 POP PUSH2 0xA69 DUP2 DUP5 PUSH2 0x3519 JUMP JUMPDEST SWAP4 SWAP3 POP POP POP JUMP JUMPDEST PUSH1 0x0 SLOAD PUSH1 0x1 PUSH1 0x1 PUSH1 0xA0 SHL SUB AND CALLER EQ PUSH2 0xA9A JUMPI PUSH1 0x40 MLOAD PUSH3 0x461BCD PUSH1 0xE5 SHL DUP2 MSTORE PUSH1 0x4 ADD PUSH2 0x854 SWAP1 PUSH2 0x3433 JUMP JUMPDEST PUSH1 0x1 PUSH1 0x1 PUSH1 0xA0 SHL SUB DUP2 AND PUSH1 0x0 SWAP1 DUP2 MSTORE PUSH1 0x5 PUSH1 0x20 MSTORE PUSH1 0x40 SWAP1 KECCAK256 SLOAD PUSH1 0xFF AND PUSH2 0xB02 JUMPI PUSH1 0x40 MLOAD PUSH3 0x461BCD PUSH1 0xE5 SHL DUP2 MSTORE PUSH1 0x20 PUSH1 0x4 DUP3 ADD MSTORE PUSH1 0x1B PUSH1 0x24 DUP3 ADD MSTORE PUSH32 0x4163636F756E7420697320616C7265616479206578636C756465640000000000 PUSH1 0x44 DUP3 ADD MSTORE PUSH1 0x64 ADD PUSH2 0x854 JUMP JUMPDEST PUSH1 0x0 JUMPDEST PUSH1 0x6 SLOAD DUP2 LT ISZERO PUSH2 0x93E JUMPI DUP2 PUSH1 0x1 PUSH1 0x1 PUSH1 0xA0 SHL SUB AND PUSH1 0x6 DUP3 DUP2 SLOAD DUP2 LT PUSH2 0xB2C JUMPI PUSH2 0xB2C PUSH2 0x35F3 JUMP JUMPDEST PUSH1 0x0 SWAP2 DUP3 MSTORE PUSH1 0x20 SWAP1 SWAP2 KECCAK256 ADD SLOAD PUSH1 0x1 PUSH1 0x1 PUSH1 0xA0 SHL SUB AND EQ ISZERO PUSH2 0xC11 JUMPI PUSH1 0x6 DUP1 SLOAD PUSH2 0xB57 SWAP1 PUSH1 0x1 SWAP1 PUSH2 0x355A JUMP JUMPDEST DUP2 SLOAD DUP2 LT PUSH2 0xB67 JUMPI PUSH2 0xB67 PUSH2 0x35F3 JUMP JUMPDEST PUSH1 0x0 SWAP2 DUP3 MSTORE PUSH1 0x20 SWAP1 SWAP2 KECCAK256 ADD SLOAD PUSH1 0x6 DUP1 SLOAD PUSH1 0x1 PUSH1 0x1 PUSH1 0xA0 SHL SUB SWAP1 SWAP3 AND SWAP2 DUP4 SWAP1 DUP2 LT PUSH2 0xB93 JUMPI PUSH2 0xB93 PUSH2 0x35F3 JUMP JUMPDEST PUSH1 0x0 SWAP2 DUP3 MSTORE PUSH1 0x20 DUP1 DUP4 KECCAK256 SWAP2 SWAP1 SWAP2 ADD DUP1 SLOAD PUSH1 0x1 PUSH1 0x1 PUSH1 0xA0 SHL SUB NOT AND PUSH1 0x1 PUSH1 0x1 PUSH1 0xA0 SHL SUB SWAP5 DUP6 AND OR SWAP1 SSTORE SWAP2 DUP5 AND DUP2 MSTORE PUSH1 0x3 DUP3 MSTORE PUSH1 0x40 DUP1 DUP3 KECCAK256 DUP3 SWAP1 SSTORE PUSH1 0x5 SWAP1 SWAP3 MSTORE KECCAK256 DUP1 SLOAD PUSH1 0xFF NOT AND SWAP1 SSTORE PUSH1 0x6 DUP1 SLOAD DUP1 PUSH2 0xBEB JUMPI PUSH2 0xBEB PUSH2 0x35DD JUMP JUMPDEST PUSH1 0x0 DUP3 DUP2 MSTORE PUSH1 0x20 SWAP1 KECCAK256 DUP2 ADD PUSH1 0x0 NOT SWAP1 DUP2 ADD DUP1 SLOAD PUSH1 0x1 PUSH1 0x1 PUSH1 0xA0 SHL SUB NOT AND SWAP1 SSTORE ADD SWAP1 SSTORE POP POP JUMP JUMPDEST DUP1 PUSH2 0xC1B DUP2 PUSH2 0x35AC JUMP JUMPDEST SWAP2 POP POP PUSH2 0xB05 JUMP JUMPDEST CALLER PUSH1 0x0 DUP2 DUP2 MSTORE PUSH1 0x4 PUSH1 0x20 SWAP1 DUP2 MSTORE PUSH1 0x40 DUP1 DUP4 KECCAK256 PUSH1 0x1 PUSH1 0x1 PUSH1 0xA0 SHL SUB DUP8 AND DUP5 MSTORE SWAP1 SWAP2 MSTORE DUP2 KECCAK256 SLOAD SWAP1 SWAP2 PUSH2 0x8E2 SWAP2 DUP6 SWAP1 PUSH2 0xC5A SWAP1 DUP7 SWAP1 PUSH2 0x34D9 JUMP JUMPDEST PUSH2 0x1DBF JUMP JUMPDEST PUSH1 0x0 SLOAD PUSH1 0x1 PUSH1 0x1 PUSH1 0xA0 SHL SUB AND CALLER EQ PUSH2 0xC89 JUMPI PUSH1 0x40 MLOAD PUSH3 0x461BCD PUSH1 0xE5 SHL DUP2 MSTORE PUSH1 0x4 ADD PUSH2 0x854 SWAP1 PUSH2 0x3433 JUMP JUMPDEST PUSH1 0x1 PUSH1 0x1 PUSH1 0xA0 SHL SUB AND PUSH1 0x0 SWAP1 DUP2 MSTORE PUSH1 0x7 PUSH1 0x20 MSTORE PUSH1 0x40 SWAP1 KECCAK256 DUP1 SLOAD PUSH1 0xFF NOT AND PUSH1 0x1 OR SWAP1 SSTORE JUMP JUMPDEST PUSH1 0x0 PUSH2 0xCC5 PUSH8 0x16345785D8A0000 PUSH4 0x3B9ACA00 PUSH2 0x353B JUMP JUMPDEST DUP4 GT ISZERO PUSH2 0xD14 JUMPI PUSH1 0x40 MLOAD PUSH3 0x461BCD PUSH1 0xE5 SHL DUP2 MSTORE PUSH1 0x20 PUSH1 0x4 DUP3 ADD MSTORE PUSH1 0x1F PUSH1 0x24 DUP3 ADD MSTORE PUSH32 0x416D6F756E74206D757374206265206C657373207468616E20737570706C7900 PUSH1 0x44 DUP3 ADD MSTORE PUSH1 0x64 ADD PUSH2 0x854 JUMP JUMPDEST DUP2 PUSH2 0xD34 JUMPI PUSH1 0x0 PUSH2 0xD26 DUP5 PUSH1 0x1 PUSH2 0x1D71 JUMP JUMPDEST POP SWAP3 SWAP5 POP PUSH2 0x8E6 SWAP4 POP POP POP POP JUMP JUMPDEST PUSH1 0x0 PUSH2 0xD41 DUP5 PUSH1 0x1 PUSH2 0x1D71 JUMP JUMPDEST POP SWAP2 SWAP5 POP PUSH2 0x8E6 SWAP4 POP POP POP POP JUMP JUMPDEST PUSH1 0x0 SLOAD PUSH1 0x1 PUSH1 0x1 PUSH1 0xA0 SHL SUB AND CALLER EQ PUSH2 0xD79 JUMPI PUSH1 0x40 MLOAD PUSH3 0x461BCD PUSH1 0xE5 SHL DUP2 MSTORE PUSH1 0x4 ADD PUSH2 0x854 SWAP1 PUSH2 0x3433 JUMP JUMPDEST PUSH1 0x1 PUSH1 0x1 PUSH1 0xA0 SHL SUB DUP2 AND PUSH1 0x0 SWAP1 DUP2 MSTORE PUSH1 0x5 PUSH1 0x20 MSTORE PUSH1 0x40 SWAP1 KECCAK256 SLOAD PUSH1 0xFF AND ISZERO PUSH2 0xDE2 JUMPI PUSH1 0x40 MLOAD PUSH3 0x461BCD PUSH1 0xE5 SHL DUP2 MSTORE PUSH1 0x20 PUSH1 0x4 DUP3 ADD MSTORE PUSH1 0x1B PUSH1 0x24 DUP3 ADD MSTORE PUSH32 0x4163636F756E7420697320616C7265616479206578636C756465640000000000 PUSH1 0x44 DUP3 ADD MSTORE PUSH1 0x64 ADD PUSH2 0x854 JUMP JUMPDEST PUSH1 0x1 PUSH1 0x1 PUSH1 0xA0 SHL SUB DUP2 AND PUSH1 0x0 SWAP1 DUP2 MSTORE PUSH1 0x2 PUSH1 0x20 MSTORE PUSH1 0x40 SWAP1 KECCAK256 SLOAD ISZERO PUSH2 0xE3C JUMPI PUSH1 0x1 PUSH1 0x1 PUSH1 0xA0 SHL SUB DUP2 AND PUSH1 0x0 SWAP1 DUP2 MSTORE PUSH1 0x2 PUSH1 0x20 MSTORE PUSH1 0x40 SWAP1 KECCAK256 SLOAD PUSH2 0xE22 SWAP1 PUSH2 0x9EC JUMP JUMPDEST PUSH1 0x1 PUSH1 0x1 PUSH1 0xA0 SHL SUB DUP3 AND PUSH1 0x0 SWAP1 DUP2 MSTORE PUSH1 0x3 PUSH1 0x20 MSTORE PUSH1 0x40 SWAP1 KECCAK256 SSTORE JUMPDEST PUSH1 0x1 PUSH1 0x1 PUSH1 0xA0 SHL SUB AND PUSH1 0x0 DUP2 DUP2 MSTORE PUSH1 0x5 PUSH1 0x20 MSTORE PUSH1 0x40 DUP2 KECCAK256 DUP1 SLOAD PUSH1 0xFF NOT AND PUSH1 0x1 SWAP1 DUP2 OR SWAP1 SWAP2 SSTORE PUSH1 0x6 DUP1 SLOAD SWAP2 DUP3 ADD DUP2 SSTORE SWAP1 SWAP2 MSTORE PUSH32 0xF652222313E28459528D920B65115C16C04F3EFC82AAEDC97BE59F3F377C0D3F ADD DUP1 SLOAD PUSH1 0x1 PUSH1 0x1 PUSH1 0xA0 SHL SUB NOT AND SWAP1 SWAP2 OR SWAP1 SSTORE JUMP JUMPDEST PUSH1 0x1 PUSH1 0x1 PUSH1 0xA0 SHL SUB DUP2 AND PUSH1 0x0 SWAP1 DUP2 MSTORE PUSH1 0x5 PUSH1 0x20 MSTORE PUSH1 0x40 DUP2 KECCAK256 SLOAD PUSH1 0xFF AND ISZERO PUSH2 0xEDF JUMPI POP PUSH1 0x1 PUSH1 0x1 PUSH1 0xA0 SHL SUB AND PUSH1 0x0 SWAP1 DUP2 MSTORE PUSH1 0x3 PUSH1 0x20 MSTORE PUSH1 0x40 SWAP1 KECCAK256 SLOAD SWAP1 JUMP JUMPDEST PUSH1 0x1 PUSH1 0x1 PUSH1 0xA0 SHL SUB DUP3 AND PUSH1 0x0 SWAP1 DUP2 MSTORE PUSH1 0x2 PUSH1 0x20 MSTORE PUSH1 0x40 SWAP1 KECCAK256 SLOAD PUSH2 0x8E6 SWAP1 PUSH2 0x9EC JUMP JUMPDEST PUSH1 0x0 SLOAD PUSH1 0x1 PUSH1 0x1 PUSH1 0xA0 SHL SUB AND CALLER EQ PUSH2 0xF2B JUMPI PUSH1 0x40 MLOAD PUSH3 0x461BCD PUSH1 0xE5 SHL DUP2 MSTORE PUSH1 0x4 ADD PUSH2 0x854 SWAP1 PUSH2 0x3433 JUMP JUMPDEST PUSH2 0xF35 PUSH1 0x0 PUSH2 0x24C6 JUMP JUMPDEST JUMP JUMPDEST PUSH1 0x0 DUP1 PUSH1 0x0 DUP1 PUSH1 0x0 DUP1 PUSH1 0x1 PUSH1 0x0 DUP2 SLOAD DUP2 LT PUSH2 0xF54 JUMPI PUSH2 0xF54 PUSH2 0x35F3 JUMP JUMPDEST PUSH1 0x0 SWAP2 DUP3 MSTORE PUSH1 0x20 DUP3 KECCAK256 PUSH1 0x4 SWAP1 SWAP2 MUL ADD SLOAD PUSH1 0x1 DUP1 SLOAD PUSH4 0xFFFFFFFF SWAP1 SWAP3 AND SWAP3 SWAP1 SWAP2 PUSH2 0xF7F JUMPI PUSH2 0xF7F PUSH2 0x35F3 JUMP JUMPDEST SWAP1 PUSH1 0x0 MSTORE PUSH1 0x20 PUSH1 0x0 KECCAK256 SWAP1 PUSH1 0x4 MUL ADD PUSH1 0x0 ADD PUSH1 0x4 SWAP1 SLOAD SWAP1 PUSH2 0x100 EXP SWAP1 DIV PUSH4 0xFFFFFFFF AND PUSH1 0x1 PUSH1 0x0 DUP2 SLOAD DUP2 LT PUSH2 0xFB5 JUMPI PUSH2 0xFB5 PUSH2 0x35F3 JUMP JUMPDEST SWAP1 PUSH1 0x0 MSTORE PUSH1 0x20 PUSH1 0x0 KECCAK256 SWAP1 PUSH1 0x4 MUL ADD PUSH1 0x0 ADD PUSH1 0x8 SWAP1 SLOAD SWAP1 PUSH2 0x100 EXP SWAP1 DIV PUSH4 0xFFFFFFFF AND PUSH1 0x1 PUSH1 0x0 DUP2 SLOAD DUP2 LT PUSH2 0xFEB JUMPI PUSH2 0xFEB PUSH2 0x35F3 JUMP JUMPDEST SWAP1 PUSH1 0x0 MSTORE PUSH1 0x20 PUSH1 0x0 KECCAK256 SWAP1 PUSH1 0x4 MUL ADD PUSH1 0x0 ADD PUSH1 0xC SWAP1 SLOAD SWAP1 PUSH2 0x100 EXP SWAP1 DIV PUSH4 0xFFFFFFFF AND PUSH1 0x1 PUSH1 0x0 DUP2 SLOAD DUP2 LT PUSH2 0x1021 JUMPI PUSH2 0x1021 PUSH2 0x35F3 JUMP JUMPDEST SWAP1 PUSH1 0x0 MSTORE PUSH1 0x20 PUSH1 0x0 KECCAK256 SWAP1 PUSH1 0x4 MUL ADD PUSH1 0x0 ADD PUSH1 0x10 SWAP1 SLOAD SWAP1 PUSH2 0x100 EXP SWAP1 DIV PUSH4 0xFFFFFFFF AND PUSH1 0x1 PUSH1 0x0 DUP2 SLOAD DUP2 LT PUSH2 0x1057 JUMPI PUSH2 0x1057 PUSH2 0x35F3 JUMP JUMPDEST PUSH1 0x0 SWAP2 DUP3 MSTORE PUSH1 0x20 SWAP1 SWAP2 KECCAK256 PUSH1 0x4 SWAP1 SWAP2 MUL ADD SLOAD SWAP5 SWAP12 SWAP4 SWAP11 POP SWAP2 SWAP9 POP SWAP7 POP SWAP5 POP PUSH1 0x1 PUSH1 0xA0 SHL SWAP1 SWAP2 DIV PUSH4 0xFFFFFFFF AND SWAP3 POP SWAP1 POP JUMP JUMPDEST PUSH1 0x0 SLOAD PUSH1 0x1 PUSH1 0x1 PUSH1 0xA0 SHL SUB AND CALLER EQ PUSH2 0x10B2 JUMPI PUSH1 0x40 MLOAD PUSH3 0x461BCD PUSH1 0xE5 SHL DUP2 MSTORE PUSH1 0x4 ADD PUSH2 0x854 SWAP1 PUSH2 0x3433 JUMP JUMPDEST PUSH1 0x1 PUSH1 0x1 PUSH1 0xA0 SHL SUB DUP4 AND ISZERO DUP1 ISZERO SWAP1 PUSH2 0x10D2 JUMPI POP PUSH1 0x1 PUSH1 0x1 PUSH1 0xA0 SHL SUB DUP3 AND ISZERO ISZERO JUMPDEST DUP1 ISZERO PUSH2 0x10E6 JUMPI POP PUSH1 0x1 PUSH1 0x1 PUSH1 0xA0 SHL SUB DUP2 AND ISZERO ISZERO JUMPDEST PUSH2 0x113E JUMPI PUSH1 0x40 MLOAD PUSH3 0x461BCD PUSH1 0xE5 SHL DUP2 MSTORE PUSH1 0x20 PUSH1 0x4 DUP3 ADD MSTORE PUSH1 0x23 PUSH1 0x24 DUP3 ADD MSTORE PUSH32 0x5461782057616C6C6574732061737369676E6564207A65726F20616464726573 PUSH1 0x44 DUP3 ADD MSTORE PUSH3 0x732021 PUSH1 0xE8 SHL PUSH1 0x64 DUP3 ADD MSTORE PUSH1 0x84 ADD PUSH2 0x854 JUMP JUMPDEST DUP4 DUP6 DUP8 PUSH2 0x114B DUP11 DUP13 PUSH2 0x34F1 JUMP JUMPDEST PUSH2 0x1155 SWAP2 SWAP1 PUSH2 0x34F1 JUMP JUMPDEST PUSH2 0x115F SWAP2 SWAP1 PUSH2 0x34F1 JUMP JUMPDEST PUSH2 0x1169 SWAP2 SWAP1 PUSH2 0x34F1 JUMP JUMPDEST PUSH4 0xFFFFFFFF AND PUSH1 0x64 EQ PUSH2 0x11D0 JUMPI PUSH1 0x40 MLOAD PUSH3 0x461BCD PUSH1 0xE5 SHL DUP2 MSTORE PUSH1 0x20 PUSH1 0x4 DUP3 ADD MSTORE PUSH1 0x29 PUSH1 0x24 DUP3 ADD MSTORE PUSH32 0x53706C69742050657263656E746167657320646F6573206E6F742073756D2075 PUSH1 0x44 DUP3 ADD MSTORE PUSH9 0x70746F203130302021 PUSH1 0xB8 SHL PUSH1 0x64 DUP3 ADD MSTORE PUSH1 0x84 ADD PUSH2 0x854 JUMP JUMPDEST DUP9 PUSH1 0x1 DUP12 DUP2 SLOAD DUP2 LT PUSH2 0x11E4 JUMPI PUSH2 0x11E4 PUSH2 0x35F3 JUMP JUMPDEST SWAP1 PUSH1 0x0 MSTORE PUSH1 0x20 PUSH1 0x0 KECCAK256 SWAP1 PUSH1 0x4 MUL ADD PUSH1 0x0 ADD PUSH1 0x0 PUSH2 0x100 EXP DUP2 SLOAD DUP2 PUSH4 0xFFFFFFFF MUL NOT AND SWAP1 DUP4 PUSH4 0xFFFFFFFF AND MUL OR SWAP1 SSTORE POP DUP8 PUSH1 0x1 DUP12 DUP2 SLOAD DUP2 LT PUSH2 0x1227 JUMPI PUSH2 0x1227 PUSH2 0x35F3 JUMP JUMPDEST SWAP1 PUSH1 0x0 MSTORE PUSH1 0x20 PUSH1 0x0 KECCAK256 SWAP1 PUSH1 0x4 MUL ADD PUSH1 0x0 ADD PUSH1 0x4 PUSH2 0x100 EXP DUP2 SLOAD DUP2 PUSH4 0xFFFFFFFF MUL NOT AND SWAP1 DUP4 PUSH4 0xFFFFFFFF AND MUL OR SWAP1 SSTORE POP DUP7 PUSH1 0x1 DUP12 DUP2 SLOAD DUP2 LT PUSH2 0x126A JUMPI PUSH2 0x126A PUSH2 0x35F3 JUMP JUMPDEST SWAP1 PUSH1 0x0 MSTORE PUSH1 0x20 PUSH1 0x0 KECCAK256 SWAP1 PUSH1 0x4 MUL ADD PUSH1 0x0 ADD PUSH1 0x8 PUSH2 0x100 EXP DUP2 SLOAD DUP2 PUSH4 0xFFFFFFFF MUL NOT AND SWAP1 DUP4 PUSH4 0xFFFFFFFF AND MUL OR SWAP1 SSTORE POP DUP6 PUSH1 0x1 DUP12 DUP2 SLOAD DUP2 LT PUSH2 0x12AD JUMPI PUSH2 0x12AD PUSH2 0x35F3 JUMP JUMPDEST SWAP1 PUSH1 0x0 MSTORE PUSH1 0x20 PUSH1 0x0 KECCAK256 SWAP1 PUSH1 0x4 MUL ADD PUSH1 0x0 ADD PUSH1 0xC PUSH2 0x100 EXP DUP2 SLOAD DUP2 PUSH4 0xFFFFFFFF MUL NOT AND SWAP1 DUP4 PUSH4 0xFFFFFFFF AND MUL OR SWAP1 SSTORE POP DUP5 PUSH1 0x1 DUP12 DUP2 SLOAD DUP2 LT PUSH2 0x12F0 JUMPI PUSH2 0x12F0 PUSH2 0x35F3 JUMP JUMPDEST SWAP1 PUSH1 0x0 MSTORE PUSH1 0x20 PUSH1 0x0 KECCAK256 SWAP1 PUSH1 0x4 MUL ADD PUSH1 0x0 ADD PUSH1 0x10 PUSH2 0x100 EXP DUP2 SLOAD DUP2 PUSH4 0xFFFFFFFF MUL NOT AND SWAP1 DUP4 PUSH4 0xFFFFFFFF AND MUL OR SWAP1 SSTORE POP DUP4 PUSH1 0x1 DUP12 DUP2 SLOAD DUP2 LT PUSH2 0x1333 JUMPI PUSH2 0x1333 PUSH2 0x35F3 JUMP JUMPDEST SWAP1 PUSH1 0x0 MSTORE PUSH1 0x20 PUSH1 0x0 KECCAK256 SWAP1 PUSH1 0x4 MUL ADD PUSH1 0x0 ADD PUSH1 0x14 PUSH2 0x100 EXP DUP2 SLOAD DUP2 PUSH4 0xFFFFFFFF MUL NOT AND SWAP1 DUP4 PUSH4 0xFFFFFFFF AND MUL OR SWAP1 SSTORE POP DUP3 PUSH1 0x1 DUP12 DUP2 SLOAD DUP2 LT PUSH2 0x1376 JUMPI PUSH2 0x1376 PUSH2 0x35F3 JUMP JUMPDEST SWAP1 PUSH1 0x0 MSTORE PUSH1 0x20 PUSH1 0x0 KECCAK256 SWAP1 PUSH1 0x4 MUL ADD PUSH1 0x1 ADD PUSH1 0x0 PUSH2 0x100 EXP DUP2 SLOAD DUP2 PUSH1 0x1 PUSH1 0x1 PUSH1 0xA0 SHL SUB MUL NOT AND SWAP1 DUP4 PUSH1 0x1 PUSH1 0x1 PUSH1 0xA0 SHL SUB AND MUL OR SWAP1 SSTORE POP DUP2 PUSH1 0x1 DUP12 DUP2 SLOAD DUP2 LT PUSH2 0x13BF JUMPI PUSH2 0x13BF PUSH2 0x35F3 JUMP JUMPDEST SWAP1 PUSH1 0x0 MSTORE PUSH1 0x20 PUSH1 0x0 KECCAK256 SWAP1 PUSH1 0x4 MUL ADD PUSH1 0x2 ADD PUSH1 0x0 PUSH2 0x100 EXP DUP2 SLOAD DUP2 PUSH1 0x1 PUSH1 0x1 PUSH1 0xA0 SHL SUB MUL NOT AND SWAP1 DUP4 PUSH1 0x1 PUSH1 0x1 PUSH1 0xA0 SHL SUB AND MUL OR SWAP1 SSTORE POP DUP1 PUSH1 0x1 DUP12 DUP2 SLOAD DUP2 LT PUSH2 0x1408 JUMPI PUSH2 0x1408 PUSH2 0x35F3 JUMP JUMPDEST SWAP1 PUSH1 0x0 MSTORE PUSH1 0x20 PUSH1 0x0 KECCAK256 SWAP1 PUSH1 0x4 MUL ADD PUSH1 0x3 ADD PUSH1 0x0 PUSH2 0x100 EXP DUP2 SLOAD DUP2 PUSH1 0x1 PUSH1 0x1 PUSH1 0xA0 SHL SUB MUL NOT AND SWAP1 DUP4 PUSH1 0x1 PUSH1 0x1 PUSH1 0xA0 SHL SUB AND MUL OR SWAP1 SSTORE POP POP POP POP POP POP POP POP POP POP POP JUMP JUMPDEST PUSH1 0x0 SLOAD PUSH1 0x1 PUSH1 0x1 PUSH1 0xA0 SHL SUB AND CALLER EQ PUSH2 0x1473 JUMPI PUSH1 0x40 MLOAD PUSH3 0x461BCD PUSH1 0xE5 SHL DUP2 MSTORE PUSH1 0x4 ADD PUSH2 0x854 SWAP1 PUSH2 0x3433 JUMP JUMPDEST PUSH1 0xF SSTORE JUMP JUMPDEST CALLER PUSH1 0x0 SWAP1 DUP2 MSTORE PUSH1 0x4 PUSH1 0x20 SWAP1 DUP2 MSTORE PUSH1 0x40 DUP1 DUP4 KECCAK256 PUSH1 0x1 PUSH1 0x1 PUSH1 0xA0 SHL SUB DUP7 AND DUP5 MSTORE SWAP1 SWAP2 MSTORE DUP2 KECCAK256 SLOAD DUP3 DUP2 LT ISZERO PUSH2 0x14FA JUMPI PUSH1 0x40 MLOAD PUSH3 0x461BCD PUSH1 0xE5 SHL DUP2 MSTORE PUSH1 0x20 PUSH1 0x4 DUP3 ADD MSTORE PUSH1 0x25 PUSH1 0x24 DUP3 ADD MSTORE PUSH32 0x45524332303A2064656372656173656420616C6C6F77616E63652062656C6F77 PUSH1 0x44 DUP3 ADD MSTORE PUSH5 0x207A65726F PUSH1 0xD8 SHL PUSH1 0x64 DUP3 ADD MSTORE PUSH1 0x84 ADD PUSH2 0x854 JUMP JUMPDEST PUSH2 0x1507 CALLER DUP6 DUP6 DUP5 SUB PUSH2 0x1DBF JUMP JUMPDEST POP PUSH1 0x1 SWAP4 SWAP3 POP POP POP JUMP JUMPDEST PUSH1 0x0 PUSH2 0x8E2 CALLER DUP5 DUP5 PUSH2 0x2107 JUMP JUMPDEST PUSH1 0x0 SLOAD PUSH1 0x1 PUSH1 0x1 PUSH1 0xA0 SHL SUB AND CALLER EQ PUSH2 0x1548 JUMPI PUSH1 0x40 MLOAD PUSH3 0x461BCD PUSH1 0xE5 SHL DUP2 MSTORE PUSH1 0x4 ADD PUSH2 0x854 SWAP1 PUSH2 0x3433 JUMP JUMPDEST PUSH1 0x0 PUSH2 0x1553 ADDRESS PUSH2 0xEA2 JUMP JUMPDEST SWAP1 POP PUSH2 0x155E DUP2 PUSH2 0x2516 JUMP JUMPDEST POP JUMP JUMPDEST PUSH1 0x0 SLOAD PUSH1 0x1 PUSH1 0x1 PUSH1 0xA0 SHL SUB AND CALLER EQ PUSH2 0x158B JUMPI PUSH1 0x40 MLOAD PUSH3 0x461BCD PUSH1 0xE5 SHL DUP2 MSTORE PUSH1 0x4 ADD PUSH2 0x854 SWAP1 PUSH2 0x3433 JUMP JUMPDEST PUSH1 0xC SLOAD PUSH1 0x1 PUSH1 0xA0 SHL SWAP1 DIV PUSH1 0xFF AND ISZERO PUSH2 0x15E5 JUMPI PUSH1 0x40 MLOAD PUSH3 0x461BCD PUSH1 0xE5 SHL DUP2 MSTORE PUSH1 0x20 PUSH1 0x4 DUP3 ADD MSTORE PUSH1 0x17 PUSH1 0x24 DUP3 ADD MSTORE PUSH32 0x74726164696E6720697320616C7265616479206F70656E000000000000000000 PUSH1 0x44 DUP3 ADD MSTORE PUSH1 0x64 ADD PUSH2 0x854 JUMP JUMPDEST PUSH1 0xB DUP1 SLOAD PUSH1 0x1 PUSH1 0x1 PUSH1 0xA0 SHL SUB NOT AND PUSH20 0x9AC64CC6E4415144C455BD8E4837FEA55603E5C3 SWAP1 DUP2 OR SWAP1 SWAP2 SSTORE PUSH2 0x1629 ADDRESS DUP3 PUSH2 0xC5A PUSH8 0x16345785D8A0000 PUSH4 0x3B9ACA00 PUSH2 0x353B JUMP JUMPDEST DUP1 PUSH1 0x1 PUSH1 0x1 PUSH1 0xA0 SHL SUB AND PUSH4 0xC45A0155 PUSH1 0x40 MLOAD DUP2 PUSH4 0xFFFFFFFF AND PUSH1 0xE0 SHL DUP2 MSTORE PUSH1 0x4 ADD PUSH1 0x20 PUSH1 0x40 MLOAD DUP1 DUP4 SUB DUP2 DUP7 DUP1 EXTCODESIZE ISZERO DUP1 ISZERO PUSH2 0x1662 JUMPI PUSH1 0x0 DUP1 REVERT JUMPDEST POP GAS STATICCALL ISZERO DUP1 ISZERO PUSH2 0x1676 JUMPI RETURNDATASIZE PUSH1 0x0 DUP1 RETURNDATACOPY RETURNDATASIZE PUSH1 0x0 REVERT JUMPDEST POP POP POP POP PUSH1 0x40 MLOAD RETURNDATASIZE PUSH1 0x1F NOT PUSH1 0x1F DUP3 ADD AND DUP3 ADD DUP1 PUSH1 0x40 MSTORE POP DUP2 ADD SWAP1 PUSH2 0x169A SWAP2 SWAP1 PUSH2 0x31A9 JUMP JUMPDEST PUSH1 0x1 PUSH1 0x1 PUSH1 0xA0 SHL SUB AND PUSH4 0xC9C65396 ADDRESS DUP4 PUSH1 0x1 PUSH1 0x1 PUSH1 0xA0 SHL SUB AND PUSH4 0xAD5C4648 PUSH1 0x40 MLOAD DUP2 PUSH4 0xFFFFFFFF AND PUSH1 0xE0 SHL DUP2 MSTORE PUSH1 0x4 ADD PUSH1 0x20 PUSH1 0x40 MLOAD DUP1 DUP4 SUB DUP2 DUP7 DUP1 EXTCODESIZE ISZERO DUP1 ISZERO PUSH2 0x16E2 JUMPI PUSH1 0x0 DUP1 REVERT JUMPDEST POP GAS STATICCALL ISZERO DUP1 ISZERO PUSH2 0x16F6 JUMPI RETURNDATASIZE PUSH1 0x0 DUP1 RETURNDATACOPY RETURNDATASIZE PUSH1 0x0 REVERT JUMPDEST POP POP POP POP PUSH1 0x40 MLOAD RETURNDATASIZE PUSH1 0x1F NOT PUSH1 0x1F DUP3 ADD AND DUP3 ADD DUP1 PUSH1 0x40 MSTORE POP DUP2 ADD SWAP1 PUSH2 0x171A SWAP2 SWAP1 PUSH2 0x31A9 JUMP JUMPDEST PUSH1 0x40 MLOAD PUSH1 0x1 PUSH1 0x1 PUSH1 0xE0 SHL SUB NOT PUSH1 0xE0 DUP6 SWAP1 SHL AND DUP2 MSTORE PUSH1 0x1 PUSH1 0x1 PUSH1 0xA0 SHL SUB SWAP3 DUP4 AND PUSH1 0x4 DUP3 ADD MSTORE SWAP2 AND PUSH1 0x24 DUP3 ADD MSTORE PUSH1 0x44 ADD PUSH1 0x20 PUSH1 0x40 MLOAD DUP1 DUP4 SUB DUP2 PUSH1 0x0 DUP8 DUP1 EXTCODESIZE ISZERO DUP1 ISZERO PUSH2 0x1762 JUMPI PUSH1 0x0 DUP1 REVERT JUMPDEST POP GAS CALL ISZERO DUP1 ISZERO PUSH2 0x1776 JUMPI RETURNDATASIZE PUSH1 0x0 DUP1 RETURNDATACOPY RETURNDATASIZE PUSH1 0x0 REVERT JUMPDEST POP POP POP POP PUSH1 0x40 MLOAD RETURNDATASIZE PUSH1 0x1F NOT PUSH1 0x1F DUP3 ADD AND DUP3 ADD DUP1 PUSH1 0x40 MSTORE POP DUP2 ADD SWAP1 PUSH2 0x179A SWAP2 SWAP1 PUSH2 0x31A9 JUMP JUMPDEST PUSH1 0xC DUP1 SLOAD PUSH1 0x1 PUSH1 0x1 PUSH1 0xA0 SHL SUB NOT AND PUSH1 0x1 PUSH1 0x1 PUSH1 0xA0 SHL SUB SWAP3 DUP4 AND OR SWAP1 SSTORE PUSH1 0xB SLOAD AND PUSH4 0xF305D719 SELFBALANCE ADDRESS PUSH2 0x17CA DUP2 PUSH2 0xEA2 JUMP JUMPDEST PUSH1 0x0 DUP1 PUSH2 0x17DF PUSH1 0x0 SLOAD PUSH1 0x1 PUSH1 0x1 PUSH1 0xA0 SHL SUB AND SWAP1 JUMP JUMPDEST PUSH1 0x40 MLOAD PUSH1 0xE0 DUP9 SWAP1 SHL PUSH1 0x1 PUSH1 0x1 PUSH1 0xE0 SHL SUB NOT AND DUP2 MSTORE PUSH1 0x1 PUSH1 0x1 PUSH1 0xA0 SHL SUB SWAP6 DUP7 AND PUSH1 0x4 DUP3 ADD MSTORE PUSH1 0x24 DUP2 ADD SWAP5 SWAP1 SWAP5 MSTORE PUSH1 0x44 DUP5 ADD SWAP3 SWAP1 SWAP3 MSTORE PUSH1 0x64 DUP4 ADD MSTORE SWAP1 SWAP2 AND PUSH1 0x84 DUP3 ADD MSTORE TIMESTAMP PUSH1 0xA4 DUP3 ADD MSTORE PUSH1 0xC4 ADD PUSH1 0x60 PUSH1 0x40 MLOAD DUP1 DUP4 SUB DUP2 DUP6 DUP9 DUP1 EXTCODESIZE ISZERO DUP1 ISZERO PUSH2 0x1842 JUMPI PUSH1 0x0 DUP1 REVERT JUMPDEST POP GAS CALL ISZERO DUP1 ISZERO PUSH2 0x1856 JUMPI RETURNDATASIZE PUSH1 0x0 DUP1 RETURNDATACOPY RETURNDATASIZE PUSH1 0x0 REVERT JUMPDEST POP POP POP POP POP PUSH1 0x40 MLOAD RETURNDATASIZE PUSH1 0x1F NOT PUSH1 0x1F DUP3 ADD AND DUP3 ADD DUP1 PUSH1 0x40 MSTORE POP DUP2 ADD SWAP1 PUSH2 0x187B SWAP2 SWAP1 PUSH2 0x32F5 JUMP JUMPDEST POP POP PUSH1 0xC DUP1 SLOAD PUSH3 0xFF00FF PUSH1 0xA0 SHL NOT DUP2 AND PUSH3 0x10001 PUSH1 0xA0 SHL OR SWAP1 SWAP2 SSTORE PUSH1 0xB SLOAD PUSH1 0x40 MLOAD PUSH4 0x95EA7B3 PUSH1 0xE0 SHL DUP2 MSTORE PUSH1 0x1 PUSH1 0x1 PUSH1 0xA0 SHL SUB SWAP2 DUP3 AND PUSH1 0x4 DUP3 ADD MSTORE PUSH1 0x0 NOT PUSH1 0x24 DUP3 ADD MSTORE SWAP2 AND SWAP2 POP PUSH4 0x95EA7B3 SWAP1 PUSH1 0x44 ADD PUSH1 0x20 PUSH1 0x40 MLOAD DUP1 DUP4 SUB DUP2 PUSH1 0x0 DUP8 DUP1 EXTCODESIZE ISZERO DUP1 ISZERO PUSH2 0x18E5 JUMPI PUSH1 0x0 DUP1 REVERT JUMPDEST POP GAS CALL ISZERO DUP1 ISZERO PUSH2 0x18F9 JUMPI RETURNDATASIZE PUSH1 0x0 DUP1 RETURNDATACOPY RETURNDATASIZE PUSH1 0x0 REVERT JUMPDEST POP POP POP POP PUSH1 0x40 MLOAD RETURNDATASIZE PUSH1 0x1F NOT PUSH1 0x1F DUP3 ADD AND DUP3 ADD DUP1 PUSH1 0x40 MSTORE POP DUP2 ADD SWAP1 PUSH2 0x93E SWAP2 SWAP1 PUSH2 0x329A JUMP JUMPDEST PUSH1 0x0 SLOAD PUSH1 0x1 PUSH1 0x1 PUSH1 0xA0 SHL SUB AND CALLER EQ PUSH2 0x1947 JUMPI PUSH1 0x40 MLOAD PUSH3 0x461BCD PUSH1 0xE5 SHL DUP2 MSTORE PUSH1 0x4 ADD PUSH2 0x854 SWAP1 PUSH2 0x3433 JUMP JUMPDEST PUSH1 0xC DUP1 SLOAD PUSH1 0x1 PUSH1 0x1 PUSH1 0xA0 SHL SUB NOT AND PUSH1 0x1 PUSH1 0x1 PUSH1 0xA0 SHL SUB SWAP3 SWAP1 SWAP3 AND SWAP2 SWAP1 SWAP2 OR SWAP1 SSTORE JUMP JUMPDEST PUSH1 0x0 SLOAD PUSH1 0x1 PUSH1 0x1 PUSH1 0xA0 SHL SUB AND CALLER EQ PUSH2 0x1993 JUMPI PUSH1 0x40 MLOAD PUSH3 0x461BCD PUSH1 0xE5 SHL DUP2 MSTORE PUSH1 0x4 ADD PUSH2 0x854 SWAP1 PUSH2 0x3433 JUMP JUMPDEST PUSH2 0x3E8 PUSH2 0x19AC PUSH8 0x16345785D8A0000 PUSH4 0x3B9ACA00 PUSH2 0x353B JUMP JUMPDEST PUSH2 0x19B6 SWAP2 SWAP1 PUSH2 0x3519 JUMP JUMPDEST DUP2 LT ISZERO PUSH2 0x1A1D JUMPI PUSH1 0x40 MLOAD PUSH3 0x461BCD PUSH1 0xE5 SHL DUP2 MSTORE PUSH1 0x20 PUSH1 0x4 DUP3 ADD MSTORE PUSH1 0x2F PUSH1 0x24 DUP3 ADD MSTORE PUSH32 0x4D617820486F6C6420616D74206D7573742062652061626F766520302E312520 PUSH1 0x44 DUP3 ADD MSTORE PUSH15 0x6F6620746F74616C20737570706C79 PUSH1 0x88 SHL PUSH1 0x64 DUP3 ADD MSTORE PUSH1 0x84 ADD PUSH2 0x854 JUMP JUMPDEST PUSH1 0xE SSTORE JUMP JUMPDEST PUSH1 0x0 SLOAD PUSH1 0x1 PUSH1 0x1 PUSH1 0xA0 SHL SUB AND CALLER EQ PUSH2 0x1A4C JUMPI PUSH1 0x40 MLOAD PUSH3 0x461BCD PUSH1 0xE5 SHL DUP2 MSTORE PUSH1 0x4 ADD PUSH2 0x854 SWAP1 PUSH2 0x3433 JUMP JUMPDEST PUSH1 0x1 PUSH1 0x1 PUSH1 0xA0 SHL SUB SWAP2 SWAP1 SWAP2 AND PUSH1 0x0 SWAP1 DUP2 MSTORE PUSH1 0x10 PUSH1 0x20 MSTORE PUSH1 0x40 SWAP1 KECCAK256 DUP1 SLOAD PUSH1 0xFF NOT AND SWAP2 ISZERO ISZERO SWAP2 SWAP1 SWAP2 OR SWAP1 SSTORE JUMP JUMPDEST PUSH1 0x0 SLOAD PUSH1 0x1 PUSH1 0x1 PUSH1 0xA0 SHL SUB AND CALLER EQ PUSH2 0x1AA1 JUMPI PUSH1 0x40 MLOAD PUSH3 0x461BCD PUSH1 0xE5 SHL DUP2 MSTORE PUSH1 0x4 ADD PUSH2 0x854 SWAP1 PUSH2 0x3433 JUMP JUMPDEST PUSH1 0x1 PUSH1 0x1 PUSH1 0xA0 SHL SUB AND PUSH1 0x0 SWAP1 DUP2 MSTORE PUSH1 0x7 PUSH1 0x20 MSTORE PUSH1 0x40 SWAP1 KECCAK256 DUP1 SLOAD PUSH1 0xFF NOT AND SWAP1 SSTORE JUMP JUMPDEST PUSH1 0x0 SLOAD PUSH1 0x1 PUSH1 0x1 PUSH1 0xA0 SHL SUB AND CALLER EQ PUSH2 0x1AEC JUMPI PUSH1 0x40 MLOAD PUSH3 0x461BCD PUSH1 0xE5 SHL DUP2 MSTORE PUSH1 0x4 ADD PUSH2 0x854 SWAP1 PUSH2 0x3433 JUMP JUMPDEST PUSH2 0x3E8 PUSH2 0x1B05 PUSH8 0x16345785D8A0000 PUSH4 0x3B9ACA00 PUSH2 0x353B JUMP JUMPDEST PUSH2 0x1B0F SWAP2 SWAP1 PUSH2 0x3519 JUMP JUMPDEST DUP2 LT ISZERO PUSH2 0x1B7D JUMPI PUSH1 0x40 MLOAD PUSH3 0x461BCD PUSH1 0xE5 SHL DUP2 MSTORE PUSH1 0x20 PUSH1 0x4 DUP3 ADD MSTORE PUSH1 0x36 PUSH1 0x24 DUP3 ADD MSTORE PUSH32 0x4D6178205472616E73616374696F6E20616D74206D7573742062652061626F76 PUSH1 0x44 DUP3 ADD MSTORE PUSH22 0x6520302E3125206F6620746F74616C20737570706C79 PUSH1 0x50 SHL PUSH1 0x64 DUP3 ADD MSTORE PUSH1 0x84 ADD PUSH2 0x854 JUMP JUMPDEST PUSH1 0xD SSTORE JUMP JUMPDEST PUSH1 0x0 SLOAD PUSH1 0x1 PUSH1 0x1 PUSH1 0xA0 SHL SUB AND CALLER EQ PUSH2 0x1BAC JUMPI PUSH1 0x40 MLOAD PUSH3 0x461BCD PUSH1 0xE5 SHL DUP2 MSTORE PUSH1 0x4 ADD PUSH2 0x854 SWAP1 PUSH2 0x3433 JUMP JUMPDEST PUSH1 0x1 PUSH1 0x1 PUSH1 0xA0 SHL SUB DUP2 AND PUSH2 0x1C11 JUMPI PUSH1 0x40 MLOAD PUSH3 0x461BCD PUSH1 0xE5 SHL DUP2 MSTORE PUSH1 0x20 PUSH1 0x4 DUP3 ADD MSTORE PUSH1 0x26 PUSH1 0x24 DUP3 ADD MSTORE PUSH32 0x4F776E61626C653A206E6577206F776E657220697320746865207A65726F2061 PUSH1 0x44 DUP3 ADD MSTORE PUSH6 0x646472657373 PUSH1 0xD0 SHL PUSH1 0x64 DUP3 ADD MSTORE PUSH1 0x84 ADD PUSH2 0x854 JUMP JUMPDEST PUSH2 0x155E DUP2 PUSH2 0x24C6 JUMP JUMPDEST PUSH1 0x0 DUP1 PUSH1 0x0 DUP1 PUSH1 0x0 DUP1 PUSH1 0x1 DUP1 DUP2 SLOAD DUP2 LT PUSH2 0x1C36 JUMPI PUSH2 0x1C36 PUSH2 0x35F3 JUMP JUMPDEST PUSH1 0x0 SWAP2 DUP3 MSTORE PUSH1 0x20 SWAP1 SWAP2 KECCAK256 PUSH1 0x4 SWAP1 SWAP2 MUL ADD SLOAD PUSH1 0x1 DUP1 SLOAD PUSH4 0xFFFFFFFF SWAP1 SWAP3 AND SWAP2 DUP2 SWAP1 DUP2 LT PUSH2 0x1C64 JUMPI PUSH2 0x1C64 PUSH2 0x35F3 JUMP JUMPDEST SWAP1 PUSH1 0x0 MSTORE PUSH1 0x20 PUSH1 0x0 KECCAK256 SWAP1 PUSH1 0x4 MUL ADD PUSH1 0x0 ADD PUSH1 0x4 SWAP1 SLOAD SWAP1 PUSH2 0x100 EXP SWAP1 DIV PUSH4 0xFFFFFFFF AND PUSH1 0x1 DUP1 DUP2 SLOAD DUP2 LT PUSH2 0x1C99 JUMPI PUSH2 0x1C99 PUSH2 0x35F3 JUMP JUMPDEST SWAP1 PUSH1 0x0 MSTORE PUSH1 0x20 PUSH1 0x0 KECCAK256 SWAP1 PUSH1 0x4 MUL ADD PUSH1 0x0 ADD PUSH1 0x8 SWAP1 SLOAD SWAP1 PUSH2 0x100 EXP SWAP1 DIV PUSH4 0xFFFFFFFF AND PUSH1 0x1 DUP1 DUP2 SLOAD DUP2 LT PUSH2 0x1CCE JUMPI PUSH2 0x1CCE PUSH2 0x35F3 JUMP JUMPDEST SWAP1 PUSH1 0x0 MSTORE PUSH1 0x20 PUSH1 0x0 KECCAK256 SWAP1 PUSH1 0x4 MUL ADD PUSH1 0x0 ADD PUSH1 0xC SWAP1 SLOAD SWAP1 PUSH2 0x100 EXP SWAP1 DIV PUSH4 0xFFFFFFFF AND PUSH1 0x1 DUP1 DUP2 SLOAD DUP2 LT PUSH2 0x1D03 JUMPI PUSH2 0x1D03 PUSH2 0x35F3 JUMP JUMPDEST SWAP1 PUSH1 0x0 MSTORE PUSH1 0x20 PUSH1 0x0 KECCAK256 SWAP1 PUSH1 0x4 MUL ADD PUSH1 0x0 ADD PUSH1 0x10 SWAP1 SLOAD SWAP1 PUSH2 0x100 EXP SWAP1 DIV PUSH4 0xFFFFFFFF AND PUSH1 0x1 DUP1 DUP2 SLOAD DUP2 LT PUSH2 0x1057 JUMPI PUSH2 0x1057 PUSH2 0x35F3 JUMP JUMPDEST PUSH1 0x0 SLOAD PUSH1 0x1 PUSH1 0x1 PUSH1 0xA0 SHL SUB AND CALLER EQ PUSH2 0x1D62 JUMPI PUSH1 0x40 MLOAD PUSH3 0x461BCD PUSH1 0xE5 SHL DUP2 MSTORE PUSH1 0x4 ADD PUSH2 0x854 SWAP1 PUSH2 0x3433 JUMP JUMPDEST PUSH9 0x3635C9ADC5DEA00000 PUSH1 0xD SSTORE JUMP JUMPDEST PUSH1 0x0 DUP1 PUSH1 0x0 DUP1 PUSH1 0x0 DUP1 PUSH1 0x0 PUSH2 0x1D86 DUP10 DUP10 PUSH2 0x273F JUMP JUMPDEST SWAP2 POP SWAP2 POP PUSH1 0x0 PUSH2 0x1D94 PUSH2 0x24A3 JUMP JUMPDEST SWAP1 POP PUSH1 0x0 DUP1 PUSH1 0x0 PUSH2 0x1DA6 DUP14 DUP7 DUP7 PUSH2 0x279E JUMP JUMPDEST SWAP2 SWAP16 SWAP1 SWAP15 POP SWAP1 SWAP13 POP SWAP6 SWAP11 POP SWAP4 SWAP9 POP SWAP4 SWAP7 POP POP POP POP POP POP POP JUMP JUMPDEST PUSH1 0x1 PUSH1 0x1 PUSH1 0xA0 SHL SUB DUP4 AND PUSH2 0x1E21 JUMPI PUSH1 0x40 MLOAD PUSH3 0x461BCD PUSH1 0xE5 SHL DUP2 MSTORE PUSH1 0x20 PUSH1 0x4 DUP3 ADD MSTORE PUSH1 0x24 DUP1 DUP3 ADD MSTORE PUSH32 0x45524332303A20617070726F76652066726F6D20746865207A65726F20616464 PUSH1 0x44 DUP3 ADD MSTORE PUSH4 0x72657373 PUSH1 0xE0 SHL PUSH1 0x64 DUP3 ADD MSTORE PUSH1 0x84 ADD PUSH2 0x854 JUMP JUMPDEST PUSH1 0x1 PUSH1 0x1 PUSH1 0xA0 SHL SUB DUP3 AND PUSH2 0x1E82 JUMPI PUSH1 0x40 MLOAD PUSH3 0x461BCD PUSH1 0xE5 SHL DUP2 MSTORE PUSH1 0x20 PUSH1 0x4 DUP3 ADD MSTORE PUSH1 0x22 PUSH1 0x24 DUP3 ADD MSTORE PUSH32 0x45524332303A20617070726F766520746F20746865207A65726F206164647265 PUSH1 0x44 DUP3 ADD MSTORE PUSH2 0x7373 PUSH1 0xF0 SHL PUSH1 0x64 DUP3 ADD MSTORE PUSH1 0x84 ADD PUSH2 0x854 JUMP JUMPDEST PUSH1 0x1 PUSH1 0x1 PUSH1 0xA0 SHL SUB DUP4 DUP2 AND PUSH1 0x0 DUP2 DUP2 MSTORE PUSH1 0x4 PUSH1 0x20 SWAP1 DUP2 MSTORE PUSH1 0x40 DUP1 DUP4 KECCAK256 SWAP5 DUP8 AND DUP1 DUP5 MSTORE SWAP5 DUP3 MSTORE SWAP2 DUP3 SWAP1 KECCAK256 DUP6 SWAP1 SSTORE SWAP1 MLOAD DUP5 DUP2 MSTORE PUSH32 0x8C5BE1E5EBEC7D5BD14F71427D1E84F3DD0314C0F7B2291E5B200AC8C7C3B925 SWAP2 ADD PUSH1 0x40 MLOAD DUP1 SWAP2 SUB SWAP1 LOG3 POP POP POP JUMP JUMPDEST PUSH1 0x0 PUSH1 0x1 DUP3 DUP2 SLOAD DUP2 LT PUSH2 0x1EF8 JUMPI PUSH2 0x1EF8 PUSH2 0x35F3 JUMP JUMPDEST PUSH1 0x0 SWAP2 DUP3 MSTORE PUSH1 0x20 DUP1 DUP4 KECCAK256 PUSH1 0x40 DUP1 MLOAD PUSH2 0x120 DUP2 ADD DUP3 MSTORE PUSH1 0x4 SWAP1 SWAP5 MUL SWAP1 SWAP2 ADD DUP1 SLOAD PUSH4 0xFFFFFFFF DUP1 DUP3 AND DUP7 MSTORE PUSH5 0x100000000 DUP3 DIV DUP2 AND SWAP5 DUP7 ADD SWAP5 SWAP1 SWAP5 MSTORE PUSH1 0x1 PUSH1 0x40 SHL DUP2 DIV DUP5 AND SWAP3 DUP6 ADD DUP4 SWAP1 MSTORE PUSH1 0x1 PUSH1 0x60 SHL DUP2 DIV DUP5 AND PUSH1 0x60 DUP7 ADD DUP2 SWAP1 MSTORE PUSH1 0x1 PUSH1 0x80 SHL DUP3 DIV DUP6 AND PUSH1 0x80 DUP8 ADD DUP2 SWAP1 MSTORE PUSH1 0x1 PUSH1 0xA0 SHL SWAP1 SWAP3 DIV SWAP1 SWAP5 AND PUSH1 0xA0 DUP7 ADD MSTORE PUSH1 0x1 DUP3 ADD SLOAD PUSH1 0x1 PUSH1 0x1 PUSH1 0xA0 SHL SUB SWAP1 DUP2 AND PUSH1 0xC0 DUP8 ADD MSTORE PUSH1 0x2 DUP4 ADD SLOAD DUP2 AND PUSH1 0xE0 DUP8 ADD MSTORE PUSH1 0x3 SWAP1 SWAP3 ADD SLOAD SWAP1 SWAP2 AND PUSH2 0x100 DUP6 ADD MSTORE SWAP3 SWAP5 POP PUSH2 0x1FAE SWAP2 SWAP1 PUSH2 0x34F1 JUMP JUMPDEST PUSH2 0x1FB8 SWAP2 SWAP1 PUSH2 0x34F1 JUMP JUMPDEST PUSH4 0xFFFFFFFF AND DUP3 PUSH1 0x40 ADD MLOAD PUSH4 0xFFFFFFFF AND DUP6 PUSH2 0x1FD4 SWAP2 SWAP1 PUSH2 0x353B JUMP JUMPDEST PUSH2 0x1FDE SWAP2 SWAP1 PUSH2 0x3519 JUMP JUMPDEST SWAP1 POP PUSH1 0x0 DUP3 PUSH1 0x80 ADD MLOAD DUP4 PUSH1 0x60 ADD MLOAD DUP5 PUSH1 0x40 ADD MLOAD PUSH2 0x1FFB SWAP2 SWAP1 PUSH2 0x34F1 JUMP JUMPDEST PUSH2 0x2005 SWAP2 SWAP1 PUSH2 0x34F1 JUMP JUMPDEST PUSH4 0xFFFFFFFF AND DUP4 PUSH1 0x60 ADD MLOAD PUSH4 0xFFFFFFFF AND DUP7 PUSH2 0x2021 SWAP2 SWAP1 PUSH2 0x353B JUMP JUMPDEST PUSH2 0x202B SWAP2 SWAP1 PUSH2 0x3519 JUMP JUMPDEST SWAP1 POP PUSH1 0x0 DUP2 PUSH2 0x203A DUP5 DUP9 PUSH2 0x355A JUMP JUMPDEST PUSH2 0x2044 SWAP2 SWAP1 PUSH2 0x355A JUMP JUMPDEST PUSH1 0xC0 DUP6 ADD MLOAD PUSH1 0x40 MLOAD SWAP2 SWAP3 POP PUSH1 0x1 PUSH1 0x1 PUSH1 0xA0 SHL SUB AND SWAP1 DUP5 ISZERO PUSH2 0x8FC MUL SWAP1 DUP6 SWAP1 PUSH1 0x0 DUP2 DUP2 DUP2 DUP6 DUP9 DUP9 CALL SWAP4 POP POP POP POP ISZERO DUP1 ISZERO PUSH2 0x2081 JUMPI RETURNDATASIZE PUSH1 0x0 DUP1 RETURNDATACOPY RETURNDATASIZE PUSH1 0x0 REVERT JUMPDEST POP DUP4 PUSH1 0xE0 ADD MLOAD PUSH1 0x1 PUSH1 0x1 PUSH1 0xA0 SHL SUB AND PUSH2 0x8FC DUP4 SWAP1 DUP2 ISZERO MUL SWAP1 PUSH1 0x40 MLOAD PUSH1 0x0 PUSH1 0x40 MLOAD DUP1 DUP4 SUB DUP2 DUP6 DUP9 DUP9 CALL SWAP4 POP POP POP POP ISZERO DUP1 ISZERO PUSH2 0x20BF JUMPI RETURNDATASIZE PUSH1 0x0 DUP1 RETURNDATACOPY RETURNDATASIZE PUSH1 0x0 REVERT JUMPDEST POP DUP4 PUSH2 0x100 ADD MLOAD PUSH1 0x1 PUSH1 0x1 PUSH1 0xA0 SHL SUB AND PUSH2 0x8FC DUP3 SWAP1 DUP2 ISZERO MUL SWAP1 PUSH1 0x40 MLOAD PUSH1 0x0 PUSH1 0x40 MLOAD DUP1 DUP4 SUB DUP2 DUP6 DUP9 DUP9 CALL SWAP4 POP POP POP POP ISZERO DUP1 ISZERO PUSH2 0x20FE JUMPI RETURNDATASIZE PUSH1 0x0 DUP1 RETURNDATACOPY RETURNDATASIZE PUSH1 0x0 REVERT JUMPDEST POP POP POP POP POP POP POP JUMP JUMPDEST PUSH1 0x1 PUSH1 0x1 PUSH1 0xA0 SHL SUB DUP4 AND PUSH2 0x216B JUMPI PUSH1 0x40 MLOAD PUSH3 0x461BCD PUSH1 0xE5 SHL DUP2 MSTORE PUSH1 0x20 PUSH1 0x4 DUP3 ADD MSTORE PUSH1 0x25 PUSH1 0x24 DUP3 ADD MSTORE PUSH32 0x45524332303A207472616E736665722066726F6D20746865207A65726F206164 PUSH1 0x44 DUP3 ADD MSTORE PUSH5 0x6472657373 PUSH1 0xD8 SHL PUSH1 0x64 DUP3 ADD MSTORE PUSH1 0x84 ADD PUSH2 0x854 JUMP JUMPDEST PUSH1 0x1 PUSH1 0x1 PUSH1 0xA0 SHL SUB DUP3 AND PUSH2 0x21CD JUMPI PUSH1 0x40 MLOAD PUSH3 0x461BCD PUSH1 0xE5 SHL DUP2 MSTORE PUSH1 0x20 PUSH1 0x4 DUP3 ADD MSTORE PUSH1 0x23 PUSH1 0x24 DUP3 ADD MSTORE PUSH32 0x45524332303A207472616E7366657220746F20746865207A65726F2061646472 PUSH1 0x44 DUP3 ADD MSTORE PUSH3 0x657373 PUSH1 0xE8 SHL PUSH1 0x64 DUP3 ADD MSTORE PUSH1 0x84 ADD PUSH2 0x854 JUMP JUMPDEST PUSH1 0x0 DUP2 GT PUSH2 0x222F JUMPI PUSH1 0x40 MLOAD PUSH3 0x461BCD PUSH1 0xE5 SHL DUP2 MSTORE PUSH1 0x20 PUSH1 0x4 DUP3 ADD MSTORE PUSH1 0x29 PUSH1 0x24 DUP3 ADD MSTORE PUSH32 0x5472616E7366657220616D6F756E74206D757374206265206772656174657220 PUSH1 0x44 DUP3 ADD MSTORE PUSH9 0x7468616E207A65726F PUSH1 0xB8 SHL PUSH1 0x64 DUP3 ADD MSTORE PUSH1 0x84 ADD PUSH2 0x854 JUMP JUMPDEST PUSH1 0xC SLOAD PUSH1 0x0 SWAP1 PUSH1 0x1 PUSH1 0x1 PUSH1 0xA0 SHL SUB DUP6 DUP2 AND SWAP2 AND EQ ISZERO PUSH2 0x2250 JUMPI POP PUSH1 0x0 PUSH2 0x2254 JUMP JUMPDEST POP PUSH1 0x1 JUMPDEST PUSH1 0x0 SLOAD PUSH1 0x1 PUSH1 0x1 PUSH1 0xA0 SHL SUB DUP6 DUP2 AND SWAP2 AND EQ DUP1 ISZERO SWAP1 PUSH2 0x2280 JUMPI POP PUSH1 0x0 SLOAD PUSH1 0x1 PUSH1 0x1 PUSH1 0xA0 SHL SUB DUP5 DUP2 AND SWAP2 AND EQ ISZERO JUMPDEST DUP1 ISZERO PUSH2 0x2297 JUMPI POP PUSH1 0x1 PUSH1 0x1 PUSH1 0xA0 SHL SUB DUP4 AND PUSH2 0xDEAD EQ ISZERO JUMPDEST ISZERO PUSH2 0x2491 JUMPI PUSH1 0xC SLOAD PUSH1 0x1 PUSH1 0xA8 SHL SWAP1 DIV PUSH1 0xFF AND PUSH2 0x241B JUMPI PUSH1 0xD SLOAD DUP3 GT ISZERO PUSH2 0x230F JUMPI PUSH1 0x40 MLOAD PUSH3 0x461BCD PUSH1 0xE5 SHL DUP2 MSTORE PUSH1 0x20 PUSH1 0x4 DUP3 ADD MSTORE PUSH1 0x27 PUSH1 0x24 DUP3 ADD MSTORE PUSH32 0x5472616E7366657220616D6F756E74206578636565647320746865206D617854 PUSH1 0x44 DUP3 ADD MSTORE PUSH7 0x1E105B5BDD5B9D PUSH1 0xCA SHL PUSH1 0x64 DUP3 ADD MSTORE PUSH1 0x84 ADD PUSH2 0x854 JUMP JUMPDEST PUSH1 0x1 PUSH1 0x1 PUSH1 0xA0 SHL SUB DUP5 AND PUSH1 0x0 SWAP1 DUP2 MSTORE PUSH1 0x10 PUSH1 0x20 MSTORE PUSH1 0x40 SWAP1 KECCAK256 SLOAD PUSH1 0xFF AND ISZERO DUP1 PUSH2 0x2350 JUMPI POP PUSH1 0x1 PUSH1 0x1 PUSH1 0xA0 SHL SUB DUP4 AND PUSH1 0x0 SWAP1 DUP2 MSTORE PUSH1 0x10 PUSH1 0x20 MSTORE PUSH1 0x40 SWAP1 KECCAK256 SLOAD PUSH1 0xFF AND ISZERO JUMPDEST PUSH2 0x238E JUMPI PUSH1 0x40 MLOAD PUSH3 0x461BCD PUSH1 0xE5 SHL DUP2 MSTORE PUSH1 0x20 PUSH1 0x4 DUP3 ADD MSTORE PUSH1 0xF PUSH1 0x24 DUP3 ADD MSTORE PUSH15 0x14DB9A5C195C8814995A9958DD1959 PUSH1 0x8A SHL PUSH1 0x44 DUP3 ADD MSTORE PUSH1 0x64 ADD PUSH2 0x854 JUMP JUMPDEST PUSH1 0xC SLOAD PUSH1 0x1 PUSH1 0x1 PUSH1 0xA0 SHL SUB DUP5 DUP2 AND SWAP2 AND EQ PUSH2 0x241B JUMPI PUSH1 0xE SLOAD DUP3 PUSH2 0x23B0 DUP6 PUSH2 0xEA2 JUMP JUMPDEST PUSH2 0x23BA SWAP2 SWAP1 PUSH2 0x34D9 JUMP JUMPDEST GT ISZERO PUSH2 0x241B JUMPI PUSH1 0x40 MLOAD PUSH3 0x461BCD PUSH1 0xE5 SHL DUP2 MSTORE PUSH1 0x20 PUSH1 0x4 DUP3 ADD MSTORE PUSH1 0x2A PUSH1 0x24 DUP3 ADD MSTORE PUSH32 0x52656365697665722061646472657373206578636565647320746865206D6178 PUSH1 0x44 DUP3 ADD MSTORE PUSH10 0x121BDB19105B5BDD5B9D PUSH1 0xB2 SHL PUSH1 0x64 DUP3 ADD MSTORE PUSH1 0x84 ADD PUSH2 0x854 JUMP JUMPDEST PUSH1 0xC SLOAD PUSH1 0x1 PUSH1 0xA8 SHL SWAP1 DIV PUSH1 0xFF AND ISZERO DUP1 ISZERO PUSH2 0x2443 JUMPI POP PUSH1 0xC SLOAD PUSH1 0x1 PUSH1 0x1 PUSH1 0xA0 SHL SUB DUP6 DUP2 AND SWAP2 AND EQ ISZERO JUMPDEST DUP1 ISZERO PUSH2 0x2458 JUMPI POP PUSH1 0xC SLOAD PUSH1 0x1 PUSH1 0xB0 SHL SWAP1 DIV PUSH1 0xFF AND JUMPDEST ISZERO PUSH2 0x2491 JUMPI PUSH1 0x0 PUSH2 0x2468 ADDRESS PUSH2 0xEA2 JUMP JUMPDEST SWAP1 POP PUSH1 0xF SLOAD DUP2 GT ISZERO PUSH2 0x247D JUMPI PUSH2 0x247D DUP2 PUSH2 0x2516 JUMP JUMPDEST SELFBALANCE DUP1 ISZERO PUSH2 0x248E JUMPI PUSH2 0x248E SELFBALANCE DUP5 PUSH2 0x1EE3 JUMP JUMPDEST POP POP JUMPDEST PUSH2 0x249D DUP5 DUP5 DUP5 DUP5 PUSH2 0x27DA JUMP JUMPDEST POP POP POP POP JUMP JUMPDEST PUSH1 0x0 DUP1 PUSH1 0x0 PUSH2 0x24B0 PUSH2 0x27E6 JUMP JUMPDEST SWAP1 SWAP3 POP SWAP1 POP PUSH2 0x24BF DUP2 DUP4 PUSH2 0x3519 JUMP JUMPDEST SWAP3 POP POP POP SWAP1 JUMP JUMPDEST PUSH1 0x0 DUP1 SLOAD PUSH1 0x1 PUSH1 0x1 PUSH1 0xA0 SHL SUB DUP4 DUP2 AND PUSH1 0x1 PUSH1 0x1 PUSH1 0xA0 SHL SUB NOT DUP4 AND DUP2 OR DUP5 SSTORE PUSH1 0x40 MLOAD SWAP2 SWAP1 SWAP3 AND SWAP3 DUP4 SWAP2 PUSH32 0x8BE0079C531659141344CD1FD0A4F28419497F9722A3DAAFE3B4186F6B6457E0 SWAP2 SWAP1 LOG3 POP POP JUMP JUMPDEST PUSH1 0xC DUP1 SLOAD PUSH1 0xFF PUSH1 0xA8 SHL NOT AND PUSH1 0x1 PUSH1 0xA8 SHL OR SWAP1 SSTORE PUSH1 0x40 DUP1 MLOAD PUSH1 0x2 DUP1 DUP3 MSTORE PUSH1 0x60 DUP3 ADD DUP4 MSTORE PUSH1 0x0 SWAP3 PUSH1 0x20 DUP4 ADD SWAP1 DUP1 CALLDATASIZE DUP4 CALLDATACOPY ADD SWAP1 POP POP SWAP1 POP ADDRESS DUP2 PUSH1 0x0 DUP2 MLOAD DUP2 LT PUSH2 0x255E JUMPI PUSH2 0x255E PUSH2 0x35F3 JUMP JUMPDEST PUSH1 0x1 PUSH1 0x1 PUSH1 0xA0 SHL SUB SWAP3 DUP4 AND PUSH1 0x20 SWAP2 DUP3 MUL SWAP3 SWAP1 SWAP3 ADD DUP2 ADD SWAP2 SWAP1 SWAP2 MSTORE PUSH1 0xB SLOAD PUSH1 0x40 DUP1 MLOAD PUSH4 0x15AB88C9 PUSH1 0xE3 SHL DUP2 MSTORE SWAP1 MLOAD SWAP2 SWAP1 SWAP4 AND SWAP3 PUSH4 0xAD5C4648 SWAP3 PUSH1 0x4 DUP1 DUP4 ADD SWAP4 SWAP2 SWAP3 DUP3 SWAP1 SUB ADD DUP2 DUP7 DUP1 EXTCODESIZE ISZERO DUP1 ISZERO PUSH2 0x25B2 JUMPI PUSH1 0x0 DUP1 REVERT JUMPDEST POP GAS STATICCALL ISZERO DUP1 ISZERO PUSH2 0x25C6 JUMPI RETURNDATASIZE PUSH1 0x0 DUP1 RETURNDATACOPY RETURNDATASIZE PUSH1 0x0 REVERT JUMPDEST POP POP POP POP PUSH1 0x40 MLOAD RETURNDATASIZE PUSH1 0x1F NOT PUSH1 0x1F DUP3 ADD AND DUP3 ADD DUP1 PUSH1 0x40 MSTORE POP DUP2 ADD SWAP1 PUSH2 0x25EA SWAP2 SWAP1 PUSH2 0x31A9 JUMP JUMPDEST DUP2 PUSH1 0x1 DUP2 MLOAD DUP2 LT PUSH2 0x25FD JUMPI PUSH2 0x25FD PUSH2 0x35F3 JUMP JUMPDEST PUSH1 0x1 PUSH1 0x1 PUSH1 0xA0 SHL SUB SWAP3 DUP4 AND PUSH1 0x20 SWAP2 DUP3 MUL SWAP3 SWAP1 SWAP3 ADD ADD MSTORE PUSH1 0xB SLOAD PUSH2 0x2623 SWAP2 ADDRESS SWAP2 AND DUP5 PUSH2 0x1DBF JUMP JUMPDEST PUSH1 0xB SLOAD PUSH1 0x40 MLOAD PUSH4 0x791AC947 PUSH1 0xE0 SHL DUP2 MSTORE PUSH1 0x1 PUSH1 0x1 PUSH1 0xA0 SHL SUB SWAP1 SWAP2 AND SWAP1 PUSH4 0x791AC947 SWAP1 PUSH2 0x265C SWAP1 DUP6 SWAP1 PUSH1 0x0 SWAP1 DUP7 SWAP1 ADDRESS SWAP1 TIMESTAMP SWAP1 PUSH1 0x4 ADD PUSH2 0x3468 JUMP JUMPDEST PUSH1 0x0 PUSH1 0x40 MLOAD DUP1 DUP4 SUB DUP2 PUSH1 0x0 DUP8 DUP1 EXTCODESIZE ISZERO DUP1 ISZERO PUSH2 0x2676 JUMPI PUSH1 0x0 DUP1 REVERT JUMPDEST POP GAS CALL SWAP3 POP POP POP DUP1 ISZERO PUSH2 0x2687 JUMPI POP PUSH1 0x1 JUMPDEST PUSH2 0x26F9 JUMPI PUSH2 0x2693 PUSH2 0x3609 JUMP JUMPDEST DUP1 PUSH4 0x8C379A0 EQ ISZERO PUSH2 0x26ED JUMPI POP PUSH2 0x26A8 PUSH2 0x3625 JUMP JUMPDEST DUP1 PUSH2 0x26B3 JUMPI POP PUSH2 0x26EF JUMP JUMPDEST PUSH1 0x40 MLOAD PUSH1 0x0 DUP2 MSTORE PUSH32 0x7E74D8AAC3CEFED9A6CA78B1FD1A7F473E8E26D817F50FEEBC4E79D8BAF5D417 SWAP1 PUSH1 0x20 ADD PUSH1 0x40 MLOAD DUP1 SWAP2 SUB SWAP1 LOG1 POP PUSH2 0x272E JUMP JUMPDEST POP JUMPDEST RETURNDATASIZE PUSH1 0x0 DUP1 RETURNDATACOPY RETURNDATASIZE PUSH1 0x0 REVERT JUMPDEST PUSH1 0x40 MLOAD PUSH1 0x1 DUP2 MSTORE PUSH32 0x7E74D8AAC3CEFED9A6CA78B1FD1A7F473E8E26D817F50FEEBC4E79D8BAF5D417 SWAP1 PUSH1 0x20 ADD PUSH1 0x40 MLOAD DUP1 SWAP2 SUB SWAP1 LOG1 JUMPDEST POP POP PUSH1 0xC DUP1 SLOAD PUSH1 0xFF PUSH1 0xA8 SHL NOT AND SWAP1 SSTORE JUMP JUMPDEST PUSH1 0x0 DUP1 PUSH1 0x0 PUSH1 0x64 PUSH1 0x1 DUP6 DUP2 SLOAD DUP2 LT PUSH2 0x2759 JUMPI PUSH2 0x2759 PUSH2 0x35F3 JUMP JUMPDEST PUSH1 0x0 SWAP2 DUP3 MSTORE PUSH1 0x20 SWAP1 SWAP2 KECCAK256 PUSH1 0x4 SWAP1 SWAP2 MUL ADD SLOAD PUSH2 0x277A SWAP1 PUSH4 0xFFFFFFFF AND DUP8 PUSH2 0x353B JUMP JUMPDEST PUSH2 0x2784 SWAP2 SWAP1 PUSH2 0x3519 JUMP JUMPDEST SWAP1 POP PUSH1 0x0 PUSH2 0x2792 DUP3 DUP8 PUSH2 0x355A JUMP JUMPDEST SWAP7 SWAP2 SWAP6 POP SWAP1 SWAP4 POP POP POP POP JUMP JUMPDEST PUSH1 0x0 DUP1 DUP1 DUP1 PUSH2 0x27AD DUP6 DUP9 PUSH2 0x353B JUMP JUMPDEST SWAP1 POP PUSH1 0x0 PUSH2 0x27BB DUP7 DUP9 PUSH2 0x353B JUMP JUMPDEST SWAP1 POP PUSH1 0x0 PUSH2 0x27C9 DUP3 DUP5 PUSH2 0x355A JUMP JUMPDEST SWAP3 SWAP10 SWAP3 SWAP9 POP SWAP1 SWAP7 POP SWAP1 SWAP5 POP POP POP POP POP JUMP JUMPDEST PUSH2 0x249D DUP5 DUP5 DUP5 DUP5 PUSH2 0x29B9 JUMP JUMPDEST PUSH1 0x9 SLOAD PUSH1 0x0 SWAP1 DUP2 SWAP1 DUP2 PUSH2 0x2805 PUSH8 0x16345785D8A0000 PUSH4 0x3B9ACA00 PUSH2 0x353B JUMP JUMPDEST SWAP1 POP PUSH1 0x0 JUMPDEST PUSH1 0x6 SLOAD DUP2 LT ISZERO PUSH2 0x2962 JUMPI DUP3 PUSH1 0x2 PUSH1 0x0 PUSH1 0x6 DUP5 DUP2 SLOAD DUP2 LT PUSH2 0x282C JUMPI PUSH2 0x282C PUSH2 0x35F3 JUMP JUMPDEST PUSH1 0x0 SWAP2 DUP3 MSTORE PUSH1 0x20 DUP1 DUP4 KECCAK256 SWAP1 SWAP2 ADD SLOAD PUSH1 0x1 PUSH1 0x1 PUSH1 0xA0 SHL SUB AND DUP4 MSTORE DUP3 ADD SWAP3 SWAP1 SWAP3 MSTORE PUSH1 0x40 ADD SWAP1 KECCAK256 SLOAD GT DUP1 PUSH2 0x2897 JUMPI POP DUP2 PUSH1 0x3 PUSH1 0x0 PUSH1 0x6 DUP5 DUP2 SLOAD DUP2 LT PUSH2 0x2870 JUMPI PUSH2 0x2870 PUSH2 0x35F3 JUMP JUMPDEST PUSH1 0x0 SWAP2 DUP3 MSTORE PUSH1 0x20 DUP1 DUP4 KECCAK256 SWAP1 SWAP2 ADD SLOAD PUSH1 0x1 PUSH1 0x1 PUSH1 0xA0 SHL SUB AND DUP4 MSTORE DUP3 ADD SWAP3 SWAP1 SWAP3 MSTORE PUSH1 0x40 ADD SWAP1 KECCAK256 SLOAD GT JUMPDEST ISZERO PUSH2 0x28C0 JUMPI PUSH1 0x9 SLOAD PUSH2 0x28B5 PUSH8 0x16345785D8A0000 PUSH4 0x3B9ACA00 PUSH2 0x353B JUMP JUMPDEST SWAP5 POP SWAP5 POP POP POP POP SWAP1 SWAP2 JUMP JUMPDEST PUSH1 0x2 PUSH1 0x0 PUSH1 0x6 DUP4 DUP2 SLOAD DUP2 LT PUSH2 0x28D7 JUMPI PUSH2 0x28D7 PUSH2 0x35F3 JUMP JUMPDEST PUSH1 0x0 SWAP2 DUP3 MSTORE PUSH1 0x20 DUP1 DUP4 KECCAK256 SWAP1 SWAP2 ADD SLOAD PUSH1 0x1 PUSH1 0x1 PUSH1 0xA0 SHL SUB AND DUP4 MSTORE DUP3 ADD SWAP3 SWAP1 SWAP3 MSTORE PUSH1 0x40 ADD SWAP1 KECCAK256 SLOAD PUSH2 0x2906 SWAP1 DUP5 PUSH2 0x355A JUMP JUMPDEST SWAP3 POP PUSH1 0x3 PUSH1 0x0 PUSH1 0x6 DUP4 DUP2 SLOAD DUP2 LT PUSH2 0x291F JUMPI PUSH2 0x291F PUSH2 0x35F3 JUMP JUMPDEST PUSH1 0x0 SWAP2 DUP3 MSTORE PUSH1 0x20 DUP1 DUP4 KECCAK256 SWAP1 SWAP2 ADD SLOAD PUSH1 0x1 PUSH1 0x1 PUSH1 0xA0 SHL SUB AND DUP4 MSTORE DUP3 ADD SWAP3 SWAP1 SWAP3 MSTORE PUSH1 0x40 ADD SWAP1 KECCAK256 SLOAD PUSH2 0x294E SWAP1 DUP4 PUSH2 0x355A JUMP JUMPDEST SWAP2 POP DUP1 PUSH2 0x295A DUP2 PUSH2 0x35AC JUMP JUMPDEST SWAP2 POP POP PUSH2 0x280A JUMP JUMPDEST POP PUSH2 0x2979 PUSH8 0x16345785D8A0000 PUSH4 0x3B9ACA00 PUSH2 0x353B JUMP JUMPDEST PUSH1 0x9 SLOAD PUSH2 0x2986 SWAP2 SWAP1 PUSH2 0x3519 JUMP JUMPDEST DUP3 LT ISZERO PUSH2 0x29B0 JUMPI PUSH1 0x9 SLOAD PUSH2 0x29A6 PUSH8 0x16345785D8A0000 PUSH4 0x3B9ACA00 PUSH2 0x353B JUMP JUMPDEST SWAP4 POP SWAP4 POP POP POP SWAP1 SWAP2 JUMP JUMPDEST SWAP1 SWAP4 SWAP1 SWAP3 POP SWAP1 POP JUMP JUMPDEST PUSH1 0x0 DUP1 PUSH1 0x0 DUP1 PUSH1 0x0 PUSH2 0x29CC DUP8 PUSH1 0x0 PUSH2 0x1D71 JUMP JUMPDEST PUSH1 0x1 PUSH1 0x1 PUSH1 0xA0 SHL SUB DUP15 AND PUSH1 0x0 SWAP1 DUP2 MSTORE PUSH1 0x7 PUSH1 0x20 MSTORE PUSH1 0x40 SWAP1 KECCAK256 SLOAD SWAP5 SWAP10 POP SWAP3 SWAP8 POP SWAP1 SWAP6 POP SWAP4 POP SWAP2 POP PUSH1 0xFF AND ISZERO DUP1 ISZERO PUSH2 0x2A1B JUMPI POP PUSH1 0x1 PUSH1 0x1 PUSH1 0xA0 SHL SUB DUP9 AND PUSH1 0x0 SWAP1 DUP2 MSTORE PUSH1 0x7 PUSH1 0x20 MSTORE PUSH1 0x40 SWAP1 KECCAK256 SLOAD PUSH1 0xFF AND ISZERO JUMPDEST ISZERO PUSH2 0x2BAE JUMPI PUSH1 0x1 PUSH1 0x1 PUSH1 0xA0 SHL SUB DUP10 AND PUSH1 0x0 SWAP1 DUP2 MSTORE PUSH1 0x2 PUSH1 0x20 MSTORE PUSH1 0x40 SWAP1 KECCAK256 SLOAD PUSH2 0x2A44 SWAP1 DUP7 SWAP1 PUSH2 0x355A JUMP JUMPDEST PUSH1 0x1 PUSH1 0x1 PUSH1 0xA0 SHL SUB DUP1 DUP12 AND PUSH1 0x0 SWAP1 DUP2 MSTORE PUSH1 0x2 PUSH1 0x20 MSTORE PUSH1 0x40 DUP1 DUP3 KECCAK256 SWAP4 SWAP1 SWAP4 SSTORE SWAP1 DUP11 AND DUP2 MSTORE KECCAK256 SLOAD PUSH2 0x2A74 SWAP1 DUP6 SWAP1 PUSH2 0x34D9 JUMP JUMPDEST PUSH1 0x1 PUSH1 0x1 PUSH1 0xA0 SHL SUB DUP1 DUP11 AND PUSH1 0x0 SWAP1 DUP2 MSTORE PUSH1 0x2 PUSH1 0x20 SWAP1 DUP2 MSTORE PUSH1 0x40 DUP1 DUP4 KECCAK256 SWAP5 SWAP1 SWAP5 SSTORE SWAP2 DUP13 AND DUP2 MSTORE PUSH1 0x5 SWAP1 SWAP2 MSTORE KECCAK256 SLOAD PUSH1 0xFF AND ISZERO PUSH2 0x2AE6 JUMPI PUSH1 0x1 PUSH1 0x1 PUSH1 0xA0 SHL SUB DUP10 AND PUSH1 0x0 SWAP1 DUP2 MSTORE PUSH1 0x3 PUSH1 0x20 MSTORE PUSH1 0x40 SWAP1 KECCAK256 SLOAD PUSH2 0x2ACC SWAP1 DUP9 SWAP1 PUSH2 0x355A JUMP JUMPDEST PUSH1 0x1 PUSH1 0x1 PUSH1 0xA0 SHL SUB DUP11 AND PUSH1 0x0 SWAP1 DUP2 MSTORE PUSH1 0x3 PUSH1 0x20 MSTORE PUSH1 0x40 SWAP1 KECCAK256 SSTORE JUMPDEST PUSH1 0x1 PUSH1 0x1 PUSH1 0xA0 SHL SUB DUP9 AND PUSH1 0x0 SWAP1 DUP2 MSTORE PUSH1 0x5 PUSH1 0x20 MSTORE PUSH1 0x40 SWAP1 KECCAK256 SLOAD PUSH1 0xFF AND ISZERO PUSH2 0x2B45 JUMPI PUSH1 0x1 PUSH1 0x1 PUSH1 0xA0 SHL SUB DUP9 AND PUSH1 0x0 SWAP1 DUP2 MSTORE PUSH1 0x3 PUSH1 0x20 MSTORE PUSH1 0x40 SWAP1 KECCAK256 SLOAD PUSH2 0x2B2B SWAP1 DUP4 SWAP1 PUSH2 0x34D9 JUMP JUMPDEST PUSH1 0x1 PUSH1 0x1 PUSH1 0xA0 SHL SUB DUP10 AND PUSH1 0x0 SWAP1 DUP2 MSTORE PUSH1 0x3 PUSH1 0x20 MSTORE PUSH1 0x40 SWAP1 KECCAK256 SSTORE JUMPDEST PUSH1 0x0 PUSH2 0x2B51 DUP5 DUP9 PUSH2 0x2D1A JUMP JUMPDEST SWAP1 POP PUSH1 0x0 PUSH2 0x2B60 DUP12 DUP5 DUP11 PUSH2 0x2ED7 JUMP JUMPDEST SWAP1 POP PUSH2 0x2B6C DUP3 DUP3 PUSH2 0x314D JUMP JUMPDEST DUP10 PUSH1 0x1 PUSH1 0x1 PUSH1 0xA0 SHL SUB AND DUP12 PUSH1 0x1 PUSH1 0x1 PUSH1 0xA0 SHL SUB AND PUSH1 0x0 DUP1 MLOAD PUSH1 0x20 PUSH2 0x36D3 DUP4 CODECOPY DUP2 MLOAD SWAP2 MSTORE DUP7 PUSH1 0x40 MLOAD PUSH2 0x2B9F SWAP2 DUP2 MSTORE PUSH1 0x20 ADD SWAP1 JUMP JUMPDEST PUSH1 0x40 MLOAD DUP1 SWAP2 SUB SWAP1 LOG3 POP POP PUSH2 0x2D0F JUMP JUMPDEST PUSH1 0x1 PUSH1 0x1 PUSH1 0xA0 SHL SUB DUP10 AND PUSH1 0x0 SWAP1 DUP2 MSTORE PUSH1 0x2 PUSH1 0x20 MSTORE PUSH1 0x40 SWAP1 KECCAK256 SLOAD PUSH2 0x2BD2 SWAP1 DUP7 SWAP1 PUSH2 0x355A JUMP JUMPDEST PUSH1 0x1 PUSH1 0x1 PUSH1 0xA0 SHL SUB DUP1 DUP12 AND PUSH1 0x0 SWAP1 DUP2 MSTORE PUSH1 0x2 PUSH1 0x20 MSTORE PUSH1 0x40 DUP1 DUP3 KECCAK256 SWAP4 SWAP1 SWAP4 SSTORE SWAP1 DUP11 AND DUP2 MSTORE KECCAK256 SLOAD PUSH2 0x2C02 SWAP1 DUP7 SWAP1 PUSH2 0x34D9 JUMP JUMPDEST PUSH1 0x1 PUSH1 0x1 PUSH1 0xA0 SHL SUB DUP1 DUP11 AND PUSH1 0x0 SWAP1 DUP2 MSTORE PUSH1 0x2 PUSH1 0x20 SWAP1 DUP2 MSTORE PUSH1 0x40 DUP1 DUP4 KECCAK256 SWAP5 SWAP1 SWAP5 SSTORE SWAP2 DUP13 AND DUP2 MSTORE PUSH1 0x5 SWAP1 SWAP2 MSTORE KECCAK256 SLOAD PUSH1 0xFF AND ISZERO PUSH2 0x2C74 JUMPI PUSH1 0x1 PUSH1 0x1 PUSH1 0xA0 SHL SUB DUP10 AND PUSH1 0x0 SWAP1 DUP2 MSTORE PUSH1 0x3 PUSH1 0x20 MSTORE PUSH1 0x40 SWAP1 KECCAK256 SLOAD PUSH2 0x2C5A SWAP1 DUP9 SWAP1 PUSH2 0x355A JUMP JUMPDEST PUSH1 0x1 PUSH1 0x1 PUSH1 0xA0 SHL SUB DUP11 AND PUSH1 0x0 SWAP1 DUP2 MSTORE PUSH1 0x3 PUSH1 0x20 MSTORE PUSH1 0x40 SWAP1 KECCAK256 SSTORE JUMPDEST PUSH1 0x1 PUSH1 0x1 PUSH1 0xA0 SHL SUB DUP9 AND PUSH1 0x0 SWAP1 DUP2 MSTORE PUSH1 0x5 PUSH1 0x20 MSTORE PUSH1 0x40 SWAP1 KECCAK256 SLOAD PUSH1 0xFF AND ISZERO PUSH2 0x2CD3 JUMPI PUSH1 0x1 PUSH1 0x1 PUSH1 0xA0 SHL SUB DUP9 AND PUSH1 0x0 SWAP1 DUP2 MSTORE PUSH1 0x3 PUSH1 0x20 MSTORE PUSH1 0x40 SWAP1 KECCAK256 SLOAD PUSH2 0x2CB9 SWAP1 DUP9 SWAP1 PUSH2 0x34D9 JUMP JUMPDEST PUSH1 0x1 PUSH1 0x1 PUSH1 0xA0 SHL SUB DUP10 AND PUSH1 0x0 SWAP1 DUP2 MSTORE PUSH1 0x3 PUSH1 0x20 MSTORE PUSH1 0x40 SWAP1 KECCAK256 SSTORE JUMPDEST DUP8 PUSH1 0x1 PUSH1 0x1 PUSH1 0xA0 SHL SUB AND DUP10 PUSH1 0x1 PUSH1 0x1 PUSH1 0xA0 SHL SUB AND PUSH1 0x0 DUP1 MLOAD PUSH1 0x20 PUSH2 0x36D3 DUP4 CODECOPY DUP2 MLOAD SWAP2 MSTORE DUP10 PUSH1 0x40 MLOAD PUSH2 0x2D06 SWAP2 DUP2 MSTORE PUSH1 0x20 ADD SWAP1 JUMP JUMPDEST PUSH1 0x40 MLOAD DUP1 SWAP2 SUB SWAP1 LOG3 JUMPDEST POP POP POP POP POP POP POP POP POP JUMP JUMPDEST PUSH1 0x0 DUP1 PUSH1 0x1 DUP4 DUP2 SLOAD DUP2 LT PUSH2 0x2D30 JUMPI PUSH2 0x2D30 PUSH2 0x35F3 JUMP JUMPDEST PUSH1 0x0 SWAP2 DUP3 MSTORE PUSH1 0x20 DUP1 DUP4 KECCAK256 PUSH1 0x40 DUP1 MLOAD PUSH2 0x120 DUP2 ADD DUP3 MSTORE PUSH1 0x4 SWAP1 SWAP5 MUL SWAP1 SWAP2 ADD DUP1 SLOAD PUSH4 0xFFFFFFFF DUP1 DUP3 AND DUP7 MSTORE PUSH5 0x100000000 DUP3 DIV DUP2 AND SWAP5 DUP7 ADD DUP6 SWAP1 MSTORE PUSH1 0x1 PUSH1 0x40 SHL DUP3 DIV DUP2 AND SWAP4 DUP7 ADD SWAP4 SWAP1 SWAP4 MSTORE PUSH1 0x1 PUSH1 0x60 SHL DUP2 DIV DUP4 AND PUSH1 0x60 DUP7 ADD MSTORE PUSH1 0x1 PUSH1 0x80 SHL DUP2 DIV DUP4 AND PUSH1 0x80 DUP7 ADD MSTORE PUSH1 0x1 PUSH1 0xA0 SHL SWAP1 DIV SWAP1 SWAP2 AND PUSH1 0xA0 DUP5 ADD MSTORE PUSH1 0x1 DUP2 ADD SLOAD PUSH1 0x1 PUSH1 0x1 PUSH1 0xA0 SHL SUB SWAP1 DUP2 AND PUSH1 0xC0 DUP6 ADD MSTORE PUSH1 0x2 DUP3 ADD SLOAD DUP2 AND PUSH1 0xE0 DUP6 ADD MSTORE PUSH1 0x3 SWAP1 SWAP2 ADD SLOAD AND PUSH2 0x100 DUP4 ADD MSTORE SWAP1 SWAP3 POP PUSH2 0x2DE0 PUSH1 0x64 DUP8 PUSH2 0x3519 JUMP JUMPDEST PUSH2 0x2DEA SWAP2 SWAP1 PUSH2 0x353B JUMP JUMPDEST SWAP1 POP PUSH1 0x0 DUP3 PUSH1 0x80 ADD MLOAD DUP4 PUSH1 0x60 ADD MLOAD DUP5 PUSH1 0x40 ADD MLOAD PUSH2 0x2E07 SWAP2 SWAP1 PUSH2 0x34F1 JUMP JUMPDEST PUSH2 0x2E11 SWAP2 SWAP1 PUSH2 0x34F1 JUMP JUMPDEST PUSH4 0xFFFFFFFF AND PUSH2 0x2E22 PUSH1 0x64 DUP9 PUSH2 0x3519 JUMP JUMPDEST PUSH2 0x2E2C SWAP2 SWAP1 PUSH2 0x353B JUMP JUMPDEST SWAP1 POP PUSH1 0x0 DUP2 PUSH2 0x2E3B DUP5 DUP10 PUSH2 0x355A JUMP JUMPDEST PUSH2 0x2E45 SWAP2 SWAP1 PUSH2 0x355A JUMP JUMPDEST PUSH2 0xDEAD PUSH1 0x0 MSTORE PUSH1 0x2 PUSH1 0x20 MSTORE PUSH32 0x6A9609BAA168169ACAEA398C4407EFEA4BE641BB08E21E88806D9836FD9333CC SLOAD SWAP1 SWAP2 POP PUSH2 0x2E80 SWAP1 DUP5 SWAP1 PUSH2 0x34D9 JUMP JUMPDEST PUSH1 0x2 PUSH1 0x20 MSTORE PUSH32 0x6A9609BAA168169ACAEA398C4407EFEA4BE641BB08E21E88806D9836FD9333CC SSTORE ADDRESS PUSH1 0x0 SWAP1 DUP2 MSTORE PUSH1 0x40 SWAP1 KECCAK256 SLOAD PUSH2 0x2EBD SWAP1 DUP4 SWAP1 PUSH2 0x34D9 JUMP JUMPDEST ADDRESS PUSH1 0x0 SWAP1 DUP2 MSTORE PUSH1 0x2 PUSH1 0x20 MSTORE PUSH1 0x40 SWAP1 KECCAK256 SSTORE SWAP7 SWAP6 POP POP POP POP POP POP JUMP JUMPDEST PUSH1 0x0 DUP1 PUSH1 0x1 DUP4 DUP2 SLOAD DUP2 LT PUSH2 0x2EED JUMPI PUSH2 0x2EED PUSH2 0x35F3 JUMP JUMPDEST PUSH1 0x0 SWAP2 DUP3 MSTORE PUSH1 0x20 DUP1 DUP4 KECCAK256 PUSH1 0x40 DUP1 MLOAD PUSH2 0x120 DUP2 ADD DUP3 MSTORE PUSH1 0x4 SWAP1 SWAP5 MUL SWAP1 SWAP2 ADD DUP1 SLOAD PUSH4 0xFFFFFFFF DUP1 DUP3 AND DUP7 MSTORE PUSH5 0x100000000 DUP3 DIV DUP2 AND SWAP5 DUP7 ADD DUP6 SWAP1 MSTORE PUSH1 0x1 PUSH1 0x40 SHL DUP3 DIV DUP2 AND SWAP4 DUP7 ADD SWAP4 SWAP1 SWAP4 MSTORE PUSH1 0x1 PUSH1 0x60 SHL DUP2 DIV DUP4 AND PUSH1 0x60 DUP7 ADD MSTORE PUSH1 0x1 PUSH1 0x80 SHL DUP2 DIV DUP4 AND PUSH1 0x80 DUP7 ADD MSTORE PUSH1 0x1 PUSH1 0xA0 SHL SWAP1 DIV SWAP1 SWAP2 AND PUSH1 0xA0 DUP5 ADD MSTORE PUSH1 0x1 DUP2 ADD SLOAD PUSH1 0x1 PUSH1 0x1 PUSH1 0xA0 SHL SUB SWAP1 DUP2 AND PUSH1 0xC0 DUP6 ADD MSTORE PUSH1 0x2 DUP3 ADD SLOAD DUP2 AND PUSH1 0xE0 DUP6 ADD MSTORE PUSH1 0x3 SWAP1 SWAP2 ADD SLOAD AND PUSH2 0x100 DUP4 ADD MSTORE SWAP1 SWAP3 POP PUSH2 0x2F9D PUSH1 0x64 DUP8 PUSH2 0x3519 JUMP JUMPDEST PUSH2 0x2FA7 SWAP2 SWAP1 PUSH2 0x353B JUMP JUMPDEST SWAP1 POP PUSH1 0x0 DUP3 PUSH1 0x80 ADD MLOAD DUP4 PUSH1 0x60 ADD MLOAD DUP5 PUSH1 0x40 ADD MLOAD PUSH2 0x2FC4 SWAP2 SWAP1 PUSH2 0x34F1 JUMP JUMPDEST PUSH2 0x2FCE SWAP2 SWAP1 PUSH2 0x34F1 JUMP JUMPDEST PUSH4 0xFFFFFFFF AND PUSH2 0x2FDF PUSH1 0x64 DUP9 PUSH2 0x3519 JUMP JUMPDEST PUSH2 0x2FE9 SWAP2 SWAP1 PUSH2 0x353B JUMP JUMPDEST SWAP1 POP PUSH1 0x0 DUP2 PUSH2 0x2FF8 DUP5 DUP10 PUSH2 0x355A JUMP JUMPDEST PUSH2 0x3002 SWAP2 SWAP1 PUSH2 0x355A JUMP JUMPDEST PUSH2 0xDEAD PUSH1 0x0 MSTORE PUSH1 0x5 PUSH1 0x20 MSTORE PUSH32 0x7D509C07F0D4EDCC2DD1B53AAE68677132EB562DCBA78E36381B63CCAF66E6BA SLOAD SWAP1 SWAP2 POP PUSH1 0xFF AND ISZERO PUSH2 0x30A0 JUMPI PUSH2 0xDEAD PUSH1 0x0 MSTORE PUSH1 0x3 PUSH1 0x20 MSTORE PUSH32 0x262BB27BBDD95C1CDC8E16957E36E38579EA44F7F6413DD7A9C75939DEF06B2C SLOAD PUSH2 0x3072 SWAP1 DUP5 SWAP1 PUSH2 0x34D9 JUMP JUMPDEST PUSH2 0xDEAD PUSH1 0x0 MSTORE PUSH1 0x3 PUSH1 0x20 MSTORE PUSH32 0x262BB27BBDD95C1CDC8E16957E36E38579EA44F7F6413DD7A9C75939DEF06B2C SSTORE JUMPDEST ADDRESS PUSH1 0x0 SWAP1 DUP2 MSTORE PUSH1 0x5 PUSH1 0x20 MSTORE PUSH1 0x40 SWAP1 KECCAK256 SLOAD PUSH1 0xFF AND ISZERO PUSH2 0x30E4 JUMPI ADDRESS PUSH1 0x0 SWAP1 DUP2 MSTORE PUSH1 0x3 PUSH1 0x20 MSTORE PUSH1 0x40 SWAP1 KECCAK256 SLOAD PUSH2 0x30D3 SWAP1 DUP4 SWAP1 PUSH2 0x34D9 JUMP JUMPDEST ADDRESS PUSH1 0x0 SWAP1 DUP2 MSTORE PUSH1 0x3 PUSH1 0x20 MSTORE PUSH1 0x40 SWAP1 KECCAK256 SSTORE JUMPDEST PUSH1 0x40 MLOAD DUP4 DUP2 MSTORE PUSH2 0xDEAD SWAP1 PUSH1 0x1 PUSH1 0x1 PUSH1 0xA0 SHL SUB DUP11 AND SWAP1 PUSH1 0x0 DUP1 MLOAD PUSH1 0x20 PUSH2 0x36D3 DUP4 CODECOPY DUP2 MLOAD SWAP2 MSTORE SWAP1 PUSH1 0x20 ADD PUSH1 0x40 MLOAD DUP1 SWAP2 SUB SWAP1 LOG3 PUSH1 0x40 MLOAD DUP3 DUP2 MSTORE ADDRESS SWAP1 PUSH1 0x1 PUSH1 0x1 PUSH1 0xA0 SHL SUB DUP11 AND SWAP1 PUSH1 0x0 DUP1 MLOAD PUSH1 0x20 PUSH2 0x36D3 DUP4 CODECOPY DUP2 MLOAD SWAP2 MSTORE SWAP1 PUSH1 0x20 ADD PUSH1 0x40 MLOAD DUP1 SWAP2 SUB SWAP1 LOG3 SWAP8 SWAP7 POP POP POP POP POP POP POP JUMP JUMPDEST DUP2 PUSH1 0x9 SLOAD PUSH2 0x315B SWAP2 SWAP1 PUSH2 0x355A JUMP JUMPDEST PUSH1 0x9 SSTORE PUSH1 0xA SLOAD PUSH2 0x316C SWAP1 DUP3 SWAP1 PUSH2 0x34D9 JUMP JUMPDEST PUSH1 0xA SSTORE POP POP JUMP JUMPDEST DUP1 CALLDATALOAD PUSH4 0xFFFFFFFF DUP2 AND DUP2 EQ PUSH2 0x3187 JUMPI PUSH1 0x0 DUP1 REVERT JUMPDEST SWAP2 SWAP1 POP JUMP JUMPDEST PUSH1 0x0 PUSH1 0x20 DUP3 DUP5 SUB SLT ISZERO PUSH2 0x319E JUMPI PUSH1 0x0 DUP1 REVERT JUMPDEST DUP2 CALLDATALOAD PUSH2 0xA69 DUP2 PUSH2 0x36AF JUMP JUMPDEST PUSH1 0x0 PUSH1 0x20 DUP3 DUP5 SUB SLT ISZERO PUSH2 0x31BB JUMPI PUSH1 0x0 DUP1 REVERT JUMPDEST DUP2 MLOAD PUSH2 0xA69 DUP2 PUSH2 0x36AF JUMP JUMPDEST PUSH1 0x0 DUP1 PUSH1 0x40 DUP4 DUP6 SUB SLT ISZERO PUSH2 0x31D9 JUMPI PUSH1 0x0 DUP1 REVERT JUMPDEST DUP3 CALLDATALOAD PUSH2 0x31E4 DUP2 PUSH2 0x36AF JUMP JUMPDEST SWAP2 POP PUSH1 0x20 DUP4 ADD CALLDATALOAD PUSH2 0x31F4 DUP2 PUSH2 0x36AF JUMP JUMPDEST DUP1 SWAP2 POP POP SWAP3 POP SWAP3 SWAP1 POP JUMP JUMPDEST PUSH1 0x0 DUP1 PUSH1 0x0 PUSH1 0x60 DUP5 DUP7 SUB SLT ISZERO PUSH2 0x3214 JUMPI PUSH1 0x0 DUP1 REVERT JUMPDEST DUP4 CALLDATALOAD PUSH2 0x321F DUP2 PUSH2 0x36AF JUMP JUMPDEST SWAP3 POP PUSH1 0x20 DUP5 ADD CALLDATALOAD PUSH2 0x322F DUP2 PUSH2 0x36AF JUMP JUMPDEST SWAP3 SWAP6 SWAP3 SWAP5 POP POP POP PUSH1 0x40 SWAP2 SWAP1 SWAP2 ADD CALLDATALOAD SWAP1 JUMP JUMPDEST PUSH1 0x0 DUP1 PUSH1 0x40 DUP4 DUP6 SUB SLT ISZERO PUSH2 0x3253 JUMPI PUSH1 0x0 DUP1 REVERT JUMPDEST DUP3 CALLDATALOAD PUSH2 0x325E DUP2 PUSH2 0x36AF JUMP JUMPDEST SWAP2 POP PUSH1 0x20 DUP4 ADD CALLDATALOAD PUSH2 0x31F4 DUP2 PUSH2 0x36C4 JUMP JUMPDEST PUSH1 0x0 DUP1 PUSH1 0x40 DUP4 DUP6 SUB SLT ISZERO PUSH2 0x3281 JUMPI PUSH1 0x0 DUP1 REVERT JUMPDEST DUP3 CALLDATALOAD PUSH2 0x328C DUP2 PUSH2 0x36AF JUMP JUMPDEST SWAP5 PUSH1 0x20 SWAP4 SWAP1 SWAP4 ADD CALLDATALOAD SWAP4 POP POP POP JUMP JUMPDEST PUSH1 0x0 PUSH1 0x20 DUP3 DUP5 SUB SLT ISZERO PUSH2 0x32AC JUMPI PUSH1 0x0 DUP1 REVERT JUMPDEST DUP2 MLOAD PUSH2 0xA69 DUP2 PUSH2 0x36C4 JUMP JUMPDEST PUSH1 0x0 PUSH1 0x20 DUP3 DUP5 SUB SLT ISZERO PUSH2 0x32C9 JUMPI PUSH1 0x0 DUP1 REVERT JUMPDEST POP CALLDATALOAD SWAP2 SWAP1 POP JUMP JUMPDEST PUSH1 0x0 DUP1 PUSH1 0x40 DUP4 DUP6 SUB SLT ISZERO PUSH2 0x32E3 JUMPI PUSH1 0x0 DUP1 REVERT JUMPDEST DUP3 CALLDATALOAD SWAP2 POP PUSH1 0x20 DUP4 ADD CALLDATALOAD PUSH2 0x31F4 DUP2 PUSH2 0x36C4 JUMP JUMPDEST PUSH1 0x0 DUP1 PUSH1 0x0 PUSH1 0x60 DUP5 DUP7 SUB SLT ISZERO PUSH2 0x330A JUMPI PUSH1 0x0 DUP1 REVERT JUMPDEST DUP4 MLOAD SWAP3 POP PUSH1 0x20 DUP5 ADD MLOAD SWAP2 POP PUSH1 0x40 DUP5 ADD MLOAD SWAP1 POP SWAP3 POP SWAP3 POP SWAP3 JUMP JUMPDEST PUSH1 0x0 DUP1 PUSH1 0x0 DUP1 PUSH1 0x0 DUP1 PUSH1 0x0 DUP1 PUSH1 0x0 DUP1 PUSH2 0x140 DUP12 DUP14 SUB SLT ISZERO PUSH2 0x3343 JUMPI PUSH1 0x0 DUP1 REVERT JUMPDEST DUP11 CALLDATALOAD SWAP10 POP PUSH2 0x3353 PUSH1 0x20 DUP13 ADD PUSH2 0x3173 JUMP JUMPDEST SWAP9 POP PUSH2 0x3361 PUSH1 0x40 DUP13 ADD PUSH2 0x3173 JUMP JUMPDEST SWAP8 POP PUSH2 0x336F PUSH1 0x60 DUP13 ADD PUSH2 0x3173 JUMP JUMPDEST SWAP7 POP PUSH2 0x337D PUSH1 0x80 DUP13 ADD PUSH2 0x3173 JUMP JUMPDEST SWAP6 POP PUSH2 0x338B PUSH1 0xA0 DUP13 ADD PUSH2 0x3173 JUMP JUMPDEST SWAP5 POP PUSH2 0x3399 PUSH1 0xC0 DUP13 ADD PUSH2 0x3173 JUMP JUMPDEST SWAP4 POP PUSH1 0xE0 DUP12 ADD CALLDATALOAD PUSH2 0x33A9 DUP2 PUSH2 0x36AF JUMP JUMPDEST SWAP3 POP PUSH2 0x100 DUP12 ADD CALLDATALOAD PUSH2 0x33BA DUP2 PUSH2 0x36AF JUMP JUMPDEST SWAP2 POP PUSH2 0x120 DUP12 ADD CALLDATALOAD PUSH2 0x33CB DUP2 PUSH2 0x36AF JUMP JUMPDEST DUP1 SWAP2 POP POP SWAP3 SWAP6 SWAP9 SWAP12 SWAP2 SWAP5 SWAP8 SWAP11 POP SWAP3 SWAP6 SWAP9 POP JUMP JUMPDEST PUSH1 0x0 PUSH1 0x20 DUP1 DUP4 MSTORE DUP4 MLOAD DUP1 DUP3 DUP6 ADD MSTORE PUSH1 0x0 JUMPDEST DUP2 DUP2 LT ISZERO PUSH2 0x340B JUMPI DUP6 DUP2 ADD DUP4 ADD MLOAD DUP6 DUP3 ADD PUSH1 0x40 ADD MSTORE DUP3 ADD PUSH2 0x33EF JUMP JUMPDEST DUP2 DUP2 GT ISZERO PUSH2 0x341D JUMPI PUSH1 0x0 PUSH1 0x40 DUP4 DUP8 ADD ADD MSTORE JUMPDEST POP PUSH1 0x1F ADD PUSH1 0x1F NOT AND SWAP3 SWAP1 SWAP3 ADD PUSH1 0x40 ADD SWAP4 SWAP3 POP POP POP JUMP JUMPDEST PUSH1 0x20 DUP1 DUP3 MSTORE DUP2 DUP2 ADD MSTORE PUSH32 0x4F776E61626C653A2063616C6C6572206973206E6F7420746865206F776E6572 PUSH1 0x40 DUP3 ADD MSTORE PUSH1 0x60 ADD SWAP1 JUMP JUMPDEST PUSH1 0x0 PUSH1 0xA0 DUP3 ADD DUP8 DUP4 MSTORE PUSH1 0x20 DUP8 DUP2 DUP6 ADD MSTORE PUSH1 0xA0 PUSH1 0x40 DUP6 ADD MSTORE DUP2 DUP8 MLOAD DUP1 DUP5 MSTORE PUSH1 0xC0 DUP7 ADD SWAP2 POP DUP3 DUP10 ADD SWAP4 POP PUSH1 0x0 JUMPDEST DUP2 DUP2 LT ISZERO PUSH2 0x34B8 JUMPI DUP5 MLOAD PUSH1 0x1 PUSH1 0x1 PUSH1 0xA0 SHL SUB AND DUP4 MSTORE SWAP4 DUP4 ADD SWAP4 SWAP2 DUP4 ADD SWAP2 PUSH1 0x1 ADD PUSH2 0x3493 JUMP JUMPDEST POP POP PUSH1 0x1 PUSH1 0x1 PUSH1 0xA0 SHL SUB SWAP7 SWAP1 SWAP7 AND PUSH1 0x60 DUP6 ADD MSTORE POP POP POP PUSH1 0x80 ADD MSTORE SWAP4 SWAP3 POP POP POP JUMP JUMPDEST PUSH1 0x0 DUP3 NOT DUP3 GT ISZERO PUSH2 0x34EC JUMPI PUSH2 0x34EC PUSH2 0x35C7 JUMP JUMPDEST POP ADD SWAP1 JUMP JUMPDEST PUSH1 0x0 PUSH4 0xFFFFFFFF DUP1 DUP4 AND DUP2 DUP6 AND DUP1 DUP4 SUB DUP3 GT ISZERO PUSH2 0x3510 JUMPI PUSH2 0x3510 PUSH2 0x35C7 JUMP JUMPDEST ADD SWAP5 SWAP4 POP POP POP POP JUMP JUMPDEST PUSH1 0x0 DUP3 PUSH2 0x3536 JUMPI PUSH4 0x4E487B71 PUSH1 0xE0 SHL PUSH1 0x0 MSTORE PUSH1 0x12 PUSH1 0x4 MSTORE PUSH1 0x24 PUSH1 0x0 REVERT JUMPDEST POP DIV SWAP1 JUMP JUMPDEST PUSH1 0x0 DUP2 PUSH1 0x0 NOT DIV DUP4 GT DUP3 ISZERO ISZERO AND ISZERO PUSH2 0x3555 JUMPI PUSH2 0x3555 PUSH2 0x35C7 JUMP JUMPDEST POP MUL SWAP1 JUMP JUMPDEST PUSH1 0x0 DUP3 DUP3 LT ISZERO PUSH2 0x356C JUMPI PUSH2 0x356C PUSH2 0x35C7 JUMP JUMPDEST POP SUB SWAP1 JUMP JUMPDEST PUSH1 0x1F DUP3 ADD PUSH1 0x1F NOT AND DUP2 ADD PUSH8 0xFFFFFFFFFFFFFFFF DUP2 GT DUP3 DUP3 LT OR ISZERO PUSH2 0x35A5 JUMPI PUSH4 0x4E487B71 PUSH1 0xE0 SHL PUSH1 0x0 MSTORE PUSH1 0x41 PUSH1 0x4 MSTORE PUSH1 0x24 PUSH1 0x0 REVERT JUMPDEST PUSH1 0x40 MSTORE POP POP JUMP JUMPDEST PUSH1 0x0 PUSH1 0x0 NOT DUP3 EQ ISZERO PUSH2 0x35C0 JUMPI PUSH2 0x35C0 PUSH2 0x35C7 JUMP JUMPDEST POP PUSH1 0x1 ADD SWAP1 JUMP JUMPDEST PUSH4 0x4E487B71 PUSH1 0xE0 SHL PUSH1 0x0 MSTORE PUSH1 0x11 PUSH1 0x4 MSTORE PUSH1 0x24 PUSH1 0x0 REVERT JUMPDEST PUSH4 0x4E487B71 PUSH1 0xE0 SHL PUSH1 0x0 MSTORE PUSH1 0x31 PUSH1 0x4 MSTORE PUSH1 0x24 PUSH1 0x0 REVERT JUMPDEST PUSH4 0x4E487B71 PUSH1 0xE0 SHL PUSH1 0x0 MSTORE PUSH1 0x32 PUSH1 0x4 MSTORE PUSH1 0x24 PUSH1 0x0 REVERT JUMPDEST PUSH1 0x0 PUSH1 0x3 RETURNDATASIZE GT ISZERO PUSH2 0x3622 JUMPI PUSH1 0x4 PUSH1 0x0 DUP1 RETURNDATACOPY POP PUSH1 0x0 MLOAD PUSH1 0xE0 SHR JUMPDEST SWAP1 JUMP JUMPDEST PUSH1 0x0 PUSH1 0x44 RETURNDATASIZE LT ISZERO PUSH2 0x3633 JUMPI SWAP1 JUMP JUMPDEST PUSH1 0x40 MLOAD PUSH1 0x3 NOT RETURNDATASIZE DUP2 ADD PUSH1 0x4 DUP4 RETURNDATACOPY DUP2 MLOAD RETURNDATASIZE PUSH8 0xFFFFFFFFFFFFFFFF DUP2 PUSH1 0x24 DUP5 ADD GT DUP2 DUP5 GT OR ISZERO PUSH2 0x3663 JUMPI POP POP POP POP POP SWAP1 JUMP JUMPDEST DUP3 DUP6 ADD SWAP2 POP DUP2 MLOAD DUP2 DUP2 GT ISZERO PUSH2 0x367B JUMPI POP POP POP POP POP POP SWAP1 JUMP JUMPDEST DUP5 RETURNDATASIZE DUP8 ADD ADD PUSH1 0x20 DUP3 DUP6 ADD ADD GT ISZERO PUSH2 0x3695 JUMPI POP POP POP POP POP POP SWAP1 JUMP JUMPDEST PUSH2 0x36A4 PUSH1 0x20 DUP3 DUP7 ADD ADD DUP8 PUSH2 0x3571 JUMP JUMPDEST POP SWAP1 SWAP6 SWAP5 POP POP POP POP POP JUMP JUMPDEST PUSH1 0x1 PUSH1 0x1 PUSH1 0xA0 SHL SUB DUP2 AND DUP2 EQ PUSH2 0x155E JUMPI PUSH1 0x0 DUP1 REVERT JUMPDEST DUP1 ISZERO ISZERO DUP2 EQ PUSH2 0x155E JUMPI PUSH1 0x0 DUP1 REVERT INVALID 0xDD CALLCODE MSTORE 0xAD SHL 0xE2 0xC8 SWAP12 PUSH10 0xC2B068FC378DAA952BA7 CALL PUSH4 0xC4A11628 CREATE2 GAS 0x4D CREATE2 0x23 0xB3 0xEF LOG2 PUSH5 0x6970667358 0x22 SLT KECCAK256 0xA6 0xCE GASLIMIT RETURNDATASIZE RETURN SWAP1 SSTORE 0x4E PUSH19 0x2D80940E9BB6A5C97A4B446C2476E52F9D3FCF PUSH19 0x89210164736F6C634300080700334F776E6162 PUSH13 0x653A2063616C6C657220697320 PUSH15 0x6F7420746865206F776E6572000000 "
		},
		"gasEstimates": {
			"creation": {
				"codeDepositCost": "2824000",
				"executionCost": "infinite",
				"totalCost": "infinite"
			},
			"external": {
				"_maxHoldAmount()": "2363",
				"_maxTxAmount()": "2428",
				"_swapThreshold()": "2408",
				"allowance(address,address)": "infinite",
				"approve(address,uint256)": "24682",
				"balanceOf(address)": "infinite",
				"burnAddress()": "305",
				"buyTaxes()": "26630",
				"decimals()": "311",
				"decreaseAllowance(address,uint256)": "26949",
				"excludeFromFee(address)": "26834",
				"excludeFromReward(address)": "infinite",
				"includeInFee(address)": "26871",
				"includeInReward(address)": "infinite",
				"increaseAllowance(address,uint256)": "26997",
				"isBlacklisted(address)": "2653",
				"isExcludedFromFee(address)": "2588",
				"isExcludedFromReward(address)": "2611",
				"manualsend(uint256)": "infinite",
				"manualswap()": "infinite",
				"name()": "infinite",
				"openTrading()": "infinite",
				"owner()": "2421",
				"reflect(uint256)": "infinite",
				"reflectionFromToken(uint256,bool)": "infinite",
				"removeStrictTxLimit()": "24522",
				"renounceOwnership()": "28225",
				"sellTaxes()": "26681",
				"setBlacklistAccount(address,bool)": "infinite",
				"setMaxHoldAmount(uint256)": "24709",
				"setMaxTxAmount(uint256)": "24686",
				"setSwapThreshold(uint256)": "24509",
				"setTaxes(uint256,uint32,uint32,uint32,uint32,uint32,uint32,address,address,address)": "infinite",
				"setUniswapPair(address)": "26750",
				"symbol()": "infinite",
				"tokenFromReflection(uint256)": "infinite",
				"totalSupply()": "439",
				"transfer(address,uint256)": "infinite",
				"transferFrom(address,address,uint256)": "infinite",
				"transferOwnership(address)": "infinite"
			},
			"internal": {
				"_approve(address,address,uint256)": "infinite",
				"_getCurrentSupply()": "infinite",
				"_getRValues(uint256,uint256,uint256)": "infinite",
				"_getRate()": "infinite",
				"_getTValues(uint256,uint256)": "4585",
				"_getValues(uint256,uint256)": "infinite",
				"_reflectFee(uint256,uint256)": "48568",
				"_rsplitTax(uint256,uint256)": "infinite",
				"_tokenTransfer(address,address,uint256,uint256)": "infinite",
				"_transfer(address,address,uint256)": "infinite",
				"_transferStandard(address,address,uint256,uint256)": "infinite",
				"_tsplitTax(address,uint256,uint256)": "infinite",
				"sendETHToFee(uint256,uint256)": "infinite",
				"swapTokensForEth(uint256)": "infinite"
			}
		},
		"methodIdentifiers": {
			"_maxHoldAmount()": "1fc9efa1",
			"_maxTxAmount()": "7d1db4a5",
			"_swapThreshold()": "0e5a9231",
			"allowance(address,address)": "dd62ed3e",
			"approve(address,uint256)": "095ea7b3",
			"balanceOf(address)": "70a08231",
			"burnAddress()": "70d5ae05",
			"buyTaxes()": "864701a5",
			"decimals()": "313ce567",
			"decreaseAllowance(address,uint256)": "a457c2d7",
			"excludeFromFee(address)": "437823ec",
			"excludeFromReward(address)": "52390c02",
			"includeInFee(address)": "ea2f0b37",
			"includeInReward(address)": "3685d419",
			"increaseAllowance(address,uint256)": "39509351",
			"isBlacklisted(address)": "fe575a87",
			"isExcludedFromFee(address)": "5342acb4",
			"isExcludedFromReward(address)": "88f82020",
			"manualsend(uint256)": "1ad34a4f",
			"manualswap()": "c3c8cd80",
			"name()": "06fdde03",
			"openTrading()": "c9567bf9",
			"owner()": "8da5cb5b",
			"reflect(uint256)": "053ab182",
			"reflectionFromToken(uint256,bool)": "4549b039",
			"removeStrictTxLimit()": "ff872602",
			"renounceOwnership()": "715018a6",
			"sellTaxes()": "f66895a3",
			"setBlacklistAccount(address,bool)": "e594707e",
			"setMaxHoldAmount(uint256)": "d8b60040",
			"setMaxTxAmount(uint256)": "ec28438a",
			"setSwapThreshold(uint256)": "9d0014b1",
			"setTaxes(uint256,uint32,uint32,uint32,uint32,uint32,uint32,address,address,address)": "974df267",
			"setUniswapPair(address)": "d5aed6bf",
			"symbol()": "95d89b41",
			"tokenFromReflection(uint256)": "2d838119",
			"totalSupply()": "18160ddd",
			"transfer(address,uint256)": "a9059cbb",
			"transferFrom(address,address,uint256)": "23b872dd",
			"transferOwnership(address)": "f2fde38b"
		}
	},
	"abi": [
		{
			"inputs": [
				{
					"internalType": "address",
					"name": "wallet1_",
					"type": "address"
				},
				{
					"internalType": "address",
					"name": "wallet2_",
					"type": "address"
				},
				{
					"internalType": "address",
					"name": "wallet3_",
					"type": "address"
				}
			],
			"stateMutability": "nonpayable",
			"type": "constructor"
		},
		{
			"anonymous": false,
			"inputs": [
				{
					"indexed": true,
					"internalType": "address",
					"name": "owner",
					"type": "address"
				},
				{
					"indexed": true,
					"internalType": "address",
					"name": "spender",
					"type": "address"
				},
				{
					"indexed": false,
					"internalType": "uint256",
					"name": "value",
					"type": "uint256"
				}
			],
			"name": "Approval",
			"type": "event"
		},
		{
			"anonymous": false,
			"inputs": [
				{
					"indexed": false,
					"internalType": "uint256",
					"name": "_maxTxAmount",
					"type": "uint256"
				}
			],
			"name": "MaxTxAmountUpdated",
			"type": "event"
		},
		{
			"anonymous": false,
			"inputs": [
				{
					"indexed": true,
					"internalType": "address",
					"name": "previousOwner",
					"type": "address"
				},
				{
					"indexed": true,
					"internalType": "address",
					"name": "newOwner",
					"type": "address"
				}
			],
			"name": "OwnershipTransferred",
			"type": "event"
		},
		{
			"anonymous": false,
			"inputs": [
				{
					"indexed": false,
					"internalType": "bool",
					"name": "status",
					"type": "bool"
				}
			],
			"name": "SwapTokensForEth",
			"type": "event"
		},
		{
			"anonymous": false,
			"inputs": [
				{
					"indexed": true,
					"internalType": "address",
					"name": "from",
					"type": "address"
				},
				{
					"indexed": true,
					"internalType": "address",
					"name": "to",
					"type": "address"
				},
				{
					"indexed": false,
					"internalType": "uint256",
					"name": "value",
					"type": "uint256"
				}
			],
			"name": "Transfer",
			"type": "event"
		},
		{
			"inputs": [],
			"name": "_maxHoldAmount",
			"outputs": [
				{
					"internalType": "uint256",
					"name": "",
					"type": "uint256"
				}
			],
			"stateMutability": "view",
			"type": "function"
		},
		{
			"inputs": [],
			"name": "_maxTxAmount",
			"outputs": [
				{
					"internalType": "uint256",
					"name": "",
					"type": "uint256"
				}
			],
			"stateMutability": "view",
			"type": "function"
		},
		{
			"inputs": [],
			"name": "_swapThreshold",
			"outputs": [
				{
					"internalType": "uint256",
					"name": "",
					"type": "uint256"
				}
			],
			"stateMutability": "view",
			"type": "function"
		},
		{
			"inputs": [
				{
					"internalType": "address",
					"name": "owner",
					"type": "address"
				},
				{
					"internalType": "address",
					"name": "spender",
					"type": "address"
				}
			],
			"name": "allowance",
			"outputs": [
				{
					"internalType": "uint256",
					"name": "",
					"type": "uint256"
				}
			],
			"stateMutability": "view",
			"type": "function"
		},
		{
			"inputs": [
				{
					"internalType": "address",
					"name": "spender",
					"type": "address"
				},
				{
					"internalType": "uint256",
					"name": "amount",
					"type": "uint256"
				}
			],
			"name": "approve",
			"outputs": [
				{
					"internalType": "bool",
					"name": "",
					"type": "bool"
				}
			],
			"stateMutability": "nonpayable",
			"type": "function"
		},
		{
			"inputs": [
				{
					"internalType": "address",
					"name": "account",
					"type": "address"
				}
			],
			"name": "balanceOf",
			"outputs": [
				{
					"internalType": "uint256",
					"name": "",
					"type": "uint256"
				}
			],
			"stateMutability": "view",
			"type": "function"
		},
		{
			"inputs": [],
			"name": "burnAddress",
			"outputs": [
				{
					"internalType": "address",
					"name": "",
					"type": "address"
				}
			],
			"stateMutability": "view",
			"type": "function"
		},
		{
			"inputs": [],
			"name": "buyTaxes",
			"outputs": [
				{
					"internalType": "uint32",
					"name": "total_Tax_Percent",
					"type": "uint32"
				},
				{
					"internalType": "uint32",
					"name": "burn_Split",
					"type": "uint32"
				},
				{
					"internalType": "uint32",
					"name": "governingSplit_Wallet1",
					"type": "uint32"
				},
				{
					"internalType": "uint32",
					"name": "governingSplit_Wallet2",
					"type": "uint32"
				},
				{
					"internalType": "uint32",
					"name": "governingSplit_Wallet3",
					"type": "uint32"
				},
				{
					"internalType": "uint32",
					"name": "reflect_Split",
					"type": "uint32"
				}
			],
			"stateMutability": "view",
			"type": "function"
		},
		{
			"inputs": [],
			"name": "decimals",
			"outputs": [
				{
					"internalType": "uint8",
					"name": "",
					"type": "uint8"
				}
			],
			"stateMutability": "pure",
			"type": "function"
		},
		{
			"inputs": [
				{
					"internalType": "address",
					"name": "spender",
					"type": "address"
				},
				{
					"internalType": "uint256",
					"name": "subtractedValue",
					"type": "uint256"
				}
			],
			"name": "decreaseAllowance",
			"outputs": [
				{
					"internalType": "bool",
					"name": "",
					"type": "bool"
				}
			],
			"stateMutability": "nonpayable",
			"type": "function"
		},
		{
			"inputs": [
				{
					"internalType": "address",
					"name": "account",
					"type": "address"
				}
			],
			"name": "excludeFromFee",
			"outputs": [],
			"stateMutability": "nonpayable",
			"type": "function"
		},
		{
			"inputs": [
				{
					"internalType": "address",
					"name": "account",
					"type": "address"
				}
			],
			"name": "excludeFromReward",
			"outputs": [],
			"stateMutability": "nonpayable",
			"type": "function"
		},
		{
			"inputs": [
				{
					"internalType": "address",
					"name": "account",
					"type": "address"
				}
			],
			"name": "includeInFee",
			"outputs": [],
			"stateMutability": "nonpayable",
			"type": "function"
		},
		{
			"inputs": [
				{
					"internalType": "address",
					"name": "account",
					"type": "address"
				}
			],
			"name": "includeInReward",
			"outputs": [],
			"stateMutability": "nonpayable",
			"type": "function"
		},
		{
			"inputs": [
				{
					"internalType": "address",
					"name": "spender",
					"type": "address"
				},
				{
					"internalType": "uint256",
					"name": "addedValue",
					"type": "uint256"
				}
			],
			"name": "increaseAllowance",
			"outputs": [
				{
					"internalType": "bool",
					"name": "",
					"type": "bool"
				}
			],
			"stateMutability": "nonpayable",
			"type": "function"
		},
		{
			"inputs": [
				{
					"internalType": "address",
					"name": "account",
					"type": "address"
				}
			],
			"name": "isBlacklisted",
			"outputs": [
				{
					"internalType": "bool",
					"name": "",
					"type": "bool"
				}
			],
			"stateMutability": "view",
			"type": "function"
		},
		{
			"inputs": [
				{
					"internalType": "address",
					"name": "account",
					"type": "address"
				}
			],
			"name": "isExcludedFromFee",
			"outputs": [
				{
					"internalType": "bool",
					"name": "",
					"type": "bool"
				}
			],
			"stateMutability": "view",
			"type": "function"
		},
		{
			"inputs": [
				{
					"internalType": "address",
					"name": "account",
					"type": "address"
				}
			],
			"name": "isExcludedFromReward",
			"outputs": [
				{
					"internalType": "bool",
					"name": "",
					"type": "bool"
				}
			],
			"stateMutability": "view",
			"type": "function"
		},
		{
			"inputs": [
				{
					"internalType": "uint256",
					"name": "type_",
					"type": "uint256"
				}
			],
			"name": "manualsend",
			"outputs": [],
			"stateMutability": "nonpayable",
			"type": "function"
		},
		{
			"inputs": [],
			"name": "manualswap",
			"outputs": [],
			"stateMutability": "nonpayable",
			"type": "function"
		},
		{
			"inputs": [],
			"name": "name",
			"outputs": [
				{
					"internalType": "string",
					"name": "",
					"type": "string"
				}
			],
			"stateMutability": "pure",
			"type": "function"
		},
		{
			"inputs": [],
			"name": "openTrading",
			"outputs": [],
			"stateMutability": "nonpayable",
			"type": "function"
		},
		{
			"inputs": [],
			"name": "owner",
			"outputs": [
				{
					"internalType": "address",
					"name": "",
					"type": "address"
				}
			],
			"stateMutability": "view",
			"type": "function"
		},
		{
			"inputs": [
				{
					"internalType": "uint256",
					"name": "tAmount",
					"type": "uint256"
				}
			],
			"name": "reflect",
			"outputs": [],
			"stateMutability": "nonpayable",
			"type": "function"
		},
		{
			"inputs": [
				{
					"internalType": "uint256",
					"name": "tAmount",
					"type": "uint256"
				},
				{
					"internalType": "bool",
					"name": "deductTransferFee",
					"type": "bool"
				}
			],
			"name": "reflectionFromToken",
			"outputs": [
				{
					"internalType": "uint256",
					"name": "",
					"type": "uint256"
				}
			],
			"stateMutability": "view",
			"type": "function"
		},
		{
			"inputs": [],
			"name": "removeStrictTxLimit",
			"outputs": [],
			"stateMutability": "nonpayable",
			"type": "function"
		},
		{
			"inputs": [],
			"name": "renounceOwnership",
			"outputs": [],
			"stateMutability": "nonpayable",
			"type": "function"
		},
		{
			"inputs": [],
			"name": "sellTaxes",
			"outputs": [
				{
					"internalType": "uint32",
					"name": "total_Tax_Percent",
					"type": "uint32"
				},
				{
					"internalType": "uint32",
					"name": "burn_Split",
					"type": "uint32"
				},
				{
					"internalType": "uint32",
					"name": "governingSplit_Wallet1",
					"type": "uint32"
				},
				{
					"internalType": "uint32",
					"name": "governingSplit_Wallet2",
					"type": "uint32"
				},
				{
					"internalType": "uint32",
					"name": "governingSplit_Wallet3",
					"type": "uint32"
				},
				{
					"internalType": "uint32",
					"name": "reflect_Split",
					"type": "uint32"
				}
			],
			"stateMutability": "view",
			"type": "function"
		},
		{
			"inputs": [
				{
					"internalType": "address",
					"name": "account",
					"type": "address"
				},
				{
					"internalType": "bool",
					"name": "enabled",
					"type": "bool"
				}
			],
			"name": "setBlacklistAccount",
			"outputs": [],
			"stateMutability": "nonpayable",
			"type": "function"
		},
		{
			"inputs": [
				{
					"internalType": "uint256",
					"name": "maxHoldAmount",
					"type": "uint256"
				}
			],
			"name": "setMaxHoldAmount",
			"outputs": [],
			"stateMutability": "nonpayable",
			"type": "function"
		},
		{
			"inputs": [
				{
					"internalType": "uint256",
					"name": "maxTxAmount",
					"type": "uint256"
				}
			],
			"name": "setMaxTxAmount",
			"outputs": [],
			"stateMutability": "nonpayable",
			"type": "function"
		},
		{
			"inputs": [
				{
					"internalType": "uint256",
					"name": "amount",
					"type": "uint256"
				}
			],
			"name": "setSwapThreshold",
			"outputs": [],
			"stateMutability": "nonpayable",
			"type": "function"
		},
		{
			"inputs": [
				{
					"internalType": "uint256",
					"name": "type_",
					"type": "uint256"
				},
				{
					"internalType": "uint32",
					"name": "totalTaxPercent_",
					"type": "uint32"
				},
				{
					"internalType": "uint32",
					"name": "split0_",
					"type": "uint32"
				},
				{
					"internalType": "uint32",
					"name": "split1_",
					"type": "uint32"
				},
				{
					"internalType": "uint32",
					"name": "split2_",
					"type": "uint32"
				},
				{
					"internalType": "uint32",
					"name": "split3_",
					"type": "uint32"
				},
				{
					"internalType": "uint32",
					"name": "split4_",
					"type": "uint32"
				},
				{
					"internalType": "address",
					"name": "wallet1_",
					"type": "address"
				},
				{
					"internalType": "address",
					"name": "wallet2_",
					"type": "address"
				},
				{
					"internalType": "address",
					"name": "wallet3_",
					"type": "address"
				}
			],
			"name": "setTaxes",
			"outputs": [],
			"stateMutability": "nonpayable",
			"type": "function"
		},
		{
			"inputs": [
				{
					"internalType": "address",
					"name": "_uniswapV2Pair",
					"type": "address"
				}
			],
			"name": "setUniswapPair",
			"outputs": [],
			"stateMutability": "nonpayable",
			"type": "function"
		},
		{
			"inputs": [],
			"name": "symbol",
			"outputs": [
				{
					"internalType": "string",
					"name": "",
					"type": "string"
				}
			],
			"stateMutability": "pure",
			"type": "function"
		},
		{
			"inputs": [
				{
					"internalType": "uint256",
					"name": "rAmount",
					"type": "uint256"
				}
			],
			"name": "tokenFromReflection",
			"outputs": [
				{
					"internalType": "uint256",
					"name": "",
					"type": "uint256"
				}
			],
			"stateMutability": "view",
			"type": "function"
		},
		{
			"inputs": [],
			"name": "totalSupply",
			"outputs": [
				{
					"internalType": "uint256",
					"name": "",
					"type": "uint256"
				}
			],
			"stateMutability": "pure",
			"type": "function"
		},
		{
			"inputs": [
				{
					"internalType": "address",
					"name": "recipient",
					"type": "address"
				},
				{
					"internalType": "uint256",
					"name": "amount",
					"type": "uint256"
				}
			],
			"name": "transfer",
			"outputs": [
				{
					"internalType": "bool",
					"name": "",
					"type": "bool"
				}
			],
			"stateMutability": "nonpayable",
			"type": "function"
		},
		{
			"inputs": [
				{
					"internalType": "address",
					"name": "sender",
					"type": "address"
				},
				{
					"internalType": "address",
					"name": "recipient",
					"type": "address"
				},
				{
					"internalType": "uint256",
					"name": "amount",
					"type": "uint256"
				}
			],
			"name": "transferFrom",
			"outputs": [
				{
					"internalType": "bool",
					"name": "",
					"type": "bool"
				}
			],
			"stateMutability": "nonpayable",
			"type": "function"
		},
		{
			"inputs": [
				{
					"internalType": "address",
					"name": "newOwner",
					"type": "address"
				}
			],
			"name": "transferOwnership",
			"outputs": [],
			"stateMutability": "nonpayable",
			"type": "function"
		},
		{
			"stateMutability": "payable",
			"type": "receive"
		}
	]
}