{
	"data": {
		"bytecode": {
			"linkReferences": {},
			"object": "6080604052600e805461ffff191660011790556200002a67016345785d8a0000633b9aca00620007af565b620000389060001962000809565b6200004690600019620007d1565b60105560006014556015805461ffff191690553480156200006657600080fd5b506040516200368438038062003684833981016040819052620000899162000760565b620000943362000263565b6010805433600090815260046020818152604080842094909455825463ffffffff60a01b1916601960a01b17909255825160c08101845290815260289181018290529182015260608101919091526001600160a01b038381166080830181905290831660a0909201829052600180546001600160801b0319166c10000000280000002800000004179055600280546001600160a01b0319908116909217905560038054821690921790915560128054739ac64cc6e4415144c455bd8e4837fea55603e5c392169190911790556200017867016345785d8a0000633b9aca00620007af565b600c5560646200019567016345785d8a0000633b9aca00620007af565b620001a2906002620007af565b620001ae919062000798565b600d55620001ce620001c86000546001600160a01b031690565b620002b3565b620001eb620001e56000546001600160a01b031690565b62000326565b620001f861dead62000326565b620002038262000326565b6200020e8162000326565b3360007fddf252ad1be2c89b69c2b068fc378daa952ba7f163c4a11628f55a4df523b3ef6200024a67016345785d8a0000633b9aca00620007af565b60405190815260200160405180910390a3505062000862565b600080546001600160a01b038381166001600160a01b0319831681178455604051919092169283917f8be0079c531659141344cd1fd0a4f28419497f9722a3daafe3b4186f6b6457e09190a35050565b6000546001600160a01b03163314620003025760405162461bcd60e51b815260206004820181905260248201526000805160206200366483398151915260448201526064015b60405180910390fd5b6001600160a01b03166000908152600960205260409020805460ff19166001179055565b6000546001600160a01b03163314620003715760405162461bcd60e51b81526020600482018190526024820152600080516020620036648339815191526044820152606401620002f9565b6001600160a01b03811660009081526007602052604090205460ff1615620003dc5760405162461bcd60e51b815260206004820152601b60248201527f4163636f756e7420697320616c7265616479206578636c7564656400000000006044820152606401620002f9565b6001600160a01b0381166000908152600460205260409020541562000439576001600160a01b0381166000908152600460205260409020546200041f906200049f565b6001600160a01b0382166000908152600560205260409020555b6001600160a01b03166000818152600760205260408120805460ff191660019081179091556008805491820181559091527ff3f7a9fe364faab93b216da50a3214154f22a0a2b415b23a84c8169e8b636ee30180546001600160a01b0319169091179055565b6000601054821115620005085760405162461bcd60e51b815260206004820152602a60248201527f416d6f756e74206d757374206265206c657373207468616e20746f74616c207260448201526965666c656374696f6e7360b01b6064820152608401620002f9565b60006200051462000529565b905062000522818462000798565b9392505050565b60008080620005376200054f565b909250905062000548818362000798565b9250505090565b6010546000908190816200057067016345785d8a0000633b9aca00620007af565b905060005b600854811015620006e5578260046000600884815481106200059b576200059b6200084c565b60009182526020808320909101546001600160a01b0316835282019290925260400190205411806200060a5750816005600060088481548110620005e357620005e36200084c565b60009182526020808320909101546001600160a01b03168352820192909252604001902054115b1562000636576010546200062b67016345785d8a0000633b9aca00620007af565b945094505050509091565b60046000600883815481106200065057620006506200084c565b60009182526020808320909101546001600160a01b03168352820192909252604001902054620006819084620007d1565b925060056000600883815481106200069d576200069d6200084c565b60009182526020808320909101546001600160a01b03168352820192909252604001902054620006ce9083620007d1565b915080620006dc81620007eb565b91505062000575565b50620006fe67016345785d8a0000633b9aca00620007af565b6010546200070d919062000798565b8210156200073a576010546200073067016345785d8a0000633b9aca00620007af565b9350935050509091565b90939092509050565b80516001600160a01b03811681146200075b57600080fd5b919050565b600080604083850312156200077457600080fd5b6200077f8362000743565b91506200078f6020840162000743565b90509250929050565b600082620007aa57620007aa62000836565b500490565b6000816000190483118215151615620007cc57620007cc62000820565b500290565b600082821015620007e657620007e662000820565b500390565b600060001982141562000802576200080262000820565b5060010190565b6000826200081b576200081b62000836565b500690565b634e487b7160e01b600052601160045260246000fd5b634e487b7160e01b600052601260045260246000fd5b634e487b7160e01b600052603260045260246000fd5b612df280620008726000396000f3fe6080604052600436106102135760003560e01c8063715018a611610118578063d30299e7116100a0578063ea2f0b371161006f578063ea2f0b371461067a578063eb1e73871461069a578063ec28438a14610700578063f2fde38b14610720578063fe575a871461074057600080fd5b8063d30299e7146105bb578063dd62ed3e146105db578063e594707e14610621578063e85455d71461064157600080fd5b806395d89b41116100e757806395d89b4114610518578063a457c2d714610546578063a9059cbb14610566578063c07e3de214610586578063c29c669a1461059b57600080fd5b8063715018a6146104965780637d1db4a5146104ab57806388f82020146104c15780638da5cb5b146104fa57600080fd5b80633685d4191161019b57806352390c021161016a57806352390c02146103d95780635342acb4146103f957806353bbf6ac1461043257806370a082311461044857806370d5ae051461046857600080fd5b80633685d419146103595780633950935114610379578063437823ec146103995780634549b039146103b957600080fd5b806318160ddd116101e257806318160ddd146102d357806318a24b5b146102e857806323b872dd146102fd5780632d8381191461031d578063313ce5671461033d57600080fd5b8063053ab1821461021f57806306fdde0314610241578063095ea7b31461028457806313114a9d146102b457600080fd5b3661021a57005b600080fd5b34801561022b57600080fd5b5061023f61023a366004612a87565b610779565b005b34801561024d57600080fd5b50604080518082019091526008815267074657374696e67360c41b60208201525b60405161027b9190612b4f565b60405180910390f35b34801561029057600080fd5b506102a461029f366004612a5b565b610869565b604051901515815260200161027b565b3480156102c057600080fd5b506011545b60405190815260200161027b565b3480156102df57600080fd5b506102c5610880565b3480156102f457600080fd5b5061023f61089d565b34801561030957600080fd5b506102a46103183660046129e5565b6108d7565b34801561032957600080fd5b506102c5610338366004612a87565b610981565b34801561034957600080fd5b506040516009815260200161027b565b34801561036557600080fd5b5061023f610374366004612972565b610a05565b34801561038557600080fd5b506102a4610394366004612a5b565b610bbc565b3480156103a557600080fd5b5061023f6103b4366004612972565b610bf8565b3480156103c557600080fd5b506102c56103d4366004612aa0565b610c46565b3480156103e557600080fd5b5061023f6103f4366004612972565b610ce4565b34801561040557600080fd5b506102a4610414366004612972565b6001600160a01b031660009081526009602052604090205460ff1690565b34801561043e57600080fd5b506102c5600f5481565b34801561045457600080fd5b506102c5610463366004612972565b610e37565b34801561047457600080fd5b5061047e61dead81565b6040516001600160a01b03909116815260200161027b565b3480156104a257600080fd5b5061023f610e96565b3480156104b757600080fd5b506102c5600c5481565b3480156104cd57600080fd5b506102a46104dc366004612972565b6001600160a01b031660009081526007602052604090205460ff1690565b34801561050657600080fd5b506000546001600160a01b031661047e565b34801561052457600080fd5b50604080518082019091526005815264054455354360dc1b602082015261026e565b34801561055257600080fd5b506102a4610561366004612a5b565b610ecc565b34801561057257600080fd5b506102a4610581366004612a5b565b610f65565b34801561059257600080fd5b5061023f610f72565b3480156105a757600080fd5b5061023f6105b6366004612a26565b6110b9565b3480156105c757600080fd5b5061023f6105d6366004612ac3565b611139565b3480156105e757600080fd5b506102c56105f63660046129ac565b6001600160a01b03918216600090815260066020908152604080832093909416825291909152205490565b34801561062d57600080fd5b5061023f61063c366004612a26565b61136f565b34801561064d57600080fd5b506102a461065c366004612972565b6001600160a01b03166000908152600a602052604090205460ff1690565b34801561068657600080fd5b5061023f610695366004612972565b6113c4565b3480156106a657600080fd5b5060005460015460408051600160a01b90930463ffffffff908116845280831660208501526401000000008304811691840191909152600160401b820481166060840152600160601b90910416608082015260a00161027b565b34801561070c57600080fd5b5061023f61071b366004612a87565b61140f565b34801561072c57600080fd5b5061023f61073b366004612972565b6114cf565b34801561074c57600080fd5b506102a461075b366004612972565b6001600160a01b03166000908152600b602052604090205460ff1690565b3360008181526007602052604090205460ff16156107f35760405162461bcd60e51b815260206004820152602c60248201527f4578636c75646564206164647265737365732063616e6e6f742063616c6c207460448201526b3434b990333ab731ba34b7b760a11b60648201526084015b60405180910390fd5b60006107fe8361156a565b5050506001600160a01b03841660009081526004602052604090205491925061082991839150612d13565b6001600160a01b038316600090815260046020526040902055601054610850908290612d13565b601055601154610861908490612c92565b601155505050565b60006108763384846115fb565b5060015b92915050565b600061089867016345785d8a0000633b9aca00612cf4565b905090565b6000546001600160a01b031633146108c75760405162461bcd60e51b81526004016107ea90612bec565b600e805460ff1916905542600f55565b60006108e4848484611720565b6001600160a01b0384166000908152600660209081526040808320338452909152902054828110156109695760405162461bcd60e51b815260206004820152602860248201527f45524332303a207472616e7366657220616d6f756e74206578636565647320616044820152676c6c6f77616e636560c01b60648201526084016107ea565b61097685338584036115fb565b506001949350505050565b60006010548211156109e85760405162461bcd60e51b815260206004820152602a60248201527f416d6f756e74206d757374206265206c657373207468616e20746f74616c207260448201526965666c656374696f6e7360b01b60648201526084016107ea565b60006109f2612188565b90506109fe8184612cd2565b9392505050565b6000546001600160a01b03163314610a2f5760405162461bcd60e51b81526004016107ea90612bec565b6001600160a01b03811660009081526007602052604090205460ff16610a975760405162461bcd60e51b815260206004820152601b60248201527f4163636f756e7420697320616c7265616479206578636c75646564000000000060448201526064016107ea565b60005b600854811015610bb857816001600160a01b031660088281548110610ac157610ac1612d71565b6000918252602090912001546001600160a01b03161415610ba65760088054610aec90600190612d13565b81548110610afc57610afc612d71565b600091825260209091200154600880546001600160a01b039092169183908110610b2857610b28612d71565b600091825260208083209190910180546001600160a01b0319166001600160a01b039485161790559184168152600582526040808220829055600790925220805460ff191690556008805480610b8057610b80612d5b565b600082815260209020810160001990810180546001600160a01b03191690550190555050565b80610bb081612d2a565b915050610a9a565b5050565b3360008181526006602090815260408083206001600160a01b03871684529091528120549091610876918590610bf3908690612c92565b6115fb565b6000546001600160a01b03163314610c225760405162461bcd60e51b81526004016107ea90612bec565b6001600160a01b03166000908152600960205260409020805460ff19166001179055565b6000610c5e67016345785d8a0000633b9aca00612cf4565b831115610cad5760405162461bcd60e51b815260206004820152601f60248201527f416d6f756e74206d757374206265206c657373207468616e20737570706c790060448201526064016107ea565b81610ccb576000610cbd8461156a565b5092945061087a9350505050565b6000610cd68461156a565b5091945061087a9350505050565b6000546001600160a01b03163314610d0e5760405162461bcd60e51b81526004016107ea90612bec565b6001600160a01b03811660009081526007602052604090205460ff1615610d775760405162461bcd60e51b815260206004820152601b60248201527f4163636f756e7420697320616c7265616479206578636c75646564000000000060448201526064016107ea565b6001600160a01b03811660009081526004602052604090205415610dd1576001600160a01b038116600090815260046020526040902054610db790610981565b6001600160a01b0382166000908152600560205260409020555b6001600160a01b03166000818152600760205260408120805460ff191660019081179091556008805491820181559091527ff3f7a9fe364faab93b216da50a3214154f22a0a2b415b23a84c8169e8b636ee30180546001600160a01b0319169091179055565b6001600160a01b03811660009081526007602052604081205460ff1615610e7457506001600160a01b031660009081526005602052604090205490565b6001600160a01b03821660009081526004602052604090205461087a90610981565b6000546001600160a01b03163314610ec05760405162461bcd60e51b81526004016107ea90612bec565b610eca60006121ab565b565b3360009081526006602090815260408083206001600160a01b038616845290915281205482811015610f4e5760405162461bcd60e51b815260206004820152602560248201527f45524332303a2064656372656173656420616c6c6f77616e63652062656c6f77604482015264207a65726f60d81b60648201526084016107ea565b610f5b33858584036115fb565b5060019392505050565b6000610876338484611720565b600e5460ff1615610f955760405162461bcd60e51b81526004016107ea90612ba4565b62015180600f5442610fa79190612d13565b116110005760405162461bcd60e51b8152602060048201526024808201527f5461782063616e206265207265766572746564206f6e6c7920616674657220326044820152633468727360e01b60648201526084016107ea565b600e54610100900460ff16156110515760405162461bcd60e51b815260206004820152601660248201527554617820686164206265656e2052657665727465642160501b60448201526064016107ea565b6000805463ffffffff60a01b1916600560a11b179055600180546fffffffffffffffffffffffffffffffff19166c1400000032000000140000000a1790556110a567016345785d8a0000633b9aca00612cf4565b600d55600e805461ff001916610100179055565b6000546001600160a01b031633146110e35760405162461bcd60e51b81526004016107ea90612bec565b6001600160a01b0382166000908152600a60205260409020805460ff19168215801591909117909155611126576015805460ff19166001179055610bb882610ce4565b6015805460ff19169055610bb882610a05565b6000546001600160a01b031633146111635760405162461bcd60e51b81526004016107ea90612bec565b6001600160a01b0382161580159061118357506001600160a01b03811615155b6111db5760405162461bcd60e51b815260206004820152602360248201527f5461782057616c6c6574732061737369676e6564207a65726f2061646472657360448201526273202160e81b60648201526084016107ea565b600a8763ffffffff1611156112325760405162461bcd60e51b815260206004820152601f60248201527f546f74616c205461782050657263656e7420457863656564732031302520210060448201526064016107ea565b828461123e8789612caa565b6112489190612caa565b6112529190612caa565b63ffffffff166064146112b95760405162461bcd60e51b815260206004820152602960248201527f53706c69742050657263656e746167657320646f6573206e6f742073756d207560448201526870746f20313030202160b81b60648201526084016107ea565b6000805463ffffffff988916600160a01b0263ffffffff60a01b1990911617905560018054938816600160601b0263ffffffff60601b19958916600160401b02959095166fffffffffffffffff0000000000000000199689166401000000000267ffffffffffffffff19909516979098169690961792909217939093169490941717909155600280546001600160a01b039283166001600160a01b03199182161790915560038054939092169216919091179055565b6000546001600160a01b031633146113995760405162461bcd60e51b81526004016107ea90612bec565b6001600160a01b03919091166000908152600b60205260409020805460ff1916911515919091179055565b6000546001600160a01b031633146113ee5760405162461bcd60e51b81526004016107ea90612bec565b6001600160a01b03166000908152600960205260409020805460ff19169055565b6000546001600160a01b031633146114395760405162461bcd60e51b81526004016107ea90612bec565b6103e861145267016345785d8a0000633b9aca00612cf4565b61145c9190612cd2565b8110156114ca5760405162461bcd60e51b815260206004820152603660248201527f4d6178205472616e73616374696f6e20616d74206d7573742062652061626f766044820152756520302e3125206f6620746f74616c20737570706c7960501b60648201526084016107ea565b600c55565b6000546001600160a01b031633146114f95760405162461bcd60e51b81526004016107ea90612bec565b6001600160a01b03811661155e5760405162461bcd60e51b815260206004820152602660248201527f4f776e61626c653a206e6577206f776e657220697320746865207a65726f206160448201526564647265737360d01b60648201526084016107ea565b611567816121ab565b50565b6000806115986040518060800160405280600081526020016000815260200160008152602001600081525090565b60006115c56040518060800160405280600081526020016000815260200160008152602001600081525090565b6115ce866121fb565b909250905060006115dd612188565b90506115ea8783836123a9565b919750955093505091939590929450565b6001600160a01b03831661165d5760405162461bcd60e51b8152602060048201526024808201527f45524332303a20617070726f76652066726f6d20746865207a65726f206164646044820152637265737360e01b60648201526084016107ea565b6001600160a01b0382166116be5760405162461bcd60e51b815260206004820152602260248201527f45524332303a20617070726f766520746f20746865207a65726f206164647265604482015261737360f01b60648201526084016107ea565b6001600160a01b0383811660008181526006602090815260408083209487168084529482529182902085905590518481527f8c5be1e5ebec7d5bd14f71427d1e84f3dd0314c0f7b2291e5b200ac8c7c3b92591015b60405180910390a3505050565b6001600160a01b0383166117845760405162461bcd60e51b815260206004820152602560248201527f45524332303a207472616e736665722066726f6d20746865207a65726f206164604482015264647265737360d81b60648201526084016107ea565b6001600160a01b0382166117e65760405162461bcd60e51b815260206004820152602360248201527f45524332303a207472616e7366657220746f20746865207a65726f206164647260448201526265737360e81b60648201526084016107ea565b600e5460ff1615806117ff57506117fd83836124ab565b155b61181b5760405162461bcd60e51b81526004016107ea90612ba4565b601554610100900460ff16801561183a57506001600160a01b03831630145b156118d5576001600160a01b038316600090815260056020526040902054611863908290612d13565b6001600160a01b038085166000908152600560205260408082209390935590841681522054611893908290612c92565b6001600160a01b038084166000818152600560205260409081902093909355915190851690600080516020612d9d833981519152906117139085815260200190565b6118df83836124ab565b15611a7357600c548111156119465760405162461bcd60e51b815260206004820152602760248201527f5472616e7366657220616d6f756e74206578636565647320746865206d6178546044820152661e105b5bdd5b9d60ca1b60648201526084016107ea565b6001600160a01b0383166000908152600b602052604090205460ff16158061198757506001600160a01b0382166000908152600b602052604090205460ff16155b6119c55760405162461bcd60e51b815260206004820152600f60248201526e14db9a5c195c8814995a9958dd1959608a1b60448201526064016107ea565b600e54610100900460ff161580156119f657506001600160a01b0382166000908152600a602052604090205460ff16155b15611a7357600d5481611a0884610e37565b611a129190612c92565b1115611a735760405162461bcd60e51b815260206004820152602a60248201527f52656365697665722061646472657373206578636565647320746865206d6178604482015269121bdb19105b5bdd5b9d60b21b60648201526084016107ea565b6001600160a01b03831660009081526009602052604081205460ff1680611ab257506001600160a01b03831660009081526009602052604090205460ff165b15611adc57506000805463ffffffff60a01b198116909155600160a01b900463ffffffff16611b38565b600e54610100900460ff16158015611b0c57506001600160a01b0384166000908152600a602052604090205460ff165b15611b3857506000805463ffffffff60a01b198116600560a11b17909155600160a01b900463ffffffff165b6000806000806000611b498761156a565b6001600160a01b038e1660009081526004602052604090205494995092975090955093509150611b7a908690612d13565b6001600160a01b03808b1660009081526004602052604080822093909355908a1681522054611baa908590612c92565b6001600160a01b038916600090815260046020526040812091909155835161dead82527f42c63635470f1fb1d6d4b6441c413cb435b1ebb6fedd1896dd5e25d1399147dd805491929091611bff908490612c92565b9091555050601554610100900460ff16158015611c3557506001600160a01b0389166000908152600a602052604090205460ff16155b8015611c43575060155460ff165b15611cbe5782604001518360200151611c5c9190612c92565b3060009081526004602052604081208054909190611c7b908490612c92565b909155505060408301516020840151611c949190612c92565b3060009081526005602052604081208054909190611cb3908490612c92565b90915550611ddc9050565b6020808401516002546001600160a01b03166000908152600490925260408220805491929091611cef908490612c92565b90915550506040808401516003546001600160a01b031660009081526004602052918220805491929091611d24908490612c92565b90915550506002546001600160a01b031660009081526007602052604090205460ff1615611d83576020808201516002546001600160a01b03166000908152600590925260408220805491929091611d7d908490612c92565b90915550505b6003546001600160a01b031660009081526007602052604090205460ff1615611ddc576040808201516003546001600160a01b031660009081526005602052918220805491929091611dd6908490612c92565b90915550505b611e1b83606001518260600151836040015184602001518560000151611e029190612c92565b611e0c9190612c92565b611e169190612c92565b6124f5565b6001600160a01b03891660009081526007602052604090205460ff1615611e7a576001600160a01b038916600090815260056020526040902054611e60908890612d13565b6001600160a01b038a166000908152600560205260409020555b6001600160a01b03881660009081526007602052604090205460ff1615611ed9576001600160a01b038816600090815260056020526040902054611ebf908390612c92565b6001600160a01b0389166000908152600560205260409020555b61dead60005260076020527fb0c2646e02af70b79e3fe9277b98373379f54150e4e26b2b5650139f7a75a65d5460ff1615611f5457805161dead600090815260056020527f7d509c07f0d4edcc2dd1b53aae68677132eb562dcba78e36381b63ccaf66e6ba8054909190611f4e908490612c92565b90915550505b600054600160a01b900463ffffffff1615801590611f7a5750601554610100900460ff16155b8015611f88575060155460ff165b1561200757611fa981604001518260200151611fa49190612c92565b61251b565b478015611fb957611fb98161269e565b306001600160a01b03168a6001600160a01b0316600080516020612d9d83398151915284602001518560400151611ff09190612c92565b60405190815260200160405180910390a350612077565b6002546020828101516040519081526001600160a01b03928316928c1691600080516020612d9d833981519152910160405180910390a360035460408281015190519081526001600160a01b03918216918b1690600080516020612d9d8339815191529060200160405180910390a35b6001600160a01b03891660009081526009602052604090205460ff16806120b657506001600160a01b03881660009081526009602052604090205460ff165b806120ec5750600e54610100900460ff161580156120ec57506001600160a01b0389166000908152600a602052604090205460ff165b15612110576000805463ffffffff60a01b1916600160a01b63ffffffff8916021790555b876001600160a01b0316896001600160a01b0316600080516020612d9d8339815191528460405161214391815260200190565b60405180910390a3805160405190815261dead906001600160a01b038b1690600080516020612d9d8339815191529060200160405180910390a3505050505050505050565b6000806000612195612776565b90925090506121a48183612cd2565b9250505090565b600080546001600160a01b038381166001600160a01b0319831681178455604051919092169283917f8be0079c531659141344cd1fd0a4f28419497f9722a3daafe3b4186f6b6457e09190a35050565b60006122286040518060800160405280600081526020016000815260200160008152602001600081525090565b6122536040518060800160405280600081526020016000815260200160008152602001600081525090565b6001546000546127109163ffffffff9081169161227991600160a01b9091041687612cf4565b6122839190612cf4565b61228d9190612cd2565b81526001546000546127109163ffffffff6401000000009091048116916122bd91600160a01b9091041687612cf4565b6122c79190612cf4565b6122d19190612cd2565b60208201526001546000546127109163ffffffff600160401b90910481169161230391600160a01b9091041687612cf4565b61230d9190612cf4565b6123179190612cd2565b60408201526001546000546127109163ffffffff600160601b90910481169161234991600160a01b9091041687612cf4565b6123539190612cf4565b61235d9190612cd2565b606082018190526040820151602083015183516000939291906123809089612d13565b61238a9190612d13565b6123949190612d13565b61239e9190612d13565b959194509092505050565b6000806123d76040518060800160405280600081526020016000815260200160008152602001600081525090565b60006123e38588612cf4565b90506124106040518060800160405280600081526020016000815260200160008152602001600081525090565b865161241d908790612cf4565b8152602087015161242f908790612cf4565b60208201526040870151612444908790612cf4565b60408201526060870151612459908790612cf4565b6060820181905260408201516020830151835160009392919061247c9087612d13565b6124869190612d13565b6124909190612d13565b61249a9190612d13565b929992985090965090945050505050565b600080546001600160a01b038481169116148015906124d857506000546001600160a01b03838116911614155b80156109fe57506001600160a01b03821661dead14159392505050565b816010546125039190612d13565b601055601154612514908290612c92565b6011555050565b6015805461ff001916610100179055604080516002808252606082018352600092602083019080368337019050509050308160008151811061255f5761255f612d71565b6001600160a01b03928316602091820292909201810191909152601254604080516315ab88c960e31b81529051919093169263ad5c4648926004808301939192829003018186803b1580156125b357600080fd5b505afa1580156125c7573d6000803e3d6000fd5b505050506040513d601f19601f820116820180604052508101906125eb919061298f565b816001815181106125fe576125fe612d71565b6001600160a01b03928316602091820292909201015260125461262491309116846115fb565b60125460405163791ac94760e01b81526001600160a01b039091169063791ac9479061265d908590600090869030904290600401612c21565b600060405180830381600087803b15801561267757600080fd5b505af115801561268b573d6000803e3d6000fd5b50506015805461ff001916905550505050565b6001546000906126c49063ffffffff600160601b8204811691600160401b900416612caa565b60015463ffffffff918216916126e291600160401b90041684612cf4565b6126ec9190612cd2565b905060006126fa8284612d13565b6002546040519192506001600160a01b03169083156108fc029084906000818181858888f19350505050158015612735573d6000803e3d6000fd5b506003546040516001600160a01b039091169082156108fc029083906000818181858888f19350505050158015612770573d6000803e3d6000fd5b50505050565b60105460009081908161279567016345785d8a0000633b9aca00612cf4565b905060005b6008548110156128f2578260046000600884815481106127bc576127bc612d71565b60009182526020808320909101546001600160a01b031683528201929092526040019020541180612827575081600560006008848154811061280057612800612d71565b60009182526020808320909101546001600160a01b03168352820192909252604001902054115b156128505760105461284567016345785d8a0000633b9aca00612cf4565b945094505050509091565b600460006008838154811061286757612867612d71565b60009182526020808320909101546001600160a01b031683528201929092526040019020546128969084612d13565b925060056000600883815481106128af576128af612d71565b60009182526020808320909101546001600160a01b031683528201929092526040019020546128de9083612d13565b9150806128ea81612d2a565b91505061279a565b5061290967016345785d8a0000633b9aca00612cf4565b6010546129169190612cd2565b8210156129405760105461293667016345785d8a0000633b9aca00612cf4565b9350935050509091565b90939092509050565b8035801515811461295957600080fd5b919050565b803563ffffffff8116811461295957600080fd5b60006020828403121561298457600080fd5b81356109fe81612d87565b6000602082840312156129a157600080fd5b81516109fe81612d87565b600080604083850312156129bf57600080fd5b82356129ca81612d87565b915060208301356129da81612d87565b809150509250929050565b6000806000606084860312156129fa57600080fd5b8335612a0581612d87565b92506020840135612a1581612d87565b929592945050506040919091013590565b60008060408385031215612a3957600080fd5b8235612a4481612d87565b9150612a5260208401612949565b90509250929050565b60008060408385031215612a6e57600080fd5b8235612a7981612d87565b946020939093013593505050565b600060208284031215612a9957600080fd5b5035919050565b60008060408385031215612ab357600080fd5b82359150612a5260208401612949565b600080600080600080600060e0888a031215612ade57600080fd5b612ae78861295e565b9650612af56020890161295e565b9550612b036040890161295e565b9450612b116060890161295e565b9350612b1f6080890161295e565b925060a0880135612b2f81612d87565b915060c0880135612b3f81612d87565b8091505092959891949750929550565b600060208083528351808285015260005b81811015612b7c57858101830151858201604001528201612b60565b81811115612b8e576000604083870101525b50601f01601f1916929092016040019392505050565b60208082526028908201527f546f6b656e206973204c6f636b656420666f72204c6971756964747920746f20604082015267189948185919195960c21b606082015260800190565b6020808252818101527f4f776e61626c653a2063616c6c6572206973206e6f7420746865206f776e6572604082015260600190565b600060a082018783526020878185015260a0604085015281875180845260c086019150828901935060005b81811015612c715784516001600160a01b031683529383019391830191600101612c4c565b50506001600160a01b03969096166060850152505050608001529392505050565b60008219821115612ca557612ca5612d45565b500190565b600063ffffffff808316818516808303821115612cc957612cc9612d45565b01949350505050565b600082612cef57634e487b7160e01b600052601260045260246000fd5b500490565b6000816000190483118215151615612d0e57612d0e612d45565b500290565b600082821015612d2557612d25612d45565b500390565b6000600019821415612d3e57612d3e612d45565b5060010190565b634e487b7160e01b600052601160045260246000fd5b634e487b7160e01b600052603160045260246000fd5b634e487b7160e01b600052603260045260246000fd5b6001600160a01b038116811461156757600080fdfeddf252ad1be2c89b69c2b068fc378daa952ba7f163c4a11628f55a4df523b3efa26469706673582212202c4cefa96e55fed77f56c098073bd5b3d84f23055d660e5b82e4c85cef1b5ae964736f6c634300080700334f776e61626c653a2063616c6c6572206973206e6f7420746865206f776e6572",
			"opcodes": "PUSH1 0x80 PUSH1 0x40 MSTORE PUSH1 0xE DUP1 SLOAD PUSH2 0xFFFF NOT AND PUSH1 0x1 OR SWAP1 SSTORE PUSH3 0x2A PUSH8 0x16345785D8A0000 PUSH4 0x3B9ACA00 PUSH3 0x7AF JUMP JUMPDEST PUSH3 0x38 SWAP1 PUSH1 0x0 NOT PUSH3 0x809 JUMP JUMPDEST PUSH3 0x46 SWAP1 PUSH1 0x0 NOT PUSH3 0x7D1 JUMP JUMPDEST PUSH1 0x10 SSTORE PUSH1 0x0 PUSH1 0x14 SSTORE PUSH1 0x15 DUP1 SLOAD PUSH2 0xFFFF NOT AND SWAP1 SSTORE CALLVALUE DUP1 ISZERO PUSH3 0x66 JUMPI PUSH1 0x0 DUP1 REVERT JUMPDEST POP PUSH1 0x40 MLOAD PUSH3 0x3684 CODESIZE SUB DUP1 PUSH3 0x3684 DUP4 CODECOPY DUP2 ADD PUSH1 0x40 DUP2 SWAP1 MSTORE PUSH3 0x89 SWAP2 PUSH3 0x760 JUMP JUMPDEST PUSH3 0x94 CALLER PUSH3 0x263 JUMP JUMPDEST PUSH1 0x10 DUP1 SLOAD CALLER PUSH1 0x0 SWAP1 DUP2 MSTORE PUSH1 0x4 PUSH1 0x20 DUP2 DUP2 MSTORE PUSH1 0x40 DUP1 DUP5 KECCAK256 SWAP5 SWAP1 SWAP5 SSTORE DUP3 SLOAD PUSH4 0xFFFFFFFF PUSH1 0xA0 SHL NOT AND PUSH1 0x19 PUSH1 0xA0 SHL OR SWAP1 SWAP3 SSTORE DUP3 MLOAD PUSH1 0xC0 DUP2 ADD DUP5 MSTORE SWAP1 DUP2 MSTORE PUSH1 0x28 SWAP2 DUP2 ADD DUP3 SWAP1 MSTORE SWAP2 DUP3 ADD MSTORE PUSH1 0x60 DUP2 ADD SWAP2 SWAP1 SWAP2 MSTORE PUSH1 0x1 PUSH1 0x1 PUSH1 0xA0 SHL SUB DUP4 DUP2 AND PUSH1 0x80 DUP4 ADD DUP2 SWAP1 MSTORE SWAP1 DUP4 AND PUSH1 0xA0 SWAP1 SWAP3 ADD DUP3 SWAP1 MSTORE PUSH1 0x1 DUP1 SLOAD PUSH1 0x1 PUSH1 0x1 PUSH1 0x80 SHL SUB NOT AND PUSH13 0x10000000280000002800000004 OR SWAP1 SSTORE PUSH1 0x2 DUP1 SLOAD PUSH1 0x1 PUSH1 0x1 PUSH1 0xA0 SHL SUB NOT SWAP1 DUP2 AND SWAP1 SWAP3 OR SWAP1 SSTORE PUSH1 0x3 DUP1 SLOAD DUP3 AND SWAP1 SWAP3 OR SWAP1 SWAP2 SSTORE PUSH1 0x12 DUP1 SLOAD PUSH20 0x9AC64CC6E4415144C455BD8E4837FEA55603E5C3 SWAP3 AND SWAP2 SWAP1 SWAP2 OR SWAP1 SSTORE PUSH3 0x178 PUSH8 0x16345785D8A0000 PUSH4 0x3B9ACA00 PUSH3 0x7AF JUMP JUMPDEST PUSH1 0xC SSTORE PUSH1 0x64 PUSH3 0x195 PUSH8 0x16345785D8A0000 PUSH4 0x3B9ACA00 PUSH3 0x7AF JUMP JUMPDEST PUSH3 0x1A2 SWAP1 PUSH1 0x2 PUSH3 0x7AF JUMP JUMPDEST PUSH3 0x1AE SWAP2 SWAP1 PUSH3 0x798 JUMP JUMPDEST PUSH1 0xD SSTORE PUSH3 0x1CE PUSH3 0x1C8 PUSH1 0x0 SLOAD PUSH1 0x1 PUSH1 0x1 PUSH1 0xA0 SHL SUB AND SWAP1 JUMP JUMPDEST PUSH3 0x2B3 JUMP JUMPDEST PUSH3 0x1EB PUSH3 0x1E5 PUSH1 0x0 SLOAD PUSH1 0x1 PUSH1 0x1 PUSH1 0xA0 SHL SUB AND SWAP1 JUMP JUMPDEST PUSH3 0x326 JUMP JUMPDEST PUSH3 0x1F8 PUSH2 0xDEAD PUSH3 0x326 JUMP JUMPDEST PUSH3 0x203 DUP3 PUSH3 0x326 JUMP JUMPDEST PUSH3 0x20E DUP2 PUSH3 0x326 JUMP JUMPDEST CALLER PUSH1 0x0 PUSH32 0xDDF252AD1BE2C89B69C2B068FC378DAA952BA7F163C4A11628F55A4DF523B3EF PUSH3 0x24A PUSH8 0x16345785D8A0000 PUSH4 0x3B9ACA00 PUSH3 0x7AF JUMP JUMPDEST PUSH1 0x40 MLOAD SWAP1 DUP2 MSTORE PUSH1 0x20 ADD PUSH1 0x40 MLOAD DUP1 SWAP2 SUB SWAP1 LOG3 POP POP PUSH3 0x862 JUMP JUMPDEST PUSH1 0x0 DUP1 SLOAD PUSH1 0x1 PUSH1 0x1 PUSH1 0xA0 SHL SUB DUP4 DUP2 AND PUSH1 0x1 PUSH1 0x1 PUSH1 0xA0 SHL SUB NOT DUP4 AND DUP2 OR DUP5 SSTORE PUSH1 0x40 MLOAD SWAP2 SWAP1 SWAP3 AND SWAP3 DUP4 SWAP2 PUSH32 0x8BE0079C531659141344CD1FD0A4F28419497F9722A3DAAFE3B4186F6B6457E0 SWAP2 SWAP1 LOG3 POP POP JUMP JUMPDEST PUSH1 0x0 SLOAD PUSH1 0x1 PUSH1 0x1 PUSH1 0xA0 SHL SUB AND CALLER EQ PUSH3 0x302 JUMPI PUSH1 0x40 MLOAD PUSH3 0x461BCD PUSH1 0xE5 SHL DUP2 MSTORE PUSH1 0x20 PUSH1 0x4 DUP3 ADD DUP2 SWAP1 MSTORE PUSH1 0x24 DUP3 ADD MSTORE PUSH1 0x0 DUP1 MLOAD PUSH1 0x20 PUSH3 0x3664 DUP4 CODECOPY DUP2 MLOAD SWAP2 MSTORE PUSH1 0x44 DUP3 ADD MSTORE PUSH1 0x64 ADD JUMPDEST PUSH1 0x40 MLOAD DUP1 SWAP2 SUB SWAP1 REVERT JUMPDEST PUSH1 0x1 PUSH1 0x1 PUSH1 0xA0 SHL SUB AND PUSH1 0x0 SWAP1 DUP2 MSTORE PUSH1 0x9 PUSH1 0x20 MSTORE PUSH1 0x40 SWAP1 KECCAK256 DUP1 SLOAD PUSH1 0xFF NOT AND PUSH1 0x1 OR SWAP1 SSTORE JUMP JUMPDEST PUSH1 0x0 SLOAD PUSH1 0x1 PUSH1 0x1 PUSH1 0xA0 SHL SUB AND CALLER EQ PUSH3 0x371 JUMPI PUSH1 0x40 MLOAD PUSH3 0x461BCD PUSH1 0xE5 SHL DUP2 MSTORE PUSH1 0x20 PUSH1 0x4 DUP3 ADD DUP2 SWAP1 MSTORE PUSH1 0x24 DUP3 ADD MSTORE PUSH1 0x0 DUP1 MLOAD PUSH1 0x20 PUSH3 0x3664 DUP4 CODECOPY DUP2 MLOAD SWAP2 MSTORE PUSH1 0x44 DUP3 ADD MSTORE PUSH1 0x64 ADD PUSH3 0x2F9 JUMP JUMPDEST PUSH1 0x1 PUSH1 0x1 PUSH1 0xA0 SHL SUB DUP2 AND PUSH1 0x0 SWAP1 DUP2 MSTORE PUSH1 0x7 PUSH1 0x20 MSTORE PUSH1 0x40 SWAP1 KECCAK256 SLOAD PUSH1 0xFF AND ISZERO PUSH3 0x3DC JUMPI PUSH1 0x40 MLOAD PUSH3 0x461BCD PUSH1 0xE5 SHL DUP2 MSTORE PUSH1 0x20 PUSH1 0x4 DUP3 ADD MSTORE PUSH1 0x1B PUSH1 0x24 DUP3 ADD MSTORE PUSH32 0x4163636F756E7420697320616C7265616479206578636C756465640000000000 PUSH1 0x44 DUP3 ADD MSTORE PUSH1 0x64 ADD PUSH3 0x2F9 JUMP JUMPDEST PUSH1 0x1 PUSH1 0x1 PUSH1 0xA0 SHL SUB DUP2 AND PUSH1 0x0 SWAP1 DUP2 MSTORE PUSH1 0x4 PUSH1 0x20 MSTORE PUSH1 0x40 SWAP1 KECCAK256 SLOAD ISZERO PUSH3 0x439 JUMPI PUSH1 0x1 PUSH1 0x1 PUSH1 0xA0 SHL SUB DUP2 AND PUSH1 0x0 SWAP1 DUP2 MSTORE PUSH1 0x4 PUSH1 0x20 MSTORE PUSH1 0x40 SWAP1 KECCAK256 SLOAD PUSH3 0x41F SWAP1 PUSH3 0x49F JUMP JUMPDEST PUSH1 0x1 PUSH1 0x1 PUSH1 0xA0 SHL SUB DUP3 AND PUSH1 0x0 SWAP1 DUP2 MSTORE PUSH1 0x5 PUSH1 0x20 MSTORE PUSH1 0x40 SWAP1 KECCAK256 SSTORE JUMPDEST PUSH1 0x1 PUSH1 0x1 PUSH1 0xA0 SHL SUB AND PUSH1 0x0 DUP2 DUP2 MSTORE PUSH1 0x7 PUSH1 0x20 MSTORE PUSH1 0x40 DUP2 KECCAK256 DUP1 SLOAD PUSH1 0xFF NOT AND PUSH1 0x1 SWAP1 DUP2 OR SWAP1 SWAP2 SSTORE PUSH1 0x8 DUP1 SLOAD SWAP2 DUP3 ADD DUP2 SSTORE SWAP1 SWAP2 MSTORE PUSH32 0xF3F7A9FE364FAAB93B216DA50A3214154F22A0A2B415B23A84C8169E8B636EE3 ADD DUP1 SLOAD PUSH1 0x1 PUSH1 0x1 PUSH1 0xA0 SHL SUB NOT AND SWAP1 SWAP2 OR SWAP1 SSTORE JUMP JUMPDEST PUSH1 0x0 PUSH1 0x10 SLOAD DUP3 GT ISZERO PUSH3 0x508 JUMPI PUSH1 0x40 MLOAD PUSH3 0x461BCD PUSH1 0xE5 SHL DUP2 MSTORE PUSH1 0x20 PUSH1 0x4 DUP3 ADD MSTORE PUSH1 0x2A PUSH1 0x24 DUP3 ADD MSTORE PUSH32 0x416D6F756E74206D757374206265206C657373207468616E20746F74616C2072 PUSH1 0x44 DUP3 ADD MSTORE PUSH10 0x65666C656374696F6E73 PUSH1 0xB0 SHL PUSH1 0x64 DUP3 ADD MSTORE PUSH1 0x84 ADD PUSH3 0x2F9 JUMP JUMPDEST PUSH1 0x0 PUSH3 0x514 PUSH3 0x529 JUMP JUMPDEST SWAP1 POP PUSH3 0x522 DUP2 DUP5 PUSH3 0x798 JUMP JUMPDEST SWAP4 SWAP3 POP POP POP JUMP JUMPDEST PUSH1 0x0 DUP1 DUP1 PUSH3 0x537 PUSH3 0x54F JUMP JUMPDEST SWAP1 SWAP3 POP SWAP1 POP PUSH3 0x548 DUP2 DUP4 PUSH3 0x798 JUMP JUMPDEST SWAP3 POP POP POP SWAP1 JUMP JUMPDEST PUSH1 0x10 SLOAD PUSH1 0x0 SWAP1 DUP2 SWAP1 DUP2 PUSH3 0x570 PUSH8 0x16345785D8A0000 PUSH4 0x3B9ACA00 PUSH3 0x7AF JUMP JUMPDEST SWAP1 POP PUSH1 0x0 JUMPDEST PUSH1 0x8 SLOAD DUP2 LT ISZERO PUSH3 0x6E5 JUMPI DUP3 PUSH1 0x4 PUSH1 0x0 PUSH1 0x8 DUP5 DUP2 SLOAD DUP2 LT PUSH3 0x59B JUMPI PUSH3 0x59B PUSH3 0x84C JUMP JUMPDEST PUSH1 0x0 SWAP2 DUP3 MSTORE PUSH1 0x20 DUP1 DUP4 KECCAK256 SWAP1 SWAP2 ADD SLOAD PUSH1 0x1 PUSH1 0x1 PUSH1 0xA0 SHL SUB AND DUP4 MSTORE DUP3 ADD SWAP3 SWAP1 SWAP3 MSTORE PUSH1 0x40 ADD SWAP1 KECCAK256 SLOAD GT DUP1 PUSH3 0x60A JUMPI POP DUP2 PUSH1 0x5 PUSH1 0x0 PUSH1 0x8 DUP5 DUP2 SLOAD DUP2 LT PUSH3 0x5E3 JUMPI PUSH3 0x5E3 PUSH3 0x84C JUMP JUMPDEST PUSH1 0x0 SWAP2 DUP3 MSTORE PUSH1 0x20 DUP1 DUP4 KECCAK256 SWAP1 SWAP2 ADD SLOAD PUSH1 0x1 PUSH1 0x1 PUSH1 0xA0 SHL SUB AND DUP4 MSTORE DUP3 ADD SWAP3 SWAP1 SWAP3 MSTORE PUSH1 0x40 ADD SWAP1 KECCAK256 SLOAD GT JUMPDEST ISZERO PUSH3 0x636 JUMPI PUSH1 0x10 SLOAD PUSH3 0x62B PUSH8 0x16345785D8A0000 PUSH4 0x3B9ACA00 PUSH3 0x7AF JUMP JUMPDEST SWAP5 POP SWAP5 POP POP POP POP SWAP1 SWAP2 JUMP JUMPDEST PUSH1 0x4 PUSH1 0x0 PUSH1 0x8 DUP4 DUP2 SLOAD DUP2 LT PUSH3 0x650 JUMPI PUSH3 0x650 PUSH3 0x84C JUMP JUMPDEST PUSH1 0x0 SWAP2 DUP3 MSTORE PUSH1 0x20 DUP1 DUP4 KECCAK256 SWAP1 SWAP2 ADD SLOAD PUSH1 0x1 PUSH1 0x1 PUSH1 0xA0 SHL SUB AND DUP4 MSTORE DUP3 ADD SWAP3 SWAP1 SWAP3 MSTORE PUSH1 0x40 ADD SWAP1 KECCAK256 SLOAD PUSH3 0x681 SWAP1 DUP5 PUSH3 0x7D1 JUMP JUMPDEST SWAP3 POP PUSH1 0x5 PUSH1 0x0 PUSH1 0x8 DUP4 DUP2 SLOAD DUP2 LT PUSH3 0x69D JUMPI PUSH3 0x69D PUSH3 0x84C JUMP JUMPDEST PUSH1 0x0 SWAP2 DUP3 MSTORE PUSH1 0x20 DUP1 DUP4 KECCAK256 SWAP1 SWAP2 ADD SLOAD PUSH1 0x1 PUSH1 0x1 PUSH1 0xA0 SHL SUB AND DUP4 MSTORE DUP3 ADD SWAP3 SWAP1 SWAP3 MSTORE PUSH1 0x40 ADD SWAP1 KECCAK256 SLOAD PUSH3 0x6CE SWAP1 DUP4 PUSH3 0x7D1 JUMP JUMPDEST SWAP2 POP DUP1 PUSH3 0x6DC DUP2 PUSH3 0x7EB JUMP JUMPDEST SWAP2 POP POP PUSH3 0x575 JUMP JUMPDEST POP PUSH3 0x6FE PUSH8 0x16345785D8A0000 PUSH4 0x3B9ACA00 PUSH3 0x7AF JUMP JUMPDEST PUSH1 0x10 SLOAD PUSH3 0x70D SWAP2 SWAP1 PUSH3 0x798 JUMP JUMPDEST DUP3 LT ISZERO PUSH3 0x73A JUMPI PUSH1 0x10 SLOAD PUSH3 0x730 PUSH8 0x16345785D8A0000 PUSH4 0x3B9ACA00 PUSH3 0x7AF JUMP JUMPDEST SWAP4 POP SWAP4 POP POP POP SWAP1 SWAP2 JUMP JUMPDEST SWAP1 SWAP4 SWAP1 SWAP3 POP SWAP1 POP JUMP JUMPDEST DUP1 MLOAD PUSH1 0x1 PUSH1 0x1 PUSH1 0xA0 SHL SUB DUP2 AND DUP2 EQ PUSH3 0x75B JUMPI PUSH1 0x0 DUP1 REVERT JUMPDEST SWAP2 SWAP1 POP JUMP JUMPDEST PUSH1 0x0 DUP1 PUSH1 0x40 DUP4 DUP6 SUB SLT ISZERO PUSH3 0x774 JUMPI PUSH1 0x0 DUP1 REVERT JUMPDEST PUSH3 0x77F DUP4 PUSH3 0x743 JUMP JUMPDEST SWAP2 POP PUSH3 0x78F PUSH1 0x20 DUP5 ADD PUSH3 0x743 JUMP JUMPDEST SWAP1 POP SWAP3 POP SWAP3 SWAP1 POP JUMP JUMPDEST PUSH1 0x0 DUP3 PUSH3 0x7AA JUMPI PUSH3 0x7AA PUSH3 0x836 JUMP JUMPDEST POP DIV SWAP1 JUMP JUMPDEST PUSH1 0x0 DUP2 PUSH1 0x0 NOT DIV DUP4 GT DUP3 ISZERO ISZERO AND ISZERO PUSH3 0x7CC JUMPI PUSH3 0x7CC PUSH3 0x820 JUMP JUMPDEST POP MUL SWAP1 JUMP JUMPDEST PUSH1 0x0 DUP3 DUP3 LT ISZERO PUSH3 0x7E6 JUMPI PUSH3 0x7E6 PUSH3 0x820 JUMP JUMPDEST POP SUB SWAP1 JUMP JUMPDEST PUSH1 0x0 PUSH1 0x0 NOT DUP3 EQ ISZERO PUSH3 0x802 JUMPI PUSH3 0x802 PUSH3 0x820 JUMP JUMPDEST POP PUSH1 0x1 ADD SWAP1 JUMP JUMPDEST PUSH1 0x0 DUP3 PUSH3 0x81B JUMPI PUSH3 0x81B PUSH3 0x836 JUMP JUMPDEST POP MOD SWAP1 JUMP JUMPDEST PUSH4 0x4E487B71 PUSH1 0xE0 SHL PUSH1 0x0 MSTORE PUSH1 0x11 PUSH1 0x4 MSTORE PUSH1 0x24 PUSH1 0x0 REVERT JUMPDEST PUSH4 0x4E487B71 PUSH1 0xE0 SHL PUSH1 0x0 MSTORE PUSH1 0x12 PUSH1 0x4 MSTORE PUSH1 0x24 PUSH1 0x0 REVERT JUMPDEST PUSH4 0x4E487B71 PUSH1 0xE0 SHL PUSH1 0x0 MSTORE PUSH1 0x32 PUSH1 0x4 MSTORE PUSH1 0x24 PUSH1 0x0 REVERT JUMPDEST PUSH2 0x2DF2 DUP1 PUSH3 0x872 PUSH1 0x0 CODECOPY PUSH1 0x0 RETURN INVALID PUSH1 0x80 PUSH1 0x40 MSTORE PUSH1 0x4 CALLDATASIZE LT PUSH2 0x213 JUMPI PUSH1 0x0 CALLDATALOAD PUSH1 0xE0 SHR DUP1 PUSH4 0x715018A6 GT PUSH2 0x118 JUMPI DUP1 PUSH4 0xD30299E7 GT PUSH2 0xA0 JUMPI DUP1 PUSH4 0xEA2F0B37 GT PUSH2 0x6F JUMPI DUP1 PUSH4 0xEA2F0B37 EQ PUSH2 0x67A JUMPI DUP1 PUSH4 0xEB1E7387 EQ PUSH2 0x69A JUMPI DUP1 PUSH4 0xEC28438A EQ PUSH2 0x700 JUMPI DUP1 PUSH4 0xF2FDE38B EQ PUSH2 0x720 JUMPI DUP1 PUSH4 0xFE575A87 EQ PUSH2 0x740 JUMPI PUSH1 0x0 DUP1 REVERT JUMPDEST DUP1 PUSH4 0xD30299E7 EQ PUSH2 0x5BB JUMPI DUP1 PUSH4 0xDD62ED3E EQ PUSH2 0x5DB JUMPI DUP1 PUSH4 0xE594707E EQ PUSH2 0x621 JUMPI DUP1 PUSH4 0xE85455D7 EQ PUSH2 0x641 JUMPI PUSH1 0x0 DUP1 REVERT JUMPDEST DUP1 PUSH4 0x95D89B41 GT PUSH2 0xE7 JUMPI DUP1 PUSH4 0x95D89B41 EQ PUSH2 0x518 JUMPI DUP1 PUSH4 0xA457C2D7 EQ PUSH2 0x546 JUMPI DUP1 PUSH4 0xA9059CBB EQ PUSH2 0x566 JUMPI DUP1 PUSH4 0xC07E3DE2 EQ PUSH2 0x586 JUMPI DUP1 PUSH4 0xC29C669A EQ PUSH2 0x59B JUMPI PUSH1 0x0 DUP1 REVERT JUMPDEST DUP1 PUSH4 0x715018A6 EQ PUSH2 0x496 JUMPI DUP1 PUSH4 0x7D1DB4A5 EQ PUSH2 0x4AB JUMPI DUP1 PUSH4 0x88F82020 EQ PUSH2 0x4C1 JUMPI DUP1 PUSH4 0x8DA5CB5B EQ PUSH2 0x4FA JUMPI PUSH1 0x0 DUP1 REVERT JUMPDEST DUP1 PUSH4 0x3685D419 GT PUSH2 0x19B JUMPI DUP1 PUSH4 0x52390C02 GT PUSH2 0x16A JUMPI DUP1 PUSH4 0x52390C02 EQ PUSH2 0x3D9 JUMPI DUP1 PUSH4 0x5342ACB4 EQ PUSH2 0x3F9 JUMPI DUP1 PUSH4 0x53BBF6AC EQ PUSH2 0x432 JUMPI DUP1 PUSH4 0x70A08231 EQ PUSH2 0x448 JUMPI DUP1 PUSH4 0x70D5AE05 EQ PUSH2 0x468 JUMPI PUSH1 0x0 DUP1 REVERT JUMPDEST DUP1 PUSH4 0x3685D419 EQ PUSH2 0x359 JUMPI DUP1 PUSH4 0x39509351 EQ PUSH2 0x379 JUMPI DUP1 PUSH4 0x437823EC EQ PUSH2 0x399 JUMPI DUP1 PUSH4 0x4549B039 EQ PUSH2 0x3B9 JUMPI PUSH1 0x0 DUP1 REVERT JUMPDEST DUP1 PUSH4 0x18160DDD GT PUSH2 0x1E2 JUMPI DUP1 PUSH4 0x18160DDD EQ PUSH2 0x2D3 JUMPI DUP1 PUSH4 0x18A24B5B EQ PUSH2 0x2E8 JUMPI DUP1 PUSH4 0x23B872DD EQ PUSH2 0x2FD JUMPI DUP1 PUSH4 0x2D838119 EQ PUSH2 0x31D JUMPI DUP1 PUSH4 0x313CE567 EQ PUSH2 0x33D JUMPI PUSH1 0x0 DUP1 REVERT JUMPDEST DUP1 PUSH4 0x53AB182 EQ PUSH2 0x21F JUMPI DUP1 PUSH4 0x6FDDE03 EQ PUSH2 0x241 JUMPI DUP1 PUSH4 0x95EA7B3 EQ PUSH2 0x284 JUMPI DUP1 PUSH4 0x13114A9D EQ PUSH2 0x2B4 JUMPI PUSH1 0x0 DUP1 REVERT JUMPDEST CALLDATASIZE PUSH2 0x21A JUMPI STOP JUMPDEST PUSH1 0x0 DUP1 REVERT JUMPDEST CALLVALUE DUP1 ISZERO PUSH2 0x22B JUMPI PUSH1 0x0 DUP1 REVERT JUMPDEST POP PUSH2 0x23F PUSH2 0x23A CALLDATASIZE PUSH1 0x4 PUSH2 0x2A87 JUMP JUMPDEST PUSH2 0x779 JUMP JUMPDEST STOP JUMPDEST CALLVALUE DUP1 ISZERO PUSH2 0x24D JUMPI PUSH1 0x0 DUP1 REVERT JUMPDEST POP PUSH1 0x40 DUP1 MLOAD DUP1 DUP3 ADD SWAP1 SWAP2 MSTORE PUSH1 0x8 DUP2 MSTORE PUSH8 0x74657374696E673 PUSH1 0xC4 SHL PUSH1 0x20 DUP3 ADD MSTORE JUMPDEST PUSH1 0x40 MLOAD PUSH2 0x27B SWAP2 SWAP1 PUSH2 0x2B4F JUMP JUMPDEST PUSH1 0x40 MLOAD DUP1 SWAP2 SUB SWAP1 RETURN JUMPDEST CALLVALUE DUP1 ISZERO PUSH2 0x290 JUMPI PUSH1 0x0 DUP1 REVERT JUMPDEST POP PUSH2 0x2A4 PUSH2 0x29F CALLDATASIZE PUSH1 0x4 PUSH2 0x2A5B JUMP JUMPDEST PUSH2 0x869 JUMP JUMPDEST PUSH1 0x40 MLOAD SWAP1 ISZERO ISZERO DUP2 MSTORE PUSH1 0x20 ADD PUSH2 0x27B JUMP JUMPDEST CALLVALUE DUP1 ISZERO PUSH2 0x2C0 JUMPI PUSH1 0x0 DUP1 REVERT JUMPDEST POP PUSH1 0x11 SLOAD JUMPDEST PUSH1 0x40 MLOAD SWAP1 DUP2 MSTORE PUSH1 0x20 ADD PUSH2 0x27B JUMP JUMPDEST CALLVALUE DUP1 ISZERO PUSH2 0x2DF JUMPI PUSH1 0x0 DUP1 REVERT JUMPDEST POP PUSH2 0x2C5 PUSH2 0x880 JUMP JUMPDEST CALLVALUE DUP1 ISZERO PUSH2 0x2F4 JUMPI PUSH1 0x0 DUP1 REVERT JUMPDEST POP PUSH2 0x23F PUSH2 0x89D JUMP JUMPDEST CALLVALUE DUP1 ISZERO PUSH2 0x309 JUMPI PUSH1 0x0 DUP1 REVERT JUMPDEST POP PUSH2 0x2A4 PUSH2 0x318 CALLDATASIZE PUSH1 0x4 PUSH2 0x29E5 JUMP JUMPDEST PUSH2 0x8D7 JUMP JUMPDEST CALLVALUE DUP1 ISZERO PUSH2 0x329 JUMPI PUSH1 0x0 DUP1 REVERT JUMPDEST POP PUSH2 0x2C5 PUSH2 0x338 CALLDATASIZE PUSH1 0x4 PUSH2 0x2A87 JUMP JUMPDEST PUSH2 0x981 JUMP JUMPDEST CALLVALUE DUP1 ISZERO PUSH2 0x349 JUMPI PUSH1 0x0 DUP1 REVERT JUMPDEST POP PUSH1 0x40 MLOAD PUSH1 0x9 DUP2 MSTORE PUSH1 0x20 ADD PUSH2 0x27B JUMP JUMPDEST CALLVALUE DUP1 ISZERO PUSH2 0x365 JUMPI PUSH1 0x0 DUP1 REVERT JUMPDEST POP PUSH2 0x23F PUSH2 0x374 CALLDATASIZE PUSH1 0x4 PUSH2 0x2972 JUMP JUMPDEST PUSH2 0xA05 JUMP JUMPDEST CALLVALUE DUP1 ISZERO PUSH2 0x385 JUMPI PUSH1 0x0 DUP1 REVERT JUMPDEST POP PUSH2 0x2A4 PUSH2 0x394 CALLDATASIZE PUSH1 0x4 PUSH2 0x2A5B JUMP JUMPDEST PUSH2 0xBBC JUMP JUMPDEST CALLVALUE DUP1 ISZERO PUSH2 0x3A5 JUMPI PUSH1 0x0 DUP1 REVERT JUMPDEST POP PUSH2 0x23F PUSH2 0x3B4 CALLDATASIZE PUSH1 0x4 PUSH2 0x2972 JUMP JUMPDEST PUSH2 0xBF8 JUMP JUMPDEST CALLVALUE DUP1 ISZERO PUSH2 0x3C5 JUMPI PUSH1 0x0 DUP1 REVERT JUMPDEST POP PUSH2 0x2C5 PUSH2 0x3D4 CALLDATASIZE PUSH1 0x4 PUSH2 0x2AA0 JUMP JUMPDEST PUSH2 0xC46 JUMP JUMPDEST CALLVALUE DUP1 ISZERO PUSH2 0x3E5 JUMPI PUSH1 0x0 DUP1 REVERT JUMPDEST POP PUSH2 0x23F PUSH2 0x3F4 CALLDATASIZE PUSH1 0x4 PUSH2 0x2972 JUMP JUMPDEST PUSH2 0xCE4 JUMP JUMPDEST CALLVALUE DUP1 ISZERO PUSH2 0x405 JUMPI PUSH1 0x0 DUP1 REVERT JUMPDEST POP PUSH2 0x2A4 PUSH2 0x414 CALLDATASIZE PUSH1 0x4 PUSH2 0x2972 JUMP JUMPDEST PUSH1 0x1 PUSH1 0x1 PUSH1 0xA0 SHL SUB AND PUSH1 0x0 SWAP1 DUP2 MSTORE PUSH1 0x9 PUSH1 0x20 MSTORE PUSH1 0x40 SWAP1 KECCAK256 SLOAD PUSH1 0xFF AND SWAP1 JUMP JUMPDEST CALLVALUE DUP1 ISZERO PUSH2 0x43E JUMPI PUSH1 0x0 DUP1 REVERT JUMPDEST POP PUSH2 0x2C5 PUSH1 0xF SLOAD DUP2 JUMP JUMPDEST CALLVALUE DUP1 ISZERO PUSH2 0x454 JUMPI PUSH1 0x0 DUP1 REVERT JUMPDEST POP PUSH2 0x2C5 PUSH2 0x463 CALLDATASIZE PUSH1 0x4 PUSH2 0x2972 JUMP JUMPDEST PUSH2 0xE37 JUMP JUMPDEST CALLVALUE DUP1 ISZERO PUSH2 0x474 JUMPI PUSH1 0x0 DUP1 REVERT JUMPDEST POP PUSH2 0x47E PUSH2 0xDEAD DUP2 JUMP JUMPDEST PUSH1 0x40 MLOAD PUSH1 0x1 PUSH1 0x1 PUSH1 0xA0 SHL SUB SWAP1 SWAP2 AND DUP2 MSTORE PUSH1 0x20 ADD PUSH2 0x27B JUMP JUMPDEST CALLVALUE DUP1 ISZERO PUSH2 0x4A2 JUMPI PUSH1 0x0 DUP1 REVERT JUMPDEST POP PUSH2 0x23F PUSH2 0xE96 JUMP JUMPDEST CALLVALUE DUP1 ISZERO PUSH2 0x4B7 JUMPI PUSH1 0x0 DUP1 REVERT JUMPDEST POP PUSH2 0x2C5 PUSH1 0xC SLOAD DUP2 JUMP JUMPDEST CALLVALUE DUP1 ISZERO PUSH2 0x4CD JUMPI PUSH1 0x0 DUP1 REVERT JUMPDEST POP PUSH2 0x2A4 PUSH2 0x4DC CALLDATASIZE PUSH1 0x4 PUSH2 0x2972 JUMP JUMPDEST PUSH1 0x1 PUSH1 0x1 PUSH1 0xA0 SHL SUB AND PUSH1 0x0 SWAP1 DUP2 MSTORE PUSH1 0x7 PUSH1 0x20 MSTORE PUSH1 0x40 SWAP1 KECCAK256 SLOAD PUSH1 0xFF AND SWAP1 JUMP JUMPDEST CALLVALUE DUP1 ISZERO PUSH2 0x506 JUMPI PUSH1 0x0 DUP1 REVERT JUMPDEST POP PUSH1 0x0 SLOAD PUSH1 0x1 PUSH1 0x1 PUSH1 0xA0 SHL SUB AND PUSH2 0x47E JUMP JUMPDEST CALLVALUE DUP1 ISZERO PUSH2 0x524 JUMPI PUSH1 0x0 DUP1 REVERT JUMPDEST POP PUSH1 0x40 DUP1 MLOAD DUP1 DUP3 ADD SWAP1 SWAP2 MSTORE PUSH1 0x5 DUP2 MSTORE PUSH5 0x544553543 PUSH1 0xDC SHL PUSH1 0x20 DUP3 ADD MSTORE PUSH2 0x26E JUMP JUMPDEST CALLVALUE DUP1 ISZERO PUSH2 0x552 JUMPI PUSH1 0x0 DUP1 REVERT JUMPDEST POP PUSH2 0x2A4 PUSH2 0x561 CALLDATASIZE PUSH1 0x4 PUSH2 0x2A5B JUMP JUMPDEST PUSH2 0xECC JUMP JUMPDEST CALLVALUE DUP1 ISZERO PUSH2 0x572 JUMPI PUSH1 0x0 DUP1 REVERT JUMPDEST POP PUSH2 0x2A4 PUSH2 0x581 CALLDATASIZE PUSH1 0x4 PUSH2 0x2A5B JUMP JUMPDEST PUSH2 0xF65 JUMP JUMPDEST CALLVALUE DUP1 ISZERO PUSH2 0x592 JUMPI PUSH1 0x0 DUP1 REVERT JUMPDEST POP PUSH2 0x23F PUSH2 0xF72 JUMP JUMPDEST CALLVALUE DUP1 ISZERO PUSH2 0x5A7 JUMPI PUSH1 0x0 DUP1 REVERT JUMPDEST POP PUSH2 0x23F PUSH2 0x5B6 CALLDATASIZE PUSH1 0x4 PUSH2 0x2A26 JUMP JUMPDEST PUSH2 0x10B9 JUMP JUMPDEST CALLVALUE DUP1 ISZERO PUSH2 0x5C7 JUMPI PUSH1 0x0 DUP1 REVERT JUMPDEST POP PUSH2 0x23F PUSH2 0x5D6 CALLDATASIZE PUSH1 0x4 PUSH2 0x2AC3 JUMP JUMPDEST PUSH2 0x1139 JUMP JUMPDEST CALLVALUE DUP1 ISZERO PUSH2 0x5E7 JUMPI PUSH1 0x0 DUP1 REVERT JUMPDEST POP PUSH2 0x2C5 PUSH2 0x5F6 CALLDATASIZE PUSH1 0x4 PUSH2 0x29AC JUMP JUMPDEST PUSH1 0x1 PUSH1 0x1 PUSH1 0xA0 SHL SUB SWAP2 DUP3 AND PUSH1 0x0 SWAP1 DUP2 MSTORE PUSH1 0x6 PUSH1 0x20 SWAP1 DUP2 MSTORE PUSH1 0x40 DUP1 DUP4 KECCAK256 SWAP4 SWAP1 SWAP5 AND DUP3 MSTORE SWAP2 SWAP1 SWAP2 MSTORE KECCAK256 SLOAD SWAP1 JUMP JUMPDEST CALLVALUE DUP1 ISZERO PUSH2 0x62D JUMPI PUSH1 0x0 DUP1 REVERT JUMPDEST POP PUSH2 0x23F PUSH2 0x63C CALLDATASIZE PUSH1 0x4 PUSH2 0x2A26 JUMP JUMPDEST PUSH2 0x136F JUMP JUMPDEST CALLVALUE DUP1 ISZERO PUSH2 0x64D JUMPI PUSH1 0x0 DUP1 REVERT JUMPDEST POP PUSH2 0x2A4 PUSH2 0x65C CALLDATASIZE PUSH1 0x4 PUSH2 0x2972 JUMP JUMPDEST PUSH1 0x1 PUSH1 0x1 PUSH1 0xA0 SHL SUB AND PUSH1 0x0 SWAP1 DUP2 MSTORE PUSH1 0xA PUSH1 0x20 MSTORE PUSH1 0x40 SWAP1 KECCAK256 SLOAD PUSH1 0xFF AND SWAP1 JUMP JUMPDEST CALLVALUE DUP1 ISZERO PUSH2 0x686 JUMPI PUSH1 0x0 DUP1 REVERT JUMPDEST POP PUSH2 0x23F PUSH2 0x695 CALLDATASIZE PUSH1 0x4 PUSH2 0x2972 JUMP JUMPDEST PUSH2 0x13C4 JUMP JUMPDEST CALLVALUE DUP1 ISZERO PUSH2 0x6A6 JUMPI PUSH1 0x0 DUP1 REVERT JUMPDEST POP PUSH1 0x0 SLOAD PUSH1 0x1 SLOAD PUSH1 0x40 DUP1 MLOAD PUSH1 0x1 PUSH1 0xA0 SHL SWAP1 SWAP4 DIV PUSH4 0xFFFFFFFF SWAP1 DUP2 AND DUP5 MSTORE DUP1 DUP4 AND PUSH1 0x20 DUP6 ADD MSTORE PUSH5 0x100000000 DUP4 DIV DUP2 AND SWAP2 DUP5 ADD SWAP2 SWAP1 SWAP2 MSTORE PUSH1 0x1 PUSH1 0x40 SHL DUP3 DIV DUP2 AND PUSH1 0x60 DUP5 ADD MSTORE PUSH1 0x1 PUSH1 0x60 SHL SWAP1 SWAP2 DIV AND PUSH1 0x80 DUP3 ADD MSTORE PUSH1 0xA0 ADD PUSH2 0x27B JUMP JUMPDEST CALLVALUE DUP1 ISZERO PUSH2 0x70C JUMPI PUSH1 0x0 DUP1 REVERT JUMPDEST POP PUSH2 0x23F PUSH2 0x71B CALLDATASIZE PUSH1 0x4 PUSH2 0x2A87 JUMP JUMPDEST PUSH2 0x140F JUMP JUMPDEST CALLVALUE DUP1 ISZERO PUSH2 0x72C JUMPI PUSH1 0x0 DUP1 REVERT JUMPDEST POP PUSH2 0x23F PUSH2 0x73B CALLDATASIZE PUSH1 0x4 PUSH2 0x2972 JUMP JUMPDEST PUSH2 0x14CF JUMP JUMPDEST CALLVALUE DUP1 ISZERO PUSH2 0x74C JUMPI PUSH1 0x0 DUP1 REVERT JUMPDEST POP PUSH2 0x2A4 PUSH2 0x75B CALLDATASIZE PUSH1 0x4 PUSH2 0x2972 JUMP JUMPDEST PUSH1 0x1 PUSH1 0x1 PUSH1 0xA0 SHL SUB AND PUSH1 0x0 SWAP1 DUP2 MSTORE PUSH1 0xB PUSH1 0x20 MSTORE PUSH1 0x40 SWAP1 KECCAK256 SLOAD PUSH1 0xFF AND SWAP1 JUMP JUMPDEST CALLER PUSH1 0x0 DUP2 DUP2 MSTORE PUSH1 0x7 PUSH1 0x20 MSTORE PUSH1 0x40 SWAP1 KECCAK256 SLOAD PUSH1 0xFF AND ISZERO PUSH2 0x7F3 JUMPI PUSH1 0x40 MLOAD PUSH3 0x461BCD PUSH1 0xE5 SHL DUP2 MSTORE PUSH1 0x20 PUSH1 0x4 DUP3 ADD MSTORE PUSH1 0x2C PUSH1 0x24 DUP3 ADD MSTORE PUSH32 0x4578636C75646564206164647265737365732063616E6E6F742063616C6C2074 PUSH1 0x44 DUP3 ADD MSTORE PUSH12 0x3434B990333AB731BA34B7B7 PUSH1 0xA1 SHL PUSH1 0x64 DUP3 ADD MSTORE PUSH1 0x84 ADD JUMPDEST PUSH1 0x40 MLOAD DUP1 SWAP2 SUB SWAP1 REVERT JUMPDEST PUSH1 0x0 PUSH2 0x7FE DUP4 PUSH2 0x156A JUMP JUMPDEST POP POP POP PUSH1 0x1 PUSH1 0x1 PUSH1 0xA0 SHL SUB DUP5 AND PUSH1 0x0 SWAP1 DUP2 MSTORE PUSH1 0x4 PUSH1 0x20 MSTORE PUSH1 0x40 SWAP1 KECCAK256 SLOAD SWAP2 SWAP3 POP PUSH2 0x829 SWAP2 DUP4 SWAP2 POP PUSH2 0x2D13 JUMP JUMPDEST PUSH1 0x1 PUSH1 0x1 PUSH1 0xA0 SHL SUB DUP4 AND PUSH1 0x0 SWAP1 DUP2 MSTORE PUSH1 0x4 PUSH1 0x20 MSTORE PUSH1 0x40 SWAP1 KECCAK256 SSTORE PUSH1 0x10 SLOAD PUSH2 0x850 SWAP1 DUP3 SWAP1 PUSH2 0x2D13 JUMP JUMPDEST PUSH1 0x10 SSTORE PUSH1 0x11 SLOAD PUSH2 0x861 SWAP1 DUP5 SWAP1 PUSH2 0x2C92 JUMP JUMPDEST PUSH1 0x11 SSTORE POP POP POP JUMP JUMPDEST PUSH1 0x0 PUSH2 0x876 CALLER DUP5 DUP5 PUSH2 0x15FB JUMP JUMPDEST POP PUSH1 0x1 JUMPDEST SWAP3 SWAP2 POP POP JUMP JUMPDEST PUSH1 0x0 PUSH2 0x898 PUSH8 0x16345785D8A0000 PUSH4 0x3B9ACA00 PUSH2 0x2CF4 JUMP JUMPDEST SWAP1 POP SWAP1 JUMP JUMPDEST PUSH1 0x0 SLOAD PUSH1 0x1 PUSH1 0x1 PUSH1 0xA0 SHL SUB AND CALLER EQ PUSH2 0x8C7 JUMPI PUSH1 0x40 MLOAD PUSH3 0x461BCD PUSH1 0xE5 SHL DUP2 MSTORE PUSH1 0x4 ADD PUSH2 0x7EA SWAP1 PUSH2 0x2BEC JUMP JUMPDEST PUSH1 0xE DUP1 SLOAD PUSH1 0xFF NOT AND SWAP1 SSTORE TIMESTAMP PUSH1 0xF SSTORE JUMP JUMPDEST PUSH1 0x0 PUSH2 0x8E4 DUP5 DUP5 DUP5 PUSH2 0x1720 JUMP JUMPDEST PUSH1 0x1 PUSH1 0x1 PUSH1 0xA0 SHL SUB DUP5 AND PUSH1 0x0 SWAP1 DUP2 MSTORE PUSH1 0x6 PUSH1 0x20 SWAP1 DUP2 MSTORE PUSH1 0x40 DUP1 DUP4 KECCAK256 CALLER DUP5 MSTORE SWAP1 SWAP2 MSTORE SWAP1 KECCAK256 SLOAD DUP3 DUP2 LT ISZERO PUSH2 0x969 JUMPI PUSH1 0x40 MLOAD PUSH3 0x461BCD PUSH1 0xE5 SHL DUP2 MSTORE PUSH1 0x20 PUSH1 0x4 DUP3 ADD MSTORE PUSH1 0x28 PUSH1 0x24 DUP3 ADD MSTORE PUSH32 0x45524332303A207472616E7366657220616D6F756E7420657863656564732061 PUSH1 0x44 DUP3 ADD MSTORE PUSH8 0x6C6C6F77616E6365 PUSH1 0xC0 SHL PUSH1 0x64 DUP3 ADD MSTORE PUSH1 0x84 ADD PUSH2 0x7EA JUMP JUMPDEST PUSH2 0x976 DUP6 CALLER DUP6 DUP5 SUB PUSH2 0x15FB JUMP JUMPDEST POP PUSH1 0x1 SWAP5 SWAP4 POP POP POP POP JUMP JUMPDEST PUSH1 0x0 PUSH1 0x10 SLOAD DUP3 GT ISZERO PUSH2 0x9E8 JUMPI PUSH1 0x40 MLOAD PUSH3 0x461BCD PUSH1 0xE5 SHL DUP2 MSTORE PUSH1 0x20 PUSH1 0x4 DUP3 ADD MSTORE PUSH1 0x2A PUSH1 0x24 DUP3 ADD MSTORE PUSH32 0x416D6F756E74206D757374206265206C657373207468616E20746F74616C2072 PUSH1 0x44 DUP3 ADD MSTORE PUSH10 0x65666C656374696F6E73 PUSH1 0xB0 SHL PUSH1 0x64 DUP3 ADD MSTORE PUSH1 0x84 ADD PUSH2 0x7EA JUMP JUMPDEST PUSH1 0x0 PUSH2 0x9F2 PUSH2 0x2188 JUMP JUMPDEST SWAP1 POP PUSH2 0x9FE DUP2 DUP5 PUSH2 0x2CD2 JUMP JUMPDEST SWAP4 SWAP3 POP POP POP JUMP JUMPDEST PUSH1 0x0 SLOAD PUSH1 0x1 PUSH1 0x1 PUSH1 0xA0 SHL SUB AND CALLER EQ PUSH2 0xA2F JUMPI PUSH1 0x40 MLOAD PUSH3 0x461BCD PUSH1 0xE5 SHL DUP2 MSTORE PUSH1 0x4 ADD PUSH2 0x7EA SWAP1 PUSH2 0x2BEC JUMP JUMPDEST PUSH1 0x1 PUSH1 0x1 PUSH1 0xA0 SHL SUB DUP2 AND PUSH1 0x0 SWAP1 DUP2 MSTORE PUSH1 0x7 PUSH1 0x20 MSTORE PUSH1 0x40 SWAP1 KECCAK256 SLOAD PUSH1 0xFF AND PUSH2 0xA97 JUMPI PUSH1 0x40 MLOAD PUSH3 0x461BCD PUSH1 0xE5 SHL DUP2 MSTORE PUSH1 0x20 PUSH1 0x4 DUP3 ADD MSTORE PUSH1 0x1B PUSH1 0x24 DUP3 ADD MSTORE PUSH32 0x4163636F756E7420697320616C7265616479206578636C756465640000000000 PUSH1 0x44 DUP3 ADD MSTORE PUSH1 0x64 ADD PUSH2 0x7EA JUMP JUMPDEST PUSH1 0x0 JUMPDEST PUSH1 0x8 SLOAD DUP2 LT ISZERO PUSH2 0xBB8 JUMPI DUP2 PUSH1 0x1 PUSH1 0x1 PUSH1 0xA0 SHL SUB AND PUSH1 0x8 DUP3 DUP2 SLOAD DUP2 LT PUSH2 0xAC1 JUMPI PUSH2 0xAC1 PUSH2 0x2D71 JUMP JUMPDEST PUSH1 0x0 SWAP2 DUP3 MSTORE PUSH1 0x20 SWAP1 SWAP2 KECCAK256 ADD SLOAD PUSH1 0x1 PUSH1 0x1 PUSH1 0xA0 SHL SUB AND EQ ISZERO PUSH2 0xBA6 JUMPI PUSH1 0x8 DUP1 SLOAD PUSH2 0xAEC SWAP1 PUSH1 0x1 SWAP1 PUSH2 0x2D13 JUMP JUMPDEST DUP2 SLOAD DUP2 LT PUSH2 0xAFC JUMPI PUSH2 0xAFC PUSH2 0x2D71 JUMP JUMPDEST PUSH1 0x0 SWAP2 DUP3 MSTORE PUSH1 0x20 SWAP1 SWAP2 KECCAK256 ADD SLOAD PUSH1 0x8 DUP1 SLOAD PUSH1 0x1 PUSH1 0x1 PUSH1 0xA0 SHL SUB SWAP1 SWAP3 AND SWAP2 DUP4 SWAP1 DUP2 LT PUSH2 0xB28 JUMPI PUSH2 0xB28 PUSH2 0x2D71 JUMP JUMPDEST PUSH1 0x0 SWAP2 DUP3 MSTORE PUSH1 0x20 DUP1 DUP4 KECCAK256 SWAP2 SWAP1 SWAP2 ADD DUP1 SLOAD PUSH1 0x1 PUSH1 0x1 PUSH1 0xA0 SHL SUB NOT AND PUSH1 0x1 PUSH1 0x1 PUSH1 0xA0 SHL SUB SWAP5 DUP6 AND OR SWAP1 SSTORE SWAP2 DUP5 AND DUP2 MSTORE PUSH1 0x5 DUP3 MSTORE PUSH1 0x40 DUP1 DUP3 KECCAK256 DUP3 SWAP1 SSTORE PUSH1 0x7 SWAP1 SWAP3 MSTORE KECCAK256 DUP1 SLOAD PUSH1 0xFF NOT AND SWAP1 SSTORE PUSH1 0x8 DUP1 SLOAD DUP1 PUSH2 0xB80 JUMPI PUSH2 0xB80 PUSH2 0x2D5B JUMP JUMPDEST PUSH1 0x0 DUP3 DUP2 MSTORE PUSH1 0x20 SWAP1 KECCAK256 DUP2 ADD PUSH1 0x0 NOT SWAP1 DUP2 ADD DUP1 SLOAD PUSH1 0x1 PUSH1 0x1 PUSH1 0xA0 SHL SUB NOT AND SWAP1 SSTORE ADD SWAP1 SSTORE POP POP JUMP JUMPDEST DUP1 PUSH2 0xBB0 DUP2 PUSH2 0x2D2A JUMP JUMPDEST SWAP2 POP POP PUSH2 0xA9A JUMP JUMPDEST POP POP JUMP JUMPDEST CALLER PUSH1 0x0 DUP2 DUP2 MSTORE PUSH1 0x6 PUSH1 0x20 SWAP1 DUP2 MSTORE PUSH1 0x40 DUP1 DUP4 KECCAK256 PUSH1 0x1 PUSH1 0x1 PUSH1 0xA0 SHL SUB DUP8 AND DUP5 MSTORE SWAP1 SWAP2 MSTORE DUP2 KECCAK256 SLOAD SWAP1 SWAP2 PUSH2 0x876 SWAP2 DUP6 SWAP1 PUSH2 0xBF3 SWAP1 DUP7 SWAP1 PUSH2 0x2C92 JUMP JUMPDEST PUSH2 0x15FB JUMP JUMPDEST PUSH1 0x0 SLOAD PUSH1 0x1 PUSH1 0x1 PUSH1 0xA0 SHL SUB AND CALLER EQ PUSH2 0xC22 JUMPI PUSH1 0x40 MLOAD PUSH3 0x461BCD PUSH1 0xE5 SHL DUP2 MSTORE PUSH1 0x4 ADD PUSH2 0x7EA SWAP1 PUSH2 0x2BEC JUMP JUMPDEST PUSH1 0x1 PUSH1 0x1 PUSH1 0xA0 SHL SUB AND PUSH1 0x0 SWAP1 DUP2 MSTORE PUSH1 0x9 PUSH1 0x20 MSTORE PUSH1 0x40 SWAP1 KECCAK256 DUP1 SLOAD PUSH1 0xFF NOT AND PUSH1 0x1 OR SWAP1 SSTORE JUMP JUMPDEST PUSH1 0x0 PUSH2 0xC5E PUSH8 0x16345785D8A0000 PUSH4 0x3B9ACA00 PUSH2 0x2CF4 JUMP JUMPDEST DUP4 GT ISZERO PUSH2 0xCAD JUMPI PUSH1 0x40 MLOAD PUSH3 0x461BCD PUSH1 0xE5 SHL DUP2 MSTORE PUSH1 0x20 PUSH1 0x4 DUP3 ADD MSTORE PUSH1 0x1F PUSH1 0x24 DUP3 ADD MSTORE PUSH32 0x416D6F756E74206D757374206265206C657373207468616E20737570706C7900 PUSH1 0x44 DUP3 ADD MSTORE PUSH1 0x64 ADD PUSH2 0x7EA JUMP JUMPDEST DUP2 PUSH2 0xCCB JUMPI PUSH1 0x0 PUSH2 0xCBD DUP5 PUSH2 0x156A JUMP JUMPDEST POP SWAP3 SWAP5 POP PUSH2 0x87A SWAP4 POP POP POP POP JUMP JUMPDEST PUSH1 0x0 PUSH2 0xCD6 DUP5 PUSH2 0x156A JUMP JUMPDEST POP SWAP2 SWAP5 POP PUSH2 0x87A SWAP4 POP POP POP POP JUMP JUMPDEST PUSH1 0x0 SLOAD PUSH1 0x1 PUSH1 0x1 PUSH1 0xA0 SHL SUB AND CALLER EQ PUSH2 0xD0E JUMPI PUSH1 0x40 MLOAD PUSH3 0x461BCD PUSH1 0xE5 SHL DUP2 MSTORE PUSH1 0x4 ADD PUSH2 0x7EA SWAP1 PUSH2 0x2BEC JUMP JUMPDEST PUSH1 0x1 PUSH1 0x1 PUSH1 0xA0 SHL SUB DUP2 AND PUSH1 0x0 SWAP1 DUP2 MSTORE PUSH1 0x7 PUSH1 0x20 MSTORE PUSH1 0x40 SWAP1 KECCAK256 SLOAD PUSH1 0xFF AND ISZERO PUSH2 0xD77 JUMPI PUSH1 0x40 MLOAD PUSH3 0x461BCD PUSH1 0xE5 SHL DUP2 MSTORE PUSH1 0x20 PUSH1 0x4 DUP3 ADD MSTORE PUSH1 0x1B PUSH1 0x24 DUP3 ADD MSTORE PUSH32 0x4163636F756E7420697320616C7265616479206578636C756465640000000000 PUSH1 0x44 DUP3 ADD MSTORE PUSH1 0x64 ADD PUSH2 0x7EA JUMP JUMPDEST PUSH1 0x1 PUSH1 0x1 PUSH1 0xA0 SHL SUB DUP2 AND PUSH1 0x0 SWAP1 DUP2 MSTORE PUSH1 0x4 PUSH1 0x20 MSTORE PUSH1 0x40 SWAP1 KECCAK256 SLOAD ISZERO PUSH2 0xDD1 JUMPI PUSH1 0x1 PUSH1 0x1 PUSH1 0xA0 SHL SUB DUP2 AND PUSH1 0x0 SWAP1 DUP2 MSTORE PUSH1 0x4 PUSH1 0x20 MSTORE PUSH1 0x40 SWAP1 KECCAK256 SLOAD PUSH2 0xDB7 SWAP1 PUSH2 0x981 JUMP JUMPDEST PUSH1 0x1 PUSH1 0x1 PUSH1 0xA0 SHL SUB DUP3 AND PUSH1 0x0 SWAP1 DUP2 MSTORE PUSH1 0x5 PUSH1 0x20 MSTORE PUSH1 0x40 SWAP1 KECCAK256 SSTORE JUMPDEST PUSH1 0x1 PUSH1 0x1 PUSH1 0xA0 SHL SUB AND PUSH1 0x0 DUP2 DUP2 MSTORE PUSH1 0x7 PUSH1 0x20 MSTORE PUSH1 0x40 DUP2 KECCAK256 DUP1 SLOAD PUSH1 0xFF NOT AND PUSH1 0x1 SWAP1 DUP2 OR SWAP1 SWAP2 SSTORE PUSH1 0x8 DUP1 SLOAD SWAP2 DUP3 ADD DUP2 SSTORE SWAP1 SWAP2 MSTORE PUSH32 0xF3F7A9FE364FAAB93B216DA50A3214154F22A0A2B415B23A84C8169E8B636EE3 ADD DUP1 SLOAD PUSH1 0x1 PUSH1 0x1 PUSH1 0xA0 SHL SUB NOT AND SWAP1 SWAP2 OR SWAP1 SSTORE JUMP JUMPDEST PUSH1 0x1 PUSH1 0x1 PUSH1 0xA0 SHL SUB DUP2 AND PUSH1 0x0 SWAP1 DUP2 MSTORE PUSH1 0x7 PUSH1 0x20 MSTORE PUSH1 0x40 DUP2 KECCAK256 SLOAD PUSH1 0xFF AND ISZERO PUSH2 0xE74 JUMPI POP PUSH1 0x1 PUSH1 0x1 PUSH1 0xA0 SHL SUB AND PUSH1 0x0 SWAP1 DUP2 MSTORE PUSH1 0x5 PUSH1 0x20 MSTORE PUSH1 0x40 SWAP1 KECCAK256 SLOAD SWAP1 JUMP JUMPDEST PUSH1 0x1 PUSH1 0x1 PUSH1 0xA0 SHL SUB DUP3 AND PUSH1 0x0 SWAP1 DUP2 MSTORE PUSH1 0x4 PUSH1 0x20 MSTORE PUSH1 0x40 SWAP1 KECCAK256 SLOAD PUSH2 0x87A SWAP1 PUSH2 0x981 JUMP JUMPDEST PUSH1 0x0 SLOAD PUSH1 0x1 PUSH1 0x1 PUSH1 0xA0 SHL SUB AND CALLER EQ PUSH2 0xEC0 JUMPI PUSH1 0x40 MLOAD PUSH3 0x461BCD PUSH1 0xE5 SHL DUP2 MSTORE PUSH1 0x4 ADD PUSH2 0x7EA SWAP1 PUSH2 0x2BEC JUMP JUMPDEST PUSH2 0xECA PUSH1 0x0 PUSH2 0x21AB JUMP JUMPDEST JUMP JUMPDEST CALLER PUSH1 0x0 SWAP1 DUP2 MSTORE PUSH1 0x6 PUSH1 0x20 SWAP1 DUP2 MSTORE PUSH1 0x40 DUP1 DUP4 KECCAK256 PUSH1 0x1 PUSH1 0x1 PUSH1 0xA0 SHL SUB DUP7 AND DUP5 MSTORE SWAP1 SWAP2 MSTORE DUP2 KECCAK256 SLOAD DUP3 DUP2 LT ISZERO PUSH2 0xF4E JUMPI PUSH1 0x40 MLOAD PUSH3 0x461BCD PUSH1 0xE5 SHL DUP2 MSTORE PUSH1 0x20 PUSH1 0x4 DUP3 ADD MSTORE PUSH1 0x25 PUSH1 0x24 DUP3 ADD MSTORE PUSH32 0x45524332303A2064656372656173656420616C6C6F77616E63652062656C6F77 PUSH1 0x44 DUP3 ADD MSTORE PUSH5 0x207A65726F PUSH1 0xD8 SHL PUSH1 0x64 DUP3 ADD MSTORE PUSH1 0x84 ADD PUSH2 0x7EA JUMP JUMPDEST PUSH2 0xF5B CALLER DUP6 DUP6 DUP5 SUB PUSH2 0x15FB JUMP JUMPDEST POP PUSH1 0x1 SWAP4 SWAP3 POP POP POP JUMP JUMPDEST PUSH1 0x0 PUSH2 0x876 CALLER DUP5 DUP5 PUSH2 0x1720 JUMP JUMPDEST PUSH1 0xE SLOAD PUSH1 0xFF AND ISZERO PUSH2 0xF95 JUMPI PUSH1 0x40 MLOAD PUSH3 0x461BCD PUSH1 0xE5 SHL DUP2 MSTORE PUSH1 0x4 ADD PUSH2 0x7EA SWAP1 PUSH2 0x2BA4 JUMP JUMPDEST PUSH3 0x15180 PUSH1 0xF SLOAD TIMESTAMP PUSH2 0xFA7 SWAP2 SWAP1 PUSH2 0x2D13 JUMP JUMPDEST GT PUSH2 0x1000 JUMPI PUSH1 0x40 MLOAD PUSH3 0x461BCD PUSH1 0xE5 SHL DUP2 MSTORE PUSH1 0x20 PUSH1 0x4 DUP3 ADD MSTORE PUSH1 0x24 DUP1 DUP3 ADD MSTORE PUSH32 0x5461782063616E206265207265766572746564206F6E6C792061667465722032 PUSH1 0x44 DUP3 ADD MSTORE PUSH4 0x34687273 PUSH1 0xE0 SHL PUSH1 0x64 DUP3 ADD MSTORE PUSH1 0x84 ADD PUSH2 0x7EA JUMP JUMPDEST PUSH1 0xE SLOAD PUSH2 0x100 SWAP1 DIV PUSH1 0xFF AND ISZERO PUSH2 0x1051 JUMPI PUSH1 0x40 MLOAD PUSH3 0x461BCD PUSH1 0xE5 SHL DUP2 MSTORE PUSH1 0x20 PUSH1 0x4 DUP3 ADD MSTORE PUSH1 0x16 PUSH1 0x24 DUP3 ADD MSTORE PUSH22 0x54617820686164206265656E20526576657274656421 PUSH1 0x50 SHL PUSH1 0x44 DUP3 ADD MSTORE PUSH1 0x64 ADD PUSH2 0x7EA JUMP JUMPDEST PUSH1 0x0 DUP1 SLOAD PUSH4 0xFFFFFFFF PUSH1 0xA0 SHL NOT AND PUSH1 0x5 PUSH1 0xA1 SHL OR SWAP1 SSTORE PUSH1 0x1 DUP1 SLOAD PUSH16 0xFFFFFFFFFFFFFFFFFFFFFFFFFFFFFFFF NOT AND PUSH13 0x1400000032000000140000000A OR SWAP1 SSTORE PUSH2 0x10A5 PUSH8 0x16345785D8A0000 PUSH4 0x3B9ACA00 PUSH2 0x2CF4 JUMP JUMPDEST PUSH1 0xD SSTORE PUSH1 0xE DUP1 SLOAD PUSH2 0xFF00 NOT AND PUSH2 0x100 OR SWAP1 SSTORE JUMP JUMPDEST PUSH1 0x0 SLOAD PUSH1 0x1 PUSH1 0x1 PUSH1 0xA0 SHL SUB AND CALLER EQ PUSH2 0x10E3 JUMPI PUSH1 0x40 MLOAD PUSH3 0x461BCD PUSH1 0xE5 SHL DUP2 MSTORE PUSH1 0x4 ADD PUSH2 0x7EA SWAP1 PUSH2 0x2BEC JUMP JUMPDEST PUSH1 0x1 PUSH1 0x1 PUSH1 0xA0 SHL SUB DUP3 AND PUSH1 0x0 SWAP1 DUP2 MSTORE PUSH1 0xA PUSH1 0x20 MSTORE PUSH1 0x40 SWAP1 KECCAK256 DUP1 SLOAD PUSH1 0xFF NOT AND DUP3 ISZERO DUP1 ISZERO SWAP2 SWAP1 SWAP2 OR SWAP1 SWAP2 SSTORE PUSH2 0x1126 JUMPI PUSH1 0x15 DUP1 SLOAD PUSH1 0xFF NOT AND PUSH1 0x1 OR SWAP1 SSTORE PUSH2 0xBB8 DUP3 PUSH2 0xCE4 JUMP JUMPDEST PUSH1 0x15 DUP1 SLOAD PUSH1 0xFF NOT AND SWAP1 SSTORE PUSH2 0xBB8 DUP3 PUSH2 0xA05 JUMP JUMPDEST PUSH1 0x0 SLOAD PUSH1 0x1 PUSH1 0x1 PUSH1 0xA0 SHL SUB AND CALLER EQ PUSH2 0x1163 JUMPI PUSH1 0x40 MLOAD PUSH3 0x461BCD PUSH1 0xE5 SHL DUP2 MSTORE PUSH1 0x4 ADD PUSH2 0x7EA SWAP1 PUSH2 0x2BEC JUMP JUMPDEST PUSH1 0x1 PUSH1 0x1 PUSH1 0xA0 SHL SUB DUP3 AND ISZERO DUP1 ISZERO SWAP1 PUSH2 0x1183 JUMPI POP PUSH1 0x1 PUSH1 0x1 PUSH1 0xA0 SHL SUB DUP2 AND ISZERO ISZERO JUMPDEST PUSH2 0x11DB JUMPI PUSH1 0x40 MLOAD PUSH3 0x461BCD PUSH1 0xE5 SHL DUP2 MSTORE PUSH1 0x20 PUSH1 0x4 DUP3 ADD MSTORE PUSH1 0x23 PUSH1 0x24 DUP3 ADD MSTORE PUSH32 0x5461782057616C6C6574732061737369676E6564207A65726F20616464726573 PUSH1 0x44 DUP3 ADD MSTORE PUSH3 0x732021 PUSH1 0xE8 SHL PUSH1 0x64 DUP3 ADD MSTORE PUSH1 0x84 ADD PUSH2 0x7EA JUMP JUMPDEST PUSH1 0xA DUP8 PUSH4 0xFFFFFFFF AND GT ISZERO PUSH2 0x1232 JUMPI PUSH1 0x40 MLOAD PUSH3 0x461BCD PUSH1 0xE5 SHL DUP2 MSTORE PUSH1 0x20 PUSH1 0x4 DUP3 ADD MSTORE PUSH1 0x1F PUSH1 0x24 DUP3 ADD MSTORE PUSH32 0x546F74616C205461782050657263656E74204578636565647320313025202100 PUSH1 0x44 DUP3 ADD MSTORE PUSH1 0x64 ADD PUSH2 0x7EA JUMP JUMPDEST DUP3 DUP5 PUSH2 0x123E DUP8 DUP10 PUSH2 0x2CAA JUMP JUMPDEST PUSH2 0x1248 SWAP2 SWAP1 PUSH2 0x2CAA JUMP JUMPDEST PUSH2 0x1252 SWAP2 SWAP1 PUSH2 0x2CAA JUMP JUMPDEST PUSH4 0xFFFFFFFF AND PUSH1 0x64 EQ PUSH2 0x12B9 JUMPI PUSH1 0x40 MLOAD PUSH3 0x461BCD PUSH1 0xE5 SHL DUP2 MSTORE PUSH1 0x20 PUSH1 0x4 DUP3 ADD MSTORE PUSH1 0x29 PUSH1 0x24 DUP3 ADD MSTORE PUSH32 0x53706C69742050657263656E746167657320646F6573206E6F742073756D2075 PUSH1 0x44 DUP3 ADD MSTORE PUSH9 0x70746F203130302021 PUSH1 0xB8 SHL PUSH1 0x64 DUP3 ADD MSTORE PUSH1 0x84 ADD PUSH2 0x7EA JUMP JUMPDEST PUSH1 0x0 DUP1 SLOAD PUSH4 0xFFFFFFFF SWAP9 DUP10 AND PUSH1 0x1 PUSH1 0xA0 SHL MUL PUSH4 0xFFFFFFFF PUSH1 0xA0 SHL NOT SWAP1 SWAP2 AND OR SWAP1 SSTORE PUSH1 0x1 DUP1 SLOAD SWAP4 DUP9 AND PUSH1 0x1 PUSH1 0x60 SHL MUL PUSH4 0xFFFFFFFF PUSH1 0x60 SHL NOT SWAP6 DUP10 AND PUSH1 0x1 PUSH1 0x40 SHL MUL SWAP6 SWAP1 SWAP6 AND PUSH16 0xFFFFFFFFFFFFFFFF0000000000000000 NOT SWAP7 DUP10 AND PUSH5 0x100000000 MUL PUSH8 0xFFFFFFFFFFFFFFFF NOT SWAP1 SWAP6 AND SWAP8 SWAP1 SWAP9 AND SWAP7 SWAP1 SWAP7 OR SWAP3 SWAP1 SWAP3 OR SWAP4 SWAP1 SWAP4 AND SWAP5 SWAP1 SWAP5 OR OR SWAP1 SWAP2 SSTORE PUSH1 0x2 DUP1 SLOAD PUSH1 0x1 PUSH1 0x1 PUSH1 0xA0 SHL SUB SWAP3 DUP4 AND PUSH1 0x1 PUSH1 0x1 PUSH1 0xA0 SHL SUB NOT SWAP2 DUP3 AND OR SWAP1 SWAP2 SSTORE PUSH1 0x3 DUP1 SLOAD SWAP4 SWAP1 SWAP3 AND SWAP3 AND SWAP2 SWAP1 SWAP2 OR SWAP1 SSTORE JUMP JUMPDEST PUSH1 0x0 SLOAD PUSH1 0x1 PUSH1 0x1 PUSH1 0xA0 SHL SUB AND CALLER EQ PUSH2 0x1399 JUMPI PUSH1 0x40 MLOAD PUSH3 0x461BCD PUSH1 0xE5 SHL DUP2 MSTORE PUSH1 0x4 ADD PUSH2 0x7EA SWAP1 PUSH2 0x2BEC JUMP JUMPDEST PUSH1 0x1 PUSH1 0x1 PUSH1 0xA0 SHL SUB SWAP2 SWAP1 SWAP2 AND PUSH1 0x0 SWAP1 DUP2 MSTORE PUSH1 0xB PUSH1 0x20 MSTORE PUSH1 0x40 SWAP1 KECCAK256 DUP1 SLOAD PUSH1 0xFF NOT AND SWAP2 ISZERO ISZERO SWAP2 SWAP1 SWAP2 OR SWAP1 SSTORE JUMP JUMPDEST PUSH1 0x0 SLOAD PUSH1 0x1 PUSH1 0x1 PUSH1 0xA0 SHL SUB AND CALLER EQ PUSH2 0x13EE JUMPI PUSH1 0x40 MLOAD PUSH3 0x461BCD PUSH1 0xE5 SHL DUP2 MSTORE PUSH1 0x4 ADD PUSH2 0x7EA SWAP1 PUSH2 0x2BEC JUMP JUMPDEST PUSH1 0x1 PUSH1 0x1 PUSH1 0xA0 SHL SUB AND PUSH1 0x0 SWAP1 DUP2 MSTORE PUSH1 0x9 PUSH1 0x20 MSTORE PUSH1 0x40 SWAP1 KECCAK256 DUP1 SLOAD PUSH1 0xFF NOT AND SWAP1 SSTORE JUMP JUMPDEST PUSH1 0x0 SLOAD PUSH1 0x1 PUSH1 0x1 PUSH1 0xA0 SHL SUB AND CALLER EQ PUSH2 0x1439 JUMPI PUSH1 0x40 MLOAD PUSH3 0x461BCD PUSH1 0xE5 SHL DUP2 MSTORE PUSH1 0x4 ADD PUSH2 0x7EA SWAP1 PUSH2 0x2BEC JUMP JUMPDEST PUSH2 0x3E8 PUSH2 0x1452 PUSH8 0x16345785D8A0000 PUSH4 0x3B9ACA00 PUSH2 0x2CF4 JUMP JUMPDEST PUSH2 0x145C SWAP2 SWAP1 PUSH2 0x2CD2 JUMP JUMPDEST DUP2 LT ISZERO PUSH2 0x14CA JUMPI PUSH1 0x40 MLOAD PUSH3 0x461BCD PUSH1 0xE5 SHL DUP2 MSTORE PUSH1 0x20 PUSH1 0x4 DUP3 ADD MSTORE PUSH1 0x36 PUSH1 0x24 DUP3 ADD MSTORE PUSH32 0x4D6178205472616E73616374696F6E20616D74206D7573742062652061626F76 PUSH1 0x44 DUP3 ADD MSTORE PUSH22 0x6520302E3125206F6620746F74616C20737570706C79 PUSH1 0x50 SHL PUSH1 0x64 DUP3 ADD MSTORE PUSH1 0x84 ADD PUSH2 0x7EA JUMP JUMPDEST PUSH1 0xC SSTORE JUMP JUMPDEST PUSH1 0x0 SLOAD PUSH1 0x1 PUSH1 0x1 PUSH1 0xA0 SHL SUB AND CALLER EQ PUSH2 0x14F9 JUMPI PUSH1 0x40 MLOAD PUSH3 0x461BCD PUSH1 0xE5 SHL DUP2 MSTORE PUSH1 0x4 ADD PUSH2 0x7EA SWAP1 PUSH2 0x2BEC JUMP JUMPDEST PUSH1 0x1 PUSH1 0x1 PUSH1 0xA0 SHL SUB DUP2 AND PUSH2 0x155E JUMPI PUSH1 0x40 MLOAD PUSH3 0x461BCD PUSH1 0xE5 SHL DUP2 MSTORE PUSH1 0x20 PUSH1 0x4 DUP3 ADD MSTORE PUSH1 0x26 PUSH1 0x24 DUP3 ADD MSTORE PUSH32 0x4F776E61626C653A206E6577206F776E657220697320746865207A65726F2061 PUSH1 0x44 DUP3 ADD MSTORE PUSH6 0x646472657373 PUSH1 0xD0 SHL PUSH1 0x64 DUP3 ADD MSTORE PUSH1 0x84 ADD PUSH2 0x7EA JUMP JUMPDEST PUSH2 0x1567 DUP2 PUSH2 0x21AB JUMP JUMPDEST POP JUMP JUMPDEST PUSH1 0x0 DUP1 PUSH2 0x1598 PUSH1 0x40 MLOAD DUP1 PUSH1 0x80 ADD PUSH1 0x40 MSTORE DUP1 PUSH1 0x0 DUP2 MSTORE PUSH1 0x20 ADD PUSH1 0x0 DUP2 MSTORE PUSH1 0x20 ADD PUSH1 0x0 DUP2 MSTORE PUSH1 0x20 ADD PUSH1 0x0 DUP2 MSTORE POP SWAP1 JUMP JUMPDEST PUSH1 0x0 PUSH2 0x15C5 PUSH1 0x40 MLOAD DUP1 PUSH1 0x80 ADD PUSH1 0x40 MSTORE DUP1 PUSH1 0x0 DUP2 MSTORE PUSH1 0x20 ADD PUSH1 0x0 DUP2 MSTORE PUSH1 0x20 ADD PUSH1 0x0 DUP2 MSTORE PUSH1 0x20 ADD PUSH1 0x0 DUP2 MSTORE POP SWAP1 JUMP JUMPDEST PUSH2 0x15CE DUP7 PUSH2 0x21FB JUMP JUMPDEST SWAP1 SWAP3 POP SWAP1 POP PUSH1 0x0 PUSH2 0x15DD PUSH2 0x2188 JUMP JUMPDEST SWAP1 POP PUSH2 0x15EA DUP8 DUP4 DUP4 PUSH2 0x23A9 JUMP JUMPDEST SWAP2 SWAP8 POP SWAP6 POP SWAP4 POP POP SWAP2 SWAP4 SWAP6 SWAP1 SWAP3 SWAP5 POP JUMP JUMPDEST PUSH1 0x1 PUSH1 0x1 PUSH1 0xA0 SHL SUB DUP4 AND PUSH2 0x165D JUMPI PUSH1 0x40 MLOAD PUSH3 0x461BCD PUSH1 0xE5 SHL DUP2 MSTORE PUSH1 0x20 PUSH1 0x4 DUP3 ADD MSTORE PUSH1 0x24 DUP1 DUP3 ADD MSTORE PUSH32 0x45524332303A20617070726F76652066726F6D20746865207A65726F20616464 PUSH1 0x44 DUP3 ADD MSTORE PUSH4 0x72657373 PUSH1 0xE0 SHL PUSH1 0x64 DUP3 ADD MSTORE PUSH1 0x84 ADD PUSH2 0x7EA JUMP JUMPDEST PUSH1 0x1 PUSH1 0x1 PUSH1 0xA0 SHL SUB DUP3 AND PUSH2 0x16BE JUMPI PUSH1 0x40 MLOAD PUSH3 0x461BCD PUSH1 0xE5 SHL DUP2 MSTORE PUSH1 0x20 PUSH1 0x4 DUP3 ADD MSTORE PUSH1 0x22 PUSH1 0x24 DUP3 ADD MSTORE PUSH32 0x45524332303A20617070726F766520746F20746865207A65726F206164647265 PUSH1 0x44 DUP3 ADD MSTORE PUSH2 0x7373 PUSH1 0xF0 SHL PUSH1 0x64 DUP3 ADD MSTORE PUSH1 0x84 ADD PUSH2 0x7EA JUMP JUMPDEST PUSH1 0x1 PUSH1 0x1 PUSH1 0xA0 SHL SUB DUP4 DUP2 AND PUSH1 0x0 DUP2 DUP2 MSTORE PUSH1 0x6 PUSH1 0x20 SWAP1 DUP2 MSTORE PUSH1 0x40 DUP1 DUP4 KECCAK256 SWAP5 DUP8 AND DUP1 DUP5 MSTORE SWAP5 DUP3 MSTORE SWAP2 DUP3 SWAP1 KECCAK256 DUP6 SWAP1 SSTORE SWAP1 MLOAD DUP5 DUP2 MSTORE PUSH32 0x8C5BE1E5EBEC7D5BD14F71427D1E84F3DD0314C0F7B2291E5B200AC8C7C3B925 SWAP2 ADD JUMPDEST PUSH1 0x40 MLOAD DUP1 SWAP2 SUB SWAP1 LOG3 POP POP POP JUMP JUMPDEST PUSH1 0x1 PUSH1 0x1 PUSH1 0xA0 SHL SUB DUP4 AND PUSH2 0x1784 JUMPI PUSH1 0x40 MLOAD PUSH3 0x461BCD PUSH1 0xE5 SHL DUP2 MSTORE PUSH1 0x20 PUSH1 0x4 DUP3 ADD MSTORE PUSH1 0x25 PUSH1 0x24 DUP3 ADD MSTORE PUSH32 0x45524332303A207472616E736665722066726F6D20746865207A65726F206164 PUSH1 0x44 DUP3 ADD MSTORE PUSH5 0x6472657373 PUSH1 0xD8 SHL PUSH1 0x64 DUP3 ADD MSTORE PUSH1 0x84 ADD PUSH2 0x7EA JUMP JUMPDEST PUSH1 0x1 PUSH1 0x1 PUSH1 0xA0 SHL SUB DUP3 AND PUSH2 0x17E6 JUMPI PUSH1 0x40 MLOAD PUSH3 0x461BCD PUSH1 0xE5 SHL DUP2 MSTORE PUSH1 0x20 PUSH1 0x4 DUP3 ADD MSTORE PUSH1 0x23 PUSH1 0x24 DUP3 ADD MSTORE PUSH32 0x45524332303A207472616E7366657220746F20746865207A65726F2061646472 PUSH1 0x44 DUP3 ADD MSTORE PUSH3 0x657373 PUSH1 0xE8 SHL PUSH1 0x64 DUP3 ADD MSTORE PUSH1 0x84 ADD PUSH2 0x7EA JUMP JUMPDEST PUSH1 0xE SLOAD PUSH1 0xFF AND ISZERO DUP1 PUSH2 0x17FF JUMPI POP PUSH2 0x17FD DUP4 DUP4 PUSH2 0x24AB JUMP JUMPDEST ISZERO JUMPDEST PUSH2 0x181B JUMPI PUSH1 0x40 MLOAD PUSH3 0x461BCD PUSH1 0xE5 SHL DUP2 MSTORE PUSH1 0x4 ADD PUSH2 0x7EA SWAP1 PUSH2 0x2BA4 JUMP JUMPDEST PUSH1 0x15 SLOAD PUSH2 0x100 SWAP1 DIV PUSH1 0xFF AND DUP1 ISZERO PUSH2 0x183A JUMPI POP PUSH1 0x1 PUSH1 0x1 PUSH1 0xA0 SHL SUB DUP4 AND ADDRESS EQ JUMPDEST ISZERO PUSH2 0x18D5 JUMPI PUSH1 0x1 PUSH1 0x1 PUSH1 0xA0 SHL SUB DUP4 AND PUSH1 0x0 SWAP1 DUP2 MSTORE PUSH1 0x5 PUSH1 0x20 MSTORE PUSH1 0x40 SWAP1 KECCAK256 SLOAD PUSH2 0x1863 SWAP1 DUP3 SWAP1 PUSH2 0x2D13 JUMP JUMPDEST PUSH1 0x1 PUSH1 0x1 PUSH1 0xA0 SHL SUB DUP1 DUP6 AND PUSH1 0x0 SWAP1 DUP2 MSTORE PUSH1 0x5 PUSH1 0x20 MSTORE PUSH1 0x40 DUP1 DUP3 KECCAK256 SWAP4 SWAP1 SWAP4 SSTORE SWAP1 DUP5 AND DUP2 MSTORE KECCAK256 SLOAD PUSH2 0x1893 SWAP1 DUP3 SWAP1 PUSH2 0x2C92 JUMP JUMPDEST PUSH1 0x1 PUSH1 0x1 PUSH1 0xA0 SHL SUB DUP1 DUP5 AND PUSH1 0x0 DUP2 DUP2 MSTORE PUSH1 0x5 PUSH1 0x20 MSTORE PUSH1 0x40 SWAP1 DUP2 SWAP1 KECCAK256 SWAP4 SWAP1 SWAP4 SSTORE SWAP2 MLOAD SWAP1 DUP6 AND SWAP1 PUSH1 0x0 DUP1 MLOAD PUSH1 0x20 PUSH2 0x2D9D DUP4 CODECOPY DUP2 MLOAD SWAP2 MSTORE SWAP1 PUSH2 0x1713 SWAP1 DUP6 DUP2 MSTORE PUSH1 0x20 ADD SWAP1 JUMP JUMPDEST PUSH2 0x18DF DUP4 DUP4 PUSH2 0x24AB JUMP JUMPDEST ISZERO PUSH2 0x1A73 JUMPI PUSH1 0xC SLOAD DUP2 GT ISZERO PUSH2 0x1946 JUMPI PUSH1 0x40 MLOAD PUSH3 0x461BCD PUSH1 0xE5 SHL DUP2 MSTORE PUSH1 0x20 PUSH1 0x4 DUP3 ADD MSTORE PUSH1 0x27 PUSH1 0x24 DUP3 ADD MSTORE PUSH32 0x5472616E7366657220616D6F756E74206578636565647320746865206D617854 PUSH1 0x44 DUP3 ADD MSTORE PUSH7 0x1E105B5BDD5B9D PUSH1 0xCA SHL PUSH1 0x64 DUP3 ADD MSTORE PUSH1 0x84 ADD PUSH2 0x7EA JUMP JUMPDEST PUSH1 0x1 PUSH1 0x1 PUSH1 0xA0 SHL SUB DUP4 AND PUSH1 0x0 SWAP1 DUP2 MSTORE PUSH1 0xB PUSH1 0x20 MSTORE PUSH1 0x40 SWAP1 KECCAK256 SLOAD PUSH1 0xFF AND ISZERO DUP1 PUSH2 0x1987 JUMPI POP PUSH1 0x1 PUSH1 0x1 PUSH1 0xA0 SHL SUB DUP3 AND PUSH1 0x0 SWAP1 DUP2 MSTORE PUSH1 0xB PUSH1 0x20 MSTORE PUSH1 0x40 SWAP1 KECCAK256 SLOAD PUSH1 0xFF AND ISZERO JUMPDEST PUSH2 0x19C5 JUMPI PUSH1 0x40 MLOAD PUSH3 0x461BCD PUSH1 0xE5 SHL DUP2 MSTORE PUSH1 0x20 PUSH1 0x4 DUP3 ADD MSTORE PUSH1 0xF PUSH1 0x24 DUP3 ADD MSTORE PUSH15 0x14DB9A5C195C8814995A9958DD1959 PUSH1 0x8A SHL PUSH1 0x44 DUP3 ADD MSTORE PUSH1 0x64 ADD PUSH2 0x7EA JUMP JUMPDEST PUSH1 0xE SLOAD PUSH2 0x100 SWAP1 DIV PUSH1 0xFF AND ISZERO DUP1 ISZERO PUSH2 0x19F6 JUMPI POP PUSH1 0x1 PUSH1 0x1 PUSH1 0xA0 SHL SUB DUP3 AND PUSH1 0x0 SWAP1 DUP2 MSTORE PUSH1 0xA PUSH1 0x20 MSTORE PUSH1 0x40 SWAP1 KECCAK256 SLOAD PUSH1 0xFF AND ISZERO JUMPDEST ISZERO PUSH2 0x1A73 JUMPI PUSH1 0xD SLOAD DUP2 PUSH2 0x1A08 DUP5 PUSH2 0xE37 JUMP JUMPDEST PUSH2 0x1A12 SWAP2 SWAP1 PUSH2 0x2C92 JUMP JUMPDEST GT ISZERO PUSH2 0x1A73 JUMPI PUSH1 0x40 MLOAD PUSH3 0x461BCD PUSH1 0xE5 SHL DUP2 MSTORE PUSH1 0x20 PUSH1 0x4 DUP3 ADD MSTORE PUSH1 0x2A PUSH1 0x24 DUP3 ADD MSTORE PUSH32 0x52656365697665722061646472657373206578636565647320746865206D6178 PUSH1 0x44 DUP3 ADD MSTORE PUSH10 0x121BDB19105B5BDD5B9D PUSH1 0xB2 SHL PUSH1 0x64 DUP3 ADD MSTORE PUSH1 0x84 ADD PUSH2 0x7EA JUMP JUMPDEST PUSH1 0x1 PUSH1 0x1 PUSH1 0xA0 SHL SUB DUP4 AND PUSH1 0x0 SWAP1 DUP2 MSTORE PUSH1 0x9 PUSH1 0x20 MSTORE PUSH1 0x40 DUP2 KECCAK256 SLOAD PUSH1 0xFF AND DUP1 PUSH2 0x1AB2 JUMPI POP PUSH1 0x1 PUSH1 0x1 PUSH1 0xA0 SHL SUB DUP4 AND PUSH1 0x0 SWAP1 DUP2 MSTORE PUSH1 0x9 PUSH1 0x20 MSTORE PUSH1 0x40 SWAP1 KECCAK256 SLOAD PUSH1 0xFF AND JUMPDEST ISZERO PUSH2 0x1ADC JUMPI POP PUSH1 0x0 DUP1 SLOAD PUSH4 0xFFFFFFFF PUSH1 0xA0 SHL NOT DUP2 AND SWAP1 SWAP2 SSTORE PUSH1 0x1 PUSH1 0xA0 SHL SWAP1 DIV PUSH4 0xFFFFFFFF AND PUSH2 0x1B38 JUMP JUMPDEST PUSH1 0xE SLOAD PUSH2 0x100 SWAP1 DIV PUSH1 0xFF AND ISZERO DUP1 ISZERO PUSH2 0x1B0C JUMPI POP PUSH1 0x1 PUSH1 0x1 PUSH1 0xA0 SHL SUB DUP5 AND PUSH1 0x0 SWAP1 DUP2 MSTORE PUSH1 0xA PUSH1 0x20 MSTORE PUSH1 0x40 SWAP1 KECCAK256 SLOAD PUSH1 0xFF AND JUMPDEST ISZERO PUSH2 0x1B38 JUMPI POP PUSH1 0x0 DUP1 SLOAD PUSH4 0xFFFFFFFF PUSH1 0xA0 SHL NOT DUP2 AND PUSH1 0x5 PUSH1 0xA1 SHL OR SWAP1 SWAP2 SSTORE PUSH1 0x1 PUSH1 0xA0 SHL SWAP1 DIV PUSH4 0xFFFFFFFF AND JUMPDEST PUSH1 0x0 DUP1 PUSH1 0x0 DUP1 PUSH1 0x0 PUSH2 0x1B49 DUP8 PUSH2 0x156A JUMP JUMPDEST PUSH1 0x1 PUSH1 0x1 PUSH1 0xA0 SHL SUB DUP15 AND PUSH1 0x0 SWAP1 DUP2 MSTORE PUSH1 0x4 PUSH1 0x20 MSTORE PUSH1 0x40 SWAP1 KECCAK256 SLOAD SWAP5 SWAP10 POP SWAP3 SWAP8 POP SWAP1 SWAP6 POP SWAP4 POP SWAP2 POP PUSH2 0x1B7A SWAP1 DUP7 SWAP1 PUSH2 0x2D13 JUMP JUMPDEST PUSH1 0x1 PUSH1 0x1 PUSH1 0xA0 SHL SUB DUP1 DUP12 AND PUSH1 0x0 SWAP1 DUP2 MSTORE PUSH1 0x4 PUSH1 0x20 MSTORE PUSH1 0x40 DUP1 DUP3 KECCAK256 SWAP4 SWAP1 SWAP4 SSTORE SWAP1 DUP11 AND DUP2 MSTORE KECCAK256 SLOAD PUSH2 0x1BAA SWAP1 DUP6 SWAP1 PUSH2 0x2C92 JUMP JUMPDEST PUSH1 0x1 PUSH1 0x1 PUSH1 0xA0 SHL SUB DUP10 AND PUSH1 0x0 SWAP1 DUP2 MSTORE PUSH1 0x4 PUSH1 0x20 MSTORE PUSH1 0x40 DUP2 KECCAK256 SWAP2 SWAP1 SWAP2 SSTORE DUP4 MLOAD PUSH2 0xDEAD DUP3 MSTORE PUSH32 0x42C63635470F1FB1D6D4B6441C413CB435B1EBB6FEDD1896DD5E25D1399147DD DUP1 SLOAD SWAP2 SWAP3 SWAP1 SWAP2 PUSH2 0x1BFF SWAP1 DUP5 SWAP1 PUSH2 0x2C92 JUMP JUMPDEST SWAP1 SWAP2 SSTORE POP POP PUSH1 0x15 SLOAD PUSH2 0x100 SWAP1 DIV PUSH1 0xFF AND ISZERO DUP1 ISZERO PUSH2 0x1C35 JUMPI POP PUSH1 0x1 PUSH1 0x1 PUSH1 0xA0 SHL SUB DUP10 AND PUSH1 0x0 SWAP1 DUP2 MSTORE PUSH1 0xA PUSH1 0x20 MSTORE PUSH1 0x40 SWAP1 KECCAK256 SLOAD PUSH1 0xFF AND ISZERO JUMPDEST DUP1 ISZERO PUSH2 0x1C43 JUMPI POP PUSH1 0x15 SLOAD PUSH1 0xFF AND JUMPDEST ISZERO PUSH2 0x1CBE JUMPI DUP3 PUSH1 0x40 ADD MLOAD DUP4 PUSH1 0x20 ADD MLOAD PUSH2 0x1C5C SWAP2 SWAP1 PUSH2 0x2C92 JUMP JUMPDEST ADDRESS PUSH1 0x0 SWAP1 DUP2 MSTORE PUSH1 0x4 PUSH1 0x20 MSTORE PUSH1 0x40 DUP2 KECCAK256 DUP1 SLOAD SWAP1 SWAP2 SWAP1 PUSH2 0x1C7B SWAP1 DUP5 SWAP1 PUSH2 0x2C92 JUMP JUMPDEST SWAP1 SWAP2 SSTORE POP POP PUSH1 0x40 DUP4 ADD MLOAD PUSH1 0x20 DUP5 ADD MLOAD PUSH2 0x1C94 SWAP2 SWAP1 PUSH2 0x2C92 JUMP JUMPDEST ADDRESS PUSH1 0x0 SWAP1 DUP2 MSTORE PUSH1 0x5 PUSH1 0x20 MSTORE PUSH1 0x40 DUP2 KECCAK256 DUP1 SLOAD SWAP1 SWAP2 SWAP1 PUSH2 0x1CB3 SWAP1 DUP5 SWAP1 PUSH2 0x2C92 JUMP JUMPDEST SWAP1 SWAP2 SSTORE POP PUSH2 0x1DDC SWAP1 POP JUMP JUMPDEST PUSH1 0x20 DUP1 DUP5 ADD MLOAD PUSH1 0x2 SLOAD PUSH1 0x1 PUSH1 0x1 PUSH1 0xA0 SHL SUB AND PUSH1 0x0 SWAP1 DUP2 MSTORE PUSH1 0x4 SWAP1 SWAP3 MSTORE PUSH1 0x40 DUP3 KECCAK256 DUP1 SLOAD SWAP2 SWAP3 SWAP1 SWAP2 PUSH2 0x1CEF SWAP1 DUP5 SWAP1 PUSH2 0x2C92 JUMP JUMPDEST SWAP1 SWAP2 SSTORE POP POP PUSH1 0x40 DUP1 DUP5 ADD MLOAD PUSH1 0x3 SLOAD PUSH1 0x1 PUSH1 0x1 PUSH1 0xA0 SHL SUB AND PUSH1 0x0 SWAP1 DUP2 MSTORE PUSH1 0x4 PUSH1 0x20 MSTORE SWAP2 DUP3 KECCAK256 DUP1 SLOAD SWAP2 SWAP3 SWAP1 SWAP2 PUSH2 0x1D24 SWAP1 DUP5 SWAP1 PUSH2 0x2C92 JUMP JUMPDEST SWAP1 SWAP2 SSTORE POP POP PUSH1 0x2 SLOAD PUSH1 0x1 PUSH1 0x1 PUSH1 0xA0 SHL SUB AND PUSH1 0x0 SWAP1 DUP2 MSTORE PUSH1 0x7 PUSH1 0x20 MSTORE PUSH1 0x40 SWAP1 KECCAK256 SLOAD PUSH1 0xFF AND ISZERO PUSH2 0x1D83 JUMPI PUSH1 0x20 DUP1 DUP3 ADD MLOAD PUSH1 0x2 SLOAD PUSH1 0x1 PUSH1 0x1 PUSH1 0xA0 SHL SUB AND PUSH1 0x0 SWAP1 DUP2 MSTORE PUSH1 0x5 SWAP1 SWAP3 MSTORE PUSH1 0x40 DUP3 KECCAK256 DUP1 SLOAD SWAP2 SWAP3 SWAP1 SWAP2 PUSH2 0x1D7D SWAP1 DUP5 SWAP1 PUSH2 0x2C92 JUMP JUMPDEST SWAP1 SWAP2 SSTORE POP POP JUMPDEST PUSH1 0x3 SLOAD PUSH1 0x1 PUSH1 0x1 PUSH1 0xA0 SHL SUB AND PUSH1 0x0 SWAP1 DUP2 MSTORE PUSH1 0x7 PUSH1 0x20 MSTORE PUSH1 0x40 SWAP1 KECCAK256 SLOAD PUSH1 0xFF AND ISZERO PUSH2 0x1DDC JUMPI PUSH1 0x40 DUP1 DUP3 ADD MLOAD PUSH1 0x3 SLOAD PUSH1 0x1 PUSH1 0x1 PUSH1 0xA0 SHL SUB AND PUSH1 0x0 SWAP1 DUP2 MSTORE PUSH1 0x5 PUSH1 0x20 MSTORE SWAP2 DUP3 KECCAK256 DUP1 SLOAD SWAP2 SWAP3 SWAP1 SWAP2 PUSH2 0x1DD6 SWAP1 DUP5 SWAP1 PUSH2 0x2C92 JUMP JUMPDEST SWAP1 SWAP2 SSTORE POP POP JUMPDEST PUSH2 0x1E1B DUP4 PUSH1 0x60 ADD MLOAD DUP3 PUSH1 0x60 ADD MLOAD DUP4 PUSH1 0x40 ADD MLOAD DUP5 PUSH1 0x20 ADD MLOAD DUP6 PUSH1 0x0 ADD MLOAD PUSH2 0x1E02 SWAP2 SWAP1 PUSH2 0x2C92 JUMP JUMPDEST PUSH2 0x1E0C SWAP2 SWAP1 PUSH2 0x2C92 JUMP JUMPDEST PUSH2 0x1E16 SWAP2 SWAP1 PUSH2 0x2C92 JUMP JUMPDEST PUSH2 0x24F5 JUMP JUMPDEST PUSH1 0x1 PUSH1 0x1 PUSH1 0xA0 SHL SUB DUP10 AND PUSH1 0x0 SWAP1 DUP2 MSTORE PUSH1 0x7 PUSH1 0x20 MSTORE PUSH1 0x40 SWAP1 KECCAK256 SLOAD PUSH1 0xFF AND ISZERO PUSH2 0x1E7A JUMPI PUSH1 0x1 PUSH1 0x1 PUSH1 0xA0 SHL SUB DUP10 AND PUSH1 0x0 SWAP1 DUP2 MSTORE PUSH1 0x5 PUSH1 0x20 MSTORE PUSH1 0x40 SWAP1 KECCAK256 SLOAD PUSH2 0x1E60 SWAP1 DUP9 SWAP1 PUSH2 0x2D13 JUMP JUMPDEST PUSH1 0x1 PUSH1 0x1 PUSH1 0xA0 SHL SUB DUP11 AND PUSH1 0x0 SWAP1 DUP2 MSTORE PUSH1 0x5 PUSH1 0x20 MSTORE PUSH1 0x40 SWAP1 KECCAK256 SSTORE JUMPDEST PUSH1 0x1 PUSH1 0x1 PUSH1 0xA0 SHL SUB DUP9 AND PUSH1 0x0 SWAP1 DUP2 MSTORE PUSH1 0x7 PUSH1 0x20 MSTORE PUSH1 0x40 SWAP1 KECCAK256 SLOAD PUSH1 0xFF AND ISZERO PUSH2 0x1ED9 JUMPI PUSH1 0x1 PUSH1 0x1 PUSH1 0xA0 SHL SUB DUP9 AND PUSH1 0x0 SWAP1 DUP2 MSTORE PUSH1 0x5 PUSH1 0x20 MSTORE PUSH1 0x40 SWAP1 KECCAK256 SLOAD PUSH2 0x1EBF SWAP1 DUP4 SWAP1 PUSH2 0x2C92 JUMP JUMPDEST PUSH1 0x1 PUSH1 0x1 PUSH1 0xA0 SHL SUB DUP10 AND PUSH1 0x0 SWAP1 DUP2 MSTORE PUSH1 0x5 PUSH1 0x20 MSTORE PUSH1 0x40 SWAP1 KECCAK256 SSTORE JUMPDEST PUSH2 0xDEAD PUSH1 0x0 MSTORE PUSH1 0x7 PUSH1 0x20 MSTORE PUSH32 0xB0C2646E02AF70B79E3FE9277B98373379F54150E4E26B2B5650139F7A75A65D SLOAD PUSH1 0xFF AND ISZERO PUSH2 0x1F54 JUMPI DUP1 MLOAD PUSH2 0xDEAD PUSH1 0x0 SWAP1 DUP2 MSTORE PUSH1 0x5 PUSH1 0x20 MSTORE PUSH32 0x7D509C07F0D4EDCC2DD1B53AAE68677132EB562DCBA78E36381B63CCAF66E6BA DUP1 SLOAD SWAP1 SWAP2 SWAP1 PUSH2 0x1F4E SWAP1 DUP5 SWAP1 PUSH2 0x2C92 JUMP JUMPDEST SWAP1 SWAP2 SSTORE POP POP JUMPDEST PUSH1 0x0 SLOAD PUSH1 0x1 PUSH1 0xA0 SHL SWAP1 DIV PUSH4 0xFFFFFFFF AND ISZERO DUP1 ISZERO SWAP1 PUSH2 0x1F7A JUMPI POP PUSH1 0x15 SLOAD PUSH2 0x100 SWAP1 DIV PUSH1 0xFF AND ISZERO JUMPDEST DUP1 ISZERO PUSH2 0x1F88 JUMPI POP PUSH1 0x15 SLOAD PUSH1 0xFF AND JUMPDEST ISZERO PUSH2 0x2007 JUMPI PUSH2 0x1FA9 DUP2 PUSH1 0x40 ADD MLOAD DUP3 PUSH1 0x20 ADD MLOAD PUSH2 0x1FA4 SWAP2 SWAP1 PUSH2 0x2C92 JUMP JUMPDEST PUSH2 0x251B JUMP JUMPDEST SELFBALANCE DUP1 ISZERO PUSH2 0x1FB9 JUMPI PUSH2 0x1FB9 DUP2 PUSH2 0x269E JUMP JUMPDEST ADDRESS PUSH1 0x1 PUSH1 0x1 PUSH1 0xA0 SHL SUB AND DUP11 PUSH1 0x1 PUSH1 0x1 PUSH1 0xA0 SHL SUB AND PUSH1 0x0 DUP1 MLOAD PUSH1 0x20 PUSH2 0x2D9D DUP4 CODECOPY DUP2 MLOAD SWAP2 MSTORE DUP5 PUSH1 0x20 ADD MLOAD DUP6 PUSH1 0x40 ADD MLOAD PUSH2 0x1FF0 SWAP2 SWAP1 PUSH2 0x2C92 JUMP JUMPDEST PUSH1 0x40 MLOAD SWAP1 DUP2 MSTORE PUSH1 0x20 ADD PUSH1 0x40 MLOAD DUP1 SWAP2 SUB SWAP1 LOG3 POP PUSH2 0x2077 JUMP JUMPDEST PUSH1 0x2 SLOAD PUSH1 0x20 DUP3 DUP2 ADD MLOAD PUSH1 0x40 MLOAD SWAP1 DUP2 MSTORE PUSH1 0x1 PUSH1 0x1 PUSH1 0xA0 SHL SUB SWAP3 DUP4 AND SWAP3 DUP13 AND SWAP2 PUSH1 0x0 DUP1 MLOAD PUSH1 0x20 PUSH2 0x2D9D DUP4 CODECOPY DUP2 MLOAD SWAP2 MSTORE SWAP2 ADD PUSH1 0x40 MLOAD DUP1 SWAP2 SUB SWAP1 LOG3 PUSH1 0x3 SLOAD PUSH1 0x40 DUP3 DUP2 ADD MLOAD SWAP1 MLOAD SWAP1 DUP2 MSTORE PUSH1 0x1 PUSH1 0x1 PUSH1 0xA0 SHL SUB SWAP2 DUP3 AND SWAP2 DUP12 AND SWAP1 PUSH1 0x0 DUP1 MLOAD PUSH1 0x20 PUSH2 0x2D9D DUP4 CODECOPY DUP2 MLOAD SWAP2 MSTORE SWAP1 PUSH1 0x20 ADD PUSH1 0x40 MLOAD DUP1 SWAP2 SUB SWAP1 LOG3 JUMPDEST PUSH1 0x1 PUSH1 0x1 PUSH1 0xA0 SHL SUB DUP10 AND PUSH1 0x0 SWAP1 DUP2 MSTORE PUSH1 0x9 PUSH1 0x20 MSTORE PUSH1 0x40 SWAP1 KECCAK256 SLOAD PUSH1 0xFF AND DUP1 PUSH2 0x20B6 JUMPI POP PUSH1 0x1 PUSH1 0x1 PUSH1 0xA0 SHL SUB DUP9 AND PUSH1 0x0 SWAP1 DUP2 MSTORE PUSH1 0x9 PUSH1 0x20 MSTORE PUSH1 0x40 SWAP1 KECCAK256 SLOAD PUSH1 0xFF AND JUMPDEST DUP1 PUSH2 0x20EC JUMPI POP PUSH1 0xE SLOAD PUSH2 0x100 SWAP1 DIV PUSH1 0xFF AND ISZERO DUP1 ISZERO PUSH2 0x20EC JUMPI POP PUSH1 0x1 PUSH1 0x1 PUSH1 0xA0 SHL SUB DUP10 AND PUSH1 0x0 SWAP1 DUP2 MSTORE PUSH1 0xA PUSH1 0x20 MSTORE PUSH1 0x40 SWAP1 KECCAK256 SLOAD PUSH1 0xFF AND JUMPDEST ISZERO PUSH2 0x2110 JUMPI PUSH1 0x0 DUP1 SLOAD PUSH4 0xFFFFFFFF PUSH1 0xA0 SHL NOT AND PUSH1 0x1 PUSH1 0xA0 SHL PUSH4 0xFFFFFFFF DUP10 AND MUL OR SWAP1 SSTORE JUMPDEST DUP8 PUSH1 0x1 PUSH1 0x1 PUSH1 0xA0 SHL SUB AND DUP10 PUSH1 0x1 PUSH1 0x1 PUSH1 0xA0 SHL SUB AND PUSH1 0x0 DUP1 MLOAD PUSH1 0x20 PUSH2 0x2D9D DUP4 CODECOPY DUP2 MLOAD SWAP2 MSTORE DUP5 PUSH1 0x40 MLOAD PUSH2 0x2143 SWAP2 DUP2 MSTORE PUSH1 0x20 ADD SWAP1 JUMP JUMPDEST PUSH1 0x40 MLOAD DUP1 SWAP2 SUB SWAP1 LOG3 DUP1 MLOAD PUSH1 0x40 MLOAD SWAP1 DUP2 MSTORE PUSH2 0xDEAD SWAP1 PUSH1 0x1 PUSH1 0x1 PUSH1 0xA0 SHL SUB DUP12 AND SWAP1 PUSH1 0x0 DUP1 MLOAD PUSH1 0x20 PUSH2 0x2D9D DUP4 CODECOPY DUP2 MLOAD SWAP2 MSTORE SWAP1 PUSH1 0x20 ADD PUSH1 0x40 MLOAD DUP1 SWAP2 SUB SWAP1 LOG3 POP POP POP POP POP POP POP POP POP JUMP JUMPDEST PUSH1 0x0 DUP1 PUSH1 0x0 PUSH2 0x2195 PUSH2 0x2776 JUMP JUMPDEST SWAP1 SWAP3 POP SWAP1 POP PUSH2 0x21A4 DUP2 DUP4 PUSH2 0x2CD2 JUMP JUMPDEST SWAP3 POP POP POP SWAP1 JUMP JUMPDEST PUSH1 0x0 DUP1 SLOAD PUSH1 0x1 PUSH1 0x1 PUSH1 0xA0 SHL SUB DUP4 DUP2 AND PUSH1 0x1 PUSH1 0x1 PUSH1 0xA0 SHL SUB NOT DUP4 AND DUP2 OR DUP5 SSTORE PUSH1 0x40 MLOAD SWAP2 SWAP1 SWAP3 AND SWAP3 DUP4 SWAP2 PUSH32 0x8BE0079C531659141344CD1FD0A4F28419497F9722A3DAAFE3B4186F6B6457E0 SWAP2 SWAP1 LOG3 POP POP JUMP JUMPDEST PUSH1 0x0 PUSH2 0x2228 PUSH1 0x40 MLOAD DUP1 PUSH1 0x80 ADD PUSH1 0x40 MSTORE DUP1 PUSH1 0x0 DUP2 MSTORE PUSH1 0x20 ADD PUSH1 0x0 DUP2 MSTORE PUSH1 0x20 ADD PUSH1 0x0 DUP2 MSTORE PUSH1 0x20 ADD PUSH1 0x0 DUP2 MSTORE POP SWAP1 JUMP JUMPDEST PUSH2 0x2253 PUSH1 0x40 MLOAD DUP1 PUSH1 0x80 ADD PUSH1 0x40 MSTORE DUP1 PUSH1 0x0 DUP2 MSTORE PUSH1 0x20 ADD PUSH1 0x0 DUP2 MSTORE PUSH1 0x20 ADD PUSH1 0x0 DUP2 MSTORE PUSH1 0x20 ADD PUSH1 0x0 DUP2 MSTORE POP SWAP1 JUMP JUMPDEST PUSH1 0x1 SLOAD PUSH1 0x0 SLOAD PUSH2 0x2710 SWAP2 PUSH4 0xFFFFFFFF SWAP1 DUP2 AND SWAP2 PUSH2 0x2279 SWAP2 PUSH1 0x1 PUSH1 0xA0 SHL SWAP1 SWAP2 DIV AND DUP8 PUSH2 0x2CF4 JUMP JUMPDEST PUSH2 0x2283 SWAP2 SWAP1 PUSH2 0x2CF4 JUMP JUMPDEST PUSH2 0x228D SWAP2 SWAP1 PUSH2 0x2CD2 JUMP JUMPDEST DUP2 MSTORE PUSH1 0x1 SLOAD PUSH1 0x0 SLOAD PUSH2 0x2710 SWAP2 PUSH4 0xFFFFFFFF PUSH5 0x100000000 SWAP1 SWAP2 DIV DUP2 AND SWAP2 PUSH2 0x22BD SWAP2 PUSH1 0x1 PUSH1 0xA0 SHL SWAP1 SWAP2 DIV AND DUP8 PUSH2 0x2CF4 JUMP JUMPDEST PUSH2 0x22C7 SWAP2 SWAP1 PUSH2 0x2CF4 JUMP JUMPDEST PUSH2 0x22D1 SWAP2 SWAP1 PUSH2 0x2CD2 JUMP JUMPDEST PUSH1 0x20 DUP3 ADD MSTORE PUSH1 0x1 SLOAD PUSH1 0x0 SLOAD PUSH2 0x2710 SWAP2 PUSH4 0xFFFFFFFF PUSH1 0x1 PUSH1 0x40 SHL SWAP1 SWAP2 DIV DUP2 AND SWAP2 PUSH2 0x2303 SWAP2 PUSH1 0x1 PUSH1 0xA0 SHL SWAP1 SWAP2 DIV AND DUP8 PUSH2 0x2CF4 JUMP JUMPDEST PUSH2 0x230D SWAP2 SWAP1 PUSH2 0x2CF4 JUMP JUMPDEST PUSH2 0x2317 SWAP2 SWAP1 PUSH2 0x2CD2 JUMP JUMPDEST PUSH1 0x40 DUP3 ADD MSTORE PUSH1 0x1 SLOAD PUSH1 0x0 SLOAD PUSH2 0x2710 SWAP2 PUSH4 0xFFFFFFFF PUSH1 0x1 PUSH1 0x60 SHL SWAP1 SWAP2 DIV DUP2 AND SWAP2 PUSH2 0x2349 SWAP2 PUSH1 0x1 PUSH1 0xA0 SHL SWAP1 SWAP2 DIV AND DUP8 PUSH2 0x2CF4 JUMP JUMPDEST PUSH2 0x2353 SWAP2 SWAP1 PUSH2 0x2CF4 JUMP JUMPDEST PUSH2 0x235D SWAP2 SWAP1 PUSH2 0x2CD2 JUMP JUMPDEST PUSH1 0x60 DUP3 ADD DUP2 SWAP1 MSTORE PUSH1 0x40 DUP3 ADD MLOAD PUSH1 0x20 DUP4 ADD MLOAD DUP4 MLOAD PUSH1 0x0 SWAP4 SWAP3 SWAP2 SWAP1 PUSH2 0x2380 SWAP1 DUP10 PUSH2 0x2D13 JUMP JUMPDEST PUSH2 0x238A SWAP2 SWAP1 PUSH2 0x2D13 JUMP JUMPDEST PUSH2 0x2394 SWAP2 SWAP1 PUSH2 0x2D13 JUMP JUMPDEST PUSH2 0x239E SWAP2 SWAP1 PUSH2 0x2D13 JUMP JUMPDEST SWAP6 SWAP2 SWAP5 POP SWAP1 SWAP3 POP POP POP JUMP JUMPDEST PUSH1 0x0 DUP1 PUSH2 0x23D7 PUSH1 0x40 MLOAD DUP1 PUSH1 0x80 ADD PUSH1 0x40 MSTORE DUP1 PUSH1 0x0 DUP2 MSTORE PUSH1 0x20 ADD PUSH1 0x0 DUP2 MSTORE PUSH1 0x20 ADD PUSH1 0x0 DUP2 MSTORE PUSH1 0x20 ADD PUSH1 0x0 DUP2 MSTORE POP SWAP1 JUMP JUMPDEST PUSH1 0x0 PUSH2 0x23E3 DUP6 DUP9 PUSH2 0x2CF4 JUMP JUMPDEST SWAP1 POP PUSH2 0x2410 PUSH1 0x40 MLOAD DUP1 PUSH1 0x80 ADD PUSH1 0x40 MSTORE DUP1 PUSH1 0x0 DUP2 MSTORE PUSH1 0x20 ADD PUSH1 0x0 DUP2 MSTORE PUSH1 0x20 ADD PUSH1 0x0 DUP2 MSTORE PUSH1 0x20 ADD PUSH1 0x0 DUP2 MSTORE POP SWAP1 JUMP JUMPDEST DUP7 MLOAD PUSH2 0x241D SWAP1 DUP8 SWAP1 PUSH2 0x2CF4 JUMP JUMPDEST DUP2 MSTORE PUSH1 0x20 DUP8 ADD MLOAD PUSH2 0x242F SWAP1 DUP8 SWAP1 PUSH2 0x2CF4 JUMP JUMPDEST PUSH1 0x20 DUP3 ADD MSTORE PUSH1 0x40 DUP8 ADD MLOAD PUSH2 0x2444 SWAP1 DUP8 SWAP1 PUSH2 0x2CF4 JUMP JUMPDEST PUSH1 0x40 DUP3 ADD MSTORE PUSH1 0x60 DUP8 ADD MLOAD PUSH2 0x2459 SWAP1 DUP8 SWAP1 PUSH2 0x2CF4 JUMP JUMPDEST PUSH1 0x60 DUP3 ADD DUP2 SWAP1 MSTORE PUSH1 0x40 DUP3 ADD MLOAD PUSH1 0x20 DUP4 ADD MLOAD DUP4 MLOAD PUSH1 0x0 SWAP4 SWAP3 SWAP2 SWAP1 PUSH2 0x247C SWAP1 DUP8 PUSH2 0x2D13 JUMP JUMPDEST PUSH2 0x2486 SWAP2 SWAP1 PUSH2 0x2D13 JUMP JUMPDEST PUSH2 0x2490 SWAP2 SWAP1 PUSH2 0x2D13 JUMP JUMPDEST PUSH2 0x249A SWAP2 SWAP1 PUSH2 0x2D13 JUMP JUMPDEST SWAP3 SWAP10 SWAP3 SWAP9 POP SWAP1 SWAP7 POP SWAP1 SWAP5 POP POP POP POP POP JUMP JUMPDEST PUSH1 0x0 DUP1 SLOAD PUSH1 0x1 PUSH1 0x1 PUSH1 0xA0 SHL SUB DUP5 DUP2 AND SWAP2 AND EQ DUP1 ISZERO SWAP1 PUSH2 0x24D8 JUMPI POP PUSH1 0x0 SLOAD PUSH1 0x1 PUSH1 0x1 PUSH1 0xA0 SHL SUB DUP4 DUP2 AND SWAP2 AND EQ ISZERO JUMPDEST DUP1 ISZERO PUSH2 0x9FE JUMPI POP PUSH1 0x1 PUSH1 0x1 PUSH1 0xA0 SHL SUB DUP3 AND PUSH2 0xDEAD EQ ISZERO SWAP4 SWAP3 POP POP POP JUMP JUMPDEST DUP2 PUSH1 0x10 SLOAD PUSH2 0x2503 SWAP2 SWAP1 PUSH2 0x2D13 JUMP JUMPDEST PUSH1 0x10 SSTORE PUSH1 0x11 SLOAD PUSH2 0x2514 SWAP1 DUP3 SWAP1 PUSH2 0x2C92 JUMP JUMPDEST PUSH1 0x11 SSTORE POP POP JUMP JUMPDEST PUSH1 0x15 DUP1 SLOAD PUSH2 0xFF00 NOT AND PUSH2 0x100 OR SWAP1 SSTORE PUSH1 0x40 DUP1 MLOAD PUSH1 0x2 DUP1 DUP3 MSTORE PUSH1 0x60 DUP3 ADD DUP4 MSTORE PUSH1 0x0 SWAP3 PUSH1 0x20 DUP4 ADD SWAP1 DUP1 CALLDATASIZE DUP4 CALLDATACOPY ADD SWAP1 POP POP SWAP1 POP ADDRESS DUP2 PUSH1 0x0 DUP2 MLOAD DUP2 LT PUSH2 0x255F JUMPI PUSH2 0x255F PUSH2 0x2D71 JUMP JUMPDEST PUSH1 0x1 PUSH1 0x1 PUSH1 0xA0 SHL SUB SWAP3 DUP4 AND PUSH1 0x20 SWAP2 DUP3 MUL SWAP3 SWAP1 SWAP3 ADD DUP2 ADD SWAP2 SWAP1 SWAP2 MSTORE PUSH1 0x12 SLOAD PUSH1 0x40 DUP1 MLOAD PUSH4 0x15AB88C9 PUSH1 0xE3 SHL DUP2 MSTORE SWAP1 MLOAD SWAP2 SWAP1 SWAP4 AND SWAP3 PUSH4 0xAD5C4648 SWAP3 PUSH1 0x4 DUP1 DUP4 ADD SWAP4 SWAP2 SWAP3 DUP3 SWAP1 SUB ADD DUP2 DUP7 DUP1 EXTCODESIZE ISZERO DUP1 ISZERO PUSH2 0x25B3 JUMPI PUSH1 0x0 DUP1 REVERT JUMPDEST POP GAS STATICCALL ISZERO DUP1 ISZERO PUSH2 0x25C7 JUMPI RETURNDATASIZE PUSH1 0x0 DUP1 RETURNDATACOPY RETURNDATASIZE PUSH1 0x0 REVERT JUMPDEST POP POP POP POP PUSH1 0x40 MLOAD RETURNDATASIZE PUSH1 0x1F NOT PUSH1 0x1F DUP3 ADD AND DUP3 ADD DUP1 PUSH1 0x40 MSTORE POP DUP2 ADD SWAP1 PUSH2 0x25EB SWAP2 SWAP1 PUSH2 0x298F JUMP JUMPDEST DUP2 PUSH1 0x1 DUP2 MLOAD DUP2 LT PUSH2 0x25FE JUMPI PUSH2 0x25FE PUSH2 0x2D71 JUMP JUMPDEST PUSH1 0x1 PUSH1 0x1 PUSH1 0xA0 SHL SUB SWAP3 DUP4 AND PUSH1 0x20 SWAP2 DUP3 MUL SWAP3 SWAP1 SWAP3 ADD ADD MSTORE PUSH1 0x12 SLOAD PUSH2 0x2624 SWAP2 ADDRESS SWAP2 AND DUP5 PUSH2 0x15FB JUMP JUMPDEST PUSH1 0x12 SLOAD PUSH1 0x40 MLOAD PUSH4 0x791AC947 PUSH1 0xE0 SHL DUP2 MSTORE PUSH1 0x1 PUSH1 0x1 PUSH1 0xA0 SHL SUB SWAP1 SWAP2 AND SWAP1 PUSH4 0x791AC947 SWAP1 PUSH2 0x265D SWAP1 DUP6 SWAP1 PUSH1 0x0 SWAP1 DUP7 SWAP1 ADDRESS SWAP1 TIMESTAMP SWAP1 PUSH1 0x4 ADD PUSH2 0x2C21 JUMP JUMPDEST PUSH1 0x0 PUSH1 0x40 MLOAD DUP1 DUP4 SUB DUP2 PUSH1 0x0 DUP8 DUP1 EXTCODESIZE ISZERO DUP1 ISZERO PUSH2 0x2677 JUMPI PUSH1 0x0 DUP1 REVERT JUMPDEST POP GAS CALL ISZERO DUP1 ISZERO PUSH2 0x268B JUMPI RETURNDATASIZE PUSH1 0x0 DUP1 RETURNDATACOPY RETURNDATASIZE PUSH1 0x0 REVERT JUMPDEST POP POP PUSH1 0x15 DUP1 SLOAD PUSH2 0xFF00 NOT AND SWAP1 SSTORE POP POP POP POP JUMP JUMPDEST PUSH1 0x1 SLOAD PUSH1 0x0 SWAP1 PUSH2 0x26C4 SWAP1 PUSH4 0xFFFFFFFF PUSH1 0x1 PUSH1 0x60 SHL DUP3 DIV DUP2 AND SWAP2 PUSH1 0x1 PUSH1 0x40 SHL SWAP1 DIV AND PUSH2 0x2CAA JUMP JUMPDEST PUSH1 0x1 SLOAD PUSH4 0xFFFFFFFF SWAP2 DUP3 AND SWAP2 PUSH2 0x26E2 SWAP2 PUSH1 0x1 PUSH1 0x40 SHL SWAP1 DIV AND DUP5 PUSH2 0x2CF4 JUMP JUMPDEST PUSH2 0x26EC SWAP2 SWAP1 PUSH2 0x2CD2 JUMP JUMPDEST SWAP1 POP PUSH1 0x0 PUSH2 0x26FA DUP3 DUP5 PUSH2 0x2D13 JUMP JUMPDEST PUSH1 0x2 SLOAD PUSH1 0x40 MLOAD SWAP2 SWAP3 POP PUSH1 0x1 PUSH1 0x1 PUSH1 0xA0 SHL SUB AND SWAP1 DUP4 ISZERO PUSH2 0x8FC MUL SWAP1 DUP5 SWAP1 PUSH1 0x0 DUP2 DUP2 DUP2 DUP6 DUP9 DUP9 CALL SWAP4 POP POP POP POP ISZERO DUP1 ISZERO PUSH2 0x2735 JUMPI RETURNDATASIZE PUSH1 0x0 DUP1 RETURNDATACOPY RETURNDATASIZE PUSH1 0x0 REVERT JUMPDEST POP PUSH1 0x3 SLOAD PUSH1 0x40 MLOAD PUSH1 0x1 PUSH1 0x1 PUSH1 0xA0 SHL SUB SWAP1 SWAP2 AND SWAP1 DUP3 ISZERO PUSH2 0x8FC MUL SWAP1 DUP4 SWAP1 PUSH1 0x0 DUP2 DUP2 DUP2 DUP6 DUP9 DUP9 CALL SWAP4 POP POP POP POP ISZERO DUP1 ISZERO PUSH2 0x2770 JUMPI RETURNDATASIZE PUSH1 0x0 DUP1 RETURNDATACOPY RETURNDATASIZE PUSH1 0x0 REVERT JUMPDEST POP POP POP POP JUMP JUMPDEST PUSH1 0x10 SLOAD PUSH1 0x0 SWAP1 DUP2 SWAP1 DUP2 PUSH2 0x2795 PUSH8 0x16345785D8A0000 PUSH4 0x3B9ACA00 PUSH2 0x2CF4 JUMP JUMPDEST SWAP1 POP PUSH1 0x0 JUMPDEST PUSH1 0x8 SLOAD DUP2 LT ISZERO PUSH2 0x28F2 JUMPI DUP3 PUSH1 0x4 PUSH1 0x0 PUSH1 0x8 DUP5 DUP2 SLOAD DUP2 LT PUSH2 0x27BC JUMPI PUSH2 0x27BC PUSH2 0x2D71 JUMP JUMPDEST PUSH1 0x0 SWAP2 DUP3 MSTORE PUSH1 0x20 DUP1 DUP4 KECCAK256 SWAP1 SWAP2 ADD SLOAD PUSH1 0x1 PUSH1 0x1 PUSH1 0xA0 SHL SUB AND DUP4 MSTORE DUP3 ADD SWAP3 SWAP1 SWAP3 MSTORE PUSH1 0x40 ADD SWAP1 KECCAK256 SLOAD GT DUP1 PUSH2 0x2827 JUMPI POP DUP2 PUSH1 0x5 PUSH1 0x0 PUSH1 0x8 DUP5 DUP2 SLOAD DUP2 LT PUSH2 0x2800 JUMPI PUSH2 0x2800 PUSH2 0x2D71 JUMP JUMPDEST PUSH1 0x0 SWAP2 DUP3 MSTORE PUSH1 0x20 DUP1 DUP4 KECCAK256 SWAP1 SWAP2 ADD SLOAD PUSH1 0x1 PUSH1 0x1 PUSH1 0xA0 SHL SUB AND DUP4 MSTORE DUP3 ADD SWAP3 SWAP1 SWAP3 MSTORE PUSH1 0x40 ADD SWAP1 KECCAK256 SLOAD GT JUMPDEST ISZERO PUSH2 0x2850 JUMPI PUSH1 0x10 SLOAD PUSH2 0x2845 PUSH8 0x16345785D8A0000 PUSH4 0x3B9ACA00 PUSH2 0x2CF4 JUMP JUMPDEST SWAP5 POP SWAP5 POP POP POP POP SWAP1 SWAP2 JUMP JUMPDEST PUSH1 0x4 PUSH1 0x0 PUSH1 0x8 DUP4 DUP2 SLOAD DUP2 LT PUSH2 0x2867 JUMPI PUSH2 0x2867 PUSH2 0x2D71 JUMP JUMPDEST PUSH1 0x0 SWAP2 DUP3 MSTORE PUSH1 0x20 DUP1 DUP4 KECCAK256 SWAP1 SWAP2 ADD SLOAD PUSH1 0x1 PUSH1 0x1 PUSH1 0xA0 SHL SUB AND DUP4 MSTORE DUP3 ADD SWAP3 SWAP1 SWAP3 MSTORE PUSH1 0x40 ADD SWAP1 KECCAK256 SLOAD PUSH2 0x2896 SWAP1 DUP5 PUSH2 0x2D13 JUMP JUMPDEST SWAP3 POP PUSH1 0x5 PUSH1 0x0 PUSH1 0x8 DUP4 DUP2 SLOAD DUP2 LT PUSH2 0x28AF JUMPI PUSH2 0x28AF PUSH2 0x2D71 JUMP JUMPDEST PUSH1 0x0 SWAP2 DUP3 MSTORE PUSH1 0x20 DUP1 DUP4 KECCAK256 SWAP1 SWAP2 ADD SLOAD PUSH1 0x1 PUSH1 0x1 PUSH1 0xA0 SHL SUB AND DUP4 MSTORE DUP3 ADD SWAP3 SWAP1 SWAP3 MSTORE PUSH1 0x40 ADD SWAP1 KECCAK256 SLOAD PUSH2 0x28DE SWAP1 DUP4 PUSH2 0x2D13 JUMP JUMPDEST SWAP2 POP DUP1 PUSH2 0x28EA DUP2 PUSH2 0x2D2A JUMP JUMPDEST SWAP2 POP POP PUSH2 0x279A JUMP JUMPDEST POP PUSH2 0x2909 PUSH8 0x16345785D8A0000 PUSH4 0x3B9ACA00 PUSH2 0x2CF4 JUMP JUMPDEST PUSH1 0x10 SLOAD PUSH2 0x2916 SWAP2 SWAP1 PUSH2 0x2CD2 JUMP JUMPDEST DUP3 LT ISZERO PUSH2 0x2940 JUMPI PUSH1 0x10 SLOAD PUSH2 0x2936 PUSH8 0x16345785D8A0000 PUSH4 0x3B9ACA00 PUSH2 0x2CF4 JUMP JUMPDEST SWAP4 POP SWAP4 POP POP POP SWAP1 SWAP2 JUMP JUMPDEST SWAP1 SWAP4 SWAP1 SWAP3 POP SWAP1 POP JUMP JUMPDEST DUP1 CALLDATALOAD DUP1 ISZERO ISZERO DUP2 EQ PUSH2 0x2959 JUMPI PUSH1 0x0 DUP1 REVERT JUMPDEST SWAP2 SWAP1 POP JUMP JUMPDEST DUP1 CALLDATALOAD PUSH4 0xFFFFFFFF DUP2 AND DUP2 EQ PUSH2 0x2959 JUMPI PUSH1 0x0 DUP1 REVERT JUMPDEST PUSH1 0x0 PUSH1 0x20 DUP3 DUP5 SUB SLT ISZERO PUSH2 0x2984 JUMPI PUSH1 0x0 DUP1 REVERT JUMPDEST DUP2 CALLDATALOAD PUSH2 0x9FE DUP2 PUSH2 0x2D87 JUMP JUMPDEST PUSH1 0x0 PUSH1 0x20 DUP3 DUP5 SUB SLT ISZERO PUSH2 0x29A1 JUMPI PUSH1 0x0 DUP1 REVERT JUMPDEST DUP2 MLOAD PUSH2 0x9FE DUP2 PUSH2 0x2D87 JUMP JUMPDEST PUSH1 0x0 DUP1 PUSH1 0x40 DUP4 DUP6 SUB SLT ISZERO PUSH2 0x29BF JUMPI PUSH1 0x0 DUP1 REVERT JUMPDEST DUP3 CALLDATALOAD PUSH2 0x29CA DUP2 PUSH2 0x2D87 JUMP JUMPDEST SWAP2 POP PUSH1 0x20 DUP4 ADD CALLDATALOAD PUSH2 0x29DA DUP2 PUSH2 0x2D87 JUMP JUMPDEST DUP1 SWAP2 POP POP SWAP3 POP SWAP3 SWAP1 POP JUMP JUMPDEST PUSH1 0x0 DUP1 PUSH1 0x0 PUSH1 0x60 DUP5 DUP7 SUB SLT ISZERO PUSH2 0x29FA JUMPI PUSH1 0x0 DUP1 REVERT JUMPDEST DUP4 CALLDATALOAD PUSH2 0x2A05 DUP2 PUSH2 0x2D87 JUMP JUMPDEST SWAP3 POP PUSH1 0x20 DUP5 ADD CALLDATALOAD PUSH2 0x2A15 DUP2 PUSH2 0x2D87 JUMP JUMPDEST SWAP3 SWAP6 SWAP3 SWAP5 POP POP POP PUSH1 0x40 SWAP2 SWAP1 SWAP2 ADD CALLDATALOAD SWAP1 JUMP JUMPDEST PUSH1 0x0 DUP1 PUSH1 0x40 DUP4 DUP6 SUB SLT ISZERO PUSH2 0x2A39 JUMPI PUSH1 0x0 DUP1 REVERT JUMPDEST DUP3 CALLDATALOAD PUSH2 0x2A44 DUP2 PUSH2 0x2D87 JUMP JUMPDEST SWAP2 POP PUSH2 0x2A52 PUSH1 0x20 DUP5 ADD PUSH2 0x2949 JUMP JUMPDEST SWAP1 POP SWAP3 POP SWAP3 SWAP1 POP JUMP JUMPDEST PUSH1 0x0 DUP1 PUSH1 0x40 DUP4 DUP6 SUB SLT ISZERO PUSH2 0x2A6E JUMPI PUSH1 0x0 DUP1 REVERT JUMPDEST DUP3 CALLDATALOAD PUSH2 0x2A79 DUP2 PUSH2 0x2D87 JUMP JUMPDEST SWAP5 PUSH1 0x20 SWAP4 SWAP1 SWAP4 ADD CALLDATALOAD SWAP4 POP POP POP JUMP JUMPDEST PUSH1 0x0 PUSH1 0x20 DUP3 DUP5 SUB SLT ISZERO PUSH2 0x2A99 JUMPI PUSH1 0x0 DUP1 REVERT JUMPDEST POP CALLDATALOAD SWAP2 SWAP1 POP JUMP JUMPDEST PUSH1 0x0 DUP1 PUSH1 0x40 DUP4 DUP6 SUB SLT ISZERO PUSH2 0x2AB3 JUMPI PUSH1 0x0 DUP1 REVERT JUMPDEST DUP3 CALLDATALOAD SWAP2 POP PUSH2 0x2A52 PUSH1 0x20 DUP5 ADD PUSH2 0x2949 JUMP JUMPDEST PUSH1 0x0 DUP1 PUSH1 0x0 DUP1 PUSH1 0x0 DUP1 PUSH1 0x0 PUSH1 0xE0 DUP9 DUP11 SUB SLT ISZERO PUSH2 0x2ADE JUMPI PUSH1 0x0 DUP1 REVERT JUMPDEST PUSH2 0x2AE7 DUP9 PUSH2 0x295E JUMP JUMPDEST SWAP7 POP PUSH2 0x2AF5 PUSH1 0x20 DUP10 ADD PUSH2 0x295E JUMP JUMPDEST SWAP6 POP PUSH2 0x2B03 PUSH1 0x40 DUP10 ADD PUSH2 0x295E JUMP JUMPDEST SWAP5 POP PUSH2 0x2B11 PUSH1 0x60 DUP10 ADD PUSH2 0x295E JUMP JUMPDEST SWAP4 POP PUSH2 0x2B1F PUSH1 0x80 DUP10 ADD PUSH2 0x295E JUMP JUMPDEST SWAP3 POP PUSH1 0xA0 DUP9 ADD CALLDATALOAD PUSH2 0x2B2F DUP2 PUSH2 0x2D87 JUMP JUMPDEST SWAP2 POP PUSH1 0xC0 DUP9 ADD CALLDATALOAD PUSH2 0x2B3F DUP2 PUSH2 0x2D87 JUMP JUMPDEST DUP1 SWAP2 POP POP SWAP3 SWAP6 SWAP9 SWAP2 SWAP5 SWAP8 POP SWAP3 SWAP6 POP JUMP JUMPDEST PUSH1 0x0 PUSH1 0x20 DUP1 DUP4 MSTORE DUP4 MLOAD DUP1 DUP3 DUP6 ADD MSTORE PUSH1 0x0 JUMPDEST DUP2 DUP2 LT ISZERO PUSH2 0x2B7C JUMPI DUP6 DUP2 ADD DUP4 ADD MLOAD DUP6 DUP3 ADD PUSH1 0x40 ADD MSTORE DUP3 ADD PUSH2 0x2B60 JUMP JUMPDEST DUP2 DUP2 GT ISZERO PUSH2 0x2B8E JUMPI PUSH1 0x0 PUSH1 0x40 DUP4 DUP8 ADD ADD MSTORE JUMPDEST POP PUSH1 0x1F ADD PUSH1 0x1F NOT AND SWAP3 SWAP1 SWAP3 ADD PUSH1 0x40 ADD SWAP4 SWAP3 POP POP POP JUMP JUMPDEST PUSH1 0x20 DUP1 DUP3 MSTORE PUSH1 0x28 SWAP1 DUP3 ADD MSTORE PUSH32 0x546F6B656E206973204C6F636B656420666F72204C6971756964747920746F20 PUSH1 0x40 DUP3 ADD MSTORE PUSH8 0x1899481859191959 PUSH1 0xC2 SHL PUSH1 0x60 DUP3 ADD MSTORE PUSH1 0x80 ADD SWAP1 JUMP JUMPDEST PUSH1 0x20 DUP1 DUP3 MSTORE DUP2 DUP2 ADD MSTORE PUSH32 0x4F776E61626C653A2063616C6C6572206973206E6F7420746865206F776E6572 PUSH1 0x40 DUP3 ADD MSTORE PUSH1 0x60 ADD SWAP1 JUMP JUMPDEST PUSH1 0x0 PUSH1 0xA0 DUP3 ADD DUP8 DUP4 MSTORE PUSH1 0x20 DUP8 DUP2 DUP6 ADD MSTORE PUSH1 0xA0 PUSH1 0x40 DUP6 ADD MSTORE DUP2 DUP8 MLOAD DUP1 DUP5 MSTORE PUSH1 0xC0 DUP7 ADD SWAP2 POP DUP3 DUP10 ADD SWAP4 POP PUSH1 0x0 JUMPDEST DUP2 DUP2 LT ISZERO PUSH2 0x2C71 JUMPI DUP5 MLOAD PUSH1 0x1 PUSH1 0x1 PUSH1 0xA0 SHL SUB AND DUP4 MSTORE SWAP4 DUP4 ADD SWAP4 SWAP2 DUP4 ADD SWAP2 PUSH1 0x1 ADD PUSH2 0x2C4C JUMP JUMPDEST POP POP PUSH1 0x1 PUSH1 0x1 PUSH1 0xA0 SHL SUB SWAP7 SWAP1 SWAP7 AND PUSH1 0x60 DUP6 ADD MSTORE POP POP POP PUSH1 0x80 ADD MSTORE SWAP4 SWAP3 POP POP POP JUMP JUMPDEST PUSH1 0x0 DUP3 NOT DUP3 GT ISZERO PUSH2 0x2CA5 JUMPI PUSH2 0x2CA5 PUSH2 0x2D45 JUMP JUMPDEST POP ADD SWAP1 JUMP JUMPDEST PUSH1 0x0 PUSH4 0xFFFFFFFF DUP1 DUP4 AND DUP2 DUP6 AND DUP1 DUP4 SUB DUP3 GT ISZERO PUSH2 0x2CC9 JUMPI PUSH2 0x2CC9 PUSH2 0x2D45 JUMP JUMPDEST ADD SWAP5 SWAP4 POP POP POP POP JUMP JUMPDEST PUSH1 0x0 DUP3 PUSH2 0x2CEF JUMPI PUSH4 0x4E487B71 PUSH1 0xE0 SHL PUSH1 0x0 MSTORE PUSH1 0x12 PUSH1 0x4 MSTORE PUSH1 0x24 PUSH1 0x0 REVERT JUMPDEST POP DIV SWAP1 JUMP JUMPDEST PUSH1 0x0 DUP2 PUSH1 0x0 NOT DIV DUP4 GT DUP3 ISZERO ISZERO AND ISZERO PUSH2 0x2D0E JUMPI PUSH2 0x2D0E PUSH2 0x2D45 JUMP JUMPDEST POP MUL SWAP1 JUMP JUMPDEST PUSH1 0x0 DUP3 DUP3 LT ISZERO PUSH2 0x2D25 JUMPI PUSH2 0x2D25 PUSH2 0x2D45 JUMP JUMPDEST POP SUB SWAP1 JUMP JUMPDEST PUSH1 0x0 PUSH1 0x0 NOT DUP3 EQ ISZERO PUSH2 0x2D3E JUMPI PUSH2 0x2D3E PUSH2 0x2D45 JUMP JUMPDEST POP PUSH1 0x1 ADD SWAP1 JUMP JUMPDEST PUSH4 0x4E487B71 PUSH1 0xE0 SHL PUSH1 0x0 MSTORE PUSH1 0x11 PUSH1 0x4 MSTORE PUSH1 0x24 PUSH1 0x0 REVERT JUMPDEST PUSH4 0x4E487B71 PUSH1 0xE0 SHL PUSH1 0x0 MSTORE PUSH1 0x31 PUSH1 0x4 MSTORE PUSH1 0x24 PUSH1 0x0 REVERT JUMPDEST PUSH4 0x4E487B71 PUSH1 0xE0 SHL PUSH1 0x0 MSTORE PUSH1 0x32 PUSH1 0x4 MSTORE PUSH1 0x24 PUSH1 0x0 REVERT JUMPDEST PUSH1 0x1 PUSH1 0x1 PUSH1 0xA0 SHL SUB DUP2 AND DUP2 EQ PUSH2 0x1567 JUMPI PUSH1 0x0 DUP1 REVERT INVALID 0xDD CALLCODE MSTORE 0xAD SHL 0xE2 0xC8 SWAP12 PUSH10 0xC2B068FC378DAA952BA7 CALL PUSH4 0xC4A11628 CREATE2 GAS 0x4D CREATE2 0x23 0xB3 0xEF LOG2 PUSH5 0x6970667358 0x22 SLT KECCAK256 0x2C 0x4C 0xEF 0xA9 PUSH15 0x55FED77F56C098073BD5B3D84F2305 0x5D PUSH7 0xE5B82E4C85CEF SHL GAS 0xE9 PUSH5 0x736F6C6343 STOP ADDMOD SMOD STOP CALLER 0x4F PUSH24 0x6E61626C653A2063616C6C6572206973206E6F7420746865 KECCAK256 PUSH16 0x776E6572000000000000000000000000 "
		},
		"gasEstimates": {
			"creation": {
				"codeDepositCost": "2352400",
				"executionCost": "infinite",
				"totalCost": "infinite"
			},
			"external": {
				"_maxTxAmount()": "2363",
				"_tokenCommenceTime()": "2384",
				"allowance(address,address)": "infinite",
				"approve(address,uint256)": "24683",
				"balanceOf(address)": "infinite",
				"burnAddress()": "349",
				"currentTaxes()": "4622",
				"decimals()": "311",
				"decreaseAllowance(address,uint256)": "26950",
				"excludeFromFee(address)": "26834",
				"excludeFromReward(address)": "infinite",
				"includeInFee(address)": "26782",
				"includeInReward(address)": "infinite",
				"increaseAllowance(address,uint256)": "26998",
				"isBlacklisted(address)": "2675",
				"isExcludedFromFee(address)": "2610",
				"isExcludedFromReward(address)": "2633",
				"isLiquidityPool(address)": "2654",
				"name()": "infinite",
				"owner()": "2443",
				"reflect(uint256)": "infinite",
				"reflectionFromToken(uint256,bool)": "infinite",
				"renounceOwnership()": "28160",
				"revertTax()": "101589",
				"setBlacklistAccount(address,bool)": "26947",
				"setLiquidityPool(address,bool)": "infinite",
				"setMaxTxAmount(uint256)": "24730",
				"setTaxes(uint32,uint32,uint32,uint32,uint32,address,address)": "infinite",
				"symbol()": "infinite",
				"tokenFromReflection(uint256)": "infinite",
				"totalFees()": "2394",
				"totalSupply()": "350",
				"transfer(address,uint256)": "infinite",
				"transferFrom(address,address,uint256)": "infinite",
				"transferOwnership(address)": "infinite",
				"unlockToken()": "48675"
			},
			"internal": {
				"_approve(address,address,uint256)": "infinite",
				"_getCurrentSupply()": "infinite",
				"_getRValues(uint256,struct YeagerInu.Fees memory,uint256)": "infinite",
				"_getRate()": "infinite",
				"_getTValues(uint256)": "infinite",
				"_getValues(uint256)": "infinite",
				"_hasLimits(address,address)": "4375",
				"_reflectFee(uint256,uint256)": "48568",
				"_transfer(address,address,uint256)": "infinite",
				"sendETHToWallets(uint256)": "infinite",
				"swapTokensForEth(uint256)": "infinite"
			}
		},
		"methodIdentifiers": {
			"_maxTxAmount()": "7d1db4a5",
			"_tokenCommenceTime()": "53bbf6ac",
			"allowance(address,address)": "dd62ed3e",
			"approve(address,uint256)": "095ea7b3",
			"balanceOf(address)": "70a08231",
			"burnAddress()": "70d5ae05",
			"currentTaxes()": "eb1e7387",
			"decimals()": "313ce567",
			"decreaseAllowance(address,uint256)": "a457c2d7",
			"excludeFromFee(address)": "437823ec",
			"excludeFromReward(address)": "52390c02",
			"includeInFee(address)": "ea2f0b37",
			"includeInReward(address)": "3685d419",
			"increaseAllowance(address,uint256)": "39509351",
			"isBlacklisted(address)": "fe575a87",
			"isExcludedFromFee(address)": "5342acb4",
			"isExcludedFromReward(address)": "88f82020",
			"isLiquidityPool(address)": "e85455d7",
			"name()": "06fdde03",
			"owner()": "8da5cb5b",
			"reflect(uint256)": "053ab182",
			"reflectionFromToken(uint256,bool)": "4549b039",
			"renounceOwnership()": "715018a6",
			"revertTax()": "c07e3de2",
			"setBlacklistAccount(address,bool)": "e594707e",
			"setLiquidityPool(address,bool)": "c29c669a",
			"setMaxTxAmount(uint256)": "ec28438a",
			"setTaxes(uint32,uint32,uint32,uint32,uint32,address,address)": "d30299e7",
			"symbol()": "95d89b41",
			"tokenFromReflection(uint256)": "2d838119",
			"totalFees()": "13114a9d",
			"totalSupply()": "18160ddd",
			"transfer(address,uint256)": "a9059cbb",
			"transferFrom(address,address,uint256)": "23b872dd",
			"transferOwnership(address)": "f2fde38b",
			"unlockToken()": "18a24b5b"
		}
	},
	"abi": [
		{
			"inputs": [
				{
					"internalType": "address",
					"name": "wallet1_",
					"type": "address"
				},
				{
					"internalType": "address",
					"name": "wallet2_",
					"type": "address"
				}
			],
			"stateMutability": "nonpayable",
			"type": "constructor"
		},
		{
			"anonymous": false,
			"inputs": [
				{
					"indexed": true,
					"internalType": "address",
					"name": "owner",
					"type": "address"
				},
				{
					"indexed": true,
					"internalType": "address",
					"name": "spender",
					"type": "address"
				},
				{
					"indexed": false,
					"internalType": "uint256",
					"name": "value",
					"type": "uint256"
				}
			],
			"name": "Approval",
			"type": "event"
		},
		{
			"anonymous": false,
			"inputs": [
				{
					"indexed": true,
					"internalType": "address",
					"name": "previousOwner",
					"type": "address"
				},
				{
					"indexed": true,
					"internalType": "address",
					"name": "newOwner",
					"type": "address"
				}
			],
			"name": "OwnershipTransferred",
			"type": "event"
		},
		{
			"anonymous": false,
			"inputs": [
				{
					"indexed": true,
					"internalType": "address",
					"name": "from",
					"type": "address"
				},
				{
					"indexed": true,
					"internalType": "address",
					"name": "to",
					"type": "address"
				},
				{
					"indexed": false,
					"internalType": "uint256",
					"name": "value",
					"type": "uint256"
				}
			],
			"name": "Transfer",
			"type": "event"
		},
		{
			"inputs": [],
			"name": "_maxTxAmount",
			"outputs": [
				{
					"internalType": "uint256",
					"name": "",
					"type": "uint256"
				}
			],
			"stateMutability": "view",
			"type": "function"
		},
		{
			"inputs": [],
			"name": "_tokenCommenceTime",
			"outputs": [
				{
					"internalType": "uint256",
					"name": "",
					"type": "uint256"
				}
			],
			"stateMutability": "view",
			"type": "function"
		},
		{
			"inputs": [
				{
					"internalType": "address",
					"name": "owner",
					"type": "address"
				},
				{
					"internalType": "address",
					"name": "spender",
					"type": "address"
				}
			],
			"name": "allowance",
			"outputs": [
				{
					"internalType": "uint256",
					"name": "",
					"type": "uint256"
				}
			],
			"stateMutability": "view",
			"type": "function"
		},
		{
			"inputs": [
				{
					"internalType": "address",
					"name": "spender",
					"type": "address"
				},
				{
					"internalType": "uint256",
					"name": "amount",
					"type": "uint256"
				}
			],
			"name": "approve",
			"outputs": [
				{
					"internalType": "bool",
					"name": "",
					"type": "bool"
				}
			],
			"stateMutability": "nonpayable",
			"type": "function"
		},
		{
			"inputs": [
				{
					"internalType": "address",
					"name": "account",
					"type": "address"
				}
			],
			"name": "balanceOf",
			"outputs": [
				{
					"internalType": "uint256",
					"name": "",
					"type": "uint256"
				}
			],
			"stateMutability": "view",
			"type": "function"
		},
		{
			"inputs": [],
			"name": "burnAddress",
			"outputs": [
				{
					"internalType": "address",
					"name": "",
					"type": "address"
				}
			],
			"stateMutability": "view",
			"type": "function"
		},
		{
			"inputs": [],
			"name": "currentTaxes",
			"outputs": [
				{
					"internalType": "uint32",
					"name": "total_Tax_Percent",
					"type": "uint32"
				},
				{
					"internalType": "uint32",
					"name": "burn_Split",
					"type": "uint32"
				},
				{
					"internalType": "uint32",
					"name": "governingSplit_Wallet1",
					"type": "uint32"
				},
				{
					"internalType": "uint32",
					"name": "governingSplit_Wallet2",
					"type": "uint32"
				},
				{
					"internalType": "uint32",
					"name": "reflect_Split",
					"type": "uint32"
				}
			],
			"stateMutability": "view",
			"type": "function"
		},
		{
			"inputs": [],
			"name": "decimals",
			"outputs": [
				{
					"internalType": "uint8",
					"name": "",
					"type": "uint8"
				}
			],
			"stateMutability": "pure",
			"type": "function"
		},
		{
			"inputs": [
				{
					"internalType": "address",
					"name": "spender",
					"type": "address"
				},
				{
					"internalType": "uint256",
					"name": "subtractedValue",
					"type": "uint256"
				}
			],
			"name": "decreaseAllowance",
			"outputs": [
				{
					"internalType": "bool",
					"name": "",
					"type": "bool"
				}
			],
			"stateMutability": "nonpayable",
			"type": "function"
		},
		{
			"inputs": [
				{
					"internalType": "address",
					"name": "account",
					"type": "address"
				}
			],
			"name": "excludeFromFee",
			"outputs": [],
			"stateMutability": "nonpayable",
			"type": "function"
		},
		{
			"inputs": [
				{
					"internalType": "address",
					"name": "account",
					"type": "address"
				}
			],
			"name": "excludeFromReward",
			"outputs": [],
			"stateMutability": "nonpayable",
			"type": "function"
		},
		{
			"inputs": [
				{
					"internalType": "address",
					"name": "account",
					"type": "address"
				}
			],
			"name": "includeInFee",
			"outputs": [],
			"stateMutability": "nonpayable",
			"type": "function"
		},
		{
			"inputs": [
				{
					"internalType": "address",
					"name": "account",
					"type": "address"
				}
			],
			"name": "includeInReward",
			"outputs": [],
			"stateMutability": "nonpayable",
			"type": "function"
		},
		{
			"inputs": [
				{
					"internalType": "address",
					"name": "spender",
					"type": "address"
				},
				{
					"internalType": "uint256",
					"name": "addedValue",
					"type": "uint256"
				}
			],
			"name": "increaseAllowance",
			"outputs": [
				{
					"internalType": "bool",
					"name": "",
					"type": "bool"
				}
			],
			"stateMutability": "nonpayable",
			"type": "function"
		},
		{
			"inputs": [
				{
					"internalType": "address",
					"name": "account",
					"type": "address"
				}
			],
			"name": "isBlacklisted",
			"outputs": [
				{
					"internalType": "bool",
					"name": "",
					"type": "bool"
				}
			],
			"stateMutability": "view",
			"type": "function"
		},
		{
			"inputs": [
				{
					"internalType": "address",
					"name": "account",
					"type": "address"
				}
			],
			"name": "isExcludedFromFee",
			"outputs": [
				{
					"internalType": "bool",
					"name": "",
					"type": "bool"
				}
			],
			"stateMutability": "view",
			"type": "function"
		},
		{
			"inputs": [
				{
					"internalType": "address",
					"name": "account",
					"type": "address"
				}
			],
			"name": "isExcludedFromReward",
			"outputs": [
				{
					"internalType": "bool",
					"name": "",
					"type": "bool"
				}
			],
			"stateMutability": "view",
			"type": "function"
		},
		{
			"inputs": [
				{
					"internalType": "address",
					"name": "account",
					"type": "address"
				}
			],
			"name": "isLiquidityPool",
			"outputs": [
				{
					"internalType": "bool",
					"name": "",
					"type": "bool"
				}
			],
			"stateMutability": "view",
			"type": "function"
		},
		{
			"inputs": [],
			"name": "name",
			"outputs": [
				{
					"internalType": "string",
					"name": "",
					"type": "string"
				}
			],
			"stateMutability": "pure",
			"type": "function"
		},
		{
			"inputs": [],
			"name": "owner",
			"outputs": [
				{
					"internalType": "address",
					"name": "",
					"type": "address"
				}
			],
			"stateMutability": "view",
			"type": "function"
		},
		{
			"inputs": [
				{
					"internalType": "uint256",
					"name": "tAmount",
					"type": "uint256"
				}
			],
			"name": "reflect",
			"outputs": [],
			"stateMutability": "nonpayable",
			"type": "function"
		},
		{
			"inputs": [
				{
					"internalType": "uint256",
					"name": "tAmount",
					"type": "uint256"
				},
				{
					"internalType": "bool",
					"name": "deductTransferFee",
					"type": "bool"
				}
			],
			"name": "reflectionFromToken",
			"outputs": [
				{
					"internalType": "uint256",
					"name": "",
					"type": "uint256"
				}
			],
			"stateMutability": "view",
			"type": "function"
		},
		{
			"inputs": [],
			"name": "renounceOwnership",
			"outputs": [],
			"stateMutability": "nonpayable",
			"type": "function"
		},
		{
			"inputs": [],
			"name": "revertTax",
			"outputs": [],
			"stateMutability": "nonpayable",
			"type": "function"
		},
		{
			"inputs": [
				{
					"internalType": "address",
					"name": "account",
					"type": "address"
				},
				{
					"internalType": "bool",
					"name": "enabled",
					"type": "bool"
				}
			],
			"name": "setBlacklistAccount",
			"outputs": [],
			"stateMutability": "nonpayable",
			"type": "function"
		},
		{
			"inputs": [
				{
					"internalType": "address",
					"name": "account",
					"type": "address"
				},
				{
					"internalType": "bool",
					"name": "enabled",
					"type": "bool"
				}
			],
			"name": "setLiquidityPool",
			"outputs": [],
			"stateMutability": "nonpayable",
			"type": "function"
		},
		{
			"inputs": [
				{
					"internalType": "uint256",
					"name": "maxTxAmount",
					"type": "uint256"
				}
			],
			"name": "setMaxTxAmount",
			"outputs": [],
			"stateMutability": "nonpayable",
			"type": "function"
		},
		{
			"inputs": [
				{
					"internalType": "uint32",
					"name": "totalTaxPercent_",
					"type": "uint32"
				},
				{
					"internalType": "uint32",
					"name": "split0_",
					"type": "uint32"
				},
				{
					"internalType": "uint32",
					"name": "split1_",
					"type": "uint32"
				},
				{
					"internalType": "uint32",
					"name": "split2_",
					"type": "uint32"
				},
				{
					"internalType": "uint32",
					"name": "split3_",
					"type": "uint32"
				},
				{
					"internalType": "address",
					"name": "wallet1_",
					"type": "address"
				},
				{
					"internalType": "address",
					"name": "wallet2_",
					"type": "address"
				}
			],
			"name": "setTaxes",
			"outputs": [],
			"stateMutability": "nonpayable",
			"type": "function"
		},
		{
			"inputs": [],
			"name": "symbol",
			"outputs": [
				{
					"internalType": "string",
					"name": "",
					"type": "string"
				}
			],
			"stateMutability": "pure",
			"type": "function"
		},
		{
			"inputs": [
				{
					"internalType": "uint256",
					"name": "rAmount",
					"type": "uint256"
				}
			],
			"name": "tokenFromReflection",
			"outputs": [
				{
					"internalType": "uint256",
					"name": "",
					"type": "uint256"
				}
			],
			"stateMutability": "view",
			"type": "function"
		},
		{
			"inputs": [],
			"name": "totalFees",
			"outputs": [
				{
					"internalType": "uint256",
					"name": "",
					"type": "uint256"
				}
			],
			"stateMutability": "view",
			"type": "function"
		},
		{
			"inputs": [],
			"name": "totalSupply",
			"outputs": [
				{
					"internalType": "uint256",
					"name": "",
					"type": "uint256"
				}
			],
			"stateMutability": "pure",
			"type": "function"
		},
		{
			"inputs": [
				{
					"internalType": "address",
					"name": "recipient",
					"type": "address"
				},
				{
					"internalType": "uint256",
					"name": "amount",
					"type": "uint256"
				}
			],
			"name": "transfer",
			"outputs": [
				{
					"internalType": "bool",
					"name": "",
					"type": "bool"
				}
			],
			"stateMutability": "nonpayable",
			"type": "function"
		},
		{
			"inputs": [
				{
					"internalType": "address",
					"name": "sender",
					"type": "address"
				},
				{
					"internalType": "address",
					"name": "recipient",
					"type": "address"
				},
				{
					"internalType": "uint256",
					"name": "amount",
					"type": "uint256"
				}
			],
			"name": "transferFrom",
			"outputs": [
				{
					"internalType": "bool",
					"name": "",
					"type": "bool"
				}
			],
			"stateMutability": "nonpayable",
			"type": "function"
		},
		{
			"inputs": [
				{
					"internalType": "address",
					"name": "newOwner",
					"type": "address"
				}
			],
			"name": "transferOwnership",
			"outputs": [],
			"stateMutability": "nonpayable",
			"type": "function"
		},
		{
			"inputs": [],
			"name": "unlockToken",
			"outputs": [],
			"stateMutability": "nonpayable",
			"type": "function"
		},
		{
			"stateMutability": "payable",
			"type": "receive"
		}
	]
}